{
	"contracts/basic4.sol": {
		"Basic4": {
			"abi": [
				{
					"inputs": [],
					"name": "getA",
					"outputs": [
						{
							"internalType": "string",
							"name": "",
							"type": "string"
						}
					],
					"stateMutability": "view",
					"type": "function"
				},
				{
					"inputs": [],
					"name": "getAB",
					"outputs": [
						{
							"internalType": "string",
							"name": "",
							"type": "string"
						},
						{
							"internalType": "uint256",
							"name": "",
							"type": "uint256"
						}
					],
					"stateMutability": "view",
					"type": "function"
				},
				{
					"inputs": [
						{
							"internalType": "string",
							"name": "_a",
							"type": "string"
						}
					],
					"name": "setA",
					"outputs": [],
					"stateMutability": "nonpayable",
					"type": "function"
				},
				{
					"inputs": [
						{
							"internalType": "string",
							"name": "_a",
							"type": "string"
						},
						{
							"internalType": "uint256",
							"name": "_b",
							"type": "uint256"
						}
					],
					"name": "setAB",
					"outputs": [],
					"stateMutability": "nonpayable",
					"type": "function"
				},
				{
					"inputs": [],
					"name": "setAasABC",
					"outputs": [],
					"stateMutability": "nonpayable",
					"type": "function"
				}
			],
			"devdoc": {
				"kind": "dev",
				"methods": {},
				"version": 1
			},
			"evm": {
				"assembly": "    /* \"contracts/basic4.sol\":70:549  contract Basic4 {... */\n  mstore(0x40, 0x80)\n  callvalue\n  dup1\n  iszero\n  tag_1\n  jumpi\n  0x00\n  dup1\n  revert\ntag_1:\n  pop\n  dataSize(sub_0)\n  dup1\n  dataOffset(sub_0)\n  0x00\n  codecopy\n  0x00\n  return\nstop\n\nsub_0: assembly {\n        /* \"contracts/basic4.sol\":70:549  contract Basic4 {... */\n      mstore(0x40, 0x80)\n      callvalue\n      dup1\n      iszero\n      tag_1\n      jumpi\n      0x00\n      dup1\n      revert\n    tag_1:\n      pop\n      jumpi(tag_2, lt(calldatasize, 0x04))\n      shr(0xe0, calldataload(0x00))\n      dup1\n      0x2b06cb2d\n      eq\n      tag_3\n      jumpi\n      dup1\n      0x60de3916\n      eq\n      tag_4\n      jumpi\n      dup1\n      0xb958abd5\n      eq\n      tag_5\n      jumpi\n      dup1\n      0xd37aff74\n      eq\n      tag_6\n      jumpi\n      dup1\n      0xd46300fd\n      eq\n      tag_7\n      jumpi\n    tag_2:\n      0x00\n      dup1\n      revert\n        /* \"contracts/basic4.sol\":459:547  function getAB() public view returns(string memory, uint) {... */\n    tag_3:\n      tag_8\n      tag_9\n      jump\t// in\n    tag_8:\n      mload(0x40)\n      tag_10\n      swap3\n      swap2\n      swap1\n      tag_11\n      jump\t// in\n    tag_10:\n      mload(0x40)\n      dup1\n      swap2\n      sub\n      swap1\n      return\n        /* \"contracts/basic4.sol\":283:371  function setAB(string memory _a, uint _b) public {... */\n    tag_4:\n      tag_12\n      0x04\n      dup1\n      calldatasize\n      sub\n      dup2\n      add\n      swap1\n      tag_13\n      swap2\n      swap1\n      tag_14\n      jump\t// in\n    tag_13:\n      tag_15\n      jump\t// in\n    tag_12:\n      stop\n        /* \"contracts/basic4.sol\":155:217  function setA(string memory _a) public {... */\n    tag_5:\n      tag_16\n      0x04\n      dup1\n      calldatasize\n      sub\n      dup2\n      add\n      swap1\n      tag_17\n      swap2\n      swap1\n      tag_18\n      jump\t// in\n    tag_17:\n      tag_19\n      jump\t// in\n    tag_16:\n      stop\n        /* \"contracts/basic4.sol\":223:277  function setAasABC() public {... */\n    tag_6:\n      tag_20\n      tag_21\n      jump\t// in\n    tag_20:\n      stop\n        /* \"contracts/basic4.sol\":377:453  function getA() public view returns(string memory) {... */\n    tag_7:\n      tag_22\n      tag_23\n      jump\t// in\n    tag_22:\n      mload(0x40)\n      tag_24\n      swap2\n      swap1\n      tag_25\n      jump\t// in\n    tag_24:\n      mload(0x40)\n      dup1\n      swap2\n      sub\n      swap1\n      return\n        /* \"contracts/basic4.sol\":459:547  function getAB() public view returns(string memory, uint) {... */\n    tag_9:\n        /* \"contracts/basic4.sol\":496:509  string memory */\n      0x60\n        /* \"contracts/basic4.sol\":511:515  uint */\n      0x00\n        /* \"contracts/basic4.sol\":535:536  a */\n      dup1\n        /* \"contracts/basic4.sol\":538:539  b */\n      sload(0x01)\n        /* \"contracts/basic4.sol\":527:540  return (a, b) */\n      dup2\n      dup1\n      sload\n      tag_27\n      swap1\n      tag_28\n      jump\t// in\n    tag_27:\n      dup1\n      0x1f\n      add\n      0x20\n      dup1\n      swap2\n      div\n      mul\n      0x20\n      add\n      mload(0x40)\n      swap1\n      dup2\n      add\n      0x40\n      mstore\n      dup1\n      swap3\n      swap2\n      swap1\n      dup2\n      dup2\n      mstore\n      0x20\n      add\n      dup3\n      dup1\n      sload\n      tag_29\n      swap1\n      tag_28\n      jump\t// in\n    tag_29:\n      dup1\n      iszero\n      tag_30\n      jumpi\n      dup1\n      0x1f\n      lt\n      tag_31\n      jumpi\n      0x0100\n      dup1\n      dup4\n      sload\n      div\n      mul\n      dup4\n      mstore\n      swap2\n      0x20\n      add\n      swap2\n      jump(tag_30)\n    tag_31:\n      dup3\n      add\n      swap2\n      swap1\n      0x00\n      mstore\n      keccak256(0x00, 0x20)\n      swap1\n    tag_32:\n      dup2\n      sload\n      dup2\n      mstore\n      swap1\n      0x01\n      add\n      swap1\n      0x20\n      add\n      dup1\n      dup4\n      gt\n      tag_32\n      jumpi\n      dup3\n      swap1\n      sub\n      0x1f\n      and\n      dup3\n      add\n      swap2\n    tag_30:\n      pop\n      pop\n      pop\n      pop\n      pop\n      swap2\n      pop\n      swap2\n      pop\n      swap2\n      pop\n        /* \"contracts/basic4.sol\":459:547  function getAB() public view returns(string memory, uint) {... */\n      swap1\n      swap2\n      jump\t// out\n        /* \"contracts/basic4.sol\":283:371  function setAB(string memory _a, uint _b) public {... */\n    tag_15:\n        /* \"contracts/basic4.sol\":346:348  _a */\n      dup2\n        /* \"contracts/basic4.sol\":342:343  a */\n      0x00\n        /* \"contracts/basic4.sol\":342:348  a = _a */\n      swap1\n      dup2\n      tag_34\n      swap2\n      swap1\n      tag_35\n      jump\t// in\n    tag_34:\n      pop\n        /* \"contracts/basic4.sol\":362:364  _b */\n      dup1\n        /* \"contracts/basic4.sol\":358:359  b */\n      0x01\n        /* \"contracts/basic4.sol\":358:364  b = _b */\n      dup2\n      swap1\n      sstore\n      pop\n        /* \"contracts/basic4.sol\":283:371  function setAB(string memory _a, uint _b) public {... */\n      pop\n      pop\n      jump\t// out\n        /* \"contracts/basic4.sol\":155:217  function setA(string memory _a) public {... */\n    tag_19:\n        /* \"contracts/basic4.sol\":208:210  _a */\n      dup1\n        /* \"contracts/basic4.sol\":204:205  a */\n      0x00\n        /* \"contracts/basic4.sol\":204:210  a = _a */\n      swap1\n      dup2\n      tag_37\n      swap2\n      swap1\n      tag_35\n      jump\t// in\n    tag_37:\n      pop\n        /* \"contracts/basic4.sol\":155:217  function setA(string memory _a) public {... */\n      pop\n      jump\t// out\n        /* \"contracts/basic4.sol\":223:277  function setAasABC() public {... */\n    tag_21:\n        /* \"contracts/basic4.sol\":261:270  a = \"abc\" */\n      mload(0x40)\n      dup1\n      0x40\n      add\n      0x40\n      mstore\n      dup1\n      0x03\n      dup2\n      mstore\n      0x20\n      add\n      0x6162630000000000000000000000000000000000000000000000000000000000\n      dup2\n      mstore\n      pop\n        /* \"contracts/basic4.sol\":261:262  a */\n      0x00\n        /* \"contracts/basic4.sol\":261:270  a = \"abc\" */\n      swap1\n      dup2\n      tag_39\n      swap2\n      swap1\n      tag_35\n      jump\t// in\n    tag_39:\n      pop\n        /* \"contracts/basic4.sol\":223:277  function setAasABC() public {... */\n      jump\t// out\n        /* \"contracts/basic4.sol\":377:453  function getA() public view returns(string memory) {... */\n    tag_23:\n        /* \"contracts/basic4.sol\":413:426  string memory */\n      0x60\n        /* \"contracts/basic4.sol\":445:446  a */\n      0x00\n        /* \"contracts/basic4.sol\":438:446  return a */\n      dup1\n      sload\n      tag_41\n      swap1\n      tag_28\n      jump\t// in\n    tag_41:\n      dup1\n      0x1f\n      add\n      0x20\n      dup1\n      swap2\n      div\n      mul\n      0x20\n      add\n      mload(0x40)\n      swap1\n      dup2\n      add\n      0x40\n      mstore\n      dup1\n      swap3\n      swap2\n      swap1\n      dup2\n      dup2\n      mstore\n      0x20\n      add\n      dup3\n      dup1\n      sload\n      tag_42\n      swap1\n      tag_28\n      jump\t// in\n    tag_42:\n      dup1\n      iszero\n      tag_43\n      jumpi\n      dup1\n      0x1f\n      lt\n      tag_44\n      jumpi\n      0x0100\n      dup1\n      dup4\n      sload\n      div\n      mul\n      dup4\n      mstore\n      swap2\n      0x20\n      add\n      swap2\n      jump(tag_43)\n    tag_44:\n      dup3\n      add\n      swap2\n      swap1\n      0x00\n      mstore\n      keccak256(0x00, 0x20)\n      swap1\n    tag_45:\n      dup2\n      sload\n      dup2\n      mstore\n      swap1\n      0x01\n      add\n      swap1\n      0x20\n      add\n      dup1\n      dup4\n      gt\n      tag_45\n      jumpi\n      dup3\n      swap1\n      sub\n      0x1f\n      and\n      dup3\n      add\n      swap2\n    tag_43:\n      pop\n      pop\n      pop\n      pop\n      pop\n      swap1\n      pop\n        /* \"contracts/basic4.sol\":377:453  function getA() public view returns(string memory) {... */\n      swap1\n      jump\t// out\n        /* \"#utility.yul\":7:106   */\n    tag_46:\n        /* \"#utility.yul\":59:65   */\n      0x00\n        /* \"#utility.yul\":93:98   */\n      dup2\n        /* \"#utility.yul\":87:99   */\n      mload\n        /* \"#utility.yul\":77:99   */\n      swap1\n      pop\n        /* \"#utility.yul\":7:106   */\n      swap2\n      swap1\n      pop\n      jump\t// out\n        /* \"#utility.yul\":112:281   */\n    tag_47:\n        /* \"#utility.yul\":196:207   */\n      0x00\n        /* \"#utility.yul\":230:236   */\n      dup3\n        /* \"#utility.yul\":225:228   */\n      dup3\n        /* \"#utility.yul\":218:237   */\n      mstore\n        /* \"#utility.yul\":270:274   */\n      0x20\n        /* \"#utility.yul\":265:268   */\n      dup3\n        /* \"#utility.yul\":261:275   */\n      add\n        /* \"#utility.yul\":246:275   */\n      swap1\n      pop\n        /* \"#utility.yul\":112:281   */\n      swap3\n      swap2\n      pop\n      pop\n      jump\t// out\n        /* \"#utility.yul\":287:533   */\n    tag_48:\n        /* \"#utility.yul\":368:369   */\n      0x00\n        /* \"#utility.yul\":378:491   */\n    tag_87:\n        /* \"#utility.yul\":392:398   */\n      dup4\n        /* \"#utility.yul\":389:390   */\n      dup2\n        /* \"#utility.yul\":386:399   */\n      lt\n        /* \"#utility.yul\":378:491   */\n      iszero\n      tag_89\n      jumpi\n        /* \"#utility.yul\":477:478   */\n      dup1\n        /* \"#utility.yul\":472:475   */\n      dup3\n        /* \"#utility.yul\":468:479   */\n      add\n        /* \"#utility.yul\":462:480   */\n      mload\n        /* \"#utility.yul\":458:459   */\n      dup2\n        /* \"#utility.yul\":453:456   */\n      dup5\n        /* \"#utility.yul\":449:460   */\n      add\n        /* \"#utility.yul\":442:481   */\n      mstore\n        /* \"#utility.yul\":414:416   */\n      0x20\n        /* \"#utility.yul\":411:412   */\n      dup2\n        /* \"#utility.yul\":407:417   */\n      add\n        /* \"#utility.yul\":402:417   */\n      swap1\n      pop\n        /* \"#utility.yul\":378:491   */\n      jump(tag_87)\n    tag_89:\n        /* \"#utility.yul\":525:526   */\n      0x00\n        /* \"#utility.yul\":516:522   */\n      dup5\n        /* \"#utility.yul\":511:514   */\n      dup5\n        /* \"#utility.yul\":507:523   */\n      add\n        /* \"#utility.yul\":500:527   */\n      mstore\n        /* \"#utility.yul\":349:533   */\n      pop\n        /* \"#utility.yul\":287:533   */\n      pop\n      pop\n      pop\n      jump\t// out\n        /* \"#utility.yul\":539:641   */\n    tag_49:\n        /* \"#utility.yul\":580:586   */\n      0x00\n        /* \"#utility.yul\":631:633   */\n      0x1f\n        /* \"#utility.yul\":627:634   */\n      not\n        /* \"#utility.yul\":622:624   */\n      0x1f\n        /* \"#utility.yul\":615:620   */\n      dup4\n        /* \"#utility.yul\":611:625   */\n      add\n        /* \"#utility.yul\":607:635   */\n      and\n        /* \"#utility.yul\":597:635   */\n      swap1\n      pop\n        /* \"#utility.yul\":539:641   */\n      swap2\n      swap1\n      pop\n      jump\t// out\n        /* \"#utility.yul\":647:1024   */\n    tag_50:\n        /* \"#utility.yul\":735:738   */\n      0x00\n        /* \"#utility.yul\":763:802   */\n      tag_92\n        /* \"#utility.yul\":796:801   */\n      dup3\n        /* \"#utility.yul\":763:802   */\n      tag_46\n      jump\t// in\n    tag_92:\n        /* \"#utility.yul\":818:889   */\n      tag_93\n        /* \"#utility.yul\":882:888   */\n      dup2\n        /* \"#utility.yul\":877:880   */\n      dup6\n        /* \"#utility.yul\":818:889   */\n      tag_47\n      jump\t// in\n    tag_93:\n        /* \"#utility.yul\":811:889   */\n      swap4\n      pop\n        /* \"#utility.yul\":898:963   */\n      tag_94\n        /* \"#utility.yul\":956:962   */\n      dup2\n        /* \"#utility.yul\":951:954   */\n      dup6\n        /* \"#utility.yul\":944:948   */\n      0x20\n        /* \"#utility.yul\":937:942   */\n      dup7\n        /* \"#utility.yul\":933:949   */\n      add\n        /* \"#utility.yul\":898:963   */\n      tag_48\n      jump\t// in\n    tag_94:\n        /* \"#utility.yul\":988:1017   */\n      tag_95\n        /* \"#utility.yul\":1010:1016   */\n      dup2\n        /* \"#utility.yul\":988:1017   */\n      tag_49\n      jump\t// in\n    tag_95:\n        /* \"#utility.yul\":983:986   */\n      dup5\n        /* \"#utility.yul\":979:1018   */\n      add\n        /* \"#utility.yul\":972:1018   */\n      swap2\n      pop\n        /* \"#utility.yul\":739:1024   */\n      pop\n        /* \"#utility.yul\":647:1024   */\n      swap3\n      swap2\n      pop\n      pop\n      jump\t// out\n        /* \"#utility.yul\":1030:1107   */\n    tag_51:\n        /* \"#utility.yul\":1067:1074   */\n      0x00\n        /* \"#utility.yul\":1096:1101   */\n      dup2\n        /* \"#utility.yul\":1085:1101   */\n      swap1\n      pop\n        /* \"#utility.yul\":1030:1107   */\n      swap2\n      swap1\n      pop\n      jump\t// out\n        /* \"#utility.yul\":1113:1231   */\n    tag_52:\n        /* \"#utility.yul\":1200:1224   */\n      tag_98\n        /* \"#utility.yul\":1218:1223   */\n      dup2\n        /* \"#utility.yul\":1200:1224   */\n      tag_51\n      jump\t// in\n    tag_98:\n        /* \"#utility.yul\":1195:1198   */\n      dup3\n        /* \"#utility.yul\":1188:1225   */\n      mstore\n        /* \"#utility.yul\":1113:1231   */\n      pop\n      pop\n      jump\t// out\n        /* \"#utility.yul\":1237:1660   */\n    tag_11:\n        /* \"#utility.yul\":1378:1382   */\n      0x00\n        /* \"#utility.yul\":1416:1418   */\n      0x40\n        /* \"#utility.yul\":1405:1414   */\n      dup3\n        /* \"#utility.yul\":1401:1419   */\n      add\n        /* \"#utility.yul\":1393:1419   */\n      swap1\n      pop\n        /* \"#utility.yul\":1465:1474   */\n      dup2\n        /* \"#utility.yul\":1459:1463   */\n      dup2\n        /* \"#utility.yul\":1455:1475   */\n      sub\n        /* \"#utility.yul\":1451:1452   */\n      0x00\n        /* \"#utility.yul\":1440:1449   */\n      dup4\n        /* \"#utility.yul\":1436:1453   */\n      add\n        /* \"#utility.yul\":1429:1476   */\n      mstore\n        /* \"#utility.yul\":1493:1571   */\n      tag_100\n        /* \"#utility.yul\":1566:1570   */\n      dup2\n        /* \"#utility.yul\":1557:1563   */\n      dup6\n        /* \"#utility.yul\":1493:1571   */\n      tag_50\n      jump\t// in\n    tag_100:\n        /* \"#utility.yul\":1485:1571   */\n      swap1\n      pop\n        /* \"#utility.yul\":1581:1653   */\n      tag_101\n        /* \"#utility.yul\":1649:1651   */\n      0x20\n        /* \"#utility.yul\":1638:1647   */\n      dup4\n        /* \"#utility.yul\":1634:1652   */\n      add\n        /* \"#utility.yul\":1625:1631   */\n      dup5\n        /* \"#utility.yul\":1581:1653   */\n      tag_52\n      jump\t// in\n    tag_101:\n        /* \"#utility.yul\":1237:1660   */\n      swap4\n      swap3\n      pop\n      pop\n      pop\n      jump\t// out\n        /* \"#utility.yul\":1666:1741   */\n    tag_53:\n        /* \"#utility.yul\":1699:1705   */\n      0x00\n        /* \"#utility.yul\":1732:1734   */\n      0x40\n        /* \"#utility.yul\":1726:1735   */\n      mload\n        /* \"#utility.yul\":1716:1735   */\n      swap1\n      pop\n        /* \"#utility.yul\":1666:1741   */\n      swap1\n      jump\t// out\n        /* \"#utility.yul\":1747:1864   */\n    tag_54:\n        /* \"#utility.yul\":1856:1857   */\n      0x00\n        /* \"#utility.yul\":1853:1854   */\n      dup1\n        /* \"#utility.yul\":1846:1858   */\n      revert\n        /* \"#utility.yul\":1870:1987   */\n    tag_55:\n        /* \"#utility.yul\":1979:1980   */\n      0x00\n        /* \"#utility.yul\":1976:1977   */\n      dup1\n        /* \"#utility.yul\":1969:1981   */\n      revert\n        /* \"#utility.yul\":1993:2110   */\n    tag_56:\n        /* \"#utility.yul\":2102:2103   */\n      0x00\n        /* \"#utility.yul\":2099:2100   */\n      dup1\n        /* \"#utility.yul\":2092:2104   */\n      revert\n        /* \"#utility.yul\":2116:2233   */\n    tag_57:\n        /* \"#utility.yul\":2225:2226   */\n      0x00\n        /* \"#utility.yul\":2222:2223   */\n      dup1\n        /* \"#utility.yul\":2215:2227   */\n      revert\n        /* \"#utility.yul\":2239:2419   */\n    tag_58:\n        /* \"#utility.yul\":2287:2364   */\n      0x4e487b7100000000000000000000000000000000000000000000000000000000\n        /* \"#utility.yul\":2284:2285   */\n      0x00\n        /* \"#utility.yul\":2277:2365   */\n      mstore\n        /* \"#utility.yul\":2384:2388   */\n      0x41\n        /* \"#utility.yul\":2381:2382   */\n      0x04\n        /* \"#utility.yul\":2374:2389   */\n      mstore\n        /* \"#utility.yul\":2408:2412   */\n      0x24\n        /* \"#utility.yul\":2405:2406   */\n      0x00\n        /* \"#utility.yul\":2398:2413   */\n      revert\n        /* \"#utility.yul\":2425:2706   */\n    tag_59:\n        /* \"#utility.yul\":2508:2535   */\n      tag_109\n        /* \"#utility.yul\":2530:2534   */\n      dup3\n        /* \"#utility.yul\":2508:2535   */\n      tag_49\n      jump\t// in\n    tag_109:\n        /* \"#utility.yul\":2500:2506   */\n      dup2\n        /* \"#utility.yul\":2496:2536   */\n      add\n        /* \"#utility.yul\":2638:2644   */\n      dup2\n        /* \"#utility.yul\":2626:2636   */\n      dup2\n        /* \"#utility.yul\":2623:2645   */\n      lt\n        /* \"#utility.yul\":2602:2620   */\n      0xffffffffffffffff\n        /* \"#utility.yul\":2590:2600   */\n      dup3\n        /* \"#utility.yul\":2587:2621   */\n      gt\n        /* \"#utility.yul\":2584:2646   */\n      or\n        /* \"#utility.yul\":2581:2669   */\n      iszero\n      tag_110\n      jumpi\n        /* \"#utility.yul\":2649:2667   */\n      tag_111\n      tag_58\n      jump\t// in\n    tag_111:\n        /* \"#utility.yul\":2581:2669   */\n    tag_110:\n        /* \"#utility.yul\":2689:2699   */\n      dup1\n        /* \"#utility.yul\":2685:2687   */\n      0x40\n        /* \"#utility.yul\":2678:2700   */\n      mstore\n        /* \"#utility.yul\":2468:2706   */\n      pop\n        /* \"#utility.yul\":2425:2706   */\n      pop\n      pop\n      jump\t// out\n        /* \"#utility.yul\":2712:2841   */\n    tag_60:\n        /* \"#utility.yul\":2746:2752   */\n      0x00\n        /* \"#utility.yul\":2773:2793   */\n      tag_113\n      tag_53\n      jump\t// in\n    tag_113:\n        /* \"#utility.yul\":2763:2793   */\n      swap1\n      pop\n        /* \"#utility.yul\":2802:2835   */\n      tag_114\n        /* \"#utility.yul\":2830:2834   */\n      dup3\n        /* \"#utility.yul\":2822:2828   */\n      dup3\n        /* \"#utility.yul\":2802:2835   */\n      tag_59\n      jump\t// in\n    tag_114:\n        /* \"#utility.yul\":2712:2841   */\n      swap2\n      swap1\n      pop\n      jump\t// out\n        /* \"#utility.yul\":2847:3155   */\n    tag_61:\n        /* \"#utility.yul\":2909:2913   */\n      0x00\n        /* \"#utility.yul\":2999:3017   */\n      0xffffffffffffffff\n        /* \"#utility.yul\":2991:2997   */\n      dup3\n        /* \"#utility.yul\":2988:3018   */\n      gt\n        /* \"#utility.yul\":2985:3041   */\n      iszero\n      tag_116\n      jumpi\n        /* \"#utility.yul\":3021:3039   */\n      tag_117\n      tag_58\n      jump\t// in\n    tag_117:\n        /* \"#utility.yul\":2985:3041   */\n    tag_116:\n        /* \"#utility.yul\":3059:3088   */\n      tag_118\n        /* \"#utility.yul\":3081:3087   */\n      dup3\n        /* \"#utility.yul\":3059:3088   */\n      tag_49\n      jump\t// in\n    tag_118:\n        /* \"#utility.yul\":3051:3088   */\n      swap1\n      pop\n        /* \"#utility.yul\":3143:3147   */\n      0x20\n        /* \"#utility.yul\":3137:3141   */\n      dup2\n        /* \"#utility.yul\":3133:3148   */\n      add\n        /* \"#utility.yul\":3125:3148   */\n      swap1\n      pop\n        /* \"#utility.yul\":2847:3155   */\n      swap2\n      swap1\n      pop\n      jump\t// out\n        /* \"#utility.yul\":3161:3307   */\n    tag_62:\n        /* \"#utility.yul\":3258:3264   */\n      dup3\n        /* \"#utility.yul\":3253:3256   */\n      dup2\n        /* \"#utility.yul\":3248:3251   */\n      dup4\n        /* \"#utility.yul\":3235:3265   */\n      calldatacopy\n        /* \"#utility.yul\":3299:3300   */\n      0x00\n        /* \"#utility.yul\":3290:3296   */\n      dup4\n        /* \"#utility.yul\":3285:3288   */\n      dup4\n        /* \"#utility.yul\":3281:3297   */\n      add\n        /* \"#utility.yul\":3274:3301   */\n      mstore\n        /* \"#utility.yul\":3161:3307   */\n      pop\n      pop\n      pop\n      jump\t// out\n        /* \"#utility.yul\":3313:3738   */\n    tag_63:\n        /* \"#utility.yul\":3391:3396   */\n      0x00\n        /* \"#utility.yul\":3416:3482   */\n      tag_121\n        /* \"#utility.yul\":3432:3481   */\n      tag_122\n        /* \"#utility.yul\":3474:3480   */\n      dup5\n        /* \"#utility.yul\":3432:3481   */\n      tag_61\n      jump\t// in\n    tag_122:\n        /* \"#utility.yul\":3416:3482   */\n      tag_60\n      jump\t// in\n    tag_121:\n        /* \"#utility.yul\":3407:3482   */\n      swap1\n      pop\n        /* \"#utility.yul\":3505:3511   */\n      dup3\n        /* \"#utility.yul\":3498:3503   */\n      dup2\n        /* \"#utility.yul\":3491:3512   */\n      mstore\n        /* \"#utility.yul\":3543:3547   */\n      0x20\n        /* \"#utility.yul\":3536:3541   */\n      dup2\n        /* \"#utility.yul\":3532:3548   */\n      add\n        /* \"#utility.yul\":3581:3584   */\n      dup5\n        /* \"#utility.yul\":3572:3578   */\n      dup5\n        /* \"#utility.yul\":3567:3570   */\n      dup5\n        /* \"#utility.yul\":3563:3579   */\n      add\n        /* \"#utility.yul\":3560:3585   */\n      gt\n        /* \"#utility.yul\":3557:3669   */\n      iszero\n      tag_123\n      jumpi\n        /* \"#utility.yul\":3588:3667   */\n      tag_124\n      tag_57\n      jump\t// in\n    tag_124:\n        /* \"#utility.yul\":3557:3669   */\n    tag_123:\n        /* \"#utility.yul\":3678:3732   */\n      tag_125\n        /* \"#utility.yul\":3725:3731   */\n      dup5\n        /* \"#utility.yul\":3720:3723   */\n      dup3\n        /* \"#utility.yul\":3715:3718   */\n      dup6\n        /* \"#utility.yul\":3678:3732   */\n      tag_62\n      jump\t// in\n    tag_125:\n        /* \"#utility.yul\":3397:3738   */\n      pop\n        /* \"#utility.yul\":3313:3738   */\n      swap4\n      swap3\n      pop\n      pop\n      pop\n      jump\t// out\n        /* \"#utility.yul\":3758:4098   */\n    tag_64:\n        /* \"#utility.yul\":3814:3819   */\n      0x00\n        /* \"#utility.yul\":3863:3866   */\n      dup3\n        /* \"#utility.yul\":3856:3860   */\n      0x1f\n        /* \"#utility.yul\":3848:3854   */\n      dup4\n        /* \"#utility.yul\":3844:3861   */\n      add\n        /* \"#utility.yul\":3840:3867   */\n      slt\n        /* \"#utility.yul\":3830:3952   */\n      tag_127\n      jumpi\n        /* \"#utility.yul\":3871:3950   */\n      tag_128\n      tag_56\n      jump\t// in\n    tag_128:\n        /* \"#utility.yul\":3830:3952   */\n    tag_127:\n        /* \"#utility.yul\":3988:3994   */\n      dup2\n        /* \"#utility.yul\":3975:3995   */\n      calldataload\n        /* \"#utility.yul\":4013:4092   */\n      tag_129\n        /* \"#utility.yul\":4088:4091   */\n      dup5\n        /* \"#utility.yul\":4080:4086   */\n      dup3\n        /* \"#utility.yul\":4073:4077   */\n      0x20\n        /* \"#utility.yul\":4065:4071   */\n      dup7\n        /* \"#utility.yul\":4061:4078   */\n      add\n        /* \"#utility.yul\":4013:4092   */\n      tag_63\n      jump\t// in\n    tag_129:\n        /* \"#utility.yul\":4004:4092   */\n      swap2\n      pop\n        /* \"#utility.yul\":3820:4098   */\n      pop\n        /* \"#utility.yul\":3758:4098   */\n      swap3\n      swap2\n      pop\n      pop\n      jump\t// out\n        /* \"#utility.yul\":4104:4226   */\n    tag_65:\n        /* \"#utility.yul\":4177:4201   */\n      tag_131\n        /* \"#utility.yul\":4195:4200   */\n      dup2\n        /* \"#utility.yul\":4177:4201   */\n      tag_51\n      jump\t// in\n    tag_131:\n        /* \"#utility.yul\":4170:4175   */\n      dup2\n        /* \"#utility.yul\":4167:4202   */\n      eq\n        /* \"#utility.yul\":4157:4220   */\n      tag_132\n      jumpi\n        /* \"#utility.yul\":4216:4217   */\n      0x00\n        /* \"#utility.yul\":4213:4214   */\n      dup1\n        /* \"#utility.yul\":4206:4218   */\n      revert\n        /* \"#utility.yul\":4157:4220   */\n    tag_132:\n        /* \"#utility.yul\":4104:4226   */\n      pop\n      jump\t// out\n        /* \"#utility.yul\":4232:4371   */\n    tag_66:\n        /* \"#utility.yul\":4278:4283   */\n      0x00\n        /* \"#utility.yul\":4316:4322   */\n      dup2\n        /* \"#utility.yul\":4303:4323   */\n      calldataload\n        /* \"#utility.yul\":4294:4323   */\n      swap1\n      pop\n        /* \"#utility.yul\":4332:4365   */\n      tag_134\n        /* \"#utility.yul\":4359:4364   */\n      dup2\n        /* \"#utility.yul\":4332:4365   */\n      tag_65\n      jump\t// in\n    tag_134:\n        /* \"#utility.yul\":4232:4371   */\n      swap3\n      swap2\n      pop\n      pop\n      jump\t// out\n        /* \"#utility.yul\":4377:5031   */\n    tag_14:\n        /* \"#utility.yul\":4455:4461   */\n      0x00\n        /* \"#utility.yul\":4463:4469   */\n      dup1\n        /* \"#utility.yul\":4512:4514   */\n      0x40\n        /* \"#utility.yul\":4500:4509   */\n      dup4\n        /* \"#utility.yul\":4491:4498   */\n      dup6\n        /* \"#utility.yul\":4487:4510   */\n      sub\n        /* \"#utility.yul\":4483:4515   */\n      slt\n        /* \"#utility.yul\":4480:4599   */\n      iszero\n      tag_136\n      jumpi\n        /* \"#utility.yul\":4518:4597   */\n      tag_137\n      tag_54\n      jump\t// in\n    tag_137:\n        /* \"#utility.yul\":4480:4599   */\n    tag_136:\n        /* \"#utility.yul\":4666:4667   */\n      0x00\n        /* \"#utility.yul\":4655:4664   */\n      dup4\n        /* \"#utility.yul\":4651:4668   */\n      add\n        /* \"#utility.yul\":4638:4669   */\n      calldataload\n        /* \"#utility.yul\":4696:4714   */\n      0xffffffffffffffff\n        /* \"#utility.yul\":4688:4694   */\n      dup2\n        /* \"#utility.yul\":4685:4715   */\n      gt\n        /* \"#utility.yul\":4682:4799   */\n      iszero\n      tag_138\n      jumpi\n        /* \"#utility.yul\":4718:4797   */\n      tag_139\n      tag_55\n      jump\t// in\n    tag_139:\n        /* \"#utility.yul\":4682:4799   */\n    tag_138:\n        /* \"#utility.yul\":4823:4886   */\n      tag_140\n        /* \"#utility.yul\":4878:4885   */\n      dup6\n        /* \"#utility.yul\":4869:4875   */\n      dup3\n        /* \"#utility.yul\":4858:4867   */\n      dup7\n        /* \"#utility.yul\":4854:4876   */\n      add\n        /* \"#utility.yul\":4823:4886   */\n      tag_64\n      jump\t// in\n    tag_140:\n        /* \"#utility.yul\":4813:4886   */\n      swap3\n      pop\n        /* \"#utility.yul\":4609:4896   */\n      pop\n        /* \"#utility.yul\":4935:4937   */\n      0x20\n        /* \"#utility.yul\":4961:5014   */\n      tag_141\n        /* \"#utility.yul\":5006:5013   */\n      dup6\n        /* \"#utility.yul\":4997:5003   */\n      dup3\n        /* \"#utility.yul\":4986:4995   */\n      dup7\n        /* \"#utility.yul\":4982:5004   */\n      add\n        /* \"#utility.yul\":4961:5014   */\n      tag_66\n      jump\t// in\n    tag_141:\n        /* \"#utility.yul\":4951:5014   */\n      swap2\n      pop\n        /* \"#utility.yul\":4906:5024   */\n      pop\n        /* \"#utility.yul\":4377:5031   */\n      swap3\n      pop\n      swap3\n      swap1\n      pop\n      jump\t// out\n        /* \"#utility.yul\":5037:5546   */\n    tag_18:\n        /* \"#utility.yul\":5106:5112   */\n      0x00\n        /* \"#utility.yul\":5155:5157   */\n      0x20\n        /* \"#utility.yul\":5143:5152   */\n      dup3\n        /* \"#utility.yul\":5134:5141   */\n      dup5\n        /* \"#utility.yul\":5130:5153   */\n      sub\n        /* \"#utility.yul\":5126:5158   */\n      slt\n        /* \"#utility.yul\":5123:5242   */\n      iszero\n      tag_143\n      jumpi\n        /* \"#utility.yul\":5161:5240   */\n      tag_144\n      tag_54\n      jump\t// in\n    tag_144:\n        /* \"#utility.yul\":5123:5242   */\n    tag_143:\n        /* \"#utility.yul\":5309:5310   */\n      0x00\n        /* \"#utility.yul\":5298:5307   */\n      dup3\n        /* \"#utility.yul\":5294:5311   */\n      add\n        /* \"#utility.yul\":5281:5312   */\n      calldataload\n        /* \"#utility.yul\":5339:5357   */\n      0xffffffffffffffff\n        /* \"#utility.yul\":5331:5337   */\n      dup2\n        /* \"#utility.yul\":5328:5358   */\n      gt\n        /* \"#utility.yul\":5325:5442   */\n      iszero\n      tag_145\n      jumpi\n        /* \"#utility.yul\":5361:5440   */\n      tag_146\n      tag_55\n      jump\t// in\n    tag_146:\n        /* \"#utility.yul\":5325:5442   */\n    tag_145:\n        /* \"#utility.yul\":5466:5529   */\n      tag_147\n        /* \"#utility.yul\":5521:5528   */\n      dup5\n        /* \"#utility.yul\":5512:5518   */\n      dup3\n        /* \"#utility.yul\":5501:5510   */\n      dup6\n        /* \"#utility.yul\":5497:5519   */\n      add\n        /* \"#utility.yul\":5466:5529   */\n      tag_64\n      jump\t// in\n    tag_147:\n        /* \"#utility.yul\":5456:5529   */\n      swap2\n      pop\n        /* \"#utility.yul\":5252:5539   */\n      pop\n        /* \"#utility.yul\":5037:5546   */\n      swap3\n      swap2\n      pop\n      pop\n      jump\t// out\n        /* \"#utility.yul\":5552:5865   */\n    tag_25:\n        /* \"#utility.yul\":5665:5669   */\n      0x00\n        /* \"#utility.yul\":5703:5705   */\n      0x20\n        /* \"#utility.yul\":5692:5701   */\n      dup3\n        /* \"#utility.yul\":5688:5706   */\n      add\n        /* \"#utility.yul\":5680:5706   */\n      swap1\n      pop\n        /* \"#utility.yul\":5752:5761   */\n      dup2\n        /* \"#utility.yul\":5746:5750   */\n      dup2\n        /* \"#utility.yul\":5742:5762   */\n      sub\n        /* \"#utility.yul\":5738:5739   */\n      0x00\n        /* \"#utility.yul\":5727:5736   */\n      dup4\n        /* \"#utility.yul\":5723:5740   */\n      add\n        /* \"#utility.yul\":5716:5763   */\n      mstore\n        /* \"#utility.yul\":5780:5858   */\n      tag_149\n        /* \"#utility.yul\":5853:5857   */\n      dup2\n        /* \"#utility.yul\":5844:5850   */\n      dup5\n        /* \"#utility.yul\":5780:5858   */\n      tag_50\n      jump\t// in\n    tag_149:\n        /* \"#utility.yul\":5772:5858   */\n      swap1\n      pop\n        /* \"#utility.yul\":5552:5865   */\n      swap3\n      swap2\n      pop\n      pop\n      jump\t// out\n        /* \"#utility.yul\":5871:6051   */\n    tag_67:\n        /* \"#utility.yul\":5919:5996   */\n      0x4e487b7100000000000000000000000000000000000000000000000000000000\n        /* \"#utility.yul\":5916:5917   */\n      0x00\n        /* \"#utility.yul\":5909:5997   */\n      mstore\n        /* \"#utility.yul\":6016:6020   */\n      0x22\n        /* \"#utility.yul\":6013:6014   */\n      0x04\n        /* \"#utility.yul\":6006:6021   */\n      mstore\n        /* \"#utility.yul\":6040:6044   */\n      0x24\n        /* \"#utility.yul\":6037:6038   */\n      0x00\n        /* \"#utility.yul\":6030:6045   */\n      revert\n        /* \"#utility.yul\":6057:6377   */\n    tag_28:\n        /* \"#utility.yul\":6101:6107   */\n      0x00\n        /* \"#utility.yul\":6138:6139   */\n      0x02\n        /* \"#utility.yul\":6132:6136   */\n      dup3\n        /* \"#utility.yul\":6128:6140   */\n      div\n        /* \"#utility.yul\":6118:6140   */\n      swap1\n      pop\n        /* \"#utility.yul\":6185:6186   */\n      0x01\n        /* \"#utility.yul\":6179:6183   */\n      dup3\n        /* \"#utility.yul\":6175:6187   */\n      and\n        /* \"#utility.yul\":6206:6224   */\n      dup1\n        /* \"#utility.yul\":6196:6277   */\n      tag_152\n      jumpi\n        /* \"#utility.yul\":6262:6266   */\n      0x7f\n        /* \"#utility.yul\":6254:6260   */\n      dup3\n        /* \"#utility.yul\":6250:6267   */\n      and\n        /* \"#utility.yul\":6240:6267   */\n      swap2\n      pop\n        /* \"#utility.yul\":6196:6277   */\n    tag_152:\n        /* \"#utility.yul\":6324:6326   */\n      0x20\n        /* \"#utility.yul\":6316:6322   */\n      dup3\n        /* \"#utility.yul\":6313:6327   */\n      lt\n        /* \"#utility.yul\":6293:6311   */\n      dup2\n        /* \"#utility.yul\":6290:6328   */\n      sub\n        /* \"#utility.yul\":6287:6371   */\n      tag_153\n      jumpi\n        /* \"#utility.yul\":6343:6361   */\n      tag_154\n      tag_67\n      jump\t// in\n    tag_154:\n        /* \"#utility.yul\":6287:6371   */\n    tag_153:\n        /* \"#utility.yul\":6108:6377   */\n      pop\n        /* \"#utility.yul\":6057:6377   */\n      swap2\n      swap1\n      pop\n      jump\t// out\n        /* \"#utility.yul\":6383:6524   */\n    tag_68:\n        /* \"#utility.yul\":6432:6436   */\n      0x00\n        /* \"#utility.yul\":6455:6458   */\n      dup2\n        /* \"#utility.yul\":6447:6458   */\n      swap1\n      pop\n        /* \"#utility.yul\":6478:6481   */\n      dup2\n        /* \"#utility.yul\":6475:6476   */\n      0x00\n        /* \"#utility.yul\":6468:6482   */\n      mstore\n        /* \"#utility.yul\":6512:6516   */\n      0x20\n        /* \"#utility.yul\":6509:6510   */\n      0x00\n        /* \"#utility.yul\":6499:6517   */\n      keccak256\n        /* \"#utility.yul\":6491:6517   */\n      swap1\n      pop\n        /* \"#utility.yul\":6383:6524   */\n      swap2\n      swap1\n      pop\n      jump\t// out\n        /* \"#utility.yul\":6530:6623   */\n    tag_69:\n        /* \"#utility.yul\":6567:6573   */\n      0x00\n        /* \"#utility.yul\":6614:6616   */\n      0x20\n        /* \"#utility.yul\":6609:6611   */\n      0x1f\n        /* \"#utility.yul\":6602:6607   */\n      dup4\n        /* \"#utility.yul\":6598:6612   */\n      add\n        /* \"#utility.yul\":6594:6617   */\n      div\n        /* \"#utility.yul\":6584:6617   */\n      swap1\n      pop\n        /* \"#utility.yul\":6530:6623   */\n      swap2\n      swap1\n      pop\n      jump\t// out\n        /* \"#utility.yul\":6629:6736   */\n    tag_70:\n        /* \"#utility.yul\":6673:6681   */\n      0x00\n        /* \"#utility.yul\":6723:6728   */\n      dup3\n        /* \"#utility.yul\":6717:6721   */\n      dup3\n        /* \"#utility.yul\":6713:6729   */\n      shl\n        /* \"#utility.yul\":6692:6729   */\n      swap1\n      pop\n        /* \"#utility.yul\":6629:6736   */\n      swap3\n      swap2\n      pop\n      pop\n      jump\t// out\n        /* \"#utility.yul\":6742:7135   */\n    tag_71:\n        /* \"#utility.yul\":6811:6817   */\n      0x00\n        /* \"#utility.yul\":6861:6862   */\n      0x08\n        /* \"#utility.yul\":6849:6859   */\n      dup4\n        /* \"#utility.yul\":6845:6863   */\n      mul\n        /* \"#utility.yul\":6884:6981   */\n      tag_159\n        /* \"#utility.yul\":6914:6980   */\n      0xffffffffffffffffffffffffffffffffffffffffffffffffffffffffffffffff\n        /* \"#utility.yul\":6903:6912   */\n      dup3\n        /* \"#utility.yul\":6884:6981   */\n      tag_70\n      jump\t// in\n    tag_159:\n        /* \"#utility.yul\":7002:7041   */\n      tag_160\n        /* \"#utility.yul\":7032:7040   */\n      dup7\n        /* \"#utility.yul\":7021:7030   */\n      dup4\n        /* \"#utility.yul\":7002:7041   */\n      tag_70\n      jump\t// in\n    tag_160:\n        /* \"#utility.yul\":6990:7041   */\n      swap6\n      pop\n        /* \"#utility.yul\":7074:7078   */\n      dup1\n        /* \"#utility.yul\":7070:7079   */\n      not\n        /* \"#utility.yul\":7063:7068   */\n      dup5\n        /* \"#utility.yul\":7059:7080   */\n      and\n        /* \"#utility.yul\":7050:7080   */\n      swap4\n      pop\n        /* \"#utility.yul\":7123:7127   */\n      dup1\n        /* \"#utility.yul\":7113:7121   */\n      dup7\n        /* \"#utility.yul\":7109:7128   */\n      and\n        /* \"#utility.yul\":7102:7107   */\n      dup5\n        /* \"#utility.yul\":7099:7129   */\n      or\n        /* \"#utility.yul\":7089:7129   */\n      swap3\n      pop\n        /* \"#utility.yul\":6818:7135   */\n      pop\n      pop\n        /* \"#utility.yul\":6742:7135   */\n      swap4\n      swap3\n      pop\n      pop\n      pop\n      jump\t// out\n        /* \"#utility.yul\":7141:7201   */\n    tag_72:\n        /* \"#utility.yul\":7169:7172   */\n      0x00\n        /* \"#utility.yul\":7190:7195   */\n      dup2\n        /* \"#utility.yul\":7183:7195   */\n      swap1\n      pop\n        /* \"#utility.yul\":7141:7201   */\n      swap2\n      swap1\n      pop\n      jump\t// out\n        /* \"#utility.yul\":7207:7349   */\n    tag_73:\n        /* \"#utility.yul\":7257:7266   */\n      0x00\n        /* \"#utility.yul\":7290:7343   */\n      tag_163\n        /* \"#utility.yul\":7308:7342   */\n      tag_164\n        /* \"#utility.yul\":7317:7341   */\n      tag_165\n        /* \"#utility.yul\":7335:7340   */\n      dup5\n        /* \"#utility.yul\":7317:7341   */\n      tag_51\n      jump\t// in\n    tag_165:\n        /* \"#utility.yul\":7308:7342   */\n      tag_72\n      jump\t// in\n    tag_164:\n        /* \"#utility.yul\":7290:7343   */\n      tag_51\n      jump\t// in\n    tag_163:\n        /* \"#utility.yul\":7277:7343   */\n      swap1\n      pop\n        /* \"#utility.yul\":7207:7349   */\n      swap2\n      swap1\n      pop\n      jump\t// out\n        /* \"#utility.yul\":7355:7430   */\n    tag_74:\n        /* \"#utility.yul\":7398:7401   */\n      0x00\n        /* \"#utility.yul\":7419:7424   */\n      dup2\n        /* \"#utility.yul\":7412:7424   */\n      swap1\n      pop\n        /* \"#utility.yul\":7355:7430   */\n      swap2\n      swap1\n      pop\n      jump\t// out\n        /* \"#utility.yul\":7436:7705   */\n    tag_75:\n        /* \"#utility.yul\":7546:7585   */\n      tag_168\n        /* \"#utility.yul\":7577:7584   */\n      dup4\n        /* \"#utility.yul\":7546:7585   */\n      tag_73\n      jump\t// in\n    tag_168:\n        /* \"#utility.yul\":7607:7698   */\n      tag_169\n        /* \"#utility.yul\":7656:7697   */\n      tag_170\n        /* \"#utility.yul\":7680:7696   */\n      dup3\n        /* \"#utility.yul\":7656:7697   */\n      tag_74\n      jump\t// in\n    tag_170:\n        /* \"#utility.yul\":7648:7654   */\n      dup5\n        /* \"#utility.yul\":7641:7645   */\n      dup5\n        /* \"#utility.yul\":7635:7646   */\n      sload\n        /* \"#utility.yul\":7607:7698   */\n      tag_71\n      jump\t// in\n    tag_169:\n        /* \"#utility.yul\":7601:7605   */\n      dup3\n        /* \"#utility.yul\":7594:7699   */\n      sstore\n        /* \"#utility.yul\":7512:7705   */\n      pop\n        /* \"#utility.yul\":7436:7705   */\n      pop\n      pop\n      pop\n      jump\t// out\n        /* \"#utility.yul\":7711:7784   */\n    tag_76:\n        /* \"#utility.yul\":7756:7759   */\n      0x00\n        /* \"#utility.yul\":7711:7784   */\n      swap1\n      jump\t// out\n        /* \"#utility.yul\":7790:7979   */\n    tag_77:\n        /* \"#utility.yul\":7867:7899   */\n      tag_173\n      tag_76\n      jump\t// in\n    tag_173:\n        /* \"#utility.yul\":7908:7973   */\n      tag_174\n        /* \"#utility.yul\":7966:7972   */\n      dup2\n        /* \"#utility.yul\":7958:7964   */\n      dup5\n        /* \"#utility.yul\":7952:7956   */\n      dup5\n        /* \"#utility.yul\":7908:7973   */\n      tag_75\n      jump\t// in\n    tag_174:\n        /* \"#utility.yul\":7843:7979   */\n      pop\n        /* \"#utility.yul\":7790:7979   */\n      pop\n      pop\n      jump\t// out\n        /* \"#utility.yul\":7985:8171   */\n    tag_78:\n        /* \"#utility.yul\":8045:8165   */\n    tag_176:\n        /* \"#utility.yul\":8062:8065   */\n      dup2\n        /* \"#utility.yul\":8055:8060   */\n      dup2\n        /* \"#utility.yul\":8052:8066   */\n      lt\n        /* \"#utility.yul\":8045:8165   */\n      iszero\n      tag_178\n      jumpi\n        /* \"#utility.yul\":8116:8155   */\n      tag_179\n        /* \"#utility.yul\":8153:8154   */\n      0x00\n        /* \"#utility.yul\":8146:8151   */\n      dup3\n        /* \"#utility.yul\":8116:8155   */\n      tag_77\n      jump\t// in\n    tag_179:\n        /* \"#utility.yul\":8089:8090   */\n      0x01\n        /* \"#utility.yul\":8082:8087   */\n      dup2\n        /* \"#utility.yul\":8078:8091   */\n      add\n        /* \"#utility.yul\":8069:8091   */\n      swap1\n      pop\n        /* \"#utility.yul\":8045:8165   */\n      jump(tag_176)\n    tag_178:\n        /* \"#utility.yul\":7985:8171   */\n      pop\n      pop\n      jump\t// out\n        /* \"#utility.yul\":8177:8720   */\n    tag_79:\n        /* \"#utility.yul\":8278:8280   */\n      0x1f\n        /* \"#utility.yul\":8273:8276   */\n      dup3\n        /* \"#utility.yul\":8270:8281   */\n      gt\n        /* \"#utility.yul\":8267:8713   */\n      iszero\n      tag_181\n      jumpi\n        /* \"#utility.yul\":8312:8350   */\n      tag_182\n        /* \"#utility.yul\":8344:8349   */\n      dup2\n        /* \"#utility.yul\":8312:8350   */\n      tag_68\n      jump\t// in\n    tag_182:\n        /* \"#utility.yul\":8396:8425   */\n      tag_183\n        /* \"#utility.yul\":8414:8424   */\n      dup5\n        /* \"#utility.yul\":8396:8425   */\n      tag_69\n      jump\t// in\n    tag_183:\n        /* \"#utility.yul\":8386:8394   */\n      dup2\n        /* \"#utility.yul\":8382:8426   */\n      add\n        /* \"#utility.yul\":8579:8581   */\n      0x20\n        /* \"#utility.yul\":8567:8577   */\n      dup6\n        /* \"#utility.yul\":8564:8582   */\n      lt\n        /* \"#utility.yul\":8561:8610   */\n      iszero\n      tag_184\n      jumpi\n        /* \"#utility.yul\":8600:8608   */\n      dup2\n        /* \"#utility.yul\":8585:8608   */\n      swap1\n      pop\n        /* \"#utility.yul\":8561:8610   */\n    tag_184:\n        /* \"#utility.yul\":8623:8703   */\n      tag_185\n        /* \"#utility.yul\":8679:8701   */\n      tag_186\n        /* \"#utility.yul\":8697:8700   */\n      dup6\n        /* \"#utility.yul\":8679:8701   */\n      tag_69\n      jump\t// in\n    tag_186:\n        /* \"#utility.yul\":8669:8677   */\n      dup4\n        /* \"#utility.yul\":8665:8702   */\n      add\n        /* \"#utility.yul\":8652:8663   */\n      dup3\n        /* \"#utility.yul\":8623:8703   */\n      tag_78\n      jump\t// in\n    tag_185:\n        /* \"#utility.yul\":8282:8713   */\n      pop\n      pop\n        /* \"#utility.yul\":8267:8713   */\n    tag_181:\n        /* \"#utility.yul\":8177:8720   */\n      pop\n      pop\n      pop\n      jump\t// out\n        /* \"#utility.yul\":8726:8843   */\n    tag_80:\n        /* \"#utility.yul\":8780:8788   */\n      0x00\n        /* \"#utility.yul\":8830:8835   */\n      dup3\n        /* \"#utility.yul\":8824:8828   */\n      dup3\n        /* \"#utility.yul\":8820:8836   */\n      shr\n        /* \"#utility.yul\":8799:8836   */\n      swap1\n      pop\n        /* \"#utility.yul\":8726:8843   */\n      swap3\n      swap2\n      pop\n      pop\n      jump\t// out\n        /* \"#utility.yul\":8849:9018   */\n    tag_81:\n        /* \"#utility.yul\":8893:8899   */\n      0x00\n        /* \"#utility.yul\":8926:8977   */\n      tag_189\n        /* \"#utility.yul\":8974:8975   */\n      0x00\n        /* \"#utility.yul\":8970:8976   */\n      not\n        /* \"#utility.yul\":8962:8967   */\n      dup5\n        /* \"#utility.yul\":8959:8960   */\n      0x08\n        /* \"#utility.yul\":8955:8968   */\n      mul\n        /* \"#utility.yul\":8926:8977   */\n      tag_80\n      jump\t// in\n    tag_189:\n        /* \"#utility.yul\":8922:8978   */\n      not\n        /* \"#utility.yul\":9007:9011   */\n      dup1\n        /* \"#utility.yul\":9001:9005   */\n      dup4\n        /* \"#utility.yul\":8997:9012   */\n      and\n        /* \"#utility.yul\":8987:9012   */\n      swap2\n      pop\n        /* \"#utility.yul\":8900:9018   */\n      pop\n        /* \"#utility.yul\":8849:9018   */\n      swap3\n      swap2\n      pop\n      pop\n      jump\t// out\n        /* \"#utility.yul\":9023:9318   */\n    tag_82:\n        /* \"#utility.yul\":9099:9103   */\n      0x00\n        /* \"#utility.yul\":9245:9274   */\n      tag_191\n        /* \"#utility.yul\":9270:9273   */\n      dup4\n        /* \"#utility.yul\":9264:9268   */\n      dup4\n        /* \"#utility.yul\":9245:9274   */\n      tag_81\n      jump\t// in\n    tag_191:\n        /* \"#utility.yul\":9237:9274   */\n      swap2\n      pop\n        /* \"#utility.yul\":9307:9310   */\n      dup3\n        /* \"#utility.yul\":9304:9305   */\n      0x02\n        /* \"#utility.yul\":9300:9311   */\n      mul\n        /* \"#utility.yul\":9294:9298   */\n      dup3\n        /* \"#utility.yul\":9291:9312   */\n      or\n        /* \"#utility.yul\":9283:9312   */\n      swap1\n      pop\n        /* \"#utility.yul\":9023:9318   */\n      swap3\n      swap2\n      pop\n      pop\n      jump\t// out\n        /* \"#utility.yul\":9323:10718   */\n    tag_35:\n        /* \"#utility.yul\":9440:9477   */\n      tag_193\n        /* \"#utility.yul\":9473:9476   */\n      dup3\n        /* \"#utility.yul\":9440:9477   */\n      tag_46\n      jump\t// in\n    tag_193:\n        /* \"#utility.yul\":9542:9560   */\n      0xffffffffffffffff\n        /* \"#utility.yul\":9534:9540   */\n      dup2\n        /* \"#utility.yul\":9531:9561   */\n      gt\n        /* \"#utility.yul\":9528:9584   */\n      iszero\n      tag_194\n      jumpi\n        /* \"#utility.yul\":9564:9582   */\n      tag_195\n      tag_58\n      jump\t// in\n    tag_195:\n        /* \"#utility.yul\":9528:9584   */\n    tag_194:\n        /* \"#utility.yul\":9608:9646   */\n      tag_196\n        /* \"#utility.yul\":9640:9644   */\n      dup3\n        /* \"#utility.yul\":9634:9645   */\n      sload\n        /* \"#utility.yul\":9608:9646   */\n      tag_28\n      jump\t// in\n    tag_196:\n        /* \"#utility.yul\":9693:9760   */\n      tag_197\n        /* \"#utility.yul\":9753:9759   */\n      dup3\n        /* \"#utility.yul\":9745:9751   */\n      dup3\n        /* \"#utility.yul\":9739:9743   */\n      dup6\n        /* \"#utility.yul\":9693:9760   */\n      tag_79\n      jump\t// in\n    tag_197:\n        /* \"#utility.yul\":9787:9788   */\n      0x00\n        /* \"#utility.yul\":9811:9815   */\n      0x20\n        /* \"#utility.yul\":9798:9815   */\n      swap1\n      pop\n        /* \"#utility.yul\":9843:9845   */\n      0x1f\n        /* \"#utility.yul\":9835:9841   */\n      dup4\n        /* \"#utility.yul\":9832:9846   */\n      gt\n        /* \"#utility.yul\":9860:9861   */\n      0x01\n        /* \"#utility.yul\":9855:10473   */\n      dup2\n      eq\n      tag_199\n      jumpi\n        /* \"#utility.yul\":10517:10518   */\n      0x00\n        /* \"#utility.yul\":10534:10540   */\n      dup5\n        /* \"#utility.yul\":10531:10608   */\n      iszero\n      tag_200\n      jumpi\n        /* \"#utility.yul\":10583:10592   */\n      dup3\n        /* \"#utility.yul\":10578:10581   */\n      dup8\n        /* \"#utility.yul\":10574:10593   */\n      add\n        /* \"#utility.yul\":10568:10594   */\n      mload\n        /* \"#utility.yul\":10559:10594   */\n      swap1\n      pop\n        /* \"#utility.yul\":10531:10608   */\n    tag_200:\n        /* \"#utility.yul\":10634:10701   */\n      tag_201\n        /* \"#utility.yul\":10694:10700   */\n      dup6\n        /* \"#utility.yul\":10687:10692   */\n      dup3\n        /* \"#utility.yul\":10634:10701   */\n      tag_82\n      jump\t// in\n    tag_201:\n        /* \"#utility.yul\":10628:10632   */\n      dup7\n        /* \"#utility.yul\":10621:10702   */\n      sstore\n        /* \"#utility.yul\":10490:10712   */\n      pop\n        /* \"#utility.yul\":9825:10712   */\n      jump(tag_198)\n        /* \"#utility.yul\":9855:10473   */\n    tag_199:\n        /* \"#utility.yul\":9907:9911   */\n      0x1f\n        /* \"#utility.yul\":9903:9912   */\n      not\n        /* \"#utility.yul\":9895:9901   */\n      dup5\n        /* \"#utility.yul\":9891:9913   */\n      and\n        /* \"#utility.yul\":9941:9978   */\n      tag_202\n        /* \"#utility.yul\":9973:9977   */\n      dup7\n        /* \"#utility.yul\":9941:9978   */\n      tag_68\n      jump\t// in\n    tag_202:\n        /* \"#utility.yul\":10000:10001   */\n      0x00\n        /* \"#utility.yul\":10014:10222   */\n    tag_203:\n        /* \"#utility.yul\":10028:10035   */\n      dup3\n        /* \"#utility.yul\":10025:10026   */\n      dup2\n        /* \"#utility.yul\":10022:10036   */\n      lt\n        /* \"#utility.yul\":10014:10222   */\n      iszero\n      tag_205\n      jumpi\n        /* \"#utility.yul\":10107:10116   */\n      dup5\n        /* \"#utility.yul\":10102:10105   */\n      dup10\n        /* \"#utility.yul\":10098:10117   */\n      add\n        /* \"#utility.yul\":10092:10118   */\n      mload\n        /* \"#utility.yul\":10084:10090   */\n      dup3\n        /* \"#utility.yul\":10077:10119   */\n      sstore\n        /* \"#utility.yul\":10158:10159   */\n      0x01\n        /* \"#utility.yul\":10150:10156   */\n      dup3\n        /* \"#utility.yul\":10146:10160   */\n      add\n        /* \"#utility.yul\":10136:10160   */\n      swap2\n      pop\n        /* \"#utility.yul\":10205:10207   */\n      0x20\n        /* \"#utility.yul\":10194:10203   */\n      dup6\n        /* \"#utility.yul\":10190:10208   */\n      add\n        /* \"#utility.yul\":10177:10208   */\n      swap5\n      pop\n        /* \"#utility.yul\":10051:10055   */\n      0x20\n        /* \"#utility.yul\":10048:10049   */\n      dup2\n        /* \"#utility.yul\":10044:10056   */\n      add\n        /* \"#utility.yul\":10039:10056   */\n      swap1\n      pop\n        /* \"#utility.yul\":10014:10222   */\n      jump(tag_203)\n    tag_205:\n        /* \"#utility.yul\":10250:10256   */\n      dup7\n        /* \"#utility.yul\":10241:10248   */\n      dup4\n        /* \"#utility.yul\":10238:10257   */\n      lt\n        /* \"#utility.yul\":10235:10414   */\n      iszero\n      tag_206\n      jumpi\n        /* \"#utility.yul\":10308:10317   */\n      dup5\n        /* \"#utility.yul\":10303:10306   */\n      dup10\n        /* \"#utility.yul\":10299:10318   */\n      add\n        /* \"#utility.yul\":10293:10319   */\n      mload\n        /* \"#utility.yul\":10351:10399   */\n      tag_207\n        /* \"#utility.yul\":10393:10397   */\n      0x1f\n        /* \"#utility.yul\":10385:10391   */\n      dup10\n        /* \"#utility.yul\":10381:10398   */\n      and\n        /* \"#utility.yul\":10370:10379   */\n      dup3\n        /* \"#utility.yul\":10351:10399   */\n      tag_81\n      jump\t// in\n    tag_207:\n        /* \"#utility.yul\":10343:10349   */\n      dup4\n        /* \"#utility.yul\":10336:10400   */\n      sstore\n        /* \"#utility.yul\":10258:10414   */\n      pop\n        /* \"#utility.yul\":10235:10414   */\n    tag_206:\n        /* \"#utility.yul\":10460:10461   */\n      0x01\n        /* \"#utility.yul\":10456:10457   */\n      0x02\n        /* \"#utility.yul\":10448:10454   */\n      dup9\n        /* \"#utility.yul\":10444:10458   */\n      mul\n        /* \"#utility.yul\":10440:10462   */\n      add\n        /* \"#utility.yul\":10434:10438   */\n      dup9\n        /* \"#utility.yul\":10427:10463   */\n      sstore\n        /* \"#utility.yul\":9862:10473   */\n      pop\n      pop\n      pop\n        /* \"#utility.yul\":9825:10712   */\n    tag_198:\n      pop\n        /* \"#utility.yul\":9415:10718   */\n      pop\n      pop\n      pop\n        /* \"#utility.yul\":9323:10718   */\n      pop\n      pop\n      jump\t// out\n\n    auxdata: 0xa2646970667358221220261a52d9defa3587b53eaa44dde1ec475f61d1e61d29a2dc1f08c26343328f6964736f6c63430008160033\n}\n",
				"bytecode": {
					"linkReferences": {},
					"object": "608060405234801561000f575f80fd5b506108698061001d5f395ff3fe608060405234801561000f575f80fd5b5060043610610055575f3560e01c80632b06cb2d1461005957806360de391614610078578063b958abd514610094578063d37aff74146100b0578063d46300fd146100ba575b5f80fd5b6100616100d8565b60405161006f929190610314565b60405180910390f35b610092600480360381019061008d91906104a9565b610171565b005b6100ae60048036038101906100a99190610503565b61018b565b005b6100b861019d565b005b6100c26101e3565b6040516100cf919061054a565b60405180910390f35b60605f806001548180546100eb90610597565b80601f016020809104026020016040519081016040528092919081815260200182805461011790610597565b80156101625780601f1061013957610100808354040283529160200191610162565b820191905f5260205f20905b81548152906001019060200180831161014557829003601f168201915b50505050509150915091509091565b815f908161017f9190610764565b50806001819055505050565b805f90816101999190610764565b5050565b6040518060400160405280600381526020017f61626300000000000000000000000000000000000000000000000000000000008152505f90816101e09190610764565b50565b60605f80546101f190610597565b80601f016020809104026020016040519081016040528092919081815260200182805461021d90610597565b80156102685780601f1061023f57610100808354040283529160200191610268565b820191905f5260205f20905b81548152906001019060200180831161024b57829003601f168201915b5050505050905090565b5f81519050919050565b5f82825260208201905092915050565b5f5b838110156102a957808201518184015260208101905061028e565b5f8484015250505050565b5f601f19601f8301169050919050565b5f6102ce82610272565b6102d8818561027c565b93506102e881856020860161028c565b6102f1816102b4565b840191505092915050565b5f819050919050565b61030e816102fc565b82525050565b5f6040820190508181035f83015261032c81856102c4565b905061033b6020830184610305565b9392505050565b5f604051905090565b5f80fd5b5f80fd5b5f80fd5b5f80fd5b7f4e487b71000000000000000000000000000000000000000000000000000000005f52604160045260245ffd5b610391826102b4565b810181811067ffffffffffffffff821117156103b0576103af61035b565b5b80604052505050565b5f6103c2610342565b90506103ce8282610388565b919050565b5f67ffffffffffffffff8211156103ed576103ec61035b565b5b6103f6826102b4565b9050602081019050919050565b828183375f83830152505050565b5f61042361041e846103d3565b6103b9565b90508281526020810184848401111561043f5761043e610357565b5b61044a848285610403565b509392505050565b5f82601f83011261046657610465610353565b5b8135610476848260208601610411565b91505092915050565b610488816102fc565b8114610492575f80fd5b50565b5f813590506104a38161047f565b92915050565b5f80604083850312156104bf576104be61034b565b5b5f83013567ffffffffffffffff8111156104dc576104db61034f565b5b6104e885828601610452565b92505060206104f985828601610495565b9150509250929050565b5f602082840312156105185761051761034b565b5b5f82013567ffffffffffffffff8111156105355761053461034f565b5b61054184828501610452565b91505092915050565b5f6020820190508181035f83015261056281846102c4565b905092915050565b7f4e487b71000000000000000000000000000000000000000000000000000000005f52602260045260245ffd5b5f60028204905060018216806105ae57607f821691505b6020821081036105c1576105c061056a565b5b50919050565b5f819050815f5260205f209050919050565b5f6020601f8301049050919050565b5f82821b905092915050565b5f600883026106237fffffffffffffffffffffffffffffffffffffffffffffffffffffffffffffffff826105e8565b61062d86836105e8565b95508019841693508086168417925050509392505050565b5f819050919050565b5f61066861066361065e846102fc565b610645565b6102fc565b9050919050565b5f819050919050565b6106818361064e565b61069561068d8261066f565b8484546105f4565b825550505050565b5f90565b6106a961069d565b6106b4818484610678565b505050565b5b818110156106d7576106cc5f826106a1565b6001810190506106ba565b5050565b601f82111561071c576106ed816105c7565b6106f6846105d9565b81016020851015610705578190505b610719610711856105d9565b8301826106b9565b50505b505050565b5f82821c905092915050565b5f61073c5f1984600802610721565b1980831691505092915050565b5f610754838361072d565b9150826002028217905092915050565b61076d82610272565b67ffffffffffffffff8111156107865761078561035b565b5b6107908254610597565b61079b8282856106db565b5f60209050601f8311600181146107cc575f84156107ba578287015190505b6107c48582610749565b86555061082b565b601f1984166107da866105c7565b5f5b82811015610801578489015182556001820191506020850194506020810190506107dc565b8683101561081e578489015161081a601f89168261072d565b8355505b6001600288020188555050505b50505050505056fea2646970667358221220261a52d9defa3587b53eaa44dde1ec475f61d1e61d29a2dc1f08c26343328f6964736f6c63430008160033",
					"opcodes": "PUSH1 0x80 PUSH1 0x40 MSTORE CALLVALUE DUP1 ISZERO PUSH2 0xF JUMPI PUSH0 DUP1 REVERT JUMPDEST POP PUSH2 0x869 DUP1 PUSH2 0x1D PUSH0 CODECOPY PUSH0 RETURN INVALID PUSH1 0x80 PUSH1 0x40 MSTORE CALLVALUE DUP1 ISZERO PUSH2 0xF JUMPI PUSH0 DUP1 REVERT JUMPDEST POP PUSH1 0x4 CALLDATASIZE LT PUSH2 0x55 JUMPI PUSH0 CALLDATALOAD PUSH1 0xE0 SHR DUP1 PUSH4 0x2B06CB2D EQ PUSH2 0x59 JUMPI DUP1 PUSH4 0x60DE3916 EQ PUSH2 0x78 JUMPI DUP1 PUSH4 0xB958ABD5 EQ PUSH2 0x94 JUMPI DUP1 PUSH4 0xD37AFF74 EQ PUSH2 0xB0 JUMPI DUP1 PUSH4 0xD46300FD EQ PUSH2 0xBA JUMPI JUMPDEST PUSH0 DUP1 REVERT JUMPDEST PUSH2 0x61 PUSH2 0xD8 JUMP JUMPDEST PUSH1 0x40 MLOAD PUSH2 0x6F SWAP3 SWAP2 SWAP1 PUSH2 0x314 JUMP JUMPDEST PUSH1 0x40 MLOAD DUP1 SWAP2 SUB SWAP1 RETURN JUMPDEST PUSH2 0x92 PUSH1 0x4 DUP1 CALLDATASIZE SUB DUP2 ADD SWAP1 PUSH2 0x8D SWAP2 SWAP1 PUSH2 0x4A9 JUMP JUMPDEST PUSH2 0x171 JUMP JUMPDEST STOP JUMPDEST PUSH2 0xAE PUSH1 0x4 DUP1 CALLDATASIZE SUB DUP2 ADD SWAP1 PUSH2 0xA9 SWAP2 SWAP1 PUSH2 0x503 JUMP JUMPDEST PUSH2 0x18B JUMP JUMPDEST STOP JUMPDEST PUSH2 0xB8 PUSH2 0x19D JUMP JUMPDEST STOP JUMPDEST PUSH2 0xC2 PUSH2 0x1E3 JUMP JUMPDEST PUSH1 0x40 MLOAD PUSH2 0xCF SWAP2 SWAP1 PUSH2 0x54A JUMP JUMPDEST PUSH1 0x40 MLOAD DUP1 SWAP2 SUB SWAP1 RETURN JUMPDEST PUSH1 0x60 PUSH0 DUP1 PUSH1 0x1 SLOAD DUP2 DUP1 SLOAD PUSH2 0xEB SWAP1 PUSH2 0x597 JUMP JUMPDEST DUP1 PUSH1 0x1F ADD PUSH1 0x20 DUP1 SWAP2 DIV MUL PUSH1 0x20 ADD PUSH1 0x40 MLOAD SWAP1 DUP2 ADD PUSH1 0x40 MSTORE DUP1 SWAP3 SWAP2 SWAP1 DUP2 DUP2 MSTORE PUSH1 0x20 ADD DUP3 DUP1 SLOAD PUSH2 0x117 SWAP1 PUSH2 0x597 JUMP JUMPDEST DUP1 ISZERO PUSH2 0x162 JUMPI DUP1 PUSH1 0x1F LT PUSH2 0x139 JUMPI PUSH2 0x100 DUP1 DUP4 SLOAD DIV MUL DUP4 MSTORE SWAP2 PUSH1 0x20 ADD SWAP2 PUSH2 0x162 JUMP JUMPDEST DUP3 ADD SWAP2 SWAP1 PUSH0 MSTORE PUSH1 0x20 PUSH0 KECCAK256 SWAP1 JUMPDEST DUP2 SLOAD DUP2 MSTORE SWAP1 PUSH1 0x1 ADD SWAP1 PUSH1 0x20 ADD DUP1 DUP4 GT PUSH2 0x145 JUMPI DUP3 SWAP1 SUB PUSH1 0x1F AND DUP3 ADD SWAP2 JUMPDEST POP POP POP POP POP SWAP2 POP SWAP2 POP SWAP2 POP SWAP1 SWAP2 JUMP JUMPDEST DUP2 PUSH0 SWAP1 DUP2 PUSH2 0x17F SWAP2 SWAP1 PUSH2 0x764 JUMP JUMPDEST POP DUP1 PUSH1 0x1 DUP2 SWAP1 SSTORE POP POP POP JUMP JUMPDEST DUP1 PUSH0 SWAP1 DUP2 PUSH2 0x199 SWAP2 SWAP1 PUSH2 0x764 JUMP JUMPDEST POP POP JUMP JUMPDEST PUSH1 0x40 MLOAD DUP1 PUSH1 0x40 ADD PUSH1 0x40 MSTORE DUP1 PUSH1 0x3 DUP2 MSTORE PUSH1 0x20 ADD PUSH32 0x6162630000000000000000000000000000000000000000000000000000000000 DUP2 MSTORE POP PUSH0 SWAP1 DUP2 PUSH2 0x1E0 SWAP2 SWAP1 PUSH2 0x764 JUMP JUMPDEST POP JUMP JUMPDEST PUSH1 0x60 PUSH0 DUP1 SLOAD PUSH2 0x1F1 SWAP1 PUSH2 0x597 JUMP JUMPDEST DUP1 PUSH1 0x1F ADD PUSH1 0x20 DUP1 SWAP2 DIV MUL PUSH1 0x20 ADD PUSH1 0x40 MLOAD SWAP1 DUP2 ADD PUSH1 0x40 MSTORE DUP1 SWAP3 SWAP2 SWAP1 DUP2 DUP2 MSTORE PUSH1 0x20 ADD DUP3 DUP1 SLOAD PUSH2 0x21D SWAP1 PUSH2 0x597 JUMP JUMPDEST DUP1 ISZERO PUSH2 0x268 JUMPI DUP1 PUSH1 0x1F LT PUSH2 0x23F JUMPI PUSH2 0x100 DUP1 DUP4 SLOAD DIV MUL DUP4 MSTORE SWAP2 PUSH1 0x20 ADD SWAP2 PUSH2 0x268 JUMP JUMPDEST DUP3 ADD SWAP2 SWAP1 PUSH0 MSTORE PUSH1 0x20 PUSH0 KECCAK256 SWAP1 JUMPDEST DUP2 SLOAD DUP2 MSTORE SWAP1 PUSH1 0x1 ADD SWAP1 PUSH1 0x20 ADD DUP1 DUP4 GT PUSH2 0x24B JUMPI DUP3 SWAP1 SUB PUSH1 0x1F AND DUP3 ADD SWAP2 JUMPDEST POP POP POP POP POP SWAP1 POP SWAP1 JUMP JUMPDEST PUSH0 DUP2 MLOAD SWAP1 POP SWAP2 SWAP1 POP JUMP JUMPDEST PUSH0 DUP3 DUP3 MSTORE PUSH1 0x20 DUP3 ADD SWAP1 POP SWAP3 SWAP2 POP POP JUMP JUMPDEST PUSH0 JUMPDEST DUP4 DUP2 LT ISZERO PUSH2 0x2A9 JUMPI DUP1 DUP3 ADD MLOAD DUP2 DUP5 ADD MSTORE PUSH1 0x20 DUP2 ADD SWAP1 POP PUSH2 0x28E JUMP JUMPDEST PUSH0 DUP5 DUP5 ADD MSTORE POP POP POP POP JUMP JUMPDEST PUSH0 PUSH1 0x1F NOT PUSH1 0x1F DUP4 ADD AND SWAP1 POP SWAP2 SWAP1 POP JUMP JUMPDEST PUSH0 PUSH2 0x2CE DUP3 PUSH2 0x272 JUMP JUMPDEST PUSH2 0x2D8 DUP2 DUP6 PUSH2 0x27C JUMP JUMPDEST SWAP4 POP PUSH2 0x2E8 DUP2 DUP6 PUSH1 0x20 DUP7 ADD PUSH2 0x28C JUMP JUMPDEST PUSH2 0x2F1 DUP2 PUSH2 0x2B4 JUMP JUMPDEST DUP5 ADD SWAP2 POP POP SWAP3 SWAP2 POP POP JUMP JUMPDEST PUSH0 DUP2 SWAP1 POP SWAP2 SWAP1 POP JUMP JUMPDEST PUSH2 0x30E DUP2 PUSH2 0x2FC JUMP JUMPDEST DUP3 MSTORE POP POP JUMP JUMPDEST PUSH0 PUSH1 0x40 DUP3 ADD SWAP1 POP DUP2 DUP2 SUB PUSH0 DUP4 ADD MSTORE PUSH2 0x32C DUP2 DUP6 PUSH2 0x2C4 JUMP JUMPDEST SWAP1 POP PUSH2 0x33B PUSH1 0x20 DUP4 ADD DUP5 PUSH2 0x305 JUMP JUMPDEST SWAP4 SWAP3 POP POP POP JUMP JUMPDEST PUSH0 PUSH1 0x40 MLOAD SWAP1 POP SWAP1 JUMP JUMPDEST PUSH0 DUP1 REVERT JUMPDEST PUSH0 DUP1 REVERT JUMPDEST PUSH0 DUP1 REVERT JUMPDEST PUSH0 DUP1 REVERT JUMPDEST PUSH32 0x4E487B7100000000000000000000000000000000000000000000000000000000 PUSH0 MSTORE PUSH1 0x41 PUSH1 0x4 MSTORE PUSH1 0x24 PUSH0 REVERT JUMPDEST PUSH2 0x391 DUP3 PUSH2 0x2B4 JUMP JUMPDEST DUP2 ADD DUP2 DUP2 LT PUSH8 0xFFFFFFFFFFFFFFFF DUP3 GT OR ISZERO PUSH2 0x3B0 JUMPI PUSH2 0x3AF PUSH2 0x35B JUMP JUMPDEST JUMPDEST DUP1 PUSH1 0x40 MSTORE POP POP POP JUMP JUMPDEST PUSH0 PUSH2 0x3C2 PUSH2 0x342 JUMP JUMPDEST SWAP1 POP PUSH2 0x3CE DUP3 DUP3 PUSH2 0x388 JUMP JUMPDEST SWAP2 SWAP1 POP JUMP JUMPDEST PUSH0 PUSH8 0xFFFFFFFFFFFFFFFF DUP3 GT ISZERO PUSH2 0x3ED JUMPI PUSH2 0x3EC PUSH2 0x35B JUMP JUMPDEST JUMPDEST PUSH2 0x3F6 DUP3 PUSH2 0x2B4 JUMP JUMPDEST SWAP1 POP PUSH1 0x20 DUP2 ADD SWAP1 POP SWAP2 SWAP1 POP JUMP JUMPDEST DUP3 DUP2 DUP4 CALLDATACOPY PUSH0 DUP4 DUP4 ADD MSTORE POP POP POP JUMP JUMPDEST PUSH0 PUSH2 0x423 PUSH2 0x41E DUP5 PUSH2 0x3D3 JUMP JUMPDEST PUSH2 0x3B9 JUMP JUMPDEST SWAP1 POP DUP3 DUP2 MSTORE PUSH1 0x20 DUP2 ADD DUP5 DUP5 DUP5 ADD GT ISZERO PUSH2 0x43F JUMPI PUSH2 0x43E PUSH2 0x357 JUMP JUMPDEST JUMPDEST PUSH2 0x44A DUP5 DUP3 DUP6 PUSH2 0x403 JUMP JUMPDEST POP SWAP4 SWAP3 POP POP POP JUMP JUMPDEST PUSH0 DUP3 PUSH1 0x1F DUP4 ADD SLT PUSH2 0x466 JUMPI PUSH2 0x465 PUSH2 0x353 JUMP JUMPDEST JUMPDEST DUP2 CALLDATALOAD PUSH2 0x476 DUP5 DUP3 PUSH1 0x20 DUP7 ADD PUSH2 0x411 JUMP JUMPDEST SWAP2 POP POP SWAP3 SWAP2 POP POP JUMP JUMPDEST PUSH2 0x488 DUP2 PUSH2 0x2FC JUMP JUMPDEST DUP2 EQ PUSH2 0x492 JUMPI PUSH0 DUP1 REVERT JUMPDEST POP JUMP JUMPDEST PUSH0 DUP2 CALLDATALOAD SWAP1 POP PUSH2 0x4A3 DUP2 PUSH2 0x47F JUMP JUMPDEST SWAP3 SWAP2 POP POP JUMP JUMPDEST PUSH0 DUP1 PUSH1 0x40 DUP4 DUP6 SUB SLT ISZERO PUSH2 0x4BF JUMPI PUSH2 0x4BE PUSH2 0x34B JUMP JUMPDEST JUMPDEST PUSH0 DUP4 ADD CALLDATALOAD PUSH8 0xFFFFFFFFFFFFFFFF DUP2 GT ISZERO PUSH2 0x4DC JUMPI PUSH2 0x4DB PUSH2 0x34F JUMP JUMPDEST JUMPDEST PUSH2 0x4E8 DUP6 DUP3 DUP7 ADD PUSH2 0x452 JUMP JUMPDEST SWAP3 POP POP PUSH1 0x20 PUSH2 0x4F9 DUP6 DUP3 DUP7 ADD PUSH2 0x495 JUMP JUMPDEST SWAP2 POP POP SWAP3 POP SWAP3 SWAP1 POP JUMP JUMPDEST PUSH0 PUSH1 0x20 DUP3 DUP5 SUB SLT ISZERO PUSH2 0x518 JUMPI PUSH2 0x517 PUSH2 0x34B JUMP JUMPDEST JUMPDEST PUSH0 DUP3 ADD CALLDATALOAD PUSH8 0xFFFFFFFFFFFFFFFF DUP2 GT ISZERO PUSH2 0x535 JUMPI PUSH2 0x534 PUSH2 0x34F JUMP JUMPDEST JUMPDEST PUSH2 0x541 DUP5 DUP3 DUP6 ADD PUSH2 0x452 JUMP JUMPDEST SWAP2 POP POP SWAP3 SWAP2 POP POP JUMP JUMPDEST PUSH0 PUSH1 0x20 DUP3 ADD SWAP1 POP DUP2 DUP2 SUB PUSH0 DUP4 ADD MSTORE PUSH2 0x562 DUP2 DUP5 PUSH2 0x2C4 JUMP JUMPDEST SWAP1 POP SWAP3 SWAP2 POP POP JUMP JUMPDEST PUSH32 0x4E487B7100000000000000000000000000000000000000000000000000000000 PUSH0 MSTORE PUSH1 0x22 PUSH1 0x4 MSTORE PUSH1 0x24 PUSH0 REVERT JUMPDEST PUSH0 PUSH1 0x2 DUP3 DIV SWAP1 POP PUSH1 0x1 DUP3 AND DUP1 PUSH2 0x5AE JUMPI PUSH1 0x7F DUP3 AND SWAP2 POP JUMPDEST PUSH1 0x20 DUP3 LT DUP2 SUB PUSH2 0x5C1 JUMPI PUSH2 0x5C0 PUSH2 0x56A JUMP JUMPDEST JUMPDEST POP SWAP2 SWAP1 POP JUMP JUMPDEST PUSH0 DUP2 SWAP1 POP DUP2 PUSH0 MSTORE PUSH1 0x20 PUSH0 KECCAK256 SWAP1 POP SWAP2 SWAP1 POP JUMP JUMPDEST PUSH0 PUSH1 0x20 PUSH1 0x1F DUP4 ADD DIV SWAP1 POP SWAP2 SWAP1 POP JUMP JUMPDEST PUSH0 DUP3 DUP3 SHL SWAP1 POP SWAP3 SWAP2 POP POP JUMP JUMPDEST PUSH0 PUSH1 0x8 DUP4 MUL PUSH2 0x623 PUSH32 0xFFFFFFFFFFFFFFFFFFFFFFFFFFFFFFFFFFFFFFFFFFFFFFFFFFFFFFFFFFFFFFFF DUP3 PUSH2 0x5E8 JUMP JUMPDEST PUSH2 0x62D DUP7 DUP4 PUSH2 0x5E8 JUMP JUMPDEST SWAP6 POP DUP1 NOT DUP5 AND SWAP4 POP DUP1 DUP7 AND DUP5 OR SWAP3 POP POP POP SWAP4 SWAP3 POP POP POP JUMP JUMPDEST PUSH0 DUP2 SWAP1 POP SWAP2 SWAP1 POP JUMP JUMPDEST PUSH0 PUSH2 0x668 PUSH2 0x663 PUSH2 0x65E DUP5 PUSH2 0x2FC JUMP JUMPDEST PUSH2 0x645 JUMP JUMPDEST PUSH2 0x2FC JUMP JUMPDEST SWAP1 POP SWAP2 SWAP1 POP JUMP JUMPDEST PUSH0 DUP2 SWAP1 POP SWAP2 SWAP1 POP JUMP JUMPDEST PUSH2 0x681 DUP4 PUSH2 0x64E JUMP JUMPDEST PUSH2 0x695 PUSH2 0x68D DUP3 PUSH2 0x66F JUMP JUMPDEST DUP5 DUP5 SLOAD PUSH2 0x5F4 JUMP JUMPDEST DUP3 SSTORE POP POP POP POP JUMP JUMPDEST PUSH0 SWAP1 JUMP JUMPDEST PUSH2 0x6A9 PUSH2 0x69D JUMP JUMPDEST PUSH2 0x6B4 DUP2 DUP5 DUP5 PUSH2 0x678 JUMP JUMPDEST POP POP POP JUMP JUMPDEST JUMPDEST DUP2 DUP2 LT ISZERO PUSH2 0x6D7 JUMPI PUSH2 0x6CC PUSH0 DUP3 PUSH2 0x6A1 JUMP JUMPDEST PUSH1 0x1 DUP2 ADD SWAP1 POP PUSH2 0x6BA JUMP JUMPDEST POP POP JUMP JUMPDEST PUSH1 0x1F DUP3 GT ISZERO PUSH2 0x71C JUMPI PUSH2 0x6ED DUP2 PUSH2 0x5C7 JUMP JUMPDEST PUSH2 0x6F6 DUP5 PUSH2 0x5D9 JUMP JUMPDEST DUP2 ADD PUSH1 0x20 DUP6 LT ISZERO PUSH2 0x705 JUMPI DUP2 SWAP1 POP JUMPDEST PUSH2 0x719 PUSH2 0x711 DUP6 PUSH2 0x5D9 JUMP JUMPDEST DUP4 ADD DUP3 PUSH2 0x6B9 JUMP JUMPDEST POP POP JUMPDEST POP POP POP JUMP JUMPDEST PUSH0 DUP3 DUP3 SHR SWAP1 POP SWAP3 SWAP2 POP POP JUMP JUMPDEST PUSH0 PUSH2 0x73C PUSH0 NOT DUP5 PUSH1 0x8 MUL PUSH2 0x721 JUMP JUMPDEST NOT DUP1 DUP4 AND SWAP2 POP POP SWAP3 SWAP2 POP POP JUMP JUMPDEST PUSH0 PUSH2 0x754 DUP4 DUP4 PUSH2 0x72D JUMP JUMPDEST SWAP2 POP DUP3 PUSH1 0x2 MUL DUP3 OR SWAP1 POP SWAP3 SWAP2 POP POP JUMP JUMPDEST PUSH2 0x76D DUP3 PUSH2 0x272 JUMP JUMPDEST PUSH8 0xFFFFFFFFFFFFFFFF DUP2 GT ISZERO PUSH2 0x786 JUMPI PUSH2 0x785 PUSH2 0x35B JUMP JUMPDEST JUMPDEST PUSH2 0x790 DUP3 SLOAD PUSH2 0x597 JUMP JUMPDEST PUSH2 0x79B DUP3 DUP3 DUP6 PUSH2 0x6DB JUMP JUMPDEST PUSH0 PUSH1 0x20 SWAP1 POP PUSH1 0x1F DUP4 GT PUSH1 0x1 DUP2 EQ PUSH2 0x7CC JUMPI PUSH0 DUP5 ISZERO PUSH2 0x7BA JUMPI DUP3 DUP8 ADD MLOAD SWAP1 POP JUMPDEST PUSH2 0x7C4 DUP6 DUP3 PUSH2 0x749 JUMP JUMPDEST DUP7 SSTORE POP PUSH2 0x82B JUMP JUMPDEST PUSH1 0x1F NOT DUP5 AND PUSH2 0x7DA DUP7 PUSH2 0x5C7 JUMP JUMPDEST PUSH0 JUMPDEST DUP3 DUP2 LT ISZERO PUSH2 0x801 JUMPI DUP5 DUP10 ADD MLOAD DUP3 SSTORE PUSH1 0x1 DUP3 ADD SWAP2 POP PUSH1 0x20 DUP6 ADD SWAP5 POP PUSH1 0x20 DUP2 ADD SWAP1 POP PUSH2 0x7DC JUMP JUMPDEST DUP7 DUP4 LT ISZERO PUSH2 0x81E JUMPI DUP5 DUP10 ADD MLOAD PUSH2 0x81A PUSH1 0x1F DUP10 AND DUP3 PUSH2 0x72D JUMP JUMPDEST DUP4 SSTORE POP JUMPDEST PUSH1 0x1 PUSH1 0x2 DUP9 MUL ADD DUP9 SSTORE POP POP POP JUMPDEST POP POP POP POP POP POP JUMP INVALID LOG2 PUSH5 0x6970667358 0x22 SLT KECCAK256 0x26 BYTE MSTORE 0xD9 0xDE STATICCALL CALLDATALOAD DUP8 0xB5 RETURNDATACOPY 0xAA PREVRANDAO 0xDD 0xE1 0xEC SELFBALANCE PUSH0 PUSH2 0xD1E6 SAR 0x29 LOG2 0xDC 0x1F ADDMOD 0xC2 PUSH4 0x43328F69 PUSH5 0x736F6C6343 STOP ADDMOD AND STOP CALLER "
				},
				"gasEstimates": {
					"creation": {
						"codeDepositCost": "430600",
						"executionCost": "466",
						"totalCost": "431066"
					},
					"external": {
						"getA()": "infinite",
						"getAB()": "infinite",
						"setA(string)": "infinite",
						"setAB(string,uint256)": "infinite",
						"setAasABC()": "infinite"
					}
				},
				"methodIdentifiers": {
					"getA()": "d46300fd",
					"getAB()": "2b06cb2d",
					"setA(string)": "b958abd5",
					"setAB(string,uint256)": "60de3916",
					"setAasABC()": "d37aff74"
				}
			},
			"storageLayout": {
				"storage": [
					{
						"astId": 3,
						"contract": "contracts/basic4.sol:Basic4",
						"label": "a",
						"offset": 0,
						"slot": "0",
						"type": "t_string_storage"
					},
					{
						"astId": 5,
						"contract": "contracts/basic4.sol:Basic4",
						"label": "b",
						"offset": 0,
						"slot": "1",
						"type": "t_uint256"
					}
				],
				"types": {
					"t_string_storage": {
						"encoding": "bytes",
						"label": "string",
						"numberOfBytes": "32"
					},
					"t_uint256": {
						"encoding": "inplace",
						"label": "uint256",
						"numberOfBytes": "32"
					}
				}
			},
			"userdoc": {
				"kind": "user",
				"methods": {},
				"version": 1
			}
		}
	}
}