{
	"contracts/student3.sol": {
		"STRUCT": {
			"abi": [
				{
					"inputs": [],
					"name": "getStudent",
					"outputs": [
						{
							"components": [
								{
									"internalType": "string",
									"name": "name",
									"type": "string"
								},
								{
									"internalType": "uint256",
									"name": "number",
									"type": "uint256"
								}
							],
							"internalType": "struct STRUCT.Student",
							"name": "",
							"type": "tuple"
						},
						{
							"components": [
								{
									"internalType": "string",
									"name": "name",
									"type": "string"
								},
								{
									"internalType": "uint256",
									"name": "number",
									"type": "uint256"
								}
							],
							"internalType": "struct STRUCT.Student",
							"name": "",
							"type": "tuple"
						},
						{
							"components": [
								{
									"internalType": "string",
									"name": "name",
									"type": "string"
								},
								{
									"internalType": "uint256",
									"name": "number",
									"type": "uint256"
								}
							],
							"internalType": "struct STRUCT.Student",
							"name": "",
							"type": "tuple"
						}
					],
					"stateMutability": "view",
					"type": "function"
				},
				{
					"inputs": [
						{
							"internalType": "string",
							"name": "_name",
							"type": "string"
						},
						{
							"internalType": "uint256",
							"name": "_number",
							"type": "uint256"
						}
					],
					"name": "setStudent1",
					"outputs": [],
					"stateMutability": "nonpayable",
					"type": "function"
				},
				{
					"inputs": [
						{
							"internalType": "string",
							"name": "_name",
							"type": "string"
						},
						{
							"internalType": "uint256",
							"name": "_number",
							"type": "uint256"
						}
					],
					"name": "setStudent2",
					"outputs": [],
					"stateMutability": "nonpayable",
					"type": "function"
				},
				{
					"inputs": [
						{
							"internalType": "string",
							"name": "_name",
							"type": "string"
						},
						{
							"internalType": "uint256",
							"name": "_number",
							"type": "uint256"
						}
					],
					"name": "setStudent3",
					"outputs": [],
					"stateMutability": "nonpayable",
					"type": "function"
				}
			],
			"devdoc": {
				"kind": "dev",
				"methods": {},
				"version": 1
			},
			"evm": {
				"assembly": "    /* \"contracts/student3.sol\":70:771  contract STRUCT {... */\n  mstore(0x40, 0x80)\n  callvalue\n  dup1\n  iszero\n  tag_1\n  jumpi\n  0x00\n  dup1\n  revert\ntag_1:\n  pop\n  dataSize(sub_0)\n  dup1\n  dataOffset(sub_0)\n  0x00\n  codecopy\n  0x00\n  return\nstop\n\nsub_0: assembly {\n        /* \"contracts/student3.sol\":70:771  contract STRUCT {... */\n      mstore(0x40, 0x80)\n      callvalue\n      dup1\n      iszero\n      tag_1\n      jumpi\n      0x00\n      dup1\n      revert\n    tag_1:\n      pop\n      jumpi(tag_2, lt(calldatasize, 0x04))\n      shr(0xe0, calldataload(0x00))\n      dup1\n      0x6179e117\n      eq\n      tag_3\n      jumpi\n      dup1\n      0x92cc178a\n      eq\n      tag_4\n      jumpi\n      dup1\n      0xb439548d\n      eq\n      tag_5\n      jumpi\n      dup1\n      0xdcd04806\n      eq\n      tag_6\n      jumpi\n    tag_2:\n      0x00\n      dup1\n      revert\n        /* \"contracts/student3.sol\":477:637  function setStudent3(string memory _name, uint _number) public {... */\n    tag_3:\n      tag_7\n      0x04\n      dup1\n      calldatasize\n      sub\n      dup2\n      add\n      swap1\n      tag_8\n      swap2\n      swap1\n      tag_9\n      jump\t// in\n    tag_8:\n      tag_10\n      jump\t// in\n    tag_7:\n      stop\n        /* \"contracts/student3.sol\":233:341  function setStudent1(string memory _name, uint _number) public {... */\n    tag_4:\n      tag_11\n      0x04\n      dup1\n      calldatasize\n      sub\n      dup2\n      add\n      swap1\n      tag_12\n      swap2\n      swap1\n      tag_9\n      jump\t// in\n    tag_12:\n      tag_13\n      jump\t// in\n    tag_11:\n      stop\n        /* \"contracts/student3.sol\":643:769  function getStudent() public view returns(Student memory, Student memory, Student memory) {... */\n    tag_5:\n      tag_14\n      tag_15\n      jump\t// in\n    tag_14:\n      mload(0x40)\n      tag_16\n      swap4\n      swap3\n      swap2\n      swap1\n      tag_17\n      jump\t// in\n    tag_16:\n      mload(0x40)\n      dup1\n      swap2\n      sub\n      swap1\n      return\n        /* \"contracts/student3.sol\":347:471  function setStudent2(string memory _name, uint _number) public {... */\n    tag_6:\n      tag_18\n      0x04\n      dup1\n      calldatasize\n      sub\n      dup2\n      add\n      swap1\n      tag_19\n      swap2\n      swap1\n      tag_9\n      jump\t// in\n    tag_19:\n      tag_20\n      jump\t// in\n    tag_18:\n      stop\n        /* \"contracts/student3.sol\":477:637  function setStudent3(string memory _name, uint _number) public {... */\n    tag_10:\n        /* \"contracts/student3.sol\":555:630  Student({... */\n      mload(0x40)\n      dup1\n      0x40\n      add\n      0x40\n      mstore\n      dup1\n        /* \"contracts/student3.sol\":584:589  _name */\n      dup4\n        /* \"contracts/student3.sol\":555:630  Student({... */\n      dup2\n      mstore\n      0x20\n      add\n        /* \"contracts/student3.sol\":612:619  _number */\n      dup3\n        /* \"contracts/student3.sol\":555:630  Student({... */\n      dup2\n      mstore\n      pop\n        /* \"contracts/student3.sol\":550:552  s3 */\n      0x05\n        /* \"contracts/student3.sol\":550:630  s3 = Student({... */\n      0x00\n      dup3\n      add\n      mload\n      dup2\n      0x00\n      add\n      swap1\n      dup2\n      tag_22\n      swap2\n      swap1\n      tag_23\n      jump\t// in\n    tag_22:\n      pop\n      0x20\n      dup3\n      add\n      mload\n      dup2\n      0x01\n      add\n      sstore\n      swap1\n      pop\n      pop\n        /* \"contracts/student3.sol\":477:637  function setStudent3(string memory _name, uint _number) public {... */\n      pop\n      pop\n      jump\t// out\n        /* \"contracts/student3.sol\":233:341  function setStudent1(string memory _name, uint _number) public {... */\n    tag_13:\n        /* \"contracts/student3.sol\":311:334  Student(_name, _number) */\n      mload(0x40)\n      dup1\n      0x40\n      add\n      0x40\n      mstore\n      dup1\n        /* \"contracts/student3.sol\":319:324  _name */\n      dup4\n        /* \"contracts/student3.sol\":311:334  Student(_name, _number) */\n      dup2\n      mstore\n      0x20\n      add\n        /* \"contracts/student3.sol\":326:333  _number */\n      dup3\n        /* \"contracts/student3.sol\":311:334  Student(_name, _number) */\n      dup2\n      mstore\n      pop\n        /* \"contracts/student3.sol\":306:308  s1 */\n      0x01\n        /* \"contracts/student3.sol\":306:334  s1 = Student(_name, _number) */\n      0x00\n      dup3\n      add\n      mload\n      dup2\n      0x00\n      add\n      swap1\n      dup2\n      tag_25\n      swap2\n      swap1\n      tag_23\n      jump\t// in\n    tag_25:\n      pop\n      0x20\n      dup3\n      add\n      mload\n      dup2\n      0x01\n      add\n      sstore\n      swap1\n      pop\n      pop\n        /* \"contracts/student3.sol\":233:341  function setStudent1(string memory _name, uint _number) public {... */\n      pop\n      pop\n      jump\t// out\n        /* \"contracts/student3.sol\":643:769  function getStudent() public view returns(Student memory, Student memory, Student memory) {... */\n    tag_15:\n        /* \"contracts/student3.sol\":685:699  Student memory */\n      tag_26\n      tag_27\n      jump\t// in\n    tag_26:\n        /* \"contracts/student3.sol\":701:715  Student memory */\n      tag_28\n      tag_27\n      jump\t// in\n    tag_28:\n        /* \"contracts/student3.sol\":717:731  Student memory */\n      tag_29\n      tag_27\n      jump\t// in\n    tag_29:\n        /* \"contracts/student3.sol\":751:753  s1 */\n      0x01\n        /* \"contracts/student3.sol\":755:757  s2 */\n      0x03\n        /* \"contracts/student3.sol\":759:761  s3 */\n      0x05\n        /* \"contracts/student3.sol\":743:762  return (s1, s2, s3) */\n      dup3\n      mload(0x40)\n      dup1\n      0x40\n      add\n      0x40\n      mstore\n      swap1\n      dup2\n      0x00\n      dup3\n      add\n      dup1\n      sload\n      tag_31\n      swap1\n      tag_32\n      jump\t// in\n    tag_31:\n      dup1\n      0x1f\n      add\n      0x20\n      dup1\n      swap2\n      div\n      mul\n      0x20\n      add\n      mload(0x40)\n      swap1\n      dup2\n      add\n      0x40\n      mstore\n      dup1\n      swap3\n      swap2\n      swap1\n      dup2\n      dup2\n      mstore\n      0x20\n      add\n      dup3\n      dup1\n      sload\n      tag_33\n      swap1\n      tag_32\n      jump\t// in\n    tag_33:\n      dup1\n      iszero\n      tag_34\n      jumpi\n      dup1\n      0x1f\n      lt\n      tag_35\n      jumpi\n      0x0100\n      dup1\n      dup4\n      sload\n      div\n      mul\n      dup4\n      mstore\n      swap2\n      0x20\n      add\n      swap2\n      jump(tag_34)\n    tag_35:\n      dup3\n      add\n      swap2\n      swap1\n      0x00\n      mstore\n      keccak256(0x00, 0x20)\n      swap1\n    tag_36:\n      dup2\n      sload\n      dup2\n      mstore\n      swap1\n      0x01\n      add\n      swap1\n      0x20\n      add\n      dup1\n      dup4\n      gt\n      tag_36\n      jumpi\n      dup3\n      swap1\n      sub\n      0x1f\n      and\n      dup3\n      add\n      swap2\n    tag_34:\n      pop\n      pop\n      pop\n      pop\n      pop\n      dup2\n      mstore\n      0x20\n      add\n      0x01\n      dup3\n      add\n      sload\n      dup2\n      mstore\n      pop\n      pop\n      swap3\n      pop\n      dup2\n      mload(0x40)\n      dup1\n      0x40\n      add\n      0x40\n      mstore\n      swap1\n      dup2\n      0x00\n      dup3\n      add\n      dup1\n      sload\n      tag_37\n      swap1\n      tag_32\n      jump\t// in\n    tag_37:\n      dup1\n      0x1f\n      add\n      0x20\n      dup1\n      swap2\n      div\n      mul\n      0x20\n      add\n      mload(0x40)\n      swap1\n      dup2\n      add\n      0x40\n      mstore\n      dup1\n      swap3\n      swap2\n      swap1\n      dup2\n      dup2\n      mstore\n      0x20\n      add\n      dup3\n      dup1\n      sload\n      tag_38\n      swap1\n      tag_32\n      jump\t// in\n    tag_38:\n      dup1\n      iszero\n      tag_39\n      jumpi\n      dup1\n      0x1f\n      lt\n      tag_40\n      jumpi\n      0x0100\n      dup1\n      dup4\n      sload\n      div\n      mul\n      dup4\n      mstore\n      swap2\n      0x20\n      add\n      swap2\n      jump(tag_39)\n    tag_40:\n      dup3\n      add\n      swap2\n      swap1\n      0x00\n      mstore\n      keccak256(0x00, 0x20)\n      swap1\n    tag_41:\n      dup2\n      sload\n      dup2\n      mstore\n      swap1\n      0x01\n      add\n      swap1\n      0x20\n      add\n      dup1\n      dup4\n      gt\n      tag_41\n      jumpi\n      dup3\n      swap1\n      sub\n      0x1f\n      and\n      dup3\n      add\n      swap2\n    tag_39:\n      pop\n      pop\n      pop\n      pop\n      pop\n      dup2\n      mstore\n      0x20\n      add\n      0x01\n      dup3\n      add\n      sload\n      dup2\n      mstore\n      pop\n      pop\n      swap2\n      pop\n      dup1\n      mload(0x40)\n      dup1\n      0x40\n      add\n      0x40\n      mstore\n      swap1\n      dup2\n      0x00\n      dup3\n      add\n      dup1\n      sload\n      tag_42\n      swap1\n      tag_32\n      jump\t// in\n    tag_42:\n      dup1\n      0x1f\n      add\n      0x20\n      dup1\n      swap2\n      div\n      mul\n      0x20\n      add\n      mload(0x40)\n      swap1\n      dup2\n      add\n      0x40\n      mstore\n      dup1\n      swap3\n      swap2\n      swap1\n      dup2\n      dup2\n      mstore\n      0x20\n      add\n      dup3\n      dup1\n      sload\n      tag_43\n      swap1\n      tag_32\n      jump\t// in\n    tag_43:\n      dup1\n      iszero\n      tag_44\n      jumpi\n      dup1\n      0x1f\n      lt\n      tag_45\n      jumpi\n      0x0100\n      dup1\n      dup4\n      sload\n      div\n      mul\n      dup4\n      mstore\n      swap2\n      0x20\n      add\n      swap2\n      jump(tag_44)\n    tag_45:\n      dup3\n      add\n      swap2\n      swap1\n      0x00\n      mstore\n      keccak256(0x00, 0x20)\n      swap1\n    tag_46:\n      dup2\n      sload\n      dup2\n      mstore\n      swap1\n      0x01\n      add\n      swap1\n      0x20\n      add\n      dup1\n      dup4\n      gt\n      tag_46\n      jumpi\n      dup3\n      swap1\n      sub\n      0x1f\n      and\n      dup3\n      add\n      swap2\n    tag_44:\n      pop\n      pop\n      pop\n      pop\n      pop\n      dup2\n      mstore\n      0x20\n      add\n      0x01\n      dup3\n      add\n      sload\n      dup2\n      mstore\n      pop\n      pop\n      swap1\n      pop\n      swap3\n      pop\n      swap3\n      pop\n      swap3\n      pop\n        /* \"contracts/student3.sol\":643:769  function getStudent() public view returns(Student memory, Student memory, Student memory) {... */\n      swap1\n      swap2\n      swap3\n      jump\t// out\n        /* \"contracts/student3.sol\":347:471  function setStudent2(string memory _name, uint _number) public {... */\n    tag_20:\n        /* \"contracts/student3.sol\":430:435  _name */\n      dup2\n        /* \"contracts/student3.sol\":420:422  s2 */\n      0x03\n        /* \"contracts/student3.sol\":420:427  s2.name */\n      0x00\n      add\n        /* \"contracts/student3.sol\":420:435  s2.name = _name */\n      swap1\n      dup2\n      tag_48\n      swap2\n      swap1\n      tag_23\n      jump\t// in\n    tag_48:\n      pop\n        /* \"contracts/student3.sol\":457:464  _number */\n      dup1\n        /* \"contracts/student3.sol\":445:447  s2 */\n      0x03\n        /* \"contracts/student3.sol\":445:454  s2.number */\n      0x01\n      add\n        /* \"contracts/student3.sol\":445:464  s2.number = _number */\n      dup2\n      swap1\n      sstore\n      pop\n        /* \"contracts/student3.sol\":347:471  function setStudent2(string memory _name, uint _number) public {... */\n      pop\n      pop\n      jump\t// out\n    tag_27:\n      mload(0x40)\n      dup1\n      0x40\n      add\n      0x40\n      mstore\n      dup1\n      0x60\n      dup2\n      mstore\n      0x20\n      add\n      0x00\n      dup2\n      mstore\n      pop\n      swap1\n      jump\t// out\n        /* \"#utility.yul\":7:82   */\n    tag_49:\n        /* \"#utility.yul\":40:46   */\n      0x00\n        /* \"#utility.yul\":73:75   */\n      0x40\n        /* \"#utility.yul\":67:76   */\n      mload\n        /* \"#utility.yul\":57:76   */\n      swap1\n      pop\n        /* \"#utility.yul\":7:82   */\n      swap1\n      jump\t// out\n        /* \"#utility.yul\":88:205   */\n    tag_50:\n        /* \"#utility.yul\":197:198   */\n      0x00\n        /* \"#utility.yul\":194:195   */\n      dup1\n        /* \"#utility.yul\":187:199   */\n      revert\n        /* \"#utility.yul\":211:328   */\n    tag_51:\n        /* \"#utility.yul\":320:321   */\n      0x00\n        /* \"#utility.yul\":317:318   */\n      dup1\n        /* \"#utility.yul\":310:322   */\n      revert\n        /* \"#utility.yul\":334:451   */\n    tag_52:\n        /* \"#utility.yul\":443:444   */\n      0x00\n        /* \"#utility.yul\":440:441   */\n      dup1\n        /* \"#utility.yul\":433:445   */\n      revert\n        /* \"#utility.yul\":457:574   */\n    tag_53:\n        /* \"#utility.yul\":566:567   */\n      0x00\n        /* \"#utility.yul\":563:564   */\n      dup1\n        /* \"#utility.yul\":556:568   */\n      revert\n        /* \"#utility.yul\":580:682   */\n    tag_54:\n        /* \"#utility.yul\":621:627   */\n      0x00\n        /* \"#utility.yul\":672:674   */\n      0x1f\n        /* \"#utility.yul\":668:675   */\n      not\n        /* \"#utility.yul\":663:665   */\n      0x1f\n        /* \"#utility.yul\":656:661   */\n      dup4\n        /* \"#utility.yul\":652:666   */\n      add\n        /* \"#utility.yul\":648:676   */\n      and\n        /* \"#utility.yul\":638:676   */\n      swap1\n      pop\n        /* \"#utility.yul\":580:682   */\n      swap2\n      swap1\n      pop\n      jump\t// out\n        /* \"#utility.yul\":688:868   */\n    tag_55:\n        /* \"#utility.yul\":736:813   */\n      0x4e487b7100000000000000000000000000000000000000000000000000000000\n        /* \"#utility.yul\":733:734   */\n      0x00\n        /* \"#utility.yul\":726:814   */\n      mstore\n        /* \"#utility.yul\":833:837   */\n      0x41\n        /* \"#utility.yul\":830:831   */\n      0x04\n        /* \"#utility.yul\":823:838   */\n      mstore\n        /* \"#utility.yul\":857:861   */\n      0x24\n        /* \"#utility.yul\":854:855   */\n      0x00\n        /* \"#utility.yul\":847:862   */\n      revert\n        /* \"#utility.yul\":874:1155   */\n    tag_56:\n        /* \"#utility.yul\":957:984   */\n      tag_96\n        /* \"#utility.yul\":979:983   */\n      dup3\n        /* \"#utility.yul\":957:984   */\n      tag_54\n      jump\t// in\n    tag_96:\n        /* \"#utility.yul\":949:955   */\n      dup2\n        /* \"#utility.yul\":945:985   */\n      add\n        /* \"#utility.yul\":1087:1093   */\n      dup2\n        /* \"#utility.yul\":1075:1085   */\n      dup2\n        /* \"#utility.yul\":1072:1094   */\n      lt\n        /* \"#utility.yul\":1051:1069   */\n      0xffffffffffffffff\n        /* \"#utility.yul\":1039:1049   */\n      dup3\n        /* \"#utility.yul\":1036:1070   */\n      gt\n        /* \"#utility.yul\":1033:1095   */\n      or\n        /* \"#utility.yul\":1030:1118   */\n      iszero\n      tag_97\n      jumpi\n        /* \"#utility.yul\":1098:1116   */\n      tag_98\n      tag_55\n      jump\t// in\n    tag_98:\n        /* \"#utility.yul\":1030:1118   */\n    tag_97:\n        /* \"#utility.yul\":1138:1148   */\n      dup1\n        /* \"#utility.yul\":1134:1136   */\n      0x40\n        /* \"#utility.yul\":1127:1149   */\n      mstore\n        /* \"#utility.yul\":917:1155   */\n      pop\n        /* \"#utility.yul\":874:1155   */\n      pop\n      pop\n      jump\t// out\n        /* \"#utility.yul\":1161:1290   */\n    tag_57:\n        /* \"#utility.yul\":1195:1201   */\n      0x00\n        /* \"#utility.yul\":1222:1242   */\n      tag_100\n      tag_49\n      jump\t// in\n    tag_100:\n        /* \"#utility.yul\":1212:1242   */\n      swap1\n      pop\n        /* \"#utility.yul\":1251:1284   */\n      tag_101\n        /* \"#utility.yul\":1279:1283   */\n      dup3\n        /* \"#utility.yul\":1271:1277   */\n      dup3\n        /* \"#utility.yul\":1251:1284   */\n      tag_56\n      jump\t// in\n    tag_101:\n        /* \"#utility.yul\":1161:1290   */\n      swap2\n      swap1\n      pop\n      jump\t// out\n        /* \"#utility.yul\":1296:1604   */\n    tag_58:\n        /* \"#utility.yul\":1358:1362   */\n      0x00\n        /* \"#utility.yul\":1448:1466   */\n      0xffffffffffffffff\n        /* \"#utility.yul\":1440:1446   */\n      dup3\n        /* \"#utility.yul\":1437:1467   */\n      gt\n        /* \"#utility.yul\":1434:1490   */\n      iszero\n      tag_103\n      jumpi\n        /* \"#utility.yul\":1470:1488   */\n      tag_104\n      tag_55\n      jump\t// in\n    tag_104:\n        /* \"#utility.yul\":1434:1490   */\n    tag_103:\n        /* \"#utility.yul\":1508:1537   */\n      tag_105\n        /* \"#utility.yul\":1530:1536   */\n      dup3\n        /* \"#utility.yul\":1508:1537   */\n      tag_54\n      jump\t// in\n    tag_105:\n        /* \"#utility.yul\":1500:1537   */\n      swap1\n      pop\n        /* \"#utility.yul\":1592:1596   */\n      0x20\n        /* \"#utility.yul\":1586:1590   */\n      dup2\n        /* \"#utility.yul\":1582:1597   */\n      add\n        /* \"#utility.yul\":1574:1597   */\n      swap1\n      pop\n        /* \"#utility.yul\":1296:1604   */\n      swap2\n      swap1\n      pop\n      jump\t// out\n        /* \"#utility.yul\":1610:1756   */\n    tag_59:\n        /* \"#utility.yul\":1707:1713   */\n      dup3\n        /* \"#utility.yul\":1702:1705   */\n      dup2\n        /* \"#utility.yul\":1697:1700   */\n      dup4\n        /* \"#utility.yul\":1684:1714   */\n      calldatacopy\n        /* \"#utility.yul\":1748:1749   */\n      0x00\n        /* \"#utility.yul\":1739:1745   */\n      dup4\n        /* \"#utility.yul\":1734:1737   */\n      dup4\n        /* \"#utility.yul\":1730:1746   */\n      add\n        /* \"#utility.yul\":1723:1750   */\n      mstore\n        /* \"#utility.yul\":1610:1756   */\n      pop\n      pop\n      pop\n      jump\t// out\n        /* \"#utility.yul\":1762:2187   */\n    tag_60:\n        /* \"#utility.yul\":1840:1845   */\n      0x00\n        /* \"#utility.yul\":1865:1931   */\n      tag_108\n        /* \"#utility.yul\":1881:1930   */\n      tag_109\n        /* \"#utility.yul\":1923:1929   */\n      dup5\n        /* \"#utility.yul\":1881:1930   */\n      tag_58\n      jump\t// in\n    tag_109:\n        /* \"#utility.yul\":1865:1931   */\n      tag_57\n      jump\t// in\n    tag_108:\n        /* \"#utility.yul\":1856:1931   */\n      swap1\n      pop\n        /* \"#utility.yul\":1954:1960   */\n      dup3\n        /* \"#utility.yul\":1947:1952   */\n      dup2\n        /* \"#utility.yul\":1940:1961   */\n      mstore\n        /* \"#utility.yul\":1992:1996   */\n      0x20\n        /* \"#utility.yul\":1985:1990   */\n      dup2\n        /* \"#utility.yul\":1981:1997   */\n      add\n        /* \"#utility.yul\":2030:2033   */\n      dup5\n        /* \"#utility.yul\":2021:2027   */\n      dup5\n        /* \"#utility.yul\":2016:2019   */\n      dup5\n        /* \"#utility.yul\":2012:2028   */\n      add\n        /* \"#utility.yul\":2009:2034   */\n      gt\n        /* \"#utility.yul\":2006:2118   */\n      iszero\n      tag_110\n      jumpi\n        /* \"#utility.yul\":2037:2116   */\n      tag_111\n      tag_53\n      jump\t// in\n    tag_111:\n        /* \"#utility.yul\":2006:2118   */\n    tag_110:\n        /* \"#utility.yul\":2127:2181   */\n      tag_112\n        /* \"#utility.yul\":2174:2180   */\n      dup5\n        /* \"#utility.yul\":2169:2172   */\n      dup3\n        /* \"#utility.yul\":2164:2167   */\n      dup6\n        /* \"#utility.yul\":2127:2181   */\n      tag_59\n      jump\t// in\n    tag_112:\n        /* \"#utility.yul\":1846:2187   */\n      pop\n        /* \"#utility.yul\":1762:2187   */\n      swap4\n      swap3\n      pop\n      pop\n      pop\n      jump\t// out\n        /* \"#utility.yul\":2207:2547   */\n    tag_61:\n        /* \"#utility.yul\":2263:2268   */\n      0x00\n        /* \"#utility.yul\":2312:2315   */\n      dup3\n        /* \"#utility.yul\":2305:2309   */\n      0x1f\n        /* \"#utility.yul\":2297:2303   */\n      dup4\n        /* \"#utility.yul\":2293:2310   */\n      add\n        /* \"#utility.yul\":2289:2316   */\n      slt\n        /* \"#utility.yul\":2279:2401   */\n      tag_114\n      jumpi\n        /* \"#utility.yul\":2320:2399   */\n      tag_115\n      tag_52\n      jump\t// in\n    tag_115:\n        /* \"#utility.yul\":2279:2401   */\n    tag_114:\n        /* \"#utility.yul\":2437:2443   */\n      dup2\n        /* \"#utility.yul\":2424:2444   */\n      calldataload\n        /* \"#utility.yul\":2462:2541   */\n      tag_116\n        /* \"#utility.yul\":2537:2540   */\n      dup5\n        /* \"#utility.yul\":2529:2535   */\n      dup3\n        /* \"#utility.yul\":2522:2526   */\n      0x20\n        /* \"#utility.yul\":2514:2520   */\n      dup7\n        /* \"#utility.yul\":2510:2527   */\n      add\n        /* \"#utility.yul\":2462:2541   */\n      tag_60\n      jump\t// in\n    tag_116:\n        /* \"#utility.yul\":2453:2541   */\n      swap2\n      pop\n        /* \"#utility.yul\":2269:2547   */\n      pop\n        /* \"#utility.yul\":2207:2547   */\n      swap3\n      swap2\n      pop\n      pop\n      jump\t// out\n        /* \"#utility.yul\":2553:2630   */\n    tag_62:\n        /* \"#utility.yul\":2590:2597   */\n      0x00\n        /* \"#utility.yul\":2619:2624   */\n      dup2\n        /* \"#utility.yul\":2608:2624   */\n      swap1\n      pop\n        /* \"#utility.yul\":2553:2630   */\n      swap2\n      swap1\n      pop\n      jump\t// out\n        /* \"#utility.yul\":2636:2758   */\n    tag_63:\n        /* \"#utility.yul\":2709:2733   */\n      tag_119\n        /* \"#utility.yul\":2727:2732   */\n      dup2\n        /* \"#utility.yul\":2709:2733   */\n      tag_62\n      jump\t// in\n    tag_119:\n        /* \"#utility.yul\":2702:2707   */\n      dup2\n        /* \"#utility.yul\":2699:2734   */\n      eq\n        /* \"#utility.yul\":2689:2752   */\n      tag_120\n      jumpi\n        /* \"#utility.yul\":2748:2749   */\n      0x00\n        /* \"#utility.yul\":2745:2746   */\n      dup1\n        /* \"#utility.yul\":2738:2750   */\n      revert\n        /* \"#utility.yul\":2689:2752   */\n    tag_120:\n        /* \"#utility.yul\":2636:2758   */\n      pop\n      jump\t// out\n        /* \"#utility.yul\":2764:2903   */\n    tag_64:\n        /* \"#utility.yul\":2810:2815   */\n      0x00\n        /* \"#utility.yul\":2848:2854   */\n      dup2\n        /* \"#utility.yul\":2835:2855   */\n      calldataload\n        /* \"#utility.yul\":2826:2855   */\n      swap1\n      pop\n        /* \"#utility.yul\":2864:2897   */\n      tag_122\n        /* \"#utility.yul\":2891:2896   */\n      dup2\n        /* \"#utility.yul\":2864:2897   */\n      tag_63\n      jump\t// in\n    tag_122:\n        /* \"#utility.yul\":2764:2903   */\n      swap3\n      swap2\n      pop\n      pop\n      jump\t// out\n        /* \"#utility.yul\":2909:3563   */\n    tag_9:\n        /* \"#utility.yul\":2987:2993   */\n      0x00\n        /* \"#utility.yul\":2995:3001   */\n      dup1\n        /* \"#utility.yul\":3044:3046   */\n      0x40\n        /* \"#utility.yul\":3032:3041   */\n      dup4\n        /* \"#utility.yul\":3023:3030   */\n      dup6\n        /* \"#utility.yul\":3019:3042   */\n      sub\n        /* \"#utility.yul\":3015:3047   */\n      slt\n        /* \"#utility.yul\":3012:3131   */\n      iszero\n      tag_124\n      jumpi\n        /* \"#utility.yul\":3050:3129   */\n      tag_125\n      tag_50\n      jump\t// in\n    tag_125:\n        /* \"#utility.yul\":3012:3131   */\n    tag_124:\n        /* \"#utility.yul\":3198:3199   */\n      0x00\n        /* \"#utility.yul\":3187:3196   */\n      dup4\n        /* \"#utility.yul\":3183:3200   */\n      add\n        /* \"#utility.yul\":3170:3201   */\n      calldataload\n        /* \"#utility.yul\":3228:3246   */\n      0xffffffffffffffff\n        /* \"#utility.yul\":3220:3226   */\n      dup2\n        /* \"#utility.yul\":3217:3247   */\n      gt\n        /* \"#utility.yul\":3214:3331   */\n      iszero\n      tag_126\n      jumpi\n        /* \"#utility.yul\":3250:3329   */\n      tag_127\n      tag_51\n      jump\t// in\n    tag_127:\n        /* \"#utility.yul\":3214:3331   */\n    tag_126:\n        /* \"#utility.yul\":3355:3418   */\n      tag_128\n        /* \"#utility.yul\":3410:3417   */\n      dup6\n        /* \"#utility.yul\":3401:3407   */\n      dup3\n        /* \"#utility.yul\":3390:3399   */\n      dup7\n        /* \"#utility.yul\":3386:3408   */\n      add\n        /* \"#utility.yul\":3355:3418   */\n      tag_61\n      jump\t// in\n    tag_128:\n        /* \"#utility.yul\":3345:3418   */\n      swap3\n      pop\n        /* \"#utility.yul\":3141:3428   */\n      pop\n        /* \"#utility.yul\":3467:3469   */\n      0x20\n        /* \"#utility.yul\":3493:3546   */\n      tag_129\n        /* \"#utility.yul\":3538:3545   */\n      dup6\n        /* \"#utility.yul\":3529:3535   */\n      dup3\n        /* \"#utility.yul\":3518:3527   */\n      dup7\n        /* \"#utility.yul\":3514:3536   */\n      add\n        /* \"#utility.yul\":3493:3546   */\n      tag_64\n      jump\t// in\n    tag_129:\n        /* \"#utility.yul\":3483:3546   */\n      swap2\n      pop\n        /* \"#utility.yul\":3438:3556   */\n      pop\n        /* \"#utility.yul\":2909:3563   */\n      swap3\n      pop\n      swap3\n      swap1\n      pop\n      jump\t// out\n        /* \"#utility.yul\":3569:3668   */\n    tag_65:\n        /* \"#utility.yul\":3621:3627   */\n      0x00\n        /* \"#utility.yul\":3655:3660   */\n      dup2\n        /* \"#utility.yul\":3649:3661   */\n      mload\n        /* \"#utility.yul\":3639:3661   */\n      swap1\n      pop\n        /* \"#utility.yul\":3569:3668   */\n      swap2\n      swap1\n      pop\n      jump\t// out\n        /* \"#utility.yul\":3674:3833   */\n    tag_66:\n        /* \"#utility.yul\":3748:3759   */\n      0x00\n        /* \"#utility.yul\":3782:3788   */\n      dup3\n        /* \"#utility.yul\":3777:3780   */\n      dup3\n        /* \"#utility.yul\":3770:3789   */\n      mstore\n        /* \"#utility.yul\":3822:3826   */\n      0x20\n        /* \"#utility.yul\":3817:3820   */\n      dup3\n        /* \"#utility.yul\":3813:3827   */\n      add\n        /* \"#utility.yul\":3798:3827   */\n      swap1\n      pop\n        /* \"#utility.yul\":3674:3833   */\n      swap3\n      swap2\n      pop\n      pop\n      jump\t// out\n        /* \"#utility.yul\":3839:4085   */\n    tag_67:\n        /* \"#utility.yul\":3920:3921   */\n      0x00\n        /* \"#utility.yul\":3930:4043   */\n    tag_133:\n        /* \"#utility.yul\":3944:3950   */\n      dup4\n        /* \"#utility.yul\":3941:3942   */\n      dup2\n        /* \"#utility.yul\":3938:3951   */\n      lt\n        /* \"#utility.yul\":3930:4043   */\n      iszero\n      tag_135\n      jumpi\n        /* \"#utility.yul\":4029:4030   */\n      dup1\n        /* \"#utility.yul\":4024:4027   */\n      dup3\n        /* \"#utility.yul\":4020:4031   */\n      add\n        /* \"#utility.yul\":4014:4032   */\n      mload\n        /* \"#utility.yul\":4010:4011   */\n      dup2\n        /* \"#utility.yul\":4005:4008   */\n      dup5\n        /* \"#utility.yul\":4001:4012   */\n      add\n        /* \"#utility.yul\":3994:4033   */\n      mstore\n        /* \"#utility.yul\":3966:3968   */\n      0x20\n        /* \"#utility.yul\":3963:3964   */\n      dup2\n        /* \"#utility.yul\":3959:3969   */\n      add\n        /* \"#utility.yul\":3954:3969   */\n      swap1\n      pop\n        /* \"#utility.yul\":3930:4043   */\n      jump(tag_133)\n    tag_135:\n        /* \"#utility.yul\":4077:4078   */\n      0x00\n        /* \"#utility.yul\":4068:4074   */\n      dup5\n        /* \"#utility.yul\":4063:4066   */\n      dup5\n        /* \"#utility.yul\":4059:4075   */\n      add\n        /* \"#utility.yul\":4052:4079   */\n      mstore\n        /* \"#utility.yul\":3901:4085   */\n      pop\n        /* \"#utility.yul\":3839:4085   */\n      pop\n      pop\n      pop\n      jump\t// out\n        /* \"#utility.yul\":4091:4448   */\n    tag_68:\n        /* \"#utility.yul\":4169:4172   */\n      0x00\n        /* \"#utility.yul\":4197:4236   */\n      tag_137\n        /* \"#utility.yul\":4230:4235   */\n      dup3\n        /* \"#utility.yul\":4197:4236   */\n      tag_65\n      jump\t// in\n    tag_137:\n        /* \"#utility.yul\":4252:4313   */\n      tag_138\n        /* \"#utility.yul\":4306:4312   */\n      dup2\n        /* \"#utility.yul\":4301:4304   */\n      dup6\n        /* \"#utility.yul\":4252:4313   */\n      tag_66\n      jump\t// in\n    tag_138:\n        /* \"#utility.yul\":4245:4313   */\n      swap4\n      pop\n        /* \"#utility.yul\":4322:4387   */\n      tag_139\n        /* \"#utility.yul\":4380:4386   */\n      dup2\n        /* \"#utility.yul\":4375:4378   */\n      dup6\n        /* \"#utility.yul\":4368:4372   */\n      0x20\n        /* \"#utility.yul\":4361:4366   */\n      dup7\n        /* \"#utility.yul\":4357:4373   */\n      add\n        /* \"#utility.yul\":4322:4387   */\n      tag_67\n      jump\t// in\n    tag_139:\n        /* \"#utility.yul\":4412:4441   */\n      tag_140\n        /* \"#utility.yul\":4434:4440   */\n      dup2\n        /* \"#utility.yul\":4412:4441   */\n      tag_54\n      jump\t// in\n    tag_140:\n        /* \"#utility.yul\":4407:4410   */\n      dup5\n        /* \"#utility.yul\":4403:4442   */\n      add\n        /* \"#utility.yul\":4396:4442   */\n      swap2\n      pop\n        /* \"#utility.yul\":4173:4448   */\n      pop\n        /* \"#utility.yul\":4091:4448   */\n      swap3\n      swap2\n      pop\n      pop\n      jump\t// out\n        /* \"#utility.yul\":4454:4562   */\n    tag_69:\n        /* \"#utility.yul\":4531:4555   */\n      tag_142\n        /* \"#utility.yul\":4549:4554   */\n      dup2\n        /* \"#utility.yul\":4531:4555   */\n      tag_62\n      jump\t// in\n    tag_142:\n        /* \"#utility.yul\":4526:4529   */\n      dup3\n        /* \"#utility.yul\":4519:4556   */\n      mstore\n        /* \"#utility.yul\":4454:4562   */\n      pop\n      pop\n      jump\t// out\n        /* \"#utility.yul\":4622:5224   */\n    tag_70:\n        /* \"#utility.yul\":4735:4738   */\n      0x00\n        /* \"#utility.yul\":4771:4775   */\n      0x40\n        /* \"#utility.yul\":4766:4769   */\n      dup4\n        /* \"#utility.yul\":4762:4776   */\n      add\n        /* \"#utility.yul\":4858:4862   */\n      0x00\n        /* \"#utility.yul\":4851:4856   */\n      dup4\n        /* \"#utility.yul\":4847:4863   */\n      add\n        /* \"#utility.yul\":4841:4864   */\n      mload\n        /* \"#utility.yul\":4911:4914   */\n      dup5\n        /* \"#utility.yul\":4905:4909   */\n      dup3\n        /* \"#utility.yul\":4901:4915   */\n      sub\n        /* \"#utility.yul\":4894:4898   */\n      0x00\n        /* \"#utility.yul\":4889:4892   */\n      dup7\n        /* \"#utility.yul\":4885:4899   */\n      add\n        /* \"#utility.yul\":4878:4916   */\n      mstore\n        /* \"#utility.yul\":4937:5010   */\n      tag_144\n        /* \"#utility.yul\":5005:5009   */\n      dup3\n        /* \"#utility.yul\":4991:5003   */\n      dup3\n        /* \"#utility.yul\":4937:5010   */\n      tag_68\n      jump\t// in\n    tag_144:\n        /* \"#utility.yul\":4929:5010   */\n      swap2\n      pop\n        /* \"#utility.yul\":4786:5021   */\n      pop\n        /* \"#utility.yul\":5105:5109   */\n      0x20\n        /* \"#utility.yul\":5098:5103   */\n      dup4\n        /* \"#utility.yul\":5094:5110   */\n      add\n        /* \"#utility.yul\":5088:5111   */\n      mload\n        /* \"#utility.yul\":5124:5187   */\n      tag_145\n        /* \"#utility.yul\":5181:5185   */\n      0x20\n        /* \"#utility.yul\":5176:5179   */\n      dup7\n        /* \"#utility.yul\":5172:5186   */\n      add\n        /* \"#utility.yul\":5158:5170   */\n      dup3\n        /* \"#utility.yul\":5124:5187   */\n      tag_69\n      jump\t// in\n    tag_145:\n        /* \"#utility.yul\":5031:5197   */\n      pop\n        /* \"#utility.yul\":5214:5218   */\n      dup1\n        /* \"#utility.yul\":5207:5218   */\n      swap2\n      pop\n        /* \"#utility.yul\":4740:5224   */\n      pop\n        /* \"#utility.yul\":4622:5224   */\n      swap3\n      swap2\n      pop\n      pop\n      jump\t// out\n        /* \"#utility.yul\":5230:6089   */\n    tag_17:\n        /* \"#utility.yul\":5511:5515   */\n      0x00\n        /* \"#utility.yul\":5549:5551   */\n      0x60\n        /* \"#utility.yul\":5538:5547   */\n      dup3\n        /* \"#utility.yul\":5534:5552   */\n      add\n        /* \"#utility.yul\":5526:5552   */\n      swap1\n      pop\n        /* \"#utility.yul\":5598:5607   */\n      dup2\n        /* \"#utility.yul\":5592:5596   */\n      dup2\n        /* \"#utility.yul\":5588:5608   */\n      sub\n        /* \"#utility.yul\":5584:5585   */\n      0x00\n        /* \"#utility.yul\":5573:5582   */\n      dup4\n        /* \"#utility.yul\":5569:5586   */\n      add\n        /* \"#utility.yul\":5562:5609   */\n      mstore\n        /* \"#utility.yul\":5626:5728   */\n      tag_147\n        /* \"#utility.yul\":5723:5727   */\n      dup2\n        /* \"#utility.yul\":5714:5720   */\n      dup7\n        /* \"#utility.yul\":5626:5728   */\n      tag_70\n      jump\t// in\n    tag_147:\n        /* \"#utility.yul\":5618:5728   */\n      swap1\n      pop\n        /* \"#utility.yul\":5775:5784   */\n      dup2\n        /* \"#utility.yul\":5769:5773   */\n      dup2\n        /* \"#utility.yul\":5765:5785   */\n      sub\n        /* \"#utility.yul\":5760:5762   */\n      0x20\n        /* \"#utility.yul\":5749:5758   */\n      dup4\n        /* \"#utility.yul\":5745:5763   */\n      add\n        /* \"#utility.yul\":5738:5786   */\n      mstore\n        /* \"#utility.yul\":5803:5905   */\n      tag_148\n        /* \"#utility.yul\":5900:5904   */\n      dup2\n        /* \"#utility.yul\":5891:5897   */\n      dup6\n        /* \"#utility.yul\":5803:5905   */\n      tag_70\n      jump\t// in\n    tag_148:\n        /* \"#utility.yul\":5795:5905   */\n      swap1\n      pop\n        /* \"#utility.yul\":5952:5961   */\n      dup2\n        /* \"#utility.yul\":5946:5950   */\n      dup2\n        /* \"#utility.yul\":5942:5962   */\n      sub\n        /* \"#utility.yul\":5937:5939   */\n      0x40\n        /* \"#utility.yul\":5926:5935   */\n      dup4\n        /* \"#utility.yul\":5922:5940   */\n      add\n        /* \"#utility.yul\":5915:5963   */\n      mstore\n        /* \"#utility.yul\":5980:6082   */\n      tag_149\n        /* \"#utility.yul\":6077:6081   */\n      dup2\n        /* \"#utility.yul\":6068:6074   */\n      dup5\n        /* \"#utility.yul\":5980:6082   */\n      tag_70\n      jump\t// in\n    tag_149:\n        /* \"#utility.yul\":5972:6082   */\n      swap1\n      pop\n        /* \"#utility.yul\":5230:6089   */\n      swap5\n      swap4\n      pop\n      pop\n      pop\n      pop\n      jump\t// out\n        /* \"#utility.yul\":6095:6275   */\n    tag_71:\n        /* \"#utility.yul\":6143:6220   */\n      0x4e487b7100000000000000000000000000000000000000000000000000000000\n        /* \"#utility.yul\":6140:6141   */\n      0x00\n        /* \"#utility.yul\":6133:6221   */\n      mstore\n        /* \"#utility.yul\":6240:6244   */\n      0x22\n        /* \"#utility.yul\":6237:6238   */\n      0x04\n        /* \"#utility.yul\":6230:6245   */\n      mstore\n        /* \"#utility.yul\":6264:6268   */\n      0x24\n        /* \"#utility.yul\":6261:6262   */\n      0x00\n        /* \"#utility.yul\":6254:6269   */\n      revert\n        /* \"#utility.yul\":6281:6601   */\n    tag_32:\n        /* \"#utility.yul\":6325:6331   */\n      0x00\n        /* \"#utility.yul\":6362:6363   */\n      0x02\n        /* \"#utility.yul\":6356:6360   */\n      dup3\n        /* \"#utility.yul\":6352:6364   */\n      div\n        /* \"#utility.yul\":6342:6364   */\n      swap1\n      pop\n        /* \"#utility.yul\":6409:6410   */\n      0x01\n        /* \"#utility.yul\":6403:6407   */\n      dup3\n        /* \"#utility.yul\":6399:6411   */\n      and\n        /* \"#utility.yul\":6430:6448   */\n      dup1\n        /* \"#utility.yul\":6420:6501   */\n      tag_152\n      jumpi\n        /* \"#utility.yul\":6486:6490   */\n      0x7f\n        /* \"#utility.yul\":6478:6484   */\n      dup3\n        /* \"#utility.yul\":6474:6491   */\n      and\n        /* \"#utility.yul\":6464:6491   */\n      swap2\n      pop\n        /* \"#utility.yul\":6420:6501   */\n    tag_152:\n        /* \"#utility.yul\":6548:6550   */\n      0x20\n        /* \"#utility.yul\":6540:6546   */\n      dup3\n        /* \"#utility.yul\":6537:6551   */\n      lt\n        /* \"#utility.yul\":6517:6535   */\n      dup2\n        /* \"#utility.yul\":6514:6552   */\n      sub\n        /* \"#utility.yul\":6511:6595   */\n      tag_153\n      jumpi\n        /* \"#utility.yul\":6567:6585   */\n      tag_154\n      tag_71\n      jump\t// in\n    tag_154:\n        /* \"#utility.yul\":6511:6595   */\n    tag_153:\n        /* \"#utility.yul\":6332:6601   */\n      pop\n        /* \"#utility.yul\":6281:6601   */\n      swap2\n      swap1\n      pop\n      jump\t// out\n        /* \"#utility.yul\":6607:6748   */\n    tag_72:\n        /* \"#utility.yul\":6656:6660   */\n      0x00\n        /* \"#utility.yul\":6679:6682   */\n      dup2\n        /* \"#utility.yul\":6671:6682   */\n      swap1\n      pop\n        /* \"#utility.yul\":6702:6705   */\n      dup2\n        /* \"#utility.yul\":6699:6700   */\n      0x00\n        /* \"#utility.yul\":6692:6706   */\n      mstore\n        /* \"#utility.yul\":6736:6740   */\n      0x20\n        /* \"#utility.yul\":6733:6734   */\n      0x00\n        /* \"#utility.yul\":6723:6741   */\n      keccak256\n        /* \"#utility.yul\":6715:6741   */\n      swap1\n      pop\n        /* \"#utility.yul\":6607:6748   */\n      swap2\n      swap1\n      pop\n      jump\t// out\n        /* \"#utility.yul\":6754:6847   */\n    tag_73:\n        /* \"#utility.yul\":6791:6797   */\n      0x00\n        /* \"#utility.yul\":6838:6840   */\n      0x20\n        /* \"#utility.yul\":6833:6835   */\n      0x1f\n        /* \"#utility.yul\":6826:6831   */\n      dup4\n        /* \"#utility.yul\":6822:6836   */\n      add\n        /* \"#utility.yul\":6818:6841   */\n      div\n        /* \"#utility.yul\":6808:6841   */\n      swap1\n      pop\n        /* \"#utility.yul\":6754:6847   */\n      swap2\n      swap1\n      pop\n      jump\t// out\n        /* \"#utility.yul\":6853:6960   */\n    tag_74:\n        /* \"#utility.yul\":6897:6905   */\n      0x00\n        /* \"#utility.yul\":6947:6952   */\n      dup3\n        /* \"#utility.yul\":6941:6945   */\n      dup3\n        /* \"#utility.yul\":6937:6953   */\n      shl\n        /* \"#utility.yul\":6916:6953   */\n      swap1\n      pop\n        /* \"#utility.yul\":6853:6960   */\n      swap3\n      swap2\n      pop\n      pop\n      jump\t// out\n        /* \"#utility.yul\":6966:7359   */\n    tag_75:\n        /* \"#utility.yul\":7035:7041   */\n      0x00\n        /* \"#utility.yul\":7085:7086   */\n      0x08\n        /* \"#utility.yul\":7073:7083   */\n      dup4\n        /* \"#utility.yul\":7069:7087   */\n      mul\n        /* \"#utility.yul\":7108:7205   */\n      tag_159\n        /* \"#utility.yul\":7138:7204   */\n      0xffffffffffffffffffffffffffffffffffffffffffffffffffffffffffffffff\n        /* \"#utility.yul\":7127:7136   */\n      dup3\n        /* \"#utility.yul\":7108:7205   */\n      tag_74\n      jump\t// in\n    tag_159:\n        /* \"#utility.yul\":7226:7265   */\n      tag_160\n        /* \"#utility.yul\":7256:7264   */\n      dup7\n        /* \"#utility.yul\":7245:7254   */\n      dup4\n        /* \"#utility.yul\":7226:7265   */\n      tag_74\n      jump\t// in\n    tag_160:\n        /* \"#utility.yul\":7214:7265   */\n      swap6\n      pop\n        /* \"#utility.yul\":7298:7302   */\n      dup1\n        /* \"#utility.yul\":7294:7303   */\n      not\n        /* \"#utility.yul\":7287:7292   */\n      dup5\n        /* \"#utility.yul\":7283:7304   */\n      and\n        /* \"#utility.yul\":7274:7304   */\n      swap4\n      pop\n        /* \"#utility.yul\":7347:7351   */\n      dup1\n        /* \"#utility.yul\":7337:7345   */\n      dup7\n        /* \"#utility.yul\":7333:7352   */\n      and\n        /* \"#utility.yul\":7326:7331   */\n      dup5\n        /* \"#utility.yul\":7323:7353   */\n      or\n        /* \"#utility.yul\":7313:7353   */\n      swap3\n      pop\n        /* \"#utility.yul\":7042:7359   */\n      pop\n      pop\n        /* \"#utility.yul\":6966:7359   */\n      swap4\n      swap3\n      pop\n      pop\n      pop\n      jump\t// out\n        /* \"#utility.yul\":7365:7425   */\n    tag_76:\n        /* \"#utility.yul\":7393:7396   */\n      0x00\n        /* \"#utility.yul\":7414:7419   */\n      dup2\n        /* \"#utility.yul\":7407:7419   */\n      swap1\n      pop\n        /* \"#utility.yul\":7365:7425   */\n      swap2\n      swap1\n      pop\n      jump\t// out\n        /* \"#utility.yul\":7431:7573   */\n    tag_77:\n        /* \"#utility.yul\":7481:7490   */\n      0x00\n        /* \"#utility.yul\":7514:7567   */\n      tag_163\n        /* \"#utility.yul\":7532:7566   */\n      tag_164\n        /* \"#utility.yul\":7541:7565   */\n      tag_165\n        /* \"#utility.yul\":7559:7564   */\n      dup5\n        /* \"#utility.yul\":7541:7565   */\n      tag_62\n      jump\t// in\n    tag_165:\n        /* \"#utility.yul\":7532:7566   */\n      tag_76\n      jump\t// in\n    tag_164:\n        /* \"#utility.yul\":7514:7567   */\n      tag_62\n      jump\t// in\n    tag_163:\n        /* \"#utility.yul\":7501:7567   */\n      swap1\n      pop\n        /* \"#utility.yul\":7431:7573   */\n      swap2\n      swap1\n      pop\n      jump\t// out\n        /* \"#utility.yul\":7579:7654   */\n    tag_78:\n        /* \"#utility.yul\":7622:7625   */\n      0x00\n        /* \"#utility.yul\":7643:7648   */\n      dup2\n        /* \"#utility.yul\":7636:7648   */\n      swap1\n      pop\n        /* \"#utility.yul\":7579:7654   */\n      swap2\n      swap1\n      pop\n      jump\t// out\n        /* \"#utility.yul\":7660:7929   */\n    tag_79:\n        /* \"#utility.yul\":7770:7809   */\n      tag_168\n        /* \"#utility.yul\":7801:7808   */\n      dup4\n        /* \"#utility.yul\":7770:7809   */\n      tag_77\n      jump\t// in\n    tag_168:\n        /* \"#utility.yul\":7831:7922   */\n      tag_169\n        /* \"#utility.yul\":7880:7921   */\n      tag_170\n        /* \"#utility.yul\":7904:7920   */\n      dup3\n        /* \"#utility.yul\":7880:7921   */\n      tag_78\n      jump\t// in\n    tag_170:\n        /* \"#utility.yul\":7872:7878   */\n      dup5\n        /* \"#utility.yul\":7865:7869   */\n      dup5\n        /* \"#utility.yul\":7859:7870   */\n      sload\n        /* \"#utility.yul\":7831:7922   */\n      tag_75\n      jump\t// in\n    tag_169:\n        /* \"#utility.yul\":7825:7829   */\n      dup3\n        /* \"#utility.yul\":7818:7923   */\n      sstore\n        /* \"#utility.yul\":7736:7929   */\n      pop\n        /* \"#utility.yul\":7660:7929   */\n      pop\n      pop\n      pop\n      jump\t// out\n        /* \"#utility.yul\":7935:8008   */\n    tag_80:\n        /* \"#utility.yul\":7980:7983   */\n      0x00\n        /* \"#utility.yul\":7935:8008   */\n      swap1\n      jump\t// out\n        /* \"#utility.yul\":8014:8203   */\n    tag_81:\n        /* \"#utility.yul\":8091:8123   */\n      tag_173\n      tag_80\n      jump\t// in\n    tag_173:\n        /* \"#utility.yul\":8132:8197   */\n      tag_174\n        /* \"#utility.yul\":8190:8196   */\n      dup2\n        /* \"#utility.yul\":8182:8188   */\n      dup5\n        /* \"#utility.yul\":8176:8180   */\n      dup5\n        /* \"#utility.yul\":8132:8197   */\n      tag_79\n      jump\t// in\n    tag_174:\n        /* \"#utility.yul\":8067:8203   */\n      pop\n        /* \"#utility.yul\":8014:8203   */\n      pop\n      pop\n      jump\t// out\n        /* \"#utility.yul\":8209:8395   */\n    tag_82:\n        /* \"#utility.yul\":8269:8389   */\n    tag_176:\n        /* \"#utility.yul\":8286:8289   */\n      dup2\n        /* \"#utility.yul\":8279:8284   */\n      dup2\n        /* \"#utility.yul\":8276:8290   */\n      lt\n        /* \"#utility.yul\":8269:8389   */\n      iszero\n      tag_178\n      jumpi\n        /* \"#utility.yul\":8340:8379   */\n      tag_179\n        /* \"#utility.yul\":8377:8378   */\n      0x00\n        /* \"#utility.yul\":8370:8375   */\n      dup3\n        /* \"#utility.yul\":8340:8379   */\n      tag_81\n      jump\t// in\n    tag_179:\n        /* \"#utility.yul\":8313:8314   */\n      0x01\n        /* \"#utility.yul\":8306:8311   */\n      dup2\n        /* \"#utility.yul\":8302:8315   */\n      add\n        /* \"#utility.yul\":8293:8315   */\n      swap1\n      pop\n        /* \"#utility.yul\":8269:8389   */\n      jump(tag_176)\n    tag_178:\n        /* \"#utility.yul\":8209:8395   */\n      pop\n      pop\n      jump\t// out\n        /* \"#utility.yul\":8401:8944   */\n    tag_83:\n        /* \"#utility.yul\":8502:8504   */\n      0x1f\n        /* \"#utility.yul\":8497:8500   */\n      dup3\n        /* \"#utility.yul\":8494:8505   */\n      gt\n        /* \"#utility.yul\":8491:8937   */\n      iszero\n      tag_181\n      jumpi\n        /* \"#utility.yul\":8536:8574   */\n      tag_182\n        /* \"#utility.yul\":8568:8573   */\n      dup2\n        /* \"#utility.yul\":8536:8574   */\n      tag_72\n      jump\t// in\n    tag_182:\n        /* \"#utility.yul\":8620:8649   */\n      tag_183\n        /* \"#utility.yul\":8638:8648   */\n      dup5\n        /* \"#utility.yul\":8620:8649   */\n      tag_73\n      jump\t// in\n    tag_183:\n        /* \"#utility.yul\":8610:8618   */\n      dup2\n        /* \"#utility.yul\":8606:8650   */\n      add\n        /* \"#utility.yul\":8803:8805   */\n      0x20\n        /* \"#utility.yul\":8791:8801   */\n      dup6\n        /* \"#utility.yul\":8788:8806   */\n      lt\n        /* \"#utility.yul\":8785:8834   */\n      iszero\n      tag_184\n      jumpi\n        /* \"#utility.yul\":8824:8832   */\n      dup2\n        /* \"#utility.yul\":8809:8832   */\n      swap1\n      pop\n        /* \"#utility.yul\":8785:8834   */\n    tag_184:\n        /* \"#utility.yul\":8847:8927   */\n      tag_185\n        /* \"#utility.yul\":8903:8925   */\n      tag_186\n        /* \"#utility.yul\":8921:8924   */\n      dup6\n        /* \"#utility.yul\":8903:8925   */\n      tag_73\n      jump\t// in\n    tag_186:\n        /* \"#utility.yul\":8893:8901   */\n      dup4\n        /* \"#utility.yul\":8889:8926   */\n      add\n        /* \"#utility.yul\":8876:8887   */\n      dup3\n        /* \"#utility.yul\":8847:8927   */\n      tag_82\n      jump\t// in\n    tag_185:\n        /* \"#utility.yul\":8506:8937   */\n      pop\n      pop\n        /* \"#utility.yul\":8491:8937   */\n    tag_181:\n        /* \"#utility.yul\":8401:8944   */\n      pop\n      pop\n      pop\n      jump\t// out\n        /* \"#utility.yul\":8950:9067   */\n    tag_84:\n        /* \"#utility.yul\":9004:9012   */\n      0x00\n        /* \"#utility.yul\":9054:9059   */\n      dup3\n        /* \"#utility.yul\":9048:9052   */\n      dup3\n        /* \"#utility.yul\":9044:9060   */\n      shr\n        /* \"#utility.yul\":9023:9060   */\n      swap1\n      pop\n        /* \"#utility.yul\":8950:9067   */\n      swap3\n      swap2\n      pop\n      pop\n      jump\t// out\n        /* \"#utility.yul\":9073:9242   */\n    tag_85:\n        /* \"#utility.yul\":9117:9123   */\n      0x00\n        /* \"#utility.yul\":9150:9201   */\n      tag_189\n        /* \"#utility.yul\":9198:9199   */\n      0x00\n        /* \"#utility.yul\":9194:9200   */\n      not\n        /* \"#utility.yul\":9186:9191   */\n      dup5\n        /* \"#utility.yul\":9183:9184   */\n      0x08\n        /* \"#utility.yul\":9179:9192   */\n      mul\n        /* \"#utility.yul\":9150:9201   */\n      tag_84\n      jump\t// in\n    tag_189:\n        /* \"#utility.yul\":9146:9202   */\n      not\n        /* \"#utility.yul\":9231:9235   */\n      dup1\n        /* \"#utility.yul\":9225:9229   */\n      dup4\n        /* \"#utility.yul\":9221:9236   */\n      and\n        /* \"#utility.yul\":9211:9236   */\n      swap2\n      pop\n        /* \"#utility.yul\":9124:9242   */\n      pop\n        /* \"#utility.yul\":9073:9242   */\n      swap3\n      swap2\n      pop\n      pop\n      jump\t// out\n        /* \"#utility.yul\":9247:9542   */\n    tag_86:\n        /* \"#utility.yul\":9323:9327   */\n      0x00\n        /* \"#utility.yul\":9469:9498   */\n      tag_191\n        /* \"#utility.yul\":9494:9497   */\n      dup4\n        /* \"#utility.yul\":9488:9492   */\n      dup4\n        /* \"#utility.yul\":9469:9498   */\n      tag_85\n      jump\t// in\n    tag_191:\n        /* \"#utility.yul\":9461:9498   */\n      swap2\n      pop\n        /* \"#utility.yul\":9531:9534   */\n      dup3\n        /* \"#utility.yul\":9528:9529   */\n      0x02\n        /* \"#utility.yul\":9524:9535   */\n      mul\n        /* \"#utility.yul\":9518:9522   */\n      dup3\n        /* \"#utility.yul\":9515:9536   */\n      or\n        /* \"#utility.yul\":9507:9536   */\n      swap1\n      pop\n        /* \"#utility.yul\":9247:9542   */\n      swap3\n      swap2\n      pop\n      pop\n      jump\t// out\n        /* \"#utility.yul\":9547:10942   */\n    tag_23:\n        /* \"#utility.yul\":9664:9701   */\n      tag_193\n        /* \"#utility.yul\":9697:9700   */\n      dup3\n        /* \"#utility.yul\":9664:9701   */\n      tag_65\n      jump\t// in\n    tag_193:\n        /* \"#utility.yul\":9766:9784   */\n      0xffffffffffffffff\n        /* \"#utility.yul\":9758:9764   */\n      dup2\n        /* \"#utility.yul\":9755:9785   */\n      gt\n        /* \"#utility.yul\":9752:9808   */\n      iszero\n      tag_194\n      jumpi\n        /* \"#utility.yul\":9788:9806   */\n      tag_195\n      tag_55\n      jump\t// in\n    tag_195:\n        /* \"#utility.yul\":9752:9808   */\n    tag_194:\n        /* \"#utility.yul\":9832:9870   */\n      tag_196\n        /* \"#utility.yul\":9864:9868   */\n      dup3\n        /* \"#utility.yul\":9858:9869   */\n      sload\n        /* \"#utility.yul\":9832:9870   */\n      tag_32\n      jump\t// in\n    tag_196:\n        /* \"#utility.yul\":9917:9984   */\n      tag_197\n        /* \"#utility.yul\":9977:9983   */\n      dup3\n        /* \"#utility.yul\":9969:9975   */\n      dup3\n        /* \"#utility.yul\":9963:9967   */\n      dup6\n        /* \"#utility.yul\":9917:9984   */\n      tag_83\n      jump\t// in\n    tag_197:\n        /* \"#utility.yul\":10011:10012   */\n      0x00\n        /* \"#utility.yul\":10035:10039   */\n      0x20\n        /* \"#utility.yul\":10022:10039   */\n      swap1\n      pop\n        /* \"#utility.yul\":10067:10069   */\n      0x1f\n        /* \"#utility.yul\":10059:10065   */\n      dup4\n        /* \"#utility.yul\":10056:10070   */\n      gt\n        /* \"#utility.yul\":10084:10085   */\n      0x01\n        /* \"#utility.yul\":10079:10697   */\n      dup2\n      eq\n      tag_199\n      jumpi\n        /* \"#utility.yul\":10741:10742   */\n      0x00\n        /* \"#utility.yul\":10758:10764   */\n      dup5\n        /* \"#utility.yul\":10755:10832   */\n      iszero\n      tag_200\n      jumpi\n        /* \"#utility.yul\":10807:10816   */\n      dup3\n        /* \"#utility.yul\":10802:10805   */\n      dup8\n        /* \"#utility.yul\":10798:10817   */\n      add\n        /* \"#utility.yul\":10792:10818   */\n      mload\n        /* \"#utility.yul\":10783:10818   */\n      swap1\n      pop\n        /* \"#utility.yul\":10755:10832   */\n    tag_200:\n        /* \"#utility.yul\":10858:10925   */\n      tag_201\n        /* \"#utility.yul\":10918:10924   */\n      dup6\n        /* \"#utility.yul\":10911:10916   */\n      dup3\n        /* \"#utility.yul\":10858:10925   */\n      tag_86\n      jump\t// in\n    tag_201:\n        /* \"#utility.yul\":10852:10856   */\n      dup7\n        /* \"#utility.yul\":10845:10926   */\n      sstore\n        /* \"#utility.yul\":10714:10936   */\n      pop\n        /* \"#utility.yul\":10049:10936   */\n      jump(tag_198)\n        /* \"#utility.yul\":10079:10697   */\n    tag_199:\n        /* \"#utility.yul\":10131:10135   */\n      0x1f\n        /* \"#utility.yul\":10127:10136   */\n      not\n        /* \"#utility.yul\":10119:10125   */\n      dup5\n        /* \"#utility.yul\":10115:10137   */\n      and\n        /* \"#utility.yul\":10165:10202   */\n      tag_202\n        /* \"#utility.yul\":10197:10201   */\n      dup7\n        /* \"#utility.yul\":10165:10202   */\n      tag_72\n      jump\t// in\n    tag_202:\n        /* \"#utility.yul\":10224:10225   */\n      0x00\n        /* \"#utility.yul\":10238:10446   */\n    tag_203:\n        /* \"#utility.yul\":10252:10259   */\n      dup3\n        /* \"#utility.yul\":10249:10250   */\n      dup2\n        /* \"#utility.yul\":10246:10260   */\n      lt\n        /* \"#utility.yul\":10238:10446   */\n      iszero\n      tag_205\n      jumpi\n        /* \"#utility.yul\":10331:10340   */\n      dup5\n        /* \"#utility.yul\":10326:10329   */\n      dup10\n        /* \"#utility.yul\":10322:10341   */\n      add\n        /* \"#utility.yul\":10316:10342   */\n      mload\n        /* \"#utility.yul\":10308:10314   */\n      dup3\n        /* \"#utility.yul\":10301:10343   */\n      sstore\n        /* \"#utility.yul\":10382:10383   */\n      0x01\n        /* \"#utility.yul\":10374:10380   */\n      dup3\n        /* \"#utility.yul\":10370:10384   */\n      add\n        /* \"#utility.yul\":10360:10384   */\n      swap2\n      pop\n        /* \"#utility.yul\":10429:10431   */\n      0x20\n        /* \"#utility.yul\":10418:10427   */\n      dup6\n        /* \"#utility.yul\":10414:10432   */\n      add\n        /* \"#utility.yul\":10401:10432   */\n      swap5\n      pop\n        /* \"#utility.yul\":10275:10279   */\n      0x20\n        /* \"#utility.yul\":10272:10273   */\n      dup2\n        /* \"#utility.yul\":10268:10280   */\n      add\n        /* \"#utility.yul\":10263:10280   */\n      swap1\n      pop\n        /* \"#utility.yul\":10238:10446   */\n      jump(tag_203)\n    tag_205:\n        /* \"#utility.yul\":10474:10480   */\n      dup7\n        /* \"#utility.yul\":10465:10472   */\n      dup4\n        /* \"#utility.yul\":10462:10481   */\n      lt\n        /* \"#utility.yul\":10459:10638   */\n      iszero\n      tag_206\n      jumpi\n        /* \"#utility.yul\":10532:10541   */\n      dup5\n        /* \"#utility.yul\":10527:10530   */\n      dup10\n        /* \"#utility.yul\":10523:10542   */\n      add\n        /* \"#utility.yul\":10517:10543   */\n      mload\n        /* \"#utility.yul\":10575:10623   */\n      tag_207\n        /* \"#utility.yul\":10617:10621   */\n      0x1f\n        /* \"#utility.yul\":10609:10615   */\n      dup10\n        /* \"#utility.yul\":10605:10622   */\n      and\n        /* \"#utility.yul\":10594:10603   */\n      dup3\n        /* \"#utility.yul\":10575:10623   */\n      tag_85\n      jump\t// in\n    tag_207:\n        /* \"#utility.yul\":10567:10573   */\n      dup4\n        /* \"#utility.yul\":10560:10624   */\n      sstore\n        /* \"#utility.yul\":10482:10638   */\n      pop\n        /* \"#utility.yul\":10459:10638   */\n    tag_206:\n        /* \"#utility.yul\":10684:10685   */\n      0x01\n        /* \"#utility.yul\":10680:10681   */\n      0x02\n        /* \"#utility.yul\":10672:10678   */\n      dup9\n        /* \"#utility.yul\":10668:10682   */\n      mul\n        /* \"#utility.yul\":10664:10686   */\n      add\n        /* \"#utility.yul\":10658:10662   */\n      dup9\n        /* \"#utility.yul\":10651:10687   */\n      sstore\n        /* \"#utility.yul\":10086:10697   */\n      pop\n      pop\n      pop\n        /* \"#utility.yul\":10049:10936   */\n    tag_198:\n      pop\n        /* \"#utility.yul\":9639:10942   */\n      pop\n      pop\n      pop\n        /* \"#utility.yul\":9547:10942   */\n      pop\n      pop\n      jump\t// out\n\n    auxdata: 0xa2646970667358221220b314297b388d9cf10c9bc5b2ba698180903dc7678a8b7abbfad48ccc7d8dae6764736f6c63430008160033\n}\n",
				"bytecode": {
					"linkReferences": {},
					"object": "608060405234801561000f575f80fd5b506109778061001d5f395ff3fe608060405234801561000f575f80fd5b506004361061004a575f3560e01c80636179e1171461004e57806392cc178a1461006a578063b439548d14610086578063dcd04806146100a6575b5f80fd5b61006860048036038101906100639190610511565b6100c2565b005b610084600480360381019061007f9190610511565b6100fe565b005b61008e61013a565b60405161009d9392919061062e565b60405180910390f35b6100c060048036038101906100bb9190610511565b610358565b005b60405180604001604052808381526020018281525060055f820151815f0190816100ec9190610872565b50602082015181600101559050505050565b60405180604001604052808381526020018281525060015f820151815f0190816101289190610872565b50602082015181600101559050505050565b610142610378565b61014a610378565b610152610378565b600160036005826040518060400160405290815f82018054610173906106a5565b80601f016020809104026020016040519081016040528092919081815260200182805461019f906106a5565b80156101ea5780601f106101c1576101008083540402835291602001916101ea565b820191905f5260205f20905b8154815290600101906020018083116101cd57829003601f168201915b505050505081526020016001820154815250509250816040518060400160405290815f8201805461021a906106a5565b80601f0160208091040260200160405190810160405280929190818152602001828054610246906106a5565b80156102915780601f1061026857610100808354040283529160200191610291565b820191905f5260205f20905b81548152906001019060200180831161027457829003601f168201915b505050505081526020016001820154815250509150806040518060400160405290815f820180546102c1906106a5565b80601f01602080910402602001604051908101604052809291908181526020018280546102ed906106a5565b80156103385780601f1061030f57610100808354040283529160200191610338565b820191905f5260205f20905b81548152906001019060200180831161031b57829003601f168201915b505050505081526020016001820154815250509050925092509250909192565b8160035f0190816103699190610872565b50806003600101819055505050565b6040518060400160405280606081526020015f81525090565b5f604051905090565b5f80fd5b5f80fd5b5f80fd5b5f80fd5b5f601f19601f8301169050919050565b7f4e487b71000000000000000000000000000000000000000000000000000000005f52604160045260245ffd5b6103f0826103aa565b810181811067ffffffffffffffff8211171561040f5761040e6103ba565b5b80604052505050565b5f610421610391565b905061042d82826103e7565b919050565b5f67ffffffffffffffff82111561044c5761044b6103ba565b5b610455826103aa565b9050602081019050919050565b828183375f83830152505050565b5f61048261047d84610432565b610418565b90508281526020810184848401111561049e5761049d6103a6565b5b6104a9848285610462565b509392505050565b5f82601f8301126104c5576104c46103a2565b5b81356104d5848260208601610470565b91505092915050565b5f819050919050565b6104f0816104de565b81146104fa575f80fd5b50565b5f8135905061050b816104e7565b92915050565b5f80604083850312156105275761052661039a565b5b5f83013567ffffffffffffffff8111156105445761054361039e565b5b610550858286016104b1565b9250506020610561858286016104fd565b9150509250929050565b5f81519050919050565b5f82825260208201905092915050565b5f5b838110156105a2578082015181840152602081019050610587565b5f8484015250505050565b5f6105b78261056b565b6105c18185610575565b93506105d1818560208601610585565b6105da816103aa565b840191505092915050565b6105ee816104de565b82525050565b5f604083015f8301518482035f86015261060e82826105ad565b915050602083015161062360208601826105e5565b508091505092915050565b5f6060820190508181035f83015261064681866105f4565b9050818103602083015261065a81856105f4565b9050818103604083015261066e81846105f4565b9050949350505050565b7f4e487b71000000000000000000000000000000000000000000000000000000005f52602260045260245ffd5b5f60028204905060018216806106bc57607f821691505b6020821081036106cf576106ce610678565b5b50919050565b5f819050815f5260205f209050919050565b5f6020601f8301049050919050565b5f82821b905092915050565b5f600883026107317fffffffffffffffffffffffffffffffffffffffffffffffffffffffffffffffff826106f6565b61073b86836106f6565b95508019841693508086168417925050509392505050565b5f819050919050565b5f61077661077161076c846104de565b610753565b6104de565b9050919050565b5f819050919050565b61078f8361075c565b6107a361079b8261077d565b848454610702565b825550505050565b5f90565b6107b76107ab565b6107c2818484610786565b505050565b5b818110156107e5576107da5f826107af565b6001810190506107c8565b5050565b601f82111561082a576107fb816106d5565b610804846106e7565b81016020851015610813578190505b61082761081f856106e7565b8301826107c7565b50505b505050565b5f82821c905092915050565b5f61084a5f198460080261082f565b1980831691505092915050565b5f610862838361083b565b9150826002028217905092915050565b61087b8261056b565b67ffffffffffffffff811115610894576108936103ba565b5b61089e82546106a5565b6108a98282856107e9565b5f60209050601f8311600181146108da575f84156108c8578287015190505b6108d28582610857565b865550610939565b601f1984166108e8866106d5565b5f5b8281101561090f578489015182556001820191506020850194506020810190506108ea565b8683101561092c5784890151610928601f89168261083b565b8355505b6001600288020188555050505b50505050505056fea2646970667358221220b314297b388d9cf10c9bc5b2ba698180903dc7678a8b7abbfad48ccc7d8dae6764736f6c63430008160033",
					"opcodes": "PUSH1 0x80 PUSH1 0x40 MSTORE CALLVALUE DUP1 ISZERO PUSH2 0xF JUMPI PUSH0 DUP1 REVERT JUMPDEST POP PUSH2 0x977 DUP1 PUSH2 0x1D PUSH0 CODECOPY PUSH0 RETURN INVALID PUSH1 0x80 PUSH1 0x40 MSTORE CALLVALUE DUP1 ISZERO PUSH2 0xF JUMPI PUSH0 DUP1 REVERT JUMPDEST POP PUSH1 0x4 CALLDATASIZE LT PUSH2 0x4A JUMPI PUSH0 CALLDATALOAD PUSH1 0xE0 SHR DUP1 PUSH4 0x6179E117 EQ PUSH2 0x4E JUMPI DUP1 PUSH4 0x92CC178A EQ PUSH2 0x6A JUMPI DUP1 PUSH4 0xB439548D EQ PUSH2 0x86 JUMPI DUP1 PUSH4 0xDCD04806 EQ PUSH2 0xA6 JUMPI JUMPDEST PUSH0 DUP1 REVERT JUMPDEST PUSH2 0x68 PUSH1 0x4 DUP1 CALLDATASIZE SUB DUP2 ADD SWAP1 PUSH2 0x63 SWAP2 SWAP1 PUSH2 0x511 JUMP JUMPDEST PUSH2 0xC2 JUMP JUMPDEST STOP JUMPDEST PUSH2 0x84 PUSH1 0x4 DUP1 CALLDATASIZE SUB DUP2 ADD SWAP1 PUSH2 0x7F SWAP2 SWAP1 PUSH2 0x511 JUMP JUMPDEST PUSH2 0xFE JUMP JUMPDEST STOP JUMPDEST PUSH2 0x8E PUSH2 0x13A JUMP JUMPDEST PUSH1 0x40 MLOAD PUSH2 0x9D SWAP4 SWAP3 SWAP2 SWAP1 PUSH2 0x62E JUMP JUMPDEST PUSH1 0x40 MLOAD DUP1 SWAP2 SUB SWAP1 RETURN JUMPDEST PUSH2 0xC0 PUSH1 0x4 DUP1 CALLDATASIZE SUB DUP2 ADD SWAP1 PUSH2 0xBB SWAP2 SWAP1 PUSH2 0x511 JUMP JUMPDEST PUSH2 0x358 JUMP JUMPDEST STOP JUMPDEST PUSH1 0x40 MLOAD DUP1 PUSH1 0x40 ADD PUSH1 0x40 MSTORE DUP1 DUP4 DUP2 MSTORE PUSH1 0x20 ADD DUP3 DUP2 MSTORE POP PUSH1 0x5 PUSH0 DUP3 ADD MLOAD DUP2 PUSH0 ADD SWAP1 DUP2 PUSH2 0xEC SWAP2 SWAP1 PUSH2 0x872 JUMP JUMPDEST POP PUSH1 0x20 DUP3 ADD MLOAD DUP2 PUSH1 0x1 ADD SSTORE SWAP1 POP POP POP POP JUMP JUMPDEST PUSH1 0x40 MLOAD DUP1 PUSH1 0x40 ADD PUSH1 0x40 MSTORE DUP1 DUP4 DUP2 MSTORE PUSH1 0x20 ADD DUP3 DUP2 MSTORE POP PUSH1 0x1 PUSH0 DUP3 ADD MLOAD DUP2 PUSH0 ADD SWAP1 DUP2 PUSH2 0x128 SWAP2 SWAP1 PUSH2 0x872 JUMP JUMPDEST POP PUSH1 0x20 DUP3 ADD MLOAD DUP2 PUSH1 0x1 ADD SSTORE SWAP1 POP POP POP POP JUMP JUMPDEST PUSH2 0x142 PUSH2 0x378 JUMP JUMPDEST PUSH2 0x14A PUSH2 0x378 JUMP JUMPDEST PUSH2 0x152 PUSH2 0x378 JUMP JUMPDEST PUSH1 0x1 PUSH1 0x3 PUSH1 0x5 DUP3 PUSH1 0x40 MLOAD DUP1 PUSH1 0x40 ADD PUSH1 0x40 MSTORE SWAP1 DUP2 PUSH0 DUP3 ADD DUP1 SLOAD PUSH2 0x173 SWAP1 PUSH2 0x6A5 JUMP JUMPDEST DUP1 PUSH1 0x1F ADD PUSH1 0x20 DUP1 SWAP2 DIV MUL PUSH1 0x20 ADD PUSH1 0x40 MLOAD SWAP1 DUP2 ADD PUSH1 0x40 MSTORE DUP1 SWAP3 SWAP2 SWAP1 DUP2 DUP2 MSTORE PUSH1 0x20 ADD DUP3 DUP1 SLOAD PUSH2 0x19F SWAP1 PUSH2 0x6A5 JUMP JUMPDEST DUP1 ISZERO PUSH2 0x1EA JUMPI DUP1 PUSH1 0x1F LT PUSH2 0x1C1 JUMPI PUSH2 0x100 DUP1 DUP4 SLOAD DIV MUL DUP4 MSTORE SWAP2 PUSH1 0x20 ADD SWAP2 PUSH2 0x1EA JUMP JUMPDEST DUP3 ADD SWAP2 SWAP1 PUSH0 MSTORE PUSH1 0x20 PUSH0 KECCAK256 SWAP1 JUMPDEST DUP2 SLOAD DUP2 MSTORE SWAP1 PUSH1 0x1 ADD SWAP1 PUSH1 0x20 ADD DUP1 DUP4 GT PUSH2 0x1CD JUMPI DUP3 SWAP1 SUB PUSH1 0x1F AND DUP3 ADD SWAP2 JUMPDEST POP POP POP POP POP DUP2 MSTORE PUSH1 0x20 ADD PUSH1 0x1 DUP3 ADD SLOAD DUP2 MSTORE POP POP SWAP3 POP DUP2 PUSH1 0x40 MLOAD DUP1 PUSH1 0x40 ADD PUSH1 0x40 MSTORE SWAP1 DUP2 PUSH0 DUP3 ADD DUP1 SLOAD PUSH2 0x21A SWAP1 PUSH2 0x6A5 JUMP JUMPDEST DUP1 PUSH1 0x1F ADD PUSH1 0x20 DUP1 SWAP2 DIV MUL PUSH1 0x20 ADD PUSH1 0x40 MLOAD SWAP1 DUP2 ADD PUSH1 0x40 MSTORE DUP1 SWAP3 SWAP2 SWAP1 DUP2 DUP2 MSTORE PUSH1 0x20 ADD DUP3 DUP1 SLOAD PUSH2 0x246 SWAP1 PUSH2 0x6A5 JUMP JUMPDEST DUP1 ISZERO PUSH2 0x291 JUMPI DUP1 PUSH1 0x1F LT PUSH2 0x268 JUMPI PUSH2 0x100 DUP1 DUP4 SLOAD DIV MUL DUP4 MSTORE SWAP2 PUSH1 0x20 ADD SWAP2 PUSH2 0x291 JUMP JUMPDEST DUP3 ADD SWAP2 SWAP1 PUSH0 MSTORE PUSH1 0x20 PUSH0 KECCAK256 SWAP1 JUMPDEST DUP2 SLOAD DUP2 MSTORE SWAP1 PUSH1 0x1 ADD SWAP1 PUSH1 0x20 ADD DUP1 DUP4 GT PUSH2 0x274 JUMPI DUP3 SWAP1 SUB PUSH1 0x1F AND DUP3 ADD SWAP2 JUMPDEST POP POP POP POP POP DUP2 MSTORE PUSH1 0x20 ADD PUSH1 0x1 DUP3 ADD SLOAD DUP2 MSTORE POP POP SWAP2 POP DUP1 PUSH1 0x40 MLOAD DUP1 PUSH1 0x40 ADD PUSH1 0x40 MSTORE SWAP1 DUP2 PUSH0 DUP3 ADD DUP1 SLOAD PUSH2 0x2C1 SWAP1 PUSH2 0x6A5 JUMP JUMPDEST DUP1 PUSH1 0x1F ADD PUSH1 0x20 DUP1 SWAP2 DIV MUL PUSH1 0x20 ADD PUSH1 0x40 MLOAD SWAP1 DUP2 ADD PUSH1 0x40 MSTORE DUP1 SWAP3 SWAP2 SWAP1 DUP2 DUP2 MSTORE PUSH1 0x20 ADD DUP3 DUP1 SLOAD PUSH2 0x2ED SWAP1 PUSH2 0x6A5 JUMP JUMPDEST DUP1 ISZERO PUSH2 0x338 JUMPI DUP1 PUSH1 0x1F LT PUSH2 0x30F JUMPI PUSH2 0x100 DUP1 DUP4 SLOAD DIV MUL DUP4 MSTORE SWAP2 PUSH1 0x20 ADD SWAP2 PUSH2 0x338 JUMP JUMPDEST DUP3 ADD SWAP2 SWAP1 PUSH0 MSTORE PUSH1 0x20 PUSH0 KECCAK256 SWAP1 JUMPDEST DUP2 SLOAD DUP2 MSTORE SWAP1 PUSH1 0x1 ADD SWAP1 PUSH1 0x20 ADD DUP1 DUP4 GT PUSH2 0x31B JUMPI DUP3 SWAP1 SUB PUSH1 0x1F AND DUP3 ADD SWAP2 JUMPDEST POP POP POP POP POP DUP2 MSTORE PUSH1 0x20 ADD PUSH1 0x1 DUP3 ADD SLOAD DUP2 MSTORE POP POP SWAP1 POP SWAP3 POP SWAP3 POP SWAP3 POP SWAP1 SWAP2 SWAP3 JUMP JUMPDEST DUP2 PUSH1 0x3 PUSH0 ADD SWAP1 DUP2 PUSH2 0x369 SWAP2 SWAP1 PUSH2 0x872 JUMP JUMPDEST POP DUP1 PUSH1 0x3 PUSH1 0x1 ADD DUP2 SWAP1 SSTORE POP POP POP JUMP JUMPDEST PUSH1 0x40 MLOAD DUP1 PUSH1 0x40 ADD PUSH1 0x40 MSTORE DUP1 PUSH1 0x60 DUP2 MSTORE PUSH1 0x20 ADD PUSH0 DUP2 MSTORE POP SWAP1 JUMP JUMPDEST PUSH0 PUSH1 0x40 MLOAD SWAP1 POP SWAP1 JUMP JUMPDEST PUSH0 DUP1 REVERT JUMPDEST PUSH0 DUP1 REVERT JUMPDEST PUSH0 DUP1 REVERT JUMPDEST PUSH0 DUP1 REVERT JUMPDEST PUSH0 PUSH1 0x1F NOT PUSH1 0x1F DUP4 ADD AND SWAP1 POP SWAP2 SWAP1 POP JUMP JUMPDEST PUSH32 0x4E487B7100000000000000000000000000000000000000000000000000000000 PUSH0 MSTORE PUSH1 0x41 PUSH1 0x4 MSTORE PUSH1 0x24 PUSH0 REVERT JUMPDEST PUSH2 0x3F0 DUP3 PUSH2 0x3AA JUMP JUMPDEST DUP2 ADD DUP2 DUP2 LT PUSH8 0xFFFFFFFFFFFFFFFF DUP3 GT OR ISZERO PUSH2 0x40F JUMPI PUSH2 0x40E PUSH2 0x3BA JUMP JUMPDEST JUMPDEST DUP1 PUSH1 0x40 MSTORE POP POP POP JUMP JUMPDEST PUSH0 PUSH2 0x421 PUSH2 0x391 JUMP JUMPDEST SWAP1 POP PUSH2 0x42D DUP3 DUP3 PUSH2 0x3E7 JUMP JUMPDEST SWAP2 SWAP1 POP JUMP JUMPDEST PUSH0 PUSH8 0xFFFFFFFFFFFFFFFF DUP3 GT ISZERO PUSH2 0x44C JUMPI PUSH2 0x44B PUSH2 0x3BA JUMP JUMPDEST JUMPDEST PUSH2 0x455 DUP3 PUSH2 0x3AA JUMP JUMPDEST SWAP1 POP PUSH1 0x20 DUP2 ADD SWAP1 POP SWAP2 SWAP1 POP JUMP JUMPDEST DUP3 DUP2 DUP4 CALLDATACOPY PUSH0 DUP4 DUP4 ADD MSTORE POP POP POP JUMP JUMPDEST PUSH0 PUSH2 0x482 PUSH2 0x47D DUP5 PUSH2 0x432 JUMP JUMPDEST PUSH2 0x418 JUMP JUMPDEST SWAP1 POP DUP3 DUP2 MSTORE PUSH1 0x20 DUP2 ADD DUP5 DUP5 DUP5 ADD GT ISZERO PUSH2 0x49E JUMPI PUSH2 0x49D PUSH2 0x3A6 JUMP JUMPDEST JUMPDEST PUSH2 0x4A9 DUP5 DUP3 DUP6 PUSH2 0x462 JUMP JUMPDEST POP SWAP4 SWAP3 POP POP POP JUMP JUMPDEST PUSH0 DUP3 PUSH1 0x1F DUP4 ADD SLT PUSH2 0x4C5 JUMPI PUSH2 0x4C4 PUSH2 0x3A2 JUMP JUMPDEST JUMPDEST DUP2 CALLDATALOAD PUSH2 0x4D5 DUP5 DUP3 PUSH1 0x20 DUP7 ADD PUSH2 0x470 JUMP JUMPDEST SWAP2 POP POP SWAP3 SWAP2 POP POP JUMP JUMPDEST PUSH0 DUP2 SWAP1 POP SWAP2 SWAP1 POP JUMP JUMPDEST PUSH2 0x4F0 DUP2 PUSH2 0x4DE JUMP JUMPDEST DUP2 EQ PUSH2 0x4FA JUMPI PUSH0 DUP1 REVERT JUMPDEST POP JUMP JUMPDEST PUSH0 DUP2 CALLDATALOAD SWAP1 POP PUSH2 0x50B DUP2 PUSH2 0x4E7 JUMP JUMPDEST SWAP3 SWAP2 POP POP JUMP JUMPDEST PUSH0 DUP1 PUSH1 0x40 DUP4 DUP6 SUB SLT ISZERO PUSH2 0x527 JUMPI PUSH2 0x526 PUSH2 0x39A JUMP JUMPDEST JUMPDEST PUSH0 DUP4 ADD CALLDATALOAD PUSH8 0xFFFFFFFFFFFFFFFF DUP2 GT ISZERO PUSH2 0x544 JUMPI PUSH2 0x543 PUSH2 0x39E JUMP JUMPDEST JUMPDEST PUSH2 0x550 DUP6 DUP3 DUP7 ADD PUSH2 0x4B1 JUMP JUMPDEST SWAP3 POP POP PUSH1 0x20 PUSH2 0x561 DUP6 DUP3 DUP7 ADD PUSH2 0x4FD JUMP JUMPDEST SWAP2 POP POP SWAP3 POP SWAP3 SWAP1 POP JUMP JUMPDEST PUSH0 DUP2 MLOAD SWAP1 POP SWAP2 SWAP1 POP JUMP JUMPDEST PUSH0 DUP3 DUP3 MSTORE PUSH1 0x20 DUP3 ADD SWAP1 POP SWAP3 SWAP2 POP POP JUMP JUMPDEST PUSH0 JUMPDEST DUP4 DUP2 LT ISZERO PUSH2 0x5A2 JUMPI DUP1 DUP3 ADD MLOAD DUP2 DUP5 ADD MSTORE PUSH1 0x20 DUP2 ADD SWAP1 POP PUSH2 0x587 JUMP JUMPDEST PUSH0 DUP5 DUP5 ADD MSTORE POP POP POP POP JUMP JUMPDEST PUSH0 PUSH2 0x5B7 DUP3 PUSH2 0x56B JUMP JUMPDEST PUSH2 0x5C1 DUP2 DUP6 PUSH2 0x575 JUMP JUMPDEST SWAP4 POP PUSH2 0x5D1 DUP2 DUP6 PUSH1 0x20 DUP7 ADD PUSH2 0x585 JUMP JUMPDEST PUSH2 0x5DA DUP2 PUSH2 0x3AA JUMP JUMPDEST DUP5 ADD SWAP2 POP POP SWAP3 SWAP2 POP POP JUMP JUMPDEST PUSH2 0x5EE DUP2 PUSH2 0x4DE JUMP JUMPDEST DUP3 MSTORE POP POP JUMP JUMPDEST PUSH0 PUSH1 0x40 DUP4 ADD PUSH0 DUP4 ADD MLOAD DUP5 DUP3 SUB PUSH0 DUP7 ADD MSTORE PUSH2 0x60E DUP3 DUP3 PUSH2 0x5AD JUMP JUMPDEST SWAP2 POP POP PUSH1 0x20 DUP4 ADD MLOAD PUSH2 0x623 PUSH1 0x20 DUP7 ADD DUP3 PUSH2 0x5E5 JUMP JUMPDEST POP DUP1 SWAP2 POP POP SWAP3 SWAP2 POP POP JUMP JUMPDEST PUSH0 PUSH1 0x60 DUP3 ADD SWAP1 POP DUP2 DUP2 SUB PUSH0 DUP4 ADD MSTORE PUSH2 0x646 DUP2 DUP7 PUSH2 0x5F4 JUMP JUMPDEST SWAP1 POP DUP2 DUP2 SUB PUSH1 0x20 DUP4 ADD MSTORE PUSH2 0x65A DUP2 DUP6 PUSH2 0x5F4 JUMP JUMPDEST SWAP1 POP DUP2 DUP2 SUB PUSH1 0x40 DUP4 ADD MSTORE PUSH2 0x66E DUP2 DUP5 PUSH2 0x5F4 JUMP JUMPDEST SWAP1 POP SWAP5 SWAP4 POP POP POP POP JUMP JUMPDEST PUSH32 0x4E487B7100000000000000000000000000000000000000000000000000000000 PUSH0 MSTORE PUSH1 0x22 PUSH1 0x4 MSTORE PUSH1 0x24 PUSH0 REVERT JUMPDEST PUSH0 PUSH1 0x2 DUP3 DIV SWAP1 POP PUSH1 0x1 DUP3 AND DUP1 PUSH2 0x6BC JUMPI PUSH1 0x7F DUP3 AND SWAP2 POP JUMPDEST PUSH1 0x20 DUP3 LT DUP2 SUB PUSH2 0x6CF JUMPI PUSH2 0x6CE PUSH2 0x678 JUMP JUMPDEST JUMPDEST POP SWAP2 SWAP1 POP JUMP JUMPDEST PUSH0 DUP2 SWAP1 POP DUP2 PUSH0 MSTORE PUSH1 0x20 PUSH0 KECCAK256 SWAP1 POP SWAP2 SWAP1 POP JUMP JUMPDEST PUSH0 PUSH1 0x20 PUSH1 0x1F DUP4 ADD DIV SWAP1 POP SWAP2 SWAP1 POP JUMP JUMPDEST PUSH0 DUP3 DUP3 SHL SWAP1 POP SWAP3 SWAP2 POP POP JUMP JUMPDEST PUSH0 PUSH1 0x8 DUP4 MUL PUSH2 0x731 PUSH32 0xFFFFFFFFFFFFFFFFFFFFFFFFFFFFFFFFFFFFFFFFFFFFFFFFFFFFFFFFFFFFFFFF DUP3 PUSH2 0x6F6 JUMP JUMPDEST PUSH2 0x73B DUP7 DUP4 PUSH2 0x6F6 JUMP JUMPDEST SWAP6 POP DUP1 NOT DUP5 AND SWAP4 POP DUP1 DUP7 AND DUP5 OR SWAP3 POP POP POP SWAP4 SWAP3 POP POP POP JUMP JUMPDEST PUSH0 DUP2 SWAP1 POP SWAP2 SWAP1 POP JUMP JUMPDEST PUSH0 PUSH2 0x776 PUSH2 0x771 PUSH2 0x76C DUP5 PUSH2 0x4DE JUMP JUMPDEST PUSH2 0x753 JUMP JUMPDEST PUSH2 0x4DE JUMP JUMPDEST SWAP1 POP SWAP2 SWAP1 POP JUMP JUMPDEST PUSH0 DUP2 SWAP1 POP SWAP2 SWAP1 POP JUMP JUMPDEST PUSH2 0x78F DUP4 PUSH2 0x75C JUMP JUMPDEST PUSH2 0x7A3 PUSH2 0x79B DUP3 PUSH2 0x77D JUMP JUMPDEST DUP5 DUP5 SLOAD PUSH2 0x702 JUMP JUMPDEST DUP3 SSTORE POP POP POP POP JUMP JUMPDEST PUSH0 SWAP1 JUMP JUMPDEST PUSH2 0x7B7 PUSH2 0x7AB JUMP JUMPDEST PUSH2 0x7C2 DUP2 DUP5 DUP5 PUSH2 0x786 JUMP JUMPDEST POP POP POP JUMP JUMPDEST JUMPDEST DUP2 DUP2 LT ISZERO PUSH2 0x7E5 JUMPI PUSH2 0x7DA PUSH0 DUP3 PUSH2 0x7AF JUMP JUMPDEST PUSH1 0x1 DUP2 ADD SWAP1 POP PUSH2 0x7C8 JUMP JUMPDEST POP POP JUMP JUMPDEST PUSH1 0x1F DUP3 GT ISZERO PUSH2 0x82A JUMPI PUSH2 0x7FB DUP2 PUSH2 0x6D5 JUMP JUMPDEST PUSH2 0x804 DUP5 PUSH2 0x6E7 JUMP JUMPDEST DUP2 ADD PUSH1 0x20 DUP6 LT ISZERO PUSH2 0x813 JUMPI DUP2 SWAP1 POP JUMPDEST PUSH2 0x827 PUSH2 0x81F DUP6 PUSH2 0x6E7 JUMP JUMPDEST DUP4 ADD DUP3 PUSH2 0x7C7 JUMP JUMPDEST POP POP JUMPDEST POP POP POP JUMP JUMPDEST PUSH0 DUP3 DUP3 SHR SWAP1 POP SWAP3 SWAP2 POP POP JUMP JUMPDEST PUSH0 PUSH2 0x84A PUSH0 NOT DUP5 PUSH1 0x8 MUL PUSH2 0x82F JUMP JUMPDEST NOT DUP1 DUP4 AND SWAP2 POP POP SWAP3 SWAP2 POP POP JUMP JUMPDEST PUSH0 PUSH2 0x862 DUP4 DUP4 PUSH2 0x83B JUMP JUMPDEST SWAP2 POP DUP3 PUSH1 0x2 MUL DUP3 OR SWAP1 POP SWAP3 SWAP2 POP POP JUMP JUMPDEST PUSH2 0x87B DUP3 PUSH2 0x56B JUMP JUMPDEST PUSH8 0xFFFFFFFFFFFFFFFF DUP2 GT ISZERO PUSH2 0x894 JUMPI PUSH2 0x893 PUSH2 0x3BA JUMP JUMPDEST JUMPDEST PUSH2 0x89E DUP3 SLOAD PUSH2 0x6A5 JUMP JUMPDEST PUSH2 0x8A9 DUP3 DUP3 DUP6 PUSH2 0x7E9 JUMP JUMPDEST PUSH0 PUSH1 0x20 SWAP1 POP PUSH1 0x1F DUP4 GT PUSH1 0x1 DUP2 EQ PUSH2 0x8DA JUMPI PUSH0 DUP5 ISZERO PUSH2 0x8C8 JUMPI DUP3 DUP8 ADD MLOAD SWAP1 POP JUMPDEST PUSH2 0x8D2 DUP6 DUP3 PUSH2 0x857 JUMP JUMPDEST DUP7 SSTORE POP PUSH2 0x939 JUMP JUMPDEST PUSH1 0x1F NOT DUP5 AND PUSH2 0x8E8 DUP7 PUSH2 0x6D5 JUMP JUMPDEST PUSH0 JUMPDEST DUP3 DUP2 LT ISZERO PUSH2 0x90F JUMPI DUP5 DUP10 ADD MLOAD DUP3 SSTORE PUSH1 0x1 DUP3 ADD SWAP2 POP PUSH1 0x20 DUP6 ADD SWAP5 POP PUSH1 0x20 DUP2 ADD SWAP1 POP PUSH2 0x8EA JUMP JUMPDEST DUP7 DUP4 LT ISZERO PUSH2 0x92C JUMPI DUP5 DUP10 ADD MLOAD PUSH2 0x928 PUSH1 0x1F DUP10 AND DUP3 PUSH2 0x83B JUMP JUMPDEST DUP4 SSTORE POP JUMPDEST PUSH1 0x1 PUSH1 0x2 DUP9 MUL ADD DUP9 SSTORE POP POP POP JUMPDEST POP POP POP POP POP POP JUMP INVALID LOG2 PUSH5 0x6970667358 0x22 SLT KECCAK256 0xB3 EQ 0x29 PUSH28 0x388D9CF10C9BC5B2BA698180903DC7678A8B7ABBFAD48CCC7D8DAE67 PUSH5 0x736F6C6343 STOP ADDMOD AND STOP CALLER "
				},
				"gasEstimates": {
					"creation": {
						"codeDepositCost": "484600",
						"executionCost": "516",
						"totalCost": "485116"
					},
					"external": {
						"getStudent()": "infinite",
						"setStudent1(string,uint256)": "infinite",
						"setStudent2(string,uint256)": "infinite",
						"setStudent3(string,uint256)": "infinite"
					}
				},
				"methodIdentifiers": {
					"getStudent()": "b439548d",
					"setStudent1(string,uint256)": "92cc178a",
					"setStudent2(string,uint256)": "dcd04806",
					"setStudent3(string,uint256)": "6179e117"
				}
			},
			"storageLayout": {
				"storage": [
					{
						"astId": 10,
						"contract": "contracts/student3.sol:STRUCT",
						"label": "class",
						"offset": 0,
						"slot": "0",
						"type": "t_array(t_struct(Student)6_storage)dyn_storage"
					},
					{
						"astId": 13,
						"contract": "contracts/student3.sol:STRUCT",
						"label": "s1",
						"offset": 0,
						"slot": "1",
						"type": "t_struct(Student)6_storage"
					},
					{
						"astId": 16,
						"contract": "contracts/student3.sol:STRUCT",
						"label": "s2",
						"offset": 0,
						"slot": "3",
						"type": "t_struct(Student)6_storage"
					},
					{
						"astId": 19,
						"contract": "contracts/student3.sol:STRUCT",
						"label": "s3",
						"offset": 0,
						"slot": "5",
						"type": "t_struct(Student)6_storage"
					}
				],
				"types": {
					"t_array(t_struct(Student)6_storage)dyn_storage": {
						"base": "t_struct(Student)6_storage",
						"encoding": "dynamic_array",
						"label": "struct STRUCT.Student[]",
						"numberOfBytes": "32"
					},
					"t_string_storage": {
						"encoding": "bytes",
						"label": "string",
						"numberOfBytes": "32"
					},
					"t_struct(Student)6_storage": {
						"encoding": "inplace",
						"label": "struct STRUCT.Student",
						"members": [
							{
								"astId": 3,
								"contract": "contracts/student3.sol:STRUCT",
								"label": "name",
								"offset": 0,
								"slot": "0",
								"type": "t_string_storage"
							},
							{
								"astId": 5,
								"contract": "contracts/student3.sol:STRUCT",
								"label": "number",
								"offset": 0,
								"slot": "1",
								"type": "t_uint256"
							}
						],
						"numberOfBytes": "64"
					},
					"t_uint256": {
						"encoding": "inplace",
						"label": "uint256",
						"numberOfBytes": "32"
					}
				}
			},
			"userdoc": {
				"kind": "user",
				"methods": {},
				"version": 1
			}
		}
	}
}