{
	"contracts/student2.sol": {
		"STRUCT": {
			"abi": [
				{
					"inputs": [],
					"name": "getClass",
					"outputs": [
						{
							"components": [
								{
									"internalType": "string",
									"name": "name",
									"type": "string"
								},
								{
									"internalType": "uint256",
									"name": "number",
									"type": "uint256"
								},
								{
									"internalType": "uint256",
									"name": "score",
									"type": "uint256"
								},
								{
									"internalType": "string",
									"name": "grade",
									"type": "string"
								}
							],
							"internalType": "struct STRUCT.Student[]",
							"name": "",
							"type": "tuple[]"
						}
					],
					"stateMutability": "view",
					"type": "function"
				},
				{
					"inputs": [
						{
							"internalType": "uint256",
							"name": "_n",
							"type": "uint256"
						}
					],
					"name": "getStudent",
					"outputs": [
						{
							"components": [
								{
									"internalType": "string",
									"name": "name",
									"type": "string"
								},
								{
									"internalType": "uint256",
									"name": "number",
									"type": "uint256"
								},
								{
									"internalType": "uint256",
									"name": "score",
									"type": "uint256"
								},
								{
									"internalType": "string",
									"name": "grade",
									"type": "string"
								}
							],
							"internalType": "struct STRUCT.Student",
							"name": "",
							"type": "tuple"
						}
					],
					"stateMutability": "view",
					"type": "function"
				},
				{
					"inputs": [
						{
							"internalType": "uint256",
							"name": "_n",
							"type": "uint256"
						}
					],
					"name": "getStudentScore",
					"outputs": [
						{
							"internalType": "uint256",
							"name": "",
							"type": "uint256"
						}
					],
					"stateMutability": "view",
					"type": "function"
				},
				{
					"inputs": [
						{
							"internalType": "string",
							"name": "_name",
							"type": "string"
						},
						{
							"internalType": "uint256",
							"name": "_number",
							"type": "uint256"
						},
						{
							"internalType": "uint256",
							"name": "_score",
							"type": "uint256"
						},
						{
							"internalType": "string",
							"name": "_grade",
							"type": "string"
						}
					],
					"name": "pushStudent",
					"outputs": [],
					"stateMutability": "nonpayable",
					"type": "function"
				},
				{
					"inputs": [
						{
							"components": [
								{
									"internalType": "string",
									"name": "name",
									"type": "string"
								},
								{
									"internalType": "uint256",
									"name": "number",
									"type": "uint256"
								},
								{
									"internalType": "uint256",
									"name": "score",
									"type": "uint256"
								},
								{
									"internalType": "string",
									"name": "grade",
									"type": "string"
								}
							],
							"internalType": "struct STRUCT.Student",
							"name": "_s",
							"type": "tuple"
						}
					],
					"name": "pushStudent2",
					"outputs": [],
					"stateMutability": "nonpayable",
					"type": "function"
				}
			],
			"devdoc": {
				"kind": "dev",
				"methods": {},
				"version": 1
			},
			"evm": {
				"assembly": "    /* \"contracts/student2.sol\":70:785  contract STRUCT {... */\n  mstore(0x40, 0x80)\n  callvalue\n  dup1\n  iszero\n  tag_1\n  jumpi\n  0x00\n  dup1\n  revert\ntag_1:\n  pop\n  dataSize(sub_0)\n  dup1\n  dataOffset(sub_0)\n  0x00\n  codecopy\n  0x00\n  return\nstop\n\nsub_0: assembly {\n        /* \"contracts/student2.sol\":70:785  contract STRUCT {... */\n      mstore(0x40, 0x80)\n      callvalue\n      dup1\n      iszero\n      tag_1\n      jumpi\n      0x00\n      dup1\n      revert\n    tag_1:\n      pop\n      jumpi(tag_2, lt(calldatasize, 0x04))\n      shr(0xe0, calldataload(0x00))\n      dup1\n      0x32ca2f40\n      eq\n      tag_3\n      jumpi\n      dup1\n      0x57e61ea4\n      eq\n      tag_4\n      jumpi\n      dup1\n      0x642f9163\n      eq\n      tag_5\n      jumpi\n      dup1\n      0x9c380af7\n      eq\n      tag_6\n      jumpi\n      dup1\n      0xd3ad8db9\n      eq\n      tag_7\n      jumpi\n    tag_2:\n      0x00\n      dup1\n      revert\n        /* \"contracts/student2.sol\":226:392  function pushStudent(string memory _name, uint _number, uint _score, string memory _grade) public {... */\n    tag_3:\n      tag_8\n      0x04\n      dup1\n      calldatasize\n      sub\n      dup2\n      add\n      swap1\n      tag_9\n      swap2\n      swap1\n      tag_10\n      jump\t// in\n    tag_9:\n      tag_11\n      jump\t// in\n    tag_8:\n      stop\n        /* \"contracts/student2.sol\":696:783  function getClass() public view returns(Student[] memory) {... */\n    tag_4:\n      tag_12\n      tag_13\n      jump\t// in\n    tag_12:\n      mload(0x40)\n      tag_14\n      swap2\n      swap1\n      tag_15\n      jump\t// in\n    tag_14:\n      mload(0x40)\n      dup1\n      swap2\n      sub\n      swap1\n      return\n        /* \"contracts/student2.sol\":483:583  function getStudent(uint _n) public view returns(Student memory) {... */\n    tag_5:\n      tag_16\n      0x04\n      dup1\n      calldatasize\n      sub\n      dup2\n      add\n      swap1\n      tag_17\n      swap2\n      swap1\n      tag_18\n      jump\t// in\n    tag_17:\n      tag_19\n      jump\t// in\n    tag_16:\n      mload(0x40)\n      tag_20\n      swap2\n      swap1\n      tag_21\n      jump\t// in\n    tag_20:\n      mload(0x40)\n      dup1\n      swap2\n      sub\n      swap1\n      return\n        /* \"contracts/student2.sol\":398:477  function pushStudent2(Student memory _s) public {... */\n    tag_6:\n      tag_22\n      0x04\n      dup1\n      calldatasize\n      sub\n      dup2\n      add\n      swap1\n      tag_23\n      swap2\n      swap1\n      tag_24\n      jump\t// in\n    tag_23:\n      tag_25\n      jump\t// in\n    tag_22:\n      stop\n        /* \"contracts/student2.sol\":589:690  function getStudentScore(uint _n) public view returns(uint) {... */\n    tag_7:\n      tag_26\n      0x04\n      dup1\n      calldatasize\n      sub\n      dup2\n      add\n      swap1\n      tag_27\n      swap2\n      swap1\n      tag_18\n      jump\t// in\n    tag_27:\n      tag_28\n      jump\t// in\n    tag_26:\n      mload(0x40)\n      tag_29\n      swap2\n      swap1\n      tag_30\n      jump\t// in\n    tag_29:\n      mload(0x40)\n      dup1\n      swap2\n      sub\n      swap1\n      return\n        /* \"contracts/student2.sol\":226:392  function pushStudent(string memory _name, uint _number, uint _score, string memory _grade) public {... */\n    tag_11:\n        /* \"contracts/student2.sol\":334:339  class */\n      0x00\n        /* \"contracts/student2.sol\":345:384  Student(_name, _number, _score, _grade) */\n      mload(0x40)\n      dup1\n      0x80\n      add\n      0x40\n      mstore\n      dup1\n        /* \"contracts/student2.sol\":353:358  _name */\n      dup7\n        /* \"contracts/student2.sol\":345:384  Student(_name, _number, _score, _grade) */\n      dup2\n      mstore\n      0x20\n      add\n        /* \"contracts/student2.sol\":360:367  _number */\n      dup6\n        /* \"contracts/student2.sol\":345:384  Student(_name, _number, _score, _grade) */\n      dup2\n      mstore\n      0x20\n      add\n        /* \"contracts/student2.sol\":369:375  _score */\n      dup5\n        /* \"contracts/student2.sol\":345:384  Student(_name, _number, _score, _grade) */\n      dup2\n      mstore\n      0x20\n      add\n        /* \"contracts/student2.sol\":377:383  _grade */\n      dup4\n        /* \"contracts/student2.sol\":345:384  Student(_name, _number, _score, _grade) */\n      dup2\n      mstore\n      pop\n        /* \"contracts/student2.sol\":334:385  class.push(Student(_name, _number, _score, _grade)) */\n      swap1\n      dup1\n      0x01\n      dup2\n      sload\n      add\n      dup1\n      dup3\n      sstore\n      dup1\n      swap2\n      pop\n      pop\n      0x01\n      swap1\n      sub\n      swap1\n      0x00\n      mstore\n      keccak256(0x00, 0x20)\n      swap1\n      0x04\n      mul\n      add\n      0x00\n      swap1\n      swap2\n      swap1\n      swap2\n      swap1\n      swap2\n      pop\n      0x00\n      dup3\n      add\n      mload\n      dup2\n      0x00\n      add\n      swap1\n      dup2\n      tag_33\n      swap2\n      swap1\n      tag_34\n      jump\t// in\n    tag_33:\n      pop\n      0x20\n      dup3\n      add\n      mload\n      dup2\n      0x01\n      add\n      sstore\n      0x40\n      dup3\n      add\n      mload\n      dup2\n      0x02\n      add\n      sstore\n      0x60\n      dup3\n      add\n      mload\n      dup2\n      0x03\n      add\n      swap1\n      dup2\n      tag_35\n      swap2\n      swap1\n      tag_34\n      jump\t// in\n    tag_35:\n      pop\n      pop\n      pop\n        /* \"contracts/student2.sol\":226:392  function pushStudent(string memory _name, uint _number, uint _score, string memory _grade) public {... */\n      pop\n      pop\n      pop\n      pop\n      jump\t// out\n        /* \"contracts/student2.sol\":696:783  function getClass() public view returns(Student[] memory) {... */\n    tag_13:\n        /* \"contracts/student2.sol\":736:752  Student[] memory */\n      0x60\n        /* \"contracts/student2.sol\":771:776  class */\n      0x00\n        /* \"contracts/student2.sol\":764:776  return class */\n      dup1\n      sload\n      dup1\n      0x20\n      mul\n      0x20\n      add\n      mload(0x40)\n      swap1\n      dup2\n      add\n      0x40\n      mstore\n      dup1\n      swap3\n      swap2\n      swap1\n      dup2\n      dup2\n      mstore\n      0x20\n      add\n      0x00\n      swap1\n    tag_37:\n      dup3\n      dup3\n      lt\n      iszero\n      tag_38\n      jumpi\n      dup4\n      dup3\n      swap1\n      0x00\n      mstore\n      keccak256(0x00, 0x20)\n      swap1\n      0x04\n      mul\n      add\n      mload(0x40)\n      dup1\n      0x80\n      add\n      0x40\n      mstore\n      swap1\n      dup2\n      0x00\n      dup3\n      add\n      dup1\n      sload\n      tag_40\n      swap1\n      tag_41\n      jump\t// in\n    tag_40:\n      dup1\n      0x1f\n      add\n      0x20\n      dup1\n      swap2\n      div\n      mul\n      0x20\n      add\n      mload(0x40)\n      swap1\n      dup2\n      add\n      0x40\n      mstore\n      dup1\n      swap3\n      swap2\n      swap1\n      dup2\n      dup2\n      mstore\n      0x20\n      add\n      dup3\n      dup1\n      sload\n      tag_42\n      swap1\n      tag_41\n      jump\t// in\n    tag_42:\n      dup1\n      iszero\n      tag_43\n      jumpi\n      dup1\n      0x1f\n      lt\n      tag_44\n      jumpi\n      0x0100\n      dup1\n      dup4\n      sload\n      div\n      mul\n      dup4\n      mstore\n      swap2\n      0x20\n      add\n      swap2\n      jump(tag_43)\n    tag_44:\n      dup3\n      add\n      swap2\n      swap1\n      0x00\n      mstore\n      keccak256(0x00, 0x20)\n      swap1\n    tag_45:\n      dup2\n      sload\n      dup2\n      mstore\n      swap1\n      0x01\n      add\n      swap1\n      0x20\n      add\n      dup1\n      dup4\n      gt\n      tag_45\n      jumpi\n      dup3\n      swap1\n      sub\n      0x1f\n      and\n      dup3\n      add\n      swap2\n    tag_43:\n      pop\n      pop\n      pop\n      pop\n      pop\n      dup2\n      mstore\n      0x20\n      add\n      0x01\n      dup3\n      add\n      sload\n      dup2\n      mstore\n      0x20\n      add\n      0x02\n      dup3\n      add\n      sload\n      dup2\n      mstore\n      0x20\n      add\n      0x03\n      dup3\n      add\n      dup1\n      sload\n      tag_46\n      swap1\n      tag_41\n      jump\t// in\n    tag_46:\n      dup1\n      0x1f\n      add\n      0x20\n      dup1\n      swap2\n      div\n      mul\n      0x20\n      add\n      mload(0x40)\n      swap1\n      dup2\n      add\n      0x40\n      mstore\n      dup1\n      swap3\n      swap2\n      swap1\n      dup2\n      dup2\n      mstore\n      0x20\n      add\n      dup3\n      dup1\n      sload\n      tag_47\n      swap1\n      tag_41\n      jump\t// in\n    tag_47:\n      dup1\n      iszero\n      tag_48\n      jumpi\n      dup1\n      0x1f\n      lt\n      tag_49\n      jumpi\n      0x0100\n      dup1\n      dup4\n      sload\n      div\n      mul\n      dup4\n      mstore\n      swap2\n      0x20\n      add\n      swap2\n      jump(tag_48)\n    tag_49:\n      dup3\n      add\n      swap2\n      swap1\n      0x00\n      mstore\n      keccak256(0x00, 0x20)\n      swap1\n    tag_50:\n      dup2\n      sload\n      dup2\n      mstore\n      swap1\n      0x01\n      add\n      swap1\n      0x20\n      add\n      dup1\n      dup4\n      gt\n      tag_50\n      jumpi\n      dup3\n      swap1\n      sub\n      0x1f\n      and\n      dup3\n      add\n      swap2\n    tag_48:\n      pop\n      pop\n      pop\n      pop\n      pop\n      dup2\n      mstore\n      pop\n      pop\n      dup2\n      mstore\n      0x20\n      add\n      swap1\n      0x01\n      add\n      swap1\n      jump(tag_37)\n    tag_38:\n      pop\n      pop\n      pop\n      pop\n      swap1\n      pop\n        /* \"contracts/student2.sol\":696:783  function getClass() public view returns(Student[] memory) {... */\n      swap1\n      jump\t// out\n        /* \"contracts/student2.sol\":483:583  function getStudent(uint _n) public view returns(Student memory) {... */\n    tag_19:\n        /* \"contracts/student2.sol\":532:546  Student memory */\n      tag_51\n      tag_52\n      jump\t// in\n    tag_51:\n        /* \"contracts/student2.sol\":565:570  class */\n      0x00\n        /* \"contracts/student2.sol\":574:575  1 */\n      0x01\n        /* \"contracts/student2.sol\":571:573  _n */\n      dup4\n        /* \"contracts/student2.sol\":571:575  _n-1 */\n      tag_54\n      swap2\n      swap1\n      tag_55\n      jump\t// in\n    tag_54:\n        /* \"contracts/student2.sol\":565:576  class[_n-1] */\n      dup2\n      sload\n      dup2\n      lt\n      tag_56\n      jumpi\n      tag_57\n      tag_58\n      jump\t// in\n    tag_57:\n    tag_56:\n      swap1\n      0x00\n      mstore\n      keccak256(0x00, 0x20)\n      swap1\n      0x04\n      mul\n      add\n        /* \"contracts/student2.sol\":558:576  return class[_n-1] */\n      mload(0x40)\n      dup1\n      0x80\n      add\n      0x40\n      mstore\n      swap1\n      dup2\n      0x00\n      dup3\n      add\n      dup1\n      sload\n      tag_60\n      swap1\n      tag_41\n      jump\t// in\n    tag_60:\n      dup1\n      0x1f\n      add\n      0x20\n      dup1\n      swap2\n      div\n      mul\n      0x20\n      add\n      mload(0x40)\n      swap1\n      dup2\n      add\n      0x40\n      mstore\n      dup1\n      swap3\n      swap2\n      swap1\n      dup2\n      dup2\n      mstore\n      0x20\n      add\n      dup3\n      dup1\n      sload\n      tag_61\n      swap1\n      tag_41\n      jump\t// in\n    tag_61:\n      dup1\n      iszero\n      tag_62\n      jumpi\n      dup1\n      0x1f\n      lt\n      tag_63\n      jumpi\n      0x0100\n      dup1\n      dup4\n      sload\n      div\n      mul\n      dup4\n      mstore\n      swap2\n      0x20\n      add\n      swap2\n      jump(tag_62)\n    tag_63:\n      dup3\n      add\n      swap2\n      swap1\n      0x00\n      mstore\n      keccak256(0x00, 0x20)\n      swap1\n    tag_64:\n      dup2\n      sload\n      dup2\n      mstore\n      swap1\n      0x01\n      add\n      swap1\n      0x20\n      add\n      dup1\n      dup4\n      gt\n      tag_64\n      jumpi\n      dup3\n      swap1\n      sub\n      0x1f\n      and\n      dup3\n      add\n      swap2\n    tag_62:\n      pop\n      pop\n      pop\n      pop\n      pop\n      dup2\n      mstore\n      0x20\n      add\n      0x01\n      dup3\n      add\n      sload\n      dup2\n      mstore\n      0x20\n      add\n      0x02\n      dup3\n      add\n      sload\n      dup2\n      mstore\n      0x20\n      add\n      0x03\n      dup3\n      add\n      dup1\n      sload\n      tag_65\n      swap1\n      tag_41\n      jump\t// in\n    tag_65:\n      dup1\n      0x1f\n      add\n      0x20\n      dup1\n      swap2\n      div\n      mul\n      0x20\n      add\n      mload(0x40)\n      swap1\n      dup2\n      add\n      0x40\n      mstore\n      dup1\n      swap3\n      swap2\n      swap1\n      dup2\n      dup2\n      mstore\n      0x20\n      add\n      dup3\n      dup1\n      sload\n      tag_66\n      swap1\n      tag_41\n      jump\t// in\n    tag_66:\n      dup1\n      iszero\n      tag_67\n      jumpi\n      dup1\n      0x1f\n      lt\n      tag_68\n      jumpi\n      0x0100\n      dup1\n      dup4\n      sload\n      div\n      mul\n      dup4\n      mstore\n      swap2\n      0x20\n      add\n      swap2\n      jump(tag_67)\n    tag_68:\n      dup3\n      add\n      swap2\n      swap1\n      0x00\n      mstore\n      keccak256(0x00, 0x20)\n      swap1\n    tag_69:\n      dup2\n      sload\n      dup2\n      mstore\n      swap1\n      0x01\n      add\n      swap1\n      0x20\n      add\n      dup1\n      dup4\n      gt\n      tag_69\n      jumpi\n      dup3\n      swap1\n      sub\n      0x1f\n      and\n      dup3\n      add\n      swap2\n    tag_67:\n      pop\n      pop\n      pop\n      pop\n      pop\n      dup2\n      mstore\n      pop\n      pop\n      swap1\n      pop\n        /* \"contracts/student2.sol\":483:583  function getStudent(uint _n) public view returns(Student memory) {... */\n      swap2\n      swap1\n      pop\n      jump\t// out\n        /* \"contracts/student2.sol\":398:477  function pushStudent2(Student memory _s) public {... */\n    tag_25:\n        /* \"contracts/student2.sol\":456:461  class */\n      0x00\n        /* \"contracts/student2.sol\":467:469  _s */\n      dup2\n        /* \"contracts/student2.sol\":456:470  class.push(_s) */\n      swap1\n      dup1\n      0x01\n      dup2\n      sload\n      add\n      dup1\n      dup3\n      sstore\n      dup1\n      swap2\n      pop\n      pop\n      0x01\n      swap1\n      sub\n      swap1\n      0x00\n      mstore\n      keccak256(0x00, 0x20)\n      swap1\n      0x04\n      mul\n      add\n      0x00\n      swap1\n      swap2\n      swap1\n      swap2\n      swap1\n      swap2\n      pop\n      0x00\n      dup3\n      add\n      mload\n      dup2\n      0x00\n      add\n      swap1\n      dup2\n      tag_72\n      swap2\n      swap1\n      tag_34\n      jump\t// in\n    tag_72:\n      pop\n      0x20\n      dup3\n      add\n      mload\n      dup2\n      0x01\n      add\n      sstore\n      0x40\n      dup3\n      add\n      mload\n      dup2\n      0x02\n      add\n      sstore\n      0x60\n      dup3\n      add\n      mload\n      dup2\n      0x03\n      add\n      swap1\n      dup2\n      tag_73\n      swap2\n      swap1\n      tag_34\n      jump\t// in\n    tag_73:\n      pop\n      pop\n      pop\n        /* \"contracts/student2.sol\":398:477  function pushStudent2(Student memory _s) public {... */\n      pop\n      jump\t// out\n        /* \"contracts/student2.sol\":589:690  function getStudentScore(uint _n) public view returns(uint) {... */\n    tag_28:\n        /* \"contracts/student2.sol\":643:647  uint */\n      0x00\n        /* \"contracts/student2.sol\":666:671  class */\n      dup1\n        /* \"contracts/student2.sol\":675:676  1 */\n      0x01\n        /* \"contracts/student2.sol\":672:674  _n */\n      dup4\n        /* \"contracts/student2.sol\":672:676  _n-1 */\n      tag_75\n      swap2\n      swap1\n      tag_55\n      jump\t// in\n    tag_75:\n        /* \"contracts/student2.sol\":666:677  class[_n-1] */\n      dup2\n      sload\n      dup2\n      lt\n      tag_76\n      jumpi\n      tag_77\n      tag_58\n      jump\t// in\n    tag_77:\n    tag_76:\n      swap1\n      0x00\n      mstore\n      keccak256(0x00, 0x20)\n      swap1\n      0x04\n      mul\n      add\n        /* \"contracts/student2.sol\":666:683  class[_n-1].score */\n      0x02\n      add\n      sload\n        /* \"contracts/student2.sol\":659:683  return class[_n-1].score */\n      swap1\n      pop\n        /* \"contracts/student2.sol\":589:690  function getStudentScore(uint _n) public view returns(uint) {... */\n      swap2\n      swap1\n      pop\n      jump\t// out\n    tag_52:\n      mload(0x40)\n      dup1\n      0x80\n      add\n      0x40\n      mstore\n      dup1\n      0x60\n      dup2\n      mstore\n      0x20\n      add\n      0x00\n      dup2\n      mstore\n      0x20\n      add\n      0x00\n      dup2\n      mstore\n      0x20\n      add\n      0x60\n      dup2\n      mstore\n      pop\n      swap1\n      jump\t// out\n        /* \"#utility.yul\":7:82   */\n    tag_79:\n        /* \"#utility.yul\":40:46   */\n      0x00\n        /* \"#utility.yul\":73:75   */\n      0x40\n        /* \"#utility.yul\":67:76   */\n      mload\n        /* \"#utility.yul\":57:76   */\n      swap1\n      pop\n        /* \"#utility.yul\":7:82   */\n      swap1\n      jump\t// out\n        /* \"#utility.yul\":88:205   */\n    tag_80:\n        /* \"#utility.yul\":197:198   */\n      0x00\n        /* \"#utility.yul\":194:195   */\n      dup1\n        /* \"#utility.yul\":187:199   */\n      revert\n        /* \"#utility.yul\":211:328   */\n    tag_81:\n        /* \"#utility.yul\":320:321   */\n      0x00\n        /* \"#utility.yul\":317:318   */\n      dup1\n        /* \"#utility.yul\":310:322   */\n      revert\n        /* \"#utility.yul\":334:451   */\n    tag_82:\n        /* \"#utility.yul\":443:444   */\n      0x00\n        /* \"#utility.yul\":440:441   */\n      dup1\n        /* \"#utility.yul\":433:445   */\n      revert\n        /* \"#utility.yul\":457:574   */\n    tag_83:\n        /* \"#utility.yul\":566:567   */\n      0x00\n        /* \"#utility.yul\":563:564   */\n      dup1\n        /* \"#utility.yul\":556:568   */\n      revert\n        /* \"#utility.yul\":580:682   */\n    tag_84:\n        /* \"#utility.yul\":621:627   */\n      0x00\n        /* \"#utility.yul\":672:674   */\n      0x1f\n        /* \"#utility.yul\":668:675   */\n      not\n        /* \"#utility.yul\":663:665   */\n      0x1f\n        /* \"#utility.yul\":656:661   */\n      dup4\n        /* \"#utility.yul\":652:666   */\n      add\n        /* \"#utility.yul\":648:676   */\n      and\n        /* \"#utility.yul\":638:676   */\n      swap1\n      pop\n        /* \"#utility.yul\":580:682   */\n      swap2\n      swap1\n      pop\n      jump\t// out\n        /* \"#utility.yul\":688:868   */\n    tag_85:\n        /* \"#utility.yul\":736:813   */\n      0x4e487b7100000000000000000000000000000000000000000000000000000000\n        /* \"#utility.yul\":733:734   */\n      0x00\n        /* \"#utility.yul\":726:814   */\n      mstore\n        /* \"#utility.yul\":833:837   */\n      0x41\n        /* \"#utility.yul\":830:831   */\n      0x04\n        /* \"#utility.yul\":823:838   */\n      mstore\n        /* \"#utility.yul\":857:861   */\n      0x24\n        /* \"#utility.yul\":854:855   */\n      0x00\n        /* \"#utility.yul\":847:862   */\n      revert\n        /* \"#utility.yul\":874:1155   */\n    tag_86:\n        /* \"#utility.yul\":957:984   */\n      tag_138\n        /* \"#utility.yul\":979:983   */\n      dup3\n        /* \"#utility.yul\":957:984   */\n      tag_84\n      jump\t// in\n    tag_138:\n        /* \"#utility.yul\":949:955   */\n      dup2\n        /* \"#utility.yul\":945:985   */\n      add\n        /* \"#utility.yul\":1087:1093   */\n      dup2\n        /* \"#utility.yul\":1075:1085   */\n      dup2\n        /* \"#utility.yul\":1072:1094   */\n      lt\n        /* \"#utility.yul\":1051:1069   */\n      0xffffffffffffffff\n        /* \"#utility.yul\":1039:1049   */\n      dup3\n        /* \"#utility.yul\":1036:1070   */\n      gt\n        /* \"#utility.yul\":1033:1095   */\n      or\n        /* \"#utility.yul\":1030:1118   */\n      iszero\n      tag_139\n      jumpi\n        /* \"#utility.yul\":1098:1116   */\n      tag_140\n      tag_85\n      jump\t// in\n    tag_140:\n        /* \"#utility.yul\":1030:1118   */\n    tag_139:\n        /* \"#utility.yul\":1138:1148   */\n      dup1\n        /* \"#utility.yul\":1134:1136   */\n      0x40\n        /* \"#utility.yul\":1127:1149   */\n      mstore\n        /* \"#utility.yul\":917:1155   */\n      pop\n        /* \"#utility.yul\":874:1155   */\n      pop\n      pop\n      jump\t// out\n        /* \"#utility.yul\":1161:1290   */\n    tag_87:\n        /* \"#utility.yul\":1195:1201   */\n      0x00\n        /* \"#utility.yul\":1222:1242   */\n      tag_142\n      tag_79\n      jump\t// in\n    tag_142:\n        /* \"#utility.yul\":1212:1242   */\n      swap1\n      pop\n        /* \"#utility.yul\":1251:1284   */\n      tag_143\n        /* \"#utility.yul\":1279:1283   */\n      dup3\n        /* \"#utility.yul\":1271:1277   */\n      dup3\n        /* \"#utility.yul\":1251:1284   */\n      tag_86\n      jump\t// in\n    tag_143:\n        /* \"#utility.yul\":1161:1290   */\n      swap2\n      swap1\n      pop\n      jump\t// out\n        /* \"#utility.yul\":1296:1604   */\n    tag_88:\n        /* \"#utility.yul\":1358:1362   */\n      0x00\n        /* \"#utility.yul\":1448:1466   */\n      0xffffffffffffffff\n        /* \"#utility.yul\":1440:1446   */\n      dup3\n        /* \"#utility.yul\":1437:1467   */\n      gt\n        /* \"#utility.yul\":1434:1490   */\n      iszero\n      tag_145\n      jumpi\n        /* \"#utility.yul\":1470:1488   */\n      tag_146\n      tag_85\n      jump\t// in\n    tag_146:\n        /* \"#utility.yul\":1434:1490   */\n    tag_145:\n        /* \"#utility.yul\":1508:1537   */\n      tag_147\n        /* \"#utility.yul\":1530:1536   */\n      dup3\n        /* \"#utility.yul\":1508:1537   */\n      tag_84\n      jump\t// in\n    tag_147:\n        /* \"#utility.yul\":1500:1537   */\n      swap1\n      pop\n        /* \"#utility.yul\":1592:1596   */\n      0x20\n        /* \"#utility.yul\":1586:1590   */\n      dup2\n        /* \"#utility.yul\":1582:1597   */\n      add\n        /* \"#utility.yul\":1574:1597   */\n      swap1\n      pop\n        /* \"#utility.yul\":1296:1604   */\n      swap2\n      swap1\n      pop\n      jump\t// out\n        /* \"#utility.yul\":1610:1756   */\n    tag_89:\n        /* \"#utility.yul\":1707:1713   */\n      dup3\n        /* \"#utility.yul\":1702:1705   */\n      dup2\n        /* \"#utility.yul\":1697:1700   */\n      dup4\n        /* \"#utility.yul\":1684:1714   */\n      calldatacopy\n        /* \"#utility.yul\":1748:1749   */\n      0x00\n        /* \"#utility.yul\":1739:1745   */\n      dup4\n        /* \"#utility.yul\":1734:1737   */\n      dup4\n        /* \"#utility.yul\":1730:1746   */\n      add\n        /* \"#utility.yul\":1723:1750   */\n      mstore\n        /* \"#utility.yul\":1610:1756   */\n      pop\n      pop\n      pop\n      jump\t// out\n        /* \"#utility.yul\":1762:2187   */\n    tag_90:\n        /* \"#utility.yul\":1840:1845   */\n      0x00\n        /* \"#utility.yul\":1865:1931   */\n      tag_150\n        /* \"#utility.yul\":1881:1930   */\n      tag_151\n        /* \"#utility.yul\":1923:1929   */\n      dup5\n        /* \"#utility.yul\":1881:1930   */\n      tag_88\n      jump\t// in\n    tag_151:\n        /* \"#utility.yul\":1865:1931   */\n      tag_87\n      jump\t// in\n    tag_150:\n        /* \"#utility.yul\":1856:1931   */\n      swap1\n      pop\n        /* \"#utility.yul\":1954:1960   */\n      dup3\n        /* \"#utility.yul\":1947:1952   */\n      dup2\n        /* \"#utility.yul\":1940:1961   */\n      mstore\n        /* \"#utility.yul\":1992:1996   */\n      0x20\n        /* \"#utility.yul\":1985:1990   */\n      dup2\n        /* \"#utility.yul\":1981:1997   */\n      add\n        /* \"#utility.yul\":2030:2033   */\n      dup5\n        /* \"#utility.yul\":2021:2027   */\n      dup5\n        /* \"#utility.yul\":2016:2019   */\n      dup5\n        /* \"#utility.yul\":2012:2028   */\n      add\n        /* \"#utility.yul\":2009:2034   */\n      gt\n        /* \"#utility.yul\":2006:2118   */\n      iszero\n      tag_152\n      jumpi\n        /* \"#utility.yul\":2037:2116   */\n      tag_153\n      tag_83\n      jump\t// in\n    tag_153:\n        /* \"#utility.yul\":2006:2118   */\n    tag_152:\n        /* \"#utility.yul\":2127:2181   */\n      tag_154\n        /* \"#utility.yul\":2174:2180   */\n      dup5\n        /* \"#utility.yul\":2169:2172   */\n      dup3\n        /* \"#utility.yul\":2164:2167   */\n      dup6\n        /* \"#utility.yul\":2127:2181   */\n      tag_89\n      jump\t// in\n    tag_154:\n        /* \"#utility.yul\":1846:2187   */\n      pop\n        /* \"#utility.yul\":1762:2187   */\n      swap4\n      swap3\n      pop\n      pop\n      pop\n      jump\t// out\n        /* \"#utility.yul\":2207:2547   */\n    tag_91:\n        /* \"#utility.yul\":2263:2268   */\n      0x00\n        /* \"#utility.yul\":2312:2315   */\n      dup3\n        /* \"#utility.yul\":2305:2309   */\n      0x1f\n        /* \"#utility.yul\":2297:2303   */\n      dup4\n        /* \"#utility.yul\":2293:2310   */\n      add\n        /* \"#utility.yul\":2289:2316   */\n      slt\n        /* \"#utility.yul\":2279:2401   */\n      tag_156\n      jumpi\n        /* \"#utility.yul\":2320:2399   */\n      tag_157\n      tag_82\n      jump\t// in\n    tag_157:\n        /* \"#utility.yul\":2279:2401   */\n    tag_156:\n        /* \"#utility.yul\":2437:2443   */\n      dup2\n        /* \"#utility.yul\":2424:2444   */\n      calldataload\n        /* \"#utility.yul\":2462:2541   */\n      tag_158\n        /* \"#utility.yul\":2537:2540   */\n      dup5\n        /* \"#utility.yul\":2529:2535   */\n      dup3\n        /* \"#utility.yul\":2522:2526   */\n      0x20\n        /* \"#utility.yul\":2514:2520   */\n      dup7\n        /* \"#utility.yul\":2510:2527   */\n      add\n        /* \"#utility.yul\":2462:2541   */\n      tag_90\n      jump\t// in\n    tag_158:\n        /* \"#utility.yul\":2453:2541   */\n      swap2\n      pop\n        /* \"#utility.yul\":2269:2547   */\n      pop\n        /* \"#utility.yul\":2207:2547   */\n      swap3\n      swap2\n      pop\n      pop\n      jump\t// out\n        /* \"#utility.yul\":2553:2630   */\n    tag_92:\n        /* \"#utility.yul\":2590:2597   */\n      0x00\n        /* \"#utility.yul\":2619:2624   */\n      dup2\n        /* \"#utility.yul\":2608:2624   */\n      swap1\n      pop\n        /* \"#utility.yul\":2553:2630   */\n      swap2\n      swap1\n      pop\n      jump\t// out\n        /* \"#utility.yul\":2636:2758   */\n    tag_93:\n        /* \"#utility.yul\":2709:2733   */\n      tag_161\n        /* \"#utility.yul\":2727:2732   */\n      dup2\n        /* \"#utility.yul\":2709:2733   */\n      tag_92\n      jump\t// in\n    tag_161:\n        /* \"#utility.yul\":2702:2707   */\n      dup2\n        /* \"#utility.yul\":2699:2734   */\n      eq\n        /* \"#utility.yul\":2689:2752   */\n      tag_162\n      jumpi\n        /* \"#utility.yul\":2748:2749   */\n      0x00\n        /* \"#utility.yul\":2745:2746   */\n      dup1\n        /* \"#utility.yul\":2738:2750   */\n      revert\n        /* \"#utility.yul\":2689:2752   */\n    tag_162:\n        /* \"#utility.yul\":2636:2758   */\n      pop\n      jump\t// out\n        /* \"#utility.yul\":2764:2903   */\n    tag_94:\n        /* \"#utility.yul\":2810:2815   */\n      0x00\n        /* \"#utility.yul\":2848:2854   */\n      dup2\n        /* \"#utility.yul\":2835:2855   */\n      calldataload\n        /* \"#utility.yul\":2826:2855   */\n      swap1\n      pop\n        /* \"#utility.yul\":2864:2897   */\n      tag_164\n        /* \"#utility.yul\":2891:2896   */\n      dup2\n        /* \"#utility.yul\":2864:2897   */\n      tag_93\n      jump\t// in\n    tag_164:\n        /* \"#utility.yul\":2764:2903   */\n      swap3\n      swap2\n      pop\n      pop\n      jump\t// out\n        /* \"#utility.yul\":2909:4034   */\n    tag_10:\n        /* \"#utility.yul\":3015:3021   */\n      0x00\n        /* \"#utility.yul\":3023:3029   */\n      dup1\n        /* \"#utility.yul\":3031:3037   */\n      0x00\n        /* \"#utility.yul\":3039:3045   */\n      dup1\n        /* \"#utility.yul\":3088:3091   */\n      0x80\n        /* \"#utility.yul\":3076:3085   */\n      dup6\n        /* \"#utility.yul\":3067:3074   */\n      dup8\n        /* \"#utility.yul\":3063:3086   */\n      sub\n        /* \"#utility.yul\":3059:3092   */\n      slt\n        /* \"#utility.yul\":3056:3176   */\n      iszero\n      tag_166\n      jumpi\n        /* \"#utility.yul\":3095:3174   */\n      tag_167\n      tag_80\n      jump\t// in\n    tag_167:\n        /* \"#utility.yul\":3056:3176   */\n    tag_166:\n        /* \"#utility.yul\":3243:3244   */\n      0x00\n        /* \"#utility.yul\":3232:3241   */\n      dup6\n        /* \"#utility.yul\":3228:3245   */\n      add\n        /* \"#utility.yul\":3215:3246   */\n      calldataload\n        /* \"#utility.yul\":3273:3291   */\n      0xffffffffffffffff\n        /* \"#utility.yul\":3265:3271   */\n      dup2\n        /* \"#utility.yul\":3262:3292   */\n      gt\n        /* \"#utility.yul\":3259:3376   */\n      iszero\n      tag_168\n      jumpi\n        /* \"#utility.yul\":3295:3374   */\n      tag_169\n      tag_81\n      jump\t// in\n    tag_169:\n        /* \"#utility.yul\":3259:3376   */\n    tag_168:\n        /* \"#utility.yul\":3400:3463   */\n      tag_170\n        /* \"#utility.yul\":3455:3462   */\n      dup8\n        /* \"#utility.yul\":3446:3452   */\n      dup3\n        /* \"#utility.yul\":3435:3444   */\n      dup9\n        /* \"#utility.yul\":3431:3453   */\n      add\n        /* \"#utility.yul\":3400:3463   */\n      tag_91\n      jump\t// in\n    tag_170:\n        /* \"#utility.yul\":3390:3463   */\n      swap5\n      pop\n        /* \"#utility.yul\":3186:3473   */\n      pop\n        /* \"#utility.yul\":3512:3514   */\n      0x20\n        /* \"#utility.yul\":3538:3591   */\n      tag_171\n        /* \"#utility.yul\":3583:3590   */\n      dup8\n        /* \"#utility.yul\":3574:3580   */\n      dup3\n        /* \"#utility.yul\":3563:3572   */\n      dup9\n        /* \"#utility.yul\":3559:3581   */\n      add\n        /* \"#utility.yul\":3538:3591   */\n      tag_94\n      jump\t// in\n    tag_171:\n        /* \"#utility.yul\":3528:3591   */\n      swap4\n      pop\n        /* \"#utility.yul\":3483:3601   */\n      pop\n        /* \"#utility.yul\":3640:3642   */\n      0x40\n        /* \"#utility.yul\":3666:3719   */\n      tag_172\n        /* \"#utility.yul\":3711:3718   */\n      dup8\n        /* \"#utility.yul\":3702:3708   */\n      dup3\n        /* \"#utility.yul\":3691:3700   */\n      dup9\n        /* \"#utility.yul\":3687:3709   */\n      add\n        /* \"#utility.yul\":3666:3719   */\n      tag_94\n      jump\t// in\n    tag_172:\n        /* \"#utility.yul\":3656:3719   */\n      swap3\n      pop\n        /* \"#utility.yul\":3611:3729   */\n      pop\n        /* \"#utility.yul\":3796:3798   */\n      0x60\n        /* \"#utility.yul\":3785:3794   */\n      dup6\n        /* \"#utility.yul\":3781:3799   */\n      add\n        /* \"#utility.yul\":3768:3800   */\n      calldataload\n        /* \"#utility.yul\":3827:3845   */\n      0xffffffffffffffff\n        /* \"#utility.yul\":3819:3825   */\n      dup2\n        /* \"#utility.yul\":3816:3846   */\n      gt\n        /* \"#utility.yul\":3813:3930   */\n      iszero\n      tag_173\n      jumpi\n        /* \"#utility.yul\":3849:3928   */\n      tag_174\n      tag_81\n      jump\t// in\n    tag_174:\n        /* \"#utility.yul\":3813:3930   */\n    tag_173:\n        /* \"#utility.yul\":3954:4017   */\n      tag_175\n        /* \"#utility.yul\":4009:4016   */\n      dup8\n        /* \"#utility.yul\":4000:4006   */\n      dup3\n        /* \"#utility.yul\":3989:3998   */\n      dup9\n        /* \"#utility.yul\":3985:4007   */\n      add\n        /* \"#utility.yul\":3954:4017   */\n      tag_91\n      jump\t// in\n    tag_175:\n        /* \"#utility.yul\":3944:4017   */\n      swap2\n      pop\n        /* \"#utility.yul\":3739:4027   */\n      pop\n        /* \"#utility.yul\":2909:4034   */\n      swap3\n      swap6\n      swap2\n      swap5\n      pop\n      swap3\n      pop\n      jump\t// out\n        /* \"#utility.yul\":4040:4177   */\n    tag_95:\n        /* \"#utility.yul\":4130:4136   */\n      0x00\n        /* \"#utility.yul\":4164:4169   */\n      dup2\n        /* \"#utility.yul\":4158:4170   */\n      mload\n        /* \"#utility.yul\":4148:4170   */\n      swap1\n      pop\n        /* \"#utility.yul\":4040:4177   */\n      swap2\n      swap1\n      pop\n      jump\t// out\n        /* \"#utility.yul\":4183:4390   */\n    tag_96:\n        /* \"#utility.yul\":4305:4316   */\n      0x00\n        /* \"#utility.yul\":4339:4345   */\n      dup3\n        /* \"#utility.yul\":4334:4337   */\n      dup3\n        /* \"#utility.yul\":4327:4346   */\n      mstore\n        /* \"#utility.yul\":4379:4383   */\n      0x20\n        /* \"#utility.yul\":4374:4377   */\n      dup3\n        /* \"#utility.yul\":4370:4384   */\n      add\n        /* \"#utility.yul\":4355:4384   */\n      swap1\n      pop\n        /* \"#utility.yul\":4183:4390   */\n      swap3\n      swap2\n      pop\n      pop\n      jump\t// out\n        /* \"#utility.yul\":4396:4551   */\n    tag_97:\n        /* \"#utility.yul\":4486:4490   */\n      0x00\n        /* \"#utility.yul\":4509:4512   */\n      dup2\n        /* \"#utility.yul\":4501:4512   */\n      swap1\n      pop\n        /* \"#utility.yul\":4539:4543   */\n      0x20\n        /* \"#utility.yul\":4534:4537   */\n      dup3\n        /* \"#utility.yul\":4530:4544   */\n      add\n        /* \"#utility.yul\":4522:4544   */\n      swap1\n      pop\n        /* \"#utility.yul\":4396:4551   */\n      swap2\n      swap1\n      pop\n      jump\t// out\n        /* \"#utility.yul\":4557:4656   */\n    tag_98:\n        /* \"#utility.yul\":4609:4615   */\n      0x00\n        /* \"#utility.yul\":4643:4648   */\n      dup2\n        /* \"#utility.yul\":4637:4649   */\n      mload\n        /* \"#utility.yul\":4627:4649   */\n      swap1\n      pop\n        /* \"#utility.yul\":4557:4656   */\n      swap2\n      swap1\n      pop\n      jump\t// out\n        /* \"#utility.yul\":4662:4821   */\n    tag_99:\n        /* \"#utility.yul\":4736:4747   */\n      0x00\n        /* \"#utility.yul\":4770:4776   */\n      dup3\n        /* \"#utility.yul\":4765:4768   */\n      dup3\n        /* \"#utility.yul\":4758:4777   */\n      mstore\n        /* \"#utility.yul\":4810:4814   */\n      0x20\n        /* \"#utility.yul\":4805:4808   */\n      dup3\n        /* \"#utility.yul\":4801:4815   */\n      add\n        /* \"#utility.yul\":4786:4815   */\n      swap1\n      pop\n        /* \"#utility.yul\":4662:4821   */\n      swap3\n      swap2\n      pop\n      pop\n      jump\t// out\n        /* \"#utility.yul\":4827:5073   */\n    tag_100:\n        /* \"#utility.yul\":4908:4909   */\n      0x00\n        /* \"#utility.yul\":4918:5031   */\n    tag_182:\n        /* \"#utility.yul\":4932:4938   */\n      dup4\n        /* \"#utility.yul\":4929:4930   */\n      dup2\n        /* \"#utility.yul\":4926:4939   */\n      lt\n        /* \"#utility.yul\":4918:5031   */\n      iszero\n      tag_184\n      jumpi\n        /* \"#utility.yul\":5017:5018   */\n      dup1\n        /* \"#utility.yul\":5012:5015   */\n      dup3\n        /* \"#utility.yul\":5008:5019   */\n      add\n        /* \"#utility.yul\":5002:5020   */\n      mload\n        /* \"#utility.yul\":4998:4999   */\n      dup2\n        /* \"#utility.yul\":4993:4996   */\n      dup5\n        /* \"#utility.yul\":4989:5000   */\n      add\n        /* \"#utility.yul\":4982:5021   */\n      mstore\n        /* \"#utility.yul\":4954:4956   */\n      0x20\n        /* \"#utility.yul\":4951:4952   */\n      dup2\n        /* \"#utility.yul\":4947:4957   */\n      add\n        /* \"#utility.yul\":4942:4957   */\n      swap1\n      pop\n        /* \"#utility.yul\":4918:5031   */\n      jump(tag_182)\n    tag_184:\n        /* \"#utility.yul\":5065:5066   */\n      0x00\n        /* \"#utility.yul\":5056:5062   */\n      dup5\n        /* \"#utility.yul\":5051:5054   */\n      dup5\n        /* \"#utility.yul\":5047:5063   */\n      add\n        /* \"#utility.yul\":5040:5067   */\n      mstore\n        /* \"#utility.yul\":4889:5073   */\n      pop\n        /* \"#utility.yul\":4827:5073   */\n      pop\n      pop\n      pop\n      jump\t// out\n        /* \"#utility.yul\":5079:5436   */\n    tag_101:\n        /* \"#utility.yul\":5157:5160   */\n      0x00\n        /* \"#utility.yul\":5185:5224   */\n      tag_186\n        /* \"#utility.yul\":5218:5223   */\n      dup3\n        /* \"#utility.yul\":5185:5224   */\n      tag_98\n      jump\t// in\n    tag_186:\n        /* \"#utility.yul\":5240:5301   */\n      tag_187\n        /* \"#utility.yul\":5294:5300   */\n      dup2\n        /* \"#utility.yul\":5289:5292   */\n      dup6\n        /* \"#utility.yul\":5240:5301   */\n      tag_99\n      jump\t// in\n    tag_187:\n        /* \"#utility.yul\":5233:5301   */\n      swap4\n      pop\n        /* \"#utility.yul\":5310:5375   */\n      tag_188\n        /* \"#utility.yul\":5368:5374   */\n      dup2\n        /* \"#utility.yul\":5363:5366   */\n      dup6\n        /* \"#utility.yul\":5356:5360   */\n      0x20\n        /* \"#utility.yul\":5349:5354   */\n      dup7\n        /* \"#utility.yul\":5345:5361   */\n      add\n        /* \"#utility.yul\":5310:5375   */\n      tag_100\n      jump\t// in\n    tag_188:\n        /* \"#utility.yul\":5400:5429   */\n      tag_189\n        /* \"#utility.yul\":5422:5428   */\n      dup2\n        /* \"#utility.yul\":5400:5429   */\n      tag_84\n      jump\t// in\n    tag_189:\n        /* \"#utility.yul\":5395:5398   */\n      dup5\n        /* \"#utility.yul\":5391:5430   */\n      add\n        /* \"#utility.yul\":5384:5430   */\n      swap2\n      pop\n        /* \"#utility.yul\":5161:5436   */\n      pop\n        /* \"#utility.yul\":5079:5436   */\n      swap3\n      swap2\n      pop\n      pop\n      jump\t// out\n        /* \"#utility.yul\":5442:5550   */\n    tag_102:\n        /* \"#utility.yul\":5519:5543   */\n      tag_191\n        /* \"#utility.yul\":5537:5542   */\n      dup2\n        /* \"#utility.yul\":5519:5543   */\n      tag_92\n      jump\t// in\n    tag_191:\n        /* \"#utility.yul\":5514:5517   */\n      dup3\n        /* \"#utility.yul\":5507:5544   */\n      mstore\n        /* \"#utility.yul\":5442:5550   */\n      pop\n      pop\n      jump\t// out\n        /* \"#utility.yul\":5610:6625   */\n    tag_103:\n        /* \"#utility.yul\":5715:5718   */\n      0x00\n        /* \"#utility.yul\":5751:5755   */\n      0x80\n        /* \"#utility.yul\":5746:5749   */\n      dup4\n        /* \"#utility.yul\":5742:5756   */\n      add\n        /* \"#utility.yul\":5838:5842   */\n      0x00\n        /* \"#utility.yul\":5831:5836   */\n      dup4\n        /* \"#utility.yul\":5827:5843   */\n      add\n        /* \"#utility.yul\":5821:5844   */\n      mload\n        /* \"#utility.yul\":5891:5894   */\n      dup5\n        /* \"#utility.yul\":5885:5889   */\n      dup3\n        /* \"#utility.yul\":5881:5895   */\n      sub\n        /* \"#utility.yul\":5874:5878   */\n      0x00\n        /* \"#utility.yul\":5869:5872   */\n      dup7\n        /* \"#utility.yul\":5865:5879   */\n      add\n        /* \"#utility.yul\":5858:5896   */\n      mstore\n        /* \"#utility.yul\":5917:5990   */\n      tag_193\n        /* \"#utility.yul\":5985:5989   */\n      dup3\n        /* \"#utility.yul\":5971:5983   */\n      dup3\n        /* \"#utility.yul\":5917:5990   */\n      tag_101\n      jump\t// in\n    tag_193:\n        /* \"#utility.yul\":5909:5990   */\n      swap2\n      pop\n        /* \"#utility.yul\":5766:6001   */\n      pop\n        /* \"#utility.yul\":6085:6089   */\n      0x20\n        /* \"#utility.yul\":6078:6083   */\n      dup4\n        /* \"#utility.yul\":6074:6090   */\n      add\n        /* \"#utility.yul\":6068:6091   */\n      mload\n        /* \"#utility.yul\":6104:6167   */\n      tag_194\n        /* \"#utility.yul\":6161:6165   */\n      0x20\n        /* \"#utility.yul\":6156:6159   */\n      dup7\n        /* \"#utility.yul\":6152:6166   */\n      add\n        /* \"#utility.yul\":6138:6150   */\n      dup3\n        /* \"#utility.yul\":6104:6167   */\n      tag_102\n      jump\t// in\n    tag_194:\n        /* \"#utility.yul\":6011:6177   */\n      pop\n        /* \"#utility.yul\":6260:6264   */\n      0x40\n        /* \"#utility.yul\":6253:6258   */\n      dup4\n        /* \"#utility.yul\":6249:6265   */\n      add\n        /* \"#utility.yul\":6243:6266   */\n      mload\n        /* \"#utility.yul\":6279:6342   */\n      tag_195\n        /* \"#utility.yul\":6336:6340   */\n      0x40\n        /* \"#utility.yul\":6331:6334   */\n      dup7\n        /* \"#utility.yul\":6327:6341   */\n      add\n        /* \"#utility.yul\":6313:6325   */\n      dup3\n        /* \"#utility.yul\":6279:6342   */\n      tag_102\n      jump\t// in\n    tag_195:\n        /* \"#utility.yul\":6187:6352   */\n      pop\n        /* \"#utility.yul\":6435:6439   */\n      0x60\n        /* \"#utility.yul\":6428:6433   */\n      dup4\n        /* \"#utility.yul\":6424:6440   */\n      add\n        /* \"#utility.yul\":6418:6441   */\n      mload\n        /* \"#utility.yul\":6488:6491   */\n      dup5\n        /* \"#utility.yul\":6482:6486   */\n      dup3\n        /* \"#utility.yul\":6478:6492   */\n      sub\n        /* \"#utility.yul\":6471:6475   */\n      0x60\n        /* \"#utility.yul\":6466:6469   */\n      dup7\n        /* \"#utility.yul\":6462:6476   */\n      add\n        /* \"#utility.yul\":6455:6493   */\n      mstore\n        /* \"#utility.yul\":6514:6587   */\n      tag_196\n        /* \"#utility.yul\":6582:6586   */\n      dup3\n        /* \"#utility.yul\":6568:6580   */\n      dup3\n        /* \"#utility.yul\":6514:6587   */\n      tag_101\n      jump\t// in\n    tag_196:\n        /* \"#utility.yul\":6506:6587   */\n      swap2\n      pop\n        /* \"#utility.yul\":6362:6598   */\n      pop\n        /* \"#utility.yul\":6615:6619   */\n      dup1\n        /* \"#utility.yul\":6608:6619   */\n      swap2\n      pop\n        /* \"#utility.yul\":5720:6625   */\n      pop\n        /* \"#utility.yul\":5610:6625   */\n      swap3\n      swap2\n      pop\n      pop\n      jump\t// out\n        /* \"#utility.yul\":6631:6879   */\n    tag_104:\n        /* \"#utility.yul\":6746:6756   */\n      0x00\n        /* \"#utility.yul\":6781:6873   */\n      tag_198\n        /* \"#utility.yul\":6869:6872   */\n      dup4\n        /* \"#utility.yul\":6861:6867   */\n      dup4\n        /* \"#utility.yul\":6781:6873   */\n      tag_103\n      jump\t// in\n    tag_198:\n        /* \"#utility.yul\":6767:6873   */\n      swap1\n      pop\n        /* \"#utility.yul\":6631:6879   */\n      swap3\n      swap2\n      pop\n      pop\n      jump\t// out\n        /* \"#utility.yul\":6885:7021   */\n    tag_105:\n        /* \"#utility.yul\":6978:6982   */\n      0x00\n        /* \"#utility.yul\":7010:7014   */\n      0x20\n        /* \"#utility.yul\":7005:7008   */\n      dup3\n        /* \"#utility.yul\":7001:7015   */\n      add\n        /* \"#utility.yul\":6993:7015   */\n      swap1\n      pop\n        /* \"#utility.yul\":6885:7021   */\n      swap2\n      swap1\n      pop\n      jump\t// out\n        /* \"#utility.yul\":7085:8180   */\n    tag_106:\n        /* \"#utility.yul\":7250:7253   */\n      0x00\n        /* \"#utility.yul\":7279:7356   */\n      tag_201\n        /* \"#utility.yul\":7350:7355   */\n      dup3\n        /* \"#utility.yul\":7279:7356   */\n      tag_95\n      jump\t// in\n    tag_201:\n        /* \"#utility.yul\":7372:7481   */\n      tag_202\n        /* \"#utility.yul\":7474:7480   */\n      dup2\n        /* \"#utility.yul\":7469:7472   */\n      dup6\n        /* \"#utility.yul\":7372:7481   */\n      tag_96\n      jump\t// in\n    tag_202:\n        /* \"#utility.yul\":7365:7481   */\n      swap4\n      pop\n        /* \"#utility.yul\":7507:7510   */\n      dup4\n        /* \"#utility.yul\":7552:7556   */\n      0x20\n        /* \"#utility.yul\":7544:7550   */\n      dup3\n        /* \"#utility.yul\":7540:7557   */\n      mul\n        /* \"#utility.yul\":7535:7538   */\n      dup6\n        /* \"#utility.yul\":7531:7558   */\n      add\n        /* \"#utility.yul\":7582:7661   */\n      tag_203\n        /* \"#utility.yul\":7655:7660   */\n      dup6\n        /* \"#utility.yul\":7582:7661   */\n      tag_97\n      jump\t// in\n    tag_203:\n        /* \"#utility.yul\":7684:7691   */\n      dup1\n        /* \"#utility.yul\":7715:7716   */\n      0x00\n        /* \"#utility.yul\":7700:8135   */\n    tag_204:\n        /* \"#utility.yul\":7725:7731   */\n      dup6\n        /* \"#utility.yul\":7722:7723   */\n      dup2\n        /* \"#utility.yul\":7719:7732   */\n      lt\n        /* \"#utility.yul\":7700:8135   */\n      iszero\n      tag_206\n      jumpi\n        /* \"#utility.yul\":7796:7805   */\n      dup5\n        /* \"#utility.yul\":7790:7794   */\n      dup5\n        /* \"#utility.yul\":7786:7806   */\n      sub\n        /* \"#utility.yul\":7781:7784   */\n      dup10\n        /* \"#utility.yul\":7774:7807   */\n      mstore\n        /* \"#utility.yul\":7847:7853   */\n      dup2\n        /* \"#utility.yul\":7841:7854   */\n      mload\n        /* \"#utility.yul\":7875:7985   */\n      tag_207\n        /* \"#utility.yul\":7980:7984   */\n      dup6\n        /* \"#utility.yul\":7965:7978   */\n      dup3\n        /* \"#utility.yul\":7875:7985   */\n      tag_104\n      jump\t// in\n    tag_207:\n        /* \"#utility.yul\":7867:7985   */\n      swap5\n      pop\n        /* \"#utility.yul\":8008:8091   */\n      tag_208\n        /* \"#utility.yul\":8084:8090   */\n      dup4\n        /* \"#utility.yul\":8008:8091   */\n      tag_105\n      jump\t// in\n    tag_208:\n        /* \"#utility.yul\":7998:8091   */\n      swap3\n      pop\n        /* \"#utility.yul\":8120:8124   */\n      0x20\n        /* \"#utility.yul\":8115:8118   */\n      dup11\n        /* \"#utility.yul\":8111:8125   */\n      add\n        /* \"#utility.yul\":8104:8125   */\n      swap10\n      pop\n        /* \"#utility.yul\":7760:8135   */\n      pop\n        /* \"#utility.yul\":7747:7748   */\n      0x01\n        /* \"#utility.yul\":7744:7745   */\n      dup2\n        /* \"#utility.yul\":7740:7749   */\n      add\n        /* \"#utility.yul\":7735:7749   */\n      swap1\n      pop\n        /* \"#utility.yul\":7700:8135   */\n      jump(tag_204)\n    tag_206:\n        /* \"#utility.yul\":7704:7718   */\n      pop\n        /* \"#utility.yul\":8151:8155   */\n      dup3\n        /* \"#utility.yul\":8144:8155   */\n      swap8\n      pop\n        /* \"#utility.yul\":8171:8174   */\n      dup8\n        /* \"#utility.yul\":8164:8174   */\n      swap6\n      pop\n        /* \"#utility.yul\":7255:8180   */\n      pop\n      pop\n      pop\n      pop\n      pop\n        /* \"#utility.yul\":7085:8180   */\n      swap3\n      swap2\n      pop\n      pop\n      jump\t// out\n        /* \"#utility.yul\":8186:8651   */\n    tag_15:\n        /* \"#utility.yul\":8375:8379   */\n      0x00\n        /* \"#utility.yul\":8413:8415   */\n      0x20\n        /* \"#utility.yul\":8402:8411   */\n      dup3\n        /* \"#utility.yul\":8398:8416   */\n      add\n        /* \"#utility.yul\":8390:8416   */\n      swap1\n      pop\n        /* \"#utility.yul\":8462:8471   */\n      dup2\n        /* \"#utility.yul\":8456:8460   */\n      dup2\n        /* \"#utility.yul\":8452:8472   */\n      sub\n        /* \"#utility.yul\":8448:8449   */\n      0x00\n        /* \"#utility.yul\":8437:8446   */\n      dup4\n        /* \"#utility.yul\":8433:8450   */\n      add\n        /* \"#utility.yul\":8426:8473   */\n      mstore\n        /* \"#utility.yul\":8490:8644   */\n      tag_210\n        /* \"#utility.yul\":8639:8643   */\n      dup2\n        /* \"#utility.yul\":8630:8636   */\n      dup5\n        /* \"#utility.yul\":8490:8644   */\n      tag_106\n      jump\t// in\n    tag_210:\n        /* \"#utility.yul\":8482:8644   */\n      swap1\n      pop\n        /* \"#utility.yul\":8186:8651   */\n      swap3\n      swap2\n      pop\n      pop\n      jump\t// out\n        /* \"#utility.yul\":8657:8986   */\n    tag_18:\n        /* \"#utility.yul\":8716:8722   */\n      0x00\n        /* \"#utility.yul\":8765:8767   */\n      0x20\n        /* \"#utility.yul\":8753:8762   */\n      dup3\n        /* \"#utility.yul\":8744:8751   */\n      dup5\n        /* \"#utility.yul\":8740:8763   */\n      sub\n        /* \"#utility.yul\":8736:8768   */\n      slt\n        /* \"#utility.yul\":8733:8852   */\n      iszero\n      tag_212\n      jumpi\n        /* \"#utility.yul\":8771:8850   */\n      tag_213\n      tag_80\n      jump\t// in\n    tag_213:\n        /* \"#utility.yul\":8733:8852   */\n    tag_212:\n        /* \"#utility.yul\":8891:8892   */\n      0x00\n        /* \"#utility.yul\":8916:8969   */\n      tag_214\n        /* \"#utility.yul\":8961:8968   */\n      dup5\n        /* \"#utility.yul\":8952:8958   */\n      dup3\n        /* \"#utility.yul\":8941:8950   */\n      dup6\n        /* \"#utility.yul\":8937:8959   */\n      add\n        /* \"#utility.yul\":8916:8969   */\n      tag_94\n      jump\t// in\n    tag_214:\n        /* \"#utility.yul\":8906:8969   */\n      swap2\n      pop\n        /* \"#utility.yul\":8862:8979   */\n      pop\n        /* \"#utility.yul\":8657:8986   */\n      swap3\n      swap2\n      pop\n      pop\n      jump\t// out\n        /* \"#utility.yul\":9046:10071   */\n    tag_107:\n        /* \"#utility.yul\":9161:9164   */\n      0x00\n        /* \"#utility.yul\":9197:9201   */\n      0x80\n        /* \"#utility.yul\":9192:9195   */\n      dup4\n        /* \"#utility.yul\":9188:9202   */\n      add\n        /* \"#utility.yul\":9284:9288   */\n      0x00\n        /* \"#utility.yul\":9277:9282   */\n      dup4\n        /* \"#utility.yul\":9273:9289   */\n      add\n        /* \"#utility.yul\":9267:9290   */\n      mload\n        /* \"#utility.yul\":9337:9340   */\n      dup5\n        /* \"#utility.yul\":9331:9335   */\n      dup3\n        /* \"#utility.yul\":9327:9341   */\n      sub\n        /* \"#utility.yul\":9320:9324   */\n      0x00\n        /* \"#utility.yul\":9315:9318   */\n      dup7\n        /* \"#utility.yul\":9311:9325   */\n      add\n        /* \"#utility.yul\":9304:9342   */\n      mstore\n        /* \"#utility.yul\":9363:9436   */\n      tag_216\n        /* \"#utility.yul\":9431:9435   */\n      dup3\n        /* \"#utility.yul\":9417:9429   */\n      dup3\n        /* \"#utility.yul\":9363:9436   */\n      tag_101\n      jump\t// in\n    tag_216:\n        /* \"#utility.yul\":9355:9436   */\n      swap2\n      pop\n        /* \"#utility.yul\":9212:9447   */\n      pop\n        /* \"#utility.yul\":9531:9535   */\n      0x20\n        /* \"#utility.yul\":9524:9529   */\n      dup4\n        /* \"#utility.yul\":9520:9536   */\n      add\n        /* \"#utility.yul\":9514:9537   */\n      mload\n        /* \"#utility.yul\":9550:9613   */\n      tag_217\n        /* \"#utility.yul\":9607:9611   */\n      0x20\n        /* \"#utility.yul\":9602:9605   */\n      dup7\n        /* \"#utility.yul\":9598:9612   */\n      add\n        /* \"#utility.yul\":9584:9596   */\n      dup3\n        /* \"#utility.yul\":9550:9613   */\n      tag_102\n      jump\t// in\n    tag_217:\n        /* \"#utility.yul\":9457:9623   */\n      pop\n        /* \"#utility.yul\":9706:9710   */\n      0x40\n        /* \"#utility.yul\":9699:9704   */\n      dup4\n        /* \"#utility.yul\":9695:9711   */\n      add\n        /* \"#utility.yul\":9689:9712   */\n      mload\n        /* \"#utility.yul\":9725:9788   */\n      tag_218\n        /* \"#utility.yul\":9782:9786   */\n      0x40\n        /* \"#utility.yul\":9777:9780   */\n      dup7\n        /* \"#utility.yul\":9773:9787   */\n      add\n        /* \"#utility.yul\":9759:9771   */\n      dup3\n        /* \"#utility.yul\":9725:9788   */\n      tag_102\n      jump\t// in\n    tag_218:\n        /* \"#utility.yul\":9633:9798   */\n      pop\n        /* \"#utility.yul\":9881:9885   */\n      0x60\n        /* \"#utility.yul\":9874:9879   */\n      dup4\n        /* \"#utility.yul\":9870:9886   */\n      add\n        /* \"#utility.yul\":9864:9887   */\n      mload\n        /* \"#utility.yul\":9934:9937   */\n      dup5\n        /* \"#utility.yul\":9928:9932   */\n      dup3\n        /* \"#utility.yul\":9924:9938   */\n      sub\n        /* \"#utility.yul\":9917:9921   */\n      0x60\n        /* \"#utility.yul\":9912:9915   */\n      dup7\n        /* \"#utility.yul\":9908:9922   */\n      add\n        /* \"#utility.yul\":9901:9939   */\n      mstore\n        /* \"#utility.yul\":9960:10033   */\n      tag_219\n        /* \"#utility.yul\":10028:10032   */\n      dup3\n        /* \"#utility.yul\":10014:10026   */\n      dup3\n        /* \"#utility.yul\":9960:10033   */\n      tag_101\n      jump\t// in\n    tag_219:\n        /* \"#utility.yul\":9952:10033   */\n      swap2\n      pop\n        /* \"#utility.yul\":9808:10044   */\n      pop\n        /* \"#utility.yul\":10061:10065   */\n      dup1\n        /* \"#utility.yul\":10054:10065   */\n      swap2\n      pop\n        /* \"#utility.yul\":9166:10071   */\n      pop\n        /* \"#utility.yul\":9046:10071   */\n      swap3\n      swap2\n      pop\n      pop\n      jump\t// out\n        /* \"#utility.yul\":10077:10442   */\n    tag_21:\n        /* \"#utility.yul\":10216:10220   */\n      0x00\n        /* \"#utility.yul\":10254:10256   */\n      0x20\n        /* \"#utility.yul\":10243:10252   */\n      dup3\n        /* \"#utility.yul\":10239:10257   */\n      add\n        /* \"#utility.yul\":10231:10257   */\n      swap1\n      pop\n        /* \"#utility.yul\":10303:10312   */\n      dup2\n        /* \"#utility.yul\":10297:10301   */\n      dup2\n        /* \"#utility.yul\":10293:10313   */\n      sub\n        /* \"#utility.yul\":10289:10290   */\n      0x00\n        /* \"#utility.yul\":10278:10287   */\n      dup4\n        /* \"#utility.yul\":10274:10291   */\n      add\n        /* \"#utility.yul\":10267:10314   */\n      mstore\n        /* \"#utility.yul\":10331:10435   */\n      tag_221\n        /* \"#utility.yul\":10430:10434   */\n      dup2\n        /* \"#utility.yul\":10421:10427   */\n      dup5\n        /* \"#utility.yul\":10331:10435   */\n      tag_107\n      jump\t// in\n    tag_221:\n        /* \"#utility.yul\":10323:10435   */\n      swap1\n      pop\n        /* \"#utility.yul\":10077:10442   */\n      swap3\n      swap2\n      pop\n      pop\n      jump\t// out\n        /* \"#utility.yul\":10448:10565   */\n    tag_108:\n        /* \"#utility.yul\":10557:10558   */\n      0x00\n        /* \"#utility.yul\":10554:10555   */\n      dup1\n        /* \"#utility.yul\":10547:10559   */\n      revert\n        /* \"#utility.yul\":10571:10688   */\n    tag_109:\n        /* \"#utility.yul\":10680:10681   */\n      0x00\n        /* \"#utility.yul\":10677:10678   */\n      dup1\n        /* \"#utility.yul\":10670:10682   */\n      revert\n        /* \"#utility.yul\":10723:11961   */\n    tag_110:\n        /* \"#utility.yul\":10795:10800   */\n      0x00\n        /* \"#utility.yul\":10839:10843   */\n      0x80\n        /* \"#utility.yul\":10827:10836   */\n      dup3\n        /* \"#utility.yul\":10822:10825   */\n      dup5\n        /* \"#utility.yul\":10818:10837   */\n      sub\n        /* \"#utility.yul\":10814:10844   */\n      slt\n        /* \"#utility.yul\":10811:10928   */\n      iszero\n      tag_225\n      jumpi\n        /* \"#utility.yul\":10847:10926   */\n      tag_226\n      tag_108\n      jump\t// in\n    tag_226:\n        /* \"#utility.yul\":10811:10928   */\n    tag_225:\n        /* \"#utility.yul\":10946:10967   */\n      tag_227\n        /* \"#utility.yul\":10962:10966   */\n      0x80\n        /* \"#utility.yul\":10946:10967   */\n      tag_87\n      jump\t// in\n    tag_227:\n        /* \"#utility.yul\":10937:10967   */\n      swap1\n      pop\n        /* \"#utility.yul\":11054:11055   */\n      0x00\n        /* \"#utility.yul\":11043:11052   */\n      dup3\n        /* \"#utility.yul\":11039:11056   */\n      add\n        /* \"#utility.yul\":11026:11057   */\n      calldataload\n        /* \"#utility.yul\":11084:11102   */\n      0xffffffffffffffff\n        /* \"#utility.yul\":11076:11082   */\n      dup2\n        /* \"#utility.yul\":11073:11103   */\n      gt\n        /* \"#utility.yul\":11070:11187   */\n      iszero\n      tag_228\n      jumpi\n        /* \"#utility.yul\":11106:11185   */\n      tag_229\n      tag_109\n      jump\t// in\n    tag_229:\n        /* \"#utility.yul\":11070:11187   */\n    tag_228:\n        /* \"#utility.yul\":11226:11285   */\n      tag_230\n        /* \"#utility.yul\":11281:11284   */\n      dup5\n        /* \"#utility.yul\":11272:11278   */\n      dup3\n        /* \"#utility.yul\":11261:11270   */\n      dup6\n        /* \"#utility.yul\":11257:11279   */\n      add\n        /* \"#utility.yul\":11226:11285   */\n      tag_91\n      jump\t// in\n    tag_230:\n        /* \"#utility.yul\":11219:11223   */\n      0x00\n        /* \"#utility.yul\":11212:11217   */\n      dup4\n        /* \"#utility.yul\":11208:11224   */\n      add\n        /* \"#utility.yul\":11201:11286   */\n      mstore\n        /* \"#utility.yul\":10977:11297   */\n      pop\n        /* \"#utility.yul\":11358:11360   */\n      0x20\n        /* \"#utility.yul\":11399:11448   */\n      tag_231\n        /* \"#utility.yul\":11444:11447   */\n      dup5\n        /* \"#utility.yul\":11435:11441   */\n      dup3\n        /* \"#utility.yul\":11424:11433   */\n      dup6\n        /* \"#utility.yul\":11420:11442   */\n      add\n        /* \"#utility.yul\":11399:11448   */\n      tag_94\n      jump\t// in\n    tag_231:\n        /* \"#utility.yul\":11392:11396   */\n      0x20\n        /* \"#utility.yul\":11385:11390   */\n      dup4\n        /* \"#utility.yul\":11381:11397   */\n      add\n        /* \"#utility.yul\":11374:11449   */\n      mstore\n        /* \"#utility.yul\":11307:11460   */\n      pop\n        /* \"#utility.yul\":11520:11522   */\n      0x40\n        /* \"#utility.yul\":11561:11610   */\n      tag_232\n        /* \"#utility.yul\":11606:11609   */\n      dup5\n        /* \"#utility.yul\":11597:11603   */\n      dup3\n        /* \"#utility.yul\":11586:11595   */\n      dup6\n        /* \"#utility.yul\":11582:11604   */\n      add\n        /* \"#utility.yul\":11561:11610   */\n      tag_94\n      jump\t// in\n    tag_232:\n        /* \"#utility.yul\":11554:11558   */\n      0x40\n        /* \"#utility.yul\":11547:11552   */\n      dup4\n        /* \"#utility.yul\":11543:11559   */\n      add\n        /* \"#utility.yul\":11536:11611   */\n      mstore\n        /* \"#utility.yul\":11470:11622   */\n      pop\n        /* \"#utility.yul\":11710:11712   */\n      0x60\n        /* \"#utility.yul\":11699:11708   */\n      dup3\n        /* \"#utility.yul\":11695:11713   */\n      add\n        /* \"#utility.yul\":11682:11714   */\n      calldataload\n        /* \"#utility.yul\":11741:11759   */\n      0xffffffffffffffff\n        /* \"#utility.yul\":11733:11739   */\n      dup2\n        /* \"#utility.yul\":11730:11760   */\n      gt\n        /* \"#utility.yul\":11727:11844   */\n      iszero\n      tag_233\n      jumpi\n        /* \"#utility.yul\":11763:11842   */\n      tag_234\n      tag_109\n      jump\t// in\n    tag_234:\n        /* \"#utility.yul\":11727:11844   */\n    tag_233:\n        /* \"#utility.yul\":11883:11942   */\n      tag_235\n        /* \"#utility.yul\":11938:11941   */\n      dup5\n        /* \"#utility.yul\":11929:11935   */\n      dup3\n        /* \"#utility.yul\":11918:11927   */\n      dup6\n        /* \"#utility.yul\":11914:11936   */\n      add\n        /* \"#utility.yul\":11883:11942   */\n      tag_91\n      jump\t// in\n    tag_235:\n        /* \"#utility.yul\":11876:11880   */\n      0x60\n        /* \"#utility.yul\":11869:11874   */\n      dup4\n        /* \"#utility.yul\":11865:11881   */\n      add\n        /* \"#utility.yul\":11858:11943   */\n      mstore\n        /* \"#utility.yul\":11632:11954   */\n      pop\n        /* \"#utility.yul\":10723:11961   */\n      swap3\n      swap2\n      pop\n      pop\n      jump\t// out\n        /* \"#utility.yul\":11967:12502   */\n    tag_24:\n        /* \"#utility.yul\":12049:12055   */\n      0x00\n        /* \"#utility.yul\":12098:12100   */\n      0x20\n        /* \"#utility.yul\":12086:12095   */\n      dup3\n        /* \"#utility.yul\":12077:12084   */\n      dup5\n        /* \"#utility.yul\":12073:12096   */\n      sub\n        /* \"#utility.yul\":12069:12101   */\n      slt\n        /* \"#utility.yul\":12066:12185   */\n      iszero\n      tag_237\n      jumpi\n        /* \"#utility.yul\":12104:12183   */\n      tag_238\n      tag_80\n      jump\t// in\n    tag_238:\n        /* \"#utility.yul\":12066:12185   */\n    tag_237:\n        /* \"#utility.yul\":12252:12253   */\n      0x00\n        /* \"#utility.yul\":12241:12250   */\n      dup3\n        /* \"#utility.yul\":12237:12254   */\n      add\n        /* \"#utility.yul\":12224:12255   */\n      calldataload\n        /* \"#utility.yul\":12282:12300   */\n      0xffffffffffffffff\n        /* \"#utility.yul\":12274:12280   */\n      dup2\n        /* \"#utility.yul\":12271:12301   */\n      gt\n        /* \"#utility.yul\":12268:12385   */\n      iszero\n      tag_239\n      jumpi\n        /* \"#utility.yul\":12304:12383   */\n      tag_240\n      tag_81\n      jump\t// in\n    tag_240:\n        /* \"#utility.yul\":12268:12385   */\n    tag_239:\n        /* \"#utility.yul\":12409:12485   */\n      tag_241\n        /* \"#utility.yul\":12477:12484   */\n      dup5\n        /* \"#utility.yul\":12468:12474   */\n      dup3\n        /* \"#utility.yul\":12457:12466   */\n      dup6\n        /* \"#utility.yul\":12453:12475   */\n      add\n        /* \"#utility.yul\":12409:12485   */\n      tag_110\n      jump\t// in\n    tag_241:\n        /* \"#utility.yul\":12399:12485   */\n      swap2\n      pop\n        /* \"#utility.yul\":12195:12495   */\n      pop\n        /* \"#utility.yul\":11967:12502   */\n      swap3\n      swap2\n      pop\n      pop\n      jump\t// out\n        /* \"#utility.yul\":12508:12626   */\n    tag_111:\n        /* \"#utility.yul\":12595:12619   */\n      tag_243\n        /* \"#utility.yul\":12613:12618   */\n      dup2\n        /* \"#utility.yul\":12595:12619   */\n      tag_92\n      jump\t// in\n    tag_243:\n        /* \"#utility.yul\":12590:12593   */\n      dup3\n        /* \"#utility.yul\":12583:12620   */\n      mstore\n        /* \"#utility.yul\":12508:12626   */\n      pop\n      pop\n      jump\t// out\n        /* \"#utility.yul\":12632:12854   */\n    tag_30:\n        /* \"#utility.yul\":12725:12729   */\n      0x00\n        /* \"#utility.yul\":12763:12765   */\n      0x20\n        /* \"#utility.yul\":12752:12761   */\n      dup3\n        /* \"#utility.yul\":12748:12766   */\n      add\n        /* \"#utility.yul\":12740:12766   */\n      swap1\n      pop\n        /* \"#utility.yul\":12776:12847   */\n      tag_245\n        /* \"#utility.yul\":12844:12845   */\n      0x00\n        /* \"#utility.yul\":12833:12842   */\n      dup4\n        /* \"#utility.yul\":12829:12846   */\n      add\n        /* \"#utility.yul\":12820:12826   */\n      dup5\n        /* \"#utility.yul\":12776:12847   */\n      tag_111\n      jump\t// in\n    tag_245:\n        /* \"#utility.yul\":12632:12854   */\n      swap3\n      swap2\n      pop\n      pop\n      jump\t// out\n        /* \"#utility.yul\":12860:13040   */\n    tag_112:\n        /* \"#utility.yul\":12908:12985   */\n      0x4e487b7100000000000000000000000000000000000000000000000000000000\n        /* \"#utility.yul\":12905:12906   */\n      0x00\n        /* \"#utility.yul\":12898:12986   */\n      mstore\n        /* \"#utility.yul\":13005:13009   */\n      0x22\n        /* \"#utility.yul\":13002:13003   */\n      0x04\n        /* \"#utility.yul\":12995:13010   */\n      mstore\n        /* \"#utility.yul\":13029:13033   */\n      0x24\n        /* \"#utility.yul\":13026:13027   */\n      0x00\n        /* \"#utility.yul\":13019:13034   */\n      revert\n        /* \"#utility.yul\":13046:13366   */\n    tag_41:\n        /* \"#utility.yul\":13090:13096   */\n      0x00\n        /* \"#utility.yul\":13127:13128   */\n      0x02\n        /* \"#utility.yul\":13121:13125   */\n      dup3\n        /* \"#utility.yul\":13117:13129   */\n      div\n        /* \"#utility.yul\":13107:13129   */\n      swap1\n      pop\n        /* \"#utility.yul\":13174:13175   */\n      0x01\n        /* \"#utility.yul\":13168:13172   */\n      dup3\n        /* \"#utility.yul\":13164:13176   */\n      and\n        /* \"#utility.yul\":13195:13213   */\n      dup1\n        /* \"#utility.yul\":13185:13266   */\n      tag_248\n      jumpi\n        /* \"#utility.yul\":13251:13255   */\n      0x7f\n        /* \"#utility.yul\":13243:13249   */\n      dup3\n        /* \"#utility.yul\":13239:13256   */\n      and\n        /* \"#utility.yul\":13229:13256   */\n      swap2\n      pop\n        /* \"#utility.yul\":13185:13266   */\n    tag_248:\n        /* \"#utility.yul\":13313:13315   */\n      0x20\n        /* \"#utility.yul\":13305:13311   */\n      dup3\n        /* \"#utility.yul\":13302:13316   */\n      lt\n        /* \"#utility.yul\":13282:13300   */\n      dup2\n        /* \"#utility.yul\":13279:13317   */\n      sub\n        /* \"#utility.yul\":13276:13360   */\n      tag_249\n      jumpi\n        /* \"#utility.yul\":13332:13350   */\n      tag_250\n      tag_112\n      jump\t// in\n    tag_250:\n        /* \"#utility.yul\":13276:13360   */\n    tag_249:\n        /* \"#utility.yul\":13097:13366   */\n      pop\n        /* \"#utility.yul\":13046:13366   */\n      swap2\n      swap1\n      pop\n      jump\t// out\n        /* \"#utility.yul\":13372:13513   */\n    tag_113:\n        /* \"#utility.yul\":13421:13425   */\n      0x00\n        /* \"#utility.yul\":13444:13447   */\n      dup2\n        /* \"#utility.yul\":13436:13447   */\n      swap1\n      pop\n        /* \"#utility.yul\":13467:13470   */\n      dup2\n        /* \"#utility.yul\":13464:13465   */\n      0x00\n        /* \"#utility.yul\":13457:13471   */\n      mstore\n        /* \"#utility.yul\":13501:13505   */\n      0x20\n        /* \"#utility.yul\":13498:13499   */\n      0x00\n        /* \"#utility.yul\":13488:13506   */\n      keccak256\n        /* \"#utility.yul\":13480:13506   */\n      swap1\n      pop\n        /* \"#utility.yul\":13372:13513   */\n      swap2\n      swap1\n      pop\n      jump\t// out\n        /* \"#utility.yul\":13519:13612   */\n    tag_114:\n        /* \"#utility.yul\":13556:13562   */\n      0x00\n        /* \"#utility.yul\":13603:13605   */\n      0x20\n        /* \"#utility.yul\":13598:13600   */\n      0x1f\n        /* \"#utility.yul\":13591:13596   */\n      dup4\n        /* \"#utility.yul\":13587:13601   */\n      add\n        /* \"#utility.yul\":13583:13606   */\n      div\n        /* \"#utility.yul\":13573:13606   */\n      swap1\n      pop\n        /* \"#utility.yul\":13519:13612   */\n      swap2\n      swap1\n      pop\n      jump\t// out\n        /* \"#utility.yul\":13618:13725   */\n    tag_115:\n        /* \"#utility.yul\":13662:13670   */\n      0x00\n        /* \"#utility.yul\":13712:13717   */\n      dup3\n        /* \"#utility.yul\":13706:13710   */\n      dup3\n        /* \"#utility.yul\":13702:13718   */\n      shl\n        /* \"#utility.yul\":13681:13718   */\n      swap1\n      pop\n        /* \"#utility.yul\":13618:13725   */\n      swap3\n      swap2\n      pop\n      pop\n      jump\t// out\n        /* \"#utility.yul\":13731:14124   */\n    tag_116:\n        /* \"#utility.yul\":13800:13806   */\n      0x00\n        /* \"#utility.yul\":13850:13851   */\n      0x08\n        /* \"#utility.yul\":13838:13848   */\n      dup4\n        /* \"#utility.yul\":13834:13852   */\n      mul\n        /* \"#utility.yul\":13873:13970   */\n      tag_255\n        /* \"#utility.yul\":13903:13969   */\n      0xffffffffffffffffffffffffffffffffffffffffffffffffffffffffffffffff\n        /* \"#utility.yul\":13892:13901   */\n      dup3\n        /* \"#utility.yul\":13873:13970   */\n      tag_115\n      jump\t// in\n    tag_255:\n        /* \"#utility.yul\":13991:14030   */\n      tag_256\n        /* \"#utility.yul\":14021:14029   */\n      dup7\n        /* \"#utility.yul\":14010:14019   */\n      dup4\n        /* \"#utility.yul\":13991:14030   */\n      tag_115\n      jump\t// in\n    tag_256:\n        /* \"#utility.yul\":13979:14030   */\n      swap6\n      pop\n        /* \"#utility.yul\":14063:14067   */\n      dup1\n        /* \"#utility.yul\":14059:14068   */\n      not\n        /* \"#utility.yul\":14052:14057   */\n      dup5\n        /* \"#utility.yul\":14048:14069   */\n      and\n        /* \"#utility.yul\":14039:14069   */\n      swap4\n      pop\n        /* \"#utility.yul\":14112:14116   */\n      dup1\n        /* \"#utility.yul\":14102:14110   */\n      dup7\n        /* \"#utility.yul\":14098:14117   */\n      and\n        /* \"#utility.yul\":14091:14096   */\n      dup5\n        /* \"#utility.yul\":14088:14118   */\n      or\n        /* \"#utility.yul\":14078:14118   */\n      swap3\n      pop\n        /* \"#utility.yul\":13807:14124   */\n      pop\n      pop\n        /* \"#utility.yul\":13731:14124   */\n      swap4\n      swap3\n      pop\n      pop\n      pop\n      jump\t// out\n        /* \"#utility.yul\":14130:14190   */\n    tag_117:\n        /* \"#utility.yul\":14158:14161   */\n      0x00\n        /* \"#utility.yul\":14179:14184   */\n      dup2\n        /* \"#utility.yul\":14172:14184   */\n      swap1\n      pop\n        /* \"#utility.yul\":14130:14190   */\n      swap2\n      swap1\n      pop\n      jump\t// out\n        /* \"#utility.yul\":14196:14338   */\n    tag_118:\n        /* \"#utility.yul\":14246:14255   */\n      0x00\n        /* \"#utility.yul\":14279:14332   */\n      tag_259\n        /* \"#utility.yul\":14297:14331   */\n      tag_260\n        /* \"#utility.yul\":14306:14330   */\n      tag_261\n        /* \"#utility.yul\":14324:14329   */\n      dup5\n        /* \"#utility.yul\":14306:14330   */\n      tag_92\n      jump\t// in\n    tag_261:\n        /* \"#utility.yul\":14297:14331   */\n      tag_117\n      jump\t// in\n    tag_260:\n        /* \"#utility.yul\":14279:14332   */\n      tag_92\n      jump\t// in\n    tag_259:\n        /* \"#utility.yul\":14266:14332   */\n      swap1\n      pop\n        /* \"#utility.yul\":14196:14338   */\n      swap2\n      swap1\n      pop\n      jump\t// out\n        /* \"#utility.yul\":14344:14419   */\n    tag_119:\n        /* \"#utility.yul\":14387:14390   */\n      0x00\n        /* \"#utility.yul\":14408:14413   */\n      dup2\n        /* \"#utility.yul\":14401:14413   */\n      swap1\n      pop\n        /* \"#utility.yul\":14344:14419   */\n      swap2\n      swap1\n      pop\n      jump\t// out\n        /* \"#utility.yul\":14425:14694   */\n    tag_120:\n        /* \"#utility.yul\":14535:14574   */\n      tag_264\n        /* \"#utility.yul\":14566:14573   */\n      dup4\n        /* \"#utility.yul\":14535:14574   */\n      tag_118\n      jump\t// in\n    tag_264:\n        /* \"#utility.yul\":14596:14687   */\n      tag_265\n        /* \"#utility.yul\":14645:14686   */\n      tag_266\n        /* \"#utility.yul\":14669:14685   */\n      dup3\n        /* \"#utility.yul\":14645:14686   */\n      tag_119\n      jump\t// in\n    tag_266:\n        /* \"#utility.yul\":14637:14643   */\n      dup5\n        /* \"#utility.yul\":14630:14634   */\n      dup5\n        /* \"#utility.yul\":14624:14635   */\n      sload\n        /* \"#utility.yul\":14596:14687   */\n      tag_116\n      jump\t// in\n    tag_265:\n        /* \"#utility.yul\":14590:14594   */\n      dup3\n        /* \"#utility.yul\":14583:14688   */\n      sstore\n        /* \"#utility.yul\":14501:14694   */\n      pop\n        /* \"#utility.yul\":14425:14694   */\n      pop\n      pop\n      pop\n      jump\t// out\n        /* \"#utility.yul\":14700:14773   */\n    tag_121:\n        /* \"#utility.yul\":14745:14748   */\n      0x00\n        /* \"#utility.yul\":14700:14773   */\n      swap1\n      jump\t// out\n        /* \"#utility.yul\":14779:14968   */\n    tag_122:\n        /* \"#utility.yul\":14856:14888   */\n      tag_269\n      tag_121\n      jump\t// in\n    tag_269:\n        /* \"#utility.yul\":14897:14962   */\n      tag_270\n        /* \"#utility.yul\":14955:14961   */\n      dup2\n        /* \"#utility.yul\":14947:14953   */\n      dup5\n        /* \"#utility.yul\":14941:14945   */\n      dup5\n        /* \"#utility.yul\":14897:14962   */\n      tag_120\n      jump\t// in\n    tag_270:\n        /* \"#utility.yul\":14832:14968   */\n      pop\n        /* \"#utility.yul\":14779:14968   */\n      pop\n      pop\n      jump\t// out\n        /* \"#utility.yul\":14974:15160   */\n    tag_123:\n        /* \"#utility.yul\":15034:15154   */\n    tag_272:\n        /* \"#utility.yul\":15051:15054   */\n      dup2\n        /* \"#utility.yul\":15044:15049   */\n      dup2\n        /* \"#utility.yul\":15041:15055   */\n      lt\n        /* \"#utility.yul\":15034:15154   */\n      iszero\n      tag_274\n      jumpi\n        /* \"#utility.yul\":15105:15144   */\n      tag_275\n        /* \"#utility.yul\":15142:15143   */\n      0x00\n        /* \"#utility.yul\":15135:15140   */\n      dup3\n        /* \"#utility.yul\":15105:15144   */\n      tag_122\n      jump\t// in\n    tag_275:\n        /* \"#utility.yul\":15078:15079   */\n      0x01\n        /* \"#utility.yul\":15071:15076   */\n      dup2\n        /* \"#utility.yul\":15067:15080   */\n      add\n        /* \"#utility.yul\":15058:15080   */\n      swap1\n      pop\n        /* \"#utility.yul\":15034:15154   */\n      jump(tag_272)\n    tag_274:\n        /* \"#utility.yul\":14974:15160   */\n      pop\n      pop\n      jump\t// out\n        /* \"#utility.yul\":15166:15709   */\n    tag_124:\n        /* \"#utility.yul\":15267:15269   */\n      0x1f\n        /* \"#utility.yul\":15262:15265   */\n      dup3\n        /* \"#utility.yul\":15259:15270   */\n      gt\n        /* \"#utility.yul\":15256:15702   */\n      iszero\n      tag_277\n      jumpi\n        /* \"#utility.yul\":15301:15339   */\n      tag_278\n        /* \"#utility.yul\":15333:15338   */\n      dup2\n        /* \"#utility.yul\":15301:15339   */\n      tag_113\n      jump\t// in\n    tag_278:\n        /* \"#utility.yul\":15385:15414   */\n      tag_279\n        /* \"#utility.yul\":15403:15413   */\n      dup5\n        /* \"#utility.yul\":15385:15414   */\n      tag_114\n      jump\t// in\n    tag_279:\n        /* \"#utility.yul\":15375:15383   */\n      dup2\n        /* \"#utility.yul\":15371:15415   */\n      add\n        /* \"#utility.yul\":15568:15570   */\n      0x20\n        /* \"#utility.yul\":15556:15566   */\n      dup6\n        /* \"#utility.yul\":15553:15571   */\n      lt\n        /* \"#utility.yul\":15550:15599   */\n      iszero\n      tag_280\n      jumpi\n        /* \"#utility.yul\":15589:15597   */\n      dup2\n        /* \"#utility.yul\":15574:15597   */\n      swap1\n      pop\n        /* \"#utility.yul\":15550:15599   */\n    tag_280:\n        /* \"#utility.yul\":15612:15692   */\n      tag_281\n        /* \"#utility.yul\":15668:15690   */\n      tag_282\n        /* \"#utility.yul\":15686:15689   */\n      dup6\n        /* \"#utility.yul\":15668:15690   */\n      tag_114\n      jump\t// in\n    tag_282:\n        /* \"#utility.yul\":15658:15666   */\n      dup4\n        /* \"#utility.yul\":15654:15691   */\n      add\n        /* \"#utility.yul\":15641:15652   */\n      dup3\n        /* \"#utility.yul\":15612:15692   */\n      tag_123\n      jump\t// in\n    tag_281:\n        /* \"#utility.yul\":15271:15702   */\n      pop\n      pop\n        /* \"#utility.yul\":15256:15702   */\n    tag_277:\n        /* \"#utility.yul\":15166:15709   */\n      pop\n      pop\n      pop\n      jump\t// out\n        /* \"#utility.yul\":15715:15832   */\n    tag_125:\n        /* \"#utility.yul\":15769:15777   */\n      0x00\n        /* \"#utility.yul\":15819:15824   */\n      dup3\n        /* \"#utility.yul\":15813:15817   */\n      dup3\n        /* \"#utility.yul\":15809:15825   */\n      shr\n        /* \"#utility.yul\":15788:15825   */\n      swap1\n      pop\n        /* \"#utility.yul\":15715:15832   */\n      swap3\n      swap2\n      pop\n      pop\n      jump\t// out\n        /* \"#utility.yul\":15838:16007   */\n    tag_126:\n        /* \"#utility.yul\":15882:15888   */\n      0x00\n        /* \"#utility.yul\":15915:15966   */\n      tag_285\n        /* \"#utility.yul\":15963:15964   */\n      0x00\n        /* \"#utility.yul\":15959:15965   */\n      not\n        /* \"#utility.yul\":15951:15956   */\n      dup5\n        /* \"#utility.yul\":15948:15949   */\n      0x08\n        /* \"#utility.yul\":15944:15957   */\n      mul\n        /* \"#utility.yul\":15915:15966   */\n      tag_125\n      jump\t// in\n    tag_285:\n        /* \"#utility.yul\":15911:15967   */\n      not\n        /* \"#utility.yul\":15996:16000   */\n      dup1\n        /* \"#utility.yul\":15990:15994   */\n      dup4\n        /* \"#utility.yul\":15986:16001   */\n      and\n        /* \"#utility.yul\":15976:16001   */\n      swap2\n      pop\n        /* \"#utility.yul\":15889:16007   */\n      pop\n        /* \"#utility.yul\":15838:16007   */\n      swap3\n      swap2\n      pop\n      pop\n      jump\t// out\n        /* \"#utility.yul\":16012:16307   */\n    tag_127:\n        /* \"#utility.yul\":16088:16092   */\n      0x00\n        /* \"#utility.yul\":16234:16263   */\n      tag_287\n        /* \"#utility.yul\":16259:16262   */\n      dup4\n        /* \"#utility.yul\":16253:16257   */\n      dup4\n        /* \"#utility.yul\":16234:16263   */\n      tag_126\n      jump\t// in\n    tag_287:\n        /* \"#utility.yul\":16226:16263   */\n      swap2\n      pop\n        /* \"#utility.yul\":16296:16299   */\n      dup3\n        /* \"#utility.yul\":16293:16294   */\n      0x02\n        /* \"#utility.yul\":16289:16300   */\n      mul\n        /* \"#utility.yul\":16283:16287   */\n      dup3\n        /* \"#utility.yul\":16280:16301   */\n      or\n        /* \"#utility.yul\":16272:16301   */\n      swap1\n      pop\n        /* \"#utility.yul\":16012:16307   */\n      swap3\n      swap2\n      pop\n      pop\n      jump\t// out\n        /* \"#utility.yul\":16312:17707   */\n    tag_34:\n        /* \"#utility.yul\":16429:16466   */\n      tag_289\n        /* \"#utility.yul\":16462:16465   */\n      dup3\n        /* \"#utility.yul\":16429:16466   */\n      tag_98\n      jump\t// in\n    tag_289:\n        /* \"#utility.yul\":16531:16549   */\n      0xffffffffffffffff\n        /* \"#utility.yul\":16523:16529   */\n      dup2\n        /* \"#utility.yul\":16520:16550   */\n      gt\n        /* \"#utility.yul\":16517:16573   */\n      iszero\n      tag_290\n      jumpi\n        /* \"#utility.yul\":16553:16571   */\n      tag_291\n      tag_85\n      jump\t// in\n    tag_291:\n        /* \"#utility.yul\":16517:16573   */\n    tag_290:\n        /* \"#utility.yul\":16597:16635   */\n      tag_292\n        /* \"#utility.yul\":16629:16633   */\n      dup3\n        /* \"#utility.yul\":16623:16634   */\n      sload\n        /* \"#utility.yul\":16597:16635   */\n      tag_41\n      jump\t// in\n    tag_292:\n        /* \"#utility.yul\":16682:16749   */\n      tag_293\n        /* \"#utility.yul\":16742:16748   */\n      dup3\n        /* \"#utility.yul\":16734:16740   */\n      dup3\n        /* \"#utility.yul\":16728:16732   */\n      dup6\n        /* \"#utility.yul\":16682:16749   */\n      tag_124\n      jump\t// in\n    tag_293:\n        /* \"#utility.yul\":16776:16777   */\n      0x00\n        /* \"#utility.yul\":16800:16804   */\n      0x20\n        /* \"#utility.yul\":16787:16804   */\n      swap1\n      pop\n        /* \"#utility.yul\":16832:16834   */\n      0x1f\n        /* \"#utility.yul\":16824:16830   */\n      dup4\n        /* \"#utility.yul\":16821:16835   */\n      gt\n        /* \"#utility.yul\":16849:16850   */\n      0x01\n        /* \"#utility.yul\":16844:17462   */\n      dup2\n      eq\n      tag_295\n      jumpi\n        /* \"#utility.yul\":17506:17507   */\n      0x00\n        /* \"#utility.yul\":17523:17529   */\n      dup5\n        /* \"#utility.yul\":17520:17597   */\n      iszero\n      tag_296\n      jumpi\n        /* \"#utility.yul\":17572:17581   */\n      dup3\n        /* \"#utility.yul\":17567:17570   */\n      dup8\n        /* \"#utility.yul\":17563:17582   */\n      add\n        /* \"#utility.yul\":17557:17583   */\n      mload\n        /* \"#utility.yul\":17548:17583   */\n      swap1\n      pop\n        /* \"#utility.yul\":17520:17597   */\n    tag_296:\n        /* \"#utility.yul\":17623:17690   */\n      tag_297\n        /* \"#utility.yul\":17683:17689   */\n      dup6\n        /* \"#utility.yul\":17676:17681   */\n      dup3\n        /* \"#utility.yul\":17623:17690   */\n      tag_127\n      jump\t// in\n    tag_297:\n        /* \"#utility.yul\":17617:17621   */\n      dup7\n        /* \"#utility.yul\":17610:17691   */\n      sstore\n        /* \"#utility.yul\":17479:17701   */\n      pop\n        /* \"#utility.yul\":16814:17701   */\n      jump(tag_294)\n        /* \"#utility.yul\":16844:17462   */\n    tag_295:\n        /* \"#utility.yul\":16896:16900   */\n      0x1f\n        /* \"#utility.yul\":16892:16901   */\n      not\n        /* \"#utility.yul\":16884:16890   */\n      dup5\n        /* \"#utility.yul\":16880:16902   */\n      and\n        /* \"#utility.yul\":16930:16967   */\n      tag_298\n        /* \"#utility.yul\":16962:16966   */\n      dup7\n        /* \"#utility.yul\":16930:16967   */\n      tag_113\n      jump\t// in\n    tag_298:\n        /* \"#utility.yul\":16989:16990   */\n      0x00\n        /* \"#utility.yul\":17003:17211   */\n    tag_299:\n        /* \"#utility.yul\":17017:17024   */\n      dup3\n        /* \"#utility.yul\":17014:17015   */\n      dup2\n        /* \"#utility.yul\":17011:17025   */\n      lt\n        /* \"#utility.yul\":17003:17211   */\n      iszero\n      tag_301\n      jumpi\n        /* \"#utility.yul\":17096:17105   */\n      dup5\n        /* \"#utility.yul\":17091:17094   */\n      dup10\n        /* \"#utility.yul\":17087:17106   */\n      add\n        /* \"#utility.yul\":17081:17107   */\n      mload\n        /* \"#utility.yul\":17073:17079   */\n      dup3\n        /* \"#utility.yul\":17066:17108   */\n      sstore\n        /* \"#utility.yul\":17147:17148   */\n      0x01\n        /* \"#utility.yul\":17139:17145   */\n      dup3\n        /* \"#utility.yul\":17135:17149   */\n      add\n        /* \"#utility.yul\":17125:17149   */\n      swap2\n      pop\n        /* \"#utility.yul\":17194:17196   */\n      0x20\n        /* \"#utility.yul\":17183:17192   */\n      dup6\n        /* \"#utility.yul\":17179:17197   */\n      add\n        /* \"#utility.yul\":17166:17197   */\n      swap5\n      pop\n        /* \"#utility.yul\":17040:17044   */\n      0x20\n        /* \"#utility.yul\":17037:17038   */\n      dup2\n        /* \"#utility.yul\":17033:17045   */\n      add\n        /* \"#utility.yul\":17028:17045   */\n      swap1\n      pop\n        /* \"#utility.yul\":17003:17211   */\n      jump(tag_299)\n    tag_301:\n        /* \"#utility.yul\":17239:17245   */\n      dup7\n        /* \"#utility.yul\":17230:17237   */\n      dup4\n        /* \"#utility.yul\":17227:17246   */\n      lt\n        /* \"#utility.yul\":17224:17403   */\n      iszero\n      tag_302\n      jumpi\n        /* \"#utility.yul\":17297:17306   */\n      dup5\n        /* \"#utility.yul\":17292:17295   */\n      dup10\n        /* \"#utility.yul\":17288:17307   */\n      add\n        /* \"#utility.yul\":17282:17308   */\n      mload\n        /* \"#utility.yul\":17340:17388   */\n      tag_303\n        /* \"#utility.yul\":17382:17386   */\n      0x1f\n        /* \"#utility.yul\":17374:17380   */\n      dup10\n        /* \"#utility.yul\":17370:17387   */\n      and\n        /* \"#utility.yul\":17359:17368   */\n      dup3\n        /* \"#utility.yul\":17340:17388   */\n      tag_126\n      jump\t// in\n    tag_303:\n        /* \"#utility.yul\":17332:17338   */\n      dup4\n        /* \"#utility.yul\":17325:17389   */\n      sstore\n        /* \"#utility.yul\":17247:17403   */\n      pop\n        /* \"#utility.yul\":17224:17403   */\n    tag_302:\n        /* \"#utility.yul\":17449:17450   */\n      0x01\n        /* \"#utility.yul\":17445:17446   */\n      0x02\n        /* \"#utility.yul\":17437:17443   */\n      dup9\n        /* \"#utility.yul\":17433:17447   */\n      mul\n        /* \"#utility.yul\":17429:17451   */\n      add\n        /* \"#utility.yul\":17423:17427   */\n      dup9\n        /* \"#utility.yul\":17416:17452   */\n      sstore\n        /* \"#utility.yul\":16851:17462   */\n      pop\n      pop\n      pop\n        /* \"#utility.yul\":16814:17701   */\n    tag_294:\n      pop\n        /* \"#utility.yul\":16404:17707   */\n      pop\n      pop\n      pop\n        /* \"#utility.yul\":16312:17707   */\n      pop\n      pop\n      jump\t// out\n        /* \"#utility.yul\":17713:17893   */\n    tag_128:\n        /* \"#utility.yul\":17761:17838   */\n      0x4e487b7100000000000000000000000000000000000000000000000000000000\n        /* \"#utility.yul\":17758:17759   */\n      0x00\n        /* \"#utility.yul\":17751:17839   */\n      mstore\n        /* \"#utility.yul\":17858:17862   */\n      0x11\n        /* \"#utility.yul\":17855:17856   */\n      0x04\n        /* \"#utility.yul\":17848:17863   */\n      mstore\n        /* \"#utility.yul\":17882:17886   */\n      0x24\n        /* \"#utility.yul\":17879:17880   */\n      0x00\n        /* \"#utility.yul\":17872:17887   */\n      revert\n        /* \"#utility.yul\":17899:18093   */\n    tag_55:\n        /* \"#utility.yul\":17939:17943   */\n      0x00\n        /* \"#utility.yul\":17959:17979   */\n      tag_306\n        /* \"#utility.yul\":17977:17978   */\n      dup3\n        /* \"#utility.yul\":17959:17979   */\n      tag_92\n      jump\t// in\n    tag_306:\n        /* \"#utility.yul\":17954:17979   */\n      swap2\n      pop\n        /* \"#utility.yul\":17993:18013   */\n      tag_307\n        /* \"#utility.yul\":18011:18012   */\n      dup4\n        /* \"#utility.yul\":17993:18013   */\n      tag_92\n      jump\t// in\n    tag_307:\n        /* \"#utility.yul\":17988:18013   */\n      swap3\n      pop\n        /* \"#utility.yul\":18037:18038   */\n      dup3\n        /* \"#utility.yul\":18034:18035   */\n      dup3\n        /* \"#utility.yul\":18030:18039   */\n      sub\n        /* \"#utility.yul\":18022:18039   */\n      swap1\n      pop\n        /* \"#utility.yul\":18061:18062   */\n      dup2\n        /* \"#utility.yul\":18055:18059   */\n      dup2\n        /* \"#utility.yul\":18052:18063   */\n      gt\n        /* \"#utility.yul\":18049:18086   */\n      iszero\n      tag_308\n      jumpi\n        /* \"#utility.yul\":18066:18084   */\n      tag_309\n      tag_128\n      jump\t// in\n    tag_309:\n        /* \"#utility.yul\":18049:18086   */\n    tag_308:\n        /* \"#utility.yul\":17899:18093   */\n      swap3\n      swap2\n      pop\n      pop\n      jump\t// out\n        /* \"#utility.yul\":18099:18279   */\n    tag_58:\n        /* \"#utility.yul\":18147:18224   */\n      0x4e487b7100000000000000000000000000000000000000000000000000000000\n        /* \"#utility.yul\":18144:18145   */\n      0x00\n        /* \"#utility.yul\":18137:18225   */\n      mstore\n        /* \"#utility.yul\":18244:18248   */\n      0x32\n        /* \"#utility.yul\":18241:18242   */\n      0x04\n        /* \"#utility.yul\":18234:18249   */\n      mstore\n        /* \"#utility.yul\":18268:18272   */\n      0x24\n        /* \"#utility.yul\":18265:18266   */\n      0x00\n        /* \"#utility.yul\":18258:18273   */\n      revert\n\n    auxdata: 0xa2646970667358221220a87b7e0fa40e47d8ffc7e43d39ea6e7eaa64b157c14e49e632121ac5b1683b2264736f6c63430008160033\n}\n",
				"bytecode": {
					"linkReferences": {},
					"object": "608060405234801561000f575f80fd5b50610eb48061001d5f395ff3fe608060405234801561000f575f80fd5b5060043610610055575f3560e01c806332ca2f401461005957806357e61ea414610075578063642f9163146100935780639c380af7146100c3578063d3ad8db9146100df575b5f80fd5b610073600480360381019061006e91906106eb565b61010f565b005b61007d61019d565b60405161008a9190610932565b60405180910390f35b6100ad60048036038101906100a89190610952565b61032b565b6040516100ba91906109e4565b60405180910390f35b6100dd60048036038101906100d89190610ab9565b6104a3565b005b6100f960048036038101906100f49190610952565b61050e565b6040516101069190610b0f565b60405180910390f35b5f604051806080016040528086815260200185815260200184815260200183815250908060018154018082558091505060019003905f5260205f2090600402015f909190919091505f820151815f01908161016a9190610d22565b50602082015181600101556040820151816002015560608201518160030190816101949190610d22565b50505050505050565b60605f805480602002602001604051908101604052809291908181526020015f905b82821015610322578382905f5260205f2090600402016040518060800160405290815f820180546101ef90610b55565b80601f016020809104026020016040519081016040528092919081815260200182805461021b90610b55565b80156102665780601f1061023d57610100808354040283529160200191610266565b820191905f5260205f20905b81548152906001019060200180831161024957829003601f168201915b50505050508152602001600182015481526020016002820154815260200160038201805461029390610b55565b80601f01602080910402602001604051908101604052809291908181526020018280546102bf90610b55565b801561030a5780601f106102e15761010080835404028352916020019161030a565b820191905f5260205f20905b8154815290600101906020018083116102ed57829003601f168201915b505050505081525050815260200190600101906101bf565b50505050905090565b610333610545565b5f6001836103419190610e1e565b8154811061035257610351610e51565b5b905f5260205f2090600402016040518060800160405290815f8201805461037890610b55565b80601f01602080910402602001604051908101604052809291908181526020018280546103a490610b55565b80156103ef5780601f106103c6576101008083540402835291602001916103ef565b820191905f5260205f20905b8154815290600101906020018083116103d257829003601f168201915b50505050508152602001600182015481526020016002820154815260200160038201805461041c90610b55565b80601f016020809104026020016040519081016040528092919081815260200182805461044890610b55565b80156104935780601f1061046a57610100808354040283529160200191610493565b820191905f5260205f20905b81548152906001019060200180831161047657829003601f168201915b5050505050815250509050919050565b5f81908060018154018082558091505060019003905f5260205f2090600402015f909190919091505f820151815f0190816104de9190610d22565b50602082015181600101556040820151816002015560608201518160030190816105089190610d22565b50505050565b5f8060018361051d9190610e1e565b8154811061052e5761052d610e51565b5b905f5260205f209060040201600201549050919050565b6040518060800160405280606081526020015f81526020015f8152602001606081525090565b5f604051905090565b5f80fd5b5f80fd5b5f80fd5b5f80fd5b5f601f19601f8301169050919050565b7f4e487b71000000000000000000000000000000000000000000000000000000005f52604160045260245ffd5b6105ca82610584565b810181811067ffffffffffffffff821117156105e9576105e8610594565b5b80604052505050565b5f6105fb61056b565b905061060782826105c1565b919050565b5f67ffffffffffffffff82111561062657610625610594565b5b61062f82610584565b9050602081019050919050565b828183375f83830152505050565b5f61065c6106578461060c565b6105f2565b90508281526020810184848401111561067857610677610580565b5b61068384828561063c565b509392505050565b5f82601f83011261069f5761069e61057c565b5b81356106af84826020860161064a565b91505092915050565b5f819050919050565b6106ca816106b8565b81146106d4575f80fd5b50565b5f813590506106e5816106c1565b92915050565b5f805f806080858703121561070357610702610574565b5b5f85013567ffffffffffffffff8111156107205761071f610578565b5b61072c8782880161068b565b945050602061073d878288016106d7565b935050604061074e878288016106d7565b925050606085013567ffffffffffffffff81111561076f5761076e610578565b5b61077b8782880161068b565b91505092959194509250565b5f81519050919050565b5f82825260208201905092915050565b5f819050602082019050919050565b5f81519050919050565b5f82825260208201905092915050565b5f5b838110156107e75780820151818401526020810190506107cc565b5f8484015250505050565b5f6107fc826107b0565b61080681856107ba565b93506108168185602086016107ca565b61081f81610584565b840191505092915050565b610833816106b8565b82525050565b5f608083015f8301518482035f86015261085382826107f2565b9150506020830151610868602086018261082a565b50604083015161087b604086018261082a565b506060830151848203606086015261089382826107f2565b9150508091505092915050565b5f6108ab8383610839565b905092915050565b5f602082019050919050565b5f6108c982610787565b6108d38185610791565b9350836020820285016108e5856107a1565b805f5b85811015610920578484038952815161090185826108a0565b945061090c836108b3565b925060208a019950506001810190506108e8565b50829750879550505050505092915050565b5f6020820190508181035f83015261094a81846108bf565b905092915050565b5f6020828403121561096757610966610574565b5b5f610974848285016106d7565b91505092915050565b5f608083015f8301518482035f86015261099782826107f2565b91505060208301516109ac602086018261082a565b5060408301516109bf604086018261082a565b50606083015184820360608601526109d782826107f2565b9150508091505092915050565b5f6020820190508181035f8301526109fc818461097d565b905092915050565b5f80fd5b5f80fd5b5f60808284031215610a2157610a20610a04565b5b610a2b60806105f2565b90505f82013567ffffffffffffffff811115610a4a57610a49610a08565b5b610a568482850161068b565b5f830152506020610a69848285016106d7565b6020830152506040610a7d848285016106d7565b604083015250606082013567ffffffffffffffff811115610aa157610aa0610a08565b5b610aad8482850161068b565b60608301525092915050565b5f60208284031215610ace57610acd610574565b5b5f82013567ffffffffffffffff811115610aeb57610aea610578565b5b610af784828501610a0c565b91505092915050565b610b09816106b8565b82525050565b5f602082019050610b225f830184610b00565b92915050565b7f4e487b71000000000000000000000000000000000000000000000000000000005f52602260045260245ffd5b5f6002820490506001821680610b6c57607f821691505b602082108103610b7f57610b7e610b28565b5b50919050565b5f819050815f5260205f209050919050565b5f6020601f8301049050919050565b5f82821b905092915050565b5f60088302610be17fffffffffffffffffffffffffffffffffffffffffffffffffffffffffffffffff82610ba6565b610beb8683610ba6565b95508019841693508086168417925050509392505050565b5f819050919050565b5f610c26610c21610c1c846106b8565b610c03565b6106b8565b9050919050565b5f819050919050565b610c3f83610c0c565b610c53610c4b82610c2d565b848454610bb2565b825550505050565b5f90565b610c67610c5b565b610c72818484610c36565b505050565b5b81811015610c9557610c8a5f82610c5f565b600181019050610c78565b5050565b601f821115610cda57610cab81610b85565b610cb484610b97565b81016020851015610cc3578190505b610cd7610ccf85610b97565b830182610c77565b50505b505050565b5f82821c905092915050565b5f610cfa5f1984600802610cdf565b1980831691505092915050565b5f610d128383610ceb565b9150826002028217905092915050565b610d2b826107b0565b67ffffffffffffffff811115610d4457610d43610594565b5b610d4e8254610b55565b610d59828285610c99565b5f60209050601f831160018114610d8a575f8415610d78578287015190505b610d828582610d07565b865550610de9565b601f198416610d9886610b85565b5f5b82811015610dbf57848901518255600182019150602085019450602081019050610d9a565b86831015610ddc5784890151610dd8601f891682610ceb565b8355505b6001600288020188555050505b505050505050565b7f4e487b71000000000000000000000000000000000000000000000000000000005f52601160045260245ffd5b5f610e28826106b8565b9150610e33836106b8565b9250828203905081811115610e4b57610e4a610df1565b5b92915050565b7f4e487b71000000000000000000000000000000000000000000000000000000005f52603260045260245ffdfea2646970667358221220a87b7e0fa40e47d8ffc7e43d39ea6e7eaa64b157c14e49e632121ac5b1683b2264736f6c63430008160033",
					"opcodes": "PUSH1 0x80 PUSH1 0x40 MSTORE CALLVALUE DUP1 ISZERO PUSH2 0xF JUMPI PUSH0 DUP1 REVERT JUMPDEST POP PUSH2 0xEB4 DUP1 PUSH2 0x1D PUSH0 CODECOPY PUSH0 RETURN INVALID PUSH1 0x80 PUSH1 0x40 MSTORE CALLVALUE DUP1 ISZERO PUSH2 0xF JUMPI PUSH0 DUP1 REVERT JUMPDEST POP PUSH1 0x4 CALLDATASIZE LT PUSH2 0x55 JUMPI PUSH0 CALLDATALOAD PUSH1 0xE0 SHR DUP1 PUSH4 0x32CA2F40 EQ PUSH2 0x59 JUMPI DUP1 PUSH4 0x57E61EA4 EQ PUSH2 0x75 JUMPI DUP1 PUSH4 0x642F9163 EQ PUSH2 0x93 JUMPI DUP1 PUSH4 0x9C380AF7 EQ PUSH2 0xC3 JUMPI DUP1 PUSH4 0xD3AD8DB9 EQ PUSH2 0xDF JUMPI JUMPDEST PUSH0 DUP1 REVERT JUMPDEST PUSH2 0x73 PUSH1 0x4 DUP1 CALLDATASIZE SUB DUP2 ADD SWAP1 PUSH2 0x6E SWAP2 SWAP1 PUSH2 0x6EB JUMP JUMPDEST PUSH2 0x10F JUMP JUMPDEST STOP JUMPDEST PUSH2 0x7D PUSH2 0x19D JUMP JUMPDEST PUSH1 0x40 MLOAD PUSH2 0x8A SWAP2 SWAP1 PUSH2 0x932 JUMP JUMPDEST PUSH1 0x40 MLOAD DUP1 SWAP2 SUB SWAP1 RETURN JUMPDEST PUSH2 0xAD PUSH1 0x4 DUP1 CALLDATASIZE SUB DUP2 ADD SWAP1 PUSH2 0xA8 SWAP2 SWAP1 PUSH2 0x952 JUMP JUMPDEST PUSH2 0x32B JUMP JUMPDEST PUSH1 0x40 MLOAD PUSH2 0xBA SWAP2 SWAP1 PUSH2 0x9E4 JUMP JUMPDEST PUSH1 0x40 MLOAD DUP1 SWAP2 SUB SWAP1 RETURN JUMPDEST PUSH2 0xDD PUSH1 0x4 DUP1 CALLDATASIZE SUB DUP2 ADD SWAP1 PUSH2 0xD8 SWAP2 SWAP1 PUSH2 0xAB9 JUMP JUMPDEST PUSH2 0x4A3 JUMP JUMPDEST STOP JUMPDEST PUSH2 0xF9 PUSH1 0x4 DUP1 CALLDATASIZE SUB DUP2 ADD SWAP1 PUSH2 0xF4 SWAP2 SWAP1 PUSH2 0x952 JUMP JUMPDEST PUSH2 0x50E JUMP JUMPDEST PUSH1 0x40 MLOAD PUSH2 0x106 SWAP2 SWAP1 PUSH2 0xB0F JUMP JUMPDEST PUSH1 0x40 MLOAD DUP1 SWAP2 SUB SWAP1 RETURN JUMPDEST PUSH0 PUSH1 0x40 MLOAD DUP1 PUSH1 0x80 ADD PUSH1 0x40 MSTORE DUP1 DUP7 DUP2 MSTORE PUSH1 0x20 ADD DUP6 DUP2 MSTORE PUSH1 0x20 ADD DUP5 DUP2 MSTORE PUSH1 0x20 ADD DUP4 DUP2 MSTORE POP SWAP1 DUP1 PUSH1 0x1 DUP2 SLOAD ADD DUP1 DUP3 SSTORE DUP1 SWAP2 POP POP PUSH1 0x1 SWAP1 SUB SWAP1 PUSH0 MSTORE PUSH1 0x20 PUSH0 KECCAK256 SWAP1 PUSH1 0x4 MUL ADD PUSH0 SWAP1 SWAP2 SWAP1 SWAP2 SWAP1 SWAP2 POP PUSH0 DUP3 ADD MLOAD DUP2 PUSH0 ADD SWAP1 DUP2 PUSH2 0x16A SWAP2 SWAP1 PUSH2 0xD22 JUMP JUMPDEST POP PUSH1 0x20 DUP3 ADD MLOAD DUP2 PUSH1 0x1 ADD SSTORE PUSH1 0x40 DUP3 ADD MLOAD DUP2 PUSH1 0x2 ADD SSTORE PUSH1 0x60 DUP3 ADD MLOAD DUP2 PUSH1 0x3 ADD SWAP1 DUP2 PUSH2 0x194 SWAP2 SWAP1 PUSH2 0xD22 JUMP JUMPDEST POP POP POP POP POP POP POP JUMP JUMPDEST PUSH1 0x60 PUSH0 DUP1 SLOAD DUP1 PUSH1 0x20 MUL PUSH1 0x20 ADD PUSH1 0x40 MLOAD SWAP1 DUP2 ADD PUSH1 0x40 MSTORE DUP1 SWAP3 SWAP2 SWAP1 DUP2 DUP2 MSTORE PUSH1 0x20 ADD PUSH0 SWAP1 JUMPDEST DUP3 DUP3 LT ISZERO PUSH2 0x322 JUMPI DUP4 DUP3 SWAP1 PUSH0 MSTORE PUSH1 0x20 PUSH0 KECCAK256 SWAP1 PUSH1 0x4 MUL ADD PUSH1 0x40 MLOAD DUP1 PUSH1 0x80 ADD PUSH1 0x40 MSTORE SWAP1 DUP2 PUSH0 DUP3 ADD DUP1 SLOAD PUSH2 0x1EF SWAP1 PUSH2 0xB55 JUMP JUMPDEST DUP1 PUSH1 0x1F ADD PUSH1 0x20 DUP1 SWAP2 DIV MUL PUSH1 0x20 ADD PUSH1 0x40 MLOAD SWAP1 DUP2 ADD PUSH1 0x40 MSTORE DUP1 SWAP3 SWAP2 SWAP1 DUP2 DUP2 MSTORE PUSH1 0x20 ADD DUP3 DUP1 SLOAD PUSH2 0x21B SWAP1 PUSH2 0xB55 JUMP JUMPDEST DUP1 ISZERO PUSH2 0x266 JUMPI DUP1 PUSH1 0x1F LT PUSH2 0x23D JUMPI PUSH2 0x100 DUP1 DUP4 SLOAD DIV MUL DUP4 MSTORE SWAP2 PUSH1 0x20 ADD SWAP2 PUSH2 0x266 JUMP JUMPDEST DUP3 ADD SWAP2 SWAP1 PUSH0 MSTORE PUSH1 0x20 PUSH0 KECCAK256 SWAP1 JUMPDEST DUP2 SLOAD DUP2 MSTORE SWAP1 PUSH1 0x1 ADD SWAP1 PUSH1 0x20 ADD DUP1 DUP4 GT PUSH2 0x249 JUMPI DUP3 SWAP1 SUB PUSH1 0x1F AND DUP3 ADD SWAP2 JUMPDEST POP POP POP POP POP DUP2 MSTORE PUSH1 0x20 ADD PUSH1 0x1 DUP3 ADD SLOAD DUP2 MSTORE PUSH1 0x20 ADD PUSH1 0x2 DUP3 ADD SLOAD DUP2 MSTORE PUSH1 0x20 ADD PUSH1 0x3 DUP3 ADD DUP1 SLOAD PUSH2 0x293 SWAP1 PUSH2 0xB55 JUMP JUMPDEST DUP1 PUSH1 0x1F ADD PUSH1 0x20 DUP1 SWAP2 DIV MUL PUSH1 0x20 ADD PUSH1 0x40 MLOAD SWAP1 DUP2 ADD PUSH1 0x40 MSTORE DUP1 SWAP3 SWAP2 SWAP1 DUP2 DUP2 MSTORE PUSH1 0x20 ADD DUP3 DUP1 SLOAD PUSH2 0x2BF SWAP1 PUSH2 0xB55 JUMP JUMPDEST DUP1 ISZERO PUSH2 0x30A JUMPI DUP1 PUSH1 0x1F LT PUSH2 0x2E1 JUMPI PUSH2 0x100 DUP1 DUP4 SLOAD DIV MUL DUP4 MSTORE SWAP2 PUSH1 0x20 ADD SWAP2 PUSH2 0x30A JUMP JUMPDEST DUP3 ADD SWAP2 SWAP1 PUSH0 MSTORE PUSH1 0x20 PUSH0 KECCAK256 SWAP1 JUMPDEST DUP2 SLOAD DUP2 MSTORE SWAP1 PUSH1 0x1 ADD SWAP1 PUSH1 0x20 ADD DUP1 DUP4 GT PUSH2 0x2ED JUMPI DUP3 SWAP1 SUB PUSH1 0x1F AND DUP3 ADD SWAP2 JUMPDEST POP POP POP POP POP DUP2 MSTORE POP POP DUP2 MSTORE PUSH1 0x20 ADD SWAP1 PUSH1 0x1 ADD SWAP1 PUSH2 0x1BF JUMP JUMPDEST POP POP POP POP SWAP1 POP SWAP1 JUMP JUMPDEST PUSH2 0x333 PUSH2 0x545 JUMP JUMPDEST PUSH0 PUSH1 0x1 DUP4 PUSH2 0x341 SWAP2 SWAP1 PUSH2 0xE1E JUMP JUMPDEST DUP2 SLOAD DUP2 LT PUSH2 0x352 JUMPI PUSH2 0x351 PUSH2 0xE51 JUMP JUMPDEST JUMPDEST SWAP1 PUSH0 MSTORE PUSH1 0x20 PUSH0 KECCAK256 SWAP1 PUSH1 0x4 MUL ADD PUSH1 0x40 MLOAD DUP1 PUSH1 0x80 ADD PUSH1 0x40 MSTORE SWAP1 DUP2 PUSH0 DUP3 ADD DUP1 SLOAD PUSH2 0x378 SWAP1 PUSH2 0xB55 JUMP JUMPDEST DUP1 PUSH1 0x1F ADD PUSH1 0x20 DUP1 SWAP2 DIV MUL PUSH1 0x20 ADD PUSH1 0x40 MLOAD SWAP1 DUP2 ADD PUSH1 0x40 MSTORE DUP1 SWAP3 SWAP2 SWAP1 DUP2 DUP2 MSTORE PUSH1 0x20 ADD DUP3 DUP1 SLOAD PUSH2 0x3A4 SWAP1 PUSH2 0xB55 JUMP JUMPDEST DUP1 ISZERO PUSH2 0x3EF JUMPI DUP1 PUSH1 0x1F LT PUSH2 0x3C6 JUMPI PUSH2 0x100 DUP1 DUP4 SLOAD DIV MUL DUP4 MSTORE SWAP2 PUSH1 0x20 ADD SWAP2 PUSH2 0x3EF JUMP JUMPDEST DUP3 ADD SWAP2 SWAP1 PUSH0 MSTORE PUSH1 0x20 PUSH0 KECCAK256 SWAP1 JUMPDEST DUP2 SLOAD DUP2 MSTORE SWAP1 PUSH1 0x1 ADD SWAP1 PUSH1 0x20 ADD DUP1 DUP4 GT PUSH2 0x3D2 JUMPI DUP3 SWAP1 SUB PUSH1 0x1F AND DUP3 ADD SWAP2 JUMPDEST POP POP POP POP POP DUP2 MSTORE PUSH1 0x20 ADD PUSH1 0x1 DUP3 ADD SLOAD DUP2 MSTORE PUSH1 0x20 ADD PUSH1 0x2 DUP3 ADD SLOAD DUP2 MSTORE PUSH1 0x20 ADD PUSH1 0x3 DUP3 ADD DUP1 SLOAD PUSH2 0x41C SWAP1 PUSH2 0xB55 JUMP JUMPDEST DUP1 PUSH1 0x1F ADD PUSH1 0x20 DUP1 SWAP2 DIV MUL PUSH1 0x20 ADD PUSH1 0x40 MLOAD SWAP1 DUP2 ADD PUSH1 0x40 MSTORE DUP1 SWAP3 SWAP2 SWAP1 DUP2 DUP2 MSTORE PUSH1 0x20 ADD DUP3 DUP1 SLOAD PUSH2 0x448 SWAP1 PUSH2 0xB55 JUMP JUMPDEST DUP1 ISZERO PUSH2 0x493 JUMPI DUP1 PUSH1 0x1F LT PUSH2 0x46A JUMPI PUSH2 0x100 DUP1 DUP4 SLOAD DIV MUL DUP4 MSTORE SWAP2 PUSH1 0x20 ADD SWAP2 PUSH2 0x493 JUMP JUMPDEST DUP3 ADD SWAP2 SWAP1 PUSH0 MSTORE PUSH1 0x20 PUSH0 KECCAK256 SWAP1 JUMPDEST DUP2 SLOAD DUP2 MSTORE SWAP1 PUSH1 0x1 ADD SWAP1 PUSH1 0x20 ADD DUP1 DUP4 GT PUSH2 0x476 JUMPI DUP3 SWAP1 SUB PUSH1 0x1F AND DUP3 ADD SWAP2 JUMPDEST POP POP POP POP POP DUP2 MSTORE POP POP SWAP1 POP SWAP2 SWAP1 POP JUMP JUMPDEST PUSH0 DUP2 SWAP1 DUP1 PUSH1 0x1 DUP2 SLOAD ADD DUP1 DUP3 SSTORE DUP1 SWAP2 POP POP PUSH1 0x1 SWAP1 SUB SWAP1 PUSH0 MSTORE PUSH1 0x20 PUSH0 KECCAK256 SWAP1 PUSH1 0x4 MUL ADD PUSH0 SWAP1 SWAP2 SWAP1 SWAP2 SWAP1 SWAP2 POP PUSH0 DUP3 ADD MLOAD DUP2 PUSH0 ADD SWAP1 DUP2 PUSH2 0x4DE SWAP2 SWAP1 PUSH2 0xD22 JUMP JUMPDEST POP PUSH1 0x20 DUP3 ADD MLOAD DUP2 PUSH1 0x1 ADD SSTORE PUSH1 0x40 DUP3 ADD MLOAD DUP2 PUSH1 0x2 ADD SSTORE PUSH1 0x60 DUP3 ADD MLOAD DUP2 PUSH1 0x3 ADD SWAP1 DUP2 PUSH2 0x508 SWAP2 SWAP1 PUSH2 0xD22 JUMP JUMPDEST POP POP POP POP JUMP JUMPDEST PUSH0 DUP1 PUSH1 0x1 DUP4 PUSH2 0x51D SWAP2 SWAP1 PUSH2 0xE1E JUMP JUMPDEST DUP2 SLOAD DUP2 LT PUSH2 0x52E JUMPI PUSH2 0x52D PUSH2 0xE51 JUMP JUMPDEST JUMPDEST SWAP1 PUSH0 MSTORE PUSH1 0x20 PUSH0 KECCAK256 SWAP1 PUSH1 0x4 MUL ADD PUSH1 0x2 ADD SLOAD SWAP1 POP SWAP2 SWAP1 POP JUMP JUMPDEST PUSH1 0x40 MLOAD DUP1 PUSH1 0x80 ADD PUSH1 0x40 MSTORE DUP1 PUSH1 0x60 DUP2 MSTORE PUSH1 0x20 ADD PUSH0 DUP2 MSTORE PUSH1 0x20 ADD PUSH0 DUP2 MSTORE PUSH1 0x20 ADD PUSH1 0x60 DUP2 MSTORE POP SWAP1 JUMP JUMPDEST PUSH0 PUSH1 0x40 MLOAD SWAP1 POP SWAP1 JUMP JUMPDEST PUSH0 DUP1 REVERT JUMPDEST PUSH0 DUP1 REVERT JUMPDEST PUSH0 DUP1 REVERT JUMPDEST PUSH0 DUP1 REVERT JUMPDEST PUSH0 PUSH1 0x1F NOT PUSH1 0x1F DUP4 ADD AND SWAP1 POP SWAP2 SWAP1 POP JUMP JUMPDEST PUSH32 0x4E487B7100000000000000000000000000000000000000000000000000000000 PUSH0 MSTORE PUSH1 0x41 PUSH1 0x4 MSTORE PUSH1 0x24 PUSH0 REVERT JUMPDEST PUSH2 0x5CA DUP3 PUSH2 0x584 JUMP JUMPDEST DUP2 ADD DUP2 DUP2 LT PUSH8 0xFFFFFFFFFFFFFFFF DUP3 GT OR ISZERO PUSH2 0x5E9 JUMPI PUSH2 0x5E8 PUSH2 0x594 JUMP JUMPDEST JUMPDEST DUP1 PUSH1 0x40 MSTORE POP POP POP JUMP JUMPDEST PUSH0 PUSH2 0x5FB PUSH2 0x56B JUMP JUMPDEST SWAP1 POP PUSH2 0x607 DUP3 DUP3 PUSH2 0x5C1 JUMP JUMPDEST SWAP2 SWAP1 POP JUMP JUMPDEST PUSH0 PUSH8 0xFFFFFFFFFFFFFFFF DUP3 GT ISZERO PUSH2 0x626 JUMPI PUSH2 0x625 PUSH2 0x594 JUMP JUMPDEST JUMPDEST PUSH2 0x62F DUP3 PUSH2 0x584 JUMP JUMPDEST SWAP1 POP PUSH1 0x20 DUP2 ADD SWAP1 POP SWAP2 SWAP1 POP JUMP JUMPDEST DUP3 DUP2 DUP4 CALLDATACOPY PUSH0 DUP4 DUP4 ADD MSTORE POP POP POP JUMP JUMPDEST PUSH0 PUSH2 0x65C PUSH2 0x657 DUP5 PUSH2 0x60C JUMP JUMPDEST PUSH2 0x5F2 JUMP JUMPDEST SWAP1 POP DUP3 DUP2 MSTORE PUSH1 0x20 DUP2 ADD DUP5 DUP5 DUP5 ADD GT ISZERO PUSH2 0x678 JUMPI PUSH2 0x677 PUSH2 0x580 JUMP JUMPDEST JUMPDEST PUSH2 0x683 DUP5 DUP3 DUP6 PUSH2 0x63C JUMP JUMPDEST POP SWAP4 SWAP3 POP POP POP JUMP JUMPDEST PUSH0 DUP3 PUSH1 0x1F DUP4 ADD SLT PUSH2 0x69F JUMPI PUSH2 0x69E PUSH2 0x57C JUMP JUMPDEST JUMPDEST DUP2 CALLDATALOAD PUSH2 0x6AF DUP5 DUP3 PUSH1 0x20 DUP7 ADD PUSH2 0x64A JUMP JUMPDEST SWAP2 POP POP SWAP3 SWAP2 POP POP JUMP JUMPDEST PUSH0 DUP2 SWAP1 POP SWAP2 SWAP1 POP JUMP JUMPDEST PUSH2 0x6CA DUP2 PUSH2 0x6B8 JUMP JUMPDEST DUP2 EQ PUSH2 0x6D4 JUMPI PUSH0 DUP1 REVERT JUMPDEST POP JUMP JUMPDEST PUSH0 DUP2 CALLDATALOAD SWAP1 POP PUSH2 0x6E5 DUP2 PUSH2 0x6C1 JUMP JUMPDEST SWAP3 SWAP2 POP POP JUMP JUMPDEST PUSH0 DUP1 PUSH0 DUP1 PUSH1 0x80 DUP6 DUP8 SUB SLT ISZERO PUSH2 0x703 JUMPI PUSH2 0x702 PUSH2 0x574 JUMP JUMPDEST JUMPDEST PUSH0 DUP6 ADD CALLDATALOAD PUSH8 0xFFFFFFFFFFFFFFFF DUP2 GT ISZERO PUSH2 0x720 JUMPI PUSH2 0x71F PUSH2 0x578 JUMP JUMPDEST JUMPDEST PUSH2 0x72C DUP8 DUP3 DUP9 ADD PUSH2 0x68B JUMP JUMPDEST SWAP5 POP POP PUSH1 0x20 PUSH2 0x73D DUP8 DUP3 DUP9 ADD PUSH2 0x6D7 JUMP JUMPDEST SWAP4 POP POP PUSH1 0x40 PUSH2 0x74E DUP8 DUP3 DUP9 ADD PUSH2 0x6D7 JUMP JUMPDEST SWAP3 POP POP PUSH1 0x60 DUP6 ADD CALLDATALOAD PUSH8 0xFFFFFFFFFFFFFFFF DUP2 GT ISZERO PUSH2 0x76F JUMPI PUSH2 0x76E PUSH2 0x578 JUMP JUMPDEST JUMPDEST PUSH2 0x77B DUP8 DUP3 DUP9 ADD PUSH2 0x68B JUMP JUMPDEST SWAP2 POP POP SWAP3 SWAP6 SWAP2 SWAP5 POP SWAP3 POP JUMP JUMPDEST PUSH0 DUP2 MLOAD SWAP1 POP SWAP2 SWAP1 POP JUMP JUMPDEST PUSH0 DUP3 DUP3 MSTORE PUSH1 0x20 DUP3 ADD SWAP1 POP SWAP3 SWAP2 POP POP JUMP JUMPDEST PUSH0 DUP2 SWAP1 POP PUSH1 0x20 DUP3 ADD SWAP1 POP SWAP2 SWAP1 POP JUMP JUMPDEST PUSH0 DUP2 MLOAD SWAP1 POP SWAP2 SWAP1 POP JUMP JUMPDEST PUSH0 DUP3 DUP3 MSTORE PUSH1 0x20 DUP3 ADD SWAP1 POP SWAP3 SWAP2 POP POP JUMP JUMPDEST PUSH0 JUMPDEST DUP4 DUP2 LT ISZERO PUSH2 0x7E7 JUMPI DUP1 DUP3 ADD MLOAD DUP2 DUP5 ADD MSTORE PUSH1 0x20 DUP2 ADD SWAP1 POP PUSH2 0x7CC JUMP JUMPDEST PUSH0 DUP5 DUP5 ADD MSTORE POP POP POP POP JUMP JUMPDEST PUSH0 PUSH2 0x7FC DUP3 PUSH2 0x7B0 JUMP JUMPDEST PUSH2 0x806 DUP2 DUP6 PUSH2 0x7BA JUMP JUMPDEST SWAP4 POP PUSH2 0x816 DUP2 DUP6 PUSH1 0x20 DUP7 ADD PUSH2 0x7CA JUMP JUMPDEST PUSH2 0x81F DUP2 PUSH2 0x584 JUMP JUMPDEST DUP5 ADD SWAP2 POP POP SWAP3 SWAP2 POP POP JUMP JUMPDEST PUSH2 0x833 DUP2 PUSH2 0x6B8 JUMP JUMPDEST DUP3 MSTORE POP POP JUMP JUMPDEST PUSH0 PUSH1 0x80 DUP4 ADD PUSH0 DUP4 ADD MLOAD DUP5 DUP3 SUB PUSH0 DUP7 ADD MSTORE PUSH2 0x853 DUP3 DUP3 PUSH2 0x7F2 JUMP JUMPDEST SWAP2 POP POP PUSH1 0x20 DUP4 ADD MLOAD PUSH2 0x868 PUSH1 0x20 DUP7 ADD DUP3 PUSH2 0x82A JUMP JUMPDEST POP PUSH1 0x40 DUP4 ADD MLOAD PUSH2 0x87B PUSH1 0x40 DUP7 ADD DUP3 PUSH2 0x82A JUMP JUMPDEST POP PUSH1 0x60 DUP4 ADD MLOAD DUP5 DUP3 SUB PUSH1 0x60 DUP7 ADD MSTORE PUSH2 0x893 DUP3 DUP3 PUSH2 0x7F2 JUMP JUMPDEST SWAP2 POP POP DUP1 SWAP2 POP POP SWAP3 SWAP2 POP POP JUMP JUMPDEST PUSH0 PUSH2 0x8AB DUP4 DUP4 PUSH2 0x839 JUMP JUMPDEST SWAP1 POP SWAP3 SWAP2 POP POP JUMP JUMPDEST PUSH0 PUSH1 0x20 DUP3 ADD SWAP1 POP SWAP2 SWAP1 POP JUMP JUMPDEST PUSH0 PUSH2 0x8C9 DUP3 PUSH2 0x787 JUMP JUMPDEST PUSH2 0x8D3 DUP2 DUP6 PUSH2 0x791 JUMP JUMPDEST SWAP4 POP DUP4 PUSH1 0x20 DUP3 MUL DUP6 ADD PUSH2 0x8E5 DUP6 PUSH2 0x7A1 JUMP JUMPDEST DUP1 PUSH0 JUMPDEST DUP6 DUP2 LT ISZERO PUSH2 0x920 JUMPI DUP5 DUP5 SUB DUP10 MSTORE DUP2 MLOAD PUSH2 0x901 DUP6 DUP3 PUSH2 0x8A0 JUMP JUMPDEST SWAP5 POP PUSH2 0x90C DUP4 PUSH2 0x8B3 JUMP JUMPDEST SWAP3 POP PUSH1 0x20 DUP11 ADD SWAP10 POP POP PUSH1 0x1 DUP2 ADD SWAP1 POP PUSH2 0x8E8 JUMP JUMPDEST POP DUP3 SWAP8 POP DUP8 SWAP6 POP POP POP POP POP POP SWAP3 SWAP2 POP POP JUMP JUMPDEST PUSH0 PUSH1 0x20 DUP3 ADD SWAP1 POP DUP2 DUP2 SUB PUSH0 DUP4 ADD MSTORE PUSH2 0x94A DUP2 DUP5 PUSH2 0x8BF JUMP JUMPDEST SWAP1 POP SWAP3 SWAP2 POP POP JUMP JUMPDEST PUSH0 PUSH1 0x20 DUP3 DUP5 SUB SLT ISZERO PUSH2 0x967 JUMPI PUSH2 0x966 PUSH2 0x574 JUMP JUMPDEST JUMPDEST PUSH0 PUSH2 0x974 DUP5 DUP3 DUP6 ADD PUSH2 0x6D7 JUMP JUMPDEST SWAP2 POP POP SWAP3 SWAP2 POP POP JUMP JUMPDEST PUSH0 PUSH1 0x80 DUP4 ADD PUSH0 DUP4 ADD MLOAD DUP5 DUP3 SUB PUSH0 DUP7 ADD MSTORE PUSH2 0x997 DUP3 DUP3 PUSH2 0x7F2 JUMP JUMPDEST SWAP2 POP POP PUSH1 0x20 DUP4 ADD MLOAD PUSH2 0x9AC PUSH1 0x20 DUP7 ADD DUP3 PUSH2 0x82A JUMP JUMPDEST POP PUSH1 0x40 DUP4 ADD MLOAD PUSH2 0x9BF PUSH1 0x40 DUP7 ADD DUP3 PUSH2 0x82A JUMP JUMPDEST POP PUSH1 0x60 DUP4 ADD MLOAD DUP5 DUP3 SUB PUSH1 0x60 DUP7 ADD MSTORE PUSH2 0x9D7 DUP3 DUP3 PUSH2 0x7F2 JUMP JUMPDEST SWAP2 POP POP DUP1 SWAP2 POP POP SWAP3 SWAP2 POP POP JUMP JUMPDEST PUSH0 PUSH1 0x20 DUP3 ADD SWAP1 POP DUP2 DUP2 SUB PUSH0 DUP4 ADD MSTORE PUSH2 0x9FC DUP2 DUP5 PUSH2 0x97D JUMP JUMPDEST SWAP1 POP SWAP3 SWAP2 POP POP JUMP JUMPDEST PUSH0 DUP1 REVERT JUMPDEST PUSH0 DUP1 REVERT JUMPDEST PUSH0 PUSH1 0x80 DUP3 DUP5 SUB SLT ISZERO PUSH2 0xA21 JUMPI PUSH2 0xA20 PUSH2 0xA04 JUMP JUMPDEST JUMPDEST PUSH2 0xA2B PUSH1 0x80 PUSH2 0x5F2 JUMP JUMPDEST SWAP1 POP PUSH0 DUP3 ADD CALLDATALOAD PUSH8 0xFFFFFFFFFFFFFFFF DUP2 GT ISZERO PUSH2 0xA4A JUMPI PUSH2 0xA49 PUSH2 0xA08 JUMP JUMPDEST JUMPDEST PUSH2 0xA56 DUP5 DUP3 DUP6 ADD PUSH2 0x68B JUMP JUMPDEST PUSH0 DUP4 ADD MSTORE POP PUSH1 0x20 PUSH2 0xA69 DUP5 DUP3 DUP6 ADD PUSH2 0x6D7 JUMP JUMPDEST PUSH1 0x20 DUP4 ADD MSTORE POP PUSH1 0x40 PUSH2 0xA7D DUP5 DUP3 DUP6 ADD PUSH2 0x6D7 JUMP JUMPDEST PUSH1 0x40 DUP4 ADD MSTORE POP PUSH1 0x60 DUP3 ADD CALLDATALOAD PUSH8 0xFFFFFFFFFFFFFFFF DUP2 GT ISZERO PUSH2 0xAA1 JUMPI PUSH2 0xAA0 PUSH2 0xA08 JUMP JUMPDEST JUMPDEST PUSH2 0xAAD DUP5 DUP3 DUP6 ADD PUSH2 0x68B JUMP JUMPDEST PUSH1 0x60 DUP4 ADD MSTORE POP SWAP3 SWAP2 POP POP JUMP JUMPDEST PUSH0 PUSH1 0x20 DUP3 DUP5 SUB SLT ISZERO PUSH2 0xACE JUMPI PUSH2 0xACD PUSH2 0x574 JUMP JUMPDEST JUMPDEST PUSH0 DUP3 ADD CALLDATALOAD PUSH8 0xFFFFFFFFFFFFFFFF DUP2 GT ISZERO PUSH2 0xAEB JUMPI PUSH2 0xAEA PUSH2 0x578 JUMP JUMPDEST JUMPDEST PUSH2 0xAF7 DUP5 DUP3 DUP6 ADD PUSH2 0xA0C JUMP JUMPDEST SWAP2 POP POP SWAP3 SWAP2 POP POP JUMP JUMPDEST PUSH2 0xB09 DUP2 PUSH2 0x6B8 JUMP JUMPDEST DUP3 MSTORE POP POP JUMP JUMPDEST PUSH0 PUSH1 0x20 DUP3 ADD SWAP1 POP PUSH2 0xB22 PUSH0 DUP4 ADD DUP5 PUSH2 0xB00 JUMP JUMPDEST SWAP3 SWAP2 POP POP JUMP JUMPDEST PUSH32 0x4E487B7100000000000000000000000000000000000000000000000000000000 PUSH0 MSTORE PUSH1 0x22 PUSH1 0x4 MSTORE PUSH1 0x24 PUSH0 REVERT JUMPDEST PUSH0 PUSH1 0x2 DUP3 DIV SWAP1 POP PUSH1 0x1 DUP3 AND DUP1 PUSH2 0xB6C JUMPI PUSH1 0x7F DUP3 AND SWAP2 POP JUMPDEST PUSH1 0x20 DUP3 LT DUP2 SUB PUSH2 0xB7F JUMPI PUSH2 0xB7E PUSH2 0xB28 JUMP JUMPDEST JUMPDEST POP SWAP2 SWAP1 POP JUMP JUMPDEST PUSH0 DUP2 SWAP1 POP DUP2 PUSH0 MSTORE PUSH1 0x20 PUSH0 KECCAK256 SWAP1 POP SWAP2 SWAP1 POP JUMP JUMPDEST PUSH0 PUSH1 0x20 PUSH1 0x1F DUP4 ADD DIV SWAP1 POP SWAP2 SWAP1 POP JUMP JUMPDEST PUSH0 DUP3 DUP3 SHL SWAP1 POP SWAP3 SWAP2 POP POP JUMP JUMPDEST PUSH0 PUSH1 0x8 DUP4 MUL PUSH2 0xBE1 PUSH32 0xFFFFFFFFFFFFFFFFFFFFFFFFFFFFFFFFFFFFFFFFFFFFFFFFFFFFFFFFFFFFFFFF DUP3 PUSH2 0xBA6 JUMP JUMPDEST PUSH2 0xBEB DUP7 DUP4 PUSH2 0xBA6 JUMP JUMPDEST SWAP6 POP DUP1 NOT DUP5 AND SWAP4 POP DUP1 DUP7 AND DUP5 OR SWAP3 POP POP POP SWAP4 SWAP3 POP POP POP JUMP JUMPDEST PUSH0 DUP2 SWAP1 POP SWAP2 SWAP1 POP JUMP JUMPDEST PUSH0 PUSH2 0xC26 PUSH2 0xC21 PUSH2 0xC1C DUP5 PUSH2 0x6B8 JUMP JUMPDEST PUSH2 0xC03 JUMP JUMPDEST PUSH2 0x6B8 JUMP JUMPDEST SWAP1 POP SWAP2 SWAP1 POP JUMP JUMPDEST PUSH0 DUP2 SWAP1 POP SWAP2 SWAP1 POP JUMP JUMPDEST PUSH2 0xC3F DUP4 PUSH2 0xC0C JUMP JUMPDEST PUSH2 0xC53 PUSH2 0xC4B DUP3 PUSH2 0xC2D JUMP JUMPDEST DUP5 DUP5 SLOAD PUSH2 0xBB2 JUMP JUMPDEST DUP3 SSTORE POP POP POP POP JUMP JUMPDEST PUSH0 SWAP1 JUMP JUMPDEST PUSH2 0xC67 PUSH2 0xC5B JUMP JUMPDEST PUSH2 0xC72 DUP2 DUP5 DUP5 PUSH2 0xC36 JUMP JUMPDEST POP POP POP JUMP JUMPDEST JUMPDEST DUP2 DUP2 LT ISZERO PUSH2 0xC95 JUMPI PUSH2 0xC8A PUSH0 DUP3 PUSH2 0xC5F JUMP JUMPDEST PUSH1 0x1 DUP2 ADD SWAP1 POP PUSH2 0xC78 JUMP JUMPDEST POP POP JUMP JUMPDEST PUSH1 0x1F DUP3 GT ISZERO PUSH2 0xCDA JUMPI PUSH2 0xCAB DUP2 PUSH2 0xB85 JUMP JUMPDEST PUSH2 0xCB4 DUP5 PUSH2 0xB97 JUMP JUMPDEST DUP2 ADD PUSH1 0x20 DUP6 LT ISZERO PUSH2 0xCC3 JUMPI DUP2 SWAP1 POP JUMPDEST PUSH2 0xCD7 PUSH2 0xCCF DUP6 PUSH2 0xB97 JUMP JUMPDEST DUP4 ADD DUP3 PUSH2 0xC77 JUMP JUMPDEST POP POP JUMPDEST POP POP POP JUMP JUMPDEST PUSH0 DUP3 DUP3 SHR SWAP1 POP SWAP3 SWAP2 POP POP JUMP JUMPDEST PUSH0 PUSH2 0xCFA PUSH0 NOT DUP5 PUSH1 0x8 MUL PUSH2 0xCDF JUMP JUMPDEST NOT DUP1 DUP4 AND SWAP2 POP POP SWAP3 SWAP2 POP POP JUMP JUMPDEST PUSH0 PUSH2 0xD12 DUP4 DUP4 PUSH2 0xCEB JUMP JUMPDEST SWAP2 POP DUP3 PUSH1 0x2 MUL DUP3 OR SWAP1 POP SWAP3 SWAP2 POP POP JUMP JUMPDEST PUSH2 0xD2B DUP3 PUSH2 0x7B0 JUMP JUMPDEST PUSH8 0xFFFFFFFFFFFFFFFF DUP2 GT ISZERO PUSH2 0xD44 JUMPI PUSH2 0xD43 PUSH2 0x594 JUMP JUMPDEST JUMPDEST PUSH2 0xD4E DUP3 SLOAD PUSH2 0xB55 JUMP JUMPDEST PUSH2 0xD59 DUP3 DUP3 DUP6 PUSH2 0xC99 JUMP JUMPDEST PUSH0 PUSH1 0x20 SWAP1 POP PUSH1 0x1F DUP4 GT PUSH1 0x1 DUP2 EQ PUSH2 0xD8A JUMPI PUSH0 DUP5 ISZERO PUSH2 0xD78 JUMPI DUP3 DUP8 ADD MLOAD SWAP1 POP JUMPDEST PUSH2 0xD82 DUP6 DUP3 PUSH2 0xD07 JUMP JUMPDEST DUP7 SSTORE POP PUSH2 0xDE9 JUMP JUMPDEST PUSH1 0x1F NOT DUP5 AND PUSH2 0xD98 DUP7 PUSH2 0xB85 JUMP JUMPDEST PUSH0 JUMPDEST DUP3 DUP2 LT ISZERO PUSH2 0xDBF JUMPI DUP5 DUP10 ADD MLOAD DUP3 SSTORE PUSH1 0x1 DUP3 ADD SWAP2 POP PUSH1 0x20 DUP6 ADD SWAP5 POP PUSH1 0x20 DUP2 ADD SWAP1 POP PUSH2 0xD9A JUMP JUMPDEST DUP7 DUP4 LT ISZERO PUSH2 0xDDC JUMPI DUP5 DUP10 ADD MLOAD PUSH2 0xDD8 PUSH1 0x1F DUP10 AND DUP3 PUSH2 0xCEB JUMP JUMPDEST DUP4 SSTORE POP JUMPDEST PUSH1 0x1 PUSH1 0x2 DUP9 MUL ADD DUP9 SSTORE POP POP POP JUMPDEST POP POP POP POP POP POP JUMP JUMPDEST PUSH32 0x4E487B7100000000000000000000000000000000000000000000000000000000 PUSH0 MSTORE PUSH1 0x11 PUSH1 0x4 MSTORE PUSH1 0x24 PUSH0 REVERT JUMPDEST PUSH0 PUSH2 0xE28 DUP3 PUSH2 0x6B8 JUMP JUMPDEST SWAP2 POP PUSH2 0xE33 DUP4 PUSH2 0x6B8 JUMP JUMPDEST SWAP3 POP DUP3 DUP3 SUB SWAP1 POP DUP2 DUP2 GT ISZERO PUSH2 0xE4B JUMPI PUSH2 0xE4A PUSH2 0xDF1 JUMP JUMPDEST JUMPDEST SWAP3 SWAP2 POP POP JUMP JUMPDEST PUSH32 0x4E487B7100000000000000000000000000000000000000000000000000000000 PUSH0 MSTORE PUSH1 0x32 PUSH1 0x4 MSTORE PUSH1 0x24 PUSH0 REVERT INVALID LOG2 PUSH5 0x6970667358 0x22 SLT KECCAK256 0xA8 PUSH28 0x7E0FA40E47D8FFC7E43D39EA6E7EAA64B157C14E49E632121AC5B168 EXTCODESIZE 0x22 PUSH5 0x736F6C6343 STOP ADDMOD AND STOP CALLER "
				},
				"gasEstimates": {
					"creation": {
						"codeDepositCost": "752800",
						"executionCost": "784",
						"totalCost": "753584"
					},
					"external": {
						"getClass()": "infinite",
						"getStudent(uint256)": "infinite",
						"getStudentScore(uint256)": "infinite",
						"pushStudent(string,uint256,uint256,string)": "infinite",
						"pushStudent2((string,uint256,uint256,string))": "infinite"
					}
				},
				"methodIdentifiers": {
					"getClass()": "57e61ea4",
					"getStudent(uint256)": "642f9163",
					"getStudentScore(uint256)": "d3ad8db9",
					"pushStudent(string,uint256,uint256,string)": "32ca2f40",
					"pushStudent2((string,uint256,uint256,string))": "9c380af7"
				}
			},
			"storageLayout": {
				"storage": [
					{
						"astId": 14,
						"contract": "contracts/student2.sol:STRUCT",
						"label": "class",
						"offset": 0,
						"slot": "0",
						"type": "t_array(t_struct(Student)10_storage)dyn_storage"
					}
				],
				"types": {
					"t_array(t_struct(Student)10_storage)dyn_storage": {
						"base": "t_struct(Student)10_storage",
						"encoding": "dynamic_array",
						"label": "struct STRUCT.Student[]",
						"numberOfBytes": "32"
					},
					"t_string_storage": {
						"encoding": "bytes",
						"label": "string",
						"numberOfBytes": "32"
					},
					"t_struct(Student)10_storage": {
						"encoding": "inplace",
						"label": "struct STRUCT.Student",
						"members": [
							{
								"astId": 3,
								"contract": "contracts/student2.sol:STRUCT",
								"label": "name",
								"offset": 0,
								"slot": "0",
								"type": "t_string_storage"
							},
							{
								"astId": 5,
								"contract": "contracts/student2.sol:STRUCT",
								"label": "number",
								"offset": 0,
								"slot": "1",
								"type": "t_uint256"
							},
							{
								"astId": 7,
								"contract": "contracts/student2.sol:STRUCT",
								"label": "score",
								"offset": 0,
								"slot": "2",
								"type": "t_uint256"
							},
							{
								"astId": 9,
								"contract": "contracts/student2.sol:STRUCT",
								"label": "grade",
								"offset": 0,
								"slot": "3",
								"type": "t_string_storage"
							}
						],
						"numberOfBytes": "128"
					},
					"t_uint256": {
						"encoding": "inplace",
						"label": "uint256",
						"numberOfBytes": "32"
					}
				}
			},
			"userdoc": {
				"kind": "user",
				"methods": {},
				"version": 1
			}
		}
	}
}