{
	"contracts/student.sol": {
		"STRUCT": {
			"abi": [
				{
					"inputs": [],
					"name": "getClass",
					"outputs": [
						{
							"components": [
								{
									"internalType": "string",
									"name": "name",
									"type": "string"
								},
								{
									"internalType": "bool",
									"name": "isMale",
									"type": "bool"
								},
								{
									"internalType": "uint256",
									"name": "number",
									"type": "uint256"
								}
							],
							"internalType": "struct STRUCT.Student[]",
							"name": "",
							"type": "tuple[]"
						}
					],
					"stateMutability": "view",
					"type": "function"
				},
				{
					"inputs": [
						{
							"internalType": "uint256",
							"name": "_n",
							"type": "uint256"
						}
					],
					"name": "getStudent",
					"outputs": [
						{
							"components": [
								{
									"internalType": "string",
									"name": "name",
									"type": "string"
								},
								{
									"internalType": "bool",
									"name": "isMale",
									"type": "bool"
								},
								{
									"internalType": "uint256",
									"name": "number",
									"type": "uint256"
								}
							],
							"internalType": "struct STRUCT.Student",
							"name": "",
							"type": "tuple"
						}
					],
					"stateMutability": "view",
					"type": "function"
				},
				{
					"inputs": [
						{
							"internalType": "string",
							"name": "_name",
							"type": "string"
						},
						{
							"internalType": "bool",
							"name": "_isMale",
							"type": "bool"
						},
						{
							"internalType": "uint256",
							"name": "_number",
							"type": "uint256"
						}
					],
					"name": "pushStudent",
					"outputs": [],
					"stateMutability": "nonpayable",
					"type": "function"
				}
			],
			"devdoc": {
				"kind": "dev",
				"methods": {},
				"version": 1
			},
			"evm": {
				"assembly": "    /* \"contracts/student.sol\":70:544  contract STRUCT {... */\n  mstore(0x40, 0x80)\n  callvalue\n  dup1\n  iszero\n  tag_1\n  jumpi\n  0x00\n  dup1\n  revert\ntag_1:\n  pop\n  dataSize(sub_0)\n  dup1\n  dataOffset(sub_0)\n  0x00\n  codecopy\n  0x00\n  return\nstop\n\nsub_0: assembly {\n        /* \"contracts/student.sol\":70:544  contract STRUCT {... */\n      mstore(0x40, 0x80)\n      callvalue\n      dup1\n      iszero\n      tag_1\n      jumpi\n      0x00\n      dup1\n      revert\n    tag_1:\n      pop\n      jumpi(tag_2, lt(calldatasize, 0x04))\n      shr(0xe0, calldataload(0x00))\n      dup1\n      0x57e61ea4\n      eq\n      tag_3\n      jumpi\n      dup1\n      0x642f9163\n      eq\n      tag_4\n      jumpi\n      dup1\n      0xbc84f213\n      eq\n      tag_5\n      jumpi\n    tag_2:\n      0x00\n      dup1\n      revert\n        /* \"contracts/student.sol\":455:542  function getClass() public view returns(Student[] memory) {... */\n    tag_3:\n      tag_6\n      tag_7\n      jump\t// in\n    tag_6:\n      mload(0x40)\n      tag_8\n      swap2\n      swap1\n      tag_9\n      jump\t// in\n    tag_8:\n      mload(0x40)\n      dup1\n      swap2\n      sub\n      swap1\n      return\n        /* \"contracts/student.sol\":349:449  function getStudent(uint _n) public view returns(Student memory) {... */\n    tag_4:\n      tag_10\n      0x04\n      dup1\n      calldatasize\n      sub\n      dup2\n      add\n      swap1\n      tag_11\n      swap2\n      swap1\n      tag_12\n      jump\t// in\n    tag_11:\n      tag_13\n      jump\t// in\n    tag_10:\n      mload(0x40)\n      tag_14\n      swap2\n      swap1\n      tag_15\n      jump\t// in\n    tag_14:\n      mload(0x40)\n      dup1\n      swap2\n      sub\n      swap1\n      return\n        /* \"contracts/student.sol\":205:343  function pushStudent(string memory _name, bool _isMale, uint _number) public {... */\n    tag_5:\n      tag_16\n      0x04\n      dup1\n      calldatasize\n      sub\n      dup2\n      add\n      swap1\n      tag_17\n      swap2\n      swap1\n      tag_18\n      jump\t// in\n    tag_17:\n      tag_19\n      jump\t// in\n    tag_16:\n      stop\n        /* \"contracts/student.sol\":455:542  function getClass() public view returns(Student[] memory) {... */\n    tag_7:\n        /* \"contracts/student.sol\":495:511  Student[] memory */\n      0x60\n        /* \"contracts/student.sol\":530:535  class */\n      0x00\n        /* \"contracts/student.sol\":523:535  return class */\n      dup1\n      sload\n      dup1\n      0x20\n      mul\n      0x20\n      add\n      mload(0x40)\n      swap1\n      dup2\n      add\n      0x40\n      mstore\n      dup1\n      swap3\n      swap2\n      swap1\n      dup2\n      dup2\n      mstore\n      0x20\n      add\n      0x00\n      swap1\n    tag_21:\n      dup3\n      dup3\n      lt\n      iszero\n      tag_22\n      jumpi\n      dup4\n      dup3\n      swap1\n      0x00\n      mstore\n      keccak256(0x00, 0x20)\n      swap1\n      0x03\n      mul\n      add\n      mload(0x40)\n      dup1\n      0x60\n      add\n      0x40\n      mstore\n      swap1\n      dup2\n      0x00\n      dup3\n      add\n      dup1\n      sload\n      tag_24\n      swap1\n      tag_25\n      jump\t// in\n    tag_24:\n      dup1\n      0x1f\n      add\n      0x20\n      dup1\n      swap2\n      div\n      mul\n      0x20\n      add\n      mload(0x40)\n      swap1\n      dup2\n      add\n      0x40\n      mstore\n      dup1\n      swap3\n      swap2\n      swap1\n      dup2\n      dup2\n      mstore\n      0x20\n      add\n      dup3\n      dup1\n      sload\n      tag_26\n      swap1\n      tag_25\n      jump\t// in\n    tag_26:\n      dup1\n      iszero\n      tag_27\n      jumpi\n      dup1\n      0x1f\n      lt\n      tag_28\n      jumpi\n      0x0100\n      dup1\n      dup4\n      sload\n      div\n      mul\n      dup4\n      mstore\n      swap2\n      0x20\n      add\n      swap2\n      jump(tag_27)\n    tag_28:\n      dup3\n      add\n      swap2\n      swap1\n      0x00\n      mstore\n      keccak256(0x00, 0x20)\n      swap1\n    tag_29:\n      dup2\n      sload\n      dup2\n      mstore\n      swap1\n      0x01\n      add\n      swap1\n      0x20\n      add\n      dup1\n      dup4\n      gt\n      tag_29\n      jumpi\n      dup3\n      swap1\n      sub\n      0x1f\n      and\n      dup3\n      add\n      swap2\n    tag_27:\n      pop\n      pop\n      pop\n      pop\n      pop\n      dup2\n      mstore\n      0x20\n      add\n      0x01\n      dup3\n      add\n      0x00\n      swap1\n      sload\n      swap1\n      0x0100\n      exp\n      swap1\n      div\n      0xff\n      and\n      iszero\n      iszero\n      iszero\n      iszero\n      dup2\n      mstore\n      0x20\n      add\n      0x02\n      dup3\n      add\n      sload\n      dup2\n      mstore\n      pop\n      pop\n      dup2\n      mstore\n      0x20\n      add\n      swap1\n      0x01\n      add\n      swap1\n      jump(tag_21)\n    tag_22:\n      pop\n      pop\n      pop\n      pop\n      swap1\n      pop\n        /* \"contracts/student.sol\":455:542  function getClass() public view returns(Student[] memory) {... */\n      swap1\n      jump\t// out\n        /* \"contracts/student.sol\":349:449  function getStudent(uint _n) public view returns(Student memory) {... */\n    tag_13:\n        /* \"contracts/student.sol\":398:412  Student memory */\n      tag_30\n      tag_31\n      jump\t// in\n    tag_30:\n        /* \"contracts/student.sol\":431:436  class */\n      0x00\n        /* \"contracts/student.sol\":440:441  1 */\n      0x01\n        /* \"contracts/student.sol\":437:439  _n */\n      dup4\n        /* \"contracts/student.sol\":437:441  _n-1 */\n      tag_33\n      swap2\n      swap1\n      tag_34\n      jump\t// in\n    tag_33:\n        /* \"contracts/student.sol\":431:442  class[_n-1] */\n      dup2\n      sload\n      dup2\n      lt\n      tag_35\n      jumpi\n      tag_36\n      tag_37\n      jump\t// in\n    tag_36:\n    tag_35:\n      swap1\n      0x00\n      mstore\n      keccak256(0x00, 0x20)\n      swap1\n      0x03\n      mul\n      add\n        /* \"contracts/student.sol\":424:442  return class[_n-1] */\n      mload(0x40)\n      dup1\n      0x60\n      add\n      0x40\n      mstore\n      swap1\n      dup2\n      0x00\n      dup3\n      add\n      dup1\n      sload\n      tag_39\n      swap1\n      tag_25\n      jump\t// in\n    tag_39:\n      dup1\n      0x1f\n      add\n      0x20\n      dup1\n      swap2\n      div\n      mul\n      0x20\n      add\n      mload(0x40)\n      swap1\n      dup2\n      add\n      0x40\n      mstore\n      dup1\n      swap3\n      swap2\n      swap1\n      dup2\n      dup2\n      mstore\n      0x20\n      add\n      dup3\n      dup1\n      sload\n      tag_40\n      swap1\n      tag_25\n      jump\t// in\n    tag_40:\n      dup1\n      iszero\n      tag_41\n      jumpi\n      dup1\n      0x1f\n      lt\n      tag_42\n      jumpi\n      0x0100\n      dup1\n      dup4\n      sload\n      div\n      mul\n      dup4\n      mstore\n      swap2\n      0x20\n      add\n      swap2\n      jump(tag_41)\n    tag_42:\n      dup3\n      add\n      swap2\n      swap1\n      0x00\n      mstore\n      keccak256(0x00, 0x20)\n      swap1\n    tag_43:\n      dup2\n      sload\n      dup2\n      mstore\n      swap1\n      0x01\n      add\n      swap1\n      0x20\n      add\n      dup1\n      dup4\n      gt\n      tag_43\n      jumpi\n      dup3\n      swap1\n      sub\n      0x1f\n      and\n      dup3\n      add\n      swap2\n    tag_41:\n      pop\n      pop\n      pop\n      pop\n      pop\n      dup2\n      mstore\n      0x20\n      add\n      0x01\n      dup3\n      add\n      0x00\n      swap1\n      sload\n      swap1\n      0x0100\n      exp\n      swap1\n      div\n      0xff\n      and\n      iszero\n      iszero\n      iszero\n      iszero\n      dup2\n      mstore\n      0x20\n      add\n      0x02\n      dup3\n      add\n      sload\n      dup2\n      mstore\n      pop\n      pop\n      swap1\n      pop\n        /* \"contracts/student.sol\":349:449  function getStudent(uint _n) public view returns(Student memory) {... */\n      swap2\n      swap1\n      pop\n      jump\t// out\n        /* \"contracts/student.sol\":205:343  function pushStudent(string memory _name, bool _isMale, uint _number) public {... */\n    tag_19:\n        /* \"contracts/student.sol\":292:297  class */\n      0x00\n        /* \"contracts/student.sol\":303:335  Student(_name, _isMale, _number) */\n      mload(0x40)\n      dup1\n      0x60\n      add\n      0x40\n      mstore\n      dup1\n        /* \"contracts/student.sol\":311:316  _name */\n      dup6\n        /* \"contracts/student.sol\":303:335  Student(_name, _isMale, _number) */\n      dup2\n      mstore\n      0x20\n      add\n        /* \"contracts/student.sol\":318:325  _isMale */\n      dup5\n        /* \"contracts/student.sol\":303:335  Student(_name, _isMale, _number) */\n      iszero\n      iszero\n      dup2\n      mstore\n      0x20\n      add\n        /* \"contracts/student.sol\":327:334  _number */\n      dup4\n        /* \"contracts/student.sol\":303:335  Student(_name, _isMale, _number) */\n      dup2\n      mstore\n      pop\n        /* \"contracts/student.sol\":292:336  class.push(Student(_name, _isMale, _number)) */\n      swap1\n      dup1\n      0x01\n      dup2\n      sload\n      add\n      dup1\n      dup3\n      sstore\n      dup1\n      swap2\n      pop\n      pop\n      0x01\n      swap1\n      sub\n      swap1\n      0x00\n      mstore\n      keccak256(0x00, 0x20)\n      swap1\n      0x03\n      mul\n      add\n      0x00\n      swap1\n      swap2\n      swap1\n      swap2\n      swap1\n      swap2\n      pop\n      0x00\n      dup3\n      add\n      mload\n      dup2\n      0x00\n      add\n      swap1\n      dup2\n      tag_46\n      swap2\n      swap1\n      tag_47\n      jump\t// in\n    tag_46:\n      pop\n      0x20\n      dup3\n      add\n      mload\n      dup2\n      0x01\n      add\n      exp(0x0100, 0x00)\n      dup2\n      sload\n      dup2\n      0xff\n      mul\n      not\n      and\n      swap1\n      dup4\n      iszero\n      iszero\n      mul\n      or\n      swap1\n      sstore\n      pop\n      0x40\n      dup3\n      add\n      mload\n      dup2\n      0x02\n      add\n      sstore\n      pop\n      pop\n        /* \"contracts/student.sol\":205:343  function pushStudent(string memory _name, bool _isMale, uint _number) public {... */\n      pop\n      pop\n      pop\n      jump\t// out\n    tag_31:\n      mload(0x40)\n      dup1\n      0x60\n      add\n      0x40\n      mstore\n      dup1\n      0x60\n      dup2\n      mstore\n      0x20\n      add\n      iszero(iszero(0x00))\n      dup2\n      mstore\n      0x20\n      add\n      0x00\n      dup2\n      mstore\n      pop\n      swap1\n      jump\t// out\n        /* \"#utility.yul\":7:143   */\n    tag_48:\n        /* \"#utility.yul\":96:102   */\n      0x00\n        /* \"#utility.yul\":130:135   */\n      dup2\n        /* \"#utility.yul\":124:136   */\n      mload\n        /* \"#utility.yul\":114:136   */\n      swap1\n      pop\n        /* \"#utility.yul\":7:143   */\n      swap2\n      swap1\n      pop\n      jump\t// out\n        /* \"#utility.yul\":149:355   */\n    tag_49:\n        /* \"#utility.yul\":270:281   */\n      0x00\n        /* \"#utility.yul\":304:310   */\n      dup3\n        /* \"#utility.yul\":299:302   */\n      dup3\n        /* \"#utility.yul\":292:311   */\n      mstore\n        /* \"#utility.yul\":344:348   */\n      0x20\n        /* \"#utility.yul\":339:342   */\n      dup3\n        /* \"#utility.yul\":335:349   */\n      add\n        /* \"#utility.yul\":320:349   */\n      swap1\n      pop\n        /* \"#utility.yul\":149:355   */\n      swap3\n      swap2\n      pop\n      pop\n      jump\t// out\n        /* \"#utility.yul\":361:515   */\n    tag_50:\n        /* \"#utility.yul\":450:454   */\n      0x00\n        /* \"#utility.yul\":473:476   */\n      dup2\n        /* \"#utility.yul\":465:476   */\n      swap1\n      pop\n        /* \"#utility.yul\":503:507   */\n      0x20\n        /* \"#utility.yul\":498:501   */\n      dup3\n        /* \"#utility.yul\":494:508   */\n      add\n        /* \"#utility.yul\":486:508   */\n      swap1\n      pop\n        /* \"#utility.yul\":361:515   */\n      swap2\n      swap1\n      pop\n      jump\t// out\n        /* \"#utility.yul\":521:620   */\n    tag_51:\n        /* \"#utility.yul\":573:579   */\n      0x00\n        /* \"#utility.yul\":607:612   */\n      dup2\n        /* \"#utility.yul\":601:613   */\n      mload\n        /* \"#utility.yul\":591:613   */\n      swap1\n      pop\n        /* \"#utility.yul\":521:620   */\n      swap2\n      swap1\n      pop\n      jump\t// out\n        /* \"#utility.yul\":626:785   */\n    tag_52:\n        /* \"#utility.yul\":700:711   */\n      0x00\n        /* \"#utility.yul\":734:740   */\n      dup3\n        /* \"#utility.yul\":729:732   */\n      dup3\n        /* \"#utility.yul\":722:741   */\n      mstore\n        /* \"#utility.yul\":774:778   */\n      0x20\n        /* \"#utility.yul\":769:772   */\n      dup3\n        /* \"#utility.yul\":765:779   */\n      add\n        /* \"#utility.yul\":750:779   */\n      swap1\n      pop\n        /* \"#utility.yul\":626:785   */\n      swap3\n      swap2\n      pop\n      pop\n      jump\t// out\n        /* \"#utility.yul\":791:1037   */\n    tag_53:\n        /* \"#utility.yul\":872:873   */\n      0x00\n        /* \"#utility.yul\":882:995   */\n    tag_105:\n        /* \"#utility.yul\":896:902   */\n      dup4\n        /* \"#utility.yul\":893:894   */\n      dup2\n        /* \"#utility.yul\":890:903   */\n      lt\n        /* \"#utility.yul\":882:995   */\n      iszero\n      tag_107\n      jumpi\n        /* \"#utility.yul\":981:982   */\n      dup1\n        /* \"#utility.yul\":976:979   */\n      dup3\n        /* \"#utility.yul\":972:983   */\n      add\n        /* \"#utility.yul\":966:984   */\n      mload\n        /* \"#utility.yul\":962:963   */\n      dup2\n        /* \"#utility.yul\":957:960   */\n      dup5\n        /* \"#utility.yul\":953:964   */\n      add\n        /* \"#utility.yul\":946:985   */\n      mstore\n        /* \"#utility.yul\":918:920   */\n      0x20\n        /* \"#utility.yul\":915:916   */\n      dup2\n        /* \"#utility.yul\":911:921   */\n      add\n        /* \"#utility.yul\":906:921   */\n      swap1\n      pop\n        /* \"#utility.yul\":882:995   */\n      jump(tag_105)\n    tag_107:\n        /* \"#utility.yul\":1029:1030   */\n      0x00\n        /* \"#utility.yul\":1020:1026   */\n      dup5\n        /* \"#utility.yul\":1015:1018   */\n      dup5\n        /* \"#utility.yul\":1011:1027   */\n      add\n        /* \"#utility.yul\":1004:1031   */\n      mstore\n        /* \"#utility.yul\":853:1037   */\n      pop\n        /* \"#utility.yul\":791:1037   */\n      pop\n      pop\n      pop\n      jump\t// out\n        /* \"#utility.yul\":1043:1145   */\n    tag_54:\n        /* \"#utility.yul\":1084:1090   */\n      0x00\n        /* \"#utility.yul\":1135:1137   */\n      0x1f\n        /* \"#utility.yul\":1131:1138   */\n      not\n        /* \"#utility.yul\":1126:1128   */\n      0x1f\n        /* \"#utility.yul\":1119:1124   */\n      dup4\n        /* \"#utility.yul\":1115:1129   */\n      add\n        /* \"#utility.yul\":1111:1139   */\n      and\n        /* \"#utility.yul\":1101:1139   */\n      swap1\n      pop\n        /* \"#utility.yul\":1043:1145   */\n      swap2\n      swap1\n      pop\n      jump\t// out\n        /* \"#utility.yul\":1151:1508   */\n    tag_55:\n        /* \"#utility.yul\":1229:1232   */\n      0x00\n        /* \"#utility.yul\":1257:1296   */\n      tag_110\n        /* \"#utility.yul\":1290:1295   */\n      dup3\n        /* \"#utility.yul\":1257:1296   */\n      tag_51\n      jump\t// in\n    tag_110:\n        /* \"#utility.yul\":1312:1373   */\n      tag_111\n        /* \"#utility.yul\":1366:1372   */\n      dup2\n        /* \"#utility.yul\":1361:1364   */\n      dup6\n        /* \"#utility.yul\":1312:1373   */\n      tag_52\n      jump\t// in\n    tag_111:\n        /* \"#utility.yul\":1305:1373   */\n      swap4\n      pop\n        /* \"#utility.yul\":1382:1447   */\n      tag_112\n        /* \"#utility.yul\":1440:1446   */\n      dup2\n        /* \"#utility.yul\":1435:1438   */\n      dup6\n        /* \"#utility.yul\":1428:1432   */\n      0x20\n        /* \"#utility.yul\":1421:1426   */\n      dup7\n        /* \"#utility.yul\":1417:1433   */\n      add\n        /* \"#utility.yul\":1382:1447   */\n      tag_53\n      jump\t// in\n    tag_112:\n        /* \"#utility.yul\":1472:1501   */\n      tag_113\n        /* \"#utility.yul\":1494:1500   */\n      dup2\n        /* \"#utility.yul\":1472:1501   */\n      tag_54\n      jump\t// in\n    tag_113:\n        /* \"#utility.yul\":1467:1470   */\n      dup5\n        /* \"#utility.yul\":1463:1502   */\n      add\n        /* \"#utility.yul\":1456:1502   */\n      swap2\n      pop\n        /* \"#utility.yul\":1233:1508   */\n      pop\n        /* \"#utility.yul\":1151:1508   */\n      swap3\n      swap2\n      pop\n      pop\n      jump\t// out\n        /* \"#utility.yul\":1514:1604   */\n    tag_56:\n        /* \"#utility.yul\":1548:1555   */\n      0x00\n        /* \"#utility.yul\":1591:1596   */\n      dup2\n        /* \"#utility.yul\":1584:1597   */\n      iszero\n        /* \"#utility.yul\":1577:1598   */\n      iszero\n        /* \"#utility.yul\":1566:1598   */\n      swap1\n      pop\n        /* \"#utility.yul\":1514:1604   */\n      swap2\n      swap1\n      pop\n      jump\t// out\n        /* \"#utility.yul\":1610:1709   */\n    tag_57:\n        /* \"#utility.yul\":1681:1702   */\n      tag_116\n        /* \"#utility.yul\":1696:1701   */\n      dup2\n        /* \"#utility.yul\":1681:1702   */\n      tag_56\n      jump\t// in\n    tag_116:\n        /* \"#utility.yul\":1676:1679   */\n      dup3\n        /* \"#utility.yul\":1669:1703   */\n      mstore\n        /* \"#utility.yul\":1610:1709   */\n      pop\n      pop\n      jump\t// out\n        /* \"#utility.yul\":1715:1792   */\n    tag_58:\n        /* \"#utility.yul\":1752:1759   */\n      0x00\n        /* \"#utility.yul\":1781:1786   */\n      dup2\n        /* \"#utility.yul\":1770:1786   */\n      swap1\n      pop\n        /* \"#utility.yul\":1715:1792   */\n      swap2\n      swap1\n      pop\n      jump\t// out\n        /* \"#utility.yul\":1798:1906   */\n    tag_59:\n        /* \"#utility.yul\":1875:1899   */\n      tag_119\n        /* \"#utility.yul\":1893:1898   */\n      dup2\n        /* \"#utility.yul\":1875:1899   */\n      tag_58\n      jump\t// in\n    tag_119:\n        /* \"#utility.yul\":1870:1873   */\n      dup3\n        /* \"#utility.yul\":1863:1900   */\n      mstore\n        /* \"#utility.yul\":1798:1906   */\n      pop\n      pop\n      jump\t// out\n        /* \"#utility.yul\":1966:2728   */\n    tag_60:\n        /* \"#utility.yul\":2069:2072   */\n      0x00\n        /* \"#utility.yul\":2105:2109   */\n      0x60\n        /* \"#utility.yul\":2100:2103   */\n      dup4\n        /* \"#utility.yul\":2096:2110   */\n      add\n        /* \"#utility.yul\":2192:2196   */\n      0x00\n        /* \"#utility.yul\":2185:2190   */\n      dup4\n        /* \"#utility.yul\":2181:2197   */\n      add\n        /* \"#utility.yul\":2175:2198   */\n      mload\n        /* \"#utility.yul\":2245:2248   */\n      dup5\n        /* \"#utility.yul\":2239:2243   */\n      dup3\n        /* \"#utility.yul\":2235:2249   */\n      sub\n        /* \"#utility.yul\":2228:2232   */\n      0x00\n        /* \"#utility.yul\":2223:2226   */\n      dup7\n        /* \"#utility.yul\":2219:2233   */\n      add\n        /* \"#utility.yul\":2212:2250   */\n      mstore\n        /* \"#utility.yul\":2271:2344   */\n      tag_121\n        /* \"#utility.yul\":2339:2343   */\n      dup3\n        /* \"#utility.yul\":2325:2337   */\n      dup3\n        /* \"#utility.yul\":2271:2344   */\n      tag_55\n      jump\t// in\n    tag_121:\n        /* \"#utility.yul\":2263:2344   */\n      swap2\n      pop\n        /* \"#utility.yul\":2120:2355   */\n      pop\n        /* \"#utility.yul\":2439:2443   */\n      0x20\n        /* \"#utility.yul\":2432:2437   */\n      dup4\n        /* \"#utility.yul\":2428:2444   */\n      add\n        /* \"#utility.yul\":2422:2445   */\n      mload\n        /* \"#utility.yul\":2458:2515   */\n      tag_122\n        /* \"#utility.yul\":2509:2513   */\n      0x20\n        /* \"#utility.yul\":2504:2507   */\n      dup7\n        /* \"#utility.yul\":2500:2514   */\n      add\n        /* \"#utility.yul\":2486:2498   */\n      dup3\n        /* \"#utility.yul\":2458:2515   */\n      tag_57\n      jump\t// in\n    tag_122:\n        /* \"#utility.yul\":2365:2525   */\n      pop\n        /* \"#utility.yul\":2609:2613   */\n      0x40\n        /* \"#utility.yul\":2602:2607   */\n      dup4\n        /* \"#utility.yul\":2598:2614   */\n      add\n        /* \"#utility.yul\":2592:2615   */\n      mload\n        /* \"#utility.yul\":2628:2691   */\n      tag_123\n        /* \"#utility.yul\":2685:2689   */\n      0x40\n        /* \"#utility.yul\":2680:2683   */\n      dup7\n        /* \"#utility.yul\":2676:2690   */\n      add\n        /* \"#utility.yul\":2662:2674   */\n      dup3\n        /* \"#utility.yul\":2628:2691   */\n      tag_59\n      jump\t// in\n    tag_123:\n        /* \"#utility.yul\":2535:2701   */\n      pop\n        /* \"#utility.yul\":2718:2722   */\n      dup1\n        /* \"#utility.yul\":2711:2722   */\n      swap2\n      pop\n        /* \"#utility.yul\":2074:2728   */\n      pop\n        /* \"#utility.yul\":1966:2728   */\n      swap3\n      swap2\n      pop\n      pop\n      jump\t// out\n        /* \"#utility.yul\":2734:2978   */\n    tag_61:\n        /* \"#utility.yul\":2847:2857   */\n      0x00\n        /* \"#utility.yul\":2882:2972   */\n      tag_125\n        /* \"#utility.yul\":2968:2971   */\n      dup4\n        /* \"#utility.yul\":2960:2966   */\n      dup4\n        /* \"#utility.yul\":2882:2972   */\n      tag_60\n      jump\t// in\n    tag_125:\n        /* \"#utility.yul\":2868:2972   */\n      swap1\n      pop\n        /* \"#utility.yul\":2734:2978   */\n      swap3\n      swap2\n      pop\n      pop\n      jump\t// out\n        /* \"#utility.yul\":2984:3119   */\n    tag_62:\n        /* \"#utility.yul\":3076:3080   */\n      0x00\n        /* \"#utility.yul\":3108:3112   */\n      0x20\n        /* \"#utility.yul\":3103:3106   */\n      dup3\n        /* \"#utility.yul\":3099:3113   */\n      add\n        /* \"#utility.yul\":3091:3113   */\n      swap1\n      pop\n        /* \"#utility.yul\":2984:3119   */\n      swap2\n      swap1\n      pop\n      jump\t// out\n        /* \"#utility.yul\":3183:4270   */\n    tag_63:\n        /* \"#utility.yul\":3346:3349   */\n      0x00\n        /* \"#utility.yul\":3375:3451   */\n      tag_128\n        /* \"#utility.yul\":3445:3450   */\n      dup3\n        /* \"#utility.yul\":3375:3451   */\n      tag_48\n      jump\t// in\n    tag_128:\n        /* \"#utility.yul\":3467:3575   */\n      tag_129\n        /* \"#utility.yul\":3568:3574   */\n      dup2\n        /* \"#utility.yul\":3563:3566   */\n      dup6\n        /* \"#utility.yul\":3467:3575   */\n      tag_49\n      jump\t// in\n    tag_129:\n        /* \"#utility.yul\":3460:3575   */\n      swap4\n      pop\n        /* \"#utility.yul\":3601:3604   */\n      dup4\n        /* \"#utility.yul\":3646:3650   */\n      0x20\n        /* \"#utility.yul\":3638:3644   */\n      dup3\n        /* \"#utility.yul\":3634:3651   */\n      mul\n        /* \"#utility.yul\":3629:3632   */\n      dup6\n        /* \"#utility.yul\":3625:3652   */\n      add\n        /* \"#utility.yul\":3676:3754   */\n      tag_130\n        /* \"#utility.yul\":3748:3753   */\n      dup6\n        /* \"#utility.yul\":3676:3754   */\n      tag_50\n      jump\t// in\n    tag_130:\n        /* \"#utility.yul\":3777:3784   */\n      dup1\n        /* \"#utility.yul\":3808:3809   */\n      0x00\n        /* \"#utility.yul\":3793:4225   */\n    tag_131:\n        /* \"#utility.yul\":3818:3824   */\n      dup6\n        /* \"#utility.yul\":3815:3816   */\n      dup2\n        /* \"#utility.yul\":3812:3825   */\n      lt\n        /* \"#utility.yul\":3793:4225   */\n      iszero\n      tag_133\n      jumpi\n        /* \"#utility.yul\":3889:3898   */\n      dup5\n        /* \"#utility.yul\":3883:3887   */\n      dup5\n        /* \"#utility.yul\":3879:3899   */\n      sub\n        /* \"#utility.yul\":3874:3877   */\n      dup10\n        /* \"#utility.yul\":3867:3900   */\n      mstore\n        /* \"#utility.yul\":3940:3946   */\n      dup2\n        /* \"#utility.yul\":3934:3947   */\n      mload\n        /* \"#utility.yul\":3968:4076   */\n      tag_134\n        /* \"#utility.yul\":4071:4075   */\n      dup6\n        /* \"#utility.yul\":4056:4069   */\n      dup3\n        /* \"#utility.yul\":3968:4076   */\n      tag_61\n      jump\t// in\n    tag_134:\n        /* \"#utility.yul\":3960:4076   */\n      swap5\n      pop\n        /* \"#utility.yul\":4099:4181   */\n      tag_135\n        /* \"#utility.yul\":4174:4180   */\n      dup4\n        /* \"#utility.yul\":4099:4181   */\n      tag_62\n      jump\t// in\n    tag_135:\n        /* \"#utility.yul\":4089:4181   */\n      swap3\n      pop\n        /* \"#utility.yul\":4210:4214   */\n      0x20\n        /* \"#utility.yul\":4205:4208   */\n      dup11\n        /* \"#utility.yul\":4201:4215   */\n      add\n        /* \"#utility.yul\":4194:4215   */\n      swap10\n      pop\n        /* \"#utility.yul\":3853:4225   */\n      pop\n        /* \"#utility.yul\":3840:3841   */\n      0x01\n        /* \"#utility.yul\":3837:3838   */\n      dup2\n        /* \"#utility.yul\":3833:3842   */\n      add\n        /* \"#utility.yul\":3828:3842   */\n      swap1\n      pop\n        /* \"#utility.yul\":3793:4225   */\n      jump(tag_131)\n    tag_133:\n        /* \"#utility.yul\":3797:3811   */\n      pop\n        /* \"#utility.yul\":4241:4245   */\n      dup3\n        /* \"#utility.yul\":4234:4245   */\n      swap8\n      pop\n        /* \"#utility.yul\":4261:4264   */\n      dup8\n        /* \"#utility.yul\":4254:4264   */\n      swap6\n      pop\n        /* \"#utility.yul\":3351:4270   */\n      pop\n      pop\n      pop\n      pop\n      pop\n        /* \"#utility.yul\":3183:4270   */\n      swap3\n      swap2\n      pop\n      pop\n      jump\t// out\n        /* \"#utility.yul\":4276:4737   */\n    tag_9:\n        /* \"#utility.yul\":4463:4467   */\n      0x00\n        /* \"#utility.yul\":4501:4503   */\n      0x20\n        /* \"#utility.yul\":4490:4499   */\n      dup3\n        /* \"#utility.yul\":4486:4504   */\n      add\n        /* \"#utility.yul\":4478:4504   */\n      swap1\n      pop\n        /* \"#utility.yul\":4550:4559   */\n      dup2\n        /* \"#utility.yul\":4544:4548   */\n      dup2\n        /* \"#utility.yul\":4540:4560   */\n      sub\n        /* \"#utility.yul\":4536:4537   */\n      0x00\n        /* \"#utility.yul\":4525:4534   */\n      dup4\n        /* \"#utility.yul\":4521:4538   */\n      add\n        /* \"#utility.yul\":4514:4561   */\n      mstore\n        /* \"#utility.yul\":4578:4730   */\n      tag_137\n        /* \"#utility.yul\":4725:4729   */\n      dup2\n        /* \"#utility.yul\":4716:4722   */\n      dup5\n        /* \"#utility.yul\":4578:4730   */\n      tag_63\n      jump\t// in\n    tag_137:\n        /* \"#utility.yul\":4570:4730   */\n      swap1\n      pop\n        /* \"#utility.yul\":4276:4737   */\n      swap3\n      swap2\n      pop\n      pop\n      jump\t// out\n        /* \"#utility.yul\":4743:4818   */\n    tag_64:\n        /* \"#utility.yul\":4776:4782   */\n      0x00\n        /* \"#utility.yul\":4809:4811   */\n      0x40\n        /* \"#utility.yul\":4803:4812   */\n      mload\n        /* \"#utility.yul\":4793:4812   */\n      swap1\n      pop\n        /* \"#utility.yul\":4743:4818   */\n      swap1\n      jump\t// out\n        /* \"#utility.yul\":4824:4941   */\n    tag_65:\n        /* \"#utility.yul\":4933:4934   */\n      0x00\n        /* \"#utility.yul\":4930:4931   */\n      dup1\n        /* \"#utility.yul\":4923:4935   */\n      revert\n        /* \"#utility.yul\":4947:5064   */\n    tag_66:\n        /* \"#utility.yul\":5056:5057   */\n      0x00\n        /* \"#utility.yul\":5053:5054   */\n      dup1\n        /* \"#utility.yul\":5046:5058   */\n      revert\n        /* \"#utility.yul\":5070:5192   */\n    tag_67:\n        /* \"#utility.yul\":5143:5167   */\n      tag_142\n        /* \"#utility.yul\":5161:5166   */\n      dup2\n        /* \"#utility.yul\":5143:5167   */\n      tag_58\n      jump\t// in\n    tag_142:\n        /* \"#utility.yul\":5136:5141   */\n      dup2\n        /* \"#utility.yul\":5133:5168   */\n      eq\n        /* \"#utility.yul\":5123:5186   */\n      tag_143\n      jumpi\n        /* \"#utility.yul\":5182:5183   */\n      0x00\n        /* \"#utility.yul\":5179:5180   */\n      dup1\n        /* \"#utility.yul\":5172:5184   */\n      revert\n        /* \"#utility.yul\":5123:5186   */\n    tag_143:\n        /* \"#utility.yul\":5070:5192   */\n      pop\n      jump\t// out\n        /* \"#utility.yul\":5198:5337   */\n    tag_68:\n        /* \"#utility.yul\":5244:5249   */\n      0x00\n        /* \"#utility.yul\":5282:5288   */\n      dup2\n        /* \"#utility.yul\":5269:5289   */\n      calldataload\n        /* \"#utility.yul\":5260:5289   */\n      swap1\n      pop\n        /* \"#utility.yul\":5298:5331   */\n      tag_145\n        /* \"#utility.yul\":5325:5330   */\n      dup2\n        /* \"#utility.yul\":5298:5331   */\n      tag_67\n      jump\t// in\n    tag_145:\n        /* \"#utility.yul\":5198:5337   */\n      swap3\n      swap2\n      pop\n      pop\n      jump\t// out\n        /* \"#utility.yul\":5343:5672   */\n    tag_12:\n        /* \"#utility.yul\":5402:5408   */\n      0x00\n        /* \"#utility.yul\":5451:5453   */\n      0x20\n        /* \"#utility.yul\":5439:5448   */\n      dup3\n        /* \"#utility.yul\":5430:5437   */\n      dup5\n        /* \"#utility.yul\":5426:5449   */\n      sub\n        /* \"#utility.yul\":5422:5454   */\n      slt\n        /* \"#utility.yul\":5419:5538   */\n      iszero\n      tag_147\n      jumpi\n        /* \"#utility.yul\":5457:5536   */\n      tag_148\n      tag_65\n      jump\t// in\n    tag_148:\n        /* \"#utility.yul\":5419:5538   */\n    tag_147:\n        /* \"#utility.yul\":5577:5578   */\n      0x00\n        /* \"#utility.yul\":5602:5655   */\n      tag_149\n        /* \"#utility.yul\":5647:5654   */\n      dup5\n        /* \"#utility.yul\":5638:5644   */\n      dup3\n        /* \"#utility.yul\":5627:5636   */\n      dup6\n        /* \"#utility.yul\":5623:5645   */\n      add\n        /* \"#utility.yul\":5602:5655   */\n      tag_68\n      jump\t// in\n    tag_149:\n        /* \"#utility.yul\":5592:5655   */\n      swap2\n      pop\n        /* \"#utility.yul\":5548:5665   */\n      pop\n        /* \"#utility.yul\":5343:5672   */\n      swap3\n      swap2\n      pop\n      pop\n      jump\t// out\n        /* \"#utility.yul\":5732:6504   */\n    tag_69:\n        /* \"#utility.yul\":5845:5848   */\n      0x00\n        /* \"#utility.yul\":5881:5885   */\n      0x60\n        /* \"#utility.yul\":5876:5879   */\n      dup4\n        /* \"#utility.yul\":5872:5886   */\n      add\n        /* \"#utility.yul\":5968:5972   */\n      0x00\n        /* \"#utility.yul\":5961:5966   */\n      dup4\n        /* \"#utility.yul\":5957:5973   */\n      add\n        /* \"#utility.yul\":5951:5974   */\n      mload\n        /* \"#utility.yul\":6021:6024   */\n      dup5\n        /* \"#utility.yul\":6015:6019   */\n      dup3\n        /* \"#utility.yul\":6011:6025   */\n      sub\n        /* \"#utility.yul\":6004:6008   */\n      0x00\n        /* \"#utility.yul\":5999:6002   */\n      dup7\n        /* \"#utility.yul\":5995:6009   */\n      add\n        /* \"#utility.yul\":5988:6026   */\n      mstore\n        /* \"#utility.yul\":6047:6120   */\n      tag_151\n        /* \"#utility.yul\":6115:6119   */\n      dup3\n        /* \"#utility.yul\":6101:6113   */\n      dup3\n        /* \"#utility.yul\":6047:6120   */\n      tag_55\n      jump\t// in\n    tag_151:\n        /* \"#utility.yul\":6039:6120   */\n      swap2\n      pop\n        /* \"#utility.yul\":5896:6131   */\n      pop\n        /* \"#utility.yul\":6215:6219   */\n      0x20\n        /* \"#utility.yul\":6208:6213   */\n      dup4\n        /* \"#utility.yul\":6204:6220   */\n      add\n        /* \"#utility.yul\":6198:6221   */\n      mload\n        /* \"#utility.yul\":6234:6291   */\n      tag_152\n        /* \"#utility.yul\":6285:6289   */\n      0x20\n        /* \"#utility.yul\":6280:6283   */\n      dup7\n        /* \"#utility.yul\":6276:6290   */\n      add\n        /* \"#utility.yul\":6262:6274   */\n      dup3\n        /* \"#utility.yul\":6234:6291   */\n      tag_57\n      jump\t// in\n    tag_152:\n        /* \"#utility.yul\":6141:6301   */\n      pop\n        /* \"#utility.yul\":6385:6389   */\n      0x40\n        /* \"#utility.yul\":6378:6383   */\n      dup4\n        /* \"#utility.yul\":6374:6390   */\n      add\n        /* \"#utility.yul\":6368:6391   */\n      mload\n        /* \"#utility.yul\":6404:6467   */\n      tag_153\n        /* \"#utility.yul\":6461:6465   */\n      0x40\n        /* \"#utility.yul\":6456:6459   */\n      dup7\n        /* \"#utility.yul\":6452:6466   */\n      add\n        /* \"#utility.yul\":6438:6450   */\n      dup3\n        /* \"#utility.yul\":6404:6467   */\n      tag_59\n      jump\t// in\n    tag_153:\n        /* \"#utility.yul\":6311:6477   */\n      pop\n        /* \"#utility.yul\":6494:6498   */\n      dup1\n        /* \"#utility.yul\":6487:6498   */\n      swap2\n      pop\n        /* \"#utility.yul\":5850:6504   */\n      pop\n        /* \"#utility.yul\":5732:6504   */\n      swap3\n      swap2\n      pop\n      pop\n      jump\t// out\n        /* \"#utility.yul\":6510:6871   */\n    tag_15:\n        /* \"#utility.yul\":6647:6651   */\n      0x00\n        /* \"#utility.yul\":6685:6687   */\n      0x20\n        /* \"#utility.yul\":6674:6683   */\n      dup3\n        /* \"#utility.yul\":6670:6688   */\n      add\n        /* \"#utility.yul\":6662:6688   */\n      swap1\n      pop\n        /* \"#utility.yul\":6734:6743   */\n      dup2\n        /* \"#utility.yul\":6728:6732   */\n      dup2\n        /* \"#utility.yul\":6724:6744   */\n      sub\n        /* \"#utility.yul\":6720:6721   */\n      0x00\n        /* \"#utility.yul\":6709:6718   */\n      dup4\n        /* \"#utility.yul\":6705:6722   */\n      add\n        /* \"#utility.yul\":6698:6745   */\n      mstore\n        /* \"#utility.yul\":6762:6864   */\n      tag_155\n        /* \"#utility.yul\":6859:6863   */\n      dup2\n        /* \"#utility.yul\":6850:6856   */\n      dup5\n        /* \"#utility.yul\":6762:6864   */\n      tag_69\n      jump\t// in\n    tag_155:\n        /* \"#utility.yul\":6754:6864   */\n      swap1\n      pop\n        /* \"#utility.yul\":6510:6871   */\n      swap3\n      swap2\n      pop\n      pop\n      jump\t// out\n        /* \"#utility.yul\":6877:6994   */\n    tag_70:\n        /* \"#utility.yul\":6986:6987   */\n      0x00\n        /* \"#utility.yul\":6983:6984   */\n      dup1\n        /* \"#utility.yul\":6976:6988   */\n      revert\n        /* \"#utility.yul\":7000:7117   */\n    tag_71:\n        /* \"#utility.yul\":7109:7110   */\n      0x00\n        /* \"#utility.yul\":7106:7107   */\n      dup1\n        /* \"#utility.yul\":7099:7111   */\n      revert\n        /* \"#utility.yul\":7123:7303   */\n    tag_72:\n        /* \"#utility.yul\":7171:7248   */\n      0x4e487b7100000000000000000000000000000000000000000000000000000000\n        /* \"#utility.yul\":7168:7169   */\n      0x00\n        /* \"#utility.yul\":7161:7249   */\n      mstore\n        /* \"#utility.yul\":7268:7272   */\n      0x41\n        /* \"#utility.yul\":7265:7266   */\n      0x04\n        /* \"#utility.yul\":7258:7273   */\n      mstore\n        /* \"#utility.yul\":7292:7296   */\n      0x24\n        /* \"#utility.yul\":7289:7290   */\n      0x00\n        /* \"#utility.yul\":7282:7297   */\n      revert\n        /* \"#utility.yul\":7309:7590   */\n    tag_73:\n        /* \"#utility.yul\":7392:7419   */\n      tag_160\n        /* \"#utility.yul\":7414:7418   */\n      dup3\n        /* \"#utility.yul\":7392:7419   */\n      tag_54\n      jump\t// in\n    tag_160:\n        /* \"#utility.yul\":7384:7390   */\n      dup2\n        /* \"#utility.yul\":7380:7420   */\n      add\n        /* \"#utility.yul\":7522:7528   */\n      dup2\n        /* \"#utility.yul\":7510:7520   */\n      dup2\n        /* \"#utility.yul\":7507:7529   */\n      lt\n        /* \"#utility.yul\":7486:7504   */\n      0xffffffffffffffff\n        /* \"#utility.yul\":7474:7484   */\n      dup3\n        /* \"#utility.yul\":7471:7505   */\n      gt\n        /* \"#utility.yul\":7468:7530   */\n      or\n        /* \"#utility.yul\":7465:7553   */\n      iszero\n      tag_161\n      jumpi\n        /* \"#utility.yul\":7533:7551   */\n      tag_162\n      tag_72\n      jump\t// in\n    tag_162:\n        /* \"#utility.yul\":7465:7553   */\n    tag_161:\n        /* \"#utility.yul\":7573:7583   */\n      dup1\n        /* \"#utility.yul\":7569:7571   */\n      0x40\n        /* \"#utility.yul\":7562:7584   */\n      mstore\n        /* \"#utility.yul\":7352:7590   */\n      pop\n        /* \"#utility.yul\":7309:7590   */\n      pop\n      pop\n      jump\t// out\n        /* \"#utility.yul\":7596:7725   */\n    tag_74:\n        /* \"#utility.yul\":7630:7636   */\n      0x00\n        /* \"#utility.yul\":7657:7677   */\n      tag_164\n      tag_64\n      jump\t// in\n    tag_164:\n        /* \"#utility.yul\":7647:7677   */\n      swap1\n      pop\n        /* \"#utility.yul\":7686:7719   */\n      tag_165\n        /* \"#utility.yul\":7714:7718   */\n      dup3\n        /* \"#utility.yul\":7706:7712   */\n      dup3\n        /* \"#utility.yul\":7686:7719   */\n      tag_73\n      jump\t// in\n    tag_165:\n        /* \"#utility.yul\":7596:7725   */\n      swap2\n      swap1\n      pop\n      jump\t// out\n        /* \"#utility.yul\":7731:8039   */\n    tag_75:\n        /* \"#utility.yul\":7793:7797   */\n      0x00\n        /* \"#utility.yul\":7883:7901   */\n      0xffffffffffffffff\n        /* \"#utility.yul\":7875:7881   */\n      dup3\n        /* \"#utility.yul\":7872:7902   */\n      gt\n        /* \"#utility.yul\":7869:7925   */\n      iszero\n      tag_167\n      jumpi\n        /* \"#utility.yul\":7905:7923   */\n      tag_168\n      tag_72\n      jump\t// in\n    tag_168:\n        /* \"#utility.yul\":7869:7925   */\n    tag_167:\n        /* \"#utility.yul\":7943:7972   */\n      tag_169\n        /* \"#utility.yul\":7965:7971   */\n      dup3\n        /* \"#utility.yul\":7943:7972   */\n      tag_54\n      jump\t// in\n    tag_169:\n        /* \"#utility.yul\":7935:7972   */\n      swap1\n      pop\n        /* \"#utility.yul\":8027:8031   */\n      0x20\n        /* \"#utility.yul\":8021:8025   */\n      dup2\n        /* \"#utility.yul\":8017:8032   */\n      add\n        /* \"#utility.yul\":8009:8032   */\n      swap1\n      pop\n        /* \"#utility.yul\":7731:8039   */\n      swap2\n      swap1\n      pop\n      jump\t// out\n        /* \"#utility.yul\":8045:8191   */\n    tag_76:\n        /* \"#utility.yul\":8142:8148   */\n      dup3\n        /* \"#utility.yul\":8137:8140   */\n      dup2\n        /* \"#utility.yul\":8132:8135   */\n      dup4\n        /* \"#utility.yul\":8119:8149   */\n      calldatacopy\n        /* \"#utility.yul\":8183:8184   */\n      0x00\n        /* \"#utility.yul\":8174:8180   */\n      dup4\n        /* \"#utility.yul\":8169:8172   */\n      dup4\n        /* \"#utility.yul\":8165:8181   */\n      add\n        /* \"#utility.yul\":8158:8185   */\n      mstore\n        /* \"#utility.yul\":8045:8191   */\n      pop\n      pop\n      pop\n      jump\t// out\n        /* \"#utility.yul\":8197:8622   */\n    tag_77:\n        /* \"#utility.yul\":8275:8280   */\n      0x00\n        /* \"#utility.yul\":8300:8366   */\n      tag_172\n        /* \"#utility.yul\":8316:8365   */\n      tag_173\n        /* \"#utility.yul\":8358:8364   */\n      dup5\n        /* \"#utility.yul\":8316:8365   */\n      tag_75\n      jump\t// in\n    tag_173:\n        /* \"#utility.yul\":8300:8366   */\n      tag_74\n      jump\t// in\n    tag_172:\n        /* \"#utility.yul\":8291:8366   */\n      swap1\n      pop\n        /* \"#utility.yul\":8389:8395   */\n      dup3\n        /* \"#utility.yul\":8382:8387   */\n      dup2\n        /* \"#utility.yul\":8375:8396   */\n      mstore\n        /* \"#utility.yul\":8427:8431   */\n      0x20\n        /* \"#utility.yul\":8420:8425   */\n      dup2\n        /* \"#utility.yul\":8416:8432   */\n      add\n        /* \"#utility.yul\":8465:8468   */\n      dup5\n        /* \"#utility.yul\":8456:8462   */\n      dup5\n        /* \"#utility.yul\":8451:8454   */\n      dup5\n        /* \"#utility.yul\":8447:8463   */\n      add\n        /* \"#utility.yul\":8444:8469   */\n      gt\n        /* \"#utility.yul\":8441:8553   */\n      iszero\n      tag_174\n      jumpi\n        /* \"#utility.yul\":8472:8551   */\n      tag_175\n      tag_71\n      jump\t// in\n    tag_175:\n        /* \"#utility.yul\":8441:8553   */\n    tag_174:\n        /* \"#utility.yul\":8562:8616   */\n      tag_176\n        /* \"#utility.yul\":8609:8615   */\n      dup5\n        /* \"#utility.yul\":8604:8607   */\n      dup3\n        /* \"#utility.yul\":8599:8602   */\n      dup6\n        /* \"#utility.yul\":8562:8616   */\n      tag_76\n      jump\t// in\n    tag_176:\n        /* \"#utility.yul\":8281:8622   */\n      pop\n        /* \"#utility.yul\":8197:8622   */\n      swap4\n      swap3\n      pop\n      pop\n      pop\n      jump\t// out\n        /* \"#utility.yul\":8642:8982   */\n    tag_78:\n        /* \"#utility.yul\":8698:8703   */\n      0x00\n        /* \"#utility.yul\":8747:8750   */\n      dup3\n        /* \"#utility.yul\":8740:8744   */\n      0x1f\n        /* \"#utility.yul\":8732:8738   */\n      dup4\n        /* \"#utility.yul\":8728:8745   */\n      add\n        /* \"#utility.yul\":8724:8751   */\n      slt\n        /* \"#utility.yul\":8714:8836   */\n      tag_178\n      jumpi\n        /* \"#utility.yul\":8755:8834   */\n      tag_179\n      tag_70\n      jump\t// in\n    tag_179:\n        /* \"#utility.yul\":8714:8836   */\n    tag_178:\n        /* \"#utility.yul\":8872:8878   */\n      dup2\n        /* \"#utility.yul\":8859:8879   */\n      calldataload\n        /* \"#utility.yul\":8897:8976   */\n      tag_180\n        /* \"#utility.yul\":8972:8975   */\n      dup5\n        /* \"#utility.yul\":8964:8970   */\n      dup3\n        /* \"#utility.yul\":8957:8961   */\n      0x20\n        /* \"#utility.yul\":8949:8955   */\n      dup7\n        /* \"#utility.yul\":8945:8962   */\n      add\n        /* \"#utility.yul\":8897:8976   */\n      tag_77\n      jump\t// in\n    tag_180:\n        /* \"#utility.yul\":8888:8976   */\n      swap2\n      pop\n        /* \"#utility.yul\":8704:8982   */\n      pop\n        /* \"#utility.yul\":8642:8982   */\n      swap3\n      swap2\n      pop\n      pop\n      jump\t// out\n        /* \"#utility.yul\":8988:9104   */\n    tag_79:\n        /* \"#utility.yul\":9058:9079   */\n      tag_182\n        /* \"#utility.yul\":9073:9078   */\n      dup2\n        /* \"#utility.yul\":9058:9079   */\n      tag_56\n      jump\t// in\n    tag_182:\n        /* \"#utility.yul\":9051:9056   */\n      dup2\n        /* \"#utility.yul\":9048:9080   */\n      eq\n        /* \"#utility.yul\":9038:9098   */\n      tag_183\n      jumpi\n        /* \"#utility.yul\":9094:9095   */\n      0x00\n        /* \"#utility.yul\":9091:9092   */\n      dup1\n        /* \"#utility.yul\":9084:9096   */\n      revert\n        /* \"#utility.yul\":9038:9098   */\n    tag_183:\n        /* \"#utility.yul\":8988:9104   */\n      pop\n      jump\t// out\n        /* \"#utility.yul\":9110:9243   */\n    tag_80:\n        /* \"#utility.yul\":9153:9158   */\n      0x00\n        /* \"#utility.yul\":9191:9197   */\n      dup2\n        /* \"#utility.yul\":9178:9198   */\n      calldataload\n        /* \"#utility.yul\":9169:9198   */\n      swap1\n      pop\n        /* \"#utility.yul\":9207:9237   */\n      tag_185\n        /* \"#utility.yul\":9231:9236   */\n      dup2\n        /* \"#utility.yul\":9207:9237   */\n      tag_79\n      jump\t// in\n    tag_185:\n        /* \"#utility.yul\":9110:9243   */\n      swap3\n      swap2\n      pop\n      pop\n      jump\t// out\n        /* \"#utility.yul\":9249:10042   */\n    tag_18:\n        /* \"#utility.yul\":9333:9339   */\n      0x00\n        /* \"#utility.yul\":9341:9347   */\n      dup1\n        /* \"#utility.yul\":9349:9355   */\n      0x00\n        /* \"#utility.yul\":9398:9400   */\n      0x60\n        /* \"#utility.yul\":9386:9395   */\n      dup5\n        /* \"#utility.yul\":9377:9384   */\n      dup7\n        /* \"#utility.yul\":9373:9396   */\n      sub\n        /* \"#utility.yul\":9369:9401   */\n      slt\n        /* \"#utility.yul\":9366:9485   */\n      iszero\n      tag_187\n      jumpi\n        /* \"#utility.yul\":9404:9483   */\n      tag_188\n      tag_65\n      jump\t// in\n    tag_188:\n        /* \"#utility.yul\":9366:9485   */\n    tag_187:\n        /* \"#utility.yul\":9552:9553   */\n      0x00\n        /* \"#utility.yul\":9541:9550   */\n      dup5\n        /* \"#utility.yul\":9537:9554   */\n      add\n        /* \"#utility.yul\":9524:9555   */\n      calldataload\n        /* \"#utility.yul\":9582:9600   */\n      0xffffffffffffffff\n        /* \"#utility.yul\":9574:9580   */\n      dup2\n        /* \"#utility.yul\":9571:9601   */\n      gt\n        /* \"#utility.yul\":9568:9685   */\n      iszero\n      tag_189\n      jumpi\n        /* \"#utility.yul\":9604:9683   */\n      tag_190\n      tag_66\n      jump\t// in\n    tag_190:\n        /* \"#utility.yul\":9568:9685   */\n    tag_189:\n        /* \"#utility.yul\":9709:9772   */\n      tag_191\n        /* \"#utility.yul\":9764:9771   */\n      dup7\n        /* \"#utility.yul\":9755:9761   */\n      dup3\n        /* \"#utility.yul\":9744:9753   */\n      dup8\n        /* \"#utility.yul\":9740:9762   */\n      add\n        /* \"#utility.yul\":9709:9772   */\n      tag_78\n      jump\t// in\n    tag_191:\n        /* \"#utility.yul\":9699:9772   */\n      swap4\n      pop\n        /* \"#utility.yul\":9495:9782   */\n      pop\n        /* \"#utility.yul\":9821:9823   */\n      0x20\n        /* \"#utility.yul\":9847:9897   */\n      tag_192\n        /* \"#utility.yul\":9889:9896   */\n      dup7\n        /* \"#utility.yul\":9880:9886   */\n      dup3\n        /* \"#utility.yul\":9869:9878   */\n      dup8\n        /* \"#utility.yul\":9865:9887   */\n      add\n        /* \"#utility.yul\":9847:9897   */\n      tag_80\n      jump\t// in\n    tag_192:\n        /* \"#utility.yul\":9837:9897   */\n      swap3\n      pop\n        /* \"#utility.yul\":9792:9907   */\n      pop\n        /* \"#utility.yul\":9946:9948   */\n      0x40\n        /* \"#utility.yul\":9972:10025   */\n      tag_193\n        /* \"#utility.yul\":10017:10024   */\n      dup7\n        /* \"#utility.yul\":10008:10014   */\n      dup3\n        /* \"#utility.yul\":9997:10006   */\n      dup8\n        /* \"#utility.yul\":9993:10015   */\n      add\n        /* \"#utility.yul\":9972:10025   */\n      tag_68\n      jump\t// in\n    tag_193:\n        /* \"#utility.yul\":9962:10025   */\n      swap2\n      pop\n        /* \"#utility.yul\":9917:10035   */\n      pop\n        /* \"#utility.yul\":9249:10042   */\n      swap3\n      pop\n      swap3\n      pop\n      swap3\n      jump\t// out\n        /* \"#utility.yul\":10048:10228   */\n    tag_81:\n        /* \"#utility.yul\":10096:10173   */\n      0x4e487b7100000000000000000000000000000000000000000000000000000000\n        /* \"#utility.yul\":10093:10094   */\n      0x00\n        /* \"#utility.yul\":10086:10174   */\n      mstore\n        /* \"#utility.yul\":10193:10197   */\n      0x22\n        /* \"#utility.yul\":10190:10191   */\n      0x04\n        /* \"#utility.yul\":10183:10198   */\n      mstore\n        /* \"#utility.yul\":10217:10221   */\n      0x24\n        /* \"#utility.yul\":10214:10215   */\n      0x00\n        /* \"#utility.yul\":10207:10222   */\n      revert\n        /* \"#utility.yul\":10234:10554   */\n    tag_25:\n        /* \"#utility.yul\":10278:10284   */\n      0x00\n        /* \"#utility.yul\":10315:10316   */\n      0x02\n        /* \"#utility.yul\":10309:10313   */\n      dup3\n        /* \"#utility.yul\":10305:10317   */\n      div\n        /* \"#utility.yul\":10295:10317   */\n      swap1\n      pop\n        /* \"#utility.yul\":10362:10363   */\n      0x01\n        /* \"#utility.yul\":10356:10360   */\n      dup3\n        /* \"#utility.yul\":10352:10364   */\n      and\n        /* \"#utility.yul\":10383:10401   */\n      dup1\n        /* \"#utility.yul\":10373:10454   */\n      tag_196\n      jumpi\n        /* \"#utility.yul\":10439:10443   */\n      0x7f\n        /* \"#utility.yul\":10431:10437   */\n      dup3\n        /* \"#utility.yul\":10427:10444   */\n      and\n        /* \"#utility.yul\":10417:10444   */\n      swap2\n      pop\n        /* \"#utility.yul\":10373:10454   */\n    tag_196:\n        /* \"#utility.yul\":10501:10503   */\n      0x20\n        /* \"#utility.yul\":10493:10499   */\n      dup3\n        /* \"#utility.yul\":10490:10504   */\n      lt\n        /* \"#utility.yul\":10470:10488   */\n      dup2\n        /* \"#utility.yul\":10467:10505   */\n      sub\n        /* \"#utility.yul\":10464:10548   */\n      tag_197\n      jumpi\n        /* \"#utility.yul\":10520:10538   */\n      tag_198\n      tag_81\n      jump\t// in\n    tag_198:\n        /* \"#utility.yul\":10464:10548   */\n    tag_197:\n        /* \"#utility.yul\":10285:10554   */\n      pop\n        /* \"#utility.yul\":10234:10554   */\n      swap2\n      swap1\n      pop\n      jump\t// out\n        /* \"#utility.yul\":10560:10740   */\n    tag_82:\n        /* \"#utility.yul\":10608:10685   */\n      0x4e487b7100000000000000000000000000000000000000000000000000000000\n        /* \"#utility.yul\":10605:10606   */\n      0x00\n        /* \"#utility.yul\":10598:10686   */\n      mstore\n        /* \"#utility.yul\":10705:10709   */\n      0x11\n        /* \"#utility.yul\":10702:10703   */\n      0x04\n        /* \"#utility.yul\":10695:10710   */\n      mstore\n        /* \"#utility.yul\":10729:10733   */\n      0x24\n        /* \"#utility.yul\":10726:10727   */\n      0x00\n        /* \"#utility.yul\":10719:10734   */\n      revert\n        /* \"#utility.yul\":10746:10940   */\n    tag_34:\n        /* \"#utility.yul\":10786:10790   */\n      0x00\n        /* \"#utility.yul\":10806:10826   */\n      tag_201\n        /* \"#utility.yul\":10824:10825   */\n      dup3\n        /* \"#utility.yul\":10806:10826   */\n      tag_58\n      jump\t// in\n    tag_201:\n        /* \"#utility.yul\":10801:10826   */\n      swap2\n      pop\n        /* \"#utility.yul\":10840:10860   */\n      tag_202\n        /* \"#utility.yul\":10858:10859   */\n      dup4\n        /* \"#utility.yul\":10840:10860   */\n      tag_58\n      jump\t// in\n    tag_202:\n        /* \"#utility.yul\":10835:10860   */\n      swap3\n      pop\n        /* \"#utility.yul\":10884:10885   */\n      dup3\n        /* \"#utility.yul\":10881:10882   */\n      dup3\n        /* \"#utility.yul\":10877:10886   */\n      sub\n        /* \"#utility.yul\":10869:10886   */\n      swap1\n      pop\n        /* \"#utility.yul\":10908:10909   */\n      dup2\n        /* \"#utility.yul\":10902:10906   */\n      dup2\n        /* \"#utility.yul\":10899:10910   */\n      gt\n        /* \"#utility.yul\":10896:10933   */\n      iszero\n      tag_203\n      jumpi\n        /* \"#utility.yul\":10913:10931   */\n      tag_204\n      tag_82\n      jump\t// in\n    tag_204:\n        /* \"#utility.yul\":10896:10933   */\n    tag_203:\n        /* \"#utility.yul\":10746:10940   */\n      swap3\n      swap2\n      pop\n      pop\n      jump\t// out\n        /* \"#utility.yul\":10946:11126   */\n    tag_37:\n        /* \"#utility.yul\":10994:11071   */\n      0x4e487b7100000000000000000000000000000000000000000000000000000000\n        /* \"#utility.yul\":10991:10992   */\n      0x00\n        /* \"#utility.yul\":10984:11072   */\n      mstore\n        /* \"#utility.yul\":11091:11095   */\n      0x32\n        /* \"#utility.yul\":11088:11089   */\n      0x04\n        /* \"#utility.yul\":11081:11096   */\n      mstore\n        /* \"#utility.yul\":11115:11119   */\n      0x24\n        /* \"#utility.yul\":11112:11113   */\n      0x00\n        /* \"#utility.yul\":11105:11120   */\n      revert\n        /* \"#utility.yul\":11132:11273   */\n    tag_83:\n        /* \"#utility.yul\":11181:11185   */\n      0x00\n        /* \"#utility.yul\":11204:11207   */\n      dup2\n        /* \"#utility.yul\":11196:11207   */\n      swap1\n      pop\n        /* \"#utility.yul\":11227:11230   */\n      dup2\n        /* \"#utility.yul\":11224:11225   */\n      0x00\n        /* \"#utility.yul\":11217:11231   */\n      mstore\n        /* \"#utility.yul\":11261:11265   */\n      0x20\n        /* \"#utility.yul\":11258:11259   */\n      0x00\n        /* \"#utility.yul\":11248:11266   */\n      keccak256\n        /* \"#utility.yul\":11240:11266   */\n      swap1\n      pop\n        /* \"#utility.yul\":11132:11273   */\n      swap2\n      swap1\n      pop\n      jump\t// out\n        /* \"#utility.yul\":11279:11372   */\n    tag_84:\n        /* \"#utility.yul\":11316:11322   */\n      0x00\n        /* \"#utility.yul\":11363:11365   */\n      0x20\n        /* \"#utility.yul\":11358:11360   */\n      0x1f\n        /* \"#utility.yul\":11351:11356   */\n      dup4\n        /* \"#utility.yul\":11347:11361   */\n      add\n        /* \"#utility.yul\":11343:11366   */\n      div\n        /* \"#utility.yul\":11333:11366   */\n      swap1\n      pop\n        /* \"#utility.yul\":11279:11372   */\n      swap2\n      swap1\n      pop\n      jump\t// out\n        /* \"#utility.yul\":11378:11485   */\n    tag_85:\n        /* \"#utility.yul\":11422:11430   */\n      0x00\n        /* \"#utility.yul\":11472:11477   */\n      dup3\n        /* \"#utility.yul\":11466:11470   */\n      dup3\n        /* \"#utility.yul\":11462:11478   */\n      shl\n        /* \"#utility.yul\":11441:11478   */\n      swap1\n      pop\n        /* \"#utility.yul\":11378:11485   */\n      swap3\n      swap2\n      pop\n      pop\n      jump\t// out\n        /* \"#utility.yul\":11491:11884   */\n    tag_86:\n        /* \"#utility.yul\":11560:11566   */\n      0x00\n        /* \"#utility.yul\":11610:11611   */\n      0x08\n        /* \"#utility.yul\":11598:11608   */\n      dup4\n        /* \"#utility.yul\":11594:11612   */\n      mul\n        /* \"#utility.yul\":11633:11730   */\n      tag_210\n        /* \"#utility.yul\":11663:11729   */\n      0xffffffffffffffffffffffffffffffffffffffffffffffffffffffffffffffff\n        /* \"#utility.yul\":11652:11661   */\n      dup3\n        /* \"#utility.yul\":11633:11730   */\n      tag_85\n      jump\t// in\n    tag_210:\n        /* \"#utility.yul\":11751:11790   */\n      tag_211\n        /* \"#utility.yul\":11781:11789   */\n      dup7\n        /* \"#utility.yul\":11770:11779   */\n      dup4\n        /* \"#utility.yul\":11751:11790   */\n      tag_85\n      jump\t// in\n    tag_211:\n        /* \"#utility.yul\":11739:11790   */\n      swap6\n      pop\n        /* \"#utility.yul\":11823:11827   */\n      dup1\n        /* \"#utility.yul\":11819:11828   */\n      not\n        /* \"#utility.yul\":11812:11817   */\n      dup5\n        /* \"#utility.yul\":11808:11829   */\n      and\n        /* \"#utility.yul\":11799:11829   */\n      swap4\n      pop\n        /* \"#utility.yul\":11872:11876   */\n      dup1\n        /* \"#utility.yul\":11862:11870   */\n      dup7\n        /* \"#utility.yul\":11858:11877   */\n      and\n        /* \"#utility.yul\":11851:11856   */\n      dup5\n        /* \"#utility.yul\":11848:11878   */\n      or\n        /* \"#utility.yul\":11838:11878   */\n      swap3\n      pop\n        /* \"#utility.yul\":11567:11884   */\n      pop\n      pop\n        /* \"#utility.yul\":11491:11884   */\n      swap4\n      swap3\n      pop\n      pop\n      pop\n      jump\t// out\n        /* \"#utility.yul\":11890:11950   */\n    tag_87:\n        /* \"#utility.yul\":11918:11921   */\n      0x00\n        /* \"#utility.yul\":11939:11944   */\n      dup2\n        /* \"#utility.yul\":11932:11944   */\n      swap1\n      pop\n        /* \"#utility.yul\":11890:11950   */\n      swap2\n      swap1\n      pop\n      jump\t// out\n        /* \"#utility.yul\":11956:12098   */\n    tag_88:\n        /* \"#utility.yul\":12006:12015   */\n      0x00\n        /* \"#utility.yul\":12039:12092   */\n      tag_214\n        /* \"#utility.yul\":12057:12091   */\n      tag_215\n        /* \"#utility.yul\":12066:12090   */\n      tag_216\n        /* \"#utility.yul\":12084:12089   */\n      dup5\n        /* \"#utility.yul\":12066:12090   */\n      tag_58\n      jump\t// in\n    tag_216:\n        /* \"#utility.yul\":12057:12091   */\n      tag_87\n      jump\t// in\n    tag_215:\n        /* \"#utility.yul\":12039:12092   */\n      tag_58\n      jump\t// in\n    tag_214:\n        /* \"#utility.yul\":12026:12092   */\n      swap1\n      pop\n        /* \"#utility.yul\":11956:12098   */\n      swap2\n      swap1\n      pop\n      jump\t// out\n        /* \"#utility.yul\":12104:12179   */\n    tag_89:\n        /* \"#utility.yul\":12147:12150   */\n      0x00\n        /* \"#utility.yul\":12168:12173   */\n      dup2\n        /* \"#utility.yul\":12161:12173   */\n      swap1\n      pop\n        /* \"#utility.yul\":12104:12179   */\n      swap2\n      swap1\n      pop\n      jump\t// out\n        /* \"#utility.yul\":12185:12454   */\n    tag_90:\n        /* \"#utility.yul\":12295:12334   */\n      tag_219\n        /* \"#utility.yul\":12326:12333   */\n      dup4\n        /* \"#utility.yul\":12295:12334   */\n      tag_88\n      jump\t// in\n    tag_219:\n        /* \"#utility.yul\":12356:12447   */\n      tag_220\n        /* \"#utility.yul\":12405:12446   */\n      tag_221\n        /* \"#utility.yul\":12429:12445   */\n      dup3\n        /* \"#utility.yul\":12405:12446   */\n      tag_89\n      jump\t// in\n    tag_221:\n        /* \"#utility.yul\":12397:12403   */\n      dup5\n        /* \"#utility.yul\":12390:12394   */\n      dup5\n        /* \"#utility.yul\":12384:12395   */\n      sload\n        /* \"#utility.yul\":12356:12447   */\n      tag_86\n      jump\t// in\n    tag_220:\n        /* \"#utility.yul\":12350:12354   */\n      dup3\n        /* \"#utility.yul\":12343:12448   */\n      sstore\n        /* \"#utility.yul\":12261:12454   */\n      pop\n        /* \"#utility.yul\":12185:12454   */\n      pop\n      pop\n      pop\n      jump\t// out\n        /* \"#utility.yul\":12460:12533   */\n    tag_91:\n        /* \"#utility.yul\":12505:12508   */\n      0x00\n        /* \"#utility.yul\":12460:12533   */\n      swap1\n      jump\t// out\n        /* \"#utility.yul\":12539:12728   */\n    tag_92:\n        /* \"#utility.yul\":12616:12648   */\n      tag_224\n      tag_91\n      jump\t// in\n    tag_224:\n        /* \"#utility.yul\":12657:12722   */\n      tag_225\n        /* \"#utility.yul\":12715:12721   */\n      dup2\n        /* \"#utility.yul\":12707:12713   */\n      dup5\n        /* \"#utility.yul\":12701:12705   */\n      dup5\n        /* \"#utility.yul\":12657:12722   */\n      tag_90\n      jump\t// in\n    tag_225:\n        /* \"#utility.yul\":12592:12728   */\n      pop\n        /* \"#utility.yul\":12539:12728   */\n      pop\n      pop\n      jump\t// out\n        /* \"#utility.yul\":12734:12920   */\n    tag_93:\n        /* \"#utility.yul\":12794:12914   */\n    tag_227:\n        /* \"#utility.yul\":12811:12814   */\n      dup2\n        /* \"#utility.yul\":12804:12809   */\n      dup2\n        /* \"#utility.yul\":12801:12815   */\n      lt\n        /* \"#utility.yul\":12794:12914   */\n      iszero\n      tag_229\n      jumpi\n        /* \"#utility.yul\":12865:12904   */\n      tag_230\n        /* \"#utility.yul\":12902:12903   */\n      0x00\n        /* \"#utility.yul\":12895:12900   */\n      dup3\n        /* \"#utility.yul\":12865:12904   */\n      tag_92\n      jump\t// in\n    tag_230:\n        /* \"#utility.yul\":12838:12839   */\n      0x01\n        /* \"#utility.yul\":12831:12836   */\n      dup2\n        /* \"#utility.yul\":12827:12840   */\n      add\n        /* \"#utility.yul\":12818:12840   */\n      swap1\n      pop\n        /* \"#utility.yul\":12794:12914   */\n      jump(tag_227)\n    tag_229:\n        /* \"#utility.yul\":12734:12920   */\n      pop\n      pop\n      jump\t// out\n        /* \"#utility.yul\":12926:13469   */\n    tag_94:\n        /* \"#utility.yul\":13027:13029   */\n      0x1f\n        /* \"#utility.yul\":13022:13025   */\n      dup3\n        /* \"#utility.yul\":13019:13030   */\n      gt\n        /* \"#utility.yul\":13016:13462   */\n      iszero\n      tag_232\n      jumpi\n        /* \"#utility.yul\":13061:13099   */\n      tag_233\n        /* \"#utility.yul\":13093:13098   */\n      dup2\n        /* \"#utility.yul\":13061:13099   */\n      tag_83\n      jump\t// in\n    tag_233:\n        /* \"#utility.yul\":13145:13174   */\n      tag_234\n        /* \"#utility.yul\":13163:13173   */\n      dup5\n        /* \"#utility.yul\":13145:13174   */\n      tag_84\n      jump\t// in\n    tag_234:\n        /* \"#utility.yul\":13135:13143   */\n      dup2\n        /* \"#utility.yul\":13131:13175   */\n      add\n        /* \"#utility.yul\":13328:13330   */\n      0x20\n        /* \"#utility.yul\":13316:13326   */\n      dup6\n        /* \"#utility.yul\":13313:13331   */\n      lt\n        /* \"#utility.yul\":13310:13359   */\n      iszero\n      tag_235\n      jumpi\n        /* \"#utility.yul\":13349:13357   */\n      dup2\n        /* \"#utility.yul\":13334:13357   */\n      swap1\n      pop\n        /* \"#utility.yul\":13310:13359   */\n    tag_235:\n        /* \"#utility.yul\":13372:13452   */\n      tag_236\n        /* \"#utility.yul\":13428:13450   */\n      tag_237\n        /* \"#utility.yul\":13446:13449   */\n      dup6\n        /* \"#utility.yul\":13428:13450   */\n      tag_84\n      jump\t// in\n    tag_237:\n        /* \"#utility.yul\":13418:13426   */\n      dup4\n        /* \"#utility.yul\":13414:13451   */\n      add\n        /* \"#utility.yul\":13401:13412   */\n      dup3\n        /* \"#utility.yul\":13372:13452   */\n      tag_93\n      jump\t// in\n    tag_236:\n        /* \"#utility.yul\":13031:13462   */\n      pop\n      pop\n        /* \"#utility.yul\":13016:13462   */\n    tag_232:\n        /* \"#utility.yul\":12926:13469   */\n      pop\n      pop\n      pop\n      jump\t// out\n        /* \"#utility.yul\":13475:13592   */\n    tag_95:\n        /* \"#utility.yul\":13529:13537   */\n      0x00\n        /* \"#utility.yul\":13579:13584   */\n      dup3\n        /* \"#utility.yul\":13573:13577   */\n      dup3\n        /* \"#utility.yul\":13569:13585   */\n      shr\n        /* \"#utility.yul\":13548:13585   */\n      swap1\n      pop\n        /* \"#utility.yul\":13475:13592   */\n      swap3\n      swap2\n      pop\n      pop\n      jump\t// out\n        /* \"#utility.yul\":13598:13767   */\n    tag_96:\n        /* \"#utility.yul\":13642:13648   */\n      0x00\n        /* \"#utility.yul\":13675:13726   */\n      tag_240\n        /* \"#utility.yul\":13723:13724   */\n      0x00\n        /* \"#utility.yul\":13719:13725   */\n      not\n        /* \"#utility.yul\":13711:13716   */\n      dup5\n        /* \"#utility.yul\":13708:13709   */\n      0x08\n        /* \"#utility.yul\":13704:13717   */\n      mul\n        /* \"#utility.yul\":13675:13726   */\n      tag_95\n      jump\t// in\n    tag_240:\n        /* \"#utility.yul\":13671:13727   */\n      not\n        /* \"#utility.yul\":13756:13760   */\n      dup1\n        /* \"#utility.yul\":13750:13754   */\n      dup4\n        /* \"#utility.yul\":13746:13761   */\n      and\n        /* \"#utility.yul\":13736:13761   */\n      swap2\n      pop\n        /* \"#utility.yul\":13649:13767   */\n      pop\n        /* \"#utility.yul\":13598:13767   */\n      swap3\n      swap2\n      pop\n      pop\n      jump\t// out\n        /* \"#utility.yul\":13772:14067   */\n    tag_97:\n        /* \"#utility.yul\":13848:13852   */\n      0x00\n        /* \"#utility.yul\":13994:14023   */\n      tag_242\n        /* \"#utility.yul\":14019:14022   */\n      dup4\n        /* \"#utility.yul\":14013:14017   */\n      dup4\n        /* \"#utility.yul\":13994:14023   */\n      tag_96\n      jump\t// in\n    tag_242:\n        /* \"#utility.yul\":13986:14023   */\n      swap2\n      pop\n        /* \"#utility.yul\":14056:14059   */\n      dup3\n        /* \"#utility.yul\":14053:14054   */\n      0x02\n        /* \"#utility.yul\":14049:14060   */\n      mul\n        /* \"#utility.yul\":14043:14047   */\n      dup3\n        /* \"#utility.yul\":14040:14061   */\n      or\n        /* \"#utility.yul\":14032:14061   */\n      swap1\n      pop\n        /* \"#utility.yul\":13772:14067   */\n      swap3\n      swap2\n      pop\n      pop\n      jump\t// out\n        /* \"#utility.yul\":14072:15467   */\n    tag_47:\n        /* \"#utility.yul\":14189:14226   */\n      tag_244\n        /* \"#utility.yul\":14222:14225   */\n      dup3\n        /* \"#utility.yul\":14189:14226   */\n      tag_51\n      jump\t// in\n    tag_244:\n        /* \"#utility.yul\":14291:14309   */\n      0xffffffffffffffff\n        /* \"#utility.yul\":14283:14289   */\n      dup2\n        /* \"#utility.yul\":14280:14310   */\n      gt\n        /* \"#utility.yul\":14277:14333   */\n      iszero\n      tag_245\n      jumpi\n        /* \"#utility.yul\":14313:14331   */\n      tag_246\n      tag_72\n      jump\t// in\n    tag_246:\n        /* \"#utility.yul\":14277:14333   */\n    tag_245:\n        /* \"#utility.yul\":14357:14395   */\n      tag_247\n        /* \"#utility.yul\":14389:14393   */\n      dup3\n        /* \"#utility.yul\":14383:14394   */\n      sload\n        /* \"#utility.yul\":14357:14395   */\n      tag_25\n      jump\t// in\n    tag_247:\n        /* \"#utility.yul\":14442:14509   */\n      tag_248\n        /* \"#utility.yul\":14502:14508   */\n      dup3\n        /* \"#utility.yul\":14494:14500   */\n      dup3\n        /* \"#utility.yul\":14488:14492   */\n      dup6\n        /* \"#utility.yul\":14442:14509   */\n      tag_94\n      jump\t// in\n    tag_248:\n        /* \"#utility.yul\":14536:14537   */\n      0x00\n        /* \"#utility.yul\":14560:14564   */\n      0x20\n        /* \"#utility.yul\":14547:14564   */\n      swap1\n      pop\n        /* \"#utility.yul\":14592:14594   */\n      0x1f\n        /* \"#utility.yul\":14584:14590   */\n      dup4\n        /* \"#utility.yul\":14581:14595   */\n      gt\n        /* \"#utility.yul\":14609:14610   */\n      0x01\n        /* \"#utility.yul\":14604:15222   */\n      dup2\n      eq\n      tag_250\n      jumpi\n        /* \"#utility.yul\":15266:15267   */\n      0x00\n        /* \"#utility.yul\":15283:15289   */\n      dup5\n        /* \"#utility.yul\":15280:15357   */\n      iszero\n      tag_251\n      jumpi\n        /* \"#utility.yul\":15332:15341   */\n      dup3\n        /* \"#utility.yul\":15327:15330   */\n      dup8\n        /* \"#utility.yul\":15323:15342   */\n      add\n        /* \"#utility.yul\":15317:15343   */\n      mload\n        /* \"#utility.yul\":15308:15343   */\n      swap1\n      pop\n        /* \"#utility.yul\":15280:15357   */\n    tag_251:\n        /* \"#utility.yul\":15383:15450   */\n      tag_252\n        /* \"#utility.yul\":15443:15449   */\n      dup6\n        /* \"#utility.yul\":15436:15441   */\n      dup3\n        /* \"#utility.yul\":15383:15450   */\n      tag_97\n      jump\t// in\n    tag_252:\n        /* \"#utility.yul\":15377:15381   */\n      dup7\n        /* \"#utility.yul\":15370:15451   */\n      sstore\n        /* \"#utility.yul\":15239:15461   */\n      pop\n        /* \"#utility.yul\":14574:15461   */\n      jump(tag_249)\n        /* \"#utility.yul\":14604:15222   */\n    tag_250:\n        /* \"#utility.yul\":14656:14660   */\n      0x1f\n        /* \"#utility.yul\":14652:14661   */\n      not\n        /* \"#utility.yul\":14644:14650   */\n      dup5\n        /* \"#utility.yul\":14640:14662   */\n      and\n        /* \"#utility.yul\":14690:14727   */\n      tag_253\n        /* \"#utility.yul\":14722:14726   */\n      dup7\n        /* \"#utility.yul\":14690:14727   */\n      tag_83\n      jump\t// in\n    tag_253:\n        /* \"#utility.yul\":14749:14750   */\n      0x00\n        /* \"#utility.yul\":14763:14971   */\n    tag_254:\n        /* \"#utility.yul\":14777:14784   */\n      dup3\n        /* \"#utility.yul\":14774:14775   */\n      dup2\n        /* \"#utility.yul\":14771:14785   */\n      lt\n        /* \"#utility.yul\":14763:14971   */\n      iszero\n      tag_256\n      jumpi\n        /* \"#utility.yul\":14856:14865   */\n      dup5\n        /* \"#utility.yul\":14851:14854   */\n      dup10\n        /* \"#utility.yul\":14847:14866   */\n      add\n        /* \"#utility.yul\":14841:14867   */\n      mload\n        /* \"#utility.yul\":14833:14839   */\n      dup3\n        /* \"#utility.yul\":14826:14868   */\n      sstore\n        /* \"#utility.yul\":14907:14908   */\n      0x01\n        /* \"#utility.yul\":14899:14905   */\n      dup3\n        /* \"#utility.yul\":14895:14909   */\n      add\n        /* \"#utility.yul\":14885:14909   */\n      swap2\n      pop\n        /* \"#utility.yul\":14954:14956   */\n      0x20\n        /* \"#utility.yul\":14943:14952   */\n      dup6\n        /* \"#utility.yul\":14939:14957   */\n      add\n        /* \"#utility.yul\":14926:14957   */\n      swap5\n      pop\n        /* \"#utility.yul\":14800:14804   */\n      0x20\n        /* \"#utility.yul\":14797:14798   */\n      dup2\n        /* \"#utility.yul\":14793:14805   */\n      add\n        /* \"#utility.yul\":14788:14805   */\n      swap1\n      pop\n        /* \"#utility.yul\":14763:14971   */\n      jump(tag_254)\n    tag_256:\n        /* \"#utility.yul\":14999:15005   */\n      dup7\n        /* \"#utility.yul\":14990:14997   */\n      dup4\n        /* \"#utility.yul\":14987:15006   */\n      lt\n        /* \"#utility.yul\":14984:15163   */\n      iszero\n      tag_257\n      jumpi\n        /* \"#utility.yul\":15057:15066   */\n      dup5\n        /* \"#utility.yul\":15052:15055   */\n      dup10\n        /* \"#utility.yul\":15048:15067   */\n      add\n        /* \"#utility.yul\":15042:15068   */\n      mload\n        /* \"#utility.yul\":15100:15148   */\n      tag_258\n        /* \"#utility.yul\":15142:15146   */\n      0x1f\n        /* \"#utility.yul\":15134:15140   */\n      dup10\n        /* \"#utility.yul\":15130:15147   */\n      and\n        /* \"#utility.yul\":15119:15128   */\n      dup3\n        /* \"#utility.yul\":15100:15148   */\n      tag_96\n      jump\t// in\n    tag_258:\n        /* \"#utility.yul\":15092:15098   */\n      dup4\n        /* \"#utility.yul\":15085:15149   */\n      sstore\n        /* \"#utility.yul\":15007:15163   */\n      pop\n        /* \"#utility.yul\":14984:15163   */\n    tag_257:\n        /* \"#utility.yul\":15209:15210   */\n      0x01\n        /* \"#utility.yul\":15205:15206   */\n      0x02\n        /* \"#utility.yul\":15197:15203   */\n      dup9\n        /* \"#utility.yul\":15193:15207   */\n      mul\n        /* \"#utility.yul\":15189:15211   */\n      add\n        /* \"#utility.yul\":15183:15187   */\n      dup9\n        /* \"#utility.yul\":15176:15212   */\n      sstore\n        /* \"#utility.yul\":14611:15222   */\n      pop\n      pop\n      pop\n        /* \"#utility.yul\":14574:15461   */\n    tag_249:\n      pop\n        /* \"#utility.yul\":14164:15467   */\n      pop\n      pop\n      pop\n        /* \"#utility.yul\":14072:15467   */\n      pop\n      pop\n      jump\t// out\n\n    auxdata: 0xa2646970667358221220e9f3bb73e680441846cd4c374c9aa50d59d913c8a131fa67d01bd90f428bac9764736f6c63430008160033\n}\n",
				"bytecode": {
					"linkReferences": {},
					"object": "608060405234801561000f575f80fd5b50610b618061001d5f395ff3fe608060405234801561000f575f80fd5b506004361061003f575f3560e01c806357e61ea414610043578063642f916314610061578063bc84f21314610091575b5f80fd5b61004b6100ad565b6040516100589190610520565b60405180910390f35b61007b6004803603810190610076919061057b565b6101bb565b60405161008891906105f3565b60405180910390f35b6100ab60048036038101906100a69190610769565b6102b3565b005b60605f805480602002602001604051908101604052809291908181526020015f905b828210156101b2578382905f5260205f2090600302016040518060600160405290815f820180546100ff90610802565b80601f016020809104026020016040519081016040528092919081815260200182805461012b90610802565b80156101765780601f1061014d57610100808354040283529160200191610176565b820191905f5260205f20905b81548152906001019060200180831161015957829003601f168201915b50505050508152602001600182015f9054906101000a900460ff16151515158152602001600282015481525050815260200190600101906100cf565b50505050905090565b6101c361033b565b5f6001836101d1919061085f565b815481106101e2576101e1610892565b5b905f5260205f2090600302016040518060600160405290815f8201805461020890610802565b80601f016020809104026020016040519081016040528092919081815260200182805461023490610802565b801561027f5780601f106102565761010080835404028352916020019161027f565b820191905f5260205f20905b81548152906001019060200180831161026257829003601f168201915b50505050508152602001600182015f9054906101000a900460ff161515151581526020016002820154815250509050919050565b5f6040518060600160405280858152602001841515815260200183815250908060018154018082558091505060019003905f5260205f2090600302015f909190919091505f820151815f01908161030a9190610a5c565b506020820151816001015f6101000a81548160ff021916908315150217905550604082015181600201555050505050565b6040518060600160405280606081526020015f151581526020015f81525090565b5f81519050919050565b5f82825260208201905092915050565b5f819050602082019050919050565b5f81519050919050565b5f82825260208201905092915050565b5f5b838110156103bc5780820151818401526020810190506103a1565b5f8484015250505050565b5f601f19601f8301169050919050565b5f6103e182610385565b6103eb818561038f565b93506103fb81856020860161039f565b610404816103c7565b840191505092915050565b5f8115159050919050565b6104238161040f565b82525050565b5f819050919050565b61043b81610429565b82525050565b5f606083015f8301518482035f86015261045b82826103d7565b9150506020830151610470602086018261041a565b5060408301516104836040860182610432565b508091505092915050565b5f6104998383610441565b905092915050565b5f602082019050919050565b5f6104b78261035c565b6104c18185610366565b9350836020820285016104d385610376565b805f5b8581101561050e57848403895281516104ef858261048e565b94506104fa836104a1565b925060208a019950506001810190506104d6565b50829750879550505050505092915050565b5f6020820190508181035f83015261053881846104ad565b905092915050565b5f604051905090565b5f80fd5b5f80fd5b61055a81610429565b8114610564575f80fd5b50565b5f8135905061057581610551565b92915050565b5f602082840312156105905761058f610549565b5b5f61059d84828501610567565b91505092915050565b5f606083015f8301518482035f8601526105c082826103d7565b91505060208301516105d5602086018261041a565b5060408301516105e86040860182610432565b508091505092915050565b5f6020820190508181035f83015261060b81846105a6565b905092915050565b5f80fd5b5f80fd5b7f4e487b71000000000000000000000000000000000000000000000000000000005f52604160045260245ffd5b610651826103c7565b810181811067ffffffffffffffff821117156106705761066f61061b565b5b80604052505050565b5f610682610540565b905061068e8282610648565b919050565b5f67ffffffffffffffff8211156106ad576106ac61061b565b5b6106b6826103c7565b9050602081019050919050565b828183375f83830152505050565b5f6106e36106de84610693565b610679565b9050828152602081018484840111156106ff576106fe610617565b5b61070a8482856106c3565b509392505050565b5f82601f83011261072657610725610613565b5b81356107368482602086016106d1565b91505092915050565b6107488161040f565b8114610752575f80fd5b50565b5f813590506107638161073f565b92915050565b5f805f606084860312156107805761077f610549565b5b5f84013567ffffffffffffffff81111561079d5761079c61054d565b5b6107a986828701610712565b93505060206107ba86828701610755565b92505060406107cb86828701610567565b9150509250925092565b7f4e487b71000000000000000000000000000000000000000000000000000000005f52602260045260245ffd5b5f600282049050600182168061081957607f821691505b60208210810361082c5761082b6107d5565b5b50919050565b7f4e487b71000000000000000000000000000000000000000000000000000000005f52601160045260245ffd5b5f61086982610429565b915061087483610429565b925082820390508181111561088c5761088b610832565b5b92915050565b7f4e487b71000000000000000000000000000000000000000000000000000000005f52603260045260245ffd5b5f819050815f5260205f209050919050565b5f6020601f8301049050919050565b5f82821b905092915050565b5f6008830261091b7fffffffffffffffffffffffffffffffffffffffffffffffffffffffffffffffff826108e0565b61092586836108e0565b95508019841693508086168417925050509392505050565b5f819050919050565b5f61096061095b61095684610429565b61093d565b610429565b9050919050565b5f819050919050565b61097983610946565b61098d61098582610967565b8484546108ec565b825550505050565b5f90565b6109a1610995565b6109ac818484610970565b505050565b5b818110156109cf576109c45f82610999565b6001810190506109b2565b5050565b601f821115610a14576109e5816108bf565b6109ee846108d1565b810160208510156109fd578190505b610a11610a09856108d1565b8301826109b1565b50505b505050565b5f82821c905092915050565b5f610a345f1984600802610a19565b1980831691505092915050565b5f610a4c8383610a25565b9150826002028217905092915050565b610a6582610385565b67ffffffffffffffff811115610a7e57610a7d61061b565b5b610a888254610802565b610a938282856109d3565b5f60209050601f831160018114610ac4575f8415610ab2578287015190505b610abc8582610a41565b865550610b23565b601f198416610ad2866108bf565b5f5b82811015610af957848901518255600182019150602085019450602081019050610ad4565b86831015610b165784890151610b12601f891682610a25565b8355505b6001600288020188555050505b50505050505056fea2646970667358221220e9f3bb73e680441846cd4c374c9aa50d59d913c8a131fa67d01bd90f428bac9764736f6c63430008160033",
					"opcodes": "PUSH1 0x80 PUSH1 0x40 MSTORE CALLVALUE DUP1 ISZERO PUSH2 0xF JUMPI PUSH0 DUP1 REVERT JUMPDEST POP PUSH2 0xB61 DUP1 PUSH2 0x1D PUSH0 CODECOPY PUSH0 RETURN INVALID PUSH1 0x80 PUSH1 0x40 MSTORE CALLVALUE DUP1 ISZERO PUSH2 0xF JUMPI PUSH0 DUP1 REVERT JUMPDEST POP PUSH1 0x4 CALLDATASIZE LT PUSH2 0x3F JUMPI PUSH0 CALLDATALOAD PUSH1 0xE0 SHR DUP1 PUSH4 0x57E61EA4 EQ PUSH2 0x43 JUMPI DUP1 PUSH4 0x642F9163 EQ PUSH2 0x61 JUMPI DUP1 PUSH4 0xBC84F213 EQ PUSH2 0x91 JUMPI JUMPDEST PUSH0 DUP1 REVERT JUMPDEST PUSH2 0x4B PUSH2 0xAD JUMP JUMPDEST PUSH1 0x40 MLOAD PUSH2 0x58 SWAP2 SWAP1 PUSH2 0x520 JUMP JUMPDEST PUSH1 0x40 MLOAD DUP1 SWAP2 SUB SWAP1 RETURN JUMPDEST PUSH2 0x7B PUSH1 0x4 DUP1 CALLDATASIZE SUB DUP2 ADD SWAP1 PUSH2 0x76 SWAP2 SWAP1 PUSH2 0x57B JUMP JUMPDEST PUSH2 0x1BB JUMP JUMPDEST PUSH1 0x40 MLOAD PUSH2 0x88 SWAP2 SWAP1 PUSH2 0x5F3 JUMP JUMPDEST PUSH1 0x40 MLOAD DUP1 SWAP2 SUB SWAP1 RETURN JUMPDEST PUSH2 0xAB PUSH1 0x4 DUP1 CALLDATASIZE SUB DUP2 ADD SWAP1 PUSH2 0xA6 SWAP2 SWAP1 PUSH2 0x769 JUMP JUMPDEST PUSH2 0x2B3 JUMP JUMPDEST STOP JUMPDEST PUSH1 0x60 PUSH0 DUP1 SLOAD DUP1 PUSH1 0x20 MUL PUSH1 0x20 ADD PUSH1 0x40 MLOAD SWAP1 DUP2 ADD PUSH1 0x40 MSTORE DUP1 SWAP3 SWAP2 SWAP1 DUP2 DUP2 MSTORE PUSH1 0x20 ADD PUSH0 SWAP1 JUMPDEST DUP3 DUP3 LT ISZERO PUSH2 0x1B2 JUMPI DUP4 DUP3 SWAP1 PUSH0 MSTORE PUSH1 0x20 PUSH0 KECCAK256 SWAP1 PUSH1 0x3 MUL ADD PUSH1 0x40 MLOAD DUP1 PUSH1 0x60 ADD PUSH1 0x40 MSTORE SWAP1 DUP2 PUSH0 DUP3 ADD DUP1 SLOAD PUSH2 0xFF SWAP1 PUSH2 0x802 JUMP JUMPDEST DUP1 PUSH1 0x1F ADD PUSH1 0x20 DUP1 SWAP2 DIV MUL PUSH1 0x20 ADD PUSH1 0x40 MLOAD SWAP1 DUP2 ADD PUSH1 0x40 MSTORE DUP1 SWAP3 SWAP2 SWAP1 DUP2 DUP2 MSTORE PUSH1 0x20 ADD DUP3 DUP1 SLOAD PUSH2 0x12B SWAP1 PUSH2 0x802 JUMP JUMPDEST DUP1 ISZERO PUSH2 0x176 JUMPI DUP1 PUSH1 0x1F LT PUSH2 0x14D JUMPI PUSH2 0x100 DUP1 DUP4 SLOAD DIV MUL DUP4 MSTORE SWAP2 PUSH1 0x20 ADD SWAP2 PUSH2 0x176 JUMP JUMPDEST DUP3 ADD SWAP2 SWAP1 PUSH0 MSTORE PUSH1 0x20 PUSH0 KECCAK256 SWAP1 JUMPDEST DUP2 SLOAD DUP2 MSTORE SWAP1 PUSH1 0x1 ADD SWAP1 PUSH1 0x20 ADD DUP1 DUP4 GT PUSH2 0x159 JUMPI DUP3 SWAP1 SUB PUSH1 0x1F AND DUP3 ADD SWAP2 JUMPDEST POP POP POP POP POP DUP2 MSTORE PUSH1 0x20 ADD PUSH1 0x1 DUP3 ADD PUSH0 SWAP1 SLOAD SWAP1 PUSH2 0x100 EXP SWAP1 DIV PUSH1 0xFF AND ISZERO ISZERO ISZERO ISZERO DUP2 MSTORE PUSH1 0x20 ADD PUSH1 0x2 DUP3 ADD SLOAD DUP2 MSTORE POP POP DUP2 MSTORE PUSH1 0x20 ADD SWAP1 PUSH1 0x1 ADD SWAP1 PUSH2 0xCF JUMP JUMPDEST POP POP POP POP SWAP1 POP SWAP1 JUMP JUMPDEST PUSH2 0x1C3 PUSH2 0x33B JUMP JUMPDEST PUSH0 PUSH1 0x1 DUP4 PUSH2 0x1D1 SWAP2 SWAP1 PUSH2 0x85F JUMP JUMPDEST DUP2 SLOAD DUP2 LT PUSH2 0x1E2 JUMPI PUSH2 0x1E1 PUSH2 0x892 JUMP JUMPDEST JUMPDEST SWAP1 PUSH0 MSTORE PUSH1 0x20 PUSH0 KECCAK256 SWAP1 PUSH1 0x3 MUL ADD PUSH1 0x40 MLOAD DUP1 PUSH1 0x60 ADD PUSH1 0x40 MSTORE SWAP1 DUP2 PUSH0 DUP3 ADD DUP1 SLOAD PUSH2 0x208 SWAP1 PUSH2 0x802 JUMP JUMPDEST DUP1 PUSH1 0x1F ADD PUSH1 0x20 DUP1 SWAP2 DIV MUL PUSH1 0x20 ADD PUSH1 0x40 MLOAD SWAP1 DUP2 ADD PUSH1 0x40 MSTORE DUP1 SWAP3 SWAP2 SWAP1 DUP2 DUP2 MSTORE PUSH1 0x20 ADD DUP3 DUP1 SLOAD PUSH2 0x234 SWAP1 PUSH2 0x802 JUMP JUMPDEST DUP1 ISZERO PUSH2 0x27F JUMPI DUP1 PUSH1 0x1F LT PUSH2 0x256 JUMPI PUSH2 0x100 DUP1 DUP4 SLOAD DIV MUL DUP4 MSTORE SWAP2 PUSH1 0x20 ADD SWAP2 PUSH2 0x27F JUMP JUMPDEST DUP3 ADD SWAP2 SWAP1 PUSH0 MSTORE PUSH1 0x20 PUSH0 KECCAK256 SWAP1 JUMPDEST DUP2 SLOAD DUP2 MSTORE SWAP1 PUSH1 0x1 ADD SWAP1 PUSH1 0x20 ADD DUP1 DUP4 GT PUSH2 0x262 JUMPI DUP3 SWAP1 SUB PUSH1 0x1F AND DUP3 ADD SWAP2 JUMPDEST POP POP POP POP POP DUP2 MSTORE PUSH1 0x20 ADD PUSH1 0x1 DUP3 ADD PUSH0 SWAP1 SLOAD SWAP1 PUSH2 0x100 EXP SWAP1 DIV PUSH1 0xFF AND ISZERO ISZERO ISZERO ISZERO DUP2 MSTORE PUSH1 0x20 ADD PUSH1 0x2 DUP3 ADD SLOAD DUP2 MSTORE POP POP SWAP1 POP SWAP2 SWAP1 POP JUMP JUMPDEST PUSH0 PUSH1 0x40 MLOAD DUP1 PUSH1 0x60 ADD PUSH1 0x40 MSTORE DUP1 DUP6 DUP2 MSTORE PUSH1 0x20 ADD DUP5 ISZERO ISZERO DUP2 MSTORE PUSH1 0x20 ADD DUP4 DUP2 MSTORE POP SWAP1 DUP1 PUSH1 0x1 DUP2 SLOAD ADD DUP1 DUP3 SSTORE DUP1 SWAP2 POP POP PUSH1 0x1 SWAP1 SUB SWAP1 PUSH0 MSTORE PUSH1 0x20 PUSH0 KECCAK256 SWAP1 PUSH1 0x3 MUL ADD PUSH0 SWAP1 SWAP2 SWAP1 SWAP2 SWAP1 SWAP2 POP PUSH0 DUP3 ADD MLOAD DUP2 PUSH0 ADD SWAP1 DUP2 PUSH2 0x30A SWAP2 SWAP1 PUSH2 0xA5C JUMP JUMPDEST POP PUSH1 0x20 DUP3 ADD MLOAD DUP2 PUSH1 0x1 ADD PUSH0 PUSH2 0x100 EXP DUP2 SLOAD DUP2 PUSH1 0xFF MUL NOT AND SWAP1 DUP4 ISZERO ISZERO MUL OR SWAP1 SSTORE POP PUSH1 0x40 DUP3 ADD MLOAD DUP2 PUSH1 0x2 ADD SSTORE POP POP POP POP POP JUMP JUMPDEST PUSH1 0x40 MLOAD DUP1 PUSH1 0x60 ADD PUSH1 0x40 MSTORE DUP1 PUSH1 0x60 DUP2 MSTORE PUSH1 0x20 ADD PUSH0 ISZERO ISZERO DUP2 MSTORE PUSH1 0x20 ADD PUSH0 DUP2 MSTORE POP SWAP1 JUMP JUMPDEST PUSH0 DUP2 MLOAD SWAP1 POP SWAP2 SWAP1 POP JUMP JUMPDEST PUSH0 DUP3 DUP3 MSTORE PUSH1 0x20 DUP3 ADD SWAP1 POP SWAP3 SWAP2 POP POP JUMP JUMPDEST PUSH0 DUP2 SWAP1 POP PUSH1 0x20 DUP3 ADD SWAP1 POP SWAP2 SWAP1 POP JUMP JUMPDEST PUSH0 DUP2 MLOAD SWAP1 POP SWAP2 SWAP1 POP JUMP JUMPDEST PUSH0 DUP3 DUP3 MSTORE PUSH1 0x20 DUP3 ADD SWAP1 POP SWAP3 SWAP2 POP POP JUMP JUMPDEST PUSH0 JUMPDEST DUP4 DUP2 LT ISZERO PUSH2 0x3BC JUMPI DUP1 DUP3 ADD MLOAD DUP2 DUP5 ADD MSTORE PUSH1 0x20 DUP2 ADD SWAP1 POP PUSH2 0x3A1 JUMP JUMPDEST PUSH0 DUP5 DUP5 ADD MSTORE POP POP POP POP JUMP JUMPDEST PUSH0 PUSH1 0x1F NOT PUSH1 0x1F DUP4 ADD AND SWAP1 POP SWAP2 SWAP1 POP JUMP JUMPDEST PUSH0 PUSH2 0x3E1 DUP3 PUSH2 0x385 JUMP JUMPDEST PUSH2 0x3EB DUP2 DUP6 PUSH2 0x38F JUMP JUMPDEST SWAP4 POP PUSH2 0x3FB DUP2 DUP6 PUSH1 0x20 DUP7 ADD PUSH2 0x39F JUMP JUMPDEST PUSH2 0x404 DUP2 PUSH2 0x3C7 JUMP JUMPDEST DUP5 ADD SWAP2 POP POP SWAP3 SWAP2 POP POP JUMP JUMPDEST PUSH0 DUP2 ISZERO ISZERO SWAP1 POP SWAP2 SWAP1 POP JUMP JUMPDEST PUSH2 0x423 DUP2 PUSH2 0x40F JUMP JUMPDEST DUP3 MSTORE POP POP JUMP JUMPDEST PUSH0 DUP2 SWAP1 POP SWAP2 SWAP1 POP JUMP JUMPDEST PUSH2 0x43B DUP2 PUSH2 0x429 JUMP JUMPDEST DUP3 MSTORE POP POP JUMP JUMPDEST PUSH0 PUSH1 0x60 DUP4 ADD PUSH0 DUP4 ADD MLOAD DUP5 DUP3 SUB PUSH0 DUP7 ADD MSTORE PUSH2 0x45B DUP3 DUP3 PUSH2 0x3D7 JUMP JUMPDEST SWAP2 POP POP PUSH1 0x20 DUP4 ADD MLOAD PUSH2 0x470 PUSH1 0x20 DUP7 ADD DUP3 PUSH2 0x41A JUMP JUMPDEST POP PUSH1 0x40 DUP4 ADD MLOAD PUSH2 0x483 PUSH1 0x40 DUP7 ADD DUP3 PUSH2 0x432 JUMP JUMPDEST POP DUP1 SWAP2 POP POP SWAP3 SWAP2 POP POP JUMP JUMPDEST PUSH0 PUSH2 0x499 DUP4 DUP4 PUSH2 0x441 JUMP JUMPDEST SWAP1 POP SWAP3 SWAP2 POP POP JUMP JUMPDEST PUSH0 PUSH1 0x20 DUP3 ADD SWAP1 POP SWAP2 SWAP1 POP JUMP JUMPDEST PUSH0 PUSH2 0x4B7 DUP3 PUSH2 0x35C JUMP JUMPDEST PUSH2 0x4C1 DUP2 DUP6 PUSH2 0x366 JUMP JUMPDEST SWAP4 POP DUP4 PUSH1 0x20 DUP3 MUL DUP6 ADD PUSH2 0x4D3 DUP6 PUSH2 0x376 JUMP JUMPDEST DUP1 PUSH0 JUMPDEST DUP6 DUP2 LT ISZERO PUSH2 0x50E JUMPI DUP5 DUP5 SUB DUP10 MSTORE DUP2 MLOAD PUSH2 0x4EF DUP6 DUP3 PUSH2 0x48E JUMP JUMPDEST SWAP5 POP PUSH2 0x4FA DUP4 PUSH2 0x4A1 JUMP JUMPDEST SWAP3 POP PUSH1 0x20 DUP11 ADD SWAP10 POP POP PUSH1 0x1 DUP2 ADD SWAP1 POP PUSH2 0x4D6 JUMP JUMPDEST POP DUP3 SWAP8 POP DUP8 SWAP6 POP POP POP POP POP POP SWAP3 SWAP2 POP POP JUMP JUMPDEST PUSH0 PUSH1 0x20 DUP3 ADD SWAP1 POP DUP2 DUP2 SUB PUSH0 DUP4 ADD MSTORE PUSH2 0x538 DUP2 DUP5 PUSH2 0x4AD JUMP JUMPDEST SWAP1 POP SWAP3 SWAP2 POP POP JUMP JUMPDEST PUSH0 PUSH1 0x40 MLOAD SWAP1 POP SWAP1 JUMP JUMPDEST PUSH0 DUP1 REVERT JUMPDEST PUSH0 DUP1 REVERT JUMPDEST PUSH2 0x55A DUP2 PUSH2 0x429 JUMP JUMPDEST DUP2 EQ PUSH2 0x564 JUMPI PUSH0 DUP1 REVERT JUMPDEST POP JUMP JUMPDEST PUSH0 DUP2 CALLDATALOAD SWAP1 POP PUSH2 0x575 DUP2 PUSH2 0x551 JUMP JUMPDEST SWAP3 SWAP2 POP POP JUMP JUMPDEST PUSH0 PUSH1 0x20 DUP3 DUP5 SUB SLT ISZERO PUSH2 0x590 JUMPI PUSH2 0x58F PUSH2 0x549 JUMP JUMPDEST JUMPDEST PUSH0 PUSH2 0x59D DUP5 DUP3 DUP6 ADD PUSH2 0x567 JUMP JUMPDEST SWAP2 POP POP SWAP3 SWAP2 POP POP JUMP JUMPDEST PUSH0 PUSH1 0x60 DUP4 ADD PUSH0 DUP4 ADD MLOAD DUP5 DUP3 SUB PUSH0 DUP7 ADD MSTORE PUSH2 0x5C0 DUP3 DUP3 PUSH2 0x3D7 JUMP JUMPDEST SWAP2 POP POP PUSH1 0x20 DUP4 ADD MLOAD PUSH2 0x5D5 PUSH1 0x20 DUP7 ADD DUP3 PUSH2 0x41A JUMP JUMPDEST POP PUSH1 0x40 DUP4 ADD MLOAD PUSH2 0x5E8 PUSH1 0x40 DUP7 ADD DUP3 PUSH2 0x432 JUMP JUMPDEST POP DUP1 SWAP2 POP POP SWAP3 SWAP2 POP POP JUMP JUMPDEST PUSH0 PUSH1 0x20 DUP3 ADD SWAP1 POP DUP2 DUP2 SUB PUSH0 DUP4 ADD MSTORE PUSH2 0x60B DUP2 DUP5 PUSH2 0x5A6 JUMP JUMPDEST SWAP1 POP SWAP3 SWAP2 POP POP JUMP JUMPDEST PUSH0 DUP1 REVERT JUMPDEST PUSH0 DUP1 REVERT JUMPDEST PUSH32 0x4E487B7100000000000000000000000000000000000000000000000000000000 PUSH0 MSTORE PUSH1 0x41 PUSH1 0x4 MSTORE PUSH1 0x24 PUSH0 REVERT JUMPDEST PUSH2 0x651 DUP3 PUSH2 0x3C7 JUMP JUMPDEST DUP2 ADD DUP2 DUP2 LT PUSH8 0xFFFFFFFFFFFFFFFF DUP3 GT OR ISZERO PUSH2 0x670 JUMPI PUSH2 0x66F PUSH2 0x61B JUMP JUMPDEST JUMPDEST DUP1 PUSH1 0x40 MSTORE POP POP POP JUMP JUMPDEST PUSH0 PUSH2 0x682 PUSH2 0x540 JUMP JUMPDEST SWAP1 POP PUSH2 0x68E DUP3 DUP3 PUSH2 0x648 JUMP JUMPDEST SWAP2 SWAP1 POP JUMP JUMPDEST PUSH0 PUSH8 0xFFFFFFFFFFFFFFFF DUP3 GT ISZERO PUSH2 0x6AD JUMPI PUSH2 0x6AC PUSH2 0x61B JUMP JUMPDEST JUMPDEST PUSH2 0x6B6 DUP3 PUSH2 0x3C7 JUMP JUMPDEST SWAP1 POP PUSH1 0x20 DUP2 ADD SWAP1 POP SWAP2 SWAP1 POP JUMP JUMPDEST DUP3 DUP2 DUP4 CALLDATACOPY PUSH0 DUP4 DUP4 ADD MSTORE POP POP POP JUMP JUMPDEST PUSH0 PUSH2 0x6E3 PUSH2 0x6DE DUP5 PUSH2 0x693 JUMP JUMPDEST PUSH2 0x679 JUMP JUMPDEST SWAP1 POP DUP3 DUP2 MSTORE PUSH1 0x20 DUP2 ADD DUP5 DUP5 DUP5 ADD GT ISZERO PUSH2 0x6FF JUMPI PUSH2 0x6FE PUSH2 0x617 JUMP JUMPDEST JUMPDEST PUSH2 0x70A DUP5 DUP3 DUP6 PUSH2 0x6C3 JUMP JUMPDEST POP SWAP4 SWAP3 POP POP POP JUMP JUMPDEST PUSH0 DUP3 PUSH1 0x1F DUP4 ADD SLT PUSH2 0x726 JUMPI PUSH2 0x725 PUSH2 0x613 JUMP JUMPDEST JUMPDEST DUP2 CALLDATALOAD PUSH2 0x736 DUP5 DUP3 PUSH1 0x20 DUP7 ADD PUSH2 0x6D1 JUMP JUMPDEST SWAP2 POP POP SWAP3 SWAP2 POP POP JUMP JUMPDEST PUSH2 0x748 DUP2 PUSH2 0x40F JUMP JUMPDEST DUP2 EQ PUSH2 0x752 JUMPI PUSH0 DUP1 REVERT JUMPDEST POP JUMP JUMPDEST PUSH0 DUP2 CALLDATALOAD SWAP1 POP PUSH2 0x763 DUP2 PUSH2 0x73F JUMP JUMPDEST SWAP3 SWAP2 POP POP JUMP JUMPDEST PUSH0 DUP1 PUSH0 PUSH1 0x60 DUP5 DUP7 SUB SLT ISZERO PUSH2 0x780 JUMPI PUSH2 0x77F PUSH2 0x549 JUMP JUMPDEST JUMPDEST PUSH0 DUP5 ADD CALLDATALOAD PUSH8 0xFFFFFFFFFFFFFFFF DUP2 GT ISZERO PUSH2 0x79D JUMPI PUSH2 0x79C PUSH2 0x54D JUMP JUMPDEST JUMPDEST PUSH2 0x7A9 DUP7 DUP3 DUP8 ADD PUSH2 0x712 JUMP JUMPDEST SWAP4 POP POP PUSH1 0x20 PUSH2 0x7BA DUP7 DUP3 DUP8 ADD PUSH2 0x755 JUMP JUMPDEST SWAP3 POP POP PUSH1 0x40 PUSH2 0x7CB DUP7 DUP3 DUP8 ADD PUSH2 0x567 JUMP JUMPDEST SWAP2 POP POP SWAP3 POP SWAP3 POP SWAP3 JUMP JUMPDEST PUSH32 0x4E487B7100000000000000000000000000000000000000000000000000000000 PUSH0 MSTORE PUSH1 0x22 PUSH1 0x4 MSTORE PUSH1 0x24 PUSH0 REVERT JUMPDEST PUSH0 PUSH1 0x2 DUP3 DIV SWAP1 POP PUSH1 0x1 DUP3 AND DUP1 PUSH2 0x819 JUMPI PUSH1 0x7F DUP3 AND SWAP2 POP JUMPDEST PUSH1 0x20 DUP3 LT DUP2 SUB PUSH2 0x82C JUMPI PUSH2 0x82B PUSH2 0x7D5 JUMP JUMPDEST JUMPDEST POP SWAP2 SWAP1 POP JUMP JUMPDEST PUSH32 0x4E487B7100000000000000000000000000000000000000000000000000000000 PUSH0 MSTORE PUSH1 0x11 PUSH1 0x4 MSTORE PUSH1 0x24 PUSH0 REVERT JUMPDEST PUSH0 PUSH2 0x869 DUP3 PUSH2 0x429 JUMP JUMPDEST SWAP2 POP PUSH2 0x874 DUP4 PUSH2 0x429 JUMP JUMPDEST SWAP3 POP DUP3 DUP3 SUB SWAP1 POP DUP2 DUP2 GT ISZERO PUSH2 0x88C JUMPI PUSH2 0x88B PUSH2 0x832 JUMP JUMPDEST JUMPDEST SWAP3 SWAP2 POP POP JUMP JUMPDEST PUSH32 0x4E487B7100000000000000000000000000000000000000000000000000000000 PUSH0 MSTORE PUSH1 0x32 PUSH1 0x4 MSTORE PUSH1 0x24 PUSH0 REVERT JUMPDEST PUSH0 DUP2 SWAP1 POP DUP2 PUSH0 MSTORE PUSH1 0x20 PUSH0 KECCAK256 SWAP1 POP SWAP2 SWAP1 POP JUMP JUMPDEST PUSH0 PUSH1 0x20 PUSH1 0x1F DUP4 ADD DIV SWAP1 POP SWAP2 SWAP1 POP JUMP JUMPDEST PUSH0 DUP3 DUP3 SHL SWAP1 POP SWAP3 SWAP2 POP POP JUMP JUMPDEST PUSH0 PUSH1 0x8 DUP4 MUL PUSH2 0x91B PUSH32 0xFFFFFFFFFFFFFFFFFFFFFFFFFFFFFFFFFFFFFFFFFFFFFFFFFFFFFFFFFFFFFFFF DUP3 PUSH2 0x8E0 JUMP JUMPDEST PUSH2 0x925 DUP7 DUP4 PUSH2 0x8E0 JUMP JUMPDEST SWAP6 POP DUP1 NOT DUP5 AND SWAP4 POP DUP1 DUP7 AND DUP5 OR SWAP3 POP POP POP SWAP4 SWAP3 POP POP POP JUMP JUMPDEST PUSH0 DUP2 SWAP1 POP SWAP2 SWAP1 POP JUMP JUMPDEST PUSH0 PUSH2 0x960 PUSH2 0x95B PUSH2 0x956 DUP5 PUSH2 0x429 JUMP JUMPDEST PUSH2 0x93D JUMP JUMPDEST PUSH2 0x429 JUMP JUMPDEST SWAP1 POP SWAP2 SWAP1 POP JUMP JUMPDEST PUSH0 DUP2 SWAP1 POP SWAP2 SWAP1 POP JUMP JUMPDEST PUSH2 0x979 DUP4 PUSH2 0x946 JUMP JUMPDEST PUSH2 0x98D PUSH2 0x985 DUP3 PUSH2 0x967 JUMP JUMPDEST DUP5 DUP5 SLOAD PUSH2 0x8EC JUMP JUMPDEST DUP3 SSTORE POP POP POP POP JUMP JUMPDEST PUSH0 SWAP1 JUMP JUMPDEST PUSH2 0x9A1 PUSH2 0x995 JUMP JUMPDEST PUSH2 0x9AC DUP2 DUP5 DUP5 PUSH2 0x970 JUMP JUMPDEST POP POP POP JUMP JUMPDEST JUMPDEST DUP2 DUP2 LT ISZERO PUSH2 0x9CF JUMPI PUSH2 0x9C4 PUSH0 DUP3 PUSH2 0x999 JUMP JUMPDEST PUSH1 0x1 DUP2 ADD SWAP1 POP PUSH2 0x9B2 JUMP JUMPDEST POP POP JUMP JUMPDEST PUSH1 0x1F DUP3 GT ISZERO PUSH2 0xA14 JUMPI PUSH2 0x9E5 DUP2 PUSH2 0x8BF JUMP JUMPDEST PUSH2 0x9EE DUP5 PUSH2 0x8D1 JUMP JUMPDEST DUP2 ADD PUSH1 0x20 DUP6 LT ISZERO PUSH2 0x9FD JUMPI DUP2 SWAP1 POP JUMPDEST PUSH2 0xA11 PUSH2 0xA09 DUP6 PUSH2 0x8D1 JUMP JUMPDEST DUP4 ADD DUP3 PUSH2 0x9B1 JUMP JUMPDEST POP POP JUMPDEST POP POP POP JUMP JUMPDEST PUSH0 DUP3 DUP3 SHR SWAP1 POP SWAP3 SWAP2 POP POP JUMP JUMPDEST PUSH0 PUSH2 0xA34 PUSH0 NOT DUP5 PUSH1 0x8 MUL PUSH2 0xA19 JUMP JUMPDEST NOT DUP1 DUP4 AND SWAP2 POP POP SWAP3 SWAP2 POP POP JUMP JUMPDEST PUSH0 PUSH2 0xA4C DUP4 DUP4 PUSH2 0xA25 JUMP JUMPDEST SWAP2 POP DUP3 PUSH1 0x2 MUL DUP3 OR SWAP1 POP SWAP3 SWAP2 POP POP JUMP JUMPDEST PUSH2 0xA65 DUP3 PUSH2 0x385 JUMP JUMPDEST PUSH8 0xFFFFFFFFFFFFFFFF DUP2 GT ISZERO PUSH2 0xA7E JUMPI PUSH2 0xA7D PUSH2 0x61B JUMP JUMPDEST JUMPDEST PUSH2 0xA88 DUP3 SLOAD PUSH2 0x802 JUMP JUMPDEST PUSH2 0xA93 DUP3 DUP3 DUP6 PUSH2 0x9D3 JUMP JUMPDEST PUSH0 PUSH1 0x20 SWAP1 POP PUSH1 0x1F DUP4 GT PUSH1 0x1 DUP2 EQ PUSH2 0xAC4 JUMPI PUSH0 DUP5 ISZERO PUSH2 0xAB2 JUMPI DUP3 DUP8 ADD MLOAD SWAP1 POP JUMPDEST PUSH2 0xABC DUP6 DUP3 PUSH2 0xA41 JUMP JUMPDEST DUP7 SSTORE POP PUSH2 0xB23 JUMP JUMPDEST PUSH1 0x1F NOT DUP5 AND PUSH2 0xAD2 DUP7 PUSH2 0x8BF JUMP JUMPDEST PUSH0 JUMPDEST DUP3 DUP2 LT ISZERO PUSH2 0xAF9 JUMPI DUP5 DUP10 ADD MLOAD DUP3 SSTORE PUSH1 0x1 DUP3 ADD SWAP2 POP PUSH1 0x20 DUP6 ADD SWAP5 POP PUSH1 0x20 DUP2 ADD SWAP1 POP PUSH2 0xAD4 JUMP JUMPDEST DUP7 DUP4 LT ISZERO PUSH2 0xB16 JUMPI DUP5 DUP10 ADD MLOAD PUSH2 0xB12 PUSH1 0x1F DUP10 AND DUP3 PUSH2 0xA25 JUMP JUMPDEST DUP4 SSTORE POP JUMPDEST PUSH1 0x1 PUSH1 0x2 DUP9 MUL ADD DUP9 SSTORE POP POP POP JUMPDEST POP POP POP POP POP POP JUMP INVALID LOG2 PUSH5 0x6970667358 0x22 SLT KECCAK256 0xE9 RETURN 0xBB PUSH20 0xE680441846CD4C374C9AA50D59D913C8A131FA67 0xD0 SHL 0xD9 0xF TIMESTAMP DUP12 0xAC SWAP8 PUSH5 0x736F6C6343 STOP ADDMOD AND STOP CALLER "
				},
				"gasEstimates": {
					"creation": {
						"codeDepositCost": "582600",
						"executionCost": "617",
						"totalCost": "583217"
					},
					"external": {
						"getClass()": "infinite",
						"getStudent(uint256)": "infinite",
						"pushStudent(string,bool,uint256)": "infinite"
					}
				},
				"methodIdentifiers": {
					"getClass()": "57e61ea4",
					"getStudent(uint256)": "642f9163",
					"pushStudent(string,bool,uint256)": "bc84f213"
				}
			},
			"storageLayout": {
				"storage": [
					{
						"astId": 12,
						"contract": "contracts/student.sol:STRUCT",
						"label": "class",
						"offset": 0,
						"slot": "0",
						"type": "t_array(t_struct(Student)8_storage)dyn_storage"
					}
				],
				"types": {
					"t_array(t_struct(Student)8_storage)dyn_storage": {
						"base": "t_struct(Student)8_storage",
						"encoding": "dynamic_array",
						"label": "struct STRUCT.Student[]",
						"numberOfBytes": "32"
					},
					"t_bool": {
						"encoding": "inplace",
						"label": "bool",
						"numberOfBytes": "1"
					},
					"t_string_storage": {
						"encoding": "bytes",
						"label": "string",
						"numberOfBytes": "32"
					},
					"t_struct(Student)8_storage": {
						"encoding": "inplace",
						"label": "struct STRUCT.Student",
						"members": [
							{
								"astId": 3,
								"contract": "contracts/student.sol:STRUCT",
								"label": "name",
								"offset": 0,
								"slot": "0",
								"type": "t_string_storage"
							},
							{
								"astId": 5,
								"contract": "contracts/student.sol:STRUCT",
								"label": "isMale",
								"offset": 0,
								"slot": "1",
								"type": "t_bool"
							},
							{
								"astId": 7,
								"contract": "contracts/student.sol:STRUCT",
								"label": "number",
								"offset": 0,
								"slot": "2",
								"type": "t_uint256"
							}
						],
						"numberOfBytes": "96"
					},
					"t_uint256": {
						"encoding": "inplace",
						"label": "uint256",
						"numberOfBytes": "32"
					}
				}
			},
			"userdoc": {
				"kind": "user",
				"methods": {},
				"version": 1
			}
		}
	}
}