{
	"contracts/for.sol": {
		"FOR": {
			"abi": [
				{
					"inputs": [],
					"name": "loop1",
					"outputs": [
						{
							"internalType": "uint256",
							"name": "",
							"type": "uint256"
						}
					],
					"stateMutability": "pure",
					"type": "function"
				},
				{
					"inputs": [],
					"name": "loop2",
					"outputs": [
						{
							"internalType": "uint256",
							"name": "",
							"type": "uint256"
						},
						{
							"internalType": "uint256",
							"name": "",
							"type": "uint256"
						}
					],
					"stateMutability": "pure",
					"type": "function"
				},
				{
					"inputs": [],
					"name": "loop3",
					"outputs": [
						{
							"internalType": "uint256",
							"name": "",
							"type": "uint256"
						}
					],
					"stateMutability": "pure",
					"type": "function"
				}
			],
			"devdoc": {
				"kind": "dev",
				"methods": {},
				"version": 1
			},
			"evm": {
				"assembly": "    /* \"contracts/for.sol\":70:598  contract FOR {... */\n  mstore(0x40, 0x80)\n  callvalue\n  dup1\n  iszero\n  tag_1\n  jumpi\n  0x00\n  dup1\n  revert\ntag_1:\n  pop\n  dataSize(sub_0)\n  dup1\n  dataOffset(sub_0)\n  0x00\n  codecopy\n  0x00\n  return\nstop\n\nsub_0: assembly {\n        /* \"contracts/for.sol\":70:598  contract FOR {... */\n      mstore(0x40, 0x80)\n      callvalue\n      dup1\n      iszero\n      tag_1\n      jumpi\n      0x00\n      dup1\n      revert\n    tag_1:\n      pop\n      jumpi(tag_2, lt(calldatasize, 0x04))\n      shr(0xe0, calldataload(0x00))\n      dup1\n      0x9dfeea2b\n      eq\n      tag_3\n      jumpi\n      dup1\n      0xa89edd59\n      eq\n      tag_4\n      jumpi\n      dup1\n      0xf5fb1bf8\n      eq\n      tag_5\n      jumpi\n    tag_2:\n      0x00\n      dup1\n      revert\n        /* \"contracts/for.sol\":443:596  function loop3() public pure returns(uint) {... */\n    tag_3:\n      tag_6\n      tag_7\n      jump\t// in\n    tag_6:\n      mload(0x40)\n      tag_8\n      swap2\n      swap1\n      tag_9\n      jump\t// in\n    tag_8:\n      mload(0x40)\n      dup1\n      swap2\n      sub\n      swap1\n      return\n        /* \"contracts/for.sol\":255:437  function loop2() public pure returns(uint, uint) {... */\n    tag_4:\n      tag_10\n      tag_11\n      jump\t// in\n    tag_10:\n      mload(0x40)\n      tag_12\n      swap3\n      swap2\n      swap1\n      tag_13\n      jump\t// in\n    tag_12:\n      mload(0x40)\n      dup1\n      swap2\n      sub\n      swap1\n      return\n        /* \"contracts/for.sol\":89:249  function loop1() public pure returns(uint) {... */\n    tag_5:\n      tag_14\n      tag_15\n      jump\t// in\n    tag_14:\n      mload(0x40)\n      tag_16\n      swap2\n      swap1\n      tag_9\n      jump\t// in\n    tag_16:\n      mload(0x40)\n      dup1\n      swap2\n      sub\n      swap1\n      return\n        /* \"contracts/for.sol\":443:596  function loop3() public pure returns(uint) {... */\n    tag_7:\n        /* \"contracts/for.sol\":480:484  uint */\n      0x00\n        /* \"contracts/for.sol\":496:502  uint a */\n      dup1\n        /* \"contracts/for.sol\":517:523  uint i */\n      0x00\n        /* \"contracts/for.sol\":524:525  1 */\n      0x01\n        /* \"contracts/for.sol\":517:525  uint i=1 */\n      swap1\n      pop\n        /* \"contracts/for.sol\":513:571  for(uint i=1; i<=100; i++) {... */\n    tag_18:\n        /* \"contracts/for.sol\":530:533  100 */\n      0x64\n        /* \"contracts/for.sol\":527:528  i */\n      dup2\n        /* \"contracts/for.sol\":527:533  i<=100 */\n      gt\n        /* \"contracts/for.sol\":513:571  for(uint i=1; i<=100; i++) {... */\n      tag_19\n      jumpi\n        /* \"contracts/for.sol\":559:560  i */\n      dup1\n        /* \"contracts/for.sol\":554:560  a += i */\n      dup3\n      tag_21\n      swap2\n      swap1\n      tag_22\n      jump\t// in\n    tag_21:\n      swap2\n      pop\n        /* \"contracts/for.sol\":535:538  i++ */\n      dup1\n      dup1\n      tag_23\n      swap1\n      tag_24\n      jump\t// in\n    tag_23:\n      swap2\n      pop\n      pop\n        /* \"contracts/for.sol\":513:571  for(uint i=1; i<=100; i++) {... */\n      jump(tag_18)\n    tag_19:\n      pop\n        /* \"contracts/for.sol\":588:589  a */\n      dup1\n        /* \"contracts/for.sol\":581:589  return a */\n      swap2\n      pop\n      pop\n        /* \"contracts/for.sol\":443:596  function loop3() public pure returns(uint) {... */\n      swap1\n      jump\t// out\n        /* \"contracts/for.sol\":255:437  function loop2() public pure returns(uint, uint) {... */\n    tag_11:\n        /* \"contracts/for.sol\":292:296  uint */\n      0x00\n        /* \"contracts/for.sol\":298:302  uint */\n      dup1\n        /* \"contracts/for.sol\":314:320  uint a */\n      0x00\n        /* \"contracts/for.sol\":330:336  uint i */\n      dup1\n        /* \"contracts/for.sol\":353:354  a */\n      dup2\n        /* \"contracts/for.sol\":351:354  i=a */\n      swap1\n      pop\n        /* \"contracts/for.sol\":347:408  for(i=a; i<=6; i++) {... */\n    tag_26:\n        /* \"contracts/for.sol\":359:360  6 */\n      0x06\n        /* \"contracts/for.sol\":356:357  i */\n      dup2\n        /* \"contracts/for.sol\":356:360  i<=6 */\n      gt\n        /* \"contracts/for.sol\":347:408  for(i=a; i<=6; i++) {... */\n      tag_27\n      jumpi\n        /* \"contracts/for.sol\":386:387  i */\n      dup1\n        /* \"contracts/for.sol\":381:387  a += i */\n      dup3\n      tag_29\n      swap2\n      swap1\n      tag_22\n      jump\t// in\n    tag_29:\n      swap2\n      pop\n        /* \"contracts/for.sol\":362:365  i++ */\n      dup1\n      dup1\n      tag_30\n      swap1\n      tag_24\n      jump\t// in\n    tag_30:\n      swap2\n      pop\n      pop\n        /* \"contracts/for.sol\":347:408  for(i=a; i<=6; i++) {... */\n      jump(tag_26)\n    tag_27:\n        /* \"contracts/for.sol\":426:427  a */\n      dup2\n        /* \"contracts/for.sol\":428:429  i */\n      dup2\n        /* \"contracts/for.sol\":418:430  return (a,i) */\n      swap4\n      pop\n      swap4\n      pop\n      pop\n      pop\n        /* \"contracts/for.sol\":255:437  function loop2() public pure returns(uint, uint) {... */\n      swap1\n      swap2\n      jump\t// out\n        /* \"contracts/for.sol\":89:249  function loop1() public pure returns(uint) {... */\n    tag_15:\n        /* \"contracts/for.sol\":126:130  uint */\n      0x00\n        /* \"contracts/for.sol\":142:148  uint a */\n      dup1\n        /* \"contracts/for.sol\":163:169  uint i */\n      0x00\n        /* \"contracts/for.sol\":159:224  for(uint i=0; i<5; i++) {... */\n    tag_32:\n        /* \"contracts/for.sol\":175:176  5 */\n      0x05\n        /* \"contracts/for.sol\":173:174  i */\n      dup2\n        /* \"contracts/for.sol\":173:176  i<5 */\n      lt\n        /* \"contracts/for.sol\":159:224  for(uint i=0; i<5; i++) {... */\n      iszero\n      tag_33\n      jumpi\n        /* \"contracts/for.sol\":202:203  i */\n      dup1\n        /* \"contracts/for.sol\":197:203  a += i */\n      dup3\n      tag_35\n      swap2\n      swap1\n      tag_22\n      jump\t// in\n    tag_35:\n      swap2\n      pop\n        /* \"contracts/for.sol\":178:181  i++ */\n      dup1\n      dup1\n      0x01\n      add\n      swap2\n      pop\n      pop\n        /* \"contracts/for.sol\":159:224  for(uint i=0; i<5; i++) {... */\n      jump(tag_32)\n    tag_33:\n      pop\n        /* \"contracts/for.sol\":241:242  a */\n      dup1\n        /* \"contracts/for.sol\":234:242  return a */\n      swap2\n      pop\n      pop\n        /* \"contracts/for.sol\":89:249  function loop1() public pure returns(uint) {... */\n      swap1\n      jump\t// out\n        /* \"#utility.yul\":7:84   */\n    tag_36:\n        /* \"#utility.yul\":44:51   */\n      0x00\n        /* \"#utility.yul\":73:78   */\n      dup2\n        /* \"#utility.yul\":62:78   */\n      swap1\n      pop\n        /* \"#utility.yul\":7:84   */\n      swap2\n      swap1\n      pop\n      jump\t// out\n        /* \"#utility.yul\":90:208   */\n    tag_37:\n        /* \"#utility.yul\":177:201   */\n      tag_42\n        /* \"#utility.yul\":195:200   */\n      dup2\n        /* \"#utility.yul\":177:201   */\n      tag_36\n      jump\t// in\n    tag_42:\n        /* \"#utility.yul\":172:175   */\n      dup3\n        /* \"#utility.yul\":165:202   */\n      mstore\n        /* \"#utility.yul\":90:208   */\n      pop\n      pop\n      jump\t// out\n        /* \"#utility.yul\":214:436   */\n    tag_9:\n        /* \"#utility.yul\":307:311   */\n      0x00\n        /* \"#utility.yul\":345:347   */\n      0x20\n        /* \"#utility.yul\":334:343   */\n      dup3\n        /* \"#utility.yul\":330:348   */\n      add\n        /* \"#utility.yul\":322:348   */\n      swap1\n      pop\n        /* \"#utility.yul\":358:429   */\n      tag_44\n        /* \"#utility.yul\":426:427   */\n      0x00\n        /* \"#utility.yul\":415:424   */\n      dup4\n        /* \"#utility.yul\":411:428   */\n      add\n        /* \"#utility.yul\":402:408   */\n      dup5\n        /* \"#utility.yul\":358:429   */\n      tag_37\n      jump\t// in\n    tag_44:\n        /* \"#utility.yul\":214:436   */\n      swap3\n      swap2\n      pop\n      pop\n      jump\t// out\n        /* \"#utility.yul\":442:774   */\n    tag_13:\n        /* \"#utility.yul\":563:567   */\n      0x00\n        /* \"#utility.yul\":601:603   */\n      0x40\n        /* \"#utility.yul\":590:599   */\n      dup3\n        /* \"#utility.yul\":586:604   */\n      add\n        /* \"#utility.yul\":578:604   */\n      swap1\n      pop\n        /* \"#utility.yul\":614:685   */\n      tag_46\n        /* \"#utility.yul\":682:683   */\n      0x00\n        /* \"#utility.yul\":671:680   */\n      dup4\n        /* \"#utility.yul\":667:684   */\n      add\n        /* \"#utility.yul\":658:664   */\n      dup6\n        /* \"#utility.yul\":614:685   */\n      tag_37\n      jump\t// in\n    tag_46:\n        /* \"#utility.yul\":695:767   */\n      tag_47\n        /* \"#utility.yul\":763:765   */\n      0x20\n        /* \"#utility.yul\":752:761   */\n      dup4\n        /* \"#utility.yul\":748:766   */\n      add\n        /* \"#utility.yul\":739:745   */\n      dup5\n        /* \"#utility.yul\":695:767   */\n      tag_37\n      jump\t// in\n    tag_47:\n        /* \"#utility.yul\":442:774   */\n      swap4\n      swap3\n      pop\n      pop\n      pop\n      jump\t// out\n        /* \"#utility.yul\":780:960   */\n    tag_38:\n        /* \"#utility.yul\":828:905   */\n      0x4e487b7100000000000000000000000000000000000000000000000000000000\n        /* \"#utility.yul\":825:826   */\n      0x00\n        /* \"#utility.yul\":818:906   */\n      mstore\n        /* \"#utility.yul\":925:929   */\n      0x11\n        /* \"#utility.yul\":922:923   */\n      0x04\n        /* \"#utility.yul\":915:930   */\n      mstore\n        /* \"#utility.yul\":949:953   */\n      0x24\n        /* \"#utility.yul\":946:947   */\n      0x00\n        /* \"#utility.yul\":939:954   */\n      revert\n        /* \"#utility.yul\":966:1157   */\n    tag_22:\n        /* \"#utility.yul\":1006:1009   */\n      0x00\n        /* \"#utility.yul\":1025:1045   */\n      tag_50\n        /* \"#utility.yul\":1043:1044   */\n      dup3\n        /* \"#utility.yul\":1025:1045   */\n      tag_36\n      jump\t// in\n    tag_50:\n        /* \"#utility.yul\":1020:1045   */\n      swap2\n      pop\n        /* \"#utility.yul\":1059:1079   */\n      tag_51\n        /* \"#utility.yul\":1077:1078   */\n      dup4\n        /* \"#utility.yul\":1059:1079   */\n      tag_36\n      jump\t// in\n    tag_51:\n        /* \"#utility.yul\":1054:1079   */\n      swap3\n      pop\n        /* \"#utility.yul\":1102:1103   */\n      dup3\n        /* \"#utility.yul\":1099:1100   */\n      dup3\n        /* \"#utility.yul\":1095:1104   */\n      add\n        /* \"#utility.yul\":1088:1104   */\n      swap1\n      pop\n        /* \"#utility.yul\":1123:1126   */\n      dup1\n        /* \"#utility.yul\":1120:1121   */\n      dup3\n        /* \"#utility.yul\":1117:1127   */\n      gt\n        /* \"#utility.yul\":1114:1150   */\n      iszero\n      tag_52\n      jumpi\n        /* \"#utility.yul\":1130:1148   */\n      tag_53\n      tag_38\n      jump\t// in\n    tag_53:\n        /* \"#utility.yul\":1114:1150   */\n    tag_52:\n        /* \"#utility.yul\":966:1157   */\n      swap3\n      swap2\n      pop\n      pop\n      jump\t// out\n        /* \"#utility.yul\":1163:1396   */\n    tag_24:\n        /* \"#utility.yul\":1202:1205   */\n      0x00\n        /* \"#utility.yul\":1225:1249   */\n      tag_55\n        /* \"#utility.yul\":1243:1248   */\n      dup3\n        /* \"#utility.yul\":1225:1249   */\n      tag_36\n      jump\t// in\n    tag_55:\n        /* \"#utility.yul\":1216:1249   */\n      swap2\n      pop\n        /* \"#utility.yul\":1271:1337   */\n      0xffffffffffffffffffffffffffffffffffffffffffffffffffffffffffffffff\n        /* \"#utility.yul\":1264:1269   */\n      dup3\n        /* \"#utility.yul\":1261:1338   */\n      sub\n        /* \"#utility.yul\":1258:1361   */\n      tag_56\n      jumpi\n        /* \"#utility.yul\":1341:1359   */\n      tag_57\n      tag_38\n      jump\t// in\n    tag_57:\n        /* \"#utility.yul\":1258:1361   */\n    tag_56:\n        /* \"#utility.yul\":1388:1389   */\n      0x01\n        /* \"#utility.yul\":1381:1386   */\n      dup3\n        /* \"#utility.yul\":1377:1390   */\n      add\n        /* \"#utility.yul\":1370:1390   */\n      swap1\n      pop\n        /* \"#utility.yul\":1163:1396   */\n      swap2\n      swap1\n      pop\n      jump\t// out\n\n    auxdata: 0xa26469706673582212207ab3669e2883dab0e42ac7537064aa60e0b547541f4c020d1222523c0156dfbc64736f6c63430008160033\n}\n",
				"bytecode": {
					"linkReferences": {},
					"object": "608060405234801561000f575f80fd5b506102798061001d5f395ff3fe608060405234801561000f575f80fd5b506004361061003f575f3560e01c80639dfeea2b14610043578063a89edd5914610061578063f5fb1bf814610080575b5f80fd5b61004b61009e565b604051610058919061015c565b60405180910390f35b6100696100d7565b604051610077929190610175565b60405180910390f35b610088610114565b604051610095919061015c565b60405180910390f35b5f805f600190505b606481116100cf5780826100ba91906101c9565b915080806100c7906101fc565b9150506100a6565b508091505090565b5f805f808190505b600681116101085780826100f391906101c9565b91508080610100906101fc565b9150506100df565b81819350935050509091565b5f805f5b600581101561013c57808261012d91906101c9565b91508080600101915050610118565b508091505090565b5f819050919050565b61015681610144565b82525050565b5f60208201905061016f5f83018461014d565b92915050565b5f6040820190506101885f83018561014d565b610195602083018461014d565b9392505050565b7f4e487b71000000000000000000000000000000000000000000000000000000005f52601160045260245ffd5b5f6101d382610144565b91506101de83610144565b92508282019050808211156101f6576101f561019c565b5b92915050565b5f61020682610144565b91507fffffffffffffffffffffffffffffffffffffffffffffffffffffffffffffffff82036102385761023761019c565b5b60018201905091905056fea26469706673582212207ab3669e2883dab0e42ac7537064aa60e0b547541f4c020d1222523c0156dfbc64736f6c63430008160033",
					"opcodes": "PUSH1 0x80 PUSH1 0x40 MSTORE CALLVALUE DUP1 ISZERO PUSH2 0xF JUMPI PUSH0 DUP1 REVERT JUMPDEST POP PUSH2 0x279 DUP1 PUSH2 0x1D PUSH0 CODECOPY PUSH0 RETURN INVALID PUSH1 0x80 PUSH1 0x40 MSTORE CALLVALUE DUP1 ISZERO PUSH2 0xF JUMPI PUSH0 DUP1 REVERT JUMPDEST POP PUSH1 0x4 CALLDATASIZE LT PUSH2 0x3F JUMPI PUSH0 CALLDATALOAD PUSH1 0xE0 SHR DUP1 PUSH4 0x9DFEEA2B EQ PUSH2 0x43 JUMPI DUP1 PUSH4 0xA89EDD59 EQ PUSH2 0x61 JUMPI DUP1 PUSH4 0xF5FB1BF8 EQ PUSH2 0x80 JUMPI JUMPDEST PUSH0 DUP1 REVERT JUMPDEST PUSH2 0x4B PUSH2 0x9E JUMP JUMPDEST PUSH1 0x40 MLOAD PUSH2 0x58 SWAP2 SWAP1 PUSH2 0x15C JUMP JUMPDEST PUSH1 0x40 MLOAD DUP1 SWAP2 SUB SWAP1 RETURN JUMPDEST PUSH2 0x69 PUSH2 0xD7 JUMP JUMPDEST PUSH1 0x40 MLOAD PUSH2 0x77 SWAP3 SWAP2 SWAP1 PUSH2 0x175 JUMP JUMPDEST PUSH1 0x40 MLOAD DUP1 SWAP2 SUB SWAP1 RETURN JUMPDEST PUSH2 0x88 PUSH2 0x114 JUMP JUMPDEST PUSH1 0x40 MLOAD PUSH2 0x95 SWAP2 SWAP1 PUSH2 0x15C JUMP JUMPDEST PUSH1 0x40 MLOAD DUP1 SWAP2 SUB SWAP1 RETURN JUMPDEST PUSH0 DUP1 PUSH0 PUSH1 0x1 SWAP1 POP JUMPDEST PUSH1 0x64 DUP2 GT PUSH2 0xCF JUMPI DUP1 DUP3 PUSH2 0xBA SWAP2 SWAP1 PUSH2 0x1C9 JUMP JUMPDEST SWAP2 POP DUP1 DUP1 PUSH2 0xC7 SWAP1 PUSH2 0x1FC JUMP JUMPDEST SWAP2 POP POP PUSH2 0xA6 JUMP JUMPDEST POP DUP1 SWAP2 POP POP SWAP1 JUMP JUMPDEST PUSH0 DUP1 PUSH0 DUP1 DUP2 SWAP1 POP JUMPDEST PUSH1 0x6 DUP2 GT PUSH2 0x108 JUMPI DUP1 DUP3 PUSH2 0xF3 SWAP2 SWAP1 PUSH2 0x1C9 JUMP JUMPDEST SWAP2 POP DUP1 DUP1 PUSH2 0x100 SWAP1 PUSH2 0x1FC JUMP JUMPDEST SWAP2 POP POP PUSH2 0xDF JUMP JUMPDEST DUP2 DUP2 SWAP4 POP SWAP4 POP POP POP SWAP1 SWAP2 JUMP JUMPDEST PUSH0 DUP1 PUSH0 JUMPDEST PUSH1 0x5 DUP2 LT ISZERO PUSH2 0x13C JUMPI DUP1 DUP3 PUSH2 0x12D SWAP2 SWAP1 PUSH2 0x1C9 JUMP JUMPDEST SWAP2 POP DUP1 DUP1 PUSH1 0x1 ADD SWAP2 POP POP PUSH2 0x118 JUMP JUMPDEST POP DUP1 SWAP2 POP POP SWAP1 JUMP JUMPDEST PUSH0 DUP2 SWAP1 POP SWAP2 SWAP1 POP JUMP JUMPDEST PUSH2 0x156 DUP2 PUSH2 0x144 JUMP JUMPDEST DUP3 MSTORE POP POP JUMP JUMPDEST PUSH0 PUSH1 0x20 DUP3 ADD SWAP1 POP PUSH2 0x16F PUSH0 DUP4 ADD DUP5 PUSH2 0x14D JUMP JUMPDEST SWAP3 SWAP2 POP POP JUMP JUMPDEST PUSH0 PUSH1 0x40 DUP3 ADD SWAP1 POP PUSH2 0x188 PUSH0 DUP4 ADD DUP6 PUSH2 0x14D JUMP JUMPDEST PUSH2 0x195 PUSH1 0x20 DUP4 ADD DUP5 PUSH2 0x14D JUMP JUMPDEST SWAP4 SWAP3 POP POP POP JUMP JUMPDEST PUSH32 0x4E487B7100000000000000000000000000000000000000000000000000000000 PUSH0 MSTORE PUSH1 0x11 PUSH1 0x4 MSTORE PUSH1 0x24 PUSH0 REVERT JUMPDEST PUSH0 PUSH2 0x1D3 DUP3 PUSH2 0x144 JUMP JUMPDEST SWAP2 POP PUSH2 0x1DE DUP4 PUSH2 0x144 JUMP JUMPDEST SWAP3 POP DUP3 DUP3 ADD SWAP1 POP DUP1 DUP3 GT ISZERO PUSH2 0x1F6 JUMPI PUSH2 0x1F5 PUSH2 0x19C JUMP JUMPDEST JUMPDEST SWAP3 SWAP2 POP POP JUMP JUMPDEST PUSH0 PUSH2 0x206 DUP3 PUSH2 0x144 JUMP JUMPDEST SWAP2 POP PUSH32 0xFFFFFFFFFFFFFFFFFFFFFFFFFFFFFFFFFFFFFFFFFFFFFFFFFFFFFFFFFFFFFFFF DUP3 SUB PUSH2 0x238 JUMPI PUSH2 0x237 PUSH2 0x19C JUMP JUMPDEST JUMPDEST PUSH1 0x1 DUP3 ADD SWAP1 POP SWAP2 SWAP1 POP JUMP INVALID LOG2 PUSH5 0x6970667358 0x22 SLT KECCAK256 PUSH27 0xB3669E2883DAB0E42AC7537064AA60E0B547541F4C020D1222523C ADD JUMP 0xDF 0xBC PUSH5 0x736F6C6343 STOP ADDMOD AND STOP CALLER "
				},
				"gasEstimates": {
					"creation": {
						"codeDepositCost": "126600",
						"executionCost": "169",
						"totalCost": "126769"
					},
					"external": {
						"loop1()": "infinite",
						"loop2()": "infinite",
						"loop3()": "infinite"
					}
				},
				"methodIdentifiers": {
					"loop1()": "f5fb1bf8",
					"loop2()": "a89edd59",
					"loop3()": "9dfeea2b"
				}
			},
			"storageLayout": {
				"storage": [],
				"types": null
			},
			"userdoc": {
				"kind": "user",
				"methods": {},
				"version": 1
			}
		}
	}
}