{
	"contracts/basic2.sol": {
		"Basic2": {
			"abi": [
				{
					"inputs": [
						{
							"internalType": "uint256",
							"name": "_a",
							"type": "uint256"
						},
						{
							"internalType": "uint256",
							"name": "_b",
							"type": "uint256"
						}
					],
					"name": "add",
					"outputs": [
						{
							"internalType": "uint256",
							"name": "",
							"type": "uint256"
						}
					],
					"stateMutability": "pure",
					"type": "function"
				},
				{
					"inputs": [
						{
							"internalType": "uint256",
							"name": "_a",
							"type": "uint256"
						},
						{
							"internalType": "uint256",
							"name": "_b",
							"type": "uint256"
						}
					],
					"name": "div",
					"outputs": [
						{
							"internalType": "uint256",
							"name": "",
							"type": "uint256"
						},
						{
							"internalType": "uint256",
							"name": "",
							"type": "uint256"
						}
					],
					"stateMutability": "pure",
					"type": "function"
				},
				{
					"inputs": [
						{
							"internalType": "uint256",
							"name": "_a",
							"type": "uint256"
						},
						{
							"internalType": "uint256",
							"name": "_b",
							"type": "uint256"
						}
					],
					"name": "mul",
					"outputs": [
						{
							"internalType": "uint256",
							"name": "",
							"type": "uint256"
						}
					],
					"stateMutability": "pure",
					"type": "function"
				},
				{
					"inputs": [
						{
							"internalType": "uint256",
							"name": "_a",
							"type": "uint256"
						},
						{
							"internalType": "uint256",
							"name": "_b",
							"type": "uint256"
						}
					],
					"name": "sub",
					"outputs": [
						{
							"internalType": "uint256",
							"name": "",
							"type": "uint256"
						}
					],
					"stateMutability": "pure",
					"type": "function"
				},
				{
					"inputs": [
						{
							"internalType": "int256",
							"name": "_a",
							"type": "int256"
						},
						{
							"internalType": "int256",
							"name": "_b",
							"type": "int256"
						}
					],
					"name": "sub2",
					"outputs": [
						{
							"internalType": "int256",
							"name": "",
							"type": "int256"
						}
					],
					"stateMutability": "pure",
					"type": "function"
				}
			],
			"devdoc": {
				"kind": "dev",
				"methods": {},
				"version": 1
			},
			"evm": {
				"assembly": "    /* \"contracts/basic2.sol\":70:565  contract Basic2 {... */\n  mstore(0x40, 0x80)\n  callvalue\n  dup1\n  iszero\n  tag_1\n  jumpi\n  0x00\n  dup1\n  revert\ntag_1:\n  pop\n  dataSize(sub_0)\n  dup1\n  dataOffset(sub_0)\n  0x00\n  codecopy\n  0x00\n  return\nstop\n\nsub_0: assembly {\n        /* \"contracts/basic2.sol\":70:565  contract Basic2 {... */\n      mstore(0x40, 0x80)\n      callvalue\n      dup1\n      iszero\n      tag_1\n      jumpi\n      0x00\n      dup1\n      revert\n    tag_1:\n      pop\n      jumpi(tag_2, lt(calldatasize, 0x04))\n      shr(0xe0, calldataload(0x00))\n      dup1\n      0x771602f7\n      eq\n      tag_3\n      jumpi\n      dup1\n      0xa391c15b\n      eq\n      tag_4\n      jumpi\n      dup1\n      0xb67d77c5\n      eq\n      tag_5\n      jumpi\n      dup1\n      0xc8a4ac9c\n      eq\n      tag_6\n      jumpi\n      dup1\n      0xef3eeaba\n      eq\n      tag_7\n      jumpi\n    tag_2:\n      0x00\n      dup1\n      revert\n        /* \"contracts/basic2.sol\":92:179  function add(uint _a, uint _b) public pure returns (uint) {... */\n    tag_3:\n      tag_8\n      0x04\n      dup1\n      calldatasize\n      sub\n      dup2\n      add\n      swap1\n      tag_9\n      swap2\n      swap1\n      tag_10\n      jump\t// in\n    tag_9:\n      tag_11\n      jump\t// in\n    tag_8:\n      mload(0x40)\n      tag_12\n      swap2\n      swap1\n      tag_13\n      jump\t// in\n    tag_12:\n      mload(0x40)\n      dup1\n      swap2\n      sub\n      swap1\n      return\n        /* \"contracts/basic2.sol\":461:562  function div(uint _a, uint _b) public pure returns(uint, uint) {... */\n    tag_4:\n      tag_14\n      0x04\n      dup1\n      calldatasize\n      sub\n      dup2\n      add\n      swap1\n      tag_15\n      swap2\n      swap1\n      tag_10\n      jump\t// in\n    tag_15:\n      tag_16\n      jump\t// in\n    tag_14:\n      mload(0x40)\n      tag_17\n      swap3\n      swap2\n      swap1\n      tag_18\n      jump\t// in\n    tag_17:\n      mload(0x40)\n      dup1\n      swap2\n      sub\n      swap1\n      return\n        /* \"contracts/basic2.sol\":278:365  function sub(uint _a, uint _b) public pure returns (uint) {... */\n    tag_5:\n      tag_19\n      0x04\n      dup1\n      calldatasize\n      sub\n      dup2\n      add\n      swap1\n      tag_20\n      swap2\n      swap1\n      tag_10\n      jump\t// in\n    tag_20:\n      tag_21\n      jump\t// in\n    tag_19:\n      mload(0x40)\n      tag_22\n      swap2\n      swap1\n      tag_13\n      jump\t// in\n    tag_22:\n      mload(0x40)\n      dup1\n      swap2\n      sub\n      swap1\n      return\n        /* \"contracts/basic2.sol\":185:272  function mul(uint _a, uint _b) public pure returns (uint) {... */\n    tag_6:\n      tag_23\n      0x04\n      dup1\n      calldatasize\n      sub\n      dup2\n      add\n      swap1\n      tag_24\n      swap2\n      swap1\n      tag_10\n      jump\t// in\n    tag_24:\n      tag_25\n      jump\t// in\n    tag_23:\n      mload(0x40)\n      tag_26\n      swap2\n      swap1\n      tag_13\n      jump\t// in\n    tag_26:\n      mload(0x40)\n      dup1\n      swap2\n      sub\n      swap1\n      return\n        /* \"contracts/basic2.sol\":371:455  function sub2(int _a, int _b) public pure returns(int) {... */\n    tag_7:\n      tag_27\n      0x04\n      dup1\n      calldatasize\n      sub\n      dup2\n      add\n      swap1\n      tag_28\n      swap2\n      swap1\n      tag_29\n      jump\t// in\n    tag_28:\n      tag_30\n      jump\t// in\n    tag_27:\n      mload(0x40)\n      tag_31\n      swap2\n      swap1\n      tag_32\n      jump\t// in\n    tag_31:\n      mload(0x40)\n      dup1\n      swap2\n      sub\n      swap1\n      return\n        /* \"contracts/basic2.sol\":92:179  function add(uint _a, uint _b) public pure returns (uint) {... */\n    tag_11:\n        /* \"contracts/basic2.sol\":144:148  uint */\n      0x00\n        /* \"contracts/basic2.sol\":170:172  _b */\n      dup2\n        /* \"contracts/basic2.sol\":167:169  _a */\n      dup4\n        /* \"contracts/basic2.sol\":167:172  _a+_b */\n      tag_34\n      swap2\n      swap1\n      tag_35\n      jump\t// in\n    tag_34:\n        /* \"contracts/basic2.sol\":160:172  return _a+_b */\n      swap1\n      pop\n        /* \"contracts/basic2.sol\":92:179  function add(uint _a, uint _b) public pure returns (uint) {... */\n      swap3\n      swap2\n      pop\n      pop\n      jump\t// out\n        /* \"contracts/basic2.sol\":461:562  function div(uint _a, uint _b) public pure returns(uint, uint) {... */\n    tag_16:\n        /* \"contracts/basic2.sol\":512:516  uint */\n      0x00\n        /* \"contracts/basic2.sol\":518:522  uint */\n      dup1\n        /* \"contracts/basic2.sol\":545:547  _b */\n      dup3\n        /* \"contracts/basic2.sol\":542:544  _a */\n      dup5\n        /* \"contracts/basic2.sol\":542:547  _a/_b */\n      tag_37\n      swap2\n      swap1\n      tag_38\n      jump\t// in\n    tag_37:\n        /* \"contracts/basic2.sol\":552:554  _b */\n      dup4\n        /* \"contracts/basic2.sol\":549:551  _a */\n      dup6\n        /* \"contracts/basic2.sol\":549:554  _a%_b */\n      tag_39\n      swap2\n      swap1\n      tag_40\n      jump\t// in\n    tag_39:\n        /* \"contracts/basic2.sol\":534:555  return (_a/_b, _a%_b) */\n      swap2\n      pop\n      swap2\n      pop\n        /* \"contracts/basic2.sol\":461:562  function div(uint _a, uint _b) public pure returns(uint, uint) {... */\n      swap3\n      pop\n      swap3\n      swap1\n      pop\n      jump\t// out\n        /* \"contracts/basic2.sol\":278:365  function sub(uint _a, uint _b) public pure returns (uint) {... */\n    tag_21:\n        /* \"contracts/basic2.sol\":330:334  uint */\n      0x00\n        /* \"contracts/basic2.sol\":356:358  _b */\n      dup2\n        /* \"contracts/basic2.sol\":353:355  _a */\n      dup4\n        /* \"contracts/basic2.sol\":353:358  _a-_b */\n      tag_42\n      swap2\n      swap1\n      tag_43\n      jump\t// in\n    tag_42:\n        /* \"contracts/basic2.sol\":346:358  return _a-_b */\n      swap1\n      pop\n        /* \"contracts/basic2.sol\":278:365  function sub(uint _a, uint _b) public pure returns (uint) {... */\n      swap3\n      swap2\n      pop\n      pop\n      jump\t// out\n        /* \"contracts/basic2.sol\":185:272  function mul(uint _a, uint _b) public pure returns (uint) {... */\n    tag_25:\n        /* \"contracts/basic2.sol\":237:241  uint */\n      0x00\n        /* \"contracts/basic2.sol\":263:265  _b */\n      dup2\n        /* \"contracts/basic2.sol\":260:262  _a */\n      dup4\n        /* \"contracts/basic2.sol\":260:265  _a*_b */\n      tag_45\n      swap2\n      swap1\n      tag_46\n      jump\t// in\n    tag_45:\n        /* \"contracts/basic2.sol\":253:265  return _a*_b */\n      swap1\n      pop\n        /* \"contracts/basic2.sol\":185:272  function mul(uint _a, uint _b) public pure returns (uint) {... */\n      swap3\n      swap2\n      pop\n      pop\n      jump\t// out\n        /* \"contracts/basic2.sol\":371:455  function sub2(int _a, int _b) public pure returns(int) {... */\n    tag_30:\n        /* \"contracts/basic2.sol\":421:424  int */\n      0x00\n        /* \"contracts/basic2.sol\":446:448  _b */\n      dup2\n        /* \"contracts/basic2.sol\":443:445  _a */\n      dup4\n        /* \"contracts/basic2.sol\":443:448  _a-_b */\n      tag_48\n      swap2\n      swap1\n      tag_49\n      jump\t// in\n    tag_48:\n        /* \"contracts/basic2.sol\":436:448  return _a-_b */\n      swap1\n      pop\n        /* \"contracts/basic2.sol\":371:455  function sub2(int _a, int _b) public pure returns(int) {... */\n      swap3\n      swap2\n      pop\n      pop\n      jump\t// out\n        /* \"#utility.yul\":88:205   */\n    tag_51:\n        /* \"#utility.yul\":197:198   */\n      0x00\n        /* \"#utility.yul\":194:195   */\n      dup1\n        /* \"#utility.yul\":187:199   */\n      revert\n        /* \"#utility.yul\":334:411   */\n    tag_53:\n        /* \"#utility.yul\":371:378   */\n      0x00\n        /* \"#utility.yul\":400:405   */\n      dup2\n        /* \"#utility.yul\":389:405   */\n      swap1\n      pop\n        /* \"#utility.yul\":334:411   */\n      swap2\n      swap1\n      pop\n      jump\t// out\n        /* \"#utility.yul\":417:539   */\n    tag_54:\n        /* \"#utility.yul\":490:514   */\n      tag_69\n        /* \"#utility.yul\":508:513   */\n      dup2\n        /* \"#utility.yul\":490:514   */\n      tag_53\n      jump\t// in\n    tag_69:\n        /* \"#utility.yul\":483:488   */\n      dup2\n        /* \"#utility.yul\":480:515   */\n      eq\n        /* \"#utility.yul\":470:533   */\n      tag_70\n      jumpi\n        /* \"#utility.yul\":529:530   */\n      0x00\n        /* \"#utility.yul\":526:527   */\n      dup1\n        /* \"#utility.yul\":519:531   */\n      revert\n        /* \"#utility.yul\":470:533   */\n    tag_70:\n        /* \"#utility.yul\":417:539   */\n      pop\n      jump\t// out\n        /* \"#utility.yul\":545:684   */\n    tag_55:\n        /* \"#utility.yul\":591:596   */\n      0x00\n        /* \"#utility.yul\":629:635   */\n      dup2\n        /* \"#utility.yul\":616:636   */\n      calldataload\n        /* \"#utility.yul\":607:636   */\n      swap1\n      pop\n        /* \"#utility.yul\":645:678   */\n      tag_72\n        /* \"#utility.yul\":672:677   */\n      dup2\n        /* \"#utility.yul\":645:678   */\n      tag_54\n      jump\t// in\n    tag_72:\n        /* \"#utility.yul\":545:684   */\n      swap3\n      swap2\n      pop\n      pop\n      jump\t// out\n        /* \"#utility.yul\":690:1164   */\n    tag_10:\n        /* \"#utility.yul\":758:764   */\n      0x00\n        /* \"#utility.yul\":766:772   */\n      dup1\n        /* \"#utility.yul\":815:817   */\n      0x40\n        /* \"#utility.yul\":803:812   */\n      dup4\n        /* \"#utility.yul\":794:801   */\n      dup6\n        /* \"#utility.yul\":790:813   */\n      sub\n        /* \"#utility.yul\":786:818   */\n      slt\n        /* \"#utility.yul\":783:902   */\n      iszero\n      tag_74\n      jumpi\n        /* \"#utility.yul\":821:900   */\n      tag_75\n      tag_51\n      jump\t// in\n    tag_75:\n        /* \"#utility.yul\":783:902   */\n    tag_74:\n        /* \"#utility.yul\":941:942   */\n      0x00\n        /* \"#utility.yul\":966:1019   */\n      tag_76\n        /* \"#utility.yul\":1011:1018   */\n      dup6\n        /* \"#utility.yul\":1002:1008   */\n      dup3\n        /* \"#utility.yul\":991:1000   */\n      dup7\n        /* \"#utility.yul\":987:1009   */\n      add\n        /* \"#utility.yul\":966:1019   */\n      tag_55\n      jump\t// in\n    tag_76:\n        /* \"#utility.yul\":956:1019   */\n      swap3\n      pop\n        /* \"#utility.yul\":912:1029   */\n      pop\n        /* \"#utility.yul\":1068:1070   */\n      0x20\n        /* \"#utility.yul\":1094:1147   */\n      tag_77\n        /* \"#utility.yul\":1139:1146   */\n      dup6\n        /* \"#utility.yul\":1130:1136   */\n      dup3\n        /* \"#utility.yul\":1119:1128   */\n      dup7\n        /* \"#utility.yul\":1115:1137   */\n      add\n        /* \"#utility.yul\":1094:1147   */\n      tag_55\n      jump\t// in\n    tag_77:\n        /* \"#utility.yul\":1084:1147   */\n      swap2\n      pop\n        /* \"#utility.yul\":1039:1157   */\n      pop\n        /* \"#utility.yul\":690:1164   */\n      swap3\n      pop\n      swap3\n      swap1\n      pop\n      jump\t// out\n        /* \"#utility.yul\":1170:1288   */\n    tag_56:\n        /* \"#utility.yul\":1257:1281   */\n      tag_79\n        /* \"#utility.yul\":1275:1280   */\n      dup2\n        /* \"#utility.yul\":1257:1281   */\n      tag_53\n      jump\t// in\n    tag_79:\n        /* \"#utility.yul\":1252:1255   */\n      dup3\n        /* \"#utility.yul\":1245:1282   */\n      mstore\n        /* \"#utility.yul\":1170:1288   */\n      pop\n      pop\n      jump\t// out\n        /* \"#utility.yul\":1294:1516   */\n    tag_13:\n        /* \"#utility.yul\":1387:1391   */\n      0x00\n        /* \"#utility.yul\":1425:1427   */\n      0x20\n        /* \"#utility.yul\":1414:1423   */\n      dup3\n        /* \"#utility.yul\":1410:1428   */\n      add\n        /* \"#utility.yul\":1402:1428   */\n      swap1\n      pop\n        /* \"#utility.yul\":1438:1509   */\n      tag_81\n        /* \"#utility.yul\":1506:1507   */\n      0x00\n        /* \"#utility.yul\":1495:1504   */\n      dup4\n        /* \"#utility.yul\":1491:1508   */\n      add\n        /* \"#utility.yul\":1482:1488   */\n      dup5\n        /* \"#utility.yul\":1438:1509   */\n      tag_56\n      jump\t// in\n    tag_81:\n        /* \"#utility.yul\":1294:1516   */\n      swap3\n      swap2\n      pop\n      pop\n      jump\t// out\n        /* \"#utility.yul\":1522:1854   */\n    tag_18:\n        /* \"#utility.yul\":1643:1647   */\n      0x00\n        /* \"#utility.yul\":1681:1683   */\n      0x40\n        /* \"#utility.yul\":1670:1679   */\n      dup3\n        /* \"#utility.yul\":1666:1684   */\n      add\n        /* \"#utility.yul\":1658:1684   */\n      swap1\n      pop\n        /* \"#utility.yul\":1694:1765   */\n      tag_83\n        /* \"#utility.yul\":1762:1763   */\n      0x00\n        /* \"#utility.yul\":1751:1760   */\n      dup4\n        /* \"#utility.yul\":1747:1764   */\n      add\n        /* \"#utility.yul\":1738:1744   */\n      dup6\n        /* \"#utility.yul\":1694:1765   */\n      tag_56\n      jump\t// in\n    tag_83:\n        /* \"#utility.yul\":1775:1847   */\n      tag_84\n        /* \"#utility.yul\":1843:1845   */\n      0x20\n        /* \"#utility.yul\":1832:1841   */\n      dup4\n        /* \"#utility.yul\":1828:1846   */\n      add\n        /* \"#utility.yul\":1819:1825   */\n      dup5\n        /* \"#utility.yul\":1775:1847   */\n      tag_56\n      jump\t// in\n    tag_84:\n        /* \"#utility.yul\":1522:1854   */\n      swap4\n      swap3\n      pop\n      pop\n      pop\n      jump\t// out\n        /* \"#utility.yul\":1860:1936   */\n    tag_57:\n        /* \"#utility.yul\":1896:1903   */\n      0x00\n        /* \"#utility.yul\":1925:1930   */\n      dup2\n        /* \"#utility.yul\":1914:1930   */\n      swap1\n      pop\n        /* \"#utility.yul\":1860:1936   */\n      swap2\n      swap1\n      pop\n      jump\t// out\n        /* \"#utility.yul\":1942:2062   */\n    tag_58:\n        /* \"#utility.yul\":2014:2037   */\n      tag_87\n        /* \"#utility.yul\":2031:2036   */\n      dup2\n        /* \"#utility.yul\":2014:2037   */\n      tag_57\n      jump\t// in\n    tag_87:\n        /* \"#utility.yul\":2007:2012   */\n      dup2\n        /* \"#utility.yul\":2004:2038   */\n      eq\n        /* \"#utility.yul\":1994:2056   */\n      tag_88\n      jumpi\n        /* \"#utility.yul\":2052:2053   */\n      0x00\n        /* \"#utility.yul\":2049:2050   */\n      dup1\n        /* \"#utility.yul\":2042:2054   */\n      revert\n        /* \"#utility.yul\":1994:2056   */\n    tag_88:\n        /* \"#utility.yul\":1942:2062   */\n      pop\n      jump\t// out\n        /* \"#utility.yul\":2068:2205   */\n    tag_59:\n        /* \"#utility.yul\":2113:2118   */\n      0x00\n        /* \"#utility.yul\":2151:2157   */\n      dup2\n        /* \"#utility.yul\":2138:2158   */\n      calldataload\n        /* \"#utility.yul\":2129:2158   */\n      swap1\n      pop\n        /* \"#utility.yul\":2167:2199   */\n      tag_90\n        /* \"#utility.yul\":2193:2198   */\n      dup2\n        /* \"#utility.yul\":2167:2199   */\n      tag_58\n      jump\t// in\n    tag_90:\n        /* \"#utility.yul\":2068:2205   */\n      swap3\n      swap2\n      pop\n      pop\n      jump\t// out\n        /* \"#utility.yul\":2211:2681   */\n    tag_29:\n        /* \"#utility.yul\":2277:2283   */\n      0x00\n        /* \"#utility.yul\":2285:2291   */\n      dup1\n        /* \"#utility.yul\":2334:2336   */\n      0x40\n        /* \"#utility.yul\":2322:2331   */\n      dup4\n        /* \"#utility.yul\":2313:2320   */\n      dup6\n        /* \"#utility.yul\":2309:2332   */\n      sub\n        /* \"#utility.yul\":2305:2337   */\n      slt\n        /* \"#utility.yul\":2302:2421   */\n      iszero\n      tag_92\n      jumpi\n        /* \"#utility.yul\":2340:2419   */\n      tag_93\n      tag_51\n      jump\t// in\n    tag_93:\n        /* \"#utility.yul\":2302:2421   */\n    tag_92:\n        /* \"#utility.yul\":2460:2461   */\n      0x00\n        /* \"#utility.yul\":2485:2537   */\n      tag_94\n        /* \"#utility.yul\":2529:2536   */\n      dup6\n        /* \"#utility.yul\":2520:2526   */\n      dup3\n        /* \"#utility.yul\":2509:2518   */\n      dup7\n        /* \"#utility.yul\":2505:2527   */\n      add\n        /* \"#utility.yul\":2485:2537   */\n      tag_59\n      jump\t// in\n    tag_94:\n        /* \"#utility.yul\":2475:2537   */\n      swap3\n      pop\n        /* \"#utility.yul\":2431:2547   */\n      pop\n        /* \"#utility.yul\":2586:2588   */\n      0x20\n        /* \"#utility.yul\":2612:2664   */\n      tag_95\n        /* \"#utility.yul\":2656:2663   */\n      dup6\n        /* \"#utility.yul\":2647:2653   */\n      dup3\n        /* \"#utility.yul\":2636:2645   */\n      dup7\n        /* \"#utility.yul\":2632:2654   */\n      add\n        /* \"#utility.yul\":2612:2664   */\n      tag_59\n      jump\t// in\n    tag_95:\n        /* \"#utility.yul\":2602:2664   */\n      swap2\n      pop\n        /* \"#utility.yul\":2557:2674   */\n      pop\n        /* \"#utility.yul\":2211:2681   */\n      swap3\n      pop\n      swap3\n      swap1\n      pop\n      jump\t// out\n        /* \"#utility.yul\":2687:2802   */\n    tag_60:\n        /* \"#utility.yul\":2772:2795   */\n      tag_97\n        /* \"#utility.yul\":2789:2794   */\n      dup2\n        /* \"#utility.yul\":2772:2795   */\n      tag_57\n      jump\t// in\n    tag_97:\n        /* \"#utility.yul\":2767:2770   */\n      dup3\n        /* \"#utility.yul\":2760:2796   */\n      mstore\n        /* \"#utility.yul\":2687:2802   */\n      pop\n      pop\n      jump\t// out\n        /* \"#utility.yul\":2808:3026   */\n    tag_32:\n        /* \"#utility.yul\":2899:2903   */\n      0x00\n        /* \"#utility.yul\":2937:2939   */\n      0x20\n        /* \"#utility.yul\":2926:2935   */\n      dup3\n        /* \"#utility.yul\":2922:2940   */\n      add\n        /* \"#utility.yul\":2914:2940   */\n      swap1\n      pop\n        /* \"#utility.yul\":2950:3019   */\n      tag_99\n        /* \"#utility.yul\":3016:3017   */\n      0x00\n        /* \"#utility.yul\":3005:3014   */\n      dup4\n        /* \"#utility.yul\":3001:3018   */\n      add\n        /* \"#utility.yul\":2992:2998   */\n      dup5\n        /* \"#utility.yul\":2950:3019   */\n      tag_60\n      jump\t// in\n    tag_99:\n        /* \"#utility.yul\":2808:3026   */\n      swap3\n      swap2\n      pop\n      pop\n      jump\t// out\n        /* \"#utility.yul\":3032:3212   */\n    tag_61:\n        /* \"#utility.yul\":3080:3157   */\n      0x4e487b7100000000000000000000000000000000000000000000000000000000\n        /* \"#utility.yul\":3077:3078   */\n      0x00\n        /* \"#utility.yul\":3070:3158   */\n      mstore\n        /* \"#utility.yul\":3177:3181   */\n      0x11\n        /* \"#utility.yul\":3174:3175   */\n      0x04\n        /* \"#utility.yul\":3167:3182   */\n      mstore\n        /* \"#utility.yul\":3201:3205   */\n      0x24\n        /* \"#utility.yul\":3198:3199   */\n      0x00\n        /* \"#utility.yul\":3191:3206   */\n      revert\n        /* \"#utility.yul\":3218:3409   */\n    tag_35:\n        /* \"#utility.yul\":3258:3261   */\n      0x00\n        /* \"#utility.yul\":3277:3297   */\n      tag_102\n        /* \"#utility.yul\":3295:3296   */\n      dup3\n        /* \"#utility.yul\":3277:3297   */\n      tag_53\n      jump\t// in\n    tag_102:\n        /* \"#utility.yul\":3272:3297   */\n      swap2\n      pop\n        /* \"#utility.yul\":3311:3331   */\n      tag_103\n        /* \"#utility.yul\":3329:3330   */\n      dup4\n        /* \"#utility.yul\":3311:3331   */\n      tag_53\n      jump\t// in\n    tag_103:\n        /* \"#utility.yul\":3306:3331   */\n      swap3\n      pop\n        /* \"#utility.yul\":3354:3355   */\n      dup3\n        /* \"#utility.yul\":3351:3352   */\n      dup3\n        /* \"#utility.yul\":3347:3356   */\n      add\n        /* \"#utility.yul\":3340:3356   */\n      swap1\n      pop\n        /* \"#utility.yul\":3375:3378   */\n      dup1\n        /* \"#utility.yul\":3372:3373   */\n      dup3\n        /* \"#utility.yul\":3369:3379   */\n      gt\n        /* \"#utility.yul\":3366:3402   */\n      iszero\n      tag_104\n      jumpi\n        /* \"#utility.yul\":3382:3400   */\n      tag_105\n      tag_61\n      jump\t// in\n    tag_105:\n        /* \"#utility.yul\":3366:3402   */\n    tag_104:\n        /* \"#utility.yul\":3218:3409   */\n      swap3\n      swap2\n      pop\n      pop\n      jump\t// out\n        /* \"#utility.yul\":3415:3595   */\n    tag_62:\n        /* \"#utility.yul\":3463:3540   */\n      0x4e487b7100000000000000000000000000000000000000000000000000000000\n        /* \"#utility.yul\":3460:3461   */\n      0x00\n        /* \"#utility.yul\":3453:3541   */\n      mstore\n        /* \"#utility.yul\":3560:3564   */\n      0x12\n        /* \"#utility.yul\":3557:3558   */\n      0x04\n        /* \"#utility.yul\":3550:3565   */\n      mstore\n        /* \"#utility.yul\":3584:3588   */\n      0x24\n        /* \"#utility.yul\":3581:3582   */\n      0x00\n        /* \"#utility.yul\":3574:3589   */\n      revert\n        /* \"#utility.yul\":3601:3786   */\n    tag_38:\n        /* \"#utility.yul\":3641:3642   */\n      0x00\n        /* \"#utility.yul\":3658:3678   */\n      tag_108\n        /* \"#utility.yul\":3676:3677   */\n      dup3\n        /* \"#utility.yul\":3658:3678   */\n      tag_53\n      jump\t// in\n    tag_108:\n        /* \"#utility.yul\":3653:3678   */\n      swap2\n      pop\n        /* \"#utility.yul\":3692:3712   */\n      tag_109\n        /* \"#utility.yul\":3710:3711   */\n      dup4\n        /* \"#utility.yul\":3692:3712   */\n      tag_53\n      jump\t// in\n    tag_109:\n        /* \"#utility.yul\":3687:3712   */\n      swap3\n      pop\n        /* \"#utility.yul\":3731:3732   */\n      dup3\n        /* \"#utility.yul\":3721:3756   */\n      tag_110\n      jumpi\n        /* \"#utility.yul\":3736:3754   */\n      tag_111\n      tag_62\n      jump\t// in\n    tag_111:\n        /* \"#utility.yul\":3721:3756   */\n    tag_110:\n        /* \"#utility.yul\":3778:3779   */\n      dup3\n        /* \"#utility.yul\":3775:3776   */\n      dup3\n        /* \"#utility.yul\":3771:3780   */\n      div\n        /* \"#utility.yul\":3766:3780   */\n      swap1\n      pop\n        /* \"#utility.yul\":3601:3786   */\n      swap3\n      swap2\n      pop\n      pop\n      jump\t// out\n        /* \"#utility.yul\":3792:3968   */\n    tag_40:\n        /* \"#utility.yul\":3824:3825   */\n      0x00\n        /* \"#utility.yul\":3841:3861   */\n      tag_113\n        /* \"#utility.yul\":3859:3860   */\n      dup3\n        /* \"#utility.yul\":3841:3861   */\n      tag_53\n      jump\t// in\n    tag_113:\n        /* \"#utility.yul\":3836:3861   */\n      swap2\n      pop\n        /* \"#utility.yul\":3875:3895   */\n      tag_114\n        /* \"#utility.yul\":3893:3894   */\n      dup4\n        /* \"#utility.yul\":3875:3895   */\n      tag_53\n      jump\t// in\n    tag_114:\n        /* \"#utility.yul\":3870:3895   */\n      swap3\n      pop\n        /* \"#utility.yul\":3914:3915   */\n      dup3\n        /* \"#utility.yul\":3904:3939   */\n      tag_115\n      jumpi\n        /* \"#utility.yul\":3919:3937   */\n      tag_116\n      tag_62\n      jump\t// in\n    tag_116:\n        /* \"#utility.yul\":3904:3939   */\n    tag_115:\n        /* \"#utility.yul\":3960:3961   */\n      dup3\n        /* \"#utility.yul\":3957:3958   */\n      dup3\n        /* \"#utility.yul\":3953:3962   */\n      mod\n        /* \"#utility.yul\":3948:3962   */\n      swap1\n      pop\n        /* \"#utility.yul\":3792:3968   */\n      swap3\n      swap2\n      pop\n      pop\n      jump\t// out\n        /* \"#utility.yul\":3974:4168   */\n    tag_43:\n        /* \"#utility.yul\":4014:4018   */\n      0x00\n        /* \"#utility.yul\":4034:4054   */\n      tag_118\n        /* \"#utility.yul\":4052:4053   */\n      dup3\n        /* \"#utility.yul\":4034:4054   */\n      tag_53\n      jump\t// in\n    tag_118:\n        /* \"#utility.yul\":4029:4054   */\n      swap2\n      pop\n        /* \"#utility.yul\":4068:4088   */\n      tag_119\n        /* \"#utility.yul\":4086:4087   */\n      dup4\n        /* \"#utility.yul\":4068:4088   */\n      tag_53\n      jump\t// in\n    tag_119:\n        /* \"#utility.yul\":4063:4088   */\n      swap3\n      pop\n        /* \"#utility.yul\":4112:4113   */\n      dup3\n        /* \"#utility.yul\":4109:4110   */\n      dup3\n        /* \"#utility.yul\":4105:4114   */\n      sub\n        /* \"#utility.yul\":4097:4114   */\n      swap1\n      pop\n        /* \"#utility.yul\":4136:4137   */\n      dup2\n        /* \"#utility.yul\":4130:4134   */\n      dup2\n        /* \"#utility.yul\":4127:4138   */\n      gt\n        /* \"#utility.yul\":4124:4161   */\n      iszero\n      tag_120\n      jumpi\n        /* \"#utility.yul\":4141:4159   */\n      tag_121\n      tag_61\n      jump\t// in\n    tag_121:\n        /* \"#utility.yul\":4124:4161   */\n    tag_120:\n        /* \"#utility.yul\":3974:4168   */\n      swap3\n      swap2\n      pop\n      pop\n      jump\t// out\n        /* \"#utility.yul\":4174:4584   */\n    tag_46:\n        /* \"#utility.yul\":4214:4221   */\n      0x00\n        /* \"#utility.yul\":4237:4257   */\n      tag_123\n        /* \"#utility.yul\":4255:4256   */\n      dup3\n        /* \"#utility.yul\":4237:4257   */\n      tag_53\n      jump\t// in\n    tag_123:\n        /* \"#utility.yul\":4232:4257   */\n      swap2\n      pop\n        /* \"#utility.yul\":4271:4291   */\n      tag_124\n        /* \"#utility.yul\":4289:4290   */\n      dup4\n        /* \"#utility.yul\":4271:4291   */\n      tag_53\n      jump\t// in\n    tag_124:\n        /* \"#utility.yul\":4266:4291   */\n      swap3\n      pop\n        /* \"#utility.yul\":4326:4327   */\n      dup3\n        /* \"#utility.yul\":4323:4324   */\n      dup3\n        /* \"#utility.yul\":4319:4328   */\n      mul\n        /* \"#utility.yul\":4348:4378   */\n      tag_125\n        /* \"#utility.yul\":4366:4377   */\n      dup2\n        /* \"#utility.yul\":4348:4378   */\n      tag_53\n      jump\t// in\n    tag_125:\n        /* \"#utility.yul\":4337:4378   */\n      swap2\n      pop\n        /* \"#utility.yul\":4527:4528   */\n      dup3\n        /* \"#utility.yul\":4518:4525   */\n      dup3\n        /* \"#utility.yul\":4514:4529   */\n      div\n        /* \"#utility.yul\":4511:4512   */\n      dup5\n        /* \"#utility.yul\":4508:4530   */\n      eq\n        /* \"#utility.yul\":4488:4489   */\n      dup4\n        /* \"#utility.yul\":4481:4490   */\n      iszero\n        /* \"#utility.yul\":4461:4544   */\n      or\n        /* \"#utility.yul\":4438:4577   */\n      tag_126\n      jumpi\n        /* \"#utility.yul\":4557:4575   */\n      tag_127\n      tag_61\n      jump\t// in\n    tag_127:\n        /* \"#utility.yul\":4438:4577   */\n    tag_126:\n        /* \"#utility.yul\":4222:4584   */\n      pop\n        /* \"#utility.yul\":4174:4584   */\n      swap3\n      swap2\n      pop\n      pop\n      jump\t// out\n        /* \"#utility.yul\":4590:4962   */\n    tag_49:\n        /* \"#utility.yul\":4629:4633   */\n      0x00\n        /* \"#utility.yul\":4649:4668   */\n      tag_129\n        /* \"#utility.yul\":4666:4667   */\n      dup3\n        /* \"#utility.yul\":4649:4668   */\n      tag_57\n      jump\t// in\n    tag_129:\n        /* \"#utility.yul\":4644:4668   */\n      swap2\n      pop\n        /* \"#utility.yul\":4682:4701   */\n      tag_130\n        /* \"#utility.yul\":4699:4700   */\n      dup4\n        /* \"#utility.yul\":4682:4701   */\n      tag_57\n      jump\t// in\n    tag_130:\n        /* \"#utility.yul\":4677:4701   */\n      swap3\n      pop\n        /* \"#utility.yul\":4725:4726   */\n      dup3\n        /* \"#utility.yul\":4722:4723   */\n      dup3\n        /* \"#utility.yul\":4718:4727   */\n      sub\n        /* \"#utility.yul\":4710:4727   */\n      swap1\n      pop\n        /* \"#utility.yul\":4919:4920   */\n      dup2\n        /* \"#utility.yul\":4913:4917   */\n      dup2\n        /* \"#utility.yul\":4909:4921   */\n      slt\n        /* \"#utility.yul\":4905:4906   */\n      0x00\n        /* \"#utility.yul\":4902:4903   */\n      dup5\n        /* \"#utility.yul\":4898:4907   */\n      slt\n        /* \"#utility.yul\":4894:4922   */\n      and\n        /* \"#utility.yul\":4877:4878   */\n      dup3\n        /* \"#utility.yul\":4871:4875   */\n      dup3\n        /* \"#utility.yul\":4867:4879   */\n      sgt\n        /* \"#utility.yul\":4862:4863   */\n      0x00\n        /* \"#utility.yul\":4859:4860   */\n      dup6\n        /* \"#utility.yul\":4855:4864   */\n      slt\n        /* \"#utility.yul\":4848:4865   */\n      iszero\n        /* \"#utility.yul\":4844:4880   */\n      and\n        /* \"#utility.yul\":4828:4932   */\n      or\n        /* \"#utility.yul\":4825:4955   */\n      iszero\n      tag_131\n      jumpi\n        /* \"#utility.yul\":4935:4953   */\n      tag_132\n      tag_61\n      jump\t// in\n    tag_132:\n        /* \"#utility.yul\":4825:4955   */\n    tag_131:\n        /* \"#utility.yul\":4590:4962   */\n      swap3\n      swap2\n      pop\n      pop\n      jump\t// out\n\n    auxdata: 0xa26469706673582212206f6c2f6c577b3da27422d1984621fbbb002a582061e13eff888a6416cd08566064736f6c63430008160033\n}\n",
				"bytecode": {
					"linkReferences": {},
					"object": "608060405234801561000f575f80fd5b506104f78061001d5f395ff3fe608060405234801561000f575f80fd5b5060043610610055575f3560e01c8063771602f714610059578063a391c15b14610089578063b67d77c5146100ba578063c8a4ac9c146100ea578063ef3eeaba1461011a575b5f80fd5b610073600480360381019061006e91906101fa565b61014a565b6040516100809190610247565b60405180910390f35b6100a3600480360381019061009e91906101fa565b61015f565b6040516100b1929190610260565b60405180910390f35b6100d460048036038101906100cf91906101fa565b610184565b6040516100e19190610247565b60405180910390f35b61010460048036038101906100ff91906101fa565b610199565b6040516101119190610247565b60405180910390f35b610134600480360381019061012f91906102ba565b6101ae565b6040516101419190610307565b60405180910390f35b5f8183610157919061034d565b905092915050565b5f80828461016d91906103ad565b838561017991906103dd565b915091509250929050565b5f8183610191919061040d565b905092915050565b5f81836101a69190610440565b905092915050565b5f81836101bb9190610481565b905092915050565b5f80fd5b5f819050919050565b6101d9816101c7565b81146101e3575f80fd5b50565b5f813590506101f4816101d0565b92915050565b5f80604083850312156102105761020f6101c3565b5b5f61021d858286016101e6565b925050602061022e858286016101e6565b9150509250929050565b610241816101c7565b82525050565b5f60208201905061025a5f830184610238565b92915050565b5f6040820190506102735f830185610238565b6102806020830184610238565b9392505050565b5f819050919050565b61029981610287565b81146102a3575f80fd5b50565b5f813590506102b481610290565b92915050565b5f80604083850312156102d0576102cf6101c3565b5b5f6102dd858286016102a6565b92505060206102ee858286016102a6565b9150509250929050565b61030181610287565b82525050565b5f60208201905061031a5f8301846102f8565b92915050565b7f4e487b71000000000000000000000000000000000000000000000000000000005f52601160045260245ffd5b5f610357826101c7565b9150610362836101c7565b925082820190508082111561037a57610379610320565b5b92915050565b7f4e487b71000000000000000000000000000000000000000000000000000000005f52601260045260245ffd5b5f6103b7826101c7565b91506103c2836101c7565b9250826103d2576103d1610380565b5b828204905092915050565b5f6103e7826101c7565b91506103f2836101c7565b92508261040257610401610380565b5b828206905092915050565b5f610417826101c7565b9150610422836101c7565b925082820390508181111561043a57610439610320565b5b92915050565b5f61044a826101c7565b9150610455836101c7565b9250828202610463816101c7565b9150828204841483151761047a57610479610320565b5b5092915050565b5f61048b82610287565b915061049683610287565b925082820390508181125f8412168282135f8512151617156104bb576104ba610320565b5b9291505056fea26469706673582212206f6c2f6c577b3da27422d1984621fbbb002a582061e13eff888a6416cd08566064736f6c63430008160033",
					"opcodes": "PUSH1 0x80 PUSH1 0x40 MSTORE CALLVALUE DUP1 ISZERO PUSH2 0xF JUMPI PUSH0 DUP1 REVERT JUMPDEST POP PUSH2 0x4F7 DUP1 PUSH2 0x1D PUSH0 CODECOPY PUSH0 RETURN INVALID PUSH1 0x80 PUSH1 0x40 MSTORE CALLVALUE DUP1 ISZERO PUSH2 0xF JUMPI PUSH0 DUP1 REVERT JUMPDEST POP PUSH1 0x4 CALLDATASIZE LT PUSH2 0x55 JUMPI PUSH0 CALLDATALOAD PUSH1 0xE0 SHR DUP1 PUSH4 0x771602F7 EQ PUSH2 0x59 JUMPI DUP1 PUSH4 0xA391C15B EQ PUSH2 0x89 JUMPI DUP1 PUSH4 0xB67D77C5 EQ PUSH2 0xBA JUMPI DUP1 PUSH4 0xC8A4AC9C EQ PUSH2 0xEA JUMPI DUP1 PUSH4 0xEF3EEABA EQ PUSH2 0x11A JUMPI JUMPDEST PUSH0 DUP1 REVERT JUMPDEST PUSH2 0x73 PUSH1 0x4 DUP1 CALLDATASIZE SUB DUP2 ADD SWAP1 PUSH2 0x6E SWAP2 SWAP1 PUSH2 0x1FA JUMP JUMPDEST PUSH2 0x14A JUMP JUMPDEST PUSH1 0x40 MLOAD PUSH2 0x80 SWAP2 SWAP1 PUSH2 0x247 JUMP JUMPDEST PUSH1 0x40 MLOAD DUP1 SWAP2 SUB SWAP1 RETURN JUMPDEST PUSH2 0xA3 PUSH1 0x4 DUP1 CALLDATASIZE SUB DUP2 ADD SWAP1 PUSH2 0x9E SWAP2 SWAP1 PUSH2 0x1FA JUMP JUMPDEST PUSH2 0x15F JUMP JUMPDEST PUSH1 0x40 MLOAD PUSH2 0xB1 SWAP3 SWAP2 SWAP1 PUSH2 0x260 JUMP JUMPDEST PUSH1 0x40 MLOAD DUP1 SWAP2 SUB SWAP1 RETURN JUMPDEST PUSH2 0xD4 PUSH1 0x4 DUP1 CALLDATASIZE SUB DUP2 ADD SWAP1 PUSH2 0xCF SWAP2 SWAP1 PUSH2 0x1FA JUMP JUMPDEST PUSH2 0x184 JUMP JUMPDEST PUSH1 0x40 MLOAD PUSH2 0xE1 SWAP2 SWAP1 PUSH2 0x247 JUMP JUMPDEST PUSH1 0x40 MLOAD DUP1 SWAP2 SUB SWAP1 RETURN JUMPDEST PUSH2 0x104 PUSH1 0x4 DUP1 CALLDATASIZE SUB DUP2 ADD SWAP1 PUSH2 0xFF SWAP2 SWAP1 PUSH2 0x1FA JUMP JUMPDEST PUSH2 0x199 JUMP JUMPDEST PUSH1 0x40 MLOAD PUSH2 0x111 SWAP2 SWAP1 PUSH2 0x247 JUMP JUMPDEST PUSH1 0x40 MLOAD DUP1 SWAP2 SUB SWAP1 RETURN JUMPDEST PUSH2 0x134 PUSH1 0x4 DUP1 CALLDATASIZE SUB DUP2 ADD SWAP1 PUSH2 0x12F SWAP2 SWAP1 PUSH2 0x2BA JUMP JUMPDEST PUSH2 0x1AE JUMP JUMPDEST PUSH1 0x40 MLOAD PUSH2 0x141 SWAP2 SWAP1 PUSH2 0x307 JUMP JUMPDEST PUSH1 0x40 MLOAD DUP1 SWAP2 SUB SWAP1 RETURN JUMPDEST PUSH0 DUP2 DUP4 PUSH2 0x157 SWAP2 SWAP1 PUSH2 0x34D JUMP JUMPDEST SWAP1 POP SWAP3 SWAP2 POP POP JUMP JUMPDEST PUSH0 DUP1 DUP3 DUP5 PUSH2 0x16D SWAP2 SWAP1 PUSH2 0x3AD JUMP JUMPDEST DUP4 DUP6 PUSH2 0x179 SWAP2 SWAP1 PUSH2 0x3DD JUMP JUMPDEST SWAP2 POP SWAP2 POP SWAP3 POP SWAP3 SWAP1 POP JUMP JUMPDEST PUSH0 DUP2 DUP4 PUSH2 0x191 SWAP2 SWAP1 PUSH2 0x40D JUMP JUMPDEST SWAP1 POP SWAP3 SWAP2 POP POP JUMP JUMPDEST PUSH0 DUP2 DUP4 PUSH2 0x1A6 SWAP2 SWAP1 PUSH2 0x440 JUMP JUMPDEST SWAP1 POP SWAP3 SWAP2 POP POP JUMP JUMPDEST PUSH0 DUP2 DUP4 PUSH2 0x1BB SWAP2 SWAP1 PUSH2 0x481 JUMP JUMPDEST SWAP1 POP SWAP3 SWAP2 POP POP JUMP JUMPDEST PUSH0 DUP1 REVERT JUMPDEST PUSH0 DUP2 SWAP1 POP SWAP2 SWAP1 POP JUMP JUMPDEST PUSH2 0x1D9 DUP2 PUSH2 0x1C7 JUMP JUMPDEST DUP2 EQ PUSH2 0x1E3 JUMPI PUSH0 DUP1 REVERT JUMPDEST POP JUMP JUMPDEST PUSH0 DUP2 CALLDATALOAD SWAP1 POP PUSH2 0x1F4 DUP2 PUSH2 0x1D0 JUMP JUMPDEST SWAP3 SWAP2 POP POP JUMP JUMPDEST PUSH0 DUP1 PUSH1 0x40 DUP4 DUP6 SUB SLT ISZERO PUSH2 0x210 JUMPI PUSH2 0x20F PUSH2 0x1C3 JUMP JUMPDEST JUMPDEST PUSH0 PUSH2 0x21D DUP6 DUP3 DUP7 ADD PUSH2 0x1E6 JUMP JUMPDEST SWAP3 POP POP PUSH1 0x20 PUSH2 0x22E DUP6 DUP3 DUP7 ADD PUSH2 0x1E6 JUMP JUMPDEST SWAP2 POP POP SWAP3 POP SWAP3 SWAP1 POP JUMP JUMPDEST PUSH2 0x241 DUP2 PUSH2 0x1C7 JUMP JUMPDEST DUP3 MSTORE POP POP JUMP JUMPDEST PUSH0 PUSH1 0x20 DUP3 ADD SWAP1 POP PUSH2 0x25A PUSH0 DUP4 ADD DUP5 PUSH2 0x238 JUMP JUMPDEST SWAP3 SWAP2 POP POP JUMP JUMPDEST PUSH0 PUSH1 0x40 DUP3 ADD SWAP1 POP PUSH2 0x273 PUSH0 DUP4 ADD DUP6 PUSH2 0x238 JUMP JUMPDEST PUSH2 0x280 PUSH1 0x20 DUP4 ADD DUP5 PUSH2 0x238 JUMP JUMPDEST SWAP4 SWAP3 POP POP POP JUMP JUMPDEST PUSH0 DUP2 SWAP1 POP SWAP2 SWAP1 POP JUMP JUMPDEST PUSH2 0x299 DUP2 PUSH2 0x287 JUMP JUMPDEST DUP2 EQ PUSH2 0x2A3 JUMPI PUSH0 DUP1 REVERT JUMPDEST POP JUMP JUMPDEST PUSH0 DUP2 CALLDATALOAD SWAP1 POP PUSH2 0x2B4 DUP2 PUSH2 0x290 JUMP JUMPDEST SWAP3 SWAP2 POP POP JUMP JUMPDEST PUSH0 DUP1 PUSH1 0x40 DUP4 DUP6 SUB SLT ISZERO PUSH2 0x2D0 JUMPI PUSH2 0x2CF PUSH2 0x1C3 JUMP JUMPDEST JUMPDEST PUSH0 PUSH2 0x2DD DUP6 DUP3 DUP7 ADD PUSH2 0x2A6 JUMP JUMPDEST SWAP3 POP POP PUSH1 0x20 PUSH2 0x2EE DUP6 DUP3 DUP7 ADD PUSH2 0x2A6 JUMP JUMPDEST SWAP2 POP POP SWAP3 POP SWAP3 SWAP1 POP JUMP JUMPDEST PUSH2 0x301 DUP2 PUSH2 0x287 JUMP JUMPDEST DUP3 MSTORE POP POP JUMP JUMPDEST PUSH0 PUSH1 0x20 DUP3 ADD SWAP1 POP PUSH2 0x31A PUSH0 DUP4 ADD DUP5 PUSH2 0x2F8 JUMP JUMPDEST SWAP3 SWAP2 POP POP JUMP JUMPDEST PUSH32 0x4E487B7100000000000000000000000000000000000000000000000000000000 PUSH0 MSTORE PUSH1 0x11 PUSH1 0x4 MSTORE PUSH1 0x24 PUSH0 REVERT JUMPDEST PUSH0 PUSH2 0x357 DUP3 PUSH2 0x1C7 JUMP JUMPDEST SWAP2 POP PUSH2 0x362 DUP4 PUSH2 0x1C7 JUMP JUMPDEST SWAP3 POP DUP3 DUP3 ADD SWAP1 POP DUP1 DUP3 GT ISZERO PUSH2 0x37A JUMPI PUSH2 0x379 PUSH2 0x320 JUMP JUMPDEST JUMPDEST SWAP3 SWAP2 POP POP JUMP JUMPDEST PUSH32 0x4E487B7100000000000000000000000000000000000000000000000000000000 PUSH0 MSTORE PUSH1 0x12 PUSH1 0x4 MSTORE PUSH1 0x24 PUSH0 REVERT JUMPDEST PUSH0 PUSH2 0x3B7 DUP3 PUSH2 0x1C7 JUMP JUMPDEST SWAP2 POP PUSH2 0x3C2 DUP4 PUSH2 0x1C7 JUMP JUMPDEST SWAP3 POP DUP3 PUSH2 0x3D2 JUMPI PUSH2 0x3D1 PUSH2 0x380 JUMP JUMPDEST JUMPDEST DUP3 DUP3 DIV SWAP1 POP SWAP3 SWAP2 POP POP JUMP JUMPDEST PUSH0 PUSH2 0x3E7 DUP3 PUSH2 0x1C7 JUMP JUMPDEST SWAP2 POP PUSH2 0x3F2 DUP4 PUSH2 0x1C7 JUMP JUMPDEST SWAP3 POP DUP3 PUSH2 0x402 JUMPI PUSH2 0x401 PUSH2 0x380 JUMP JUMPDEST JUMPDEST DUP3 DUP3 MOD SWAP1 POP SWAP3 SWAP2 POP POP JUMP JUMPDEST PUSH0 PUSH2 0x417 DUP3 PUSH2 0x1C7 JUMP JUMPDEST SWAP2 POP PUSH2 0x422 DUP4 PUSH2 0x1C7 JUMP JUMPDEST SWAP3 POP DUP3 DUP3 SUB SWAP1 POP DUP2 DUP2 GT ISZERO PUSH2 0x43A JUMPI PUSH2 0x439 PUSH2 0x320 JUMP JUMPDEST JUMPDEST SWAP3 SWAP2 POP POP JUMP JUMPDEST PUSH0 PUSH2 0x44A DUP3 PUSH2 0x1C7 JUMP JUMPDEST SWAP2 POP PUSH2 0x455 DUP4 PUSH2 0x1C7 JUMP JUMPDEST SWAP3 POP DUP3 DUP3 MUL PUSH2 0x463 DUP2 PUSH2 0x1C7 JUMP JUMPDEST SWAP2 POP DUP3 DUP3 DIV DUP5 EQ DUP4 ISZERO OR PUSH2 0x47A JUMPI PUSH2 0x479 PUSH2 0x320 JUMP JUMPDEST JUMPDEST POP SWAP3 SWAP2 POP POP JUMP JUMPDEST PUSH0 PUSH2 0x48B DUP3 PUSH2 0x287 JUMP JUMPDEST SWAP2 POP PUSH2 0x496 DUP4 PUSH2 0x287 JUMP JUMPDEST SWAP3 POP DUP3 DUP3 SUB SWAP1 POP DUP2 DUP2 SLT PUSH0 DUP5 SLT AND DUP3 DUP3 SGT PUSH0 DUP6 SLT ISZERO AND OR ISZERO PUSH2 0x4BB JUMPI PUSH2 0x4BA PUSH2 0x320 JUMP JUMPDEST JUMPDEST SWAP3 SWAP2 POP POP JUMP INVALID LOG2 PUSH5 0x6970667358 0x22 SLT KECCAK256 PUSH16 0x6C2F6C577B3DA27422D1984621FBBB00 0x2A PC KECCAK256 PUSH2 0xE13E SELFDESTRUCT DUP9 DUP11 PUSH5 0x16CD085660 PUSH5 0x736F6C6343 STOP ADDMOD AND STOP CALLER "
				},
				"gasEstimates": {
					"creation": {
						"codeDepositCost": "254200",
						"executionCost": "292",
						"totalCost": "254492"
					},
					"external": {
						"add(uint256,uint256)": "infinite",
						"div(uint256,uint256)": "infinite",
						"mul(uint256,uint256)": "infinite",
						"sub(uint256,uint256)": "infinite",
						"sub2(int256,int256)": "infinite"
					}
				},
				"methodIdentifiers": {
					"add(uint256,uint256)": "771602f7",
					"div(uint256,uint256)": "a391c15b",
					"mul(uint256,uint256)": "c8a4ac9c",
					"sub(uint256,uint256)": "b67d77c5",
					"sub2(int256,int256)": "ef3eeaba"
				}
			},
			"storageLayout": {
				"storage": [],
				"types": null
			},
			"userdoc": {
				"kind": "user",
				"methods": {},
				"version": 1
			}
		}
	}
}