{
	"contracts/basic5.sol": {
		"Basic5": {
			"abi": [
				{
					"inputs": [],
					"name": "getA",
					"outputs": [
						{
							"internalType": "bytes",
							"name": "",
							"type": "bytes"
						}
					],
					"stateMutability": "view",
					"type": "function"
				},
				{
					"inputs": [
						{
							"internalType": "bytes",
							"name": "_a",
							"type": "bytes"
						}
					],
					"name": "setA",
					"outputs": [],
					"stateMutability": "nonpayable",
					"type": "function"
				},
				{
					"inputs": [],
					"name": "setB",
					"outputs": [],
					"stateMutability": "nonpayable",
					"type": "function"
				},
				{
					"inputs": [
						{
							"internalType": "string",
							"name": "_a",
							"type": "string"
						}
					],
					"name": "setC",
					"outputs": [],
					"stateMutability": "nonpayable",
					"type": "function"
				},
				{
					"inputs": [],
					"name": "setD",
					"outputs": [],
					"stateMutability": "nonpayable",
					"type": "function"
				}
			],
			"devdoc": {
				"kind": "dev",
				"methods": {},
				"version": 1
			},
			"evm": {
				"assembly": "    /* \"contracts/basic5.sol\":70:481  contract Basic5 {... */\n  mstore(0x40, 0x80)\n  callvalue\n  dup1\n  iszero\n  tag_1\n  jumpi\n  0x00\n  dup1\n  revert\ntag_1:\n  pop\n  dataSize(sub_0)\n  dup1\n  dataOffset(sub_0)\n  0x00\n  codecopy\n  0x00\n  return\nstop\n\nsub_0: assembly {\n        /* \"contracts/basic5.sol\":70:481  contract Basic5 {... */\n      mstore(0x40, 0x80)\n      callvalue\n      dup1\n      iszero\n      tag_1\n      jumpi\n      0x00\n      dup1\n      revert\n    tag_1:\n      pop\n      jumpi(tag_2, lt(calldatasize, 0x04))\n      shr(0xe0, calldataload(0x00))\n      dup1\n      0x1b72e3cd\n      eq\n      tag_3\n      jumpi\n      dup1\n      0x2de647de\n      eq\n      tag_4\n      jumpi\n      dup1\n      0xd1f4ba82\n      eq\n      tag_5\n      jumpi\n      dup1\n      0xd46300fd\n      eq\n      tag_6\n      jumpi\n      dup1\n      0xe1421c92\n      eq\n      tag_7\n      jumpi\n    tag_2:\n      0x00\n      dup1\n      revert\n        /* \"contracts/basic5.sol\":227:344  function setC(string memory _a) public {... */\n    tag_3:\n      tag_8\n      0x04\n      dup1\n      calldatasize\n      sub\n      dup2\n      add\n      swap1\n      tag_9\n      swap2\n      swap1\n      tag_10\n      jump\t// in\n    tag_9:\n      tag_11\n      jump\t// in\n    tag_8:\n      stop\n        /* \"contracts/basic5.sol\":350:398  function setD() public {... */\n    tag_4:\n      tag_12\n      tag_13\n      jump\t// in\n    tag_12:\n      stop\n        /* \"contracts/basic5.sol\":173:221  function setB() public {... */\n    tag_5:\n      tag_14\n      tag_15\n      jump\t// in\n    tag_14:\n      stop\n        /* \"contracts/basic5.sol\":404:479  function getA() public view returns(bytes memory) {... */\n    tag_6:\n      tag_16\n      tag_17\n      jump\t// in\n    tag_16:\n      mload(0x40)\n      tag_18\n      swap2\n      swap1\n      tag_19\n      jump\t// in\n    tag_18:\n      mload(0x40)\n      dup1\n      swap2\n      sub\n      swap1\n      return\n        /* \"contracts/basic5.sol\":106:167  function setA(bytes memory _a) public {... */\n    tag_7:\n      tag_20\n      0x04\n      dup1\n      calldatasize\n      sub\n      dup2\n      add\n      swap1\n      tag_21\n      swap2\n      swap1\n      tag_22\n      jump\t// in\n    tag_21:\n      tag_23\n      jump\t// in\n    tag_20:\n      stop\n        /* \"contracts/basic5.sol\":227:344  function setC(string memory _a) public {... */\n    tag_11:\n        /* \"contracts/basic5.sol\":286:288  _a */\n      dup1\n        /* \"contracts/basic5.sol\":276:277  a */\n      0x00\n        /* \"contracts/basic5.sol\":276:289  a = bytes(_a) */\n      swap1\n      dup2\n      tag_25\n      swap2\n      swap1\n      tag_26\n      jump\t// in\n    tag_25:\n      pop\n        /* \"contracts/basic5.sol\":227:344  function setC(string memory _a) public {... */\n      pop\n      jump\t// out\n        /* \"contracts/basic5.sol\":350:398  function setD() public {... */\n    tag_13:\n        /* \"contracts/basic5.sol\":383:391  a = \"12\" */\n      mload(0x40)\n      dup1\n      0x40\n      add\n      0x40\n      mstore\n      dup1\n      0x02\n      dup2\n      mstore\n      0x20\n      add\n      0x3132000000000000000000000000000000000000000000000000000000000000\n      dup2\n      mstore\n      pop\n        /* \"contracts/basic5.sol\":383:384  a */\n      0x00\n        /* \"contracts/basic5.sol\":383:391  a = \"12\" */\n      swap1\n      dup2\n      tag_28\n      swap2\n      swap1\n      tag_29\n      jump\t// in\n    tag_28:\n      pop\n        /* \"contracts/basic5.sol\":350:398  function setD() public {... */\n      jump\t// out\n        /* \"contracts/basic5.sol\":173:221  function setB() public {... */\n    tag_15:\n        /* \"contracts/basic5.sol\":206:214  a = \"ab\" */\n      mload(0x40)\n      dup1\n      0x40\n      add\n      0x40\n      mstore\n      dup1\n      0x02\n      dup2\n      mstore\n      0x20\n      add\n      0x6162000000000000000000000000000000000000000000000000000000000000\n      dup2\n      mstore\n      pop\n        /* \"contracts/basic5.sol\":206:207  a */\n      0x00\n        /* \"contracts/basic5.sol\":206:214  a = \"ab\" */\n      swap1\n      dup2\n      tag_31\n      swap2\n      swap1\n      tag_29\n      jump\t// in\n    tag_31:\n      pop\n        /* \"contracts/basic5.sol\":173:221  function setB() public {... */\n      jump\t// out\n        /* \"contracts/basic5.sol\":404:479  function getA() public view returns(bytes memory) {... */\n    tag_17:\n        /* \"contracts/basic5.sol\":440:452  bytes memory */\n      0x60\n        /* \"contracts/basic5.sol\":471:472  a */\n      0x00\n        /* \"contracts/basic5.sol\":464:472  return a */\n      dup1\n      sload\n      tag_33\n      swap1\n      tag_34\n      jump\t// in\n    tag_33:\n      dup1\n      0x1f\n      add\n      0x20\n      dup1\n      swap2\n      div\n      mul\n      0x20\n      add\n      mload(0x40)\n      swap1\n      dup2\n      add\n      0x40\n      mstore\n      dup1\n      swap3\n      swap2\n      swap1\n      dup2\n      dup2\n      mstore\n      0x20\n      add\n      dup3\n      dup1\n      sload\n      tag_35\n      swap1\n      tag_34\n      jump\t// in\n    tag_35:\n      dup1\n      iszero\n      tag_36\n      jumpi\n      dup1\n      0x1f\n      lt\n      tag_37\n      jumpi\n      0x0100\n      dup1\n      dup4\n      sload\n      div\n      mul\n      dup4\n      mstore\n      swap2\n      0x20\n      add\n      swap2\n      jump(tag_36)\n    tag_37:\n      dup3\n      add\n      swap2\n      swap1\n      0x00\n      mstore\n      keccak256(0x00, 0x20)\n      swap1\n    tag_38:\n      dup2\n      sload\n      dup2\n      mstore\n      swap1\n      0x01\n      add\n      swap1\n      0x20\n      add\n      dup1\n      dup4\n      gt\n      tag_38\n      jumpi\n      dup3\n      swap1\n      sub\n      0x1f\n      and\n      dup3\n      add\n      swap2\n    tag_36:\n      pop\n      pop\n      pop\n      pop\n      pop\n      swap1\n      pop\n        /* \"contracts/basic5.sol\":404:479  function getA() public view returns(bytes memory) {... */\n      swap1\n      jump\t// out\n        /* \"contracts/basic5.sol\":106:167  function setA(bytes memory _a) public {... */\n    tag_23:\n        /* \"contracts/basic5.sol\":158:160  _a */\n      dup1\n        /* \"contracts/basic5.sol\":154:155  a */\n      0x00\n        /* \"contracts/basic5.sol\":154:160  a = _a */\n      swap1\n      dup2\n      tag_40\n      swap2\n      swap1\n      tag_26\n      jump\t// in\n    tag_40:\n      pop\n        /* \"contracts/basic5.sol\":106:167  function setA(bytes memory _a) public {... */\n      pop\n      jump\t// out\n        /* \"#utility.yul\":7:82   */\n    tag_41:\n        /* \"#utility.yul\":40:46   */\n      0x00\n        /* \"#utility.yul\":73:75   */\n      0x40\n        /* \"#utility.yul\":67:76   */\n      mload\n        /* \"#utility.yul\":57:76   */\n      swap1\n      pop\n        /* \"#utility.yul\":7:82   */\n      swap1\n      jump\t// out\n        /* \"#utility.yul\":88:205   */\n    tag_42:\n        /* \"#utility.yul\":197:198   */\n      0x00\n        /* \"#utility.yul\":194:195   */\n      dup1\n        /* \"#utility.yul\":187:199   */\n      revert\n        /* \"#utility.yul\":211:328   */\n    tag_43:\n        /* \"#utility.yul\":320:321   */\n      0x00\n        /* \"#utility.yul\":317:318   */\n      dup1\n        /* \"#utility.yul\":310:322   */\n      revert\n        /* \"#utility.yul\":334:451   */\n    tag_44:\n        /* \"#utility.yul\":443:444   */\n      0x00\n        /* \"#utility.yul\":440:441   */\n      dup1\n        /* \"#utility.yul\":433:445   */\n      revert\n        /* \"#utility.yul\":457:574   */\n    tag_45:\n        /* \"#utility.yul\":566:567   */\n      0x00\n        /* \"#utility.yul\":563:564   */\n      dup1\n        /* \"#utility.yul\":556:568   */\n      revert\n        /* \"#utility.yul\":580:682   */\n    tag_46:\n        /* \"#utility.yul\":621:627   */\n      0x00\n        /* \"#utility.yul\":672:674   */\n      0x1f\n        /* \"#utility.yul\":668:675   */\n      not\n        /* \"#utility.yul\":663:665   */\n      0x1f\n        /* \"#utility.yul\":656:661   */\n      dup4\n        /* \"#utility.yul\":652:666   */\n      add\n        /* \"#utility.yul\":648:676   */\n      and\n        /* \"#utility.yul\":638:676   */\n      swap1\n      pop\n        /* \"#utility.yul\":580:682   */\n      swap2\n      swap1\n      pop\n      jump\t// out\n        /* \"#utility.yul\":688:868   */\n    tag_47:\n        /* \"#utility.yul\":736:813   */\n      0x4e487b7100000000000000000000000000000000000000000000000000000000\n        /* \"#utility.yul\":733:734   */\n      0x00\n        /* \"#utility.yul\":726:814   */\n      mstore\n        /* \"#utility.yul\":833:837   */\n      0x41\n        /* \"#utility.yul\":830:831   */\n      0x04\n        /* \"#utility.yul\":823:838   */\n      mstore\n        /* \"#utility.yul\":857:861   */\n      0x24\n        /* \"#utility.yul\":854:855   */\n      0x00\n        /* \"#utility.yul\":847:862   */\n      revert\n        /* \"#utility.yul\":874:1155   */\n    tag_48:\n        /* \"#utility.yul\":957:984   */\n      tag_88\n        /* \"#utility.yul\":979:983   */\n      dup3\n        /* \"#utility.yul\":957:984   */\n      tag_46\n      jump\t// in\n    tag_88:\n        /* \"#utility.yul\":949:955   */\n      dup2\n        /* \"#utility.yul\":945:985   */\n      add\n        /* \"#utility.yul\":1087:1093   */\n      dup2\n        /* \"#utility.yul\":1075:1085   */\n      dup2\n        /* \"#utility.yul\":1072:1094   */\n      lt\n        /* \"#utility.yul\":1051:1069   */\n      0xffffffffffffffff\n        /* \"#utility.yul\":1039:1049   */\n      dup3\n        /* \"#utility.yul\":1036:1070   */\n      gt\n        /* \"#utility.yul\":1033:1095   */\n      or\n        /* \"#utility.yul\":1030:1118   */\n      iszero\n      tag_89\n      jumpi\n        /* \"#utility.yul\":1098:1116   */\n      tag_90\n      tag_47\n      jump\t// in\n    tag_90:\n        /* \"#utility.yul\":1030:1118   */\n    tag_89:\n        /* \"#utility.yul\":1138:1148   */\n      dup1\n        /* \"#utility.yul\":1134:1136   */\n      0x40\n        /* \"#utility.yul\":1127:1149   */\n      mstore\n        /* \"#utility.yul\":917:1155   */\n      pop\n        /* \"#utility.yul\":874:1155   */\n      pop\n      pop\n      jump\t// out\n        /* \"#utility.yul\":1161:1290   */\n    tag_49:\n        /* \"#utility.yul\":1195:1201   */\n      0x00\n        /* \"#utility.yul\":1222:1242   */\n      tag_92\n      tag_41\n      jump\t// in\n    tag_92:\n        /* \"#utility.yul\":1212:1242   */\n      swap1\n      pop\n        /* \"#utility.yul\":1251:1284   */\n      tag_93\n        /* \"#utility.yul\":1279:1283   */\n      dup3\n        /* \"#utility.yul\":1271:1277   */\n      dup3\n        /* \"#utility.yul\":1251:1284   */\n      tag_48\n      jump\t// in\n    tag_93:\n        /* \"#utility.yul\":1161:1290   */\n      swap2\n      swap1\n      pop\n      jump\t// out\n        /* \"#utility.yul\":1296:1604   */\n    tag_50:\n        /* \"#utility.yul\":1358:1362   */\n      0x00\n        /* \"#utility.yul\":1448:1466   */\n      0xffffffffffffffff\n        /* \"#utility.yul\":1440:1446   */\n      dup3\n        /* \"#utility.yul\":1437:1467   */\n      gt\n        /* \"#utility.yul\":1434:1490   */\n      iszero\n      tag_95\n      jumpi\n        /* \"#utility.yul\":1470:1488   */\n      tag_96\n      tag_47\n      jump\t// in\n    tag_96:\n        /* \"#utility.yul\":1434:1490   */\n    tag_95:\n        /* \"#utility.yul\":1508:1537   */\n      tag_97\n        /* \"#utility.yul\":1530:1536   */\n      dup3\n        /* \"#utility.yul\":1508:1537   */\n      tag_46\n      jump\t// in\n    tag_97:\n        /* \"#utility.yul\":1500:1537   */\n      swap1\n      pop\n        /* \"#utility.yul\":1592:1596   */\n      0x20\n        /* \"#utility.yul\":1586:1590   */\n      dup2\n        /* \"#utility.yul\":1582:1597   */\n      add\n        /* \"#utility.yul\":1574:1597   */\n      swap1\n      pop\n        /* \"#utility.yul\":1296:1604   */\n      swap2\n      swap1\n      pop\n      jump\t// out\n        /* \"#utility.yul\":1610:1756   */\n    tag_51:\n        /* \"#utility.yul\":1707:1713   */\n      dup3\n        /* \"#utility.yul\":1702:1705   */\n      dup2\n        /* \"#utility.yul\":1697:1700   */\n      dup4\n        /* \"#utility.yul\":1684:1714   */\n      calldatacopy\n        /* \"#utility.yul\":1748:1749   */\n      0x00\n        /* \"#utility.yul\":1739:1745   */\n      dup4\n        /* \"#utility.yul\":1734:1737   */\n      dup4\n        /* \"#utility.yul\":1730:1746   */\n      add\n        /* \"#utility.yul\":1723:1750   */\n      mstore\n        /* \"#utility.yul\":1610:1756   */\n      pop\n      pop\n      pop\n      jump\t// out\n        /* \"#utility.yul\":1762:2187   */\n    tag_52:\n        /* \"#utility.yul\":1840:1845   */\n      0x00\n        /* \"#utility.yul\":1865:1931   */\n      tag_100\n        /* \"#utility.yul\":1881:1930   */\n      tag_101\n        /* \"#utility.yul\":1923:1929   */\n      dup5\n        /* \"#utility.yul\":1881:1930   */\n      tag_50\n      jump\t// in\n    tag_101:\n        /* \"#utility.yul\":1865:1931   */\n      tag_49\n      jump\t// in\n    tag_100:\n        /* \"#utility.yul\":1856:1931   */\n      swap1\n      pop\n        /* \"#utility.yul\":1954:1960   */\n      dup3\n        /* \"#utility.yul\":1947:1952   */\n      dup2\n        /* \"#utility.yul\":1940:1961   */\n      mstore\n        /* \"#utility.yul\":1992:1996   */\n      0x20\n        /* \"#utility.yul\":1985:1990   */\n      dup2\n        /* \"#utility.yul\":1981:1997   */\n      add\n        /* \"#utility.yul\":2030:2033   */\n      dup5\n        /* \"#utility.yul\":2021:2027   */\n      dup5\n        /* \"#utility.yul\":2016:2019   */\n      dup5\n        /* \"#utility.yul\":2012:2028   */\n      add\n        /* \"#utility.yul\":2009:2034   */\n      gt\n        /* \"#utility.yul\":2006:2118   */\n      iszero\n      tag_102\n      jumpi\n        /* \"#utility.yul\":2037:2116   */\n      tag_103\n      tag_45\n      jump\t// in\n    tag_103:\n        /* \"#utility.yul\":2006:2118   */\n    tag_102:\n        /* \"#utility.yul\":2127:2181   */\n      tag_104\n        /* \"#utility.yul\":2174:2180   */\n      dup5\n        /* \"#utility.yul\":2169:2172   */\n      dup3\n        /* \"#utility.yul\":2164:2167   */\n      dup6\n        /* \"#utility.yul\":2127:2181   */\n      tag_51\n      jump\t// in\n    tag_104:\n        /* \"#utility.yul\":1846:2187   */\n      pop\n        /* \"#utility.yul\":1762:2187   */\n      swap4\n      swap3\n      pop\n      pop\n      pop\n      jump\t// out\n        /* \"#utility.yul\":2207:2547   */\n    tag_53:\n        /* \"#utility.yul\":2263:2268   */\n      0x00\n        /* \"#utility.yul\":2312:2315   */\n      dup3\n        /* \"#utility.yul\":2305:2309   */\n      0x1f\n        /* \"#utility.yul\":2297:2303   */\n      dup4\n        /* \"#utility.yul\":2293:2310   */\n      add\n        /* \"#utility.yul\":2289:2316   */\n      slt\n        /* \"#utility.yul\":2279:2401   */\n      tag_106\n      jumpi\n        /* \"#utility.yul\":2320:2399   */\n      tag_107\n      tag_44\n      jump\t// in\n    tag_107:\n        /* \"#utility.yul\":2279:2401   */\n    tag_106:\n        /* \"#utility.yul\":2437:2443   */\n      dup2\n        /* \"#utility.yul\":2424:2444   */\n      calldataload\n        /* \"#utility.yul\":2462:2541   */\n      tag_108\n        /* \"#utility.yul\":2537:2540   */\n      dup5\n        /* \"#utility.yul\":2529:2535   */\n      dup3\n        /* \"#utility.yul\":2522:2526   */\n      0x20\n        /* \"#utility.yul\":2514:2520   */\n      dup7\n        /* \"#utility.yul\":2510:2527   */\n      add\n        /* \"#utility.yul\":2462:2541   */\n      tag_52\n      jump\t// in\n    tag_108:\n        /* \"#utility.yul\":2453:2541   */\n      swap2\n      pop\n        /* \"#utility.yul\":2269:2547   */\n      pop\n        /* \"#utility.yul\":2207:2547   */\n      swap3\n      swap2\n      pop\n      pop\n      jump\t// out\n        /* \"#utility.yul\":2553:3062   */\n    tag_10:\n        /* \"#utility.yul\":2622:2628   */\n      0x00\n        /* \"#utility.yul\":2671:2673   */\n      0x20\n        /* \"#utility.yul\":2659:2668   */\n      dup3\n        /* \"#utility.yul\":2650:2657   */\n      dup5\n        /* \"#utility.yul\":2646:2669   */\n      sub\n        /* \"#utility.yul\":2642:2674   */\n      slt\n        /* \"#utility.yul\":2639:2758   */\n      iszero\n      tag_110\n      jumpi\n        /* \"#utility.yul\":2677:2756   */\n      tag_111\n      tag_42\n      jump\t// in\n    tag_111:\n        /* \"#utility.yul\":2639:2758   */\n    tag_110:\n        /* \"#utility.yul\":2825:2826   */\n      0x00\n        /* \"#utility.yul\":2814:2823   */\n      dup3\n        /* \"#utility.yul\":2810:2827   */\n      add\n        /* \"#utility.yul\":2797:2828   */\n      calldataload\n        /* \"#utility.yul\":2855:2873   */\n      0xffffffffffffffff\n        /* \"#utility.yul\":2847:2853   */\n      dup2\n        /* \"#utility.yul\":2844:2874   */\n      gt\n        /* \"#utility.yul\":2841:2958   */\n      iszero\n      tag_112\n      jumpi\n        /* \"#utility.yul\":2877:2956   */\n      tag_113\n      tag_43\n      jump\t// in\n    tag_113:\n        /* \"#utility.yul\":2841:2958   */\n    tag_112:\n        /* \"#utility.yul\":2982:3045   */\n      tag_114\n        /* \"#utility.yul\":3037:3044   */\n      dup5\n        /* \"#utility.yul\":3028:3034   */\n      dup3\n        /* \"#utility.yul\":3017:3026   */\n      dup6\n        /* \"#utility.yul\":3013:3035   */\n      add\n        /* \"#utility.yul\":2982:3045   */\n      tag_53\n      jump\t// in\n    tag_114:\n        /* \"#utility.yul\":2972:3045   */\n      swap2\n      pop\n        /* \"#utility.yul\":2768:3055   */\n      pop\n        /* \"#utility.yul\":2553:3062   */\n      swap3\n      swap2\n      pop\n      pop\n      jump\t// out\n        /* \"#utility.yul\":3068:3166   */\n    tag_54:\n        /* \"#utility.yul\":3119:3125   */\n      0x00\n        /* \"#utility.yul\":3153:3158   */\n      dup2\n        /* \"#utility.yul\":3147:3159   */\n      mload\n        /* \"#utility.yul\":3137:3159   */\n      swap1\n      pop\n        /* \"#utility.yul\":3068:3166   */\n      swap2\n      swap1\n      pop\n      jump\t// out\n        /* \"#utility.yul\":3172:3340   */\n    tag_55:\n        /* \"#utility.yul\":3255:3266   */\n      0x00\n        /* \"#utility.yul\":3289:3295   */\n      dup3\n        /* \"#utility.yul\":3284:3287   */\n      dup3\n        /* \"#utility.yul\":3277:3296   */\n      mstore\n        /* \"#utility.yul\":3329:3333   */\n      0x20\n        /* \"#utility.yul\":3324:3327   */\n      dup3\n        /* \"#utility.yul\":3320:3334   */\n      add\n        /* \"#utility.yul\":3305:3334   */\n      swap1\n      pop\n        /* \"#utility.yul\":3172:3340   */\n      swap3\n      swap2\n      pop\n      pop\n      jump\t// out\n        /* \"#utility.yul\":3346:3592   */\n    tag_56:\n        /* \"#utility.yul\":3427:3428   */\n      0x00\n        /* \"#utility.yul\":3437:3550   */\n    tag_118:\n        /* \"#utility.yul\":3451:3457   */\n      dup4\n        /* \"#utility.yul\":3448:3449   */\n      dup2\n        /* \"#utility.yul\":3445:3458   */\n      lt\n        /* \"#utility.yul\":3437:3550   */\n      iszero\n      tag_120\n      jumpi\n        /* \"#utility.yul\":3536:3537   */\n      dup1\n        /* \"#utility.yul\":3531:3534   */\n      dup3\n        /* \"#utility.yul\":3527:3538   */\n      add\n        /* \"#utility.yul\":3521:3539   */\n      mload\n        /* \"#utility.yul\":3517:3518   */\n      dup2\n        /* \"#utility.yul\":3512:3515   */\n      dup5\n        /* \"#utility.yul\":3508:3519   */\n      add\n        /* \"#utility.yul\":3501:3540   */\n      mstore\n        /* \"#utility.yul\":3473:3475   */\n      0x20\n        /* \"#utility.yul\":3470:3471   */\n      dup2\n        /* \"#utility.yul\":3466:3476   */\n      add\n        /* \"#utility.yul\":3461:3476   */\n      swap1\n      pop\n        /* \"#utility.yul\":3437:3550   */\n      jump(tag_118)\n    tag_120:\n        /* \"#utility.yul\":3584:3585   */\n      0x00\n        /* \"#utility.yul\":3575:3581   */\n      dup5\n        /* \"#utility.yul\":3570:3573   */\n      dup5\n        /* \"#utility.yul\":3566:3582   */\n      add\n        /* \"#utility.yul\":3559:3586   */\n      mstore\n        /* \"#utility.yul\":3408:3592   */\n      pop\n        /* \"#utility.yul\":3346:3592   */\n      pop\n      pop\n      pop\n      jump\t// out\n        /* \"#utility.yul\":3598:3971   */\n    tag_57:\n        /* \"#utility.yul\":3684:3687   */\n      0x00\n        /* \"#utility.yul\":3712:3750   */\n      tag_122\n        /* \"#utility.yul\":3744:3749   */\n      dup3\n        /* \"#utility.yul\":3712:3750   */\n      tag_54\n      jump\t// in\n    tag_122:\n        /* \"#utility.yul\":3766:3836   */\n      tag_123\n        /* \"#utility.yul\":3829:3835   */\n      dup2\n        /* \"#utility.yul\":3824:3827   */\n      dup6\n        /* \"#utility.yul\":3766:3836   */\n      tag_55\n      jump\t// in\n    tag_123:\n        /* \"#utility.yul\":3759:3836   */\n      swap4\n      pop\n        /* \"#utility.yul\":3845:3910   */\n      tag_124\n        /* \"#utility.yul\":3903:3909   */\n      dup2\n        /* \"#utility.yul\":3898:3901   */\n      dup6\n        /* \"#utility.yul\":3891:3895   */\n      0x20\n        /* \"#utility.yul\":3884:3889   */\n      dup7\n        /* \"#utility.yul\":3880:3896   */\n      add\n        /* \"#utility.yul\":3845:3910   */\n      tag_56\n      jump\t// in\n    tag_124:\n        /* \"#utility.yul\":3935:3964   */\n      tag_125\n        /* \"#utility.yul\":3957:3963   */\n      dup2\n        /* \"#utility.yul\":3935:3964   */\n      tag_46\n      jump\t// in\n    tag_125:\n        /* \"#utility.yul\":3930:3933   */\n      dup5\n        /* \"#utility.yul\":3926:3965   */\n      add\n        /* \"#utility.yul\":3919:3965   */\n      swap2\n      pop\n        /* \"#utility.yul\":3688:3971   */\n      pop\n        /* \"#utility.yul\":3598:3971   */\n      swap3\n      swap2\n      pop\n      pop\n      jump\t// out\n        /* \"#utility.yul\":3977:4286   */\n    tag_19:\n        /* \"#utility.yul\":4088:4092   */\n      0x00\n        /* \"#utility.yul\":4126:4128   */\n      0x20\n        /* \"#utility.yul\":4115:4124   */\n      dup3\n        /* \"#utility.yul\":4111:4129   */\n      add\n        /* \"#utility.yul\":4103:4129   */\n      swap1\n      pop\n        /* \"#utility.yul\":4175:4184   */\n      dup2\n        /* \"#utility.yul\":4169:4173   */\n      dup2\n        /* \"#utility.yul\":4165:4185   */\n      sub\n        /* \"#utility.yul\":4161:4162   */\n      0x00\n        /* \"#utility.yul\":4150:4159   */\n      dup4\n        /* \"#utility.yul\":4146:4163   */\n      add\n        /* \"#utility.yul\":4139:4186   */\n      mstore\n        /* \"#utility.yul\":4203:4279   */\n      tag_127\n        /* \"#utility.yul\":4274:4278   */\n      dup2\n        /* \"#utility.yul\":4265:4271   */\n      dup5\n        /* \"#utility.yul\":4203:4279   */\n      tag_57\n      jump\t// in\n    tag_127:\n        /* \"#utility.yul\":4195:4279   */\n      swap1\n      pop\n        /* \"#utility.yul\":3977:4286   */\n      swap3\n      swap2\n      pop\n      pop\n      jump\t// out\n        /* \"#utility.yul\":4292:4599   */\n    tag_58:\n        /* \"#utility.yul\":4353:4357   */\n      0x00\n        /* \"#utility.yul\":4443:4461   */\n      0xffffffffffffffff\n        /* \"#utility.yul\":4435:4441   */\n      dup3\n        /* \"#utility.yul\":4432:4462   */\n      gt\n        /* \"#utility.yul\":4429:4485   */\n      iszero\n      tag_129\n      jumpi\n        /* \"#utility.yul\":4465:4483   */\n      tag_130\n      tag_47\n      jump\t// in\n    tag_130:\n        /* \"#utility.yul\":4429:4485   */\n    tag_129:\n        /* \"#utility.yul\":4503:4532   */\n      tag_131\n        /* \"#utility.yul\":4525:4531   */\n      dup3\n        /* \"#utility.yul\":4503:4532   */\n      tag_46\n      jump\t// in\n    tag_131:\n        /* \"#utility.yul\":4495:4532   */\n      swap1\n      pop\n        /* \"#utility.yul\":4587:4591   */\n      0x20\n        /* \"#utility.yul\":4581:4585   */\n      dup2\n        /* \"#utility.yul\":4577:4592   */\n      add\n        /* \"#utility.yul\":4569:4592   */\n      swap1\n      pop\n        /* \"#utility.yul\":4292:4599   */\n      swap2\n      swap1\n      pop\n      jump\t// out\n        /* \"#utility.yul\":4605:5028   */\n    tag_59:\n        /* \"#utility.yul\":4682:4687   */\n      0x00\n        /* \"#utility.yul\":4707:4772   */\n      tag_133\n        /* \"#utility.yul\":4723:4771   */\n      tag_134\n        /* \"#utility.yul\":4764:4770   */\n      dup5\n        /* \"#utility.yul\":4723:4771   */\n      tag_58\n      jump\t// in\n    tag_134:\n        /* \"#utility.yul\":4707:4772   */\n      tag_49\n      jump\t// in\n    tag_133:\n        /* \"#utility.yul\":4698:4772   */\n      swap1\n      pop\n        /* \"#utility.yul\":4795:4801   */\n      dup3\n        /* \"#utility.yul\":4788:4793   */\n      dup2\n        /* \"#utility.yul\":4781:4802   */\n      mstore\n        /* \"#utility.yul\":4833:4837   */\n      0x20\n        /* \"#utility.yul\":4826:4831   */\n      dup2\n        /* \"#utility.yul\":4822:4838   */\n      add\n        /* \"#utility.yul\":4871:4874   */\n      dup5\n        /* \"#utility.yul\":4862:4868   */\n      dup5\n        /* \"#utility.yul\":4857:4860   */\n      dup5\n        /* \"#utility.yul\":4853:4869   */\n      add\n        /* \"#utility.yul\":4850:4875   */\n      gt\n        /* \"#utility.yul\":4847:4959   */\n      iszero\n      tag_135\n      jumpi\n        /* \"#utility.yul\":4878:4957   */\n      tag_136\n      tag_45\n      jump\t// in\n    tag_136:\n        /* \"#utility.yul\":4847:4959   */\n    tag_135:\n        /* \"#utility.yul\":4968:5022   */\n      tag_137\n        /* \"#utility.yul\":5015:5021   */\n      dup5\n        /* \"#utility.yul\":5010:5013   */\n      dup3\n        /* \"#utility.yul\":5005:5008   */\n      dup6\n        /* \"#utility.yul\":4968:5022   */\n      tag_51\n      jump\t// in\n    tag_137:\n        /* \"#utility.yul\":4688:5028   */\n      pop\n        /* \"#utility.yul\":4605:5028   */\n      swap4\n      swap3\n      pop\n      pop\n      pop\n      jump\t// out\n        /* \"#utility.yul\":5047:5385   */\n    tag_60:\n        /* \"#utility.yul\":5102:5107   */\n      0x00\n        /* \"#utility.yul\":5151:5154   */\n      dup3\n        /* \"#utility.yul\":5144:5148   */\n      0x1f\n        /* \"#utility.yul\":5136:5142   */\n      dup4\n        /* \"#utility.yul\":5132:5149   */\n      add\n        /* \"#utility.yul\":5128:5155   */\n      slt\n        /* \"#utility.yul\":5118:5240   */\n      tag_139\n      jumpi\n        /* \"#utility.yul\":5159:5238   */\n      tag_140\n      tag_44\n      jump\t// in\n    tag_140:\n        /* \"#utility.yul\":5118:5240   */\n    tag_139:\n        /* \"#utility.yul\":5276:5282   */\n      dup2\n        /* \"#utility.yul\":5263:5283   */\n      calldataload\n        /* \"#utility.yul\":5301:5379   */\n      tag_141\n        /* \"#utility.yul\":5375:5378   */\n      dup5\n        /* \"#utility.yul\":5367:5373   */\n      dup3\n        /* \"#utility.yul\":5360:5364   */\n      0x20\n        /* \"#utility.yul\":5352:5358   */\n      dup7\n        /* \"#utility.yul\":5348:5365   */\n      add\n        /* \"#utility.yul\":5301:5379   */\n      tag_59\n      jump\t// in\n    tag_141:\n        /* \"#utility.yul\":5292:5379   */\n      swap2\n      pop\n        /* \"#utility.yul\":5108:5385   */\n      pop\n        /* \"#utility.yul\":5047:5385   */\n      swap3\n      swap2\n      pop\n      pop\n      jump\t// out\n        /* \"#utility.yul\":5391:5898   */\n    tag_22:\n        /* \"#utility.yul\":5459:5465   */\n      0x00\n        /* \"#utility.yul\":5508:5510   */\n      0x20\n        /* \"#utility.yul\":5496:5505   */\n      dup3\n        /* \"#utility.yul\":5487:5494   */\n      dup5\n        /* \"#utility.yul\":5483:5506   */\n      sub\n        /* \"#utility.yul\":5479:5511   */\n      slt\n        /* \"#utility.yul\":5476:5595   */\n      iszero\n      tag_143\n      jumpi\n        /* \"#utility.yul\":5514:5593   */\n      tag_144\n      tag_42\n      jump\t// in\n    tag_144:\n        /* \"#utility.yul\":5476:5595   */\n    tag_143:\n        /* \"#utility.yul\":5662:5663   */\n      0x00\n        /* \"#utility.yul\":5651:5660   */\n      dup3\n        /* \"#utility.yul\":5647:5664   */\n      add\n        /* \"#utility.yul\":5634:5665   */\n      calldataload\n        /* \"#utility.yul\":5692:5710   */\n      0xffffffffffffffff\n        /* \"#utility.yul\":5684:5690   */\n      dup2\n        /* \"#utility.yul\":5681:5711   */\n      gt\n        /* \"#utility.yul\":5678:5795   */\n      iszero\n      tag_145\n      jumpi\n        /* \"#utility.yul\":5714:5793   */\n      tag_146\n      tag_43\n      jump\t// in\n    tag_146:\n        /* \"#utility.yul\":5678:5795   */\n    tag_145:\n        /* \"#utility.yul\":5819:5881   */\n      tag_147\n        /* \"#utility.yul\":5873:5880   */\n      dup5\n        /* \"#utility.yul\":5864:5870   */\n      dup3\n        /* \"#utility.yul\":5853:5862   */\n      dup6\n        /* \"#utility.yul\":5849:5871   */\n      add\n        /* \"#utility.yul\":5819:5881   */\n      tag_60\n      jump\t// in\n    tag_147:\n        /* \"#utility.yul\":5809:5881   */\n      swap2\n      pop\n        /* \"#utility.yul\":5605:5891   */\n      pop\n        /* \"#utility.yul\":5391:5898   */\n      swap3\n      swap2\n      pop\n      pop\n      jump\t// out\n        /* \"#utility.yul\":5904:6084   */\n    tag_61:\n        /* \"#utility.yul\":5952:6029   */\n      0x4e487b7100000000000000000000000000000000000000000000000000000000\n        /* \"#utility.yul\":5949:5950   */\n      0x00\n        /* \"#utility.yul\":5942:6030   */\n      mstore\n        /* \"#utility.yul\":6049:6053   */\n      0x22\n        /* \"#utility.yul\":6046:6047   */\n      0x04\n        /* \"#utility.yul\":6039:6054   */\n      mstore\n        /* \"#utility.yul\":6073:6077   */\n      0x24\n        /* \"#utility.yul\":6070:6071   */\n      0x00\n        /* \"#utility.yul\":6063:6078   */\n      revert\n        /* \"#utility.yul\":6090:6410   */\n    tag_34:\n        /* \"#utility.yul\":6134:6140   */\n      0x00\n        /* \"#utility.yul\":6171:6172   */\n      0x02\n        /* \"#utility.yul\":6165:6169   */\n      dup3\n        /* \"#utility.yul\":6161:6173   */\n      div\n        /* \"#utility.yul\":6151:6173   */\n      swap1\n      pop\n        /* \"#utility.yul\":6218:6219   */\n      0x01\n        /* \"#utility.yul\":6212:6216   */\n      dup3\n        /* \"#utility.yul\":6208:6220   */\n      and\n        /* \"#utility.yul\":6239:6257   */\n      dup1\n        /* \"#utility.yul\":6229:6310   */\n      tag_150\n      jumpi\n        /* \"#utility.yul\":6295:6299   */\n      0x7f\n        /* \"#utility.yul\":6287:6293   */\n      dup3\n        /* \"#utility.yul\":6283:6300   */\n      and\n        /* \"#utility.yul\":6273:6300   */\n      swap2\n      pop\n        /* \"#utility.yul\":6229:6310   */\n    tag_150:\n        /* \"#utility.yul\":6357:6359   */\n      0x20\n        /* \"#utility.yul\":6349:6355   */\n      dup3\n        /* \"#utility.yul\":6346:6360   */\n      lt\n        /* \"#utility.yul\":6326:6344   */\n      dup2\n        /* \"#utility.yul\":6323:6361   */\n      sub\n        /* \"#utility.yul\":6320:6404   */\n      tag_151\n      jumpi\n        /* \"#utility.yul\":6376:6394   */\n      tag_152\n      tag_61\n      jump\t// in\n    tag_152:\n        /* \"#utility.yul\":6320:6404   */\n    tag_151:\n        /* \"#utility.yul\":6141:6410   */\n      pop\n        /* \"#utility.yul\":6090:6410   */\n      swap2\n      swap1\n      pop\n      jump\t// out\n        /* \"#utility.yul\":6416:6556   */\n    tag_62:\n        /* \"#utility.yul\":6464:6468   */\n      0x00\n        /* \"#utility.yul\":6487:6490   */\n      dup2\n        /* \"#utility.yul\":6479:6490   */\n      swap1\n      pop\n        /* \"#utility.yul\":6510:6513   */\n      dup2\n        /* \"#utility.yul\":6507:6508   */\n      0x00\n        /* \"#utility.yul\":6500:6514   */\n      mstore\n        /* \"#utility.yul\":6544:6548   */\n      0x20\n        /* \"#utility.yul\":6541:6542   */\n      0x00\n        /* \"#utility.yul\":6531:6549   */\n      keccak256\n        /* \"#utility.yul\":6523:6549   */\n      swap1\n      pop\n        /* \"#utility.yul\":6416:6556   */\n      swap2\n      swap1\n      pop\n      jump\t// out\n        /* \"#utility.yul\":6562:6655   */\n    tag_63:\n        /* \"#utility.yul\":6599:6605   */\n      0x00\n        /* \"#utility.yul\":6646:6648   */\n      0x20\n        /* \"#utility.yul\":6641:6643   */\n      0x1f\n        /* \"#utility.yul\":6634:6639   */\n      dup4\n        /* \"#utility.yul\":6630:6644   */\n      add\n        /* \"#utility.yul\":6626:6649   */\n      div\n        /* \"#utility.yul\":6616:6649   */\n      swap1\n      pop\n        /* \"#utility.yul\":6562:6655   */\n      swap2\n      swap1\n      pop\n      jump\t// out\n        /* \"#utility.yul\":6661:6768   */\n    tag_64:\n        /* \"#utility.yul\":6705:6713   */\n      0x00\n        /* \"#utility.yul\":6755:6760   */\n      dup3\n        /* \"#utility.yul\":6749:6753   */\n      dup3\n        /* \"#utility.yul\":6745:6761   */\n      shl\n        /* \"#utility.yul\":6724:6761   */\n      swap1\n      pop\n        /* \"#utility.yul\":6661:6768   */\n      swap3\n      swap2\n      pop\n      pop\n      jump\t// out\n        /* \"#utility.yul\":6774:7167   */\n    tag_65:\n        /* \"#utility.yul\":6843:6849   */\n      0x00\n        /* \"#utility.yul\":6893:6894   */\n      0x08\n        /* \"#utility.yul\":6881:6891   */\n      dup4\n        /* \"#utility.yul\":6877:6895   */\n      mul\n        /* \"#utility.yul\":6916:7013   */\n      tag_157\n        /* \"#utility.yul\":6946:7012   */\n      0xffffffffffffffffffffffffffffffffffffffffffffffffffffffffffffffff\n        /* \"#utility.yul\":6935:6944   */\n      dup3\n        /* \"#utility.yul\":6916:7013   */\n      tag_64\n      jump\t// in\n    tag_157:\n        /* \"#utility.yul\":7034:7073   */\n      tag_158\n        /* \"#utility.yul\":7064:7072   */\n      dup7\n        /* \"#utility.yul\":7053:7062   */\n      dup4\n        /* \"#utility.yul\":7034:7073   */\n      tag_64\n      jump\t// in\n    tag_158:\n        /* \"#utility.yul\":7022:7073   */\n      swap6\n      pop\n        /* \"#utility.yul\":7106:7110   */\n      dup1\n        /* \"#utility.yul\":7102:7111   */\n      not\n        /* \"#utility.yul\":7095:7100   */\n      dup5\n        /* \"#utility.yul\":7091:7112   */\n      and\n        /* \"#utility.yul\":7082:7112   */\n      swap4\n      pop\n        /* \"#utility.yul\":7155:7159   */\n      dup1\n        /* \"#utility.yul\":7145:7153   */\n      dup7\n        /* \"#utility.yul\":7141:7160   */\n      and\n        /* \"#utility.yul\":7134:7139   */\n      dup5\n        /* \"#utility.yul\":7131:7161   */\n      or\n        /* \"#utility.yul\":7121:7161   */\n      swap3\n      pop\n        /* \"#utility.yul\":6850:7167   */\n      pop\n      pop\n        /* \"#utility.yul\":6774:7167   */\n      swap4\n      swap3\n      pop\n      pop\n      pop\n      jump\t// out\n        /* \"#utility.yul\":7173:7250   */\n    tag_66:\n        /* \"#utility.yul\":7210:7217   */\n      0x00\n        /* \"#utility.yul\":7239:7244   */\n      dup2\n        /* \"#utility.yul\":7228:7244   */\n      swap1\n      pop\n        /* \"#utility.yul\":7173:7250   */\n      swap2\n      swap1\n      pop\n      jump\t// out\n        /* \"#utility.yul\":7256:7316   */\n    tag_67:\n        /* \"#utility.yul\":7284:7287   */\n      0x00\n        /* \"#utility.yul\":7305:7310   */\n      dup2\n        /* \"#utility.yul\":7298:7310   */\n      swap1\n      pop\n        /* \"#utility.yul\":7256:7316   */\n      swap2\n      swap1\n      pop\n      jump\t// out\n        /* \"#utility.yul\":7322:7464   */\n    tag_68:\n        /* \"#utility.yul\":7372:7381   */\n      0x00\n        /* \"#utility.yul\":7405:7458   */\n      tag_162\n        /* \"#utility.yul\":7423:7457   */\n      tag_163\n        /* \"#utility.yul\":7432:7456   */\n      tag_164\n        /* \"#utility.yul\":7450:7455   */\n      dup5\n        /* \"#utility.yul\":7432:7456   */\n      tag_66\n      jump\t// in\n    tag_164:\n        /* \"#utility.yul\":7423:7457   */\n      tag_67\n      jump\t// in\n    tag_163:\n        /* \"#utility.yul\":7405:7458   */\n      tag_66\n      jump\t// in\n    tag_162:\n        /* \"#utility.yul\":7392:7458   */\n      swap1\n      pop\n        /* \"#utility.yul\":7322:7464   */\n      swap2\n      swap1\n      pop\n      jump\t// out\n        /* \"#utility.yul\":7470:7545   */\n    tag_69:\n        /* \"#utility.yul\":7513:7516   */\n      0x00\n        /* \"#utility.yul\":7534:7539   */\n      dup2\n        /* \"#utility.yul\":7527:7539   */\n      swap1\n      pop\n        /* \"#utility.yul\":7470:7545   */\n      swap2\n      swap1\n      pop\n      jump\t// out\n        /* \"#utility.yul\":7551:7820   */\n    tag_70:\n        /* \"#utility.yul\":7661:7700   */\n      tag_167\n        /* \"#utility.yul\":7692:7699   */\n      dup4\n        /* \"#utility.yul\":7661:7700   */\n      tag_68\n      jump\t// in\n    tag_167:\n        /* \"#utility.yul\":7722:7813   */\n      tag_168\n        /* \"#utility.yul\":7771:7812   */\n      tag_169\n        /* \"#utility.yul\":7795:7811   */\n      dup3\n        /* \"#utility.yul\":7771:7812   */\n      tag_69\n      jump\t// in\n    tag_169:\n        /* \"#utility.yul\":7763:7769   */\n      dup5\n        /* \"#utility.yul\":7756:7760   */\n      dup5\n        /* \"#utility.yul\":7750:7761   */\n      sload\n        /* \"#utility.yul\":7722:7813   */\n      tag_65\n      jump\t// in\n    tag_168:\n        /* \"#utility.yul\":7716:7720   */\n      dup3\n        /* \"#utility.yul\":7709:7814   */\n      sstore\n        /* \"#utility.yul\":7627:7820   */\n      pop\n        /* \"#utility.yul\":7551:7820   */\n      pop\n      pop\n      pop\n      jump\t// out\n        /* \"#utility.yul\":7826:7899   */\n    tag_71:\n        /* \"#utility.yul\":7871:7874   */\n      0x00\n        /* \"#utility.yul\":7826:7899   */\n      swap1\n      jump\t// out\n        /* \"#utility.yul\":7905:8094   */\n    tag_72:\n        /* \"#utility.yul\":7982:8014   */\n      tag_172\n      tag_71\n      jump\t// in\n    tag_172:\n        /* \"#utility.yul\":8023:8088   */\n      tag_173\n        /* \"#utility.yul\":8081:8087   */\n      dup2\n        /* \"#utility.yul\":8073:8079   */\n      dup5\n        /* \"#utility.yul\":8067:8071   */\n      dup5\n        /* \"#utility.yul\":8023:8088   */\n      tag_70\n      jump\t// in\n    tag_173:\n        /* \"#utility.yul\":7958:8094   */\n      pop\n        /* \"#utility.yul\":7905:8094   */\n      pop\n      pop\n      jump\t// out\n        /* \"#utility.yul\":8100:8286   */\n    tag_73:\n        /* \"#utility.yul\":8160:8280   */\n    tag_175:\n        /* \"#utility.yul\":8177:8180   */\n      dup2\n        /* \"#utility.yul\":8170:8175   */\n      dup2\n        /* \"#utility.yul\":8167:8181   */\n      lt\n        /* \"#utility.yul\":8160:8280   */\n      iszero\n      tag_177\n      jumpi\n        /* \"#utility.yul\":8231:8270   */\n      tag_178\n        /* \"#utility.yul\":8268:8269   */\n      0x00\n        /* \"#utility.yul\":8261:8266   */\n      dup3\n        /* \"#utility.yul\":8231:8270   */\n      tag_72\n      jump\t// in\n    tag_178:\n        /* \"#utility.yul\":8204:8205   */\n      0x01\n        /* \"#utility.yul\":8197:8202   */\n      dup2\n        /* \"#utility.yul\":8193:8206   */\n      add\n        /* \"#utility.yul\":8184:8206   */\n      swap1\n      pop\n        /* \"#utility.yul\":8160:8280   */\n      jump(tag_175)\n    tag_177:\n        /* \"#utility.yul\":8100:8286   */\n      pop\n      pop\n      jump\t// out\n        /* \"#utility.yul\":8292:8833   */\n    tag_74:\n        /* \"#utility.yul\":8392:8394   */\n      0x1f\n        /* \"#utility.yul\":8387:8390   */\n      dup3\n        /* \"#utility.yul\":8384:8395   */\n      gt\n        /* \"#utility.yul\":8381:8826   */\n      iszero\n      tag_180\n      jumpi\n        /* \"#utility.yul\":8426:8463   */\n      tag_181\n        /* \"#utility.yul\":8457:8462   */\n      dup2\n        /* \"#utility.yul\":8426:8463   */\n      tag_62\n      jump\t// in\n    tag_181:\n        /* \"#utility.yul\":8509:8538   */\n      tag_182\n        /* \"#utility.yul\":8527:8537   */\n      dup5\n        /* \"#utility.yul\":8509:8538   */\n      tag_63\n      jump\t// in\n    tag_182:\n        /* \"#utility.yul\":8499:8507   */\n      dup2\n        /* \"#utility.yul\":8495:8539   */\n      add\n        /* \"#utility.yul\":8692:8694   */\n      0x20\n        /* \"#utility.yul\":8680:8690   */\n      dup6\n        /* \"#utility.yul\":8677:8695   */\n      lt\n        /* \"#utility.yul\":8674:8723   */\n      iszero\n      tag_183\n      jumpi\n        /* \"#utility.yul\":8713:8721   */\n      dup2\n        /* \"#utility.yul\":8698:8721   */\n      swap1\n      pop\n        /* \"#utility.yul\":8674:8723   */\n    tag_183:\n        /* \"#utility.yul\":8736:8816   */\n      tag_184\n        /* \"#utility.yul\":8792:8814   */\n      tag_185\n        /* \"#utility.yul\":8810:8813   */\n      dup6\n        /* \"#utility.yul\":8792:8814   */\n      tag_63\n      jump\t// in\n    tag_185:\n        /* \"#utility.yul\":8782:8790   */\n      dup4\n        /* \"#utility.yul\":8778:8815   */\n      add\n        /* \"#utility.yul\":8765:8776   */\n      dup3\n        /* \"#utility.yul\":8736:8816   */\n      tag_73\n      jump\t// in\n    tag_184:\n        /* \"#utility.yul\":8396:8826   */\n      pop\n      pop\n        /* \"#utility.yul\":8381:8826   */\n    tag_180:\n        /* \"#utility.yul\":8292:8833   */\n      pop\n      pop\n      pop\n      jump\t// out\n        /* \"#utility.yul\":8839:8956   */\n    tag_75:\n        /* \"#utility.yul\":8893:8901   */\n      0x00\n        /* \"#utility.yul\":8943:8948   */\n      dup3\n        /* \"#utility.yul\":8937:8941   */\n      dup3\n        /* \"#utility.yul\":8933:8949   */\n      shr\n        /* \"#utility.yul\":8912:8949   */\n      swap1\n      pop\n        /* \"#utility.yul\":8839:8956   */\n      swap3\n      swap2\n      pop\n      pop\n      jump\t// out\n        /* \"#utility.yul\":8962:9131   */\n    tag_76:\n        /* \"#utility.yul\":9006:9012   */\n      0x00\n        /* \"#utility.yul\":9039:9090   */\n      tag_188\n        /* \"#utility.yul\":9087:9088   */\n      0x00\n        /* \"#utility.yul\":9083:9089   */\n      not\n        /* \"#utility.yul\":9075:9080   */\n      dup5\n        /* \"#utility.yul\":9072:9073   */\n      0x08\n        /* \"#utility.yul\":9068:9081   */\n      mul\n        /* \"#utility.yul\":9039:9090   */\n      tag_75\n      jump\t// in\n    tag_188:\n        /* \"#utility.yul\":9035:9091   */\n      not\n        /* \"#utility.yul\":9120:9124   */\n      dup1\n        /* \"#utility.yul\":9114:9118   */\n      dup4\n        /* \"#utility.yul\":9110:9125   */\n      and\n        /* \"#utility.yul\":9100:9125   */\n      swap2\n      pop\n        /* \"#utility.yul\":9013:9131   */\n      pop\n        /* \"#utility.yul\":8962:9131   */\n      swap3\n      swap2\n      pop\n      pop\n      jump\t// out\n        /* \"#utility.yul\":9136:9431   */\n    tag_77:\n        /* \"#utility.yul\":9212:9216   */\n      0x00\n        /* \"#utility.yul\":9358:9387   */\n      tag_190\n        /* \"#utility.yul\":9383:9386   */\n      dup4\n        /* \"#utility.yul\":9377:9381   */\n      dup4\n        /* \"#utility.yul\":9358:9387   */\n      tag_76\n      jump\t// in\n    tag_190:\n        /* \"#utility.yul\":9350:9387   */\n      swap2\n      pop\n        /* \"#utility.yul\":9420:9423   */\n      dup3\n        /* \"#utility.yul\":9417:9418   */\n      0x02\n        /* \"#utility.yul\":9413:9424   */\n      mul\n        /* \"#utility.yul\":9407:9411   */\n      dup3\n        /* \"#utility.yul\":9404:9425   */\n      or\n        /* \"#utility.yul\":9396:9425   */\n      swap1\n      pop\n        /* \"#utility.yul\":9136:9431   */\n      swap3\n      swap2\n      pop\n      pop\n      jump\t// out\n        /* \"#utility.yul\":9436:10826   */\n    tag_26:\n        /* \"#utility.yul\":9551:9587   */\n      tag_192\n        /* \"#utility.yul\":9583:9586   */\n      dup3\n        /* \"#utility.yul\":9551:9587   */\n      tag_54\n      jump\t// in\n    tag_192:\n        /* \"#utility.yul\":9652:9670   */\n      0xffffffffffffffff\n        /* \"#utility.yul\":9644:9650   */\n      dup2\n        /* \"#utility.yul\":9641:9671   */\n      gt\n        /* \"#utility.yul\":9638:9694   */\n      iszero\n      tag_193\n      jumpi\n        /* \"#utility.yul\":9674:9692   */\n      tag_194\n      tag_47\n      jump\t// in\n    tag_194:\n        /* \"#utility.yul\":9638:9694   */\n    tag_193:\n        /* \"#utility.yul\":9718:9756   */\n      tag_195\n        /* \"#utility.yul\":9750:9754   */\n      dup3\n        /* \"#utility.yul\":9744:9755   */\n      sload\n        /* \"#utility.yul\":9718:9756   */\n      tag_34\n      jump\t// in\n    tag_195:\n        /* \"#utility.yul\":9803:9869   */\n      tag_196\n        /* \"#utility.yul\":9862:9868   */\n      dup3\n        /* \"#utility.yul\":9854:9860   */\n      dup3\n        /* \"#utility.yul\":9848:9852   */\n      dup6\n        /* \"#utility.yul\":9803:9869   */\n      tag_74\n      jump\t// in\n    tag_196:\n        /* \"#utility.yul\":9896:9897   */\n      0x00\n        /* \"#utility.yul\":9920:9924   */\n      0x20\n        /* \"#utility.yul\":9907:9924   */\n      swap1\n      pop\n        /* \"#utility.yul\":9952:9954   */\n      0x1f\n        /* \"#utility.yul\":9944:9950   */\n      dup4\n        /* \"#utility.yul\":9941:9955   */\n      gt\n        /* \"#utility.yul\":9969:9970   */\n      0x01\n        /* \"#utility.yul\":9964:10581   */\n      dup2\n      eq\n      tag_198\n      jumpi\n        /* \"#utility.yul\":10625:10626   */\n      0x00\n        /* \"#utility.yul\":10642:10648   */\n      dup5\n        /* \"#utility.yul\":10639:10716   */\n      iszero\n      tag_199\n      jumpi\n        /* \"#utility.yul\":10691:10700   */\n      dup3\n        /* \"#utility.yul\":10686:10689   */\n      dup8\n        /* \"#utility.yul\":10682:10701   */\n      add\n        /* \"#utility.yul\":10676:10702   */\n      mload\n        /* \"#utility.yul\":10667:10702   */\n      swap1\n      pop\n        /* \"#utility.yul\":10639:10716   */\n    tag_199:\n        /* \"#utility.yul\":10742:10809   */\n      tag_200\n        /* \"#utility.yul\":10802:10808   */\n      dup6\n        /* \"#utility.yul\":10795:10800   */\n      dup3\n        /* \"#utility.yul\":10742:10809   */\n      tag_77\n      jump\t// in\n    tag_200:\n        /* \"#utility.yul\":10736:10740   */\n      dup7\n        /* \"#utility.yul\":10729:10810   */\n      sstore\n        /* \"#utility.yul\":10598:10820   */\n      pop\n        /* \"#utility.yul\":9934:10820   */\n      jump(tag_197)\n        /* \"#utility.yul\":9964:10581   */\n    tag_198:\n        /* \"#utility.yul\":10016:10020   */\n      0x1f\n        /* \"#utility.yul\":10012:10021   */\n      not\n        /* \"#utility.yul\":10004:10010   */\n      dup5\n        /* \"#utility.yul\":10000:10022   */\n      and\n        /* \"#utility.yul\":10050:10086   */\n      tag_201\n        /* \"#utility.yul\":10081:10085   */\n      dup7\n        /* \"#utility.yul\":10050:10086   */\n      tag_62\n      jump\t// in\n    tag_201:\n        /* \"#utility.yul\":10108:10109   */\n      0x00\n        /* \"#utility.yul\":10122:10330   */\n    tag_202:\n        /* \"#utility.yul\":10136:10143   */\n      dup3\n        /* \"#utility.yul\":10133:10134   */\n      dup2\n        /* \"#utility.yul\":10130:10144   */\n      lt\n        /* \"#utility.yul\":10122:10330   */\n      iszero\n      tag_204\n      jumpi\n        /* \"#utility.yul\":10215:10224   */\n      dup5\n        /* \"#utility.yul\":10210:10213   */\n      dup10\n        /* \"#utility.yul\":10206:10225   */\n      add\n        /* \"#utility.yul\":10200:10226   */\n      mload\n        /* \"#utility.yul\":10192:10198   */\n      dup3\n        /* \"#utility.yul\":10185:10227   */\n      sstore\n        /* \"#utility.yul\":10266:10267   */\n      0x01\n        /* \"#utility.yul\":10258:10264   */\n      dup3\n        /* \"#utility.yul\":10254:10268   */\n      add\n        /* \"#utility.yul\":10244:10268   */\n      swap2\n      pop\n        /* \"#utility.yul\":10313:10315   */\n      0x20\n        /* \"#utility.yul\":10302:10311   */\n      dup6\n        /* \"#utility.yul\":10298:10316   */\n      add\n        /* \"#utility.yul\":10285:10316   */\n      swap5\n      pop\n        /* \"#utility.yul\":10159:10163   */\n      0x20\n        /* \"#utility.yul\":10156:10157   */\n      dup2\n        /* \"#utility.yul\":10152:10164   */\n      add\n        /* \"#utility.yul\":10147:10164   */\n      swap1\n      pop\n        /* \"#utility.yul\":10122:10330   */\n      jump(tag_202)\n    tag_204:\n        /* \"#utility.yul\":10358:10364   */\n      dup7\n        /* \"#utility.yul\":10349:10356   */\n      dup4\n        /* \"#utility.yul\":10346:10365   */\n      lt\n        /* \"#utility.yul\":10343:10522   */\n      iszero\n      tag_205\n      jumpi\n        /* \"#utility.yul\":10416:10425   */\n      dup5\n        /* \"#utility.yul\":10411:10414   */\n      dup10\n        /* \"#utility.yul\":10407:10426   */\n      add\n        /* \"#utility.yul\":10401:10427   */\n      mload\n        /* \"#utility.yul\":10459:10507   */\n      tag_206\n        /* \"#utility.yul\":10501:10505   */\n      0x1f\n        /* \"#utility.yul\":10493:10499   */\n      dup10\n        /* \"#utility.yul\":10489:10506   */\n      and\n        /* \"#utility.yul\":10478:10487   */\n      dup3\n        /* \"#utility.yul\":10459:10507   */\n      tag_76\n      jump\t// in\n    tag_206:\n        /* \"#utility.yul\":10451:10457   */\n      dup4\n        /* \"#utility.yul\":10444:10508   */\n      sstore\n        /* \"#utility.yul\":10366:10522   */\n      pop\n        /* \"#utility.yul\":10343:10522   */\n    tag_205:\n        /* \"#utility.yul\":10568:10569   */\n      0x01\n        /* \"#utility.yul\":10564:10565   */\n      0x02\n        /* \"#utility.yul\":10556:10562   */\n      dup9\n        /* \"#utility.yul\":10552:10566   */\n      mul\n        /* \"#utility.yul\":10548:10570   */\n      add\n        /* \"#utility.yul\":10542:10546   */\n      dup9\n        /* \"#utility.yul\":10535:10571   */\n      sstore\n        /* \"#utility.yul\":9971:10581   */\n      pop\n      pop\n      pop\n        /* \"#utility.yul\":9934:10820   */\n    tag_197:\n      pop\n        /* \"#utility.yul\":9526:10826   */\n      pop\n      pop\n      pop\n        /* \"#utility.yul\":9436:10826   */\n      pop\n      pop\n      jump\t// out\n        /* \"#utility.yul\":10832:10931   */\n    tag_78:\n        /* \"#utility.yul\":10884:10890   */\n      0x00\n        /* \"#utility.yul\":10918:10923   */\n      dup2\n        /* \"#utility.yul\":10912:10924   */\n      mload\n        /* \"#utility.yul\":10902:10924   */\n      swap1\n      pop\n        /* \"#utility.yul\":10832:10931   */\n      swap2\n      swap1\n      pop\n      jump\t// out\n        /* \"#utility.yul\":10937:12329   */\n    tag_29:\n        /* \"#utility.yul\":11053:11090   */\n      tag_209\n        /* \"#utility.yul\":11086:11089   */\n      dup3\n        /* \"#utility.yul\":11053:11090   */\n      tag_78\n      jump\t// in\n    tag_209:\n        /* \"#utility.yul\":11155:11173   */\n      0xffffffffffffffff\n        /* \"#utility.yul\":11147:11153   */\n      dup2\n        /* \"#utility.yul\":11144:11174   */\n      gt\n        /* \"#utility.yul\":11141:11197   */\n      iszero\n      tag_210\n      jumpi\n        /* \"#utility.yul\":11177:11195   */\n      tag_211\n      tag_47\n      jump\t// in\n    tag_211:\n        /* \"#utility.yul\":11141:11197   */\n    tag_210:\n        /* \"#utility.yul\":11221:11259   */\n      tag_212\n        /* \"#utility.yul\":11253:11257   */\n      dup3\n        /* \"#utility.yul\":11247:11258   */\n      sload\n        /* \"#utility.yul\":11221:11259   */\n      tag_34\n      jump\t// in\n    tag_212:\n        /* \"#utility.yul\":11306:11372   */\n      tag_213\n        /* \"#utility.yul\":11365:11371   */\n      dup3\n        /* \"#utility.yul\":11357:11363   */\n      dup3\n        /* \"#utility.yul\":11351:11355   */\n      dup6\n        /* \"#utility.yul\":11306:11372   */\n      tag_74\n      jump\t// in\n    tag_213:\n        /* \"#utility.yul\":11399:11400   */\n      0x00\n        /* \"#utility.yul\":11423:11427   */\n      0x20\n        /* \"#utility.yul\":11410:11427   */\n      swap1\n      pop\n        /* \"#utility.yul\":11455:11457   */\n      0x1f\n        /* \"#utility.yul\":11447:11453   */\n      dup4\n        /* \"#utility.yul\":11444:11458   */\n      gt\n        /* \"#utility.yul\":11472:11473   */\n      0x01\n        /* \"#utility.yul\":11467:12084   */\n      dup2\n      eq\n      tag_215\n      jumpi\n        /* \"#utility.yul\":12128:12129   */\n      0x00\n        /* \"#utility.yul\":12145:12151   */\n      dup5\n        /* \"#utility.yul\":12142:12219   */\n      iszero\n      tag_216\n      jumpi\n        /* \"#utility.yul\":12194:12203   */\n      dup3\n        /* \"#utility.yul\":12189:12192   */\n      dup8\n        /* \"#utility.yul\":12185:12204   */\n      add\n        /* \"#utility.yul\":12179:12205   */\n      mload\n        /* \"#utility.yul\":12170:12205   */\n      swap1\n      pop\n        /* \"#utility.yul\":12142:12219   */\n    tag_216:\n        /* \"#utility.yul\":12245:12312   */\n      tag_217\n        /* \"#utility.yul\":12305:12311   */\n      dup6\n        /* \"#utility.yul\":12298:12303   */\n      dup3\n        /* \"#utility.yul\":12245:12312   */\n      tag_77\n      jump\t// in\n    tag_217:\n        /* \"#utility.yul\":12239:12243   */\n      dup7\n        /* \"#utility.yul\":12232:12313   */\n      sstore\n        /* \"#utility.yul\":12101:12323   */\n      pop\n        /* \"#utility.yul\":11437:12323   */\n      jump(tag_214)\n        /* \"#utility.yul\":11467:12084   */\n    tag_215:\n        /* \"#utility.yul\":11519:11523   */\n      0x1f\n        /* \"#utility.yul\":11515:11524   */\n      not\n        /* \"#utility.yul\":11507:11513   */\n      dup5\n        /* \"#utility.yul\":11503:11525   */\n      and\n        /* \"#utility.yul\":11553:11589   */\n      tag_218\n        /* \"#utility.yul\":11584:11588   */\n      dup7\n        /* \"#utility.yul\":11553:11589   */\n      tag_62\n      jump\t// in\n    tag_218:\n        /* \"#utility.yul\":11611:11612   */\n      0x00\n        /* \"#utility.yul\":11625:11833   */\n    tag_219:\n        /* \"#utility.yul\":11639:11646   */\n      dup3\n        /* \"#utility.yul\":11636:11637   */\n      dup2\n        /* \"#utility.yul\":11633:11647   */\n      lt\n        /* \"#utility.yul\":11625:11833   */\n      iszero\n      tag_221\n      jumpi\n        /* \"#utility.yul\":11718:11727   */\n      dup5\n        /* \"#utility.yul\":11713:11716   */\n      dup10\n        /* \"#utility.yul\":11709:11728   */\n      add\n        /* \"#utility.yul\":11703:11729   */\n      mload\n        /* \"#utility.yul\":11695:11701   */\n      dup3\n        /* \"#utility.yul\":11688:11730   */\n      sstore\n        /* \"#utility.yul\":11769:11770   */\n      0x01\n        /* \"#utility.yul\":11761:11767   */\n      dup3\n        /* \"#utility.yul\":11757:11771   */\n      add\n        /* \"#utility.yul\":11747:11771   */\n      swap2\n      pop\n        /* \"#utility.yul\":11816:11818   */\n      0x20\n        /* \"#utility.yul\":11805:11814   */\n      dup6\n        /* \"#utility.yul\":11801:11819   */\n      add\n        /* \"#utility.yul\":11788:11819   */\n      swap5\n      pop\n        /* \"#utility.yul\":11662:11666   */\n      0x20\n        /* \"#utility.yul\":11659:11660   */\n      dup2\n        /* \"#utility.yul\":11655:11667   */\n      add\n        /* \"#utility.yul\":11650:11667   */\n      swap1\n      pop\n        /* \"#utility.yul\":11625:11833   */\n      jump(tag_219)\n    tag_221:\n        /* \"#utility.yul\":11861:11867   */\n      dup7\n        /* \"#utility.yul\":11852:11859   */\n      dup4\n        /* \"#utility.yul\":11849:11868   */\n      lt\n        /* \"#utility.yul\":11846:12025   */\n      iszero\n      tag_222\n      jumpi\n        /* \"#utility.yul\":11919:11928   */\n      dup5\n        /* \"#utility.yul\":11914:11917   */\n      dup10\n        /* \"#utility.yul\":11910:11929   */\n      add\n        /* \"#utility.yul\":11904:11930   */\n      mload\n        /* \"#utility.yul\":11962:12010   */\n      tag_223\n        /* \"#utility.yul\":12004:12008   */\n      0x1f\n        /* \"#utility.yul\":11996:12002   */\n      dup10\n        /* \"#utility.yul\":11992:12009   */\n      and\n        /* \"#utility.yul\":11981:11990   */\n      dup3\n        /* \"#utility.yul\":11962:12010   */\n      tag_76\n      jump\t// in\n    tag_223:\n        /* \"#utility.yul\":11954:11960   */\n      dup4\n        /* \"#utility.yul\":11947:12011   */\n      sstore\n        /* \"#utility.yul\":11869:12025   */\n      pop\n        /* \"#utility.yul\":11846:12025   */\n    tag_222:\n        /* \"#utility.yul\":12071:12072   */\n      0x01\n        /* \"#utility.yul\":12067:12068   */\n      0x02\n        /* \"#utility.yul\":12059:12065   */\n      dup9\n        /* \"#utility.yul\":12055:12069   */\n      mul\n        /* \"#utility.yul\":12051:12073   */\n      add\n        /* \"#utility.yul\":12045:12049   */\n      dup9\n        /* \"#utility.yul\":12038:12074   */\n      sstore\n        /* \"#utility.yul\":11474:12084   */\n      pop\n      pop\n      pop\n        /* \"#utility.yul\":11437:12323   */\n    tag_214:\n      pop\n        /* \"#utility.yul\":11028:12329   */\n      pop\n      pop\n      pop\n        /* \"#utility.yul\":10937:12329   */\n      pop\n      pop\n      jump\t// out\n\n    auxdata: 0xa2646970667358221220a7fd31e92405bf87890d5917fe725ac7affbb6f25756f393b0c87885f5f5607164736f6c63430008160033\n}\n",
				"bytecode": {
					"linkReferences": {},
					"object": "608060405234801561000f575f80fd5b506108f68061001d5f395ff3fe608060405234801561000f575f80fd5b5060043610610055575f3560e01c80631b72e3cd146100595780632de647de14610075578063d1f4ba821461007f578063d46300fd14610089578063e1421c92146100a7575b5f80fd5b610073600480360381019061006e919061034f565b6100c3565b005b61007d6100d5565b005b61008761011b565b005b610091610161565b60405161009e9190610410565b60405180910390f35b6100c160048036038101906100bc91906104ce565b6101f0565b005b805f90816100d19190610718565b5050565b6040518060400160405280600281526020017f31320000000000000000000000000000000000000000000000000000000000008152505f908161011891906107f1565b50565b6040518060400160405280600281526020017f61620000000000000000000000000000000000000000000000000000000000008152505f908161015e91906107f1565b50565b60605f805461016f90610542565b80601f016020809104026020016040519081016040528092919081815260200182805461019b90610542565b80156101e65780601f106101bd576101008083540402835291602001916101e6565b820191905f5260205f20905b8154815290600101906020018083116101c957829003601f168201915b5050505050905090565b805f90816101fe9190610718565b5050565b5f604051905090565b5f80fd5b5f80fd5b5f80fd5b5f80fd5b5f601f19601f8301169050919050565b7f4e487b71000000000000000000000000000000000000000000000000000000005f52604160045260245ffd5b6102618261021b565b810181811067ffffffffffffffff821117156102805761027f61022b565b5b80604052505050565b5f610292610202565b905061029e8282610258565b919050565b5f67ffffffffffffffff8211156102bd576102bc61022b565b5b6102c68261021b565b9050602081019050919050565b828183375f83830152505050565b5f6102f36102ee846102a3565b610289565b90508281526020810184848401111561030f5761030e610217565b5b61031a8482856102d3565b509392505050565b5f82601f83011261033657610335610213565b5b81356103468482602086016102e1565b91505092915050565b5f602082840312156103645761036361020b565b5b5f82013567ffffffffffffffff8111156103815761038061020f565b5b61038d84828501610322565b91505092915050565b5f81519050919050565b5f82825260208201905092915050565b5f5b838110156103cd5780820151818401526020810190506103b2565b5f8484015250505050565b5f6103e282610396565b6103ec81856103a0565b93506103fc8185602086016103b0565b6104058161021b565b840191505092915050565b5f6020820190508181035f83015261042881846103d8565b905092915050565b5f67ffffffffffffffff82111561044a5761044961022b565b5b6104538261021b565b9050602081019050919050565b5f61047261046d84610430565b610289565b90508281526020810184848401111561048e5761048d610217565b5b6104998482856102d3565b509392505050565b5f82601f8301126104b5576104b4610213565b5b81356104c5848260208601610460565b91505092915050565b5f602082840312156104e3576104e261020b565b5b5f82013567ffffffffffffffff811115610500576104ff61020f565b5b61050c848285016104a1565b91505092915050565b7f4e487b71000000000000000000000000000000000000000000000000000000005f52602260045260245ffd5b5f600282049050600182168061055957607f821691505b60208210810361056c5761056b610515565b5b50919050565b5f819050815f5260205f209050919050565b5f6020601f8301049050919050565b5f82821b905092915050565b5f600883026105ce7fffffffffffffffffffffffffffffffffffffffffffffffffffffffffffffffff82610593565b6105d88683610593565b95508019841693508086168417925050509392505050565b5f819050919050565b5f819050919050565b5f61061c610617610612846105f0565b6105f9565b6105f0565b9050919050565b5f819050919050565b61063583610602565b61064961064182610623565b84845461059f565b825550505050565b5f90565b61065d610651565b61066881848461062c565b505050565b5b8181101561068b576106805f82610655565b60018101905061066e565b5050565b601f8211156106d0576106a181610572565b6106aa84610584565b810160208510156106b9578190505b6106cd6106c585610584565b83018261066d565b50505b505050565b5f82821c905092915050565b5f6106f05f19846008026106d5565b1980831691505092915050565b5f61070883836106e1565b9150826002028217905092915050565b61072182610396565b67ffffffffffffffff81111561073a5761073961022b565b5b6107448254610542565b61074f82828561068f565b5f60209050601f831160018114610780575f841561076e578287015190505b61077885826106fd565b8655506107df565b601f19841661078e86610572565b5f5b828110156107b557848901518255600182019150602085019450602081019050610790565b868310156107d257848901516107ce601f8916826106e1565b8355505b6001600288020188555050505b505050505050565b5f81519050919050565b6107fa826107e7565b67ffffffffffffffff8111156108135761081261022b565b5b61081d8254610542565b61082882828561068f565b5f60209050601f831160018114610859575f8415610847578287015190505b61085185826106fd565b8655506108b8565b601f19841661086786610572565b5f5b8281101561088e57848901518255600182019150602085019450602081019050610869565b868310156108ab57848901516108a7601f8916826106e1565b8355505b6001600288020188555050505b50505050505056fea2646970667358221220a7fd31e92405bf87890d5917fe725ac7affbb6f25756f393b0c87885f5f5607164736f6c63430008160033",
					"opcodes": "PUSH1 0x80 PUSH1 0x40 MSTORE CALLVALUE DUP1 ISZERO PUSH2 0xF JUMPI PUSH0 DUP1 REVERT JUMPDEST POP PUSH2 0x8F6 DUP1 PUSH2 0x1D PUSH0 CODECOPY PUSH0 RETURN INVALID PUSH1 0x80 PUSH1 0x40 MSTORE CALLVALUE DUP1 ISZERO PUSH2 0xF JUMPI PUSH0 DUP1 REVERT JUMPDEST POP PUSH1 0x4 CALLDATASIZE LT PUSH2 0x55 JUMPI PUSH0 CALLDATALOAD PUSH1 0xE0 SHR DUP1 PUSH4 0x1B72E3CD EQ PUSH2 0x59 JUMPI DUP1 PUSH4 0x2DE647DE EQ PUSH2 0x75 JUMPI DUP1 PUSH4 0xD1F4BA82 EQ PUSH2 0x7F JUMPI DUP1 PUSH4 0xD46300FD EQ PUSH2 0x89 JUMPI DUP1 PUSH4 0xE1421C92 EQ PUSH2 0xA7 JUMPI JUMPDEST PUSH0 DUP1 REVERT JUMPDEST PUSH2 0x73 PUSH1 0x4 DUP1 CALLDATASIZE SUB DUP2 ADD SWAP1 PUSH2 0x6E SWAP2 SWAP1 PUSH2 0x34F JUMP JUMPDEST PUSH2 0xC3 JUMP JUMPDEST STOP JUMPDEST PUSH2 0x7D PUSH2 0xD5 JUMP JUMPDEST STOP JUMPDEST PUSH2 0x87 PUSH2 0x11B JUMP JUMPDEST STOP JUMPDEST PUSH2 0x91 PUSH2 0x161 JUMP JUMPDEST PUSH1 0x40 MLOAD PUSH2 0x9E SWAP2 SWAP1 PUSH2 0x410 JUMP JUMPDEST PUSH1 0x40 MLOAD DUP1 SWAP2 SUB SWAP1 RETURN JUMPDEST PUSH2 0xC1 PUSH1 0x4 DUP1 CALLDATASIZE SUB DUP2 ADD SWAP1 PUSH2 0xBC SWAP2 SWAP1 PUSH2 0x4CE JUMP JUMPDEST PUSH2 0x1F0 JUMP JUMPDEST STOP JUMPDEST DUP1 PUSH0 SWAP1 DUP2 PUSH2 0xD1 SWAP2 SWAP1 PUSH2 0x718 JUMP JUMPDEST POP POP JUMP JUMPDEST PUSH1 0x40 MLOAD DUP1 PUSH1 0x40 ADD PUSH1 0x40 MSTORE DUP1 PUSH1 0x2 DUP2 MSTORE PUSH1 0x20 ADD PUSH32 0x3132000000000000000000000000000000000000000000000000000000000000 DUP2 MSTORE POP PUSH0 SWAP1 DUP2 PUSH2 0x118 SWAP2 SWAP1 PUSH2 0x7F1 JUMP JUMPDEST POP JUMP JUMPDEST PUSH1 0x40 MLOAD DUP1 PUSH1 0x40 ADD PUSH1 0x40 MSTORE DUP1 PUSH1 0x2 DUP2 MSTORE PUSH1 0x20 ADD PUSH32 0x6162000000000000000000000000000000000000000000000000000000000000 DUP2 MSTORE POP PUSH0 SWAP1 DUP2 PUSH2 0x15E SWAP2 SWAP1 PUSH2 0x7F1 JUMP JUMPDEST POP JUMP JUMPDEST PUSH1 0x60 PUSH0 DUP1 SLOAD PUSH2 0x16F SWAP1 PUSH2 0x542 JUMP JUMPDEST DUP1 PUSH1 0x1F ADD PUSH1 0x20 DUP1 SWAP2 DIV MUL PUSH1 0x20 ADD PUSH1 0x40 MLOAD SWAP1 DUP2 ADD PUSH1 0x40 MSTORE DUP1 SWAP3 SWAP2 SWAP1 DUP2 DUP2 MSTORE PUSH1 0x20 ADD DUP3 DUP1 SLOAD PUSH2 0x19B SWAP1 PUSH2 0x542 JUMP JUMPDEST DUP1 ISZERO PUSH2 0x1E6 JUMPI DUP1 PUSH1 0x1F LT PUSH2 0x1BD JUMPI PUSH2 0x100 DUP1 DUP4 SLOAD DIV MUL DUP4 MSTORE SWAP2 PUSH1 0x20 ADD SWAP2 PUSH2 0x1E6 JUMP JUMPDEST DUP3 ADD SWAP2 SWAP1 PUSH0 MSTORE PUSH1 0x20 PUSH0 KECCAK256 SWAP1 JUMPDEST DUP2 SLOAD DUP2 MSTORE SWAP1 PUSH1 0x1 ADD SWAP1 PUSH1 0x20 ADD DUP1 DUP4 GT PUSH2 0x1C9 JUMPI DUP3 SWAP1 SUB PUSH1 0x1F AND DUP3 ADD SWAP2 JUMPDEST POP POP POP POP POP SWAP1 POP SWAP1 JUMP JUMPDEST DUP1 PUSH0 SWAP1 DUP2 PUSH2 0x1FE SWAP2 SWAP1 PUSH2 0x718 JUMP JUMPDEST POP POP JUMP JUMPDEST PUSH0 PUSH1 0x40 MLOAD SWAP1 POP SWAP1 JUMP JUMPDEST PUSH0 DUP1 REVERT JUMPDEST PUSH0 DUP1 REVERT JUMPDEST PUSH0 DUP1 REVERT JUMPDEST PUSH0 DUP1 REVERT JUMPDEST PUSH0 PUSH1 0x1F NOT PUSH1 0x1F DUP4 ADD AND SWAP1 POP SWAP2 SWAP1 POP JUMP JUMPDEST PUSH32 0x4E487B7100000000000000000000000000000000000000000000000000000000 PUSH0 MSTORE PUSH1 0x41 PUSH1 0x4 MSTORE PUSH1 0x24 PUSH0 REVERT JUMPDEST PUSH2 0x261 DUP3 PUSH2 0x21B JUMP JUMPDEST DUP2 ADD DUP2 DUP2 LT PUSH8 0xFFFFFFFFFFFFFFFF DUP3 GT OR ISZERO PUSH2 0x280 JUMPI PUSH2 0x27F PUSH2 0x22B JUMP JUMPDEST JUMPDEST DUP1 PUSH1 0x40 MSTORE POP POP POP JUMP JUMPDEST PUSH0 PUSH2 0x292 PUSH2 0x202 JUMP JUMPDEST SWAP1 POP PUSH2 0x29E DUP3 DUP3 PUSH2 0x258 JUMP JUMPDEST SWAP2 SWAP1 POP JUMP JUMPDEST PUSH0 PUSH8 0xFFFFFFFFFFFFFFFF DUP3 GT ISZERO PUSH2 0x2BD JUMPI PUSH2 0x2BC PUSH2 0x22B JUMP JUMPDEST JUMPDEST PUSH2 0x2C6 DUP3 PUSH2 0x21B JUMP JUMPDEST SWAP1 POP PUSH1 0x20 DUP2 ADD SWAP1 POP SWAP2 SWAP1 POP JUMP JUMPDEST DUP3 DUP2 DUP4 CALLDATACOPY PUSH0 DUP4 DUP4 ADD MSTORE POP POP POP JUMP JUMPDEST PUSH0 PUSH2 0x2F3 PUSH2 0x2EE DUP5 PUSH2 0x2A3 JUMP JUMPDEST PUSH2 0x289 JUMP JUMPDEST SWAP1 POP DUP3 DUP2 MSTORE PUSH1 0x20 DUP2 ADD DUP5 DUP5 DUP5 ADD GT ISZERO PUSH2 0x30F JUMPI PUSH2 0x30E PUSH2 0x217 JUMP JUMPDEST JUMPDEST PUSH2 0x31A DUP5 DUP3 DUP6 PUSH2 0x2D3 JUMP JUMPDEST POP SWAP4 SWAP3 POP POP POP JUMP JUMPDEST PUSH0 DUP3 PUSH1 0x1F DUP4 ADD SLT PUSH2 0x336 JUMPI PUSH2 0x335 PUSH2 0x213 JUMP JUMPDEST JUMPDEST DUP2 CALLDATALOAD PUSH2 0x346 DUP5 DUP3 PUSH1 0x20 DUP7 ADD PUSH2 0x2E1 JUMP JUMPDEST SWAP2 POP POP SWAP3 SWAP2 POP POP JUMP JUMPDEST PUSH0 PUSH1 0x20 DUP3 DUP5 SUB SLT ISZERO PUSH2 0x364 JUMPI PUSH2 0x363 PUSH2 0x20B JUMP JUMPDEST JUMPDEST PUSH0 DUP3 ADD CALLDATALOAD PUSH8 0xFFFFFFFFFFFFFFFF DUP2 GT ISZERO PUSH2 0x381 JUMPI PUSH2 0x380 PUSH2 0x20F JUMP JUMPDEST JUMPDEST PUSH2 0x38D DUP5 DUP3 DUP6 ADD PUSH2 0x322 JUMP JUMPDEST SWAP2 POP POP SWAP3 SWAP2 POP POP JUMP JUMPDEST PUSH0 DUP2 MLOAD SWAP1 POP SWAP2 SWAP1 POP JUMP JUMPDEST PUSH0 DUP3 DUP3 MSTORE PUSH1 0x20 DUP3 ADD SWAP1 POP SWAP3 SWAP2 POP POP JUMP JUMPDEST PUSH0 JUMPDEST DUP4 DUP2 LT ISZERO PUSH2 0x3CD JUMPI DUP1 DUP3 ADD MLOAD DUP2 DUP5 ADD MSTORE PUSH1 0x20 DUP2 ADD SWAP1 POP PUSH2 0x3B2 JUMP JUMPDEST PUSH0 DUP5 DUP5 ADD MSTORE POP POP POP POP JUMP JUMPDEST PUSH0 PUSH2 0x3E2 DUP3 PUSH2 0x396 JUMP JUMPDEST PUSH2 0x3EC DUP2 DUP6 PUSH2 0x3A0 JUMP JUMPDEST SWAP4 POP PUSH2 0x3FC DUP2 DUP6 PUSH1 0x20 DUP7 ADD PUSH2 0x3B0 JUMP JUMPDEST PUSH2 0x405 DUP2 PUSH2 0x21B JUMP JUMPDEST DUP5 ADD SWAP2 POP POP SWAP3 SWAP2 POP POP JUMP JUMPDEST PUSH0 PUSH1 0x20 DUP3 ADD SWAP1 POP DUP2 DUP2 SUB PUSH0 DUP4 ADD MSTORE PUSH2 0x428 DUP2 DUP5 PUSH2 0x3D8 JUMP JUMPDEST SWAP1 POP SWAP3 SWAP2 POP POP JUMP JUMPDEST PUSH0 PUSH8 0xFFFFFFFFFFFFFFFF DUP3 GT ISZERO PUSH2 0x44A JUMPI PUSH2 0x449 PUSH2 0x22B JUMP JUMPDEST JUMPDEST PUSH2 0x453 DUP3 PUSH2 0x21B JUMP JUMPDEST SWAP1 POP PUSH1 0x20 DUP2 ADD SWAP1 POP SWAP2 SWAP1 POP JUMP JUMPDEST PUSH0 PUSH2 0x472 PUSH2 0x46D DUP5 PUSH2 0x430 JUMP JUMPDEST PUSH2 0x289 JUMP JUMPDEST SWAP1 POP DUP3 DUP2 MSTORE PUSH1 0x20 DUP2 ADD DUP5 DUP5 DUP5 ADD GT ISZERO PUSH2 0x48E JUMPI PUSH2 0x48D PUSH2 0x217 JUMP JUMPDEST JUMPDEST PUSH2 0x499 DUP5 DUP3 DUP6 PUSH2 0x2D3 JUMP JUMPDEST POP SWAP4 SWAP3 POP POP POP JUMP JUMPDEST PUSH0 DUP3 PUSH1 0x1F DUP4 ADD SLT PUSH2 0x4B5 JUMPI PUSH2 0x4B4 PUSH2 0x213 JUMP JUMPDEST JUMPDEST DUP2 CALLDATALOAD PUSH2 0x4C5 DUP5 DUP3 PUSH1 0x20 DUP7 ADD PUSH2 0x460 JUMP JUMPDEST SWAP2 POP POP SWAP3 SWAP2 POP POP JUMP JUMPDEST PUSH0 PUSH1 0x20 DUP3 DUP5 SUB SLT ISZERO PUSH2 0x4E3 JUMPI PUSH2 0x4E2 PUSH2 0x20B JUMP JUMPDEST JUMPDEST PUSH0 DUP3 ADD CALLDATALOAD PUSH8 0xFFFFFFFFFFFFFFFF DUP2 GT ISZERO PUSH2 0x500 JUMPI PUSH2 0x4FF PUSH2 0x20F JUMP JUMPDEST JUMPDEST PUSH2 0x50C DUP5 DUP3 DUP6 ADD PUSH2 0x4A1 JUMP JUMPDEST SWAP2 POP POP SWAP3 SWAP2 POP POP JUMP JUMPDEST PUSH32 0x4E487B7100000000000000000000000000000000000000000000000000000000 PUSH0 MSTORE PUSH1 0x22 PUSH1 0x4 MSTORE PUSH1 0x24 PUSH0 REVERT JUMPDEST PUSH0 PUSH1 0x2 DUP3 DIV SWAP1 POP PUSH1 0x1 DUP3 AND DUP1 PUSH2 0x559 JUMPI PUSH1 0x7F DUP3 AND SWAP2 POP JUMPDEST PUSH1 0x20 DUP3 LT DUP2 SUB PUSH2 0x56C JUMPI PUSH2 0x56B PUSH2 0x515 JUMP JUMPDEST JUMPDEST POP SWAP2 SWAP1 POP JUMP JUMPDEST PUSH0 DUP2 SWAP1 POP DUP2 PUSH0 MSTORE PUSH1 0x20 PUSH0 KECCAK256 SWAP1 POP SWAP2 SWAP1 POP JUMP JUMPDEST PUSH0 PUSH1 0x20 PUSH1 0x1F DUP4 ADD DIV SWAP1 POP SWAP2 SWAP1 POP JUMP JUMPDEST PUSH0 DUP3 DUP3 SHL SWAP1 POP SWAP3 SWAP2 POP POP JUMP JUMPDEST PUSH0 PUSH1 0x8 DUP4 MUL PUSH2 0x5CE PUSH32 0xFFFFFFFFFFFFFFFFFFFFFFFFFFFFFFFFFFFFFFFFFFFFFFFFFFFFFFFFFFFFFFFF DUP3 PUSH2 0x593 JUMP JUMPDEST PUSH2 0x5D8 DUP7 DUP4 PUSH2 0x593 JUMP JUMPDEST SWAP6 POP DUP1 NOT DUP5 AND SWAP4 POP DUP1 DUP7 AND DUP5 OR SWAP3 POP POP POP SWAP4 SWAP3 POP POP POP JUMP JUMPDEST PUSH0 DUP2 SWAP1 POP SWAP2 SWAP1 POP JUMP JUMPDEST PUSH0 DUP2 SWAP1 POP SWAP2 SWAP1 POP JUMP JUMPDEST PUSH0 PUSH2 0x61C PUSH2 0x617 PUSH2 0x612 DUP5 PUSH2 0x5F0 JUMP JUMPDEST PUSH2 0x5F9 JUMP JUMPDEST PUSH2 0x5F0 JUMP JUMPDEST SWAP1 POP SWAP2 SWAP1 POP JUMP JUMPDEST PUSH0 DUP2 SWAP1 POP SWAP2 SWAP1 POP JUMP JUMPDEST PUSH2 0x635 DUP4 PUSH2 0x602 JUMP JUMPDEST PUSH2 0x649 PUSH2 0x641 DUP3 PUSH2 0x623 JUMP JUMPDEST DUP5 DUP5 SLOAD PUSH2 0x59F JUMP JUMPDEST DUP3 SSTORE POP POP POP POP JUMP JUMPDEST PUSH0 SWAP1 JUMP JUMPDEST PUSH2 0x65D PUSH2 0x651 JUMP JUMPDEST PUSH2 0x668 DUP2 DUP5 DUP5 PUSH2 0x62C JUMP JUMPDEST POP POP POP JUMP JUMPDEST JUMPDEST DUP2 DUP2 LT ISZERO PUSH2 0x68B JUMPI PUSH2 0x680 PUSH0 DUP3 PUSH2 0x655 JUMP JUMPDEST PUSH1 0x1 DUP2 ADD SWAP1 POP PUSH2 0x66E JUMP JUMPDEST POP POP JUMP JUMPDEST PUSH1 0x1F DUP3 GT ISZERO PUSH2 0x6D0 JUMPI PUSH2 0x6A1 DUP2 PUSH2 0x572 JUMP JUMPDEST PUSH2 0x6AA DUP5 PUSH2 0x584 JUMP JUMPDEST DUP2 ADD PUSH1 0x20 DUP6 LT ISZERO PUSH2 0x6B9 JUMPI DUP2 SWAP1 POP JUMPDEST PUSH2 0x6CD PUSH2 0x6C5 DUP6 PUSH2 0x584 JUMP JUMPDEST DUP4 ADD DUP3 PUSH2 0x66D JUMP JUMPDEST POP POP JUMPDEST POP POP POP JUMP JUMPDEST PUSH0 DUP3 DUP3 SHR SWAP1 POP SWAP3 SWAP2 POP POP JUMP JUMPDEST PUSH0 PUSH2 0x6F0 PUSH0 NOT DUP5 PUSH1 0x8 MUL PUSH2 0x6D5 JUMP JUMPDEST NOT DUP1 DUP4 AND SWAP2 POP POP SWAP3 SWAP2 POP POP JUMP JUMPDEST PUSH0 PUSH2 0x708 DUP4 DUP4 PUSH2 0x6E1 JUMP JUMPDEST SWAP2 POP DUP3 PUSH1 0x2 MUL DUP3 OR SWAP1 POP SWAP3 SWAP2 POP POP JUMP JUMPDEST PUSH2 0x721 DUP3 PUSH2 0x396 JUMP JUMPDEST PUSH8 0xFFFFFFFFFFFFFFFF DUP2 GT ISZERO PUSH2 0x73A JUMPI PUSH2 0x739 PUSH2 0x22B JUMP JUMPDEST JUMPDEST PUSH2 0x744 DUP3 SLOAD PUSH2 0x542 JUMP JUMPDEST PUSH2 0x74F DUP3 DUP3 DUP6 PUSH2 0x68F JUMP JUMPDEST PUSH0 PUSH1 0x20 SWAP1 POP PUSH1 0x1F DUP4 GT PUSH1 0x1 DUP2 EQ PUSH2 0x780 JUMPI PUSH0 DUP5 ISZERO PUSH2 0x76E JUMPI DUP3 DUP8 ADD MLOAD SWAP1 POP JUMPDEST PUSH2 0x778 DUP6 DUP3 PUSH2 0x6FD JUMP JUMPDEST DUP7 SSTORE POP PUSH2 0x7DF JUMP JUMPDEST PUSH1 0x1F NOT DUP5 AND PUSH2 0x78E DUP7 PUSH2 0x572 JUMP JUMPDEST PUSH0 JUMPDEST DUP3 DUP2 LT ISZERO PUSH2 0x7B5 JUMPI DUP5 DUP10 ADD MLOAD DUP3 SSTORE PUSH1 0x1 DUP3 ADD SWAP2 POP PUSH1 0x20 DUP6 ADD SWAP5 POP PUSH1 0x20 DUP2 ADD SWAP1 POP PUSH2 0x790 JUMP JUMPDEST DUP7 DUP4 LT ISZERO PUSH2 0x7D2 JUMPI DUP5 DUP10 ADD MLOAD PUSH2 0x7CE PUSH1 0x1F DUP10 AND DUP3 PUSH2 0x6E1 JUMP JUMPDEST DUP4 SSTORE POP JUMPDEST PUSH1 0x1 PUSH1 0x2 DUP9 MUL ADD DUP9 SSTORE POP POP POP JUMPDEST POP POP POP POP POP POP JUMP JUMPDEST PUSH0 DUP2 MLOAD SWAP1 POP SWAP2 SWAP1 POP JUMP JUMPDEST PUSH2 0x7FA DUP3 PUSH2 0x7E7 JUMP JUMPDEST PUSH8 0xFFFFFFFFFFFFFFFF DUP2 GT ISZERO PUSH2 0x813 JUMPI PUSH2 0x812 PUSH2 0x22B JUMP JUMPDEST JUMPDEST PUSH2 0x81D DUP3 SLOAD PUSH2 0x542 JUMP JUMPDEST PUSH2 0x828 DUP3 DUP3 DUP6 PUSH2 0x68F JUMP JUMPDEST PUSH0 PUSH1 0x20 SWAP1 POP PUSH1 0x1F DUP4 GT PUSH1 0x1 DUP2 EQ PUSH2 0x859 JUMPI PUSH0 DUP5 ISZERO PUSH2 0x847 JUMPI DUP3 DUP8 ADD MLOAD SWAP1 POP JUMPDEST PUSH2 0x851 DUP6 DUP3 PUSH2 0x6FD JUMP JUMPDEST DUP7 SSTORE POP PUSH2 0x8B8 JUMP JUMPDEST PUSH1 0x1F NOT DUP5 AND PUSH2 0x867 DUP7 PUSH2 0x572 JUMP JUMPDEST PUSH0 JUMPDEST DUP3 DUP2 LT ISZERO PUSH2 0x88E JUMPI DUP5 DUP10 ADD MLOAD DUP3 SSTORE PUSH1 0x1 DUP3 ADD SWAP2 POP PUSH1 0x20 DUP6 ADD SWAP5 POP PUSH1 0x20 DUP2 ADD SWAP1 POP PUSH2 0x869 JUMP JUMPDEST DUP7 DUP4 LT ISZERO PUSH2 0x8AB JUMPI DUP5 DUP10 ADD MLOAD PUSH2 0x8A7 PUSH1 0x1F DUP10 AND DUP3 PUSH2 0x6E1 JUMP JUMPDEST DUP4 SSTORE POP JUMPDEST PUSH1 0x1 PUSH1 0x2 DUP9 MUL ADD DUP9 SSTORE POP POP POP JUMPDEST POP POP POP POP POP POP JUMP INVALID LOG2 PUSH5 0x6970667358 0x22 SLT KECCAK256 0xA7 REVERT BALANCE 0xE9 0x24 SDIV 0xBF DUP8 DUP10 0xD MSIZE OR INVALID PUSH19 0x5AC7AFFBB6F25756F393B0C87885F5F5607164 PUSH20 0x6F6C634300081600330000000000000000000000 "
				},
				"gasEstimates": {
					"creation": {
						"codeDepositCost": "458800",
						"executionCost": "491",
						"totalCost": "459291"
					},
					"external": {
						"getA()": "infinite",
						"setA(bytes)": "infinite",
						"setB()": "infinite",
						"setC(string)": "infinite",
						"setD()": "infinite"
					}
				},
				"methodIdentifiers": {
					"getA()": "d46300fd",
					"setA(bytes)": "e1421c92",
					"setB()": "d1f4ba82",
					"setC(string)": "1b72e3cd",
					"setD()": "2de647de"
				}
			},
			"storageLayout": {
				"storage": [
					{
						"astId": 3,
						"contract": "contracts/basic5.sol:Basic5",
						"label": "a",
						"offset": 0,
						"slot": "0",
						"type": "t_bytes_storage"
					}
				],
				"types": {
					"t_bytes_storage": {
						"encoding": "bytes",
						"label": "bytes",
						"numberOfBytes": "32"
					}
				}
			},
			"userdoc": {
				"kind": "user",
				"methods": {},
				"version": 1
			}
		}
	}
}