{
	"contracts/array_s.sol": {
		"ARRAY_S": {
			"abi": [
				{
					"inputs": [
						{
							"internalType": "uint256",
							"name": "_n",
							"type": "uint256"
						}
					],
					"name": "deleteLetter",
					"outputs": [],
					"stateMutability": "nonpayable",
					"type": "function"
				},
				{
					"inputs": [],
					"name": "getLength",
					"outputs": [
						{
							"internalType": "uint256",
							"name": "",
							"type": "uint256"
						}
					],
					"stateMutability": "view",
					"type": "function"
				},
				{
					"inputs": [
						{
							"internalType": "uint256",
							"name": "_n",
							"type": "uint256"
						}
					],
					"name": "getLetter",
					"outputs": [
						{
							"internalType": "string",
							"name": "",
							"type": "string"
						}
					],
					"stateMutability": "view",
					"type": "function"
				},
				{
					"inputs": [],
					"name": "pop",
					"outputs": [],
					"stateMutability": "nonpayable",
					"type": "function"
				},
				{
					"inputs": [
						{
							"internalType": "string",
							"name": "_a",
							"type": "string"
						}
					],
					"name": "push",
					"outputs": [],
					"stateMutability": "nonpayable",
					"type": "function"
				},
				{
					"inputs": [],
					"name": "returnArray",
					"outputs": [
						{
							"internalType": "string[]",
							"name": "",
							"type": "string[]"
						}
					],
					"stateMutability": "view",
					"type": "function"
				},
				{
					"inputs": [
						{
							"internalType": "uint256",
							"name": "_n",
							"type": "uint256"
						},
						{
							"internalType": "string",
							"name": "_m",
							"type": "string"
						}
					],
					"name": "setLetter",
					"outputs": [],
					"stateMutability": "nonpayable",
					"type": "function"
				}
			],
			"devdoc": {
				"kind": "dev",
				"methods": {},
				"version": 1
			},
			"evm": {
				"assembly": "    /* \"contracts/array_s.sol\":136:931  contract ARRAY_S {... */\n  mstore(0x40, 0x80)\n  callvalue\n  dup1\n  iszero\n  tag_1\n  jumpi\n  0x00\n  dup1\n  revert\ntag_1:\n  pop\n  dataSize(sub_0)\n  dup1\n  dataOffset(sub_0)\n  0x00\n  codecopy\n  0x00\n  return\nstop\n\nsub_0: assembly {\n        /* \"contracts/array_s.sol\":136:931  contract ARRAY_S {... */\n      mstore(0x40, 0x80)\n      callvalue\n      dup1\n      iszero\n      tag_1\n      jumpi\n      0x00\n      dup1\n      revert\n    tag_1:\n      pop\n      jumpi(tag_2, lt(calldatasize, 0x04))\n      shr(0xe0, calldataload(0x00))\n      dup1\n      0x96e583a9\n      gt\n      tag_10\n      jumpi\n      dup1\n      0x96e583a9\n      eq\n      tag_6\n      jumpi\n      dup1\n      0xa4ece52c\n      eq\n      tag_7\n      jumpi\n      dup1\n      0xbe1c766b\n      eq\n      tag_8\n      jumpi\n      dup1\n      0xf8277033\n      eq\n      tag_9\n      jumpi\n      jump(tag_2)\n    tag_10:\n      dup1\n      0x3cac14c8\n      eq\n      tag_3\n      jumpi\n      dup1\n      0x4f3d057a\n      eq\n      tag_4\n      jumpi\n      dup1\n      0x7563517e\n      eq\n      tag_5\n      jumpi\n    tag_2:\n      0x00\n      dup1\n      revert\n        /* \"contracts/array_s.sol\":838:929  function returnArray() public view returns(string[] memory) {... */\n    tag_3:\n      tag_11\n      tag_12\n      jump\t// in\n    tag_11:\n      mload(0x40)\n      tag_13\n      swap2\n      swap1\n      tag_14\n      jump\t// in\n    tag_13:\n      mload(0x40)\n      dup1\n      swap2\n      sub\n      swap1\n      return\n        /* \"contracts/array_s.sol\":203:315  function push(string memory _a) public {... */\n    tag_4:\n      tag_15\n      0x04\n      dup1\n      calldatasize\n      sub\n      dup2\n      add\n      swap1\n      tag_16\n      swap2\n      swap1\n      tag_17\n      jump\t// in\n    tag_16:\n      tag_18\n      jump\t// in\n    tag_15:\n      stop\n        /* \"contracts/array_s.sol\":551:639  function setLetter(uint _n, string memory _m) public {... */\n    tag_5:\n      tag_19\n      0x04\n      dup1\n      calldatasize\n      sub\n      dup2\n      add\n      swap1\n      tag_20\n      swap2\n      swap1\n      tag_21\n      jump\t// in\n    tag_20:\n      tag_22\n      jump\t// in\n    tag_19:\n      stop\n        /* \"contracts/array_s.sol\":421:521  function getLetter(uint _n) public view returns(string memory) {... */\n    tag_6:\n      tag_23\n      0x04\n      dup1\n      calldatasize\n      sub\n      dup2\n      add\n      swap1\n      tag_24\n      swap2\n      swap1\n      tag_25\n      jump\t// in\n    tag_24:\n      tag_26\n      jump\t// in\n    tag_23:\n      mload(0x40)\n      tag_27\n      swap2\n      swap1\n      tag_28\n      jump\t// in\n    tag_27:\n      mload(0x40)\n      dup1\n      swap2\n      sub\n      swap1\n      return\n        /* \"contracts/array_s.sol\":342:394  function pop() public {... */\n    tag_7:\n      tag_29\n      tag_30\n      jump\t// in\n    tag_29:\n      stop\n        /* \"contracts/array_s.sol\":726:811  function getLength() public view returns(uint) {... */\n    tag_8:\n      tag_31\n      tag_32\n      jump\t// in\n    tag_31:\n      mload(0x40)\n      tag_33\n      swap2\n      swap1\n      tag_34\n      jump\t// in\n    tag_33:\n      mload(0x40)\n      dup1\n      swap2\n      sub\n      swap1\n      return\n        /* \"contracts/array_s.sol\":645:720  function deleteLetter(uint _n) public {... */\n    tag_9:\n      tag_35\n      0x04\n      dup1\n      calldatasize\n      sub\n      dup2\n      add\n      swap1\n      tag_36\n      swap2\n      swap1\n      tag_25\n      jump\t// in\n    tag_36:\n      tag_37\n      jump\t// in\n    tag_35:\n      stop\n        /* \"contracts/array_s.sol\":838:929  function returnArray() public view returns(string[] memory) {... */\n    tag_12:\n        /* \"contracts/array_s.sol\":881:896  string[] memory */\n      0x60\n        /* \"contracts/array_s.sol\":915:922  letters */\n      0x00\n        /* \"contracts/array_s.sol\":908:922  return letters */\n      dup1\n      sload\n      dup1\n      0x20\n      mul\n      0x20\n      add\n      mload(0x40)\n      swap1\n      dup2\n      add\n      0x40\n      mstore\n      dup1\n      swap3\n      swap2\n      swap1\n      dup2\n      dup2\n      mstore\n      0x20\n      add\n      0x00\n      swap1\n    tag_39:\n      dup3\n      dup3\n      lt\n      iszero\n      tag_40\n      jumpi\n      dup4\n      dup3\n      swap1\n      0x00\n      mstore\n      keccak256(0x00, 0x20)\n      add\n      dup1\n      sload\n      tag_42\n      swap1\n      tag_43\n      jump\t// in\n    tag_42:\n      dup1\n      0x1f\n      add\n      0x20\n      dup1\n      swap2\n      div\n      mul\n      0x20\n      add\n      mload(0x40)\n      swap1\n      dup2\n      add\n      0x40\n      mstore\n      dup1\n      swap3\n      swap2\n      swap1\n      dup2\n      dup2\n      mstore\n      0x20\n      add\n      dup3\n      dup1\n      sload\n      tag_44\n      swap1\n      tag_43\n      jump\t// in\n    tag_44:\n      dup1\n      iszero\n      tag_45\n      jumpi\n      dup1\n      0x1f\n      lt\n      tag_46\n      jumpi\n      0x0100\n      dup1\n      dup4\n      sload\n      div\n      mul\n      dup4\n      mstore\n      swap2\n      0x20\n      add\n      swap2\n      jump(tag_45)\n    tag_46:\n      dup3\n      add\n      swap2\n      swap1\n      0x00\n      mstore\n      keccak256(0x00, 0x20)\n      swap1\n    tag_47:\n      dup2\n      sload\n      dup2\n      mstore\n      swap1\n      0x01\n      add\n      swap1\n      0x20\n      add\n      dup1\n      dup4\n      gt\n      tag_47\n      jumpi\n      dup3\n      swap1\n      sub\n      0x1f\n      and\n      dup3\n      add\n      swap2\n    tag_45:\n      pop\n      pop\n      pop\n      pop\n      pop\n      dup2\n      mstore\n      0x20\n      add\n      swap1\n      0x01\n      add\n      swap1\n      jump(tag_39)\n    tag_40:\n      pop\n      pop\n      pop\n      pop\n      swap1\n      pop\n        /* \"contracts/array_s.sol\":838:929  function returnArray() public view returns(string[] memory) {... */\n      swap1\n      jump\t// out\n        /* \"contracts/array_s.sol\":203:315  function push(string memory _a) public {... */\n    tag_18:\n        /* \"contracts/array_s.sol\":252:259  letters */\n      0x00\n        /* \"contracts/array_s.sol\":265:267  _a */\n      dup2\n        /* \"contracts/array_s.sol\":252:268  letters.push(_a) */\n      swap1\n      dup1\n      0x01\n      dup2\n      sload\n      add\n      dup1\n      dup3\n      sstore\n      dup1\n      swap2\n      pop\n      pop\n      0x01\n      swap1\n      sub\n      swap1\n      0x00\n      mstore\n      keccak256(0x00, 0x20)\n      add\n      0x00\n      swap1\n      swap2\n      swap1\n      swap2\n      swap1\n      swap2\n      pop\n      swap1\n      dup2\n      tag_50\n      swap2\n      swap1\n      tag_51\n      jump\t// in\n    tag_50:\n      pop\n        /* \"contracts/array_s.sol\":203:315  function push(string memory _a) public {... */\n      pop\n      jump\t// out\n        /* \"contracts/array_s.sol\":551:639  function setLetter(uint _n, string memory _m) public {... */\n    tag_22:\n        /* \"contracts/array_s.sol\":630:632  _m */\n      dup1\n        /* \"contracts/array_s.sol\":614:621  letters */\n      0x00\n        /* \"contracts/array_s.sol\":625:626  1 */\n      0x01\n        /* \"contracts/array_s.sol\":622:624  _n */\n      dup5\n        /* \"contracts/array_s.sol\":622:626  _n-1 */\n      tag_53\n      swap2\n      swap1\n      tag_54\n      jump\t// in\n    tag_53:\n        /* \"contracts/array_s.sol\":614:627  letters[_n-1] */\n      dup2\n      sload\n      dup2\n      lt\n      tag_55\n      jumpi\n      tag_56\n      tag_57\n      jump\t// in\n    tag_56:\n    tag_55:\n      swap1\n      0x00\n      mstore\n      keccak256(0x00, 0x20)\n      add\n        /* \"contracts/array_s.sol\":614:632  letters[_n-1] = _m */\n      swap1\n      dup2\n      tag_59\n      swap2\n      swap1\n      tag_51\n      jump\t// in\n    tag_59:\n      pop\n        /* \"contracts/array_s.sol\":551:639  function setLetter(uint _n, string memory _m) public {... */\n      pop\n      pop\n      jump\t// out\n        /* \"contracts/array_s.sol\":421:521  function getLetter(uint _n) public view returns(string memory) {... */\n    tag_26:\n        /* \"contracts/array_s.sol\":469:482  string memory */\n      0x60\n        /* \"contracts/array_s.sol\":501:508  letters */\n      0x00\n        /* \"contracts/array_s.sol\":512:513  1 */\n      0x01\n        /* \"contracts/array_s.sol\":509:511  _n */\n      dup4\n        /* \"contracts/array_s.sol\":509:513  _n-1 */\n      tag_61\n      swap2\n      swap1\n      tag_54\n      jump\t// in\n    tag_61:\n        /* \"contracts/array_s.sol\":501:514  letters[_n-1] */\n      dup2\n      sload\n      dup2\n      lt\n      tag_62\n      jumpi\n      tag_63\n      tag_57\n      jump\t// in\n    tag_63:\n    tag_62:\n      swap1\n      0x00\n      mstore\n      keccak256(0x00, 0x20)\n      add\n        /* \"contracts/array_s.sol\":494:514  return letters[_n-1] */\n      dup1\n      sload\n      tag_65\n      swap1\n      tag_43\n      jump\t// in\n    tag_65:\n      dup1\n      0x1f\n      add\n      0x20\n      dup1\n      swap2\n      div\n      mul\n      0x20\n      add\n      mload(0x40)\n      swap1\n      dup2\n      add\n      0x40\n      mstore\n      dup1\n      swap3\n      swap2\n      swap1\n      dup2\n      dup2\n      mstore\n      0x20\n      add\n      dup3\n      dup1\n      sload\n      tag_66\n      swap1\n      tag_43\n      jump\t// in\n    tag_66:\n      dup1\n      iszero\n      tag_67\n      jumpi\n      dup1\n      0x1f\n      lt\n      tag_68\n      jumpi\n      0x0100\n      dup1\n      dup4\n      sload\n      div\n      mul\n      dup4\n      mstore\n      swap2\n      0x20\n      add\n      swap2\n      jump(tag_67)\n    tag_68:\n      dup3\n      add\n      swap2\n      swap1\n      0x00\n      mstore\n      keccak256(0x00, 0x20)\n      swap1\n    tag_69:\n      dup2\n      sload\n      dup2\n      mstore\n      swap1\n      0x01\n      add\n      swap1\n      0x20\n      add\n      dup1\n      dup4\n      gt\n      tag_69\n      jumpi\n      dup3\n      swap1\n      sub\n      0x1f\n      and\n      dup3\n      add\n      swap2\n    tag_67:\n      pop\n      pop\n      pop\n      pop\n      pop\n      swap1\n      pop\n        /* \"contracts/array_s.sol\":421:521  function getLetter(uint _n) public view returns(string memory) {... */\n      swap2\n      swap1\n      pop\n      jump\t// out\n        /* \"contracts/array_s.sol\":342:394  function pop() public {... */\n    tag_30:\n        /* \"contracts/array_s.sol\":374:381  letters */\n      0x00\n        /* \"contracts/array_s.sol\":374:387  letters.pop() */\n      dup1\n      sload\n      dup1\n      tag_71\n      jumpi\n      tag_72\n      tag_73\n      jump\t// in\n    tag_72:\n    tag_71:\n      0x01\n      swap1\n      sub\n      dup2\n      dup2\n      swap1\n      0x00\n      mstore\n      keccak256(0x00, 0x20)\n      add\n      0x00\n      tag_75\n      swap2\n      swap1\n      tag_76\n      jump\t// in\n    tag_75:\n      swap1\n      sstore\n        /* \"contracts/array_s.sol\":342:394  function pop() public {... */\n      jump\t// out\n        /* \"contracts/array_s.sol\":726:811  function getLength() public view returns(uint) {... */\n    tag_32:\n        /* \"contracts/array_s.sol\":767:771  uint */\n      0x00\n        /* \"contracts/array_s.sol\":790:797  letters */\n      dup1\n        /* \"contracts/array_s.sol\":790:804  letters.length */\n      dup1\n      sload\n      swap1\n      pop\n        /* \"contracts/array_s.sol\":783:804  return letters.length */\n      swap1\n      pop\n        /* \"contracts/array_s.sol\":726:811  function getLength() public view returns(uint) {... */\n      swap1\n      jump\t// out\n        /* \"contracts/array_s.sol\":645:720  function deleteLetter(uint _n) public {... */\n    tag_37:\n        /* \"contracts/array_s.sol\":700:707  letters */\n      0x00\n        /* \"contracts/array_s.sol\":711:712  1 */\n      0x01\n        /* \"contracts/array_s.sol\":708:710  _n */\n      dup3\n        /* \"contracts/array_s.sol\":708:712  _n-1 */\n      tag_79\n      swap2\n      swap1\n      tag_54\n      jump\t// in\n    tag_79:\n        /* \"contracts/array_s.sol\":700:713  letters[_n-1] */\n      dup2\n      sload\n      dup2\n      lt\n      tag_80\n      jumpi\n      tag_81\n      tag_57\n      jump\t// in\n    tag_81:\n    tag_80:\n      swap1\n      0x00\n      mstore\n      keccak256(0x00, 0x20)\n      add\n      0x00\n        /* \"contracts/array_s.sol\":693:713  delete letters[_n-1] */\n      tag_83\n      swap2\n      swap1\n      tag_76\n      jump\t// in\n    tag_83:\n        /* \"contracts/array_s.sol\":645:720  function deleteLetter(uint _n) public {... */\n      pop\n      jump\t// out\n    tag_76:\n      pop\n      dup1\n      sload\n      tag_84\n      swap1\n      tag_43\n      jump\t// in\n    tag_84:\n      0x00\n      dup3\n      sstore\n      dup1\n      0x1f\n      lt\n      tag_86\n      jumpi\n      pop\n      jump(tag_85)\n    tag_86:\n      0x1f\n      add\n      0x20\n      swap1\n      div\n      swap1\n      0x00\n      mstore\n      keccak256(0x00, 0x20)\n      swap1\n      dup2\n      add\n      swap1\n      tag_87\n      swap2\n      swap1\n      tag_88\n      jump\t// in\n    tag_87:\n    tag_85:\n      pop\n      jump\t// out\n    tag_88:\n    tag_89:\n      dup1\n      dup3\n      gt\n      iszero\n      tag_90\n      jumpi\n      0x00\n      dup2\n      0x00\n      swap1\n      sstore\n      pop\n      0x01\n      add\n      jump(tag_89)\n    tag_90:\n      pop\n      swap1\n      jump\t// out\n        /* \"#utility.yul\":7:131   */\n    tag_91:\n        /* \"#utility.yul\":84:90   */\n      0x00\n        /* \"#utility.yul\":118:123   */\n      dup2\n        /* \"#utility.yul\":112:124   */\n      mload\n        /* \"#utility.yul\":102:124   */\n      swap1\n      pop\n        /* \"#utility.yul\":7:131   */\n      swap2\n      swap1\n      pop\n      jump\t// out\n        /* \"#utility.yul\":137:331   */\n    tag_92:\n        /* \"#utility.yul\":246:257   */\n      0x00\n        /* \"#utility.yul\":280:286   */\n      dup3\n        /* \"#utility.yul\":275:278   */\n      dup3\n        /* \"#utility.yul\":268:287   */\n      mstore\n        /* \"#utility.yul\":320:324   */\n      0x20\n        /* \"#utility.yul\":315:318   */\n      dup3\n        /* \"#utility.yul\":311:325   */\n      add\n        /* \"#utility.yul\":296:325   */\n      swap1\n      pop\n        /* \"#utility.yul\":137:331   */\n      swap3\n      swap2\n      pop\n      pop\n      jump\t// out\n        /* \"#utility.yul\":337:479   */\n    tag_93:\n        /* \"#utility.yul\":414:418   */\n      0x00\n        /* \"#utility.yul\":437:440   */\n      dup2\n        /* \"#utility.yul\":429:440   */\n      swap1\n      pop\n        /* \"#utility.yul\":467:471   */\n      0x20\n        /* \"#utility.yul\":462:465   */\n      dup3\n        /* \"#utility.yul\":458:472   */\n      add\n        /* \"#utility.yul\":450:472   */\n      swap1\n      pop\n        /* \"#utility.yul\":337:479   */\n      swap2\n      swap1\n      pop\n      jump\t// out\n        /* \"#utility.yul\":485:584   */\n    tag_94:\n        /* \"#utility.yul\":537:543   */\n      0x00\n        /* \"#utility.yul\":571:576   */\n      dup2\n        /* \"#utility.yul\":565:577   */\n      mload\n        /* \"#utility.yul\":555:577   */\n      swap1\n      pop\n        /* \"#utility.yul\":485:584   */\n      swap2\n      swap1\n      pop\n      jump\t// out\n        /* \"#utility.yul\":590:749   */\n    tag_95:\n        /* \"#utility.yul\":664:675   */\n      0x00\n        /* \"#utility.yul\":698:704   */\n      dup3\n        /* \"#utility.yul\":693:696   */\n      dup3\n        /* \"#utility.yul\":686:705   */\n      mstore\n        /* \"#utility.yul\":738:742   */\n      0x20\n        /* \"#utility.yul\":733:736   */\n      dup3\n        /* \"#utility.yul\":729:743   */\n      add\n        /* \"#utility.yul\":714:743   */\n      swap1\n      pop\n        /* \"#utility.yul\":590:749   */\n      swap3\n      swap2\n      pop\n      pop\n      jump\t// out\n        /* \"#utility.yul\":755:1001   */\n    tag_96:\n        /* \"#utility.yul\":836:837   */\n      0x00\n        /* \"#utility.yul\":846:959   */\n    tag_144:\n        /* \"#utility.yul\":860:866   */\n      dup4\n        /* \"#utility.yul\":857:858   */\n      dup2\n        /* \"#utility.yul\":854:867   */\n      lt\n        /* \"#utility.yul\":846:959   */\n      iszero\n      tag_146\n      jumpi\n        /* \"#utility.yul\":945:946   */\n      dup1\n        /* \"#utility.yul\":940:943   */\n      dup3\n        /* \"#utility.yul\":936:947   */\n      add\n        /* \"#utility.yul\":930:948   */\n      mload\n        /* \"#utility.yul\":926:927   */\n      dup2\n        /* \"#utility.yul\":921:924   */\n      dup5\n        /* \"#utility.yul\":917:928   */\n      add\n        /* \"#utility.yul\":910:949   */\n      mstore\n        /* \"#utility.yul\":882:884   */\n      0x20\n        /* \"#utility.yul\":879:880   */\n      dup2\n        /* \"#utility.yul\":875:885   */\n      add\n        /* \"#utility.yul\":870:885   */\n      swap1\n      pop\n        /* \"#utility.yul\":846:959   */\n      jump(tag_144)\n    tag_146:\n        /* \"#utility.yul\":993:994   */\n      0x00\n        /* \"#utility.yul\":984:990   */\n      dup5\n        /* \"#utility.yul\":979:982   */\n      dup5\n        /* \"#utility.yul\":975:991   */\n      add\n        /* \"#utility.yul\":968:995   */\n      mstore\n        /* \"#utility.yul\":817:1001   */\n      pop\n        /* \"#utility.yul\":755:1001   */\n      pop\n      pop\n      pop\n      jump\t// out\n        /* \"#utility.yul\":1007:1109   */\n    tag_97:\n        /* \"#utility.yul\":1048:1054   */\n      0x00\n        /* \"#utility.yul\":1099:1101   */\n      0x1f\n        /* \"#utility.yul\":1095:1102   */\n      not\n        /* \"#utility.yul\":1090:1092   */\n      0x1f\n        /* \"#utility.yul\":1083:1088   */\n      dup4\n        /* \"#utility.yul\":1079:1093   */\n      add\n        /* \"#utility.yul\":1075:1103   */\n      and\n        /* \"#utility.yul\":1065:1103   */\n      swap1\n      pop\n        /* \"#utility.yul\":1007:1109   */\n      swap2\n      swap1\n      pop\n      jump\t// out\n        /* \"#utility.yul\":1115:1472   */\n    tag_98:\n        /* \"#utility.yul\":1193:1196   */\n      0x00\n        /* \"#utility.yul\":1221:1260   */\n      tag_149\n        /* \"#utility.yul\":1254:1259   */\n      dup3\n        /* \"#utility.yul\":1221:1260   */\n      tag_94\n      jump\t// in\n    tag_149:\n        /* \"#utility.yul\":1276:1337   */\n      tag_150\n        /* \"#utility.yul\":1330:1336   */\n      dup2\n        /* \"#utility.yul\":1325:1328   */\n      dup6\n        /* \"#utility.yul\":1276:1337   */\n      tag_95\n      jump\t// in\n    tag_150:\n        /* \"#utility.yul\":1269:1337   */\n      swap4\n      pop\n        /* \"#utility.yul\":1346:1411   */\n      tag_151\n        /* \"#utility.yul\":1404:1410   */\n      dup2\n        /* \"#utility.yul\":1399:1402   */\n      dup6\n        /* \"#utility.yul\":1392:1396   */\n      0x20\n        /* \"#utility.yul\":1385:1390   */\n      dup7\n        /* \"#utility.yul\":1381:1397   */\n      add\n        /* \"#utility.yul\":1346:1411   */\n      tag_96\n      jump\t// in\n    tag_151:\n        /* \"#utility.yul\":1436:1465   */\n      tag_152\n        /* \"#utility.yul\":1458:1464   */\n      dup2\n        /* \"#utility.yul\":1436:1465   */\n      tag_97\n      jump\t// in\n    tag_152:\n        /* \"#utility.yul\":1431:1434   */\n      dup5\n        /* \"#utility.yul\":1427:1466   */\n      add\n        /* \"#utility.yul\":1420:1466   */\n      swap2\n      pop\n        /* \"#utility.yul\":1197:1472   */\n      pop\n        /* \"#utility.yul\":1115:1472   */\n      swap3\n      swap2\n      pop\n      pop\n      jump\t// out\n        /* \"#utility.yul\":1478:1674   */\n    tag_99:\n        /* \"#utility.yul\":1567:1577   */\n      0x00\n        /* \"#utility.yul\":1602:1668   */\n      tag_154\n        /* \"#utility.yul\":1664:1667   */\n      dup4\n        /* \"#utility.yul\":1656:1662   */\n      dup4\n        /* \"#utility.yul\":1602:1668   */\n      tag_98\n      jump\t// in\n    tag_154:\n        /* \"#utility.yul\":1588:1668   */\n      swap1\n      pop\n        /* \"#utility.yul\":1478:1674   */\n      swap3\n      swap2\n      pop\n      pop\n      jump\t// out\n        /* \"#utility.yul\":1680:1803   */\n    tag_100:\n        /* \"#utility.yul\":1760:1764   */\n      0x00\n        /* \"#utility.yul\":1792:1796   */\n      0x20\n        /* \"#utility.yul\":1787:1790   */\n      dup3\n        /* \"#utility.yul\":1783:1797   */\n      add\n        /* \"#utility.yul\":1775:1797   */\n      swap1\n      pop\n        /* \"#utility.yul\":1680:1803   */\n      swap2\n      swap1\n      pop\n      jump\t// out\n        /* \"#utility.yul\":1837:2828   */\n    tag_101:\n        /* \"#utility.yul\":1976:1979   */\n      0x00\n        /* \"#utility.yul\":2005:2069   */\n      tag_157\n        /* \"#utility.yul\":2063:2068   */\n      dup3\n        /* \"#utility.yul\":2005:2069   */\n      tag_91\n      jump\t// in\n    tag_157:\n        /* \"#utility.yul\":2085:2181   */\n      tag_158\n        /* \"#utility.yul\":2174:2180   */\n      dup2\n        /* \"#utility.yul\":2169:2172   */\n      dup6\n        /* \"#utility.yul\":2085:2181   */\n      tag_92\n      jump\t// in\n    tag_158:\n        /* \"#utility.yul\":2078:2181   */\n      swap4\n      pop\n        /* \"#utility.yul\":2207:2210   */\n      dup4\n        /* \"#utility.yul\":2252:2256   */\n      0x20\n        /* \"#utility.yul\":2244:2250   */\n      dup3\n        /* \"#utility.yul\":2240:2257   */\n      mul\n        /* \"#utility.yul\":2235:2238   */\n      dup6\n        /* \"#utility.yul\":2231:2258   */\n      add\n        /* \"#utility.yul\":2282:2348   */\n      tag_159\n        /* \"#utility.yul\":2342:2347   */\n      dup6\n        /* \"#utility.yul\":2282:2348   */\n      tag_93\n      jump\t// in\n    tag_159:\n        /* \"#utility.yul\":2371:2378   */\n      dup1\n        /* \"#utility.yul\":2402:2403   */\n      0x00\n        /* \"#utility.yul\":2387:2783   */\n    tag_160:\n        /* \"#utility.yul\":2412:2418   */\n      dup6\n        /* \"#utility.yul\":2409:2410   */\n      dup2\n        /* \"#utility.yul\":2406:2419   */\n      lt\n        /* \"#utility.yul\":2387:2783   */\n      iszero\n      tag_162\n      jumpi\n        /* \"#utility.yul\":2483:2492   */\n      dup5\n        /* \"#utility.yul\":2477:2481   */\n      dup5\n        /* \"#utility.yul\":2473:2493   */\n      sub\n        /* \"#utility.yul\":2468:2471   */\n      dup10\n        /* \"#utility.yul\":2461:2494   */\n      mstore\n        /* \"#utility.yul\":2534:2540   */\n      dup2\n        /* \"#utility.yul\":2528:2541   */\n      mload\n        /* \"#utility.yul\":2562:2646   */\n      tag_163\n        /* \"#utility.yul\":2641:2645   */\n      dup6\n        /* \"#utility.yul\":2626:2639   */\n      dup3\n        /* \"#utility.yul\":2562:2646   */\n      tag_99\n      jump\t// in\n    tag_163:\n        /* \"#utility.yul\":2554:2646   */\n      swap5\n      pop\n        /* \"#utility.yul\":2669:2739   */\n      tag_164\n        /* \"#utility.yul\":2732:2738   */\n      dup4\n        /* \"#utility.yul\":2669:2739   */\n      tag_100\n      jump\t// in\n    tag_164:\n        /* \"#utility.yul\":2659:2739   */\n      swap3\n      pop\n        /* \"#utility.yul\":2768:2772   */\n      0x20\n        /* \"#utility.yul\":2763:2766   */\n      dup11\n        /* \"#utility.yul\":2759:2773   */\n      add\n        /* \"#utility.yul\":2752:2773   */\n      swap10\n      pop\n        /* \"#utility.yul\":2447:2783   */\n      pop\n        /* \"#utility.yul\":2434:2435   */\n      0x01\n        /* \"#utility.yul\":2431:2432   */\n      dup2\n        /* \"#utility.yul\":2427:2436   */\n      add\n        /* \"#utility.yul\":2422:2436   */\n      swap1\n      pop\n        /* \"#utility.yul\":2387:2783   */\n      jump(tag_160)\n    tag_162:\n        /* \"#utility.yul\":2391:2405   */\n      pop\n        /* \"#utility.yul\":2799:2803   */\n      dup3\n        /* \"#utility.yul\":2792:2803   */\n      swap8\n      pop\n        /* \"#utility.yul\":2819:2822   */\n      dup8\n        /* \"#utility.yul\":2812:2822   */\n      swap6\n      pop\n        /* \"#utility.yul\":1981:2828   */\n      pop\n      pop\n      pop\n      pop\n      pop\n        /* \"#utility.yul\":1837:2828   */\n      swap3\n      swap2\n      pop\n      pop\n      jump\t// out\n        /* \"#utility.yul\":2834:3247   */\n    tag_14:\n        /* \"#utility.yul\":2997:3001   */\n      0x00\n        /* \"#utility.yul\":3035:3037   */\n      0x20\n        /* \"#utility.yul\":3024:3033   */\n      dup3\n        /* \"#utility.yul\":3020:3038   */\n      add\n        /* \"#utility.yul\":3012:3038   */\n      swap1\n      pop\n        /* \"#utility.yul\":3084:3093   */\n      dup2\n        /* \"#utility.yul\":3078:3082   */\n      dup2\n        /* \"#utility.yul\":3074:3094   */\n      sub\n        /* \"#utility.yul\":3070:3071   */\n      0x00\n        /* \"#utility.yul\":3059:3068   */\n      dup4\n        /* \"#utility.yul\":3055:3072   */\n      add\n        /* \"#utility.yul\":3048:3095   */\n      mstore\n        /* \"#utility.yul\":3112:3240   */\n      tag_166\n        /* \"#utility.yul\":3235:3239   */\n      dup2\n        /* \"#utility.yul\":3226:3232   */\n      dup5\n        /* \"#utility.yul\":3112:3240   */\n      tag_101\n      jump\t// in\n    tag_166:\n        /* \"#utility.yul\":3104:3240   */\n      swap1\n      pop\n        /* \"#utility.yul\":2834:3247   */\n      swap3\n      swap2\n      pop\n      pop\n      jump\t// out\n        /* \"#utility.yul\":3253:3328   */\n    tag_102:\n        /* \"#utility.yul\":3286:3292   */\n      0x00\n        /* \"#utility.yul\":3319:3321   */\n      0x40\n        /* \"#utility.yul\":3313:3322   */\n      mload\n        /* \"#utility.yul\":3303:3322   */\n      swap1\n      pop\n        /* \"#utility.yul\":3253:3328   */\n      swap1\n      jump\t// out\n        /* \"#utility.yul\":3334:3451   */\n    tag_103:\n        /* \"#utility.yul\":3443:3444   */\n      0x00\n        /* \"#utility.yul\":3440:3441   */\n      dup1\n        /* \"#utility.yul\":3433:3445   */\n      revert\n        /* \"#utility.yul\":3457:3574   */\n    tag_104:\n        /* \"#utility.yul\":3566:3567   */\n      0x00\n        /* \"#utility.yul\":3563:3564   */\n      dup1\n        /* \"#utility.yul\":3556:3568   */\n      revert\n        /* \"#utility.yul\":3580:3697   */\n    tag_105:\n        /* \"#utility.yul\":3689:3690   */\n      0x00\n        /* \"#utility.yul\":3686:3687   */\n      dup1\n        /* \"#utility.yul\":3679:3691   */\n      revert\n        /* \"#utility.yul\":3703:3820   */\n    tag_106:\n        /* \"#utility.yul\":3812:3813   */\n      0x00\n        /* \"#utility.yul\":3809:3810   */\n      dup1\n        /* \"#utility.yul\":3802:3814   */\n      revert\n        /* \"#utility.yul\":3826:4006   */\n    tag_107:\n        /* \"#utility.yul\":3874:3951   */\n      0x4e487b7100000000000000000000000000000000000000000000000000000000\n        /* \"#utility.yul\":3871:3872   */\n      0x00\n        /* \"#utility.yul\":3864:3952   */\n      mstore\n        /* \"#utility.yul\":3971:3975   */\n      0x41\n        /* \"#utility.yul\":3968:3969   */\n      0x04\n        /* \"#utility.yul\":3961:3976   */\n      mstore\n        /* \"#utility.yul\":3995:3999   */\n      0x24\n        /* \"#utility.yul\":3992:3993   */\n      0x00\n        /* \"#utility.yul\":3985:4000   */\n      revert\n        /* \"#utility.yul\":4012:4293   */\n    tag_108:\n        /* \"#utility.yul\":4095:4122   */\n      tag_174\n        /* \"#utility.yul\":4117:4121   */\n      dup3\n        /* \"#utility.yul\":4095:4122   */\n      tag_97\n      jump\t// in\n    tag_174:\n        /* \"#utility.yul\":4087:4093   */\n      dup2\n        /* \"#utility.yul\":4083:4123   */\n      add\n        /* \"#utility.yul\":4225:4231   */\n      dup2\n        /* \"#utility.yul\":4213:4223   */\n      dup2\n        /* \"#utility.yul\":4210:4232   */\n      lt\n        /* \"#utility.yul\":4189:4207   */\n      0xffffffffffffffff\n        /* \"#utility.yul\":4177:4187   */\n      dup3\n        /* \"#utility.yul\":4174:4208   */\n      gt\n        /* \"#utility.yul\":4171:4233   */\n      or\n        /* \"#utility.yul\":4168:4256   */\n      iszero\n      tag_175\n      jumpi\n        /* \"#utility.yul\":4236:4254   */\n      tag_176\n      tag_107\n      jump\t// in\n    tag_176:\n        /* \"#utility.yul\":4168:4256   */\n    tag_175:\n        /* \"#utility.yul\":4276:4286   */\n      dup1\n        /* \"#utility.yul\":4272:4274   */\n      0x40\n        /* \"#utility.yul\":4265:4287   */\n      mstore\n        /* \"#utility.yul\":4055:4293   */\n      pop\n        /* \"#utility.yul\":4012:4293   */\n      pop\n      pop\n      jump\t// out\n        /* \"#utility.yul\":4299:4428   */\n    tag_109:\n        /* \"#utility.yul\":4333:4339   */\n      0x00\n        /* \"#utility.yul\":4360:4380   */\n      tag_178\n      tag_102\n      jump\t// in\n    tag_178:\n        /* \"#utility.yul\":4350:4380   */\n      swap1\n      pop\n        /* \"#utility.yul\":4389:4422   */\n      tag_179\n        /* \"#utility.yul\":4417:4421   */\n      dup3\n        /* \"#utility.yul\":4409:4415   */\n      dup3\n        /* \"#utility.yul\":4389:4422   */\n      tag_108\n      jump\t// in\n    tag_179:\n        /* \"#utility.yul\":4299:4428   */\n      swap2\n      swap1\n      pop\n      jump\t// out\n        /* \"#utility.yul\":4434:4742   */\n    tag_110:\n        /* \"#utility.yul\":4496:4500   */\n      0x00\n        /* \"#utility.yul\":4586:4604   */\n      0xffffffffffffffff\n        /* \"#utility.yul\":4578:4584   */\n      dup3\n        /* \"#utility.yul\":4575:4605   */\n      gt\n        /* \"#utility.yul\":4572:4628   */\n      iszero\n      tag_181\n      jumpi\n        /* \"#utility.yul\":4608:4626   */\n      tag_182\n      tag_107\n      jump\t// in\n    tag_182:\n        /* \"#utility.yul\":4572:4628   */\n    tag_181:\n        /* \"#utility.yul\":4646:4675   */\n      tag_183\n        /* \"#utility.yul\":4668:4674   */\n      dup3\n        /* \"#utility.yul\":4646:4675   */\n      tag_97\n      jump\t// in\n    tag_183:\n        /* \"#utility.yul\":4638:4675   */\n      swap1\n      pop\n        /* \"#utility.yul\":4730:4734   */\n      0x20\n        /* \"#utility.yul\":4724:4728   */\n      dup2\n        /* \"#utility.yul\":4720:4735   */\n      add\n        /* \"#utility.yul\":4712:4735   */\n      swap1\n      pop\n        /* \"#utility.yul\":4434:4742   */\n      swap2\n      swap1\n      pop\n      jump\t// out\n        /* \"#utility.yul\":4748:4894   */\n    tag_111:\n        /* \"#utility.yul\":4845:4851   */\n      dup3\n        /* \"#utility.yul\":4840:4843   */\n      dup2\n        /* \"#utility.yul\":4835:4838   */\n      dup4\n        /* \"#utility.yul\":4822:4852   */\n      calldatacopy\n        /* \"#utility.yul\":4886:4887   */\n      0x00\n        /* \"#utility.yul\":4877:4883   */\n      dup4\n        /* \"#utility.yul\":4872:4875   */\n      dup4\n        /* \"#utility.yul\":4868:4884   */\n      add\n        /* \"#utility.yul\":4861:4888   */\n      mstore\n        /* \"#utility.yul\":4748:4894   */\n      pop\n      pop\n      pop\n      jump\t// out\n        /* \"#utility.yul\":4900:5325   */\n    tag_112:\n        /* \"#utility.yul\":4978:4983   */\n      0x00\n        /* \"#utility.yul\":5003:5069   */\n      tag_186\n        /* \"#utility.yul\":5019:5068   */\n      tag_187\n        /* \"#utility.yul\":5061:5067   */\n      dup5\n        /* \"#utility.yul\":5019:5068   */\n      tag_110\n      jump\t// in\n    tag_187:\n        /* \"#utility.yul\":5003:5069   */\n      tag_109\n      jump\t// in\n    tag_186:\n        /* \"#utility.yul\":4994:5069   */\n      swap1\n      pop\n        /* \"#utility.yul\":5092:5098   */\n      dup3\n        /* \"#utility.yul\":5085:5090   */\n      dup2\n        /* \"#utility.yul\":5078:5099   */\n      mstore\n        /* \"#utility.yul\":5130:5134   */\n      0x20\n        /* \"#utility.yul\":5123:5128   */\n      dup2\n        /* \"#utility.yul\":5119:5135   */\n      add\n        /* \"#utility.yul\":5168:5171   */\n      dup5\n        /* \"#utility.yul\":5159:5165   */\n      dup5\n        /* \"#utility.yul\":5154:5157   */\n      dup5\n        /* \"#utility.yul\":5150:5166   */\n      add\n        /* \"#utility.yul\":5147:5172   */\n      gt\n        /* \"#utility.yul\":5144:5256   */\n      iszero\n      tag_188\n      jumpi\n        /* \"#utility.yul\":5175:5254   */\n      tag_189\n      tag_106\n      jump\t// in\n    tag_189:\n        /* \"#utility.yul\":5144:5256   */\n    tag_188:\n        /* \"#utility.yul\":5265:5319   */\n      tag_190\n        /* \"#utility.yul\":5312:5318   */\n      dup5\n        /* \"#utility.yul\":5307:5310   */\n      dup3\n        /* \"#utility.yul\":5302:5305   */\n      dup6\n        /* \"#utility.yul\":5265:5319   */\n      tag_111\n      jump\t// in\n    tag_190:\n        /* \"#utility.yul\":4984:5325   */\n      pop\n        /* \"#utility.yul\":4900:5325   */\n      swap4\n      swap3\n      pop\n      pop\n      pop\n      jump\t// out\n        /* \"#utility.yul\":5345:5685   */\n    tag_113:\n        /* \"#utility.yul\":5401:5406   */\n      0x00\n        /* \"#utility.yul\":5450:5453   */\n      dup3\n        /* \"#utility.yul\":5443:5447   */\n      0x1f\n        /* \"#utility.yul\":5435:5441   */\n      dup4\n        /* \"#utility.yul\":5431:5448   */\n      add\n        /* \"#utility.yul\":5427:5454   */\n      slt\n        /* \"#utility.yul\":5417:5539   */\n      tag_192\n      jumpi\n        /* \"#utility.yul\":5458:5537   */\n      tag_193\n      tag_105\n      jump\t// in\n    tag_193:\n        /* \"#utility.yul\":5417:5539   */\n    tag_192:\n        /* \"#utility.yul\":5575:5581   */\n      dup2\n        /* \"#utility.yul\":5562:5582   */\n      calldataload\n        /* \"#utility.yul\":5600:5679   */\n      tag_194\n        /* \"#utility.yul\":5675:5678   */\n      dup5\n        /* \"#utility.yul\":5667:5673   */\n      dup3\n        /* \"#utility.yul\":5660:5664   */\n      0x20\n        /* \"#utility.yul\":5652:5658   */\n      dup7\n        /* \"#utility.yul\":5648:5665   */\n      add\n        /* \"#utility.yul\":5600:5679   */\n      tag_112\n      jump\t// in\n    tag_194:\n        /* \"#utility.yul\":5591:5679   */\n      swap2\n      pop\n        /* \"#utility.yul\":5407:5685   */\n      pop\n        /* \"#utility.yul\":5345:5685   */\n      swap3\n      swap2\n      pop\n      pop\n      jump\t// out\n        /* \"#utility.yul\":5691:6200   */\n    tag_17:\n        /* \"#utility.yul\":5760:5766   */\n      0x00\n        /* \"#utility.yul\":5809:5811   */\n      0x20\n        /* \"#utility.yul\":5797:5806   */\n      dup3\n        /* \"#utility.yul\":5788:5795   */\n      dup5\n        /* \"#utility.yul\":5784:5807   */\n      sub\n        /* \"#utility.yul\":5780:5812   */\n      slt\n        /* \"#utility.yul\":5777:5896   */\n      iszero\n      tag_196\n      jumpi\n        /* \"#utility.yul\":5815:5894   */\n      tag_197\n      tag_103\n      jump\t// in\n    tag_197:\n        /* \"#utility.yul\":5777:5896   */\n    tag_196:\n        /* \"#utility.yul\":5963:5964   */\n      0x00\n        /* \"#utility.yul\":5952:5961   */\n      dup3\n        /* \"#utility.yul\":5948:5965   */\n      add\n        /* \"#utility.yul\":5935:5966   */\n      calldataload\n        /* \"#utility.yul\":5993:6011   */\n      0xffffffffffffffff\n        /* \"#utility.yul\":5985:5991   */\n      dup2\n        /* \"#utility.yul\":5982:6012   */\n      gt\n        /* \"#utility.yul\":5979:6096   */\n      iszero\n      tag_198\n      jumpi\n        /* \"#utility.yul\":6015:6094   */\n      tag_199\n      tag_104\n      jump\t// in\n    tag_199:\n        /* \"#utility.yul\":5979:6096   */\n    tag_198:\n        /* \"#utility.yul\":6120:6183   */\n      tag_200\n        /* \"#utility.yul\":6175:6182   */\n      dup5\n        /* \"#utility.yul\":6166:6172   */\n      dup3\n        /* \"#utility.yul\":6155:6164   */\n      dup6\n        /* \"#utility.yul\":6151:6173   */\n      add\n        /* \"#utility.yul\":6120:6183   */\n      tag_113\n      jump\t// in\n    tag_200:\n        /* \"#utility.yul\":6110:6183   */\n      swap2\n      pop\n        /* \"#utility.yul\":5906:6193   */\n      pop\n        /* \"#utility.yul\":5691:6200   */\n      swap3\n      swap2\n      pop\n      pop\n      jump\t// out\n        /* \"#utility.yul\":6206:6283   */\n    tag_114:\n        /* \"#utility.yul\":6243:6250   */\n      0x00\n        /* \"#utility.yul\":6272:6277   */\n      dup2\n        /* \"#utility.yul\":6261:6277   */\n      swap1\n      pop\n        /* \"#utility.yul\":6206:6283   */\n      swap2\n      swap1\n      pop\n      jump\t// out\n        /* \"#utility.yul\":6289:6411   */\n    tag_115:\n        /* \"#utility.yul\":6362:6386   */\n      tag_203\n        /* \"#utility.yul\":6380:6385   */\n      dup2\n        /* \"#utility.yul\":6362:6386   */\n      tag_114\n      jump\t// in\n    tag_203:\n        /* \"#utility.yul\":6355:6360   */\n      dup2\n        /* \"#utility.yul\":6352:6387   */\n      eq\n        /* \"#utility.yul\":6342:6405   */\n      tag_204\n      jumpi\n        /* \"#utility.yul\":6401:6402   */\n      0x00\n        /* \"#utility.yul\":6398:6399   */\n      dup1\n        /* \"#utility.yul\":6391:6403   */\n      revert\n        /* \"#utility.yul\":6342:6405   */\n    tag_204:\n        /* \"#utility.yul\":6289:6411   */\n      pop\n      jump\t// out\n        /* \"#utility.yul\":6417:6556   */\n    tag_116:\n        /* \"#utility.yul\":6463:6468   */\n      0x00\n        /* \"#utility.yul\":6501:6507   */\n      dup2\n        /* \"#utility.yul\":6488:6508   */\n      calldataload\n        /* \"#utility.yul\":6479:6508   */\n      swap1\n      pop\n        /* \"#utility.yul\":6517:6550   */\n      tag_206\n        /* \"#utility.yul\":6544:6549   */\n      dup2\n        /* \"#utility.yul\":6517:6550   */\n      tag_115\n      jump\t// in\n    tag_206:\n        /* \"#utility.yul\":6417:6556   */\n      swap3\n      swap2\n      pop\n      pop\n      jump\t// out\n        /* \"#utility.yul\":6562:7216   */\n    tag_21:\n        /* \"#utility.yul\":6640:6646   */\n      0x00\n        /* \"#utility.yul\":6648:6654   */\n      dup1\n        /* \"#utility.yul\":6697:6699   */\n      0x40\n        /* \"#utility.yul\":6685:6694   */\n      dup4\n        /* \"#utility.yul\":6676:6683   */\n      dup6\n        /* \"#utility.yul\":6672:6695   */\n      sub\n        /* \"#utility.yul\":6668:6700   */\n      slt\n        /* \"#utility.yul\":6665:6784   */\n      iszero\n      tag_208\n      jumpi\n        /* \"#utility.yul\":6703:6782   */\n      tag_209\n      tag_103\n      jump\t// in\n    tag_209:\n        /* \"#utility.yul\":6665:6784   */\n    tag_208:\n        /* \"#utility.yul\":6823:6824   */\n      0x00\n        /* \"#utility.yul\":6848:6901   */\n      tag_210\n        /* \"#utility.yul\":6893:6900   */\n      dup6\n        /* \"#utility.yul\":6884:6890   */\n      dup3\n        /* \"#utility.yul\":6873:6882   */\n      dup7\n        /* \"#utility.yul\":6869:6891   */\n      add\n        /* \"#utility.yul\":6848:6901   */\n      tag_116\n      jump\t// in\n    tag_210:\n        /* \"#utility.yul\":6838:6901   */\n      swap3\n      pop\n        /* \"#utility.yul\":6794:6911   */\n      pop\n        /* \"#utility.yul\":6978:6980   */\n      0x20\n        /* \"#utility.yul\":6967:6976   */\n      dup4\n        /* \"#utility.yul\":6963:6981   */\n      add\n        /* \"#utility.yul\":6950:6982   */\n      calldataload\n        /* \"#utility.yul\":7009:7027   */\n      0xffffffffffffffff\n        /* \"#utility.yul\":7001:7007   */\n      dup2\n        /* \"#utility.yul\":6998:7028   */\n      gt\n        /* \"#utility.yul\":6995:7112   */\n      iszero\n      tag_211\n      jumpi\n        /* \"#utility.yul\":7031:7110   */\n      tag_212\n      tag_104\n      jump\t// in\n    tag_212:\n        /* \"#utility.yul\":6995:7112   */\n    tag_211:\n        /* \"#utility.yul\":7136:7199   */\n      tag_213\n        /* \"#utility.yul\":7191:7198   */\n      dup6\n        /* \"#utility.yul\":7182:7188   */\n      dup3\n        /* \"#utility.yul\":7171:7180   */\n      dup7\n        /* \"#utility.yul\":7167:7189   */\n      add\n        /* \"#utility.yul\":7136:7199   */\n      tag_113\n      jump\t// in\n    tag_213:\n        /* \"#utility.yul\":7126:7199   */\n      swap2\n      pop\n        /* \"#utility.yul\":6921:7209   */\n      pop\n        /* \"#utility.yul\":6562:7216   */\n      swap3\n      pop\n      swap3\n      swap1\n      pop\n      jump\t// out\n        /* \"#utility.yul\":7222:7551   */\n    tag_25:\n        /* \"#utility.yul\":7281:7287   */\n      0x00\n        /* \"#utility.yul\":7330:7332   */\n      0x20\n        /* \"#utility.yul\":7318:7327   */\n      dup3\n        /* \"#utility.yul\":7309:7316   */\n      dup5\n        /* \"#utility.yul\":7305:7328   */\n      sub\n        /* \"#utility.yul\":7301:7333   */\n      slt\n        /* \"#utility.yul\":7298:7417   */\n      iszero\n      tag_215\n      jumpi\n        /* \"#utility.yul\":7336:7415   */\n      tag_216\n      tag_103\n      jump\t// in\n    tag_216:\n        /* \"#utility.yul\":7298:7417   */\n    tag_215:\n        /* \"#utility.yul\":7456:7457   */\n      0x00\n        /* \"#utility.yul\":7481:7534   */\n      tag_217\n        /* \"#utility.yul\":7526:7533   */\n      dup5\n        /* \"#utility.yul\":7517:7523   */\n      dup3\n        /* \"#utility.yul\":7506:7515   */\n      dup6\n        /* \"#utility.yul\":7502:7524   */\n      add\n        /* \"#utility.yul\":7481:7534   */\n      tag_116\n      jump\t// in\n    tag_217:\n        /* \"#utility.yul\":7471:7534   */\n      swap2\n      pop\n        /* \"#utility.yul\":7427:7544   */\n      pop\n        /* \"#utility.yul\":7222:7551   */\n      swap3\n      swap2\n      pop\n      pop\n      jump\t// out\n        /* \"#utility.yul\":7557:7726   */\n    tag_117:\n        /* \"#utility.yul\":7641:7652   */\n      0x00\n        /* \"#utility.yul\":7675:7681   */\n      dup3\n        /* \"#utility.yul\":7670:7673   */\n      dup3\n        /* \"#utility.yul\":7663:7682   */\n      mstore\n        /* \"#utility.yul\":7715:7719   */\n      0x20\n        /* \"#utility.yul\":7710:7713   */\n      dup3\n        /* \"#utility.yul\":7706:7720   */\n      add\n        /* \"#utility.yul\":7691:7720   */\n      swap1\n      pop\n        /* \"#utility.yul\":7557:7726   */\n      swap3\n      swap2\n      pop\n      pop\n      jump\t// out\n        /* \"#utility.yul\":7732:8109   */\n    tag_118:\n        /* \"#utility.yul\":7820:7823   */\n      0x00\n        /* \"#utility.yul\":7848:7887   */\n      tag_220\n        /* \"#utility.yul\":7881:7886   */\n      dup3\n        /* \"#utility.yul\":7848:7887   */\n      tag_94\n      jump\t// in\n    tag_220:\n        /* \"#utility.yul\":7903:7974   */\n      tag_221\n        /* \"#utility.yul\":7967:7973   */\n      dup2\n        /* \"#utility.yul\":7962:7965   */\n      dup6\n        /* \"#utility.yul\":7903:7974   */\n      tag_117\n      jump\t// in\n    tag_221:\n        /* \"#utility.yul\":7896:7974   */\n      swap4\n      pop\n        /* \"#utility.yul\":7983:8048   */\n      tag_222\n        /* \"#utility.yul\":8041:8047   */\n      dup2\n        /* \"#utility.yul\":8036:8039   */\n      dup6\n        /* \"#utility.yul\":8029:8033   */\n      0x20\n        /* \"#utility.yul\":8022:8027   */\n      dup7\n        /* \"#utility.yul\":8018:8034   */\n      add\n        /* \"#utility.yul\":7983:8048   */\n      tag_96\n      jump\t// in\n    tag_222:\n        /* \"#utility.yul\":8073:8102   */\n      tag_223\n        /* \"#utility.yul\":8095:8101   */\n      dup2\n        /* \"#utility.yul\":8073:8102   */\n      tag_97\n      jump\t// in\n    tag_223:\n        /* \"#utility.yul\":8068:8071   */\n      dup5\n        /* \"#utility.yul\":8064:8103   */\n      add\n        /* \"#utility.yul\":8057:8103   */\n      swap2\n      pop\n        /* \"#utility.yul\":7824:8109   */\n      pop\n        /* \"#utility.yul\":7732:8109   */\n      swap3\n      swap2\n      pop\n      pop\n      jump\t// out\n        /* \"#utility.yul\":8115:8428   */\n    tag_28:\n        /* \"#utility.yul\":8228:8232   */\n      0x00\n        /* \"#utility.yul\":8266:8268   */\n      0x20\n        /* \"#utility.yul\":8255:8264   */\n      dup3\n        /* \"#utility.yul\":8251:8269   */\n      add\n        /* \"#utility.yul\":8243:8269   */\n      swap1\n      pop\n        /* \"#utility.yul\":8315:8324   */\n      dup2\n        /* \"#utility.yul\":8309:8313   */\n      dup2\n        /* \"#utility.yul\":8305:8325   */\n      sub\n        /* \"#utility.yul\":8301:8302   */\n      0x00\n        /* \"#utility.yul\":8290:8299   */\n      dup4\n        /* \"#utility.yul\":8286:8303   */\n      add\n        /* \"#utility.yul\":8279:8326   */\n      mstore\n        /* \"#utility.yul\":8343:8421   */\n      tag_225\n        /* \"#utility.yul\":8416:8420   */\n      dup2\n        /* \"#utility.yul\":8407:8413   */\n      dup5\n        /* \"#utility.yul\":8343:8421   */\n      tag_118\n      jump\t// in\n    tag_225:\n        /* \"#utility.yul\":8335:8421   */\n      swap1\n      pop\n        /* \"#utility.yul\":8115:8428   */\n      swap3\n      swap2\n      pop\n      pop\n      jump\t// out\n        /* \"#utility.yul\":8434:8552   */\n    tag_119:\n        /* \"#utility.yul\":8521:8545   */\n      tag_227\n        /* \"#utility.yul\":8539:8544   */\n      dup2\n        /* \"#utility.yul\":8521:8545   */\n      tag_114\n      jump\t// in\n    tag_227:\n        /* \"#utility.yul\":8516:8519   */\n      dup3\n        /* \"#utility.yul\":8509:8546   */\n      mstore\n        /* \"#utility.yul\":8434:8552   */\n      pop\n      pop\n      jump\t// out\n        /* \"#utility.yul\":8558:8780   */\n    tag_34:\n        /* \"#utility.yul\":8651:8655   */\n      0x00\n        /* \"#utility.yul\":8689:8691   */\n      0x20\n        /* \"#utility.yul\":8678:8687   */\n      dup3\n        /* \"#utility.yul\":8674:8692   */\n      add\n        /* \"#utility.yul\":8666:8692   */\n      swap1\n      pop\n        /* \"#utility.yul\":8702:8773   */\n      tag_229\n        /* \"#utility.yul\":8770:8771   */\n      0x00\n        /* \"#utility.yul\":8759:8768   */\n      dup4\n        /* \"#utility.yul\":8755:8772   */\n      add\n        /* \"#utility.yul\":8746:8752   */\n      dup5\n        /* \"#utility.yul\":8702:8773   */\n      tag_119\n      jump\t// in\n    tag_229:\n        /* \"#utility.yul\":8558:8780   */\n      swap3\n      swap2\n      pop\n      pop\n      jump\t// out\n        /* \"#utility.yul\":8786:8966   */\n    tag_120:\n        /* \"#utility.yul\":8834:8911   */\n      0x4e487b7100000000000000000000000000000000000000000000000000000000\n        /* \"#utility.yul\":8831:8832   */\n      0x00\n        /* \"#utility.yul\":8824:8912   */\n      mstore\n        /* \"#utility.yul\":8931:8935   */\n      0x22\n        /* \"#utility.yul\":8928:8929   */\n      0x04\n        /* \"#utility.yul\":8921:8936   */\n      mstore\n        /* \"#utility.yul\":8955:8959   */\n      0x24\n        /* \"#utility.yul\":8952:8953   */\n      0x00\n        /* \"#utility.yul\":8945:8960   */\n      revert\n        /* \"#utility.yul\":8972:9292   */\n    tag_43:\n        /* \"#utility.yul\":9016:9022   */\n      0x00\n        /* \"#utility.yul\":9053:9054   */\n      0x02\n        /* \"#utility.yul\":9047:9051   */\n      dup3\n        /* \"#utility.yul\":9043:9055   */\n      div\n        /* \"#utility.yul\":9033:9055   */\n      swap1\n      pop\n        /* \"#utility.yul\":9100:9101   */\n      0x01\n        /* \"#utility.yul\":9094:9098   */\n      dup3\n        /* \"#utility.yul\":9090:9102   */\n      and\n        /* \"#utility.yul\":9121:9139   */\n      dup1\n        /* \"#utility.yul\":9111:9192   */\n      tag_232\n      jumpi\n        /* \"#utility.yul\":9177:9181   */\n      0x7f\n        /* \"#utility.yul\":9169:9175   */\n      dup3\n        /* \"#utility.yul\":9165:9182   */\n      and\n        /* \"#utility.yul\":9155:9182   */\n      swap2\n      pop\n        /* \"#utility.yul\":9111:9192   */\n    tag_232:\n        /* \"#utility.yul\":9239:9241   */\n      0x20\n        /* \"#utility.yul\":9231:9237   */\n      dup3\n        /* \"#utility.yul\":9228:9242   */\n      lt\n        /* \"#utility.yul\":9208:9226   */\n      dup2\n        /* \"#utility.yul\":9205:9243   */\n      sub\n        /* \"#utility.yul\":9202:9286   */\n      tag_233\n      jumpi\n        /* \"#utility.yul\":9258:9276   */\n      tag_234\n      tag_120\n      jump\t// in\n    tag_234:\n        /* \"#utility.yul\":9202:9286   */\n    tag_233:\n        /* \"#utility.yul\":9023:9292   */\n      pop\n        /* \"#utility.yul\":8972:9292   */\n      swap2\n      swap1\n      pop\n      jump\t// out\n        /* \"#utility.yul\":9298:9439   */\n    tag_121:\n        /* \"#utility.yul\":9347:9351   */\n      0x00\n        /* \"#utility.yul\":9370:9373   */\n      dup2\n        /* \"#utility.yul\":9362:9373   */\n      swap1\n      pop\n        /* \"#utility.yul\":9393:9396   */\n      dup2\n        /* \"#utility.yul\":9390:9391   */\n      0x00\n        /* \"#utility.yul\":9383:9397   */\n      mstore\n        /* \"#utility.yul\":9427:9431   */\n      0x20\n        /* \"#utility.yul\":9424:9425   */\n      0x00\n        /* \"#utility.yul\":9414:9432   */\n      keccak256\n        /* \"#utility.yul\":9406:9432   */\n      swap1\n      pop\n        /* \"#utility.yul\":9298:9439   */\n      swap2\n      swap1\n      pop\n      jump\t// out\n        /* \"#utility.yul\":9445:9538   */\n    tag_122:\n        /* \"#utility.yul\":9482:9488   */\n      0x00\n        /* \"#utility.yul\":9529:9531   */\n      0x20\n        /* \"#utility.yul\":9524:9526   */\n      0x1f\n        /* \"#utility.yul\":9517:9522   */\n      dup4\n        /* \"#utility.yul\":9513:9527   */\n      add\n        /* \"#utility.yul\":9509:9532   */\n      div\n        /* \"#utility.yul\":9499:9532   */\n      swap1\n      pop\n        /* \"#utility.yul\":9445:9538   */\n      swap2\n      swap1\n      pop\n      jump\t// out\n        /* \"#utility.yul\":9544:9651   */\n    tag_123:\n        /* \"#utility.yul\":9588:9596   */\n      0x00\n        /* \"#utility.yul\":9638:9643   */\n      dup3\n        /* \"#utility.yul\":9632:9636   */\n      dup3\n        /* \"#utility.yul\":9628:9644   */\n      shl\n        /* \"#utility.yul\":9607:9644   */\n      swap1\n      pop\n        /* \"#utility.yul\":9544:9651   */\n      swap3\n      swap2\n      pop\n      pop\n      jump\t// out\n        /* \"#utility.yul\":9657:10050   */\n    tag_124:\n        /* \"#utility.yul\":9726:9732   */\n      0x00\n        /* \"#utility.yul\":9776:9777   */\n      0x08\n        /* \"#utility.yul\":9764:9774   */\n      dup4\n        /* \"#utility.yul\":9760:9778   */\n      mul\n        /* \"#utility.yul\":9799:9896   */\n      tag_239\n        /* \"#utility.yul\":9829:9895   */\n      0xffffffffffffffffffffffffffffffffffffffffffffffffffffffffffffffff\n        /* \"#utility.yul\":9818:9827   */\n      dup3\n        /* \"#utility.yul\":9799:9896   */\n      tag_123\n      jump\t// in\n    tag_239:\n        /* \"#utility.yul\":9917:9956   */\n      tag_240\n        /* \"#utility.yul\":9947:9955   */\n      dup7\n        /* \"#utility.yul\":9936:9945   */\n      dup4\n        /* \"#utility.yul\":9917:9956   */\n      tag_123\n      jump\t// in\n    tag_240:\n        /* \"#utility.yul\":9905:9956   */\n      swap6\n      pop\n        /* \"#utility.yul\":9989:9993   */\n      dup1\n        /* \"#utility.yul\":9985:9994   */\n      not\n        /* \"#utility.yul\":9978:9983   */\n      dup5\n        /* \"#utility.yul\":9974:9995   */\n      and\n        /* \"#utility.yul\":9965:9995   */\n      swap4\n      pop\n        /* \"#utility.yul\":10038:10042   */\n      dup1\n        /* \"#utility.yul\":10028:10036   */\n      dup7\n        /* \"#utility.yul\":10024:10043   */\n      and\n        /* \"#utility.yul\":10017:10022   */\n      dup5\n        /* \"#utility.yul\":10014:10044   */\n      or\n        /* \"#utility.yul\":10004:10044   */\n      swap3\n      pop\n        /* \"#utility.yul\":9733:10050   */\n      pop\n      pop\n        /* \"#utility.yul\":9657:10050   */\n      swap4\n      swap3\n      pop\n      pop\n      pop\n      jump\t// out\n        /* \"#utility.yul\":10056:10116   */\n    tag_125:\n        /* \"#utility.yul\":10084:10087   */\n      0x00\n        /* \"#utility.yul\":10105:10110   */\n      dup2\n        /* \"#utility.yul\":10098:10110   */\n      swap1\n      pop\n        /* \"#utility.yul\":10056:10116   */\n      swap2\n      swap1\n      pop\n      jump\t// out\n        /* \"#utility.yul\":10122:10264   */\n    tag_126:\n        /* \"#utility.yul\":10172:10181   */\n      0x00\n        /* \"#utility.yul\":10205:10258   */\n      tag_243\n        /* \"#utility.yul\":10223:10257   */\n      tag_244\n        /* \"#utility.yul\":10232:10256   */\n      tag_245\n        /* \"#utility.yul\":10250:10255   */\n      dup5\n        /* \"#utility.yul\":10232:10256   */\n      tag_114\n      jump\t// in\n    tag_245:\n        /* \"#utility.yul\":10223:10257   */\n      tag_125\n      jump\t// in\n    tag_244:\n        /* \"#utility.yul\":10205:10258   */\n      tag_114\n      jump\t// in\n    tag_243:\n        /* \"#utility.yul\":10192:10258   */\n      swap1\n      pop\n        /* \"#utility.yul\":10122:10264   */\n      swap2\n      swap1\n      pop\n      jump\t// out\n        /* \"#utility.yul\":10270:10345   */\n    tag_127:\n        /* \"#utility.yul\":10313:10316   */\n      0x00\n        /* \"#utility.yul\":10334:10339   */\n      dup2\n        /* \"#utility.yul\":10327:10339   */\n      swap1\n      pop\n        /* \"#utility.yul\":10270:10345   */\n      swap2\n      swap1\n      pop\n      jump\t// out\n        /* \"#utility.yul\":10351:10620   */\n    tag_128:\n        /* \"#utility.yul\":10461:10500   */\n      tag_248\n        /* \"#utility.yul\":10492:10499   */\n      dup4\n        /* \"#utility.yul\":10461:10500   */\n      tag_126\n      jump\t// in\n    tag_248:\n        /* \"#utility.yul\":10522:10613   */\n      tag_249\n        /* \"#utility.yul\":10571:10612   */\n      tag_250\n        /* \"#utility.yul\":10595:10611   */\n      dup3\n        /* \"#utility.yul\":10571:10612   */\n      tag_127\n      jump\t// in\n    tag_250:\n        /* \"#utility.yul\":10563:10569   */\n      dup5\n        /* \"#utility.yul\":10556:10560   */\n      dup5\n        /* \"#utility.yul\":10550:10561   */\n      sload\n        /* \"#utility.yul\":10522:10613   */\n      tag_124\n      jump\t// in\n    tag_249:\n        /* \"#utility.yul\":10516:10520   */\n      dup3\n        /* \"#utility.yul\":10509:10614   */\n      sstore\n        /* \"#utility.yul\":10427:10620   */\n      pop\n        /* \"#utility.yul\":10351:10620   */\n      pop\n      pop\n      pop\n      jump\t// out\n        /* \"#utility.yul\":10626:10699   */\n    tag_129:\n        /* \"#utility.yul\":10671:10674   */\n      0x00\n        /* \"#utility.yul\":10626:10699   */\n      swap1\n      jump\t// out\n        /* \"#utility.yul\":10705:10894   */\n    tag_130:\n        /* \"#utility.yul\":10782:10814   */\n      tag_253\n      tag_129\n      jump\t// in\n    tag_253:\n        /* \"#utility.yul\":10823:10888   */\n      tag_254\n        /* \"#utility.yul\":10881:10887   */\n      dup2\n        /* \"#utility.yul\":10873:10879   */\n      dup5\n        /* \"#utility.yul\":10867:10871   */\n      dup5\n        /* \"#utility.yul\":10823:10888   */\n      tag_128\n      jump\t// in\n    tag_254:\n        /* \"#utility.yul\":10758:10894   */\n      pop\n        /* \"#utility.yul\":10705:10894   */\n      pop\n      pop\n      jump\t// out\n        /* \"#utility.yul\":10900:11086   */\n    tag_131:\n        /* \"#utility.yul\":10960:11080   */\n    tag_256:\n        /* \"#utility.yul\":10977:10980   */\n      dup2\n        /* \"#utility.yul\":10970:10975   */\n      dup2\n        /* \"#utility.yul\":10967:10981   */\n      lt\n        /* \"#utility.yul\":10960:11080   */\n      iszero\n      tag_258\n      jumpi\n        /* \"#utility.yul\":11031:11070   */\n      tag_259\n        /* \"#utility.yul\":11068:11069   */\n      0x00\n        /* \"#utility.yul\":11061:11066   */\n      dup3\n        /* \"#utility.yul\":11031:11070   */\n      tag_130\n      jump\t// in\n    tag_259:\n        /* \"#utility.yul\":11004:11005   */\n      0x01\n        /* \"#utility.yul\":10997:11002   */\n      dup2\n        /* \"#utility.yul\":10993:11006   */\n      add\n        /* \"#utility.yul\":10984:11006   */\n      swap1\n      pop\n        /* \"#utility.yul\":10960:11080   */\n      jump(tag_256)\n    tag_258:\n        /* \"#utility.yul\":10900:11086   */\n      pop\n      pop\n      jump\t// out\n        /* \"#utility.yul\":11092:11635   */\n    tag_132:\n        /* \"#utility.yul\":11193:11195   */\n      0x1f\n        /* \"#utility.yul\":11188:11191   */\n      dup3\n        /* \"#utility.yul\":11185:11196   */\n      gt\n        /* \"#utility.yul\":11182:11628   */\n      iszero\n      tag_261\n      jumpi\n        /* \"#utility.yul\":11227:11265   */\n      tag_262\n        /* \"#utility.yul\":11259:11264   */\n      dup2\n        /* \"#utility.yul\":11227:11265   */\n      tag_121\n      jump\t// in\n    tag_262:\n        /* \"#utility.yul\":11311:11340   */\n      tag_263\n        /* \"#utility.yul\":11329:11339   */\n      dup5\n        /* \"#utility.yul\":11311:11340   */\n      tag_122\n      jump\t// in\n    tag_263:\n        /* \"#utility.yul\":11301:11309   */\n      dup2\n        /* \"#utility.yul\":11297:11341   */\n      add\n        /* \"#utility.yul\":11494:11496   */\n      0x20\n        /* \"#utility.yul\":11482:11492   */\n      dup6\n        /* \"#utility.yul\":11479:11497   */\n      lt\n        /* \"#utility.yul\":11476:11525   */\n      iszero\n      tag_264\n      jumpi\n        /* \"#utility.yul\":11515:11523   */\n      dup2\n        /* \"#utility.yul\":11500:11523   */\n      swap1\n      pop\n        /* \"#utility.yul\":11476:11525   */\n    tag_264:\n        /* \"#utility.yul\":11538:11618   */\n      tag_265\n        /* \"#utility.yul\":11594:11616   */\n      tag_266\n        /* \"#utility.yul\":11612:11615   */\n      dup6\n        /* \"#utility.yul\":11594:11616   */\n      tag_122\n      jump\t// in\n    tag_266:\n        /* \"#utility.yul\":11584:11592   */\n      dup4\n        /* \"#utility.yul\":11580:11617   */\n      add\n        /* \"#utility.yul\":11567:11578   */\n      dup3\n        /* \"#utility.yul\":11538:11618   */\n      tag_131\n      jump\t// in\n    tag_265:\n        /* \"#utility.yul\":11197:11628   */\n      pop\n      pop\n        /* \"#utility.yul\":11182:11628   */\n    tag_261:\n        /* \"#utility.yul\":11092:11635   */\n      pop\n      pop\n      pop\n      jump\t// out\n        /* \"#utility.yul\":11641:11758   */\n    tag_133:\n        /* \"#utility.yul\":11695:11703   */\n      0x00\n        /* \"#utility.yul\":11745:11750   */\n      dup3\n        /* \"#utility.yul\":11739:11743   */\n      dup3\n        /* \"#utility.yul\":11735:11751   */\n      shr\n        /* \"#utility.yul\":11714:11751   */\n      swap1\n      pop\n        /* \"#utility.yul\":11641:11758   */\n      swap3\n      swap2\n      pop\n      pop\n      jump\t// out\n        /* \"#utility.yul\":11764:11933   */\n    tag_134:\n        /* \"#utility.yul\":11808:11814   */\n      0x00\n        /* \"#utility.yul\":11841:11892   */\n      tag_269\n        /* \"#utility.yul\":11889:11890   */\n      0x00\n        /* \"#utility.yul\":11885:11891   */\n      not\n        /* \"#utility.yul\":11877:11882   */\n      dup5\n        /* \"#utility.yul\":11874:11875   */\n      0x08\n        /* \"#utility.yul\":11870:11883   */\n      mul\n        /* \"#utility.yul\":11841:11892   */\n      tag_133\n      jump\t// in\n    tag_269:\n        /* \"#utility.yul\":11837:11893   */\n      not\n        /* \"#utility.yul\":11922:11926   */\n      dup1\n        /* \"#utility.yul\":11916:11920   */\n      dup4\n        /* \"#utility.yul\":11912:11927   */\n      and\n        /* \"#utility.yul\":11902:11927   */\n      swap2\n      pop\n        /* \"#utility.yul\":11815:11933   */\n      pop\n        /* \"#utility.yul\":11764:11933   */\n      swap3\n      swap2\n      pop\n      pop\n      jump\t// out\n        /* \"#utility.yul\":11938:12233   */\n    tag_135:\n        /* \"#utility.yul\":12014:12018   */\n      0x00\n        /* \"#utility.yul\":12160:12189   */\n      tag_271\n        /* \"#utility.yul\":12185:12188   */\n      dup4\n        /* \"#utility.yul\":12179:12183   */\n      dup4\n        /* \"#utility.yul\":12160:12189   */\n      tag_134\n      jump\t// in\n    tag_271:\n        /* \"#utility.yul\":12152:12189   */\n      swap2\n      pop\n        /* \"#utility.yul\":12222:12225   */\n      dup3\n        /* \"#utility.yul\":12219:12220   */\n      0x02\n        /* \"#utility.yul\":12215:12226   */\n      mul\n        /* \"#utility.yul\":12209:12213   */\n      dup3\n        /* \"#utility.yul\":12206:12227   */\n      or\n        /* \"#utility.yul\":12198:12227   */\n      swap1\n      pop\n        /* \"#utility.yul\":11938:12233   */\n      swap3\n      swap2\n      pop\n      pop\n      jump\t// out\n        /* \"#utility.yul\":12238:13633   */\n    tag_51:\n        /* \"#utility.yul\":12355:12392   */\n      tag_273\n        /* \"#utility.yul\":12388:12391   */\n      dup3\n        /* \"#utility.yul\":12355:12392   */\n      tag_94\n      jump\t// in\n    tag_273:\n        /* \"#utility.yul\":12457:12475   */\n      0xffffffffffffffff\n        /* \"#utility.yul\":12449:12455   */\n      dup2\n        /* \"#utility.yul\":12446:12476   */\n      gt\n        /* \"#utility.yul\":12443:12499   */\n      iszero\n      tag_274\n      jumpi\n        /* \"#utility.yul\":12479:12497   */\n      tag_275\n      tag_107\n      jump\t// in\n    tag_275:\n        /* \"#utility.yul\":12443:12499   */\n    tag_274:\n        /* \"#utility.yul\":12523:12561   */\n      tag_276\n        /* \"#utility.yul\":12555:12559   */\n      dup3\n        /* \"#utility.yul\":12549:12560   */\n      sload\n        /* \"#utility.yul\":12523:12561   */\n      tag_43\n      jump\t// in\n    tag_276:\n        /* \"#utility.yul\":12608:12675   */\n      tag_277\n        /* \"#utility.yul\":12668:12674   */\n      dup3\n        /* \"#utility.yul\":12660:12666   */\n      dup3\n        /* \"#utility.yul\":12654:12658   */\n      dup6\n        /* \"#utility.yul\":12608:12675   */\n      tag_132\n      jump\t// in\n    tag_277:\n        /* \"#utility.yul\":12702:12703   */\n      0x00\n        /* \"#utility.yul\":12726:12730   */\n      0x20\n        /* \"#utility.yul\":12713:12730   */\n      swap1\n      pop\n        /* \"#utility.yul\":12758:12760   */\n      0x1f\n        /* \"#utility.yul\":12750:12756   */\n      dup4\n        /* \"#utility.yul\":12747:12761   */\n      gt\n        /* \"#utility.yul\":12775:12776   */\n      0x01\n        /* \"#utility.yul\":12770:13388   */\n      dup2\n      eq\n      tag_279\n      jumpi\n        /* \"#utility.yul\":13432:13433   */\n      0x00\n        /* \"#utility.yul\":13449:13455   */\n      dup5\n        /* \"#utility.yul\":13446:13523   */\n      iszero\n      tag_280\n      jumpi\n        /* \"#utility.yul\":13498:13507   */\n      dup3\n        /* \"#utility.yul\":13493:13496   */\n      dup8\n        /* \"#utility.yul\":13489:13508   */\n      add\n        /* \"#utility.yul\":13483:13509   */\n      mload\n        /* \"#utility.yul\":13474:13509   */\n      swap1\n      pop\n        /* \"#utility.yul\":13446:13523   */\n    tag_280:\n        /* \"#utility.yul\":13549:13616   */\n      tag_281\n        /* \"#utility.yul\":13609:13615   */\n      dup6\n        /* \"#utility.yul\":13602:13607   */\n      dup3\n        /* \"#utility.yul\":13549:13616   */\n      tag_135\n      jump\t// in\n    tag_281:\n        /* \"#utility.yul\":13543:13547   */\n      dup7\n        /* \"#utility.yul\":13536:13617   */\n      sstore\n        /* \"#utility.yul\":13405:13627   */\n      pop\n        /* \"#utility.yul\":12740:13627   */\n      jump(tag_278)\n        /* \"#utility.yul\":12770:13388   */\n    tag_279:\n        /* \"#utility.yul\":12822:12826   */\n      0x1f\n        /* \"#utility.yul\":12818:12827   */\n      not\n        /* \"#utility.yul\":12810:12816   */\n      dup5\n        /* \"#utility.yul\":12806:12828   */\n      and\n        /* \"#utility.yul\":12856:12893   */\n      tag_282\n        /* \"#utility.yul\":12888:12892   */\n      dup7\n        /* \"#utility.yul\":12856:12893   */\n      tag_121\n      jump\t// in\n    tag_282:\n        /* \"#utility.yul\":12915:12916   */\n      0x00\n        /* \"#utility.yul\":12929:13137   */\n    tag_283:\n        /* \"#utility.yul\":12943:12950   */\n      dup3\n        /* \"#utility.yul\":12940:12941   */\n      dup2\n        /* \"#utility.yul\":12937:12951   */\n      lt\n        /* \"#utility.yul\":12929:13137   */\n      iszero\n      tag_285\n      jumpi\n        /* \"#utility.yul\":13022:13031   */\n      dup5\n        /* \"#utility.yul\":13017:13020   */\n      dup10\n        /* \"#utility.yul\":13013:13032   */\n      add\n        /* \"#utility.yul\":13007:13033   */\n      mload\n        /* \"#utility.yul\":12999:13005   */\n      dup3\n        /* \"#utility.yul\":12992:13034   */\n      sstore\n        /* \"#utility.yul\":13073:13074   */\n      0x01\n        /* \"#utility.yul\":13065:13071   */\n      dup3\n        /* \"#utility.yul\":13061:13075   */\n      add\n        /* \"#utility.yul\":13051:13075   */\n      swap2\n      pop\n        /* \"#utility.yul\":13120:13122   */\n      0x20\n        /* \"#utility.yul\":13109:13118   */\n      dup6\n        /* \"#utility.yul\":13105:13123   */\n      add\n        /* \"#utility.yul\":13092:13123   */\n      swap5\n      pop\n        /* \"#utility.yul\":12966:12970   */\n      0x20\n        /* \"#utility.yul\":12963:12964   */\n      dup2\n        /* \"#utility.yul\":12959:12971   */\n      add\n        /* \"#utility.yul\":12954:12971   */\n      swap1\n      pop\n        /* \"#utility.yul\":12929:13137   */\n      jump(tag_283)\n    tag_285:\n        /* \"#utility.yul\":13165:13171   */\n      dup7\n        /* \"#utility.yul\":13156:13163   */\n      dup4\n        /* \"#utility.yul\":13153:13172   */\n      lt\n        /* \"#utility.yul\":13150:13329   */\n      iszero\n      tag_286\n      jumpi\n        /* \"#utility.yul\":13223:13232   */\n      dup5\n        /* \"#utility.yul\":13218:13221   */\n      dup10\n        /* \"#utility.yul\":13214:13233   */\n      add\n        /* \"#utility.yul\":13208:13234   */\n      mload\n        /* \"#utility.yul\":13266:13314   */\n      tag_287\n        /* \"#utility.yul\":13308:13312   */\n      0x1f\n        /* \"#utility.yul\":13300:13306   */\n      dup10\n        /* \"#utility.yul\":13296:13313   */\n      and\n        /* \"#utility.yul\":13285:13294   */\n      dup3\n        /* \"#utility.yul\":13266:13314   */\n      tag_134\n      jump\t// in\n    tag_287:\n        /* \"#utility.yul\":13258:13264   */\n      dup4\n        /* \"#utility.yul\":13251:13315   */\n      sstore\n        /* \"#utility.yul\":13173:13329   */\n      pop\n        /* \"#utility.yul\":13150:13329   */\n    tag_286:\n        /* \"#utility.yul\":13375:13376   */\n      0x01\n        /* \"#utility.yul\":13371:13372   */\n      0x02\n        /* \"#utility.yul\":13363:13369   */\n      dup9\n        /* \"#utility.yul\":13359:13373   */\n      mul\n        /* \"#utility.yul\":13355:13377   */\n      add\n        /* \"#utility.yul\":13349:13353   */\n      dup9\n        /* \"#utility.yul\":13342:13378   */\n      sstore\n        /* \"#utility.yul\":12777:13388   */\n      pop\n      pop\n      pop\n        /* \"#utility.yul\":12740:13627   */\n    tag_278:\n      pop\n        /* \"#utility.yul\":12330:13633   */\n      pop\n      pop\n      pop\n        /* \"#utility.yul\":12238:13633   */\n      pop\n      pop\n      jump\t// out\n        /* \"#utility.yul\":13639:13819   */\n    tag_136:\n        /* \"#utility.yul\":13687:13764   */\n      0x4e487b7100000000000000000000000000000000000000000000000000000000\n        /* \"#utility.yul\":13684:13685   */\n      0x00\n        /* \"#utility.yul\":13677:13765   */\n      mstore\n        /* \"#utility.yul\":13784:13788   */\n      0x11\n        /* \"#utility.yul\":13781:13782   */\n      0x04\n        /* \"#utility.yul\":13774:13789   */\n      mstore\n        /* \"#utility.yul\":13808:13812   */\n      0x24\n        /* \"#utility.yul\":13805:13806   */\n      0x00\n        /* \"#utility.yul\":13798:13813   */\n      revert\n        /* \"#utility.yul\":13825:14019   */\n    tag_54:\n        /* \"#utility.yul\":13865:13869   */\n      0x00\n        /* \"#utility.yul\":13885:13905   */\n      tag_290\n        /* \"#utility.yul\":13903:13904   */\n      dup3\n        /* \"#utility.yul\":13885:13905   */\n      tag_114\n      jump\t// in\n    tag_290:\n        /* \"#utility.yul\":13880:13905   */\n      swap2\n      pop\n        /* \"#utility.yul\":13919:13939   */\n      tag_291\n        /* \"#utility.yul\":13937:13938   */\n      dup4\n        /* \"#utility.yul\":13919:13939   */\n      tag_114\n      jump\t// in\n    tag_291:\n        /* \"#utility.yul\":13914:13939   */\n      swap3\n      pop\n        /* \"#utility.yul\":13963:13964   */\n      dup3\n        /* \"#utility.yul\":13960:13961   */\n      dup3\n        /* \"#utility.yul\":13956:13965   */\n      sub\n        /* \"#utility.yul\":13948:13965   */\n      swap1\n      pop\n        /* \"#utility.yul\":13987:13988   */\n      dup2\n        /* \"#utility.yul\":13981:13985   */\n      dup2\n        /* \"#utility.yul\":13978:13989   */\n      gt\n        /* \"#utility.yul\":13975:14012   */\n      iszero\n      tag_292\n      jumpi\n        /* \"#utility.yul\":13992:14010   */\n      tag_293\n      tag_136\n      jump\t// in\n    tag_293:\n        /* \"#utility.yul\":13975:14012   */\n    tag_292:\n        /* \"#utility.yul\":13825:14019   */\n      swap3\n      swap2\n      pop\n      pop\n      jump\t// out\n        /* \"#utility.yul\":14025:14205   */\n    tag_57:\n        /* \"#utility.yul\":14073:14150   */\n      0x4e487b7100000000000000000000000000000000000000000000000000000000\n        /* \"#utility.yul\":14070:14071   */\n      0x00\n        /* \"#utility.yul\":14063:14151   */\n      mstore\n        /* \"#utility.yul\":14170:14174   */\n      0x32\n        /* \"#utility.yul\":14167:14168   */\n      0x04\n        /* \"#utility.yul\":14160:14175   */\n      mstore\n        /* \"#utility.yul\":14194:14198   */\n      0x24\n        /* \"#utility.yul\":14191:14192   */\n      0x00\n        /* \"#utility.yul\":14184:14199   */\n      revert\n        /* \"#utility.yul\":14211:14391   */\n    tag_73:\n        /* \"#utility.yul\":14259:14336   */\n      0x4e487b7100000000000000000000000000000000000000000000000000000000\n        /* \"#utility.yul\":14256:14257   */\n      0x00\n        /* \"#utility.yul\":14249:14337   */\n      mstore\n        /* \"#utility.yul\":14356:14360   */\n      0x31\n        /* \"#utility.yul\":14353:14354   */\n      0x04\n        /* \"#utility.yul\":14346:14361   */\n      mstore\n        /* \"#utility.yul\":14380:14384   */\n      0x24\n        /* \"#utility.yul\":14377:14378   */\n      0x00\n        /* \"#utility.yul\":14370:14385   */\n      revert\n\n    auxdata: 0xa2646970667358221220278d27293bb0cce68c1b4b51793c11c0a304e0bdb692136a2f757f0b55bfb69664736f6c63430008160033\n}\n",
				"bytecode": {
					"linkReferences": {},
					"object": "608060405234801561000f575f80fd5b50610bf08061001d5f395ff3fe608060405234801561000f575f80fd5b506004361061007b575f3560e01c806396e583a91161005957806396e583a9146100d5578063a4ece52c14610105578063be1c766b1461010f578063f82770331461012d5761007b565b80633cac14c81461007f5780634f3d057a1461009d5780637563517e146100b9575b5f80fd5b610087610149565b604051610094919061054b565b60405180910390f35b6100b760048036038101906100b291906106a8565b61021c565b005b6100d360048036038101906100ce9190610722565b610250565b005b6100ef60048036038101906100ea919061077c565b610289565b6040516100fc91906107ef565b60405180910390f35b61010d610340565b005b61011761036e565b604051610124919061081e565b60405180910390f35b6101476004803603810190610142919061077c565b610379565b005b60605f805480602002602001604051908101604052809291908181526020015f905b82821015610213578382905f5260205f2001805461018890610864565b80601f01602080910402602001604051908101604052809291908181526020018280546101b490610864565b80156101ff5780601f106101d6576101008083540402835291602001916101ff565b820191905f5260205f20905b8154815290600101906020018083116101e257829003601f168201915b50505050508152602001906001019061016b565b50505050905090565b5f81908060018154018082558091505060019003905f5260205f20015f90919091909150908161024c9190610a31565b5050565b805f60018461025f9190610b2d565b815481106102705761026f610b60565b5b905f5260205f200190816102849190610a31565b505050565b60605f6001836102999190610b2d565b815481106102aa576102a9610b60565b5b905f5260205f200180546102bd90610864565b80601f01602080910402602001604051908101604052809291908181526020018280546102e990610864565b80156103345780601f1061030b57610100808354040283529160200191610334565b820191905f5260205f20905b81548152906001019060200180831161031757829003601f168201915b50505050509050919050565b5f80548061035157610350610b8d565b5b600190038181905f5260205f20015f61036a91906103ae565b9055565b5f8080549050905090565b5f6001826103879190610b2d565b8154811061039857610397610b60565b5b905f5260205f20015f6103ab91906103ae565b50565b5080546103ba90610864565b5f825580601f106103cb57506103e8565b601f0160209004905f5260205f20908101906103e791906103eb565b5b50565b5b80821115610402575f815f9055506001016103ec565b5090565b5f81519050919050565b5f82825260208201905092915050565b5f819050602082019050919050565b5f81519050919050565b5f82825260208201905092915050565b5f5b8381101561046657808201518184015260208101905061044b565b5f8484015250505050565b5f601f19601f8301169050919050565b5f61048b8261042f565b6104958185610439565b93506104a5818560208601610449565b6104ae81610471565b840191505092915050565b5f6104c48383610481565b905092915050565b5f602082019050919050565b5f6104e282610406565b6104ec8185610410565b9350836020820285016104fe85610420565b805f5b85811015610539578484038952815161051a85826104b9565b9450610525836104cc565b925060208a01995050600181019050610501565b50829750879550505050505092915050565b5f6020820190508181035f83015261056381846104d8565b905092915050565b5f604051905090565b5f80fd5b5f80fd5b5f80fd5b5f80fd5b7f4e487b71000000000000000000000000000000000000000000000000000000005f52604160045260245ffd5b6105ba82610471565b810181811067ffffffffffffffff821117156105d9576105d8610584565b5b80604052505050565b5f6105eb61056b565b90506105f782826105b1565b919050565b5f67ffffffffffffffff82111561061657610615610584565b5b61061f82610471565b9050602081019050919050565b828183375f83830152505050565b5f61064c610647846105fc565b6105e2565b90508281526020810184848401111561066857610667610580565b5b61067384828561062c565b509392505050565b5f82601f83011261068f5761068e61057c565b5b813561069f84826020860161063a565b91505092915050565b5f602082840312156106bd576106bc610574565b5b5f82013567ffffffffffffffff8111156106da576106d9610578565b5b6106e68482850161067b565b91505092915050565b5f819050919050565b610701816106ef565b811461070b575f80fd5b50565b5f8135905061071c816106f8565b92915050565b5f806040838503121561073857610737610574565b5b5f6107458582860161070e565b925050602083013567ffffffffffffffff81111561076657610765610578565b5b6107728582860161067b565b9150509250929050565b5f6020828403121561079157610790610574565b5b5f61079e8482850161070e565b91505092915050565b5f82825260208201905092915050565b5f6107c18261042f565b6107cb81856107a7565b93506107db818560208601610449565b6107e481610471565b840191505092915050565b5f6020820190508181035f83015261080781846107b7565b905092915050565b610818816106ef565b82525050565b5f6020820190506108315f83018461080f565b92915050565b7f4e487b71000000000000000000000000000000000000000000000000000000005f52602260045260245ffd5b5f600282049050600182168061087b57607f821691505b60208210810361088e5761088d610837565b5b50919050565b5f819050815f5260205f209050919050565b5f6020601f8301049050919050565b5f82821b905092915050565b5f600883026108f07fffffffffffffffffffffffffffffffffffffffffffffffffffffffffffffffff826108b5565b6108fa86836108b5565b95508019841693508086168417925050509392505050565b5f819050919050565b5f61093561093061092b846106ef565b610912565b6106ef565b9050919050565b5f819050919050565b61094e8361091b565b61096261095a8261093c565b8484546108c1565b825550505050565b5f90565b61097661096a565b610981818484610945565b505050565b5b818110156109a4576109995f8261096e565b600181019050610987565b5050565b601f8211156109e9576109ba81610894565b6109c3846108a6565b810160208510156109d2578190505b6109e66109de856108a6565b830182610986565b50505b505050565b5f82821c905092915050565b5f610a095f19846008026109ee565b1980831691505092915050565b5f610a2183836109fa565b9150826002028217905092915050565b610a3a8261042f565b67ffffffffffffffff811115610a5357610a52610584565b5b610a5d8254610864565b610a688282856109a8565b5f60209050601f831160018114610a99575f8415610a87578287015190505b610a918582610a16565b865550610af8565b601f198416610aa786610894565b5f5b82811015610ace57848901518255600182019150602085019450602081019050610aa9565b86831015610aeb5784890151610ae7601f8916826109fa565b8355505b6001600288020188555050505b505050505050565b7f4e487b71000000000000000000000000000000000000000000000000000000005f52601160045260245ffd5b5f610b37826106ef565b9150610b42836106ef565b9250828203905081811115610b5a57610b59610b00565b5b92915050565b7f4e487b71000000000000000000000000000000000000000000000000000000005f52603260045260245ffd5b7f4e487b71000000000000000000000000000000000000000000000000000000005f52603160045260245ffdfea2646970667358221220278d27293bb0cce68c1b4b51793c11c0a304e0bdb692136a2f757f0b55bfb69664736f6c63430008160033",
					"opcodes": "PUSH1 0x80 PUSH1 0x40 MSTORE CALLVALUE DUP1 ISZERO PUSH2 0xF JUMPI PUSH0 DUP1 REVERT JUMPDEST POP PUSH2 0xBF0 DUP1 PUSH2 0x1D PUSH0 CODECOPY PUSH0 RETURN INVALID PUSH1 0x80 PUSH1 0x40 MSTORE CALLVALUE DUP1 ISZERO PUSH2 0xF JUMPI PUSH0 DUP1 REVERT JUMPDEST POP PUSH1 0x4 CALLDATASIZE LT PUSH2 0x7B JUMPI PUSH0 CALLDATALOAD PUSH1 0xE0 SHR DUP1 PUSH4 0x96E583A9 GT PUSH2 0x59 JUMPI DUP1 PUSH4 0x96E583A9 EQ PUSH2 0xD5 JUMPI DUP1 PUSH4 0xA4ECE52C EQ PUSH2 0x105 JUMPI DUP1 PUSH4 0xBE1C766B EQ PUSH2 0x10F JUMPI DUP1 PUSH4 0xF8277033 EQ PUSH2 0x12D JUMPI PUSH2 0x7B JUMP JUMPDEST DUP1 PUSH4 0x3CAC14C8 EQ PUSH2 0x7F JUMPI DUP1 PUSH4 0x4F3D057A EQ PUSH2 0x9D JUMPI DUP1 PUSH4 0x7563517E EQ PUSH2 0xB9 JUMPI JUMPDEST PUSH0 DUP1 REVERT JUMPDEST PUSH2 0x87 PUSH2 0x149 JUMP JUMPDEST PUSH1 0x40 MLOAD PUSH2 0x94 SWAP2 SWAP1 PUSH2 0x54B JUMP JUMPDEST PUSH1 0x40 MLOAD DUP1 SWAP2 SUB SWAP1 RETURN JUMPDEST PUSH2 0xB7 PUSH1 0x4 DUP1 CALLDATASIZE SUB DUP2 ADD SWAP1 PUSH2 0xB2 SWAP2 SWAP1 PUSH2 0x6A8 JUMP JUMPDEST PUSH2 0x21C JUMP JUMPDEST STOP JUMPDEST PUSH2 0xD3 PUSH1 0x4 DUP1 CALLDATASIZE SUB DUP2 ADD SWAP1 PUSH2 0xCE SWAP2 SWAP1 PUSH2 0x722 JUMP JUMPDEST PUSH2 0x250 JUMP JUMPDEST STOP JUMPDEST PUSH2 0xEF PUSH1 0x4 DUP1 CALLDATASIZE SUB DUP2 ADD SWAP1 PUSH2 0xEA SWAP2 SWAP1 PUSH2 0x77C JUMP JUMPDEST PUSH2 0x289 JUMP JUMPDEST PUSH1 0x40 MLOAD PUSH2 0xFC SWAP2 SWAP1 PUSH2 0x7EF JUMP JUMPDEST PUSH1 0x40 MLOAD DUP1 SWAP2 SUB SWAP1 RETURN JUMPDEST PUSH2 0x10D PUSH2 0x340 JUMP JUMPDEST STOP JUMPDEST PUSH2 0x117 PUSH2 0x36E JUMP JUMPDEST PUSH1 0x40 MLOAD PUSH2 0x124 SWAP2 SWAP1 PUSH2 0x81E JUMP JUMPDEST PUSH1 0x40 MLOAD DUP1 SWAP2 SUB SWAP1 RETURN JUMPDEST PUSH2 0x147 PUSH1 0x4 DUP1 CALLDATASIZE SUB DUP2 ADD SWAP1 PUSH2 0x142 SWAP2 SWAP1 PUSH2 0x77C JUMP JUMPDEST PUSH2 0x379 JUMP JUMPDEST STOP JUMPDEST PUSH1 0x60 PUSH0 DUP1 SLOAD DUP1 PUSH1 0x20 MUL PUSH1 0x20 ADD PUSH1 0x40 MLOAD SWAP1 DUP2 ADD PUSH1 0x40 MSTORE DUP1 SWAP3 SWAP2 SWAP1 DUP2 DUP2 MSTORE PUSH1 0x20 ADD PUSH0 SWAP1 JUMPDEST DUP3 DUP3 LT ISZERO PUSH2 0x213 JUMPI DUP4 DUP3 SWAP1 PUSH0 MSTORE PUSH1 0x20 PUSH0 KECCAK256 ADD DUP1 SLOAD PUSH2 0x188 SWAP1 PUSH2 0x864 JUMP JUMPDEST DUP1 PUSH1 0x1F ADD PUSH1 0x20 DUP1 SWAP2 DIV MUL PUSH1 0x20 ADD PUSH1 0x40 MLOAD SWAP1 DUP2 ADD PUSH1 0x40 MSTORE DUP1 SWAP3 SWAP2 SWAP1 DUP2 DUP2 MSTORE PUSH1 0x20 ADD DUP3 DUP1 SLOAD PUSH2 0x1B4 SWAP1 PUSH2 0x864 JUMP JUMPDEST DUP1 ISZERO PUSH2 0x1FF JUMPI DUP1 PUSH1 0x1F LT PUSH2 0x1D6 JUMPI PUSH2 0x100 DUP1 DUP4 SLOAD DIV MUL DUP4 MSTORE SWAP2 PUSH1 0x20 ADD SWAP2 PUSH2 0x1FF JUMP JUMPDEST DUP3 ADD SWAP2 SWAP1 PUSH0 MSTORE PUSH1 0x20 PUSH0 KECCAK256 SWAP1 JUMPDEST DUP2 SLOAD DUP2 MSTORE SWAP1 PUSH1 0x1 ADD SWAP1 PUSH1 0x20 ADD DUP1 DUP4 GT PUSH2 0x1E2 JUMPI DUP3 SWAP1 SUB PUSH1 0x1F AND DUP3 ADD SWAP2 JUMPDEST POP POP POP POP POP DUP2 MSTORE PUSH1 0x20 ADD SWAP1 PUSH1 0x1 ADD SWAP1 PUSH2 0x16B JUMP JUMPDEST POP POP POP POP SWAP1 POP SWAP1 JUMP JUMPDEST PUSH0 DUP2 SWAP1 DUP1 PUSH1 0x1 DUP2 SLOAD ADD DUP1 DUP3 SSTORE DUP1 SWAP2 POP POP PUSH1 0x1 SWAP1 SUB SWAP1 PUSH0 MSTORE PUSH1 0x20 PUSH0 KECCAK256 ADD PUSH0 SWAP1 SWAP2 SWAP1 SWAP2 SWAP1 SWAP2 POP SWAP1 DUP2 PUSH2 0x24C SWAP2 SWAP1 PUSH2 0xA31 JUMP JUMPDEST POP POP JUMP JUMPDEST DUP1 PUSH0 PUSH1 0x1 DUP5 PUSH2 0x25F SWAP2 SWAP1 PUSH2 0xB2D JUMP JUMPDEST DUP2 SLOAD DUP2 LT PUSH2 0x270 JUMPI PUSH2 0x26F PUSH2 0xB60 JUMP JUMPDEST JUMPDEST SWAP1 PUSH0 MSTORE PUSH1 0x20 PUSH0 KECCAK256 ADD SWAP1 DUP2 PUSH2 0x284 SWAP2 SWAP1 PUSH2 0xA31 JUMP JUMPDEST POP POP POP JUMP JUMPDEST PUSH1 0x60 PUSH0 PUSH1 0x1 DUP4 PUSH2 0x299 SWAP2 SWAP1 PUSH2 0xB2D JUMP JUMPDEST DUP2 SLOAD DUP2 LT PUSH2 0x2AA JUMPI PUSH2 0x2A9 PUSH2 0xB60 JUMP JUMPDEST JUMPDEST SWAP1 PUSH0 MSTORE PUSH1 0x20 PUSH0 KECCAK256 ADD DUP1 SLOAD PUSH2 0x2BD SWAP1 PUSH2 0x864 JUMP JUMPDEST DUP1 PUSH1 0x1F ADD PUSH1 0x20 DUP1 SWAP2 DIV MUL PUSH1 0x20 ADD PUSH1 0x40 MLOAD SWAP1 DUP2 ADD PUSH1 0x40 MSTORE DUP1 SWAP3 SWAP2 SWAP1 DUP2 DUP2 MSTORE PUSH1 0x20 ADD DUP3 DUP1 SLOAD PUSH2 0x2E9 SWAP1 PUSH2 0x864 JUMP JUMPDEST DUP1 ISZERO PUSH2 0x334 JUMPI DUP1 PUSH1 0x1F LT PUSH2 0x30B JUMPI PUSH2 0x100 DUP1 DUP4 SLOAD DIV MUL DUP4 MSTORE SWAP2 PUSH1 0x20 ADD SWAP2 PUSH2 0x334 JUMP JUMPDEST DUP3 ADD SWAP2 SWAP1 PUSH0 MSTORE PUSH1 0x20 PUSH0 KECCAK256 SWAP1 JUMPDEST DUP2 SLOAD DUP2 MSTORE SWAP1 PUSH1 0x1 ADD SWAP1 PUSH1 0x20 ADD DUP1 DUP4 GT PUSH2 0x317 JUMPI DUP3 SWAP1 SUB PUSH1 0x1F AND DUP3 ADD SWAP2 JUMPDEST POP POP POP POP POP SWAP1 POP SWAP2 SWAP1 POP JUMP JUMPDEST PUSH0 DUP1 SLOAD DUP1 PUSH2 0x351 JUMPI PUSH2 0x350 PUSH2 0xB8D JUMP JUMPDEST JUMPDEST PUSH1 0x1 SWAP1 SUB DUP2 DUP2 SWAP1 PUSH0 MSTORE PUSH1 0x20 PUSH0 KECCAK256 ADD PUSH0 PUSH2 0x36A SWAP2 SWAP1 PUSH2 0x3AE JUMP JUMPDEST SWAP1 SSTORE JUMP JUMPDEST PUSH0 DUP1 DUP1 SLOAD SWAP1 POP SWAP1 POP SWAP1 JUMP JUMPDEST PUSH0 PUSH1 0x1 DUP3 PUSH2 0x387 SWAP2 SWAP1 PUSH2 0xB2D JUMP JUMPDEST DUP2 SLOAD DUP2 LT PUSH2 0x398 JUMPI PUSH2 0x397 PUSH2 0xB60 JUMP JUMPDEST JUMPDEST SWAP1 PUSH0 MSTORE PUSH1 0x20 PUSH0 KECCAK256 ADD PUSH0 PUSH2 0x3AB SWAP2 SWAP1 PUSH2 0x3AE JUMP JUMPDEST POP JUMP JUMPDEST POP DUP1 SLOAD PUSH2 0x3BA SWAP1 PUSH2 0x864 JUMP JUMPDEST PUSH0 DUP3 SSTORE DUP1 PUSH1 0x1F LT PUSH2 0x3CB JUMPI POP PUSH2 0x3E8 JUMP JUMPDEST PUSH1 0x1F ADD PUSH1 0x20 SWAP1 DIV SWAP1 PUSH0 MSTORE PUSH1 0x20 PUSH0 KECCAK256 SWAP1 DUP2 ADD SWAP1 PUSH2 0x3E7 SWAP2 SWAP1 PUSH2 0x3EB JUMP JUMPDEST JUMPDEST POP JUMP JUMPDEST JUMPDEST DUP1 DUP3 GT ISZERO PUSH2 0x402 JUMPI PUSH0 DUP2 PUSH0 SWAP1 SSTORE POP PUSH1 0x1 ADD PUSH2 0x3EC JUMP JUMPDEST POP SWAP1 JUMP JUMPDEST PUSH0 DUP2 MLOAD SWAP1 POP SWAP2 SWAP1 POP JUMP JUMPDEST PUSH0 DUP3 DUP3 MSTORE PUSH1 0x20 DUP3 ADD SWAP1 POP SWAP3 SWAP2 POP POP JUMP JUMPDEST PUSH0 DUP2 SWAP1 POP PUSH1 0x20 DUP3 ADD SWAP1 POP SWAP2 SWAP1 POP JUMP JUMPDEST PUSH0 DUP2 MLOAD SWAP1 POP SWAP2 SWAP1 POP JUMP JUMPDEST PUSH0 DUP3 DUP3 MSTORE PUSH1 0x20 DUP3 ADD SWAP1 POP SWAP3 SWAP2 POP POP JUMP JUMPDEST PUSH0 JUMPDEST DUP4 DUP2 LT ISZERO PUSH2 0x466 JUMPI DUP1 DUP3 ADD MLOAD DUP2 DUP5 ADD MSTORE PUSH1 0x20 DUP2 ADD SWAP1 POP PUSH2 0x44B JUMP JUMPDEST PUSH0 DUP5 DUP5 ADD MSTORE POP POP POP POP JUMP JUMPDEST PUSH0 PUSH1 0x1F NOT PUSH1 0x1F DUP4 ADD AND SWAP1 POP SWAP2 SWAP1 POP JUMP JUMPDEST PUSH0 PUSH2 0x48B DUP3 PUSH2 0x42F JUMP JUMPDEST PUSH2 0x495 DUP2 DUP6 PUSH2 0x439 JUMP JUMPDEST SWAP4 POP PUSH2 0x4A5 DUP2 DUP6 PUSH1 0x20 DUP7 ADD PUSH2 0x449 JUMP JUMPDEST PUSH2 0x4AE DUP2 PUSH2 0x471 JUMP JUMPDEST DUP5 ADD SWAP2 POP POP SWAP3 SWAP2 POP POP JUMP JUMPDEST PUSH0 PUSH2 0x4C4 DUP4 DUP4 PUSH2 0x481 JUMP JUMPDEST SWAP1 POP SWAP3 SWAP2 POP POP JUMP JUMPDEST PUSH0 PUSH1 0x20 DUP3 ADD SWAP1 POP SWAP2 SWAP1 POP JUMP JUMPDEST PUSH0 PUSH2 0x4E2 DUP3 PUSH2 0x406 JUMP JUMPDEST PUSH2 0x4EC DUP2 DUP6 PUSH2 0x410 JUMP JUMPDEST SWAP4 POP DUP4 PUSH1 0x20 DUP3 MUL DUP6 ADD PUSH2 0x4FE DUP6 PUSH2 0x420 JUMP JUMPDEST DUP1 PUSH0 JUMPDEST DUP6 DUP2 LT ISZERO PUSH2 0x539 JUMPI DUP5 DUP5 SUB DUP10 MSTORE DUP2 MLOAD PUSH2 0x51A DUP6 DUP3 PUSH2 0x4B9 JUMP JUMPDEST SWAP5 POP PUSH2 0x525 DUP4 PUSH2 0x4CC JUMP JUMPDEST SWAP3 POP PUSH1 0x20 DUP11 ADD SWAP10 POP POP PUSH1 0x1 DUP2 ADD SWAP1 POP PUSH2 0x501 JUMP JUMPDEST POP DUP3 SWAP8 POP DUP8 SWAP6 POP POP POP POP POP POP SWAP3 SWAP2 POP POP JUMP JUMPDEST PUSH0 PUSH1 0x20 DUP3 ADD SWAP1 POP DUP2 DUP2 SUB PUSH0 DUP4 ADD MSTORE PUSH2 0x563 DUP2 DUP5 PUSH2 0x4D8 JUMP JUMPDEST SWAP1 POP SWAP3 SWAP2 POP POP JUMP JUMPDEST PUSH0 PUSH1 0x40 MLOAD SWAP1 POP SWAP1 JUMP JUMPDEST PUSH0 DUP1 REVERT JUMPDEST PUSH0 DUP1 REVERT JUMPDEST PUSH0 DUP1 REVERT JUMPDEST PUSH0 DUP1 REVERT JUMPDEST PUSH32 0x4E487B7100000000000000000000000000000000000000000000000000000000 PUSH0 MSTORE PUSH1 0x41 PUSH1 0x4 MSTORE PUSH1 0x24 PUSH0 REVERT JUMPDEST PUSH2 0x5BA DUP3 PUSH2 0x471 JUMP JUMPDEST DUP2 ADD DUP2 DUP2 LT PUSH8 0xFFFFFFFFFFFFFFFF DUP3 GT OR ISZERO PUSH2 0x5D9 JUMPI PUSH2 0x5D8 PUSH2 0x584 JUMP JUMPDEST JUMPDEST DUP1 PUSH1 0x40 MSTORE POP POP POP JUMP JUMPDEST PUSH0 PUSH2 0x5EB PUSH2 0x56B JUMP JUMPDEST SWAP1 POP PUSH2 0x5F7 DUP3 DUP3 PUSH2 0x5B1 JUMP JUMPDEST SWAP2 SWAP1 POP JUMP JUMPDEST PUSH0 PUSH8 0xFFFFFFFFFFFFFFFF DUP3 GT ISZERO PUSH2 0x616 JUMPI PUSH2 0x615 PUSH2 0x584 JUMP JUMPDEST JUMPDEST PUSH2 0x61F DUP3 PUSH2 0x471 JUMP JUMPDEST SWAP1 POP PUSH1 0x20 DUP2 ADD SWAP1 POP SWAP2 SWAP1 POP JUMP JUMPDEST DUP3 DUP2 DUP4 CALLDATACOPY PUSH0 DUP4 DUP4 ADD MSTORE POP POP POP JUMP JUMPDEST PUSH0 PUSH2 0x64C PUSH2 0x647 DUP5 PUSH2 0x5FC JUMP JUMPDEST PUSH2 0x5E2 JUMP JUMPDEST SWAP1 POP DUP3 DUP2 MSTORE PUSH1 0x20 DUP2 ADD DUP5 DUP5 DUP5 ADD GT ISZERO PUSH2 0x668 JUMPI PUSH2 0x667 PUSH2 0x580 JUMP JUMPDEST JUMPDEST PUSH2 0x673 DUP5 DUP3 DUP6 PUSH2 0x62C JUMP JUMPDEST POP SWAP4 SWAP3 POP POP POP JUMP JUMPDEST PUSH0 DUP3 PUSH1 0x1F DUP4 ADD SLT PUSH2 0x68F JUMPI PUSH2 0x68E PUSH2 0x57C JUMP JUMPDEST JUMPDEST DUP2 CALLDATALOAD PUSH2 0x69F DUP5 DUP3 PUSH1 0x20 DUP7 ADD PUSH2 0x63A JUMP JUMPDEST SWAP2 POP POP SWAP3 SWAP2 POP POP JUMP JUMPDEST PUSH0 PUSH1 0x20 DUP3 DUP5 SUB SLT ISZERO PUSH2 0x6BD JUMPI PUSH2 0x6BC PUSH2 0x574 JUMP JUMPDEST JUMPDEST PUSH0 DUP3 ADD CALLDATALOAD PUSH8 0xFFFFFFFFFFFFFFFF DUP2 GT ISZERO PUSH2 0x6DA JUMPI PUSH2 0x6D9 PUSH2 0x578 JUMP JUMPDEST JUMPDEST PUSH2 0x6E6 DUP5 DUP3 DUP6 ADD PUSH2 0x67B JUMP JUMPDEST SWAP2 POP POP SWAP3 SWAP2 POP POP JUMP JUMPDEST PUSH0 DUP2 SWAP1 POP SWAP2 SWAP1 POP JUMP JUMPDEST PUSH2 0x701 DUP2 PUSH2 0x6EF JUMP JUMPDEST DUP2 EQ PUSH2 0x70B JUMPI PUSH0 DUP1 REVERT JUMPDEST POP JUMP JUMPDEST PUSH0 DUP2 CALLDATALOAD SWAP1 POP PUSH2 0x71C DUP2 PUSH2 0x6F8 JUMP JUMPDEST SWAP3 SWAP2 POP POP JUMP JUMPDEST PUSH0 DUP1 PUSH1 0x40 DUP4 DUP6 SUB SLT ISZERO PUSH2 0x738 JUMPI PUSH2 0x737 PUSH2 0x574 JUMP JUMPDEST JUMPDEST PUSH0 PUSH2 0x745 DUP6 DUP3 DUP7 ADD PUSH2 0x70E JUMP JUMPDEST SWAP3 POP POP PUSH1 0x20 DUP4 ADD CALLDATALOAD PUSH8 0xFFFFFFFFFFFFFFFF DUP2 GT ISZERO PUSH2 0x766 JUMPI PUSH2 0x765 PUSH2 0x578 JUMP JUMPDEST JUMPDEST PUSH2 0x772 DUP6 DUP3 DUP7 ADD PUSH2 0x67B JUMP JUMPDEST SWAP2 POP POP SWAP3 POP SWAP3 SWAP1 POP JUMP JUMPDEST PUSH0 PUSH1 0x20 DUP3 DUP5 SUB SLT ISZERO PUSH2 0x791 JUMPI PUSH2 0x790 PUSH2 0x574 JUMP JUMPDEST JUMPDEST PUSH0 PUSH2 0x79E DUP5 DUP3 DUP6 ADD PUSH2 0x70E JUMP JUMPDEST SWAP2 POP POP SWAP3 SWAP2 POP POP JUMP JUMPDEST PUSH0 DUP3 DUP3 MSTORE PUSH1 0x20 DUP3 ADD SWAP1 POP SWAP3 SWAP2 POP POP JUMP JUMPDEST PUSH0 PUSH2 0x7C1 DUP3 PUSH2 0x42F JUMP JUMPDEST PUSH2 0x7CB DUP2 DUP6 PUSH2 0x7A7 JUMP JUMPDEST SWAP4 POP PUSH2 0x7DB DUP2 DUP6 PUSH1 0x20 DUP7 ADD PUSH2 0x449 JUMP JUMPDEST PUSH2 0x7E4 DUP2 PUSH2 0x471 JUMP JUMPDEST DUP5 ADD SWAP2 POP POP SWAP3 SWAP2 POP POP JUMP JUMPDEST PUSH0 PUSH1 0x20 DUP3 ADD SWAP1 POP DUP2 DUP2 SUB PUSH0 DUP4 ADD MSTORE PUSH2 0x807 DUP2 DUP5 PUSH2 0x7B7 JUMP JUMPDEST SWAP1 POP SWAP3 SWAP2 POP POP JUMP JUMPDEST PUSH2 0x818 DUP2 PUSH2 0x6EF JUMP JUMPDEST DUP3 MSTORE POP POP JUMP JUMPDEST PUSH0 PUSH1 0x20 DUP3 ADD SWAP1 POP PUSH2 0x831 PUSH0 DUP4 ADD DUP5 PUSH2 0x80F JUMP JUMPDEST SWAP3 SWAP2 POP POP JUMP JUMPDEST PUSH32 0x4E487B7100000000000000000000000000000000000000000000000000000000 PUSH0 MSTORE PUSH1 0x22 PUSH1 0x4 MSTORE PUSH1 0x24 PUSH0 REVERT JUMPDEST PUSH0 PUSH1 0x2 DUP3 DIV SWAP1 POP PUSH1 0x1 DUP3 AND DUP1 PUSH2 0x87B JUMPI PUSH1 0x7F DUP3 AND SWAP2 POP JUMPDEST PUSH1 0x20 DUP3 LT DUP2 SUB PUSH2 0x88E JUMPI PUSH2 0x88D PUSH2 0x837 JUMP JUMPDEST JUMPDEST POP SWAP2 SWAP1 POP JUMP JUMPDEST PUSH0 DUP2 SWAP1 POP DUP2 PUSH0 MSTORE PUSH1 0x20 PUSH0 KECCAK256 SWAP1 POP SWAP2 SWAP1 POP JUMP JUMPDEST PUSH0 PUSH1 0x20 PUSH1 0x1F DUP4 ADD DIV SWAP1 POP SWAP2 SWAP1 POP JUMP JUMPDEST PUSH0 DUP3 DUP3 SHL SWAP1 POP SWAP3 SWAP2 POP POP JUMP JUMPDEST PUSH0 PUSH1 0x8 DUP4 MUL PUSH2 0x8F0 PUSH32 0xFFFFFFFFFFFFFFFFFFFFFFFFFFFFFFFFFFFFFFFFFFFFFFFFFFFFFFFFFFFFFFFF DUP3 PUSH2 0x8B5 JUMP JUMPDEST PUSH2 0x8FA DUP7 DUP4 PUSH2 0x8B5 JUMP JUMPDEST SWAP6 POP DUP1 NOT DUP5 AND SWAP4 POP DUP1 DUP7 AND DUP5 OR SWAP3 POP POP POP SWAP4 SWAP3 POP POP POP JUMP JUMPDEST PUSH0 DUP2 SWAP1 POP SWAP2 SWAP1 POP JUMP JUMPDEST PUSH0 PUSH2 0x935 PUSH2 0x930 PUSH2 0x92B DUP5 PUSH2 0x6EF JUMP JUMPDEST PUSH2 0x912 JUMP JUMPDEST PUSH2 0x6EF JUMP JUMPDEST SWAP1 POP SWAP2 SWAP1 POP JUMP JUMPDEST PUSH0 DUP2 SWAP1 POP SWAP2 SWAP1 POP JUMP JUMPDEST PUSH2 0x94E DUP4 PUSH2 0x91B JUMP JUMPDEST PUSH2 0x962 PUSH2 0x95A DUP3 PUSH2 0x93C JUMP JUMPDEST DUP5 DUP5 SLOAD PUSH2 0x8C1 JUMP JUMPDEST DUP3 SSTORE POP POP POP POP JUMP JUMPDEST PUSH0 SWAP1 JUMP JUMPDEST PUSH2 0x976 PUSH2 0x96A JUMP JUMPDEST PUSH2 0x981 DUP2 DUP5 DUP5 PUSH2 0x945 JUMP JUMPDEST POP POP POP JUMP JUMPDEST JUMPDEST DUP2 DUP2 LT ISZERO PUSH2 0x9A4 JUMPI PUSH2 0x999 PUSH0 DUP3 PUSH2 0x96E JUMP JUMPDEST PUSH1 0x1 DUP2 ADD SWAP1 POP PUSH2 0x987 JUMP JUMPDEST POP POP JUMP JUMPDEST PUSH1 0x1F DUP3 GT ISZERO PUSH2 0x9E9 JUMPI PUSH2 0x9BA DUP2 PUSH2 0x894 JUMP JUMPDEST PUSH2 0x9C3 DUP5 PUSH2 0x8A6 JUMP JUMPDEST DUP2 ADD PUSH1 0x20 DUP6 LT ISZERO PUSH2 0x9D2 JUMPI DUP2 SWAP1 POP JUMPDEST PUSH2 0x9E6 PUSH2 0x9DE DUP6 PUSH2 0x8A6 JUMP JUMPDEST DUP4 ADD DUP3 PUSH2 0x986 JUMP JUMPDEST POP POP JUMPDEST POP POP POP JUMP JUMPDEST PUSH0 DUP3 DUP3 SHR SWAP1 POP SWAP3 SWAP2 POP POP JUMP JUMPDEST PUSH0 PUSH2 0xA09 PUSH0 NOT DUP5 PUSH1 0x8 MUL PUSH2 0x9EE JUMP JUMPDEST NOT DUP1 DUP4 AND SWAP2 POP POP SWAP3 SWAP2 POP POP JUMP JUMPDEST PUSH0 PUSH2 0xA21 DUP4 DUP4 PUSH2 0x9FA JUMP JUMPDEST SWAP2 POP DUP3 PUSH1 0x2 MUL DUP3 OR SWAP1 POP SWAP3 SWAP2 POP POP JUMP JUMPDEST PUSH2 0xA3A DUP3 PUSH2 0x42F JUMP JUMPDEST PUSH8 0xFFFFFFFFFFFFFFFF DUP2 GT ISZERO PUSH2 0xA53 JUMPI PUSH2 0xA52 PUSH2 0x584 JUMP JUMPDEST JUMPDEST PUSH2 0xA5D DUP3 SLOAD PUSH2 0x864 JUMP JUMPDEST PUSH2 0xA68 DUP3 DUP3 DUP6 PUSH2 0x9A8 JUMP JUMPDEST PUSH0 PUSH1 0x20 SWAP1 POP PUSH1 0x1F DUP4 GT PUSH1 0x1 DUP2 EQ PUSH2 0xA99 JUMPI PUSH0 DUP5 ISZERO PUSH2 0xA87 JUMPI DUP3 DUP8 ADD MLOAD SWAP1 POP JUMPDEST PUSH2 0xA91 DUP6 DUP3 PUSH2 0xA16 JUMP JUMPDEST DUP7 SSTORE POP PUSH2 0xAF8 JUMP JUMPDEST PUSH1 0x1F NOT DUP5 AND PUSH2 0xAA7 DUP7 PUSH2 0x894 JUMP JUMPDEST PUSH0 JUMPDEST DUP3 DUP2 LT ISZERO PUSH2 0xACE JUMPI DUP5 DUP10 ADD MLOAD DUP3 SSTORE PUSH1 0x1 DUP3 ADD SWAP2 POP PUSH1 0x20 DUP6 ADD SWAP5 POP PUSH1 0x20 DUP2 ADD SWAP1 POP PUSH2 0xAA9 JUMP JUMPDEST DUP7 DUP4 LT ISZERO PUSH2 0xAEB JUMPI DUP5 DUP10 ADD MLOAD PUSH2 0xAE7 PUSH1 0x1F DUP10 AND DUP3 PUSH2 0x9FA JUMP JUMPDEST DUP4 SSTORE POP JUMPDEST PUSH1 0x1 PUSH1 0x2 DUP9 MUL ADD DUP9 SSTORE POP POP POP JUMPDEST POP POP POP POP POP POP JUMP JUMPDEST PUSH32 0x4E487B7100000000000000000000000000000000000000000000000000000000 PUSH0 MSTORE PUSH1 0x11 PUSH1 0x4 MSTORE PUSH1 0x24 PUSH0 REVERT JUMPDEST PUSH0 PUSH2 0xB37 DUP3 PUSH2 0x6EF JUMP JUMPDEST SWAP2 POP PUSH2 0xB42 DUP4 PUSH2 0x6EF JUMP JUMPDEST SWAP3 POP DUP3 DUP3 SUB SWAP1 POP DUP2 DUP2 GT ISZERO PUSH2 0xB5A JUMPI PUSH2 0xB59 PUSH2 0xB00 JUMP JUMPDEST JUMPDEST SWAP3 SWAP2 POP POP JUMP JUMPDEST PUSH32 0x4E487B7100000000000000000000000000000000000000000000000000000000 PUSH0 MSTORE PUSH1 0x32 PUSH1 0x4 MSTORE PUSH1 0x24 PUSH0 REVERT JUMPDEST PUSH32 0x4E487B7100000000000000000000000000000000000000000000000000000000 PUSH0 MSTORE PUSH1 0x31 PUSH1 0x4 MSTORE PUSH1 0x24 PUSH0 REVERT INVALID LOG2 PUSH5 0x6970667358 0x22 SLT KECCAK256 0x27 DUP14 0x27 0x29 EXTCODESIZE 0xB0 0xCC 0xE6 DUP13 SHL 0x4B MLOAD PUSH26 0x3C11C0A304E0BDB692136A2F757F0B55BFB69664736F6C634300 ADDMOD AND STOP CALLER "
				},
				"gasEstimates": {
					"creation": {
						"codeDepositCost": "611200",
						"executionCost": "643",
						"totalCost": "611843"
					},
					"external": {
						"deleteLetter(uint256)": "infinite",
						"getLength()": "2484",
						"getLetter(uint256)": "infinite",
						"pop()": "infinite",
						"push(string)": "infinite",
						"returnArray()": "infinite",
						"setLetter(uint256,string)": "infinite"
					}
				},
				"methodIdentifiers": {
					"deleteLetter(uint256)": "f8277033",
					"getLength()": "be1c766b",
					"getLetter(uint256)": "96e583a9",
					"pop()": "a4ece52c",
					"push(string)": "4f3d057a",
					"returnArray()": "3cac14c8",
					"setLetter(uint256,string)": "7563517e"
				}
			},
			"storageLayout": {
				"storage": [
					{
						"astId": 4,
						"contract": "contracts/array_s.sol:ARRAY_S",
						"label": "letters",
						"offset": 0,
						"slot": "0",
						"type": "t_array(t_string_storage)dyn_storage"
					}
				],
				"types": {
					"t_array(t_string_storage)dyn_storage": {
						"base": "t_string_storage",
						"encoding": "dynamic_array",
						"label": "string[]",
						"numberOfBytes": "32"
					},
					"t_string_storage": {
						"encoding": "bytes",
						"label": "string",
						"numberOfBytes": "32"
					}
				}
			},
			"userdoc": {
				"kind": "user",
				"methods": {},
				"version": 1
			}
		}
	}
}