{
	"contracts/struct.sol": {
		"STRUCT": {
			"abi": [
				{
					"inputs": [],
					"name": "getS",
					"outputs": [
						{
							"components": [
								{
									"internalType": "string",
									"name": "name",
									"type": "string"
								},
								{
									"internalType": "bool",
									"name": "isMale",
									"type": "bool"
								},
								{
									"internalType": "uint256",
									"name": "number",
									"type": "uint256"
								}
							],
							"internalType": "struct STRUCT.Student",
							"name": "",
							"type": "tuple"
						}
					],
					"stateMutability": "view",
					"type": "function"
				},
				{
					"inputs": [
						{
							"internalType": "string",
							"name": "_name",
							"type": "string"
						},
						{
							"internalType": "bool",
							"name": "_isMale",
							"type": "bool"
						},
						{
							"internalType": "uint256",
							"name": "_number",
							"type": "uint256"
						}
					],
					"name": "setS",
					"outputs": [],
					"stateMutability": "nonpayable",
					"type": "function"
				}
			],
			"devdoc": {
				"kind": "dev",
				"methods": {},
				"version": 1
			},
			"evm": {
				"assembly": "    /* \"contracts/struct.sol\":70:406  contract STRUCT {... */\n  mstore(0x40, 0x80)\n  callvalue\n  dup1\n  iszero\n  tag_1\n  jumpi\n  0x00\n  dup1\n  revert\ntag_1:\n  pop\n  dataSize(sub_0)\n  dup1\n  dataOffset(sub_0)\n  0x00\n  codecopy\n  0x00\n  return\nstop\n\nsub_0: assembly {\n        /* \"contracts/struct.sol\":70:406  contract STRUCT {... */\n      mstore(0x40, 0x80)\n      callvalue\n      dup1\n      iszero\n      tag_1\n      jumpi\n      0x00\n      dup1\n      revert\n    tag_1:\n      pop\n      jumpi(tag_2, lt(calldatasize, 0x04))\n      shr(0xe0, calldataload(0x00))\n      dup1\n      0x29ec0b2b\n      eq\n      tag_3\n      jumpi\n      dup1\n      0xe93314ab\n      eq\n      tag_4\n      jumpi\n    tag_2:\n      0x00\n      dup1\n      revert\n        /* \"contracts/struct.sol\":199:321  function setS(string memory _name, bool _isMale, uint _number) public {... */\n    tag_3:\n      tag_5\n      0x04\n      dup1\n      calldatasize\n      sub\n      dup2\n      add\n      swap1\n      tag_6\n      swap2\n      swap1\n      tag_7\n      jump\t// in\n    tag_6:\n      tag_8\n      jump\t// in\n    tag_5:\n      stop\n        /* \"contracts/struct.sol\":327:404  function getS() public view returns(Student memory) {... */\n    tag_4:\n      tag_9\n      tag_10\n      jump\t// in\n    tag_9:\n      mload(0x40)\n      tag_11\n      swap2\n      swap1\n      tag_12\n      jump\t// in\n    tag_11:\n      mload(0x40)\n      dup1\n      swap2\n      sub\n      swap1\n      return\n        /* \"contracts/struct.sol\":199:321  function setS(string memory _name, bool _isMale, uint _number) public {... */\n    tag_8:\n        /* \"contracts/struct.sol\":282:314  Student(_name, _isMale, _number) */\n      mload(0x40)\n      dup1\n      0x60\n      add\n      0x40\n      mstore\n      dup1\n        /* \"contracts/struct.sol\":290:295  _name */\n      dup5\n        /* \"contracts/struct.sol\":282:314  Student(_name, _isMale, _number) */\n      dup2\n      mstore\n      0x20\n      add\n        /* \"contracts/struct.sol\":297:304  _isMale */\n      dup4\n        /* \"contracts/struct.sol\":282:314  Student(_name, _isMale, _number) */\n      iszero\n      iszero\n      dup2\n      mstore\n      0x20\n      add\n        /* \"contracts/struct.sol\":306:313  _number */\n      dup3\n        /* \"contracts/struct.sol\":282:314  Student(_name, _isMale, _number) */\n      dup2\n      mstore\n      pop\n        /* \"contracts/struct.sol\":279:280  s */\n      0x00\n        /* \"contracts/struct.sol\":279:314  s =Student(_name, _isMale, _number) */\n      dup1\n      dup3\n      add\n      mload\n      dup2\n      0x00\n      add\n      swap1\n      dup2\n      tag_14\n      swap2\n      swap1\n      tag_15\n      jump\t// in\n    tag_14:\n      pop\n      0x20\n      dup3\n      add\n      mload\n      dup2\n      0x01\n      add\n      exp(0x0100, 0x00)\n      dup2\n      sload\n      dup2\n      0xff\n      mul\n      not\n      and\n      swap1\n      dup4\n      iszero\n      iszero\n      mul\n      or\n      swap1\n      sstore\n      pop\n      0x40\n      dup3\n      add\n      mload\n      dup2\n      0x02\n      add\n      sstore\n      swap1\n      pop\n      pop\n        /* \"contracts/struct.sol\":199:321  function setS(string memory _name, bool _isMale, uint _number) public {... */\n      pop\n      pop\n      pop\n      jump\t// out\n        /* \"contracts/struct.sol\":327:404  function getS() public view returns(Student memory) {... */\n    tag_10:\n        /* \"contracts/struct.sol\":363:377  Student memory */\n      tag_16\n      tag_17\n      jump\t// in\n    tag_16:\n        /* \"contracts/struct.sol\":396:397  s */\n      0x00\n        /* \"contracts/struct.sol\":389:397  return s */\n      mload(0x40)\n      dup1\n      0x60\n      add\n      0x40\n      mstore\n      swap1\n      dup2\n      0x00\n      dup3\n      add\n      dup1\n      sload\n      tag_19\n      swap1\n      tag_20\n      jump\t// in\n    tag_19:\n      dup1\n      0x1f\n      add\n      0x20\n      dup1\n      swap2\n      div\n      mul\n      0x20\n      add\n      mload(0x40)\n      swap1\n      dup2\n      add\n      0x40\n      mstore\n      dup1\n      swap3\n      swap2\n      swap1\n      dup2\n      dup2\n      mstore\n      0x20\n      add\n      dup3\n      dup1\n      sload\n      tag_21\n      swap1\n      tag_20\n      jump\t// in\n    tag_21:\n      dup1\n      iszero\n      tag_22\n      jumpi\n      dup1\n      0x1f\n      lt\n      tag_23\n      jumpi\n      0x0100\n      dup1\n      dup4\n      sload\n      div\n      mul\n      dup4\n      mstore\n      swap2\n      0x20\n      add\n      swap2\n      jump(tag_22)\n    tag_23:\n      dup3\n      add\n      swap2\n      swap1\n      0x00\n      mstore\n      keccak256(0x00, 0x20)\n      swap1\n    tag_24:\n      dup2\n      sload\n      dup2\n      mstore\n      swap1\n      0x01\n      add\n      swap1\n      0x20\n      add\n      dup1\n      dup4\n      gt\n      tag_24\n      jumpi\n      dup3\n      swap1\n      sub\n      0x1f\n      and\n      dup3\n      add\n      swap2\n    tag_22:\n      pop\n      pop\n      pop\n      pop\n      pop\n      dup2\n      mstore\n      0x20\n      add\n      0x01\n      dup3\n      add\n      0x00\n      swap1\n      sload\n      swap1\n      0x0100\n      exp\n      swap1\n      div\n      0xff\n      and\n      iszero\n      iszero\n      iszero\n      iszero\n      dup2\n      mstore\n      0x20\n      add\n      0x02\n      dup3\n      add\n      sload\n      dup2\n      mstore\n      pop\n      pop\n      swap1\n      pop\n        /* \"contracts/struct.sol\":327:404  function getS() public view returns(Student memory) {... */\n      swap1\n      jump\t// out\n    tag_17:\n      mload(0x40)\n      dup1\n      0x60\n      add\n      0x40\n      mstore\n      dup1\n      0x60\n      dup2\n      mstore\n      0x20\n      add\n      iszero(iszero(0x00))\n      dup2\n      mstore\n      0x20\n      add\n      0x00\n      dup2\n      mstore\n      pop\n      swap1\n      jump\t// out\n        /* \"#utility.yul\":7:82   */\n    tag_25:\n        /* \"#utility.yul\":40:46   */\n      0x00\n        /* \"#utility.yul\":73:75   */\n      0x40\n        /* \"#utility.yul\":67:76   */\n      mload\n        /* \"#utility.yul\":57:76   */\n      swap1\n      pop\n        /* \"#utility.yul\":7:82   */\n      swap1\n      jump\t// out\n        /* \"#utility.yul\":88:205   */\n    tag_26:\n        /* \"#utility.yul\":197:198   */\n      0x00\n        /* \"#utility.yul\":194:195   */\n      dup1\n        /* \"#utility.yul\":187:199   */\n      revert\n        /* \"#utility.yul\":211:328   */\n    tag_27:\n        /* \"#utility.yul\":320:321   */\n      0x00\n        /* \"#utility.yul\":317:318   */\n      dup1\n        /* \"#utility.yul\":310:322   */\n      revert\n        /* \"#utility.yul\":334:451   */\n    tag_28:\n        /* \"#utility.yul\":443:444   */\n      0x00\n        /* \"#utility.yul\":440:441   */\n      dup1\n        /* \"#utility.yul\":433:445   */\n      revert\n        /* \"#utility.yul\":457:574   */\n    tag_29:\n        /* \"#utility.yul\":566:567   */\n      0x00\n        /* \"#utility.yul\":563:564   */\n      dup1\n        /* \"#utility.yul\":556:568   */\n      revert\n        /* \"#utility.yul\":580:682   */\n    tag_30:\n        /* \"#utility.yul\":621:627   */\n      0x00\n        /* \"#utility.yul\":672:674   */\n      0x1f\n        /* \"#utility.yul\":668:675   */\n      not\n        /* \"#utility.yul\":663:665   */\n      0x1f\n        /* \"#utility.yul\":656:661   */\n      dup4\n        /* \"#utility.yul\":652:666   */\n      add\n        /* \"#utility.yul\":648:676   */\n      and\n        /* \"#utility.yul\":638:676   */\n      swap1\n      pop\n        /* \"#utility.yul\":580:682   */\n      swap2\n      swap1\n      pop\n      jump\t// out\n        /* \"#utility.yul\":688:868   */\n    tag_31:\n        /* \"#utility.yul\":736:813   */\n      0x4e487b7100000000000000000000000000000000000000000000000000000000\n        /* \"#utility.yul\":733:734   */\n      0x00\n        /* \"#utility.yul\":726:814   */\n      mstore\n        /* \"#utility.yul\":833:837   */\n      0x41\n        /* \"#utility.yul\":830:831   */\n      0x04\n        /* \"#utility.yul\":823:838   */\n      mstore\n        /* \"#utility.yul\":857:861   */\n      0x24\n        /* \"#utility.yul\":854:855   */\n      0x00\n        /* \"#utility.yul\":847:862   */\n      revert\n        /* \"#utility.yul\":874:1155   */\n    tag_32:\n        /* \"#utility.yul\":957:984   */\n      tag_76\n        /* \"#utility.yul\":979:983   */\n      dup3\n        /* \"#utility.yul\":957:984   */\n      tag_30\n      jump\t// in\n    tag_76:\n        /* \"#utility.yul\":949:955   */\n      dup2\n        /* \"#utility.yul\":945:985   */\n      add\n        /* \"#utility.yul\":1087:1093   */\n      dup2\n        /* \"#utility.yul\":1075:1085   */\n      dup2\n        /* \"#utility.yul\":1072:1094   */\n      lt\n        /* \"#utility.yul\":1051:1069   */\n      0xffffffffffffffff\n        /* \"#utility.yul\":1039:1049   */\n      dup3\n        /* \"#utility.yul\":1036:1070   */\n      gt\n        /* \"#utility.yul\":1033:1095   */\n      or\n        /* \"#utility.yul\":1030:1118   */\n      iszero\n      tag_77\n      jumpi\n        /* \"#utility.yul\":1098:1116   */\n      tag_78\n      tag_31\n      jump\t// in\n    tag_78:\n        /* \"#utility.yul\":1030:1118   */\n    tag_77:\n        /* \"#utility.yul\":1138:1148   */\n      dup1\n        /* \"#utility.yul\":1134:1136   */\n      0x40\n        /* \"#utility.yul\":1127:1149   */\n      mstore\n        /* \"#utility.yul\":917:1155   */\n      pop\n        /* \"#utility.yul\":874:1155   */\n      pop\n      pop\n      jump\t// out\n        /* \"#utility.yul\":1161:1290   */\n    tag_33:\n        /* \"#utility.yul\":1195:1201   */\n      0x00\n        /* \"#utility.yul\":1222:1242   */\n      tag_80\n      tag_25\n      jump\t// in\n    tag_80:\n        /* \"#utility.yul\":1212:1242   */\n      swap1\n      pop\n        /* \"#utility.yul\":1251:1284   */\n      tag_81\n        /* \"#utility.yul\":1279:1283   */\n      dup3\n        /* \"#utility.yul\":1271:1277   */\n      dup3\n        /* \"#utility.yul\":1251:1284   */\n      tag_32\n      jump\t// in\n    tag_81:\n        /* \"#utility.yul\":1161:1290   */\n      swap2\n      swap1\n      pop\n      jump\t// out\n        /* \"#utility.yul\":1296:1604   */\n    tag_34:\n        /* \"#utility.yul\":1358:1362   */\n      0x00\n        /* \"#utility.yul\":1448:1466   */\n      0xffffffffffffffff\n        /* \"#utility.yul\":1440:1446   */\n      dup3\n        /* \"#utility.yul\":1437:1467   */\n      gt\n        /* \"#utility.yul\":1434:1490   */\n      iszero\n      tag_83\n      jumpi\n        /* \"#utility.yul\":1470:1488   */\n      tag_84\n      tag_31\n      jump\t// in\n    tag_84:\n        /* \"#utility.yul\":1434:1490   */\n    tag_83:\n        /* \"#utility.yul\":1508:1537   */\n      tag_85\n        /* \"#utility.yul\":1530:1536   */\n      dup3\n        /* \"#utility.yul\":1508:1537   */\n      tag_30\n      jump\t// in\n    tag_85:\n        /* \"#utility.yul\":1500:1537   */\n      swap1\n      pop\n        /* \"#utility.yul\":1592:1596   */\n      0x20\n        /* \"#utility.yul\":1586:1590   */\n      dup2\n        /* \"#utility.yul\":1582:1597   */\n      add\n        /* \"#utility.yul\":1574:1597   */\n      swap1\n      pop\n        /* \"#utility.yul\":1296:1604   */\n      swap2\n      swap1\n      pop\n      jump\t// out\n        /* \"#utility.yul\":1610:1756   */\n    tag_35:\n        /* \"#utility.yul\":1707:1713   */\n      dup3\n        /* \"#utility.yul\":1702:1705   */\n      dup2\n        /* \"#utility.yul\":1697:1700   */\n      dup4\n        /* \"#utility.yul\":1684:1714   */\n      calldatacopy\n        /* \"#utility.yul\":1748:1749   */\n      0x00\n        /* \"#utility.yul\":1739:1745   */\n      dup4\n        /* \"#utility.yul\":1734:1737   */\n      dup4\n        /* \"#utility.yul\":1730:1746   */\n      add\n        /* \"#utility.yul\":1723:1750   */\n      mstore\n        /* \"#utility.yul\":1610:1756   */\n      pop\n      pop\n      pop\n      jump\t// out\n        /* \"#utility.yul\":1762:2187   */\n    tag_36:\n        /* \"#utility.yul\":1840:1845   */\n      0x00\n        /* \"#utility.yul\":1865:1931   */\n      tag_88\n        /* \"#utility.yul\":1881:1930   */\n      tag_89\n        /* \"#utility.yul\":1923:1929   */\n      dup5\n        /* \"#utility.yul\":1881:1930   */\n      tag_34\n      jump\t// in\n    tag_89:\n        /* \"#utility.yul\":1865:1931   */\n      tag_33\n      jump\t// in\n    tag_88:\n        /* \"#utility.yul\":1856:1931   */\n      swap1\n      pop\n        /* \"#utility.yul\":1954:1960   */\n      dup3\n        /* \"#utility.yul\":1947:1952   */\n      dup2\n        /* \"#utility.yul\":1940:1961   */\n      mstore\n        /* \"#utility.yul\":1992:1996   */\n      0x20\n        /* \"#utility.yul\":1985:1990   */\n      dup2\n        /* \"#utility.yul\":1981:1997   */\n      add\n        /* \"#utility.yul\":2030:2033   */\n      dup5\n        /* \"#utility.yul\":2021:2027   */\n      dup5\n        /* \"#utility.yul\":2016:2019   */\n      dup5\n        /* \"#utility.yul\":2012:2028   */\n      add\n        /* \"#utility.yul\":2009:2034   */\n      gt\n        /* \"#utility.yul\":2006:2118   */\n      iszero\n      tag_90\n      jumpi\n        /* \"#utility.yul\":2037:2116   */\n      tag_91\n      tag_29\n      jump\t// in\n    tag_91:\n        /* \"#utility.yul\":2006:2118   */\n    tag_90:\n        /* \"#utility.yul\":2127:2181   */\n      tag_92\n        /* \"#utility.yul\":2174:2180   */\n      dup5\n        /* \"#utility.yul\":2169:2172   */\n      dup3\n        /* \"#utility.yul\":2164:2167   */\n      dup6\n        /* \"#utility.yul\":2127:2181   */\n      tag_35\n      jump\t// in\n    tag_92:\n        /* \"#utility.yul\":1846:2187   */\n      pop\n        /* \"#utility.yul\":1762:2187   */\n      swap4\n      swap3\n      pop\n      pop\n      pop\n      jump\t// out\n        /* \"#utility.yul\":2207:2547   */\n    tag_37:\n        /* \"#utility.yul\":2263:2268   */\n      0x00\n        /* \"#utility.yul\":2312:2315   */\n      dup3\n        /* \"#utility.yul\":2305:2309   */\n      0x1f\n        /* \"#utility.yul\":2297:2303   */\n      dup4\n        /* \"#utility.yul\":2293:2310   */\n      add\n        /* \"#utility.yul\":2289:2316   */\n      slt\n        /* \"#utility.yul\":2279:2401   */\n      tag_94\n      jumpi\n        /* \"#utility.yul\":2320:2399   */\n      tag_95\n      tag_28\n      jump\t// in\n    tag_95:\n        /* \"#utility.yul\":2279:2401   */\n    tag_94:\n        /* \"#utility.yul\":2437:2443   */\n      dup2\n        /* \"#utility.yul\":2424:2444   */\n      calldataload\n        /* \"#utility.yul\":2462:2541   */\n      tag_96\n        /* \"#utility.yul\":2537:2540   */\n      dup5\n        /* \"#utility.yul\":2529:2535   */\n      dup3\n        /* \"#utility.yul\":2522:2526   */\n      0x20\n        /* \"#utility.yul\":2514:2520   */\n      dup7\n        /* \"#utility.yul\":2510:2527   */\n      add\n        /* \"#utility.yul\":2462:2541   */\n      tag_36\n      jump\t// in\n    tag_96:\n        /* \"#utility.yul\":2453:2541   */\n      swap2\n      pop\n        /* \"#utility.yul\":2269:2547   */\n      pop\n        /* \"#utility.yul\":2207:2547   */\n      swap3\n      swap2\n      pop\n      pop\n      jump\t// out\n        /* \"#utility.yul\":2553:2643   */\n    tag_38:\n        /* \"#utility.yul\":2587:2594   */\n      0x00\n        /* \"#utility.yul\":2630:2635   */\n      dup2\n        /* \"#utility.yul\":2623:2636   */\n      iszero\n        /* \"#utility.yul\":2616:2637   */\n      iszero\n        /* \"#utility.yul\":2605:2637   */\n      swap1\n      pop\n        /* \"#utility.yul\":2553:2643   */\n      swap2\n      swap1\n      pop\n      jump\t// out\n        /* \"#utility.yul\":2649:2765   */\n    tag_39:\n        /* \"#utility.yul\":2719:2740   */\n      tag_99\n        /* \"#utility.yul\":2734:2739   */\n      dup2\n        /* \"#utility.yul\":2719:2740   */\n      tag_38\n      jump\t// in\n    tag_99:\n        /* \"#utility.yul\":2712:2717   */\n      dup2\n        /* \"#utility.yul\":2709:2741   */\n      eq\n        /* \"#utility.yul\":2699:2759   */\n      tag_100\n      jumpi\n        /* \"#utility.yul\":2755:2756   */\n      0x00\n        /* \"#utility.yul\":2752:2753   */\n      dup1\n        /* \"#utility.yul\":2745:2757   */\n      revert\n        /* \"#utility.yul\":2699:2759   */\n    tag_100:\n        /* \"#utility.yul\":2649:2765   */\n      pop\n      jump\t// out\n        /* \"#utility.yul\":2771:2904   */\n    tag_40:\n        /* \"#utility.yul\":2814:2819   */\n      0x00\n        /* \"#utility.yul\":2852:2858   */\n      dup2\n        /* \"#utility.yul\":2839:2859   */\n      calldataload\n        /* \"#utility.yul\":2830:2859   */\n      swap1\n      pop\n        /* \"#utility.yul\":2868:2898   */\n      tag_102\n        /* \"#utility.yul\":2892:2897   */\n      dup2\n        /* \"#utility.yul\":2868:2898   */\n      tag_39\n      jump\t// in\n    tag_102:\n        /* \"#utility.yul\":2771:2904   */\n      swap3\n      swap2\n      pop\n      pop\n      jump\t// out\n        /* \"#utility.yul\":2910:2987   */\n    tag_41:\n        /* \"#utility.yul\":2947:2954   */\n      0x00\n        /* \"#utility.yul\":2976:2981   */\n      dup2\n        /* \"#utility.yul\":2965:2981   */\n      swap1\n      pop\n        /* \"#utility.yul\":2910:2987   */\n      swap2\n      swap1\n      pop\n      jump\t// out\n        /* \"#utility.yul\":2993:3115   */\n    tag_42:\n        /* \"#utility.yul\":3066:3090   */\n      tag_105\n        /* \"#utility.yul\":3084:3089   */\n      dup2\n        /* \"#utility.yul\":3066:3090   */\n      tag_41\n      jump\t// in\n    tag_105:\n        /* \"#utility.yul\":3059:3064   */\n      dup2\n        /* \"#utility.yul\":3056:3091   */\n      eq\n        /* \"#utility.yul\":3046:3109   */\n      tag_106\n      jumpi\n        /* \"#utility.yul\":3105:3106   */\n      0x00\n        /* \"#utility.yul\":3102:3103   */\n      dup1\n        /* \"#utility.yul\":3095:3107   */\n      revert\n        /* \"#utility.yul\":3046:3109   */\n    tag_106:\n        /* \"#utility.yul\":2993:3115   */\n      pop\n      jump\t// out\n        /* \"#utility.yul\":3121:3260   */\n    tag_43:\n        /* \"#utility.yul\":3167:3172   */\n      0x00\n        /* \"#utility.yul\":3205:3211   */\n      dup2\n        /* \"#utility.yul\":3192:3212   */\n      calldataload\n        /* \"#utility.yul\":3183:3212   */\n      swap1\n      pop\n        /* \"#utility.yul\":3221:3254   */\n      tag_108\n        /* \"#utility.yul\":3248:3253   */\n      dup2\n        /* \"#utility.yul\":3221:3254   */\n      tag_42\n      jump\t// in\n    tag_108:\n        /* \"#utility.yul\":3121:3260   */\n      swap3\n      swap2\n      pop\n      pop\n      jump\t// out\n        /* \"#utility.yul\":3266:4059   */\n    tag_7:\n        /* \"#utility.yul\":3350:3356   */\n      0x00\n        /* \"#utility.yul\":3358:3364   */\n      dup1\n        /* \"#utility.yul\":3366:3372   */\n      0x00\n        /* \"#utility.yul\":3415:3417   */\n      0x60\n        /* \"#utility.yul\":3403:3412   */\n      dup5\n        /* \"#utility.yul\":3394:3401   */\n      dup7\n        /* \"#utility.yul\":3390:3413   */\n      sub\n        /* \"#utility.yul\":3386:3418   */\n      slt\n        /* \"#utility.yul\":3383:3502   */\n      iszero\n      tag_110\n      jumpi\n        /* \"#utility.yul\":3421:3500   */\n      tag_111\n      tag_26\n      jump\t// in\n    tag_111:\n        /* \"#utility.yul\":3383:3502   */\n    tag_110:\n        /* \"#utility.yul\":3569:3570   */\n      0x00\n        /* \"#utility.yul\":3558:3567   */\n      dup5\n        /* \"#utility.yul\":3554:3571   */\n      add\n        /* \"#utility.yul\":3541:3572   */\n      calldataload\n        /* \"#utility.yul\":3599:3617   */\n      0xffffffffffffffff\n        /* \"#utility.yul\":3591:3597   */\n      dup2\n        /* \"#utility.yul\":3588:3618   */\n      gt\n        /* \"#utility.yul\":3585:3702   */\n      iszero\n      tag_112\n      jumpi\n        /* \"#utility.yul\":3621:3700   */\n      tag_113\n      tag_27\n      jump\t// in\n    tag_113:\n        /* \"#utility.yul\":3585:3702   */\n    tag_112:\n        /* \"#utility.yul\":3726:3789   */\n      tag_114\n        /* \"#utility.yul\":3781:3788   */\n      dup7\n        /* \"#utility.yul\":3772:3778   */\n      dup3\n        /* \"#utility.yul\":3761:3770   */\n      dup8\n        /* \"#utility.yul\":3757:3779   */\n      add\n        /* \"#utility.yul\":3726:3789   */\n      tag_37\n      jump\t// in\n    tag_114:\n        /* \"#utility.yul\":3716:3789   */\n      swap4\n      pop\n        /* \"#utility.yul\":3512:3799   */\n      pop\n        /* \"#utility.yul\":3838:3840   */\n      0x20\n        /* \"#utility.yul\":3864:3914   */\n      tag_115\n        /* \"#utility.yul\":3906:3913   */\n      dup7\n        /* \"#utility.yul\":3897:3903   */\n      dup3\n        /* \"#utility.yul\":3886:3895   */\n      dup8\n        /* \"#utility.yul\":3882:3904   */\n      add\n        /* \"#utility.yul\":3864:3914   */\n      tag_40\n      jump\t// in\n    tag_115:\n        /* \"#utility.yul\":3854:3914   */\n      swap3\n      pop\n        /* \"#utility.yul\":3809:3924   */\n      pop\n        /* \"#utility.yul\":3963:3965   */\n      0x40\n        /* \"#utility.yul\":3989:4042   */\n      tag_116\n        /* \"#utility.yul\":4034:4041   */\n      dup7\n        /* \"#utility.yul\":4025:4031   */\n      dup3\n        /* \"#utility.yul\":4014:4023   */\n      dup8\n        /* \"#utility.yul\":4010:4032   */\n      add\n        /* \"#utility.yul\":3989:4042   */\n      tag_43\n      jump\t// in\n    tag_116:\n        /* \"#utility.yul\":3979:4042   */\n      swap2\n      pop\n        /* \"#utility.yul\":3934:4052   */\n      pop\n        /* \"#utility.yul\":3266:4059   */\n      swap3\n      pop\n      swap3\n      pop\n      swap3\n      jump\t// out\n        /* \"#utility.yul\":4065:4164   */\n    tag_44:\n        /* \"#utility.yul\":4117:4123   */\n      0x00\n        /* \"#utility.yul\":4151:4156   */\n      dup2\n        /* \"#utility.yul\":4145:4157   */\n      mload\n        /* \"#utility.yul\":4135:4157   */\n      swap1\n      pop\n        /* \"#utility.yul\":4065:4164   */\n      swap2\n      swap1\n      pop\n      jump\t// out\n        /* \"#utility.yul\":4170:4329   */\n    tag_45:\n        /* \"#utility.yul\":4244:4255   */\n      0x00\n        /* \"#utility.yul\":4278:4284   */\n      dup3\n        /* \"#utility.yul\":4273:4276   */\n      dup3\n        /* \"#utility.yul\":4266:4285   */\n      mstore\n        /* \"#utility.yul\":4318:4322   */\n      0x20\n        /* \"#utility.yul\":4313:4316   */\n      dup3\n        /* \"#utility.yul\":4309:4323   */\n      add\n        /* \"#utility.yul\":4294:4323   */\n      swap1\n      pop\n        /* \"#utility.yul\":4170:4329   */\n      swap3\n      swap2\n      pop\n      pop\n      jump\t// out\n        /* \"#utility.yul\":4335:4581   */\n    tag_46:\n        /* \"#utility.yul\":4416:4417   */\n      0x00\n        /* \"#utility.yul\":4426:4539   */\n    tag_120:\n        /* \"#utility.yul\":4440:4446   */\n      dup4\n        /* \"#utility.yul\":4437:4438   */\n      dup2\n        /* \"#utility.yul\":4434:4447   */\n      lt\n        /* \"#utility.yul\":4426:4539   */\n      iszero\n      tag_122\n      jumpi\n        /* \"#utility.yul\":4525:4526   */\n      dup1\n        /* \"#utility.yul\":4520:4523   */\n      dup3\n        /* \"#utility.yul\":4516:4527   */\n      add\n        /* \"#utility.yul\":4510:4528   */\n      mload\n        /* \"#utility.yul\":4506:4507   */\n      dup2\n        /* \"#utility.yul\":4501:4504   */\n      dup5\n        /* \"#utility.yul\":4497:4508   */\n      add\n        /* \"#utility.yul\":4490:4529   */\n      mstore\n        /* \"#utility.yul\":4462:4464   */\n      0x20\n        /* \"#utility.yul\":4459:4460   */\n      dup2\n        /* \"#utility.yul\":4455:4465   */\n      add\n        /* \"#utility.yul\":4450:4465   */\n      swap1\n      pop\n        /* \"#utility.yul\":4426:4539   */\n      jump(tag_120)\n    tag_122:\n        /* \"#utility.yul\":4573:4574   */\n      0x00\n        /* \"#utility.yul\":4564:4570   */\n      dup5\n        /* \"#utility.yul\":4559:4562   */\n      dup5\n        /* \"#utility.yul\":4555:4571   */\n      add\n        /* \"#utility.yul\":4548:4575   */\n      mstore\n        /* \"#utility.yul\":4397:4581   */\n      pop\n        /* \"#utility.yul\":4335:4581   */\n      pop\n      pop\n      pop\n      jump\t// out\n        /* \"#utility.yul\":4587:4944   */\n    tag_47:\n        /* \"#utility.yul\":4665:4668   */\n      0x00\n        /* \"#utility.yul\":4693:4732   */\n      tag_124\n        /* \"#utility.yul\":4726:4731   */\n      dup3\n        /* \"#utility.yul\":4693:4732   */\n      tag_44\n      jump\t// in\n    tag_124:\n        /* \"#utility.yul\":4748:4809   */\n      tag_125\n        /* \"#utility.yul\":4802:4808   */\n      dup2\n        /* \"#utility.yul\":4797:4800   */\n      dup6\n        /* \"#utility.yul\":4748:4809   */\n      tag_45\n      jump\t// in\n    tag_125:\n        /* \"#utility.yul\":4741:4809   */\n      swap4\n      pop\n        /* \"#utility.yul\":4818:4883   */\n      tag_126\n        /* \"#utility.yul\":4876:4882   */\n      dup2\n        /* \"#utility.yul\":4871:4874   */\n      dup6\n        /* \"#utility.yul\":4864:4868   */\n      0x20\n        /* \"#utility.yul\":4857:4862   */\n      dup7\n        /* \"#utility.yul\":4853:4869   */\n      add\n        /* \"#utility.yul\":4818:4883   */\n      tag_46\n      jump\t// in\n    tag_126:\n        /* \"#utility.yul\":4908:4937   */\n      tag_127\n        /* \"#utility.yul\":4930:4936   */\n      dup2\n        /* \"#utility.yul\":4908:4937   */\n      tag_30\n      jump\t// in\n    tag_127:\n        /* \"#utility.yul\":4903:4906   */\n      dup5\n        /* \"#utility.yul\":4899:4938   */\n      add\n        /* \"#utility.yul\":4892:4938   */\n      swap2\n      pop\n        /* \"#utility.yul\":4669:4944   */\n      pop\n        /* \"#utility.yul\":4587:4944   */\n      swap3\n      swap2\n      pop\n      pop\n      jump\t// out\n        /* \"#utility.yul\":4950:5049   */\n    tag_48:\n        /* \"#utility.yul\":5021:5042   */\n      tag_129\n        /* \"#utility.yul\":5036:5041   */\n      dup2\n        /* \"#utility.yul\":5021:5042   */\n      tag_38\n      jump\t// in\n    tag_129:\n        /* \"#utility.yul\":5016:5019   */\n      dup3\n        /* \"#utility.yul\":5009:5043   */\n      mstore\n        /* \"#utility.yul\":4950:5049   */\n      pop\n      pop\n      jump\t// out\n        /* \"#utility.yul\":5055:5163   */\n    tag_49:\n        /* \"#utility.yul\":5132:5156   */\n      tag_131\n        /* \"#utility.yul\":5150:5155   */\n      dup2\n        /* \"#utility.yul\":5132:5156   */\n      tag_41\n      jump\t// in\n    tag_131:\n        /* \"#utility.yul\":5127:5130   */\n      dup3\n        /* \"#utility.yul\":5120:5157   */\n      mstore\n        /* \"#utility.yul\":5055:5163   */\n      pop\n      pop\n      jump\t// out\n        /* \"#utility.yul\":5223:5995   */\n    tag_50:\n        /* \"#utility.yul\":5336:5339   */\n      0x00\n        /* \"#utility.yul\":5372:5376   */\n      0x60\n        /* \"#utility.yul\":5367:5370   */\n      dup4\n        /* \"#utility.yul\":5363:5377   */\n      add\n        /* \"#utility.yul\":5459:5463   */\n      0x00\n        /* \"#utility.yul\":5452:5457   */\n      dup4\n        /* \"#utility.yul\":5448:5464   */\n      add\n        /* \"#utility.yul\":5442:5465   */\n      mload\n        /* \"#utility.yul\":5512:5515   */\n      dup5\n        /* \"#utility.yul\":5506:5510   */\n      dup3\n        /* \"#utility.yul\":5502:5516   */\n      sub\n        /* \"#utility.yul\":5495:5499   */\n      0x00\n        /* \"#utility.yul\":5490:5493   */\n      dup7\n        /* \"#utility.yul\":5486:5500   */\n      add\n        /* \"#utility.yul\":5479:5517   */\n      mstore\n        /* \"#utility.yul\":5538:5611   */\n      tag_133\n        /* \"#utility.yul\":5606:5610   */\n      dup3\n        /* \"#utility.yul\":5592:5604   */\n      dup3\n        /* \"#utility.yul\":5538:5611   */\n      tag_47\n      jump\t// in\n    tag_133:\n        /* \"#utility.yul\":5530:5611   */\n      swap2\n      pop\n        /* \"#utility.yul\":5387:5622   */\n      pop\n        /* \"#utility.yul\":5706:5710   */\n      0x20\n        /* \"#utility.yul\":5699:5704   */\n      dup4\n        /* \"#utility.yul\":5695:5711   */\n      add\n        /* \"#utility.yul\":5689:5712   */\n      mload\n        /* \"#utility.yul\":5725:5782   */\n      tag_134\n        /* \"#utility.yul\":5776:5780   */\n      0x20\n        /* \"#utility.yul\":5771:5774   */\n      dup7\n        /* \"#utility.yul\":5767:5781   */\n      add\n        /* \"#utility.yul\":5753:5765   */\n      dup3\n        /* \"#utility.yul\":5725:5782   */\n      tag_48\n      jump\t// in\n    tag_134:\n        /* \"#utility.yul\":5632:5792   */\n      pop\n        /* \"#utility.yul\":5876:5880   */\n      0x40\n        /* \"#utility.yul\":5869:5874   */\n      dup4\n        /* \"#utility.yul\":5865:5881   */\n      add\n        /* \"#utility.yul\":5859:5882   */\n      mload\n        /* \"#utility.yul\":5895:5958   */\n      tag_135\n        /* \"#utility.yul\":5952:5956   */\n      0x40\n        /* \"#utility.yul\":5947:5950   */\n      dup7\n        /* \"#utility.yul\":5943:5957   */\n      add\n        /* \"#utility.yul\":5929:5941   */\n      dup3\n        /* \"#utility.yul\":5895:5958   */\n      tag_49\n      jump\t// in\n    tag_135:\n        /* \"#utility.yul\":5802:5968   */\n      pop\n        /* \"#utility.yul\":5985:5989   */\n      dup1\n        /* \"#utility.yul\":5978:5989   */\n      swap2\n      pop\n        /* \"#utility.yul\":5341:5995   */\n      pop\n        /* \"#utility.yul\":5223:5995   */\n      swap3\n      swap2\n      pop\n      pop\n      jump\t// out\n        /* \"#utility.yul\":6001:6362   */\n    tag_12:\n        /* \"#utility.yul\":6138:6142   */\n      0x00\n        /* \"#utility.yul\":6176:6178   */\n      0x20\n        /* \"#utility.yul\":6165:6174   */\n      dup3\n        /* \"#utility.yul\":6161:6179   */\n      add\n        /* \"#utility.yul\":6153:6179   */\n      swap1\n      pop\n        /* \"#utility.yul\":6225:6234   */\n      dup2\n        /* \"#utility.yul\":6219:6223   */\n      dup2\n        /* \"#utility.yul\":6215:6235   */\n      sub\n        /* \"#utility.yul\":6211:6212   */\n      0x00\n        /* \"#utility.yul\":6200:6209   */\n      dup4\n        /* \"#utility.yul\":6196:6213   */\n      add\n        /* \"#utility.yul\":6189:6236   */\n      mstore\n        /* \"#utility.yul\":6253:6355   */\n      tag_137\n        /* \"#utility.yul\":6350:6354   */\n      dup2\n        /* \"#utility.yul\":6341:6347   */\n      dup5\n        /* \"#utility.yul\":6253:6355   */\n      tag_50\n      jump\t// in\n    tag_137:\n        /* \"#utility.yul\":6245:6355   */\n      swap1\n      pop\n        /* \"#utility.yul\":6001:6362   */\n      swap3\n      swap2\n      pop\n      pop\n      jump\t// out\n        /* \"#utility.yul\":6368:6548   */\n    tag_51:\n        /* \"#utility.yul\":6416:6493   */\n      0x4e487b7100000000000000000000000000000000000000000000000000000000\n        /* \"#utility.yul\":6413:6414   */\n      0x00\n        /* \"#utility.yul\":6406:6494   */\n      mstore\n        /* \"#utility.yul\":6513:6517   */\n      0x22\n        /* \"#utility.yul\":6510:6511   */\n      0x04\n        /* \"#utility.yul\":6503:6518   */\n      mstore\n        /* \"#utility.yul\":6537:6541   */\n      0x24\n        /* \"#utility.yul\":6534:6535   */\n      0x00\n        /* \"#utility.yul\":6527:6542   */\n      revert\n        /* \"#utility.yul\":6554:6874   */\n    tag_20:\n        /* \"#utility.yul\":6598:6604   */\n      0x00\n        /* \"#utility.yul\":6635:6636   */\n      0x02\n        /* \"#utility.yul\":6629:6633   */\n      dup3\n        /* \"#utility.yul\":6625:6637   */\n      div\n        /* \"#utility.yul\":6615:6637   */\n      swap1\n      pop\n        /* \"#utility.yul\":6682:6683   */\n      0x01\n        /* \"#utility.yul\":6676:6680   */\n      dup3\n        /* \"#utility.yul\":6672:6684   */\n      and\n        /* \"#utility.yul\":6703:6721   */\n      dup1\n        /* \"#utility.yul\":6693:6774   */\n      tag_140\n      jumpi\n        /* \"#utility.yul\":6759:6763   */\n      0x7f\n        /* \"#utility.yul\":6751:6757   */\n      dup3\n        /* \"#utility.yul\":6747:6764   */\n      and\n        /* \"#utility.yul\":6737:6764   */\n      swap2\n      pop\n        /* \"#utility.yul\":6693:6774   */\n    tag_140:\n        /* \"#utility.yul\":6821:6823   */\n      0x20\n        /* \"#utility.yul\":6813:6819   */\n      dup3\n        /* \"#utility.yul\":6810:6824   */\n      lt\n        /* \"#utility.yul\":6790:6808   */\n      dup2\n        /* \"#utility.yul\":6787:6825   */\n      sub\n        /* \"#utility.yul\":6784:6868   */\n      tag_141\n      jumpi\n        /* \"#utility.yul\":6840:6858   */\n      tag_142\n      tag_51\n      jump\t// in\n    tag_142:\n        /* \"#utility.yul\":6784:6868   */\n    tag_141:\n        /* \"#utility.yul\":6605:6874   */\n      pop\n        /* \"#utility.yul\":6554:6874   */\n      swap2\n      swap1\n      pop\n      jump\t// out\n        /* \"#utility.yul\":6880:7021   */\n    tag_52:\n        /* \"#utility.yul\":6929:6933   */\n      0x00\n        /* \"#utility.yul\":6952:6955   */\n      dup2\n        /* \"#utility.yul\":6944:6955   */\n      swap1\n      pop\n        /* \"#utility.yul\":6975:6978   */\n      dup2\n        /* \"#utility.yul\":6972:6973   */\n      0x00\n        /* \"#utility.yul\":6965:6979   */\n      mstore\n        /* \"#utility.yul\":7009:7013   */\n      0x20\n        /* \"#utility.yul\":7006:7007   */\n      0x00\n        /* \"#utility.yul\":6996:7014   */\n      keccak256\n        /* \"#utility.yul\":6988:7014   */\n      swap1\n      pop\n        /* \"#utility.yul\":6880:7021   */\n      swap2\n      swap1\n      pop\n      jump\t// out\n        /* \"#utility.yul\":7027:7120   */\n    tag_53:\n        /* \"#utility.yul\":7064:7070   */\n      0x00\n        /* \"#utility.yul\":7111:7113   */\n      0x20\n        /* \"#utility.yul\":7106:7108   */\n      0x1f\n        /* \"#utility.yul\":7099:7104   */\n      dup4\n        /* \"#utility.yul\":7095:7109   */\n      add\n        /* \"#utility.yul\":7091:7114   */\n      div\n        /* \"#utility.yul\":7081:7114   */\n      swap1\n      pop\n        /* \"#utility.yul\":7027:7120   */\n      swap2\n      swap1\n      pop\n      jump\t// out\n        /* \"#utility.yul\":7126:7233   */\n    tag_54:\n        /* \"#utility.yul\":7170:7178   */\n      0x00\n        /* \"#utility.yul\":7220:7225   */\n      dup3\n        /* \"#utility.yul\":7214:7218   */\n      dup3\n        /* \"#utility.yul\":7210:7226   */\n      shl\n        /* \"#utility.yul\":7189:7226   */\n      swap1\n      pop\n        /* \"#utility.yul\":7126:7233   */\n      swap3\n      swap2\n      pop\n      pop\n      jump\t// out\n        /* \"#utility.yul\":7239:7632   */\n    tag_55:\n        /* \"#utility.yul\":7308:7314   */\n      0x00\n        /* \"#utility.yul\":7358:7359   */\n      0x08\n        /* \"#utility.yul\":7346:7356   */\n      dup4\n        /* \"#utility.yul\":7342:7360   */\n      mul\n        /* \"#utility.yul\":7381:7478   */\n      tag_147\n        /* \"#utility.yul\":7411:7477   */\n      0xffffffffffffffffffffffffffffffffffffffffffffffffffffffffffffffff\n        /* \"#utility.yul\":7400:7409   */\n      dup3\n        /* \"#utility.yul\":7381:7478   */\n      tag_54\n      jump\t// in\n    tag_147:\n        /* \"#utility.yul\":7499:7538   */\n      tag_148\n        /* \"#utility.yul\":7529:7537   */\n      dup7\n        /* \"#utility.yul\":7518:7527   */\n      dup4\n        /* \"#utility.yul\":7499:7538   */\n      tag_54\n      jump\t// in\n    tag_148:\n        /* \"#utility.yul\":7487:7538   */\n      swap6\n      pop\n        /* \"#utility.yul\":7571:7575   */\n      dup1\n        /* \"#utility.yul\":7567:7576   */\n      not\n        /* \"#utility.yul\":7560:7565   */\n      dup5\n        /* \"#utility.yul\":7556:7577   */\n      and\n        /* \"#utility.yul\":7547:7577   */\n      swap4\n      pop\n        /* \"#utility.yul\":7620:7624   */\n      dup1\n        /* \"#utility.yul\":7610:7618   */\n      dup7\n        /* \"#utility.yul\":7606:7625   */\n      and\n        /* \"#utility.yul\":7599:7604   */\n      dup5\n        /* \"#utility.yul\":7596:7626   */\n      or\n        /* \"#utility.yul\":7586:7626   */\n      swap3\n      pop\n        /* \"#utility.yul\":7315:7632   */\n      pop\n      pop\n        /* \"#utility.yul\":7239:7632   */\n      swap4\n      swap3\n      pop\n      pop\n      pop\n      jump\t// out\n        /* \"#utility.yul\":7638:7698   */\n    tag_56:\n        /* \"#utility.yul\":7666:7669   */\n      0x00\n        /* \"#utility.yul\":7687:7692   */\n      dup2\n        /* \"#utility.yul\":7680:7692   */\n      swap1\n      pop\n        /* \"#utility.yul\":7638:7698   */\n      swap2\n      swap1\n      pop\n      jump\t// out\n        /* \"#utility.yul\":7704:7846   */\n    tag_57:\n        /* \"#utility.yul\":7754:7763   */\n      0x00\n        /* \"#utility.yul\":7787:7840   */\n      tag_151\n        /* \"#utility.yul\":7805:7839   */\n      tag_152\n        /* \"#utility.yul\":7814:7838   */\n      tag_153\n        /* \"#utility.yul\":7832:7837   */\n      dup5\n        /* \"#utility.yul\":7814:7838   */\n      tag_41\n      jump\t// in\n    tag_153:\n        /* \"#utility.yul\":7805:7839   */\n      tag_56\n      jump\t// in\n    tag_152:\n        /* \"#utility.yul\":7787:7840   */\n      tag_41\n      jump\t// in\n    tag_151:\n        /* \"#utility.yul\":7774:7840   */\n      swap1\n      pop\n        /* \"#utility.yul\":7704:7846   */\n      swap2\n      swap1\n      pop\n      jump\t// out\n        /* \"#utility.yul\":7852:7927   */\n    tag_58:\n        /* \"#utility.yul\":7895:7898   */\n      0x00\n        /* \"#utility.yul\":7916:7921   */\n      dup2\n        /* \"#utility.yul\":7909:7921   */\n      swap1\n      pop\n        /* \"#utility.yul\":7852:7927   */\n      swap2\n      swap1\n      pop\n      jump\t// out\n        /* \"#utility.yul\":7933:8202   */\n    tag_59:\n        /* \"#utility.yul\":8043:8082   */\n      tag_156\n        /* \"#utility.yul\":8074:8081   */\n      dup4\n        /* \"#utility.yul\":8043:8082   */\n      tag_57\n      jump\t// in\n    tag_156:\n        /* \"#utility.yul\":8104:8195   */\n      tag_157\n        /* \"#utility.yul\":8153:8194   */\n      tag_158\n        /* \"#utility.yul\":8177:8193   */\n      dup3\n        /* \"#utility.yul\":8153:8194   */\n      tag_58\n      jump\t// in\n    tag_158:\n        /* \"#utility.yul\":8145:8151   */\n      dup5\n        /* \"#utility.yul\":8138:8142   */\n      dup5\n        /* \"#utility.yul\":8132:8143   */\n      sload\n        /* \"#utility.yul\":8104:8195   */\n      tag_55\n      jump\t// in\n    tag_157:\n        /* \"#utility.yul\":8098:8102   */\n      dup3\n        /* \"#utility.yul\":8091:8196   */\n      sstore\n        /* \"#utility.yul\":8009:8202   */\n      pop\n        /* \"#utility.yul\":7933:8202   */\n      pop\n      pop\n      pop\n      jump\t// out\n        /* \"#utility.yul\":8208:8281   */\n    tag_60:\n        /* \"#utility.yul\":8253:8256   */\n      0x00\n        /* \"#utility.yul\":8208:8281   */\n      swap1\n      jump\t// out\n        /* \"#utility.yul\":8287:8476   */\n    tag_61:\n        /* \"#utility.yul\":8364:8396   */\n      tag_161\n      tag_60\n      jump\t// in\n    tag_161:\n        /* \"#utility.yul\":8405:8470   */\n      tag_162\n        /* \"#utility.yul\":8463:8469   */\n      dup2\n        /* \"#utility.yul\":8455:8461   */\n      dup5\n        /* \"#utility.yul\":8449:8453   */\n      dup5\n        /* \"#utility.yul\":8405:8470   */\n      tag_59\n      jump\t// in\n    tag_162:\n        /* \"#utility.yul\":8340:8476   */\n      pop\n        /* \"#utility.yul\":8287:8476   */\n      pop\n      pop\n      jump\t// out\n        /* \"#utility.yul\":8482:8668   */\n    tag_62:\n        /* \"#utility.yul\":8542:8662   */\n    tag_164:\n        /* \"#utility.yul\":8559:8562   */\n      dup2\n        /* \"#utility.yul\":8552:8557   */\n      dup2\n        /* \"#utility.yul\":8549:8563   */\n      lt\n        /* \"#utility.yul\":8542:8662   */\n      iszero\n      tag_166\n      jumpi\n        /* \"#utility.yul\":8613:8652   */\n      tag_167\n        /* \"#utility.yul\":8650:8651   */\n      0x00\n        /* \"#utility.yul\":8643:8648   */\n      dup3\n        /* \"#utility.yul\":8613:8652   */\n      tag_61\n      jump\t// in\n    tag_167:\n        /* \"#utility.yul\":8586:8587   */\n      0x01\n        /* \"#utility.yul\":8579:8584   */\n      dup2\n        /* \"#utility.yul\":8575:8588   */\n      add\n        /* \"#utility.yul\":8566:8588   */\n      swap1\n      pop\n        /* \"#utility.yul\":8542:8662   */\n      jump(tag_164)\n    tag_166:\n        /* \"#utility.yul\":8482:8668   */\n      pop\n      pop\n      jump\t// out\n        /* \"#utility.yul\":8674:9217   */\n    tag_63:\n        /* \"#utility.yul\":8775:8777   */\n      0x1f\n        /* \"#utility.yul\":8770:8773   */\n      dup3\n        /* \"#utility.yul\":8767:8778   */\n      gt\n        /* \"#utility.yul\":8764:9210   */\n      iszero\n      tag_169\n      jumpi\n        /* \"#utility.yul\":8809:8847   */\n      tag_170\n        /* \"#utility.yul\":8841:8846   */\n      dup2\n        /* \"#utility.yul\":8809:8847   */\n      tag_52\n      jump\t// in\n    tag_170:\n        /* \"#utility.yul\":8893:8922   */\n      tag_171\n        /* \"#utility.yul\":8911:8921   */\n      dup5\n        /* \"#utility.yul\":8893:8922   */\n      tag_53\n      jump\t// in\n    tag_171:\n        /* \"#utility.yul\":8883:8891   */\n      dup2\n        /* \"#utility.yul\":8879:8923   */\n      add\n        /* \"#utility.yul\":9076:9078   */\n      0x20\n        /* \"#utility.yul\":9064:9074   */\n      dup6\n        /* \"#utility.yul\":9061:9079   */\n      lt\n        /* \"#utility.yul\":9058:9107   */\n      iszero\n      tag_172\n      jumpi\n        /* \"#utility.yul\":9097:9105   */\n      dup2\n        /* \"#utility.yul\":9082:9105   */\n      swap1\n      pop\n        /* \"#utility.yul\":9058:9107   */\n    tag_172:\n        /* \"#utility.yul\":9120:9200   */\n      tag_173\n        /* \"#utility.yul\":9176:9198   */\n      tag_174\n        /* \"#utility.yul\":9194:9197   */\n      dup6\n        /* \"#utility.yul\":9176:9198   */\n      tag_53\n      jump\t// in\n    tag_174:\n        /* \"#utility.yul\":9166:9174   */\n      dup4\n        /* \"#utility.yul\":9162:9199   */\n      add\n        /* \"#utility.yul\":9149:9160   */\n      dup3\n        /* \"#utility.yul\":9120:9200   */\n      tag_62\n      jump\t// in\n    tag_173:\n        /* \"#utility.yul\":8779:9210   */\n      pop\n      pop\n        /* \"#utility.yul\":8764:9210   */\n    tag_169:\n        /* \"#utility.yul\":8674:9217   */\n      pop\n      pop\n      pop\n      jump\t// out\n        /* \"#utility.yul\":9223:9340   */\n    tag_64:\n        /* \"#utility.yul\":9277:9285   */\n      0x00\n        /* \"#utility.yul\":9327:9332   */\n      dup3\n        /* \"#utility.yul\":9321:9325   */\n      dup3\n        /* \"#utility.yul\":9317:9333   */\n      shr\n        /* \"#utility.yul\":9296:9333   */\n      swap1\n      pop\n        /* \"#utility.yul\":9223:9340   */\n      swap3\n      swap2\n      pop\n      pop\n      jump\t// out\n        /* \"#utility.yul\":9346:9515   */\n    tag_65:\n        /* \"#utility.yul\":9390:9396   */\n      0x00\n        /* \"#utility.yul\":9423:9474   */\n      tag_177\n        /* \"#utility.yul\":9471:9472   */\n      0x00\n        /* \"#utility.yul\":9467:9473   */\n      not\n        /* \"#utility.yul\":9459:9464   */\n      dup5\n        /* \"#utility.yul\":9456:9457   */\n      0x08\n        /* \"#utility.yul\":9452:9465   */\n      mul\n        /* \"#utility.yul\":9423:9474   */\n      tag_64\n      jump\t// in\n    tag_177:\n        /* \"#utility.yul\":9419:9475   */\n      not\n        /* \"#utility.yul\":9504:9508   */\n      dup1\n        /* \"#utility.yul\":9498:9502   */\n      dup4\n        /* \"#utility.yul\":9494:9509   */\n      and\n        /* \"#utility.yul\":9484:9509   */\n      swap2\n      pop\n        /* \"#utility.yul\":9397:9515   */\n      pop\n        /* \"#utility.yul\":9346:9515   */\n      swap3\n      swap2\n      pop\n      pop\n      jump\t// out\n        /* \"#utility.yul\":9520:9815   */\n    tag_66:\n        /* \"#utility.yul\":9596:9600   */\n      0x00\n        /* \"#utility.yul\":9742:9771   */\n      tag_179\n        /* \"#utility.yul\":9767:9770   */\n      dup4\n        /* \"#utility.yul\":9761:9765   */\n      dup4\n        /* \"#utility.yul\":9742:9771   */\n      tag_65\n      jump\t// in\n    tag_179:\n        /* \"#utility.yul\":9734:9771   */\n      swap2\n      pop\n        /* \"#utility.yul\":9804:9807   */\n      dup3\n        /* \"#utility.yul\":9801:9802   */\n      0x02\n        /* \"#utility.yul\":9797:9808   */\n      mul\n        /* \"#utility.yul\":9791:9795   */\n      dup3\n        /* \"#utility.yul\":9788:9809   */\n      or\n        /* \"#utility.yul\":9780:9809   */\n      swap1\n      pop\n        /* \"#utility.yul\":9520:9815   */\n      swap3\n      swap2\n      pop\n      pop\n      jump\t// out\n        /* \"#utility.yul\":9820:11215   */\n    tag_15:\n        /* \"#utility.yul\":9937:9974   */\n      tag_181\n        /* \"#utility.yul\":9970:9973   */\n      dup3\n        /* \"#utility.yul\":9937:9974   */\n      tag_44\n      jump\t// in\n    tag_181:\n        /* \"#utility.yul\":10039:10057   */\n      0xffffffffffffffff\n        /* \"#utility.yul\":10031:10037   */\n      dup2\n        /* \"#utility.yul\":10028:10058   */\n      gt\n        /* \"#utility.yul\":10025:10081   */\n      iszero\n      tag_182\n      jumpi\n        /* \"#utility.yul\":10061:10079   */\n      tag_183\n      tag_31\n      jump\t// in\n    tag_183:\n        /* \"#utility.yul\":10025:10081   */\n    tag_182:\n        /* \"#utility.yul\":10105:10143   */\n      tag_184\n        /* \"#utility.yul\":10137:10141   */\n      dup3\n        /* \"#utility.yul\":10131:10142   */\n      sload\n        /* \"#utility.yul\":10105:10143   */\n      tag_20\n      jump\t// in\n    tag_184:\n        /* \"#utility.yul\":10190:10257   */\n      tag_185\n        /* \"#utility.yul\":10250:10256   */\n      dup3\n        /* \"#utility.yul\":10242:10248   */\n      dup3\n        /* \"#utility.yul\":10236:10240   */\n      dup6\n        /* \"#utility.yul\":10190:10257   */\n      tag_63\n      jump\t// in\n    tag_185:\n        /* \"#utility.yul\":10284:10285   */\n      0x00\n        /* \"#utility.yul\":10308:10312   */\n      0x20\n        /* \"#utility.yul\":10295:10312   */\n      swap1\n      pop\n        /* \"#utility.yul\":10340:10342   */\n      0x1f\n        /* \"#utility.yul\":10332:10338   */\n      dup4\n        /* \"#utility.yul\":10329:10343   */\n      gt\n        /* \"#utility.yul\":10357:10358   */\n      0x01\n        /* \"#utility.yul\":10352:10970   */\n      dup2\n      eq\n      tag_187\n      jumpi\n        /* \"#utility.yul\":11014:11015   */\n      0x00\n        /* \"#utility.yul\":11031:11037   */\n      dup5\n        /* \"#utility.yul\":11028:11105   */\n      iszero\n      tag_188\n      jumpi\n        /* \"#utility.yul\":11080:11089   */\n      dup3\n        /* \"#utility.yul\":11075:11078   */\n      dup8\n        /* \"#utility.yul\":11071:11090   */\n      add\n        /* \"#utility.yul\":11065:11091   */\n      mload\n        /* \"#utility.yul\":11056:11091   */\n      swap1\n      pop\n        /* \"#utility.yul\":11028:11105   */\n    tag_188:\n        /* \"#utility.yul\":11131:11198   */\n      tag_189\n        /* \"#utility.yul\":11191:11197   */\n      dup6\n        /* \"#utility.yul\":11184:11189   */\n      dup3\n        /* \"#utility.yul\":11131:11198   */\n      tag_66\n      jump\t// in\n    tag_189:\n        /* \"#utility.yul\":11125:11129   */\n      dup7\n        /* \"#utility.yul\":11118:11199   */\n      sstore\n        /* \"#utility.yul\":10987:11209   */\n      pop\n        /* \"#utility.yul\":10322:11209   */\n      jump(tag_186)\n        /* \"#utility.yul\":10352:10970   */\n    tag_187:\n        /* \"#utility.yul\":10404:10408   */\n      0x1f\n        /* \"#utility.yul\":10400:10409   */\n      not\n        /* \"#utility.yul\":10392:10398   */\n      dup5\n        /* \"#utility.yul\":10388:10410   */\n      and\n        /* \"#utility.yul\":10438:10475   */\n      tag_190\n        /* \"#utility.yul\":10470:10474   */\n      dup7\n        /* \"#utility.yul\":10438:10475   */\n      tag_52\n      jump\t// in\n    tag_190:\n        /* \"#utility.yul\":10497:10498   */\n      0x00\n        /* \"#utility.yul\":10511:10719   */\n    tag_191:\n        /* \"#utility.yul\":10525:10532   */\n      dup3\n        /* \"#utility.yul\":10522:10523   */\n      dup2\n        /* \"#utility.yul\":10519:10533   */\n      lt\n        /* \"#utility.yul\":10511:10719   */\n      iszero\n      tag_193\n      jumpi\n        /* \"#utility.yul\":10604:10613   */\n      dup5\n        /* \"#utility.yul\":10599:10602   */\n      dup10\n        /* \"#utility.yul\":10595:10614   */\n      add\n        /* \"#utility.yul\":10589:10615   */\n      mload\n        /* \"#utility.yul\":10581:10587   */\n      dup3\n        /* \"#utility.yul\":10574:10616   */\n      sstore\n        /* \"#utility.yul\":10655:10656   */\n      0x01\n        /* \"#utility.yul\":10647:10653   */\n      dup3\n        /* \"#utility.yul\":10643:10657   */\n      add\n        /* \"#utility.yul\":10633:10657   */\n      swap2\n      pop\n        /* \"#utility.yul\":10702:10704   */\n      0x20\n        /* \"#utility.yul\":10691:10700   */\n      dup6\n        /* \"#utility.yul\":10687:10705   */\n      add\n        /* \"#utility.yul\":10674:10705   */\n      swap5\n      pop\n        /* \"#utility.yul\":10548:10552   */\n      0x20\n        /* \"#utility.yul\":10545:10546   */\n      dup2\n        /* \"#utility.yul\":10541:10553   */\n      add\n        /* \"#utility.yul\":10536:10553   */\n      swap1\n      pop\n        /* \"#utility.yul\":10511:10719   */\n      jump(tag_191)\n    tag_193:\n        /* \"#utility.yul\":10747:10753   */\n      dup7\n        /* \"#utility.yul\":10738:10745   */\n      dup4\n        /* \"#utility.yul\":10735:10754   */\n      lt\n        /* \"#utility.yul\":10732:10911   */\n      iszero\n      tag_194\n      jumpi\n        /* \"#utility.yul\":10805:10814   */\n      dup5\n        /* \"#utility.yul\":10800:10803   */\n      dup10\n        /* \"#utility.yul\":10796:10815   */\n      add\n        /* \"#utility.yul\":10790:10816   */\n      mload\n        /* \"#utility.yul\":10848:10896   */\n      tag_195\n        /* \"#utility.yul\":10890:10894   */\n      0x1f\n        /* \"#utility.yul\":10882:10888   */\n      dup10\n        /* \"#utility.yul\":10878:10895   */\n      and\n        /* \"#utility.yul\":10867:10876   */\n      dup3\n        /* \"#utility.yul\":10848:10896   */\n      tag_65\n      jump\t// in\n    tag_195:\n        /* \"#utility.yul\":10840:10846   */\n      dup4\n        /* \"#utility.yul\":10833:10897   */\n      sstore\n        /* \"#utility.yul\":10755:10911   */\n      pop\n        /* \"#utility.yul\":10732:10911   */\n    tag_194:\n        /* \"#utility.yul\":10957:10958   */\n      0x01\n        /* \"#utility.yul\":10953:10954   */\n      0x02\n        /* \"#utility.yul\":10945:10951   */\n      dup9\n        /* \"#utility.yul\":10941:10955   */\n      mul\n        /* \"#utility.yul\":10937:10959   */\n      add\n        /* \"#utility.yul\":10931:10935   */\n      dup9\n        /* \"#utility.yul\":10924:10960   */\n      sstore\n        /* \"#utility.yul\":10359:10970   */\n      pop\n      pop\n      pop\n        /* \"#utility.yul\":10322:11209   */\n    tag_186:\n      pop\n        /* \"#utility.yul\":9912:11215   */\n      pop\n      pop\n      pop\n        /* \"#utility.yul\":9820:11215   */\n      pop\n      pop\n      jump\t// out\n\n    auxdata: 0xa264697066735822122096e187171b67c688ba4ad8776ae89c0a721b9d8346579a6eeec495ff5774288e64736f6c63430008160033\n}\n",
				"bytecode": {
					"linkReferences": {},
					"object": "608060405234801561000f575f80fd5b506107e78061001d5f395ff3fe608060405234801561000f575f80fd5b5060043610610034575f3560e01c806329ec0b2b14610038578063e93314ab14610054575b5f80fd5b610052600480360381019061004d9190610377565b610072565b005b61005c6100d5565b60405161006991906104c8565b60405180910390f35b60405180606001604052808481526020018315158152602001828152505f80820151815f0190816100a391906106e2565b506020820151816001015f6101000a81548160ff02191690831515021790555060408201518160020155905050505050565b6100dd6101a1565b5f6040518060600160405290815f820180546100f890610515565b80601f016020809104026020016040519081016040528092919081815260200182805461012490610515565b801561016f5780601f106101465761010080835404028352916020019161016f565b820191905f5260205f20905b81548152906001019060200180831161015257829003601f168201915b50505050508152602001600182015f9054906101000a900460ff16151515158152602001600282015481525050905090565b6040518060600160405280606081526020015f151581526020015f81525090565b5f604051905090565b5f80fd5b5f80fd5b5f80fd5b5f80fd5b5f601f19601f8301169050919050565b7f4e487b71000000000000000000000000000000000000000000000000000000005f52604160045260245ffd5b610221826101db565b810181811067ffffffffffffffff821117156102405761023f6101eb565b5b80604052505050565b5f6102526101c2565b905061025e8282610218565b919050565b5f67ffffffffffffffff82111561027d5761027c6101eb565b5b610286826101db565b9050602081019050919050565b828183375f83830152505050565b5f6102b36102ae84610263565b610249565b9050828152602081018484840111156102cf576102ce6101d7565b5b6102da848285610293565b509392505050565b5f82601f8301126102f6576102f56101d3565b5b81356103068482602086016102a1565b91505092915050565b5f8115159050919050565b6103238161030f565b811461032d575f80fd5b50565b5f8135905061033e8161031a565b92915050565b5f819050919050565b61035681610344565b8114610360575f80fd5b50565b5f813590506103718161034d565b92915050565b5f805f6060848603121561038e5761038d6101cb565b5b5f84013567ffffffffffffffff8111156103ab576103aa6101cf565b5b6103b7868287016102e2565b93505060206103c886828701610330565b92505060406103d986828701610363565b9150509250925092565b5f81519050919050565b5f82825260208201905092915050565b5f5b8381101561041a5780820151818401526020810190506103ff565b5f8484015250505050565b5f61042f826103e3565b61043981856103ed565b93506104498185602086016103fd565b610452816101db565b840191505092915050565b6104668161030f565b82525050565b61047581610344565b82525050565b5f606083015f8301518482035f8601526104958282610425565b91505060208301516104aa602086018261045d565b5060408301516104bd604086018261046c565b508091505092915050565b5f6020820190508181035f8301526104e0818461047b565b905092915050565b7f4e487b71000000000000000000000000000000000000000000000000000000005f52602260045260245ffd5b5f600282049050600182168061052c57607f821691505b60208210810361053f5761053e6104e8565b5b50919050565b5f819050815f5260205f209050919050565b5f6020601f8301049050919050565b5f82821b905092915050565b5f600883026105a17fffffffffffffffffffffffffffffffffffffffffffffffffffffffffffffffff82610566565b6105ab8683610566565b95508019841693508086168417925050509392505050565b5f819050919050565b5f6105e66105e16105dc84610344565b6105c3565b610344565b9050919050565b5f819050919050565b6105ff836105cc565b61061361060b826105ed565b848454610572565b825550505050565b5f90565b61062761061b565b6106328184846105f6565b505050565b5b818110156106555761064a5f8261061f565b600181019050610638565b5050565b601f82111561069a5761066b81610545565b61067484610557565b81016020851015610683578190505b61069761068f85610557565b830182610637565b50505b505050565b5f82821c905092915050565b5f6106ba5f198460080261069f565b1980831691505092915050565b5f6106d283836106ab565b9150826002028217905092915050565b6106eb826103e3565b67ffffffffffffffff811115610704576107036101eb565b5b61070e8254610515565b610719828285610659565b5f60209050601f83116001811461074a575f8415610738578287015190505b61074285826106c7565b8655506107a9565b601f19841661075886610545565b5f5b8281101561077f5784890151825560018201915060208501945060208101905061075a565b8683101561079c5784890151610798601f8916826106ab565b8355505b6001600288020188555050505b50505050505056fea264697066735822122096e187171b67c688ba4ad8776ae89c0a721b9d8346579a6eeec495ff5774288e64736f6c63430008160033",
					"opcodes": "PUSH1 0x80 PUSH1 0x40 MSTORE CALLVALUE DUP1 ISZERO PUSH2 0xF JUMPI PUSH0 DUP1 REVERT JUMPDEST POP PUSH2 0x7E7 DUP1 PUSH2 0x1D PUSH0 CODECOPY PUSH0 RETURN INVALID PUSH1 0x80 PUSH1 0x40 MSTORE CALLVALUE DUP1 ISZERO PUSH2 0xF JUMPI PUSH0 DUP1 REVERT JUMPDEST POP PUSH1 0x4 CALLDATASIZE LT PUSH2 0x34 JUMPI PUSH0 CALLDATALOAD PUSH1 0xE0 SHR DUP1 PUSH4 0x29EC0B2B EQ PUSH2 0x38 JUMPI DUP1 PUSH4 0xE93314AB EQ PUSH2 0x54 JUMPI JUMPDEST PUSH0 DUP1 REVERT JUMPDEST PUSH2 0x52 PUSH1 0x4 DUP1 CALLDATASIZE SUB DUP2 ADD SWAP1 PUSH2 0x4D SWAP2 SWAP1 PUSH2 0x377 JUMP JUMPDEST PUSH2 0x72 JUMP JUMPDEST STOP JUMPDEST PUSH2 0x5C PUSH2 0xD5 JUMP JUMPDEST PUSH1 0x40 MLOAD PUSH2 0x69 SWAP2 SWAP1 PUSH2 0x4C8 JUMP JUMPDEST PUSH1 0x40 MLOAD DUP1 SWAP2 SUB SWAP1 RETURN JUMPDEST PUSH1 0x40 MLOAD DUP1 PUSH1 0x60 ADD PUSH1 0x40 MSTORE DUP1 DUP5 DUP2 MSTORE PUSH1 0x20 ADD DUP4 ISZERO ISZERO DUP2 MSTORE PUSH1 0x20 ADD DUP3 DUP2 MSTORE POP PUSH0 DUP1 DUP3 ADD MLOAD DUP2 PUSH0 ADD SWAP1 DUP2 PUSH2 0xA3 SWAP2 SWAP1 PUSH2 0x6E2 JUMP JUMPDEST POP PUSH1 0x20 DUP3 ADD MLOAD DUP2 PUSH1 0x1 ADD PUSH0 PUSH2 0x100 EXP DUP2 SLOAD DUP2 PUSH1 0xFF MUL NOT AND SWAP1 DUP4 ISZERO ISZERO MUL OR SWAP1 SSTORE POP PUSH1 0x40 DUP3 ADD MLOAD DUP2 PUSH1 0x2 ADD SSTORE SWAP1 POP POP POP POP POP JUMP JUMPDEST PUSH2 0xDD PUSH2 0x1A1 JUMP JUMPDEST PUSH0 PUSH1 0x40 MLOAD DUP1 PUSH1 0x60 ADD PUSH1 0x40 MSTORE SWAP1 DUP2 PUSH0 DUP3 ADD DUP1 SLOAD PUSH2 0xF8 SWAP1 PUSH2 0x515 JUMP JUMPDEST DUP1 PUSH1 0x1F ADD PUSH1 0x20 DUP1 SWAP2 DIV MUL PUSH1 0x20 ADD PUSH1 0x40 MLOAD SWAP1 DUP2 ADD PUSH1 0x40 MSTORE DUP1 SWAP3 SWAP2 SWAP1 DUP2 DUP2 MSTORE PUSH1 0x20 ADD DUP3 DUP1 SLOAD PUSH2 0x124 SWAP1 PUSH2 0x515 JUMP JUMPDEST DUP1 ISZERO PUSH2 0x16F JUMPI DUP1 PUSH1 0x1F LT PUSH2 0x146 JUMPI PUSH2 0x100 DUP1 DUP4 SLOAD DIV MUL DUP4 MSTORE SWAP2 PUSH1 0x20 ADD SWAP2 PUSH2 0x16F JUMP JUMPDEST DUP3 ADD SWAP2 SWAP1 PUSH0 MSTORE PUSH1 0x20 PUSH0 KECCAK256 SWAP1 JUMPDEST DUP2 SLOAD DUP2 MSTORE SWAP1 PUSH1 0x1 ADD SWAP1 PUSH1 0x20 ADD DUP1 DUP4 GT PUSH2 0x152 JUMPI DUP3 SWAP1 SUB PUSH1 0x1F AND DUP3 ADD SWAP2 JUMPDEST POP POP POP POP POP DUP2 MSTORE PUSH1 0x20 ADD PUSH1 0x1 DUP3 ADD PUSH0 SWAP1 SLOAD SWAP1 PUSH2 0x100 EXP SWAP1 DIV PUSH1 0xFF AND ISZERO ISZERO ISZERO ISZERO DUP2 MSTORE PUSH1 0x20 ADD PUSH1 0x2 DUP3 ADD SLOAD DUP2 MSTORE POP POP SWAP1 POP SWAP1 JUMP JUMPDEST PUSH1 0x40 MLOAD DUP1 PUSH1 0x60 ADD PUSH1 0x40 MSTORE DUP1 PUSH1 0x60 DUP2 MSTORE PUSH1 0x20 ADD PUSH0 ISZERO ISZERO DUP2 MSTORE PUSH1 0x20 ADD PUSH0 DUP2 MSTORE POP SWAP1 JUMP JUMPDEST PUSH0 PUSH1 0x40 MLOAD SWAP1 POP SWAP1 JUMP JUMPDEST PUSH0 DUP1 REVERT JUMPDEST PUSH0 DUP1 REVERT JUMPDEST PUSH0 DUP1 REVERT JUMPDEST PUSH0 DUP1 REVERT JUMPDEST PUSH0 PUSH1 0x1F NOT PUSH1 0x1F DUP4 ADD AND SWAP1 POP SWAP2 SWAP1 POP JUMP JUMPDEST PUSH32 0x4E487B7100000000000000000000000000000000000000000000000000000000 PUSH0 MSTORE PUSH1 0x41 PUSH1 0x4 MSTORE PUSH1 0x24 PUSH0 REVERT JUMPDEST PUSH2 0x221 DUP3 PUSH2 0x1DB JUMP JUMPDEST DUP2 ADD DUP2 DUP2 LT PUSH8 0xFFFFFFFFFFFFFFFF DUP3 GT OR ISZERO PUSH2 0x240 JUMPI PUSH2 0x23F PUSH2 0x1EB JUMP JUMPDEST JUMPDEST DUP1 PUSH1 0x40 MSTORE POP POP POP JUMP JUMPDEST PUSH0 PUSH2 0x252 PUSH2 0x1C2 JUMP JUMPDEST SWAP1 POP PUSH2 0x25E DUP3 DUP3 PUSH2 0x218 JUMP JUMPDEST SWAP2 SWAP1 POP JUMP JUMPDEST PUSH0 PUSH8 0xFFFFFFFFFFFFFFFF DUP3 GT ISZERO PUSH2 0x27D JUMPI PUSH2 0x27C PUSH2 0x1EB JUMP JUMPDEST JUMPDEST PUSH2 0x286 DUP3 PUSH2 0x1DB JUMP JUMPDEST SWAP1 POP PUSH1 0x20 DUP2 ADD SWAP1 POP SWAP2 SWAP1 POP JUMP JUMPDEST DUP3 DUP2 DUP4 CALLDATACOPY PUSH0 DUP4 DUP4 ADD MSTORE POP POP POP JUMP JUMPDEST PUSH0 PUSH2 0x2B3 PUSH2 0x2AE DUP5 PUSH2 0x263 JUMP JUMPDEST PUSH2 0x249 JUMP JUMPDEST SWAP1 POP DUP3 DUP2 MSTORE PUSH1 0x20 DUP2 ADD DUP5 DUP5 DUP5 ADD GT ISZERO PUSH2 0x2CF JUMPI PUSH2 0x2CE PUSH2 0x1D7 JUMP JUMPDEST JUMPDEST PUSH2 0x2DA DUP5 DUP3 DUP6 PUSH2 0x293 JUMP JUMPDEST POP SWAP4 SWAP3 POP POP POP JUMP JUMPDEST PUSH0 DUP3 PUSH1 0x1F DUP4 ADD SLT PUSH2 0x2F6 JUMPI PUSH2 0x2F5 PUSH2 0x1D3 JUMP JUMPDEST JUMPDEST DUP2 CALLDATALOAD PUSH2 0x306 DUP5 DUP3 PUSH1 0x20 DUP7 ADD PUSH2 0x2A1 JUMP JUMPDEST SWAP2 POP POP SWAP3 SWAP2 POP POP JUMP JUMPDEST PUSH0 DUP2 ISZERO ISZERO SWAP1 POP SWAP2 SWAP1 POP JUMP JUMPDEST PUSH2 0x323 DUP2 PUSH2 0x30F JUMP JUMPDEST DUP2 EQ PUSH2 0x32D JUMPI PUSH0 DUP1 REVERT JUMPDEST POP JUMP JUMPDEST PUSH0 DUP2 CALLDATALOAD SWAP1 POP PUSH2 0x33E DUP2 PUSH2 0x31A JUMP JUMPDEST SWAP3 SWAP2 POP POP JUMP JUMPDEST PUSH0 DUP2 SWAP1 POP SWAP2 SWAP1 POP JUMP JUMPDEST PUSH2 0x356 DUP2 PUSH2 0x344 JUMP JUMPDEST DUP2 EQ PUSH2 0x360 JUMPI PUSH0 DUP1 REVERT JUMPDEST POP JUMP JUMPDEST PUSH0 DUP2 CALLDATALOAD SWAP1 POP PUSH2 0x371 DUP2 PUSH2 0x34D JUMP JUMPDEST SWAP3 SWAP2 POP POP JUMP JUMPDEST PUSH0 DUP1 PUSH0 PUSH1 0x60 DUP5 DUP7 SUB SLT ISZERO PUSH2 0x38E JUMPI PUSH2 0x38D PUSH2 0x1CB JUMP JUMPDEST JUMPDEST PUSH0 DUP5 ADD CALLDATALOAD PUSH8 0xFFFFFFFFFFFFFFFF DUP2 GT ISZERO PUSH2 0x3AB JUMPI PUSH2 0x3AA PUSH2 0x1CF JUMP JUMPDEST JUMPDEST PUSH2 0x3B7 DUP7 DUP3 DUP8 ADD PUSH2 0x2E2 JUMP JUMPDEST SWAP4 POP POP PUSH1 0x20 PUSH2 0x3C8 DUP7 DUP3 DUP8 ADD PUSH2 0x330 JUMP JUMPDEST SWAP3 POP POP PUSH1 0x40 PUSH2 0x3D9 DUP7 DUP3 DUP8 ADD PUSH2 0x363 JUMP JUMPDEST SWAP2 POP POP SWAP3 POP SWAP3 POP SWAP3 JUMP JUMPDEST PUSH0 DUP2 MLOAD SWAP1 POP SWAP2 SWAP1 POP JUMP JUMPDEST PUSH0 DUP3 DUP3 MSTORE PUSH1 0x20 DUP3 ADD SWAP1 POP SWAP3 SWAP2 POP POP JUMP JUMPDEST PUSH0 JUMPDEST DUP4 DUP2 LT ISZERO PUSH2 0x41A JUMPI DUP1 DUP3 ADD MLOAD DUP2 DUP5 ADD MSTORE PUSH1 0x20 DUP2 ADD SWAP1 POP PUSH2 0x3FF JUMP JUMPDEST PUSH0 DUP5 DUP5 ADD MSTORE POP POP POP POP JUMP JUMPDEST PUSH0 PUSH2 0x42F DUP3 PUSH2 0x3E3 JUMP JUMPDEST PUSH2 0x439 DUP2 DUP6 PUSH2 0x3ED JUMP JUMPDEST SWAP4 POP PUSH2 0x449 DUP2 DUP6 PUSH1 0x20 DUP7 ADD PUSH2 0x3FD JUMP JUMPDEST PUSH2 0x452 DUP2 PUSH2 0x1DB JUMP JUMPDEST DUP5 ADD SWAP2 POP POP SWAP3 SWAP2 POP POP JUMP JUMPDEST PUSH2 0x466 DUP2 PUSH2 0x30F JUMP JUMPDEST DUP3 MSTORE POP POP JUMP JUMPDEST PUSH2 0x475 DUP2 PUSH2 0x344 JUMP JUMPDEST DUP3 MSTORE POP POP JUMP JUMPDEST PUSH0 PUSH1 0x60 DUP4 ADD PUSH0 DUP4 ADD MLOAD DUP5 DUP3 SUB PUSH0 DUP7 ADD MSTORE PUSH2 0x495 DUP3 DUP3 PUSH2 0x425 JUMP JUMPDEST SWAP2 POP POP PUSH1 0x20 DUP4 ADD MLOAD PUSH2 0x4AA PUSH1 0x20 DUP7 ADD DUP3 PUSH2 0x45D JUMP JUMPDEST POP PUSH1 0x40 DUP4 ADD MLOAD PUSH2 0x4BD PUSH1 0x40 DUP7 ADD DUP3 PUSH2 0x46C JUMP JUMPDEST POP DUP1 SWAP2 POP POP SWAP3 SWAP2 POP POP JUMP JUMPDEST PUSH0 PUSH1 0x20 DUP3 ADD SWAP1 POP DUP2 DUP2 SUB PUSH0 DUP4 ADD MSTORE PUSH2 0x4E0 DUP2 DUP5 PUSH2 0x47B JUMP JUMPDEST SWAP1 POP SWAP3 SWAP2 POP POP JUMP JUMPDEST PUSH32 0x4E487B7100000000000000000000000000000000000000000000000000000000 PUSH0 MSTORE PUSH1 0x22 PUSH1 0x4 MSTORE PUSH1 0x24 PUSH0 REVERT JUMPDEST PUSH0 PUSH1 0x2 DUP3 DIV SWAP1 POP PUSH1 0x1 DUP3 AND DUP1 PUSH2 0x52C JUMPI PUSH1 0x7F DUP3 AND SWAP2 POP JUMPDEST PUSH1 0x20 DUP3 LT DUP2 SUB PUSH2 0x53F JUMPI PUSH2 0x53E PUSH2 0x4E8 JUMP JUMPDEST JUMPDEST POP SWAP2 SWAP1 POP JUMP JUMPDEST PUSH0 DUP2 SWAP1 POP DUP2 PUSH0 MSTORE PUSH1 0x20 PUSH0 KECCAK256 SWAP1 POP SWAP2 SWAP1 POP JUMP JUMPDEST PUSH0 PUSH1 0x20 PUSH1 0x1F DUP4 ADD DIV SWAP1 POP SWAP2 SWAP1 POP JUMP JUMPDEST PUSH0 DUP3 DUP3 SHL SWAP1 POP SWAP3 SWAP2 POP POP JUMP JUMPDEST PUSH0 PUSH1 0x8 DUP4 MUL PUSH2 0x5A1 PUSH32 0xFFFFFFFFFFFFFFFFFFFFFFFFFFFFFFFFFFFFFFFFFFFFFFFFFFFFFFFFFFFFFFFF DUP3 PUSH2 0x566 JUMP JUMPDEST PUSH2 0x5AB DUP7 DUP4 PUSH2 0x566 JUMP JUMPDEST SWAP6 POP DUP1 NOT DUP5 AND SWAP4 POP DUP1 DUP7 AND DUP5 OR SWAP3 POP POP POP SWAP4 SWAP3 POP POP POP JUMP JUMPDEST PUSH0 DUP2 SWAP1 POP SWAP2 SWAP1 POP JUMP JUMPDEST PUSH0 PUSH2 0x5E6 PUSH2 0x5E1 PUSH2 0x5DC DUP5 PUSH2 0x344 JUMP JUMPDEST PUSH2 0x5C3 JUMP JUMPDEST PUSH2 0x344 JUMP JUMPDEST SWAP1 POP SWAP2 SWAP1 POP JUMP JUMPDEST PUSH0 DUP2 SWAP1 POP SWAP2 SWAP1 POP JUMP JUMPDEST PUSH2 0x5FF DUP4 PUSH2 0x5CC JUMP JUMPDEST PUSH2 0x613 PUSH2 0x60B DUP3 PUSH2 0x5ED JUMP JUMPDEST DUP5 DUP5 SLOAD PUSH2 0x572 JUMP JUMPDEST DUP3 SSTORE POP POP POP POP JUMP JUMPDEST PUSH0 SWAP1 JUMP JUMPDEST PUSH2 0x627 PUSH2 0x61B JUMP JUMPDEST PUSH2 0x632 DUP2 DUP5 DUP5 PUSH2 0x5F6 JUMP JUMPDEST POP POP POP JUMP JUMPDEST JUMPDEST DUP2 DUP2 LT ISZERO PUSH2 0x655 JUMPI PUSH2 0x64A PUSH0 DUP3 PUSH2 0x61F JUMP JUMPDEST PUSH1 0x1 DUP2 ADD SWAP1 POP PUSH2 0x638 JUMP JUMPDEST POP POP JUMP JUMPDEST PUSH1 0x1F DUP3 GT ISZERO PUSH2 0x69A JUMPI PUSH2 0x66B DUP2 PUSH2 0x545 JUMP JUMPDEST PUSH2 0x674 DUP5 PUSH2 0x557 JUMP JUMPDEST DUP2 ADD PUSH1 0x20 DUP6 LT ISZERO PUSH2 0x683 JUMPI DUP2 SWAP1 POP JUMPDEST PUSH2 0x697 PUSH2 0x68F DUP6 PUSH2 0x557 JUMP JUMPDEST DUP4 ADD DUP3 PUSH2 0x637 JUMP JUMPDEST POP POP JUMPDEST POP POP POP JUMP JUMPDEST PUSH0 DUP3 DUP3 SHR SWAP1 POP SWAP3 SWAP2 POP POP JUMP JUMPDEST PUSH0 PUSH2 0x6BA PUSH0 NOT DUP5 PUSH1 0x8 MUL PUSH2 0x69F JUMP JUMPDEST NOT DUP1 DUP4 AND SWAP2 POP POP SWAP3 SWAP2 POP POP JUMP JUMPDEST PUSH0 PUSH2 0x6D2 DUP4 DUP4 PUSH2 0x6AB JUMP JUMPDEST SWAP2 POP DUP3 PUSH1 0x2 MUL DUP3 OR SWAP1 POP SWAP3 SWAP2 POP POP JUMP JUMPDEST PUSH2 0x6EB DUP3 PUSH2 0x3E3 JUMP JUMPDEST PUSH8 0xFFFFFFFFFFFFFFFF DUP2 GT ISZERO PUSH2 0x704 JUMPI PUSH2 0x703 PUSH2 0x1EB JUMP JUMPDEST JUMPDEST PUSH2 0x70E DUP3 SLOAD PUSH2 0x515 JUMP JUMPDEST PUSH2 0x719 DUP3 DUP3 DUP6 PUSH2 0x659 JUMP JUMPDEST PUSH0 PUSH1 0x20 SWAP1 POP PUSH1 0x1F DUP4 GT PUSH1 0x1 DUP2 EQ PUSH2 0x74A JUMPI PUSH0 DUP5 ISZERO PUSH2 0x738 JUMPI DUP3 DUP8 ADD MLOAD SWAP1 POP JUMPDEST PUSH2 0x742 DUP6 DUP3 PUSH2 0x6C7 JUMP JUMPDEST DUP7 SSTORE POP PUSH2 0x7A9 JUMP JUMPDEST PUSH1 0x1F NOT DUP5 AND PUSH2 0x758 DUP7 PUSH2 0x545 JUMP JUMPDEST PUSH0 JUMPDEST DUP3 DUP2 LT ISZERO PUSH2 0x77F JUMPI DUP5 DUP10 ADD MLOAD DUP3 SSTORE PUSH1 0x1 DUP3 ADD SWAP2 POP PUSH1 0x20 DUP6 ADD SWAP5 POP PUSH1 0x20 DUP2 ADD SWAP1 POP PUSH2 0x75A JUMP JUMPDEST DUP7 DUP4 LT ISZERO PUSH2 0x79C JUMPI DUP5 DUP10 ADD MLOAD PUSH2 0x798 PUSH1 0x1F DUP10 AND DUP3 PUSH2 0x6AB JUMP JUMPDEST DUP4 SSTORE POP JUMPDEST PUSH1 0x1 PUSH1 0x2 DUP9 MUL ADD DUP9 SSTORE POP POP POP JUMPDEST POP POP POP POP POP POP JUMP INVALID LOG2 PUSH5 0x6970667358 0x22 SLT KECCAK256 SWAP7 0xE1 DUP8 OR SHL PUSH8 0xC688BA4AD8776AE8 SWAP13 EXP PUSH19 0x1B9D8346579A6EEEC495FF5774288E64736F6C PUSH4 0x43000816 STOP CALLER "
				},
				"gasEstimates": {
					"creation": {
						"codeDepositCost": "404600",
						"executionCost": "441",
						"totalCost": "405041"
					},
					"external": {
						"getS()": "infinite",
						"setS(string,bool,uint256)": "infinite"
					}
				},
				"methodIdentifiers": {
					"getS()": "e93314ab",
					"setS(string,bool,uint256)": "29ec0b2b"
				}
			},
			"storageLayout": {
				"storage": [
					{
						"astId": 11,
						"contract": "contracts/struct.sol:STRUCT",
						"label": "s",
						"offset": 0,
						"slot": "0",
						"type": "t_struct(Student)8_storage"
					}
				],
				"types": {
					"t_bool": {
						"encoding": "inplace",
						"label": "bool",
						"numberOfBytes": "1"
					},
					"t_string_storage": {
						"encoding": "bytes",
						"label": "string",
						"numberOfBytes": "32"
					},
					"t_struct(Student)8_storage": {
						"encoding": "inplace",
						"label": "struct STRUCT.Student",
						"members": [
							{
								"astId": 3,
								"contract": "contracts/struct.sol:STRUCT",
								"label": "name",
								"offset": 0,
								"slot": "0",
								"type": "t_string_storage"
							},
							{
								"astId": 5,
								"contract": "contracts/struct.sol:STRUCT",
								"label": "isMale",
								"offset": 0,
								"slot": "1",
								"type": "t_bool"
							},
							{
								"astId": 7,
								"contract": "contracts/struct.sol:STRUCT",
								"label": "number",
								"offset": 0,
								"slot": "2",
								"type": "t_uint256"
							}
						],
						"numberOfBytes": "96"
					},
					"t_uint256": {
						"encoding": "inplace",
						"label": "uint256",
						"numberOfBytes": "32"
					}
				}
			},
			"userdoc": {
				"kind": "user",
				"methods": {},
				"version": 1
			}
		}
	}
}