{
	"data": {
		"bytecode": {
			"linkReferences": {},
			"object": "608060405234801561000f575f80fd5b506105138061001d5f395ff3fe608060405234801561000f575f80fd5b506004361061007b575f3560e01c8063959ac48411610059578063959ac484146100d5578063a4ece52c146100f1578063be1c766b146100fb578063fc563658146101195761007b565b8063067cda811461007f5780633cac14c81461009b5780636b19e8c7146100b9575b5f80fd5b610099600480360381019061009491906102bb565b610149565b005b6100a3610176565b6040516100b0919061039d565b60405180910390f35b6100d360048036038101906100ce91906103bd565b6101cb565b005b6100ef60048036038101906100ea91906102bb565b6101fb565b005b6100f9610223565b005b610103610249565b604051610110919061040a565b60405180910390f35b610133600480360381019061012e91906102bb565b610254565b604051610140919061040a565b60405180910390f35b5f6001826101579190610450565b8154811061016857610167610483565b5b905f5260205f20015f905550565b60605f8054806020026020016040519081016040528092919081815260200182805480156101c157602002820191905f5260205f20905b8154815260200190600101908083116101ad575b5050505050905090565b805f6001846101da9190610450565b815481106101eb576101ea610483565b5b905f5260205f2001819055505050565b5f81908060018154018082558091505060019003905f5260205f20015f909190919091505550565b5f805480610234576102336104b0565b5b600190038181905f5260205f20015f90559055565b5f8080549050905090565b5f806001836102639190610450565b8154811061027457610273610483565b5b905f5260205f2001549050919050565b5f80fd5b5f819050919050565b61029a81610288565b81146102a4575f80fd5b50565b5f813590506102b581610291565b92915050565b5f602082840312156102d0576102cf610284565b5b5f6102dd848285016102a7565b91505092915050565b5f81519050919050565b5f82825260208201905092915050565b5f819050602082019050919050565b61031881610288565b82525050565b5f610329838361030f565b60208301905092915050565b5f602082019050919050565b5f61034b826102e6565b61035581856102f0565b935061036083610300565b805f5b83811015610390578151610377888261031e565b975061038283610335565b925050600181019050610363565b5085935050505092915050565b5f6020820190508181035f8301526103b58184610341565b905092915050565b5f80604083850312156103d3576103d2610284565b5b5f6103e0858286016102a7565b92505060206103f1858286016102a7565b9150509250929050565b61040481610288565b82525050565b5f60208201905061041d5f8301846103fb565b92915050565b7f4e487b71000000000000000000000000000000000000000000000000000000005f52601160045260245ffd5b5f61045a82610288565b915061046583610288565b925082820390508181111561047d5761047c610423565b5b92915050565b7f4e487b71000000000000000000000000000000000000000000000000000000005f52603260045260245ffd5b7f4e487b71000000000000000000000000000000000000000000000000000000005f52603160045260245ffdfea26469706673582212202e7e3a586f20025f645a23c9c19755b8ddb3e5657c26d2e22cf696c120a0720964736f6c63430008160033",
			"opcodes": "PUSH1 0x80 PUSH1 0x40 MSTORE CALLVALUE DUP1 ISZERO PUSH2 0xF JUMPI PUSH0 DUP1 REVERT JUMPDEST POP PUSH2 0x513 DUP1 PUSH2 0x1D PUSH0 CODECOPY PUSH0 RETURN INVALID PUSH1 0x80 PUSH1 0x40 MSTORE CALLVALUE DUP1 ISZERO PUSH2 0xF JUMPI PUSH0 DUP1 REVERT JUMPDEST POP PUSH1 0x4 CALLDATASIZE LT PUSH2 0x7B JUMPI PUSH0 CALLDATALOAD PUSH1 0xE0 SHR DUP1 PUSH4 0x959AC484 GT PUSH2 0x59 JUMPI DUP1 PUSH4 0x959AC484 EQ PUSH2 0xD5 JUMPI DUP1 PUSH4 0xA4ECE52C EQ PUSH2 0xF1 JUMPI DUP1 PUSH4 0xBE1C766B EQ PUSH2 0xFB JUMPI DUP1 PUSH4 0xFC563658 EQ PUSH2 0x119 JUMPI PUSH2 0x7B JUMP JUMPDEST DUP1 PUSH4 0x67CDA81 EQ PUSH2 0x7F JUMPI DUP1 PUSH4 0x3CAC14C8 EQ PUSH2 0x9B JUMPI DUP1 PUSH4 0x6B19E8C7 EQ PUSH2 0xB9 JUMPI JUMPDEST PUSH0 DUP1 REVERT JUMPDEST PUSH2 0x99 PUSH1 0x4 DUP1 CALLDATASIZE SUB DUP2 ADD SWAP1 PUSH2 0x94 SWAP2 SWAP1 PUSH2 0x2BB JUMP JUMPDEST PUSH2 0x149 JUMP JUMPDEST STOP JUMPDEST PUSH2 0xA3 PUSH2 0x176 JUMP JUMPDEST PUSH1 0x40 MLOAD PUSH2 0xB0 SWAP2 SWAP1 PUSH2 0x39D JUMP JUMPDEST PUSH1 0x40 MLOAD DUP1 SWAP2 SUB SWAP1 RETURN JUMPDEST PUSH2 0xD3 PUSH1 0x4 DUP1 CALLDATASIZE SUB DUP2 ADD SWAP1 PUSH2 0xCE SWAP2 SWAP1 PUSH2 0x3BD JUMP JUMPDEST PUSH2 0x1CB JUMP JUMPDEST STOP JUMPDEST PUSH2 0xEF PUSH1 0x4 DUP1 CALLDATASIZE SUB DUP2 ADD SWAP1 PUSH2 0xEA SWAP2 SWAP1 PUSH2 0x2BB JUMP JUMPDEST PUSH2 0x1FB JUMP JUMPDEST STOP JUMPDEST PUSH2 0xF9 PUSH2 0x223 JUMP JUMPDEST STOP JUMPDEST PUSH2 0x103 PUSH2 0x249 JUMP JUMPDEST PUSH1 0x40 MLOAD PUSH2 0x110 SWAP2 SWAP1 PUSH2 0x40A JUMP JUMPDEST PUSH1 0x40 MLOAD DUP1 SWAP2 SUB SWAP1 RETURN JUMPDEST PUSH2 0x133 PUSH1 0x4 DUP1 CALLDATASIZE SUB DUP2 ADD SWAP1 PUSH2 0x12E SWAP2 SWAP1 PUSH2 0x2BB JUMP JUMPDEST PUSH2 0x254 JUMP JUMPDEST PUSH1 0x40 MLOAD PUSH2 0x140 SWAP2 SWAP1 PUSH2 0x40A JUMP JUMPDEST PUSH1 0x40 MLOAD DUP1 SWAP2 SUB SWAP1 RETURN JUMPDEST PUSH0 PUSH1 0x1 DUP3 PUSH2 0x157 SWAP2 SWAP1 PUSH2 0x450 JUMP JUMPDEST DUP2 SLOAD DUP2 LT PUSH2 0x168 JUMPI PUSH2 0x167 PUSH2 0x483 JUMP JUMPDEST JUMPDEST SWAP1 PUSH0 MSTORE PUSH1 0x20 PUSH0 KECCAK256 ADD PUSH0 SWAP1 SSTORE POP JUMP JUMPDEST PUSH1 0x60 PUSH0 DUP1 SLOAD DUP1 PUSH1 0x20 MUL PUSH1 0x20 ADD PUSH1 0x40 MLOAD SWAP1 DUP2 ADD PUSH1 0x40 MSTORE DUP1 SWAP3 SWAP2 SWAP1 DUP2 DUP2 MSTORE PUSH1 0x20 ADD DUP3 DUP1 SLOAD DUP1 ISZERO PUSH2 0x1C1 JUMPI PUSH1 0x20 MUL DUP3 ADD SWAP2 SWAP1 PUSH0 MSTORE PUSH1 0x20 PUSH0 KECCAK256 SWAP1 JUMPDEST DUP2 SLOAD DUP2 MSTORE PUSH1 0x20 ADD SWAP1 PUSH1 0x1 ADD SWAP1 DUP1 DUP4 GT PUSH2 0x1AD JUMPI JUMPDEST POP POP POP POP POP SWAP1 POP SWAP1 JUMP JUMPDEST DUP1 PUSH0 PUSH1 0x1 DUP5 PUSH2 0x1DA SWAP2 SWAP1 PUSH2 0x450 JUMP JUMPDEST DUP2 SLOAD DUP2 LT PUSH2 0x1EB JUMPI PUSH2 0x1EA PUSH2 0x483 JUMP JUMPDEST JUMPDEST SWAP1 PUSH0 MSTORE PUSH1 0x20 PUSH0 KECCAK256 ADD DUP2 SWAP1 SSTORE POP POP POP JUMP JUMPDEST PUSH0 DUP2 SWAP1 DUP1 PUSH1 0x1 DUP2 SLOAD ADD DUP1 DUP3 SSTORE DUP1 SWAP2 POP POP PUSH1 0x1 SWAP1 SUB SWAP1 PUSH0 MSTORE PUSH1 0x20 PUSH0 KECCAK256 ADD PUSH0 SWAP1 SWAP2 SWAP1 SWAP2 SWAP1 SWAP2 POP SSTORE POP JUMP JUMPDEST PUSH0 DUP1 SLOAD DUP1 PUSH2 0x234 JUMPI PUSH2 0x233 PUSH2 0x4B0 JUMP JUMPDEST JUMPDEST PUSH1 0x1 SWAP1 SUB DUP2 DUP2 SWAP1 PUSH0 MSTORE PUSH1 0x20 PUSH0 KECCAK256 ADD PUSH0 SWAP1 SSTORE SWAP1 SSTORE JUMP JUMPDEST PUSH0 DUP1 DUP1 SLOAD SWAP1 POP SWAP1 POP SWAP1 JUMP JUMPDEST PUSH0 DUP1 PUSH1 0x1 DUP4 PUSH2 0x263 SWAP2 SWAP1 PUSH2 0x450 JUMP JUMPDEST DUP2 SLOAD DUP2 LT PUSH2 0x274 JUMPI PUSH2 0x273 PUSH2 0x483 JUMP JUMPDEST JUMPDEST SWAP1 PUSH0 MSTORE PUSH1 0x20 PUSH0 KECCAK256 ADD SLOAD SWAP1 POP SWAP2 SWAP1 POP JUMP JUMPDEST PUSH0 DUP1 REVERT JUMPDEST PUSH0 DUP2 SWAP1 POP SWAP2 SWAP1 POP JUMP JUMPDEST PUSH2 0x29A DUP2 PUSH2 0x288 JUMP JUMPDEST DUP2 EQ PUSH2 0x2A4 JUMPI PUSH0 DUP1 REVERT JUMPDEST POP JUMP JUMPDEST PUSH0 DUP2 CALLDATALOAD SWAP1 POP PUSH2 0x2B5 DUP2 PUSH2 0x291 JUMP JUMPDEST SWAP3 SWAP2 POP POP JUMP JUMPDEST PUSH0 PUSH1 0x20 DUP3 DUP5 SUB SLT ISZERO PUSH2 0x2D0 JUMPI PUSH2 0x2CF PUSH2 0x284 JUMP JUMPDEST JUMPDEST PUSH0 PUSH2 0x2DD DUP5 DUP3 DUP6 ADD PUSH2 0x2A7 JUMP JUMPDEST SWAP2 POP POP SWAP3 SWAP2 POP POP JUMP JUMPDEST PUSH0 DUP2 MLOAD SWAP1 POP SWAP2 SWAP1 POP JUMP JUMPDEST PUSH0 DUP3 DUP3 MSTORE PUSH1 0x20 DUP3 ADD SWAP1 POP SWAP3 SWAP2 POP POP JUMP JUMPDEST PUSH0 DUP2 SWAP1 POP PUSH1 0x20 DUP3 ADD SWAP1 POP SWAP2 SWAP1 POP JUMP JUMPDEST PUSH2 0x318 DUP2 PUSH2 0x288 JUMP JUMPDEST DUP3 MSTORE POP POP JUMP JUMPDEST PUSH0 PUSH2 0x329 DUP4 DUP4 PUSH2 0x30F JUMP JUMPDEST PUSH1 0x20 DUP4 ADD SWAP1 POP SWAP3 SWAP2 POP POP JUMP JUMPDEST PUSH0 PUSH1 0x20 DUP3 ADD SWAP1 POP SWAP2 SWAP1 POP JUMP JUMPDEST PUSH0 PUSH2 0x34B DUP3 PUSH2 0x2E6 JUMP JUMPDEST PUSH2 0x355 DUP2 DUP6 PUSH2 0x2F0 JUMP JUMPDEST SWAP4 POP PUSH2 0x360 DUP4 PUSH2 0x300 JUMP JUMPDEST DUP1 PUSH0 JUMPDEST DUP4 DUP2 LT ISZERO PUSH2 0x390 JUMPI DUP2 MLOAD PUSH2 0x377 DUP9 DUP3 PUSH2 0x31E JUMP JUMPDEST SWAP8 POP PUSH2 0x382 DUP4 PUSH2 0x335 JUMP JUMPDEST SWAP3 POP POP PUSH1 0x1 DUP2 ADD SWAP1 POP PUSH2 0x363 JUMP JUMPDEST POP DUP6 SWAP4 POP POP POP POP SWAP3 SWAP2 POP POP JUMP JUMPDEST PUSH0 PUSH1 0x20 DUP3 ADD SWAP1 POP DUP2 DUP2 SUB PUSH0 DUP4 ADD MSTORE PUSH2 0x3B5 DUP2 DUP5 PUSH2 0x341 JUMP JUMPDEST SWAP1 POP SWAP3 SWAP2 POP POP JUMP JUMPDEST PUSH0 DUP1 PUSH1 0x40 DUP4 DUP6 SUB SLT ISZERO PUSH2 0x3D3 JUMPI PUSH2 0x3D2 PUSH2 0x284 JUMP JUMPDEST JUMPDEST PUSH0 PUSH2 0x3E0 DUP6 DUP3 DUP7 ADD PUSH2 0x2A7 JUMP JUMPDEST SWAP3 POP POP PUSH1 0x20 PUSH2 0x3F1 DUP6 DUP3 DUP7 ADD PUSH2 0x2A7 JUMP JUMPDEST SWAP2 POP POP SWAP3 POP SWAP3 SWAP1 POP JUMP JUMPDEST PUSH2 0x404 DUP2 PUSH2 0x288 JUMP JUMPDEST DUP3 MSTORE POP POP JUMP JUMPDEST PUSH0 PUSH1 0x20 DUP3 ADD SWAP1 POP PUSH2 0x41D PUSH0 DUP4 ADD DUP5 PUSH2 0x3FB JUMP JUMPDEST SWAP3 SWAP2 POP POP JUMP JUMPDEST PUSH32 0x4E487B7100000000000000000000000000000000000000000000000000000000 PUSH0 MSTORE PUSH1 0x11 PUSH1 0x4 MSTORE PUSH1 0x24 PUSH0 REVERT JUMPDEST PUSH0 PUSH2 0x45A DUP3 PUSH2 0x288 JUMP JUMPDEST SWAP2 POP PUSH2 0x465 DUP4 PUSH2 0x288 JUMP JUMPDEST SWAP3 POP DUP3 DUP3 SUB SWAP1 POP DUP2 DUP2 GT ISZERO PUSH2 0x47D JUMPI PUSH2 0x47C PUSH2 0x423 JUMP JUMPDEST JUMPDEST SWAP3 SWAP2 POP POP JUMP JUMPDEST PUSH32 0x4E487B7100000000000000000000000000000000000000000000000000000000 PUSH0 MSTORE PUSH1 0x32 PUSH1 0x4 MSTORE PUSH1 0x24 PUSH0 REVERT JUMPDEST PUSH32 0x4E487B7100000000000000000000000000000000000000000000000000000000 PUSH0 MSTORE PUSH1 0x31 PUSH1 0x4 MSTORE PUSH1 0x24 PUSH0 REVERT INVALID LOG2 PUSH5 0x6970667358 0x22 SLT KECCAK256 0x2E PUSH31 0x3A586F20025F645A23C9C19755B8DDB3E5657C26D2E22CF696C120A0720964 PUSH20 0x6F6C634300081600330000000000000000000000 "
		},
		"gasEstimates": {
			"creation": {
				"codeDepositCost": "259800",
				"executionCost": "298",
				"totalCost": "260098"
			},
			"external": {
				"deleteNumber(uint256)": "infinite",
				"getLength()": "2484",
				"getNumber(uint256)": "infinite",
				"pop()": "29462",
				"push(uint256)": "46820",
				"returnArray()": "infinite",
				"setNumber(uint256,uint256)": "infinite"
			}
		},
		"methodIdentifiers": {
			"deleteNumber(uint256)": "067cda81",
			"getLength()": "be1c766b",
			"getNumber(uint256)": "fc563658",
			"pop()": "a4ece52c",
			"push(uint256)": "959ac484",
			"returnArray()": "3cac14c8",
			"setNumber(uint256,uint256)": "6b19e8c7"
		}
	},
	"abi": [
		{
			"inputs": [
				{
					"internalType": "uint256",
					"name": "_n",
					"type": "uint256"
				}
			],
			"name": "deleteNumber",
			"outputs": [],
			"stateMutability": "nonpayable",
			"type": "function"
		},
		{
			"inputs": [],
			"name": "getLength",
			"outputs": [
				{
					"internalType": "uint256",
					"name": "",
					"type": "uint256"
				}
			],
			"stateMutability": "view",
			"type": "function"
		},
		{
			"inputs": [
				{
					"internalType": "uint256",
					"name": "_n",
					"type": "uint256"
				}
			],
			"name": "getNumber",
			"outputs": [
				{
					"internalType": "uint256",
					"name": "",
					"type": "uint256"
				}
			],
			"stateMutability": "view",
			"type": "function"
		},
		{
			"inputs": [],
			"name": "pop",
			"outputs": [],
			"stateMutability": "nonpayable",
			"type": "function"
		},
		{
			"inputs": [
				{
					"internalType": "uint256",
					"name": "_a",
					"type": "uint256"
				}
			],
			"name": "push",
			"outputs": [],
			"stateMutability": "nonpayable",
			"type": "function"
		},
		{
			"inputs": [],
			"name": "returnArray",
			"outputs": [
				{
					"internalType": "uint256[]",
					"name": "",
					"type": "uint256[]"
				}
			],
			"stateMutability": "view",
			"type": "function"
		},
		{
			"inputs": [
				{
					"internalType": "uint256",
					"name": "_n",
					"type": "uint256"
				},
				{
					"internalType": "uint256",
					"name": "_m",
					"type": "uint256"
				}
			],
			"name": "setNumber",
			"outputs": [],
			"stateMutability": "nonpayable",
			"type": "function"
		}
	]
}