{
	"data": {
		"bytecode": {
			"linkReferences": {},
			"object": "608060405234801561000f575f80fd5b506103c28061001d5f395ff3fe608060405234801561000f575f80fd5b506004361061004a575f3560e01c8063067cda811461004e5780633cac14c81461006a5780636b19e8c714610088578063be1c766b146100a4575b5f80fd5b610068600480360381019061006391906101b0565b6100c2565b005b6100726100e8565b60405161007f9190610280565b60405180910390f35b6100a2600480360381019061009d9190610299565b610132565b005b6100ac61014f565b6040516100b991906102e6565b60405180910390f35b5f6001826100d0919061032c565b600681106100e1576100e061035f565b5b015f905550565b6100f0610157565b5f600680602002604051908101604052809291908260068015610128576020028201915b815481526020019060010190808311610114575b5050505050905090565b805f83600681106101465761014561035f565b5b01819055505050565b5f6006905090565b6040518060c00160405280600690602082028036833780820191505090505090565b5f80fd5b5f819050919050565b61018f8161017d565b8114610199575f80fd5b50565b5f813590506101aa81610186565b92915050565b5f602082840312156101c5576101c4610179565b5b5f6101d28482850161019c565b91505092915050565b5f60069050919050565b5f81905092915050565b5f819050919050565b6102018161017d565b82525050565b5f61021283836101f8565b60208301905092915050565b5f602082019050919050565b610233816101db565b61023d81846101e5565b9250610248826101ef565b805f5b8381101561027857815161025f8782610207565b965061026a8361021e565b92505060018101905061024b565b505050505050565b5f60c0820190506102935f83018461022a565b92915050565b5f80604083850312156102af576102ae610179565b5b5f6102bc8582860161019c565b92505060206102cd8582860161019c565b9150509250929050565b6102e08161017d565b82525050565b5f6020820190506102f95f8301846102d7565b92915050565b7f4e487b71000000000000000000000000000000000000000000000000000000005f52601160045260245ffd5b5f6103368261017d565b91506103418361017d565b9250828203905081811115610359576103586102ff565b5b92915050565b7f4e487b71000000000000000000000000000000000000000000000000000000005f52603260045260245ffdfea2646970667358221220db538b19fe109483ac6d90d9ed7d0ac747ef9fdc731f837751cbcce09c22707564736f6c63430008160033",
			"opcodes": "PUSH1 0x80 PUSH1 0x40 MSTORE CALLVALUE DUP1 ISZERO PUSH2 0xF JUMPI PUSH0 DUP1 REVERT JUMPDEST POP PUSH2 0x3C2 DUP1 PUSH2 0x1D PUSH0 CODECOPY PUSH0 RETURN INVALID PUSH1 0x80 PUSH1 0x40 MSTORE CALLVALUE DUP1 ISZERO PUSH2 0xF JUMPI PUSH0 DUP1 REVERT JUMPDEST POP PUSH1 0x4 CALLDATASIZE LT PUSH2 0x4A JUMPI PUSH0 CALLDATALOAD PUSH1 0xE0 SHR DUP1 PUSH4 0x67CDA81 EQ PUSH2 0x4E JUMPI DUP1 PUSH4 0x3CAC14C8 EQ PUSH2 0x6A JUMPI DUP1 PUSH4 0x6B19E8C7 EQ PUSH2 0x88 JUMPI DUP1 PUSH4 0xBE1C766B EQ PUSH2 0xA4 JUMPI JUMPDEST PUSH0 DUP1 REVERT JUMPDEST PUSH2 0x68 PUSH1 0x4 DUP1 CALLDATASIZE SUB DUP2 ADD SWAP1 PUSH2 0x63 SWAP2 SWAP1 PUSH2 0x1B0 JUMP JUMPDEST PUSH2 0xC2 JUMP JUMPDEST STOP JUMPDEST PUSH2 0x72 PUSH2 0xE8 JUMP JUMPDEST PUSH1 0x40 MLOAD PUSH2 0x7F SWAP2 SWAP1 PUSH2 0x280 JUMP JUMPDEST PUSH1 0x40 MLOAD DUP1 SWAP2 SUB SWAP1 RETURN JUMPDEST PUSH2 0xA2 PUSH1 0x4 DUP1 CALLDATASIZE SUB DUP2 ADD SWAP1 PUSH2 0x9D SWAP2 SWAP1 PUSH2 0x299 JUMP JUMPDEST PUSH2 0x132 JUMP JUMPDEST STOP JUMPDEST PUSH2 0xAC PUSH2 0x14F JUMP JUMPDEST PUSH1 0x40 MLOAD PUSH2 0xB9 SWAP2 SWAP1 PUSH2 0x2E6 JUMP JUMPDEST PUSH1 0x40 MLOAD DUP1 SWAP2 SUB SWAP1 RETURN JUMPDEST PUSH0 PUSH1 0x1 DUP3 PUSH2 0xD0 SWAP2 SWAP1 PUSH2 0x32C JUMP JUMPDEST PUSH1 0x6 DUP2 LT PUSH2 0xE1 JUMPI PUSH2 0xE0 PUSH2 0x35F JUMP JUMPDEST JUMPDEST ADD PUSH0 SWAP1 SSTORE POP JUMP JUMPDEST PUSH2 0xF0 PUSH2 0x157 JUMP JUMPDEST PUSH0 PUSH1 0x6 DUP1 PUSH1 0x20 MUL PUSH1 0x40 MLOAD SWAP1 DUP2 ADD PUSH1 0x40 MSTORE DUP1 SWAP3 SWAP2 SWAP1 DUP3 PUSH1 0x6 DUP1 ISZERO PUSH2 0x128 JUMPI PUSH1 0x20 MUL DUP3 ADD SWAP2 JUMPDEST DUP2 SLOAD DUP2 MSTORE PUSH1 0x20 ADD SWAP1 PUSH1 0x1 ADD SWAP1 DUP1 DUP4 GT PUSH2 0x114 JUMPI JUMPDEST POP POP POP POP POP SWAP1 POP SWAP1 JUMP JUMPDEST DUP1 PUSH0 DUP4 PUSH1 0x6 DUP2 LT PUSH2 0x146 JUMPI PUSH2 0x145 PUSH2 0x35F JUMP JUMPDEST JUMPDEST ADD DUP2 SWAP1 SSTORE POP POP POP JUMP JUMPDEST PUSH0 PUSH1 0x6 SWAP1 POP SWAP1 JUMP JUMPDEST PUSH1 0x40 MLOAD DUP1 PUSH1 0xC0 ADD PUSH1 0x40 MSTORE DUP1 PUSH1 0x6 SWAP1 PUSH1 0x20 DUP3 MUL DUP1 CALLDATASIZE DUP4 CALLDATACOPY DUP1 DUP3 ADD SWAP2 POP POP SWAP1 POP POP SWAP1 JUMP JUMPDEST PUSH0 DUP1 REVERT JUMPDEST PUSH0 DUP2 SWAP1 POP SWAP2 SWAP1 POP JUMP JUMPDEST PUSH2 0x18F DUP2 PUSH2 0x17D JUMP JUMPDEST DUP2 EQ PUSH2 0x199 JUMPI PUSH0 DUP1 REVERT JUMPDEST POP JUMP JUMPDEST PUSH0 DUP2 CALLDATALOAD SWAP1 POP PUSH2 0x1AA DUP2 PUSH2 0x186 JUMP JUMPDEST SWAP3 SWAP2 POP POP JUMP JUMPDEST PUSH0 PUSH1 0x20 DUP3 DUP5 SUB SLT ISZERO PUSH2 0x1C5 JUMPI PUSH2 0x1C4 PUSH2 0x179 JUMP JUMPDEST JUMPDEST PUSH0 PUSH2 0x1D2 DUP5 DUP3 DUP6 ADD PUSH2 0x19C JUMP JUMPDEST SWAP2 POP POP SWAP3 SWAP2 POP POP JUMP JUMPDEST PUSH0 PUSH1 0x6 SWAP1 POP SWAP2 SWAP1 POP JUMP JUMPDEST PUSH0 DUP2 SWAP1 POP SWAP3 SWAP2 POP POP JUMP JUMPDEST PUSH0 DUP2 SWAP1 POP SWAP2 SWAP1 POP JUMP JUMPDEST PUSH2 0x201 DUP2 PUSH2 0x17D JUMP JUMPDEST DUP3 MSTORE POP POP JUMP JUMPDEST PUSH0 PUSH2 0x212 DUP4 DUP4 PUSH2 0x1F8 JUMP JUMPDEST PUSH1 0x20 DUP4 ADD SWAP1 POP SWAP3 SWAP2 POP POP JUMP JUMPDEST PUSH0 PUSH1 0x20 DUP3 ADD SWAP1 POP SWAP2 SWAP1 POP JUMP JUMPDEST PUSH2 0x233 DUP2 PUSH2 0x1DB JUMP JUMPDEST PUSH2 0x23D DUP2 DUP5 PUSH2 0x1E5 JUMP JUMPDEST SWAP3 POP PUSH2 0x248 DUP3 PUSH2 0x1EF JUMP JUMPDEST DUP1 PUSH0 JUMPDEST DUP4 DUP2 LT ISZERO PUSH2 0x278 JUMPI DUP2 MLOAD PUSH2 0x25F DUP8 DUP3 PUSH2 0x207 JUMP JUMPDEST SWAP7 POP PUSH2 0x26A DUP4 PUSH2 0x21E JUMP JUMPDEST SWAP3 POP POP PUSH1 0x1 DUP2 ADD SWAP1 POP PUSH2 0x24B JUMP JUMPDEST POP POP POP POP POP POP JUMP JUMPDEST PUSH0 PUSH1 0xC0 DUP3 ADD SWAP1 POP PUSH2 0x293 PUSH0 DUP4 ADD DUP5 PUSH2 0x22A JUMP JUMPDEST SWAP3 SWAP2 POP POP JUMP JUMPDEST PUSH0 DUP1 PUSH1 0x40 DUP4 DUP6 SUB SLT ISZERO PUSH2 0x2AF JUMPI PUSH2 0x2AE PUSH2 0x179 JUMP JUMPDEST JUMPDEST PUSH0 PUSH2 0x2BC DUP6 DUP3 DUP7 ADD PUSH2 0x19C JUMP JUMPDEST SWAP3 POP POP PUSH1 0x20 PUSH2 0x2CD DUP6 DUP3 DUP7 ADD PUSH2 0x19C JUMP JUMPDEST SWAP2 POP POP SWAP3 POP SWAP3 SWAP1 POP JUMP JUMPDEST PUSH2 0x2E0 DUP2 PUSH2 0x17D JUMP JUMPDEST DUP3 MSTORE POP POP JUMP JUMPDEST PUSH0 PUSH1 0x20 DUP3 ADD SWAP1 POP PUSH2 0x2F9 PUSH0 DUP4 ADD DUP5 PUSH2 0x2D7 JUMP JUMPDEST SWAP3 SWAP2 POP POP JUMP JUMPDEST PUSH32 0x4E487B7100000000000000000000000000000000000000000000000000000000 PUSH0 MSTORE PUSH1 0x11 PUSH1 0x4 MSTORE PUSH1 0x24 PUSH0 REVERT JUMPDEST PUSH0 PUSH2 0x336 DUP3 PUSH2 0x17D JUMP JUMPDEST SWAP2 POP PUSH2 0x341 DUP4 PUSH2 0x17D JUMP JUMPDEST SWAP3 POP DUP3 DUP3 SUB SWAP1 POP DUP2 DUP2 GT ISZERO PUSH2 0x359 JUMPI PUSH2 0x358 PUSH2 0x2FF JUMP JUMPDEST JUMPDEST SWAP3 SWAP2 POP POP JUMP JUMPDEST PUSH32 0x4E487B7100000000000000000000000000000000000000000000000000000000 PUSH0 MSTORE PUSH1 0x32 PUSH1 0x4 MSTORE PUSH1 0x24 PUSH0 REVERT INVALID LOG2 PUSH5 0x6970667358 0x22 SLT KECCAK256 0xDB MSTORE8 DUP12 NOT INVALID LT SWAP5 DUP4 0xAC PUSH14 0x90D9ED7D0AC747EF9FDC731F8377 MLOAD 0xCB 0xCC 0xE0 SWAP13 0x22 PUSH17 0x7564736F6C634300081600330000000000 "
		},
		"gasEstimates": {
			"creation": {
				"codeDepositCost": "192400",
				"executionCost": "236",
				"totalCost": "192636"
			},
			"external": {
				"deleteNumber(uint256)": "infinite",
				"getLength()": "376",
				"returnArray()": "infinite",
				"setNumber(uint256,uint256)": "infinite"
			}
		},
		"methodIdentifiers": {
			"deleteNumber(uint256)": "067cda81",
			"getLength()": "be1c766b",
			"returnArray()": "3cac14c8",
			"setNumber(uint256,uint256)": "6b19e8c7"
		}
	},
	"abi": [
		{
			"inputs": [
				{
					"internalType": "uint256",
					"name": "_n",
					"type": "uint256"
				}
			],
			"name": "deleteNumber",
			"outputs": [],
			"stateMutability": "nonpayable",
			"type": "function"
		},
		{
			"inputs": [],
			"name": "getLength",
			"outputs": [
				{
					"internalType": "uint256",
					"name": "",
					"type": "uint256"
				}
			],
			"stateMutability": "view",
			"type": "function"
		},
		{
			"inputs": [],
			"name": "returnArray",
			"outputs": [
				{
					"internalType": "uint256[6]",
					"name": "",
					"type": "uint256[6]"
				}
			],
			"stateMutability": "view",
			"type": "function"
		},
		{
			"inputs": [
				{
					"internalType": "uint256",
					"name": "_n",
					"type": "uint256"
				},
				{
					"internalType": "uint256",
					"name": "_m",
					"type": "uint256"
				}
			],
			"name": "setNumber",
			"outputs": [],
			"stateMutability": "nonpayable",
			"type": "function"
		}
	]
}